:0200000480007A
:100000009702000093824201739052306F00901863
:020010000000EE
:02001200FFFFEE
:100014005D7106C00EC212C416C61AC81ECA72CCBE
:1000240076CE7AD07ED22AD42ED632D836DA3ADCBC
:100034003EDEC2C0C6C2F322103496C4F32200309E
:1000440096C6EF00E01B1303000021E1F3222034E5
:10005400B70300809383F3FFB3F272002D43638AE6
:10006400620013050100970000009380E0126F10F6
:100074008038A642910296C4976200009382C248D7
:1000840003A302006313030041A0930201009773CA
:1000940000009383E38003A14300411116C003AE23
:1000A4000300050E23A0C3016308030097000000AA
:1000B400938080036F10803A73252034B702008048
:1000C4009382F2FF33755500EF00801297520000BF
:1000D4009382C2150E05AA9203A5020003A342004F
:1000E400E7000300176300001303837B83230300EB
:1000F400FD132320730082421381020083238300B3
:10010400032E030263087E089762000093824279FB
:1001140003A382002326830223289302232A230392
:10012400232C3303232E4303232053052322630567
:10013400232473052326830523289305232AA30553
:10014400232CB30523242302976300009383833372
:1001540003AE03002326C30703A3020223A4620001
:10016400032183020324C3028324030303294303D7
:1001740083298303032AC303832A0304032B43042D
:10018400832B8304032CC304832C0305032D430511
:10019400832D8305A64273901234B64273900230C5
:1001A400824092412242B2424243D243624EF24ED4
:1001B400025F925F2255B2554256D2566257F257A9
:1001C4000648964861617300203000007300000007
:1001D400976200009382C26C03A382008323C30648
:1001E4002189F32205301385030067800000000095
:1001F4000543B312A30073B34234678000000000C8
:10020400F322203437030080B3F2620013050000A8
:0A0214006383020005056780000007
:02021E00FFFFE0
:100220006300060293070002B387C740634CF000E7
:10023000130506FE1307000033D5A500930507003C
:100240006780000033D7C5003355C500B395F5006E
:100250003365B5006FF09FFE130101FD232291026B
:100260002328610123261102232481022320210354
:10027000232E3101232C4101232A51012326710110
:100280002324810123229101130B0500938405008F
:10029000639C0638130406009309050017590000F3
:1002A0001309091163F8C512B7070100938A050005
:1002B0006378F6109306F00FB3B6C6009396360037
:1002C000B357D6003309F90003470900B306D70036
:1002D000130700023307D740630C0700B394E40010
:1002E000B356DB003314E600B3EA9600B319EB0013
:1002F000135B040193050B0013850A00EF004063B4
:100300001309050093050B00931B040113850A00D4
:10031000EF00805D93DB0B0193040500930505005E
:1003200013850B00EF0080501319090113D7090141
:100330003367E900138A0400637EA7003307870050
:10034000138AF4FF636887006376A700138AE4FFCB
:1003500033078700B304A74093050B0013850400FF
:10036000EF00005D1309050093050B0013850400E1
:10037000EF00805793990901930405009305050048
:100380001319090113850B0093D90901EF00004AE5
:10039000B36939011386040063FCA900B309340171
:1003A0001386F4FF63E6890063F4A9001386E4FF73
:1003B00093170A01B3E7C700130A00006F00001388
:1003C000B707000193060001E36CF6EE9306800187
:1003D0006FF01FEF138A0600631A060093050000F2
:1003E00013051000EF00405013040500B70701008B
:1003F000637CF4129307F00F63F48700130A800004
:10040000B35744013309F90083460900130600027B
:10041000B38646013306D64063120612B384844085
:10042000130A1000135B040193050B0013850400ED
:10043000EF0000501309050093050B00138504001D
:10044000931B0401EF00404A93DB0B01930405006A
:100450009305050013850B00EF00403D13190901BA
:1004600013D709013367E900938A0400637EA7006C
:1004700033078700938AF4FF636887006376A700D9
:10048000938AE4FF33078700B304A74093050B006A
:1004900013850400EF00C0491309050093050B0004
:1004A00013850400EF00404493990901930405006B
:1004B000930505001319090113850B0093D9090150
:1004C000EF00C036B36939011386040063FCA9004C
:1004D000B30934011386F4FF63E6890063F4A900CD
:1004E0001386E4FF93970A01B3E7C700138507005B
:1004F00093050A008320C102032481028324410260
:10050000032901028329C101032A8101832A4101B0
:10051000032B0101832BC100032C8100832C41009C
:100520001301010367800000B7070001130A0001EF
:10053000E368F4EC130A80016FF09FEC3314C400FD
:1005400033DAD400B319CB00B356DB00135B0401DC
:10055000B394C40093050B0013050A00B3EA960098
:10056000EF00003D1309050093050B0013050A0079
:10057000931B0401EF00403793DB0B01930405004C
:100580009305050013850B00EF00402A131909019C
:1005900013D70A013367E900138A0400637EA700BA
:1005A00033078700138AF4FF636887006376A70028
:1005B000138AE4FF33078700B304A74093050B00B9
:1005C00013850400EF00C0361309050093050B00E6
:1005D00013850400EF0040319304050093050500E6
:1005E00013850B00EF00802493960A01131909016B
:1005F00093D60601B367D9001387040063FEA700F2
:10060000B38787001387F4FF63E8870063F6A700CA
:100610001387E4FFB3878700131A0A01B384A74046
:10062000336AEA006FF01FE063ECD51EB7070100E4
:1006300063F4F6049305F00F33B5D50013153500B8
:1006400033D7A60097570000938787D6B387E70074
:1006500083C50700130A0002B385A500330ABA4018
:1006600063160A0293071000E3E296E83336CB00E4
:10067000934716006FF09FE7B707000113050001CD
:10068000E3E0F6FC130580016FF09FFBB35AB60060
:10069000B3964601B3EADA0033D9B400B397440104
:1006A000B355BB0093DB0A01B3E4F5001305090061
:1006B00093850B00B3194601EF0080271304050052
:1006C00093850B0013050900139C0A01EF00C0215C
:1006D000135C0C01130905009305050013050C00BC
:1006E000EF00C0141314040113D704013367E400AE
:1006F000930C0900637EA70033075701930CF9FFA1
:10070000636857016376A700930CE9FF330757012D
:100710003309A74093850B0013050900EF00402122
:100720001304050093850B0013050900EF00C01B9F
:10073000130905009305050013050C00EF00000FD9
:10074000939704011314040193D707013367F4004E
:1007500013060900637EA700330757011306F9FF4C
:10076000636857016376A7001306E9FF3307570153
:1007700093970C01370E0100B3E7C7001308FEFF83
:1007800033F3070133F809013307A74093DE07016C
:1007900093D909011305030093050800EF00000930
:1007A000930805009385090013050300EF00000876
:1007B000130305009305080013850E00EF000007E2
:1007C000130805009385090013850E00EF0000064D
:1007D00093D6080133030301B386660063F4060170
:1007E0003305C50113D606013305A6006366A702CB
:1007F000E314A7BC370701001307F7FFB3F6E600C1
:1008000093960601B3F8E80033164B01B386160140
:10081000130A0000E37CD6CC9387F7FF6FF0DFB9B3
:10082000130A0000930700006FF05FCC1306050069
:100830001305000093F61500638406003305C50018
:1008400093D5150013161600E39605FE6780000089
:10085000130101FF1383060023261100130E050068
:100860009308050093060600130700009307000095
:100870001308000013F51600931E1700630C050003
:100880003385080133380501B387E700B307F80063
:100890001308050013D7F80193D6160033E7EE00CE
:1008A00093981800E39806FC63880500130506007A
:1008B000EFF0DFF7B387A700630A030013050E000C
:1008C00093050300EFF09FF6B307F5008320C10006
:1008D00013050800938507001301010167800000DC
:1008E0006340050663C605061386050093050500EB
:1008F0001305F0FF630C060293061000637AB6003E
:100900006358C0001316160093961600E36AB6FEED
:100910001305000063E6C500B385C5403365D50007
:1009200093D6160013561600E39606FE6780000065
:1009300093820000EFF05FFB1385050067800200E3
:100940003305A04063D80500B305B0406FF0DFF970
:10095000B305B04093820000EFF01FF93305A040CB
:10096000678002009382000063CA0500634C0500A3
:10097000EFF09FF71385050067800200B305B040D4
:10098000E35805FE3305A040EFF01FF63305B040F5
:1009900067800200177100001301C1D3B712000075
:1009A000938202801691EF00D02F00006F10201468
:1009B00000008280B7650080375500809385C53B75
:1009C000130545566F105033797106CE22CC42D4B0
:1009D00046D621E136862E87B7560080B75500806F
:1009E00037550080938606573E84938545613C10B9
:1009F000130585643EC6EF104054B2452285EF10C2
:100A00000052376500801305C5AFEF100053EF109B
:100A1000502CF240624445618280797126D22A8747
:100A2000AA84B7160080B7750080376500808148BA
:100A3000014881479386E6AC130600209385058D17
:100A400002C202C01305855506D622D44AD04ECE26
:100A5000EF3010382A89EF40604D9305401F2A84FB
:100A60002685EF206020AA89EF40404C3304854062
:100A70004A85EF30704737590080B7540080B75728
:100A80000080B7550080130709571386446113B5DA
:100A90001900938747589306B0029385455B2D371D
:100AA000133504052254B250F2491307095713862F
:100AB000446102599254B7570080B755008093871C
:100AC000875C93062003938505604561F5BD411160
:100AD00022C42A841305200306C6EF304042228533
:100AE0002244B24041016F10307A411122C4376470
:100AF00000801305445406C6EF10B0771305445424
:100B0000293F2244B240376500801305054D41015D
:100B100029B7797106CE42D446D61DED36863755B3
:100B20000080BA862E87B76500803C1093850580CB
:100B3000130585643EC6EF104040B245376500801E
:100B40001305C59FEF10A03D376500801305C5AFA5
:100B5000EF10A03EEF10F017F240456182800111C6
:100B600022CC81453764008006CE26CA4AC84EC6CC
:100B700052C456C22A8A1304845CEF20E00E37590F
:100B80000080B7690080B7640080B75A0080018D8B
:100B90009387C99F13070967138604809306600330
:100BA00093854A7413351500AD3781455285EF2082
:100BB000A00B2104018D9387C99F13070967138632
:100BC00004809306600393854A74133515009137AA
:100BD0008145528537640080EF2000091304845D4D
:100BE000B75A0080018D9387C99F13070967138641
:100BF00004809306B0039385CA7613351500113F20
:100C000081455285EF2040062104018D9387C99FBD
:100C100013070967138604809306B0039385CA7689
:100C200013351500FD358145528537640080EF206E
:100C3000A0031304845EB75A0080018D9387C99F77
:100C400013070967138604809306000493854A7985
:100C5000133515007D3D81455285EF20E0002104CC
:100C6000018D6244F240224A9387C99F13070967A6
:100C7000B24942491386048093854A79D244924A04
:100C80009306000413351500056161B5411122C4B6
:100C900006C62A84E93508402244B240B76700807E
:100CA0003757008037660080B75500809387C79F0D
:100CB0001307C7689306E004130606809385856CC6
:100CC000133515004101B1B5411106C6493DB24089
:100CD000376500801305855F41016F30404B41113E
:100CE00022C42A8437650080054681451305855F47
:100CF00006C6EF30C03F37150080A285130565D7C3
:100D0000EF00007822852244B240410189BD0111E3
:100D1000B765008026CA9384855C9385855C06CE82
:100D200022CC2A84EF10505E938584002285EF1038
:100D3000B05DB76500809387855D1386870090C39B
:100D4000228523A407009385855DEF10705CB7674B
:100D500000809387875E138787002C00228523A459
:100D6000070098C33EC43AC6EF10B069F24062442F
:100D7000D24405618280411122C406C62A84413FC3
:100D800008402244B240B76700803757008037667A
:100D90000080B75500809387C79F1307C7679306E6
:100DA0008004130606809385856F3335A0004101CA
:100DB0008DB3011152C4376A00804EC6AA8913054B
:100DC0008A6006CE22CC26CA4AC8913703A50900FC
:100DD000B75400803769008037640080B7550080C1
:100DE0009307C99F1387C46913060480930690076D
:100DF0009385057C3335A000293B13058A60853334
:100E000003A50900130604806244F240B249224A55
:100E10009307C99F1387C4694249D244B7550080DC
:100E20009306D0079385057E133515000561D5B16E
:100E3000011122CC3764008026CA0546AA84814568
:100E40001305845F06CE4AC8EF30602AB7160080CB
:100E5000B775008037650080268781480148814743
:100E6000938686CC13060020938505AD02C202C08E
:100E70001305C561EF30C0752A892685493D1305E4
:100E8000845FFD55EF30403B6244F240D2444A85D6
:100E9000424905616F305005411122C42A843765EB
:100EA0000080814505461305855F06C6EF30202486
:100EB0002285B13DA2852244B2403715008013053A
:100EC000C5C8410175AB411122C4376400801305C8
:100ED000846006C6EF10F03913058460913F224408
:100EE000B240376500801305454E410191B741116D
:100EF00022C4376400801305846006C6EF10703783
:100F000013058460E93B2244B24037650080130535
:100F1000454E4101E9B3411122C4376400801305F5
:100F2000846006C6EF10F03413058460B5372244A0
:100F3000B240376500801305454E4101B1BF4111F4
:100F400022C4376400801305846006C626C2EF10F1
:100F50005032930484608840B76700803757008020
:100F600037660080B7550080133515009387C79FFB
:100F70001307C76A9306700B1306068093854572A4
:100F8000493E130584602244B2409244410115B5A4
:100F9000411122C4376400801305846006C6EF1037
:100FA000502D930584602244B2403715008013050C
:100FB00025DB4101F1A1797106CE42D446D631E15B
:100FC00036862E87B7660080B7650080375500806B
:100FD0003C10938686839385058A130585643EC6F7
:100FE000EF00B075B245376500801305C59FEF006F
:100FF0001073376500801305C5AFEF001074EF1054
:10100000404DF240456182807971680006D622D455
:1010100026D24AD0EF10F02581456800EF10D04469
:10102000B76400803769008037640080B76500804E
:101030009307C99F138784831306048AF146938517
:10104000C58413351500853F930540066800EF10F1
:10105000B041B76500809307C99F13878483130647
:10106000048AF5469385858713351500A937B25054
:10107000225492540259456182804111B765008023
:1010800026C29384C5689385C56806C622C42A848F
:10109000EF109027938584002285EF10F02693852A
:1010A00004012285EF10502622852244B240938508
:1010B0008401924441016F103025797106CE42D4EB
:1010C00046D631E537570080B7660080B7650080A7
:1010D000375500803C10130747749386468D1306DE
:1010E000300293854597130585643EC6EF00F06492
:1010F000B245376500801305C59FEF005062376524
:1011000000801305C5AFEF005063EF10803CF24044
:1011100045618280011122CC376400801304C468C9
:1011200026CA4AC84EC652C456C25AC006CE2A8BD8
:1011300093040402376A0080B76A0080B7690080B0
:101140003759008081455A85EF101032018D938701
:10115000CA9F13074A8D9306300213864997930559
:101160004974133515002104893FE31D94FCF240B6
:101170006244D2444249B249224A924A024B056132
:101180008280411122C42A84376500801305058EB0
:1011900006C6EF00905A2285B53F376500801305DB
:1011A000058FEF00905922852244B2404101F1B5EC
:1011B000411126C2AA84376500801305459006C6F2
:1011C00022C4EF0090572685B1373764008013059D
:1011D000C46AEF20D07B3765008013058591EF004E
:1011E000D0552685593D1305C46A2244B240924425
:1011F00041016F20D079397122DC376400801305FA
:10120000C46B26DA4AD852D456D25AD05ECE62CCBB
:1012100066CA6AC806DE4ED68144EF109005376D67
:10122000008037690080377C0080B76B0080B71C76
:101230000080376B0080B71A0080376A0080A6856F
:1012400013050D93EF00704F054681451305C96ADC
:10125000EF20F0698147814801481307C46B9386EA
:101260000C1B1306002093050CCD02C202C013858F
:101270000B6DEF30E035AA8913050B95EF00F04BAD
:101280001305C46BDD3B9305C46B13852A18CD2A67
:10129000FD551305C96AEF20307AFD551305C96A5B
:1012A000EF20907913054A96EF0030491305C46B7F
:1012B00095354E85EF304043376500801305C5AF47
:1012C000EF00B047850493070002E39AF4F6F2506A
:1012D0006254D2544259B259225A925A025BF24B8A
:1012E000624CD24C424D21618280411106C622C41B
:1012F00099476302F502EF30800C0DC1EF30200CEE
:1013000021E1B7650080938585C5376500801305A9
:10131000C5C6EF009042EF00B046F5BFEF30000BBE
:1013200071FD377400801304048A0C443765008013
:101330001305C5C8EF0070400844EF30E03AE1BF44
:10134000B7650080938545C5C9B75D71A2C4A6C2C3
:1013500086C69947AA842E8463E9A7083767008068
:10136000931725001307879ABA979C43828737659E
:101370000080130585ADEF00503CEF20B0567C4057
:10138000832804010328C4003ED83C405840144040
:101390003ED65C5C3044AA853ED41C5C3765008038
:1013A0001305C5B53ED25C583ED01C583ECE5C54A9
:1013B0003ECC1C543ECA5C503EC81C503EC65C4CE1
:1013C0003EC41C4C3EC25C483EC01C44EF00F0369C
:1013D000A2852685193F37650080130505B061BFDA
:1013E000376500801305C5B179B737650080A685DC
:1013F000130585B3EF00703449B7411122C406C606
:101400002A847326203406060582954763E3C702C3
:1014100037670080931726001307479CBA978C43C1
:10142000376500801305459EEF003031A2850145E8
:10143000293FB76500809385C59DDDB7411106C67C
:10144000F32520343765008086058581130545CB5B
:10145000EF00B02EB7650080938505A01145F535E6
:10146000B767008093878750984311CB03A3070089
:1014700023A00700B767008003A5C75002838280BE
:10148000A147F3B70730376700802324A750376799
:1014900000802326B75073000000A18BF3A707300C
:1014A0008280411106C6EF10202EEF00F02EEF10C3
:1014B000E032797122D426D24AD04ECE52CC56CACE
:1014C0005AC85EC63E8B06D662C4BD47AA842E8427
:1014D000B289368ABA8BC28A46896394F806B727DE
:1014E0000080938727766393F606C256CA852685C1
:1014F0001146EF209075938509FBA295896723AE6D
:10150000040423A00406C19993870788FCC5B71774
:101510000080B25022549387C79A23A4450323A680
:10152000750323A8650323AA5503BCC58CD40259AF
:101530009254F249624AD24A424BB24B224C456124
:10154000828093860801F947E3F1D7FA376C00806F
:10155000B7650080376500801306CCCDE1469385E2
:10156000C5CF130585D8EF00501D37650080CA85AB
:10157000C1563946130585DAEF00301CE1451305E5
:10158000CCCDEF00701D95B793971500AE971397CC
:1015900027005C45BA970307B5006353B7009C4327
:1015A0001357F6417D8B329715870A07BA979CC26D
:1015B0001375F60182800111740006CEF1373247AF
:1015C00085473395A7001C43F240C98F1CC30561B2
:1015D00082800111740006CE453F3247854733951E
:1015E000A7001C43F2401345F5FF7D8D08C305613C
:1015F0008280011126CA444122CC2A8403558500E9
:10160000A6854AC84EC652C456C25AC006CEEFF08E
:10161000EFA183290400834AA400FD572A8AAA99CE
:10162000A305F40001497D4B63415903814483576D
:10163000840063CFF404F2406244D2444249B24988
:10164000224A924A024B05618280A6855285EFF0BC
:10165000AFA9131719004A979317270058443E97CC
:10166000930747005CC31CC76349AB00A305240173
:1016700089808D04F198050945BF7D059357F54193
:10168000FD8BAA9795878A0723203701BE99CDB78E
:101690004C402685EFF08F991C40268681453E956B
:1016A0005C4485041387470018C1984758C1984780
:1016B00008C388C7228501379DBF1D71A2CCD6C241
:1016C00086CEA6CACAC8CEC6D2C4DAC05EDE62DC86
:1016D00066DA6AD86ED68010034EA500814893174B
:1016E0002E00BD0793F7077F3301F1405C418A8AE2
:1016F00056838D07F19B23A0FA00138BF8FF63D26A
:10170000C803638B08000328C3FF135828000D0883
:101710001378C8FF2320030111030328C3FF637953
:10172000B802FD556318BB02232007005155130171
:1017300004FAF6406644D6444649B649264A964AD3
:10174000064BF25B625CD25C425DB25D25618280D9
:10175000850865B7834505010149858991C52149FA
:101760007339093013798900232AE4FA13171B000F
:10177000232CD4FA5A9754450A0711073697232E7B
:10178000C4FAAA845A8AFD568329070063083713CE
:1017900013172A0083A64900B38CEA0003A70900A7
:1017A00083A50C00214D98C254C323A0090023A295
:1017B000090088403385A940EFF08F922A86D285B0
:1017C0002685013D050A9306FAFF63C2660503C735
:1017D0000401058B19C373290930832744FB515534
:1017E00023A03701E38509F48327C4FB884023A0A5
:1017F000670193172B00BE9A83A50A003385A94081
:10180000EFF00F8E832784FB88C301450DB7884016
:1018100083A50C00854B3385A940EFF06F8C93189E
:101820001A00D298931D25008A0883A64C00DE85F5
:10183000232614FB36852328D4FAEFE03FFF338CB0
:10184000A9003386BB01D2852685B533832604FBE8
:101850009040CC40FD1603D58400E296918E23285B
:10186000D4FAEFE0BFFC832604FB8328C4FA63F0BC
:10187000A602D444C696138646002320CC00904688
:101880002322CC0090462320860123A48601850BC9
:101890009147E39CFBF883C60401858A89E60149E8
:1018A000050A910C0DB77329093083C60401858A96
:1018B000FDD673390D3013798900DDB77D1A138792
:1018C00049FFE313DAEC814919B71D71A2CCD2C4E8
:1018D00066DA86CEA6CACAC8CEC6D6C2DAC05EDE70
:1018E00062DC6AD86ED680100347A500AA8C0A076E
:1018F0003D071377077F3301E14058410A8AD286BA
:101900000D07719B2320EA000545910663F3A508A6
:1019100003C70C012E89B289058B814409C7A144F4
:10192000F3B40430A188376B0080635C0906B764A8
:101930000080B7650080376500801386C4DD93069C
:10194000000C938545E4130585D8C52B37650080C9
:10195000130505E1DD231385C4DD9305000CED2B94
:10196000FD5483C70C01858B81C7A188F3A4043083
:10197000130104FAF6406644D6444649B649264A5D
:10198000964A064BF25B625CD25C425DB25D2561B9
:10199000828003A7C6FF050509830D07719B98C2C6
:1019A000ADB7131729005297832A070003AC0C0028
:1019B0004E85D685EFE09FE7938BFAFF330D7501D7
:1019C0002A9C83A54C0003D58C00EFE03FE66369B9
:1019D000AD02B7670080938507DFB7670080138586
:1019E00087D89306400A1306CBDD812BB7670080AA
:1019F0001385C7E099239305400A1305CBDDA92B76
:101A00004E86CA856685453E131719004A97931678
:101A1000270003A7CC003697930647002320DC005D
:101A200014472322DC00144723A0860123248701C6
:101A300003C70C01058B4DE38144E30409F29306CF
:101A4000C4FB4E86CA85668581368326C4FB135740
:101A5000F5410D8B2A978842719BBD473357E500AE
:101A60003D8BE310F7F0014D93FDC9FF3386AD01C7
:101A70003285D6852324C4FAEFE05FDB3307750196
:101A80002A8C83A54C0003D58C002326E4FAEFE0D2
:101A9000FFD90327C4FA032684FA6373A702CA8511
:101AA0006685EFF01FB303A70C003A9C03264C0099
:101AB00003270C0018C250C323200C0023220C0063
:101AC000050D9147E314FDFA13D6F9410D8AB29939
:101AD0007D1993D9294091BDF3A4043003C70C01AB
:101AE000058B39DBA147F3B40730A188B9B74111A1
:101AF000AA872E85B285368606C68297EF20805E3D
:101B0000EF20903E01458280411122C42A841305B2
:101B1000500406C626C2AE840294A685130520058D
:101B2000029422832244B240A685924413052005E4
:101B3000410102839C4185079CC1B767008003A3D4
:101B400007470283397122DC4ED652D45AD06AC874
:101B500006DE26DA4AD856D25ECE62CC66CA6EC699
:101B6000AA892E8A328D368B05446353E0003A846D
:101B70008547930C00026314FB00930C0003B7D459
:101B80009A3B0549A94A014C9384F49F894D938B54
:101B9000140063140C0063F2A407DE856A85EFE08D
:101BA000BFD4D2851305050382990509054CDE854E
:101BB0006A85EFE0FFD72A8DA9452685EFE0DFD2C1
:101BC000FD1A8547AA84E394FAFCD28513050D0318
:101BD00082998D4733042441630FFB02F250625413
:101BE000D2544259B259225A925A025BF24B624C79
:101BF000D24C424DB24D21618280E34A54FBE3E86E
:101C00006DFBD28566858299050955B7D285130586
:101C1000000282997D14E34B80FEC9B7B76700804C
:101C200023A8A74682805D71A2C4A6C2CAC04EDEA8
:101C300052DC56DA66D26AD06ECE86C65AD85ED6E6
:101C400062D42A84AE84B28A368D014A7D59814994
:101C5000814CB70D008003C50A0005E1B64026445B
:101C600096440649F259625AD25A425BB25B225CF0
:101C7000925C025DF24D61618280639A0C00930672
:101C800050026305D528A6850294850AE9B7930614
:101C90004006630BD50E63EBA6049306900363E73F
:101CA000A602930610036375D50C9306D002630455
:101CB000D526930700036303F50A13075002631F39
:101CC000E500A68513055002029409AA9306800533
:101CD000630BD514130730066303E522A6851305AD
:101CE00050020294A68503C50A00F9BF93060007B7
:101CF0006301D51263EFA600930690066306D5082C
:101D00009306C0066300D50893068006E30FD5F658
:101D1000F1B7930650076305D50C63EAA6021307D3
:101D20003007E31DE5FA032C0D00130B4D00E28B89
:101D300003C50B00631B051A8D476398F900B38B2D
:101D40008B41B30B79416346701B5A8D41A89306B2
:101D50008007630AD50C9306A0074DBF635C09009A
:101D6000638D091A130905FDE39109F2894931BF11
:101D7000E34A09FE9316290036990609130909FD5D
:101D80002A99DDB7050A11B763160A0203260D006A
:101D9000110D635B0600A6851305D00232C00294C4
:101DA00002467D193306C0404A87CE86A685228525
:101DB000513B2DA00547E30BEAFC93077D0013F789
:101DC00087FF10435443130D87003307B6013337A1
:101DD000C70036975DDFA68522853D33814C75B5FA
:101DE00063160A0003260D00110D7DBF0547E30BA6
:101DF000EAFE93077D0013F787FF130D870010435A
:101E0000584371FBB707008093C7F7FFE3FEC7F89D
:101E1000D9B7A685130500030294A685130580078C
:101E2000029421498549854663C6460783270D00EC
:101E300002C4110D3EC2414C814B02C0C148124543
:101E4000A245138BF8FF13162B0046C6EFE04FBDDB
:101E50003D8939ED82479306000389E7B2488547FB
:101E60006390F80636956205A68561850294850B18
:101E7000631D0B028D46814CE399D9E013171900BD
:101E8000B30B7741E35C70F5A6851305000202945D
:101E9000FD1BCDBF93077D0093F687FF9C42138DFA
:101EA00086003EC2DC423EC479B766C0DA8841BFD4
:101EB000A54793067005E3E7A7FA930600035DB70D
:101EC0009307FCFF3EC66349890185476398F90083
:101ED000A685130500030294324CC9BF8947E39DD0
:101EE000F9FEA68513050002FDB7A685850B0294B1
:101EF00081B5A685130500020294FD1BA9B5032533
:101F00000D00A685130B4D00029481B5014A7D5941
:101F10008149854C9DBB8D498DBB8549BDB3011160
:101F20002A8637250080AE86130545B36C0006CEA1
:101F300002C6D539F2400561828039712ED24C102B
:101F400006CE32D436D63AD83EDA42DC46DE2EC64B
:101F5000F937F24021618280B765008037650080E3
:101F60004111938505E2130545E3794606C6F1372D
:101F7000B7650080938505A01945EFF00FBD8280FD
:101F8000A147F3A70730730050108280854733952F
:101F9000A700732545308280A147F3B707307350FF
:101FA0004030735040348280411122C426C23764CD
:101FB000008006C6A947AA84130404516317F500DC
:101FC0000840B5455C41DC438297084093F5F40F27
:101FD0005C41DC438297B240224426859244410111
:101FE0008280411122C437240080130584FA06C67A
:101FF000A529130584FA2244B240410105B1376591
:1020000000804111130505E406C6EF00806FB76735
:10201000008023A8A750F137B240014541018280DA
:10202000B70710F003A747F403A507F483A547F407
:10203000E39AE5FE8280011122CC06CE26CA4AC868
:102040004EC652C456C221447334043037690080EE
:10205000130549512188EF20E04015E9B76400805D
:10206000B7650080376500809385C5E69306E00478
:10207000138644E5130585D8C935376500801305F7
:1020800045E8653D9305E004138544E5F135130506
:102090004951B7640080EF20A0409384844F4937B2
:1020A00083A9040083AA4400AA8733053541B3B746
:1020B000A700B385554175661306064C81469D8D74
:1020C000EFE08F992A8AF5659385054C5285EFE0FC
:1020D000EFF5AA9933B5A9005695C8C01305495123
:1020E00023A03401EF20A03915E9B7640080B7655B
:1020F0000080376500809385C5E993061006138636
:1021000044E5130585D8153D37650080130545EB7B
:102110002D3593051006138544E53D3D73240430A9
:102120006244F240D2444249B249924A5285224A1C
:1021300005616F207032411106C6DD35F567938762
:10214000074C370710F0AA97FD562326D7F433B56E
:10215000A7002E952324F7F42326A7F41D453D352B
:10216000B24001454101828063950514011106CEFC
:1021700022CC26CA4AC84EC652C456C25AC0FD57BF
:102180006315F50025651305E5BCA5671304F5FF88
:102190009387E7BC63DB87103E842149733909309C
:1021A000B76A008013854A5113798900EF20802B8C
:1021B00015E9B7640080B7650080376500809385B6
:1021C000C5E69306E004138644E5130585D8B533C8
:1021D00037650080130545E88D339305E0041385CA
:1021E00044E59D3B13854A51EF20802B153DB76791
:1021F00000809387874FF56483A907002A8A938517
:10220000044C228503AB4700EFE04FE29387F44B89
:10221000B38737413E959385044C5295EFE0CFEC60
:102220009385044CEFE08FE0338A49412A9A930763
:10223000703E63C547019384044C2695B70710F0A0
:10224000AA997D5723A6E7F433B5A9005A9523A48C
:1022500037F523A6A7F413854A51EF20402215E94C
:1022600037640080B7650080376500809385C5E9D5
:1022700093061006130644E5130585D87D393765A6
:102280000080130545EB553993051006130544E509
:10229000E13173290930F2406244D2444249B249E3
:1022A000224A924A024B05618280E35804EE0144BF
:1022B000EDB58280411122C406C626C24AC021441F
:1022C00073340430B7640080138544512188EF20B3
:1022D00060190DED37690080B765008037650080B3
:1022E0009385C5E69306E004130649E5130585D8F2
:1022F000EFF0BFC437650080130545E8EFF0FFC37A
:102300009305E004130549E5EFF01FC5138544511B
:10231000EF2000193133B767008083A7874FF56539
:102320009385054C1D8DEFE02FDC2A8913854451E0
:10233000EF20E0140DEDB7640080B76500803765CD
:1023400000809385C5E993061006138644E51305BE
:1023500085D8EFF09FBE37650080130545EBEFF0A1
:10236000DFBD93051006138544E5EFF0FFBE73242F
:102370000430B24022444A8592440249410182809D
:102380008347050003C705006393E70081E73385B2
:10239000E740828005058505E5B7B347B5008D8B1D
:1023A00095CFAA8701476317E60482807DDE850505
:1023B00003C7F5FF85077D16A38FE7FE13F73700E8
:1023C00075F78D463308E64063EC06011357260087
:1023D00093162700158EB697B695E9B7AA87F9BF69
:1023E000B388E50083A808003388E700110723209D
:1023F0001801C9BF3388E50003480800B386E70029
:1024000005072380060145B793F6F50FAA8713F752
:1024100037001DEB93F5F50F13978500D98D1397B2
:102420000501D98D3383C7003E870D48B308E340CB
:10243000636218031357260093152700AE970D8E7D
:102440003E96639DC70082807DDE8507A38FD7FE01
:102450007D1675BF1107232EB7FEC9BF8507A38F51
:10246000D7FEC5B77D558280B767008023AAA746EF
:102470008280011122CC1C453764008026CA1304D7
:102480008447B764008006CE4AC84EC69384845100
:102490008549232004002A8923A0340182978327B9
:1024A000490023203401829789471CC08327C90033
:1024B00082978D471CC0624423A00400F240D2449E
:1024C0004249B249376500801305057405616F10F4
:1024D000104C376500804111B76700807D571305A8
:1024E000057406C623ACE750EF10704AEF10903F1A
:1024F000B24041016F20401F1D71A6CAB764008021
:1025000083A7C45186CEA2CCCAC8CEC6D2C4D6C276
:10251000DAC05EDE62DC66DA6AD86ED663C90706A8
:10252000376400800546AA892E8C13050474814502
:10253000EF10F03B37650080CE85130505F1EFF015
:10254000DF9F37690080130589F2B76A0080EFF0DA
:10255000DF9E9384C451014A22CEB77C0080376B42
:102560000080372D0080B76D0080B76B0080938AA4
:102570008AEC83274C009DEBCE8563030A0C3765FC
:102580000080130585F9EFF05F9B85479CC0F640FE
:102590006644D6444649B649264A964A064BF25BFB
:1025A000625CD25C425DB25D2561828083250C0055
:1025B000B7670080138507F7EFF03F9802C28327C3
:1025C0000C0162871306004093E78700FD5801481D
:1025D00093062D473EC093850CED814713050B757F
:1025E000EF10107FF247FD5513850774EF10D044AC
:1025F00093878D5113050B758043EF20E00EB7676D
:1026000000809387875198430504F95713341400C9
:1026100003260C006311F702B7650080938545F827
:102620001385CBF8EFF07F91130589F2EFF0FF905F
:10263000229A510C3DBF93172400D6978C43CDB7F7
:1026400037650080130505FBEFF03F8F9C40B337E3
:10265000F0002DBFB767008083A7C751411122C486
:102660003765008006C637640080130585F291CF78
:10267000EFF0BF8CB7650080938545ED1305C4ED81
:102680002244B24041016FF05F8BEFF01F8BB765C2
:102690000080938545EFDDB7411106C6EFE08FB1AD
:1026A000B240410145BF411102C6B24785073EC64F
:1026B000B70701F08CC3410182807D5582800145BE
:1026C000828013172500B76700800505938707FEF2
:1026D0000A0541113E97AA9722C426C200438443AB
:1026E00006C663679400B24022449244410182804E
:1026F0001C402285DC43829719C123220400310447
:10270000CDB74111B767008026C2B764008022C4EC
:1027100006C61384C7484AC09387C7489384C44BEE
:10272000631894002A893E84631C940001441DA010
:10273000584009C718401843630EA7003104CDB7AD
:102740005C4099E33104CDB71C404A858C43EFF0DF
:102750003FC36DF92285B2402244924402494101AF
:102760008280411122C426C206C621448944F3371F
:102770000430EF20803563C3A40005458545EF2074
:102780006040EFF0EFFFE5B737650080B777008076
:102790001306854F9387C78C3386C7408145130541
:1027A000854F6FF07FC64111094506C6193F376551
:1027B0000080130545FFEFF04FF80D451937EF1076
:1027C000306BD93DB77700809387078303C7C70075
:1027D000799B2386E700B24041018280357122CD8A
:1027E000B7870080377400804EC7938707ED930941
:1027F000048A23A2F9001C081306000781453E85C0
:1028000006CF26CB4AC9EFF03FC0054723A4A90055
:102810000145A30EE1007535054565359307101098
:10282000231EF100EF104052B767008093878703A3
:10283000377900803EC2B72600808547B775008093
:10284000930409833EC0014781478148014893862C
:10285000667A130600209385052D1305098323A0AE
:102860009902EF10B03783C7D4001304048A13F71A
:10287000B7FFA386E400ED8B99E79C4C89E713052D
:102880000983EF00304AB7670080938707043EC290
:10289000376500808547B7260080B77500809304B0
:1028A000057C3EC0BD480148814701479386267696
:1028B000130600209385054D1305057CEF1010329B
:1028C00083C7D40044C42145ED9BA386F400B777A9
:1028D00000809387878B1CCC5CCC733505302189B5
:1028E000EFD01F8F8347D500011122CC06CEFD8B80
:1028F0002A8499E71C4D89E72EC6EF00B042B24505
:10290000232604064CC8F24062440561828001110E
:1029100022CC26CA4AC84EC652C45AC006CE56C297
:102920002A84AE89328A368B13098500A144F3B418
:1029300004304A85A188EF10F0320DEDB76A0080AF
:10294000B7650080376500809385C5E69306E0048F
:1029500013864AE5130585D8EFF02FDE3765008032
:10296000130545E8EFF06FDD9305E00413854AE5B4
:10297000EFF08FDE4A85EF10B0321305C400EF1080
:10298000802001C9D285B93F4A85A685B125014578
:1029900091A863030B082145EF20B00731ED4A856C
:1029A000EF10F02D0DED37640080B76500803765BE
:1029B00000809385C5E993061006130644E51305C8
:1029C00085D8EFF08FD737650080130545EBEFF022
:1029D000CFD693051006130544E5EFF0EFD7F3A427
:1029E00004305155F2406244D2444249B249224A2D
:1029F000924A024B056182808547232245011CC112
:102A00001C418D8B639E09001840D98F1CC15C400E
:102A100008C0BDFB48C08DBF23200A005285CDB73A
:102A200003A70900719B01EF58401CC101E748C092
:102A300008C099BF1C438D8BC98F1CC3E1BFD98FC0
:102A40001CC183A709008D8B5D8D23A0A9002DBF1C
:102A5000411122C406C62A8401C91C418D8B89C735
:102A6000404199C1EF20407A2285B2402244410181
:102A700082809307C500232005002322050023241C
:102A800005005CC51CC98280011122CC26CA4AC837
:102A900006CE4EC62A89930485002144733404303F
:102AA00026852188EF10101C0DEDB7690080B765F1
:102AB0000080376500809385C5E69306E0041386A1
:102AC00049E5130585D8EFF04FC73765008013053A
:102AD00045E8EFF08FC69305E004138549E5EFF074
:102AE000AFC72685EF10D01B1305C900EF10A00952
:102AF00019C18145C53BA2856244F2404249B249B1
:102B00002685D2440561C9A92E864C41814601B56E
:102B1000011122CC4AC852C406CE26CA4EC656C29D
:102B20002A892E84328A91C10DEEB7640080B76580
:102B30000080376500809385C5059306D00E138607
:102B40008404130585D8EFF04FBF37650080130567
:102B5000C506EFF08FBE9305D00E13858404EFF009
:102B6000AFBF93098900A144F3B404304E85A18816
:102B7000EF10500F0DEDB76A0080B7650080376524
:102B800000809385C5E69306E00413864AE51305A5
:102B900085D8EFF08FBA37650080130545E8EFF070
:102BA000CFB99305E00413854AE5EFF0EFBA4E85FF
:102BB000EF10100F1DC4930AC9005685EF00B07CBA
:102BC00009E9032749000DEB23208900232249014D
:102BD00009A8A285EFF01FD100405685EF00B07A1A
:102BE00065F06244F2404249224A924AA6854E85E7
:102BF000D244B2490561CDA61C438D8B5D8C00C3C8
:102C0000F1B79C41411122C44AC006C626C22A8996
:102C10002E848DEFB7640080B76500803765008033
:102C2000938545089306B01013868404130585D850
:102C3000EFF0AFB0376500801305050AEFF0EFAF96
:102C40009305B01013858404EFF00FB150400C4091
:102C50004A857D3DB2402320040023220400224403
:102C60009244024941018280011122CC26CA4AC8FD
:102C70004EC606CE52C4AA84AE89130985002144EB
:102C8000733404304A852188EF10C07D0DED376A1A
:102C90000080B7650080376500809385C5E69306A0
:102CA000E00413064AE5130585D8EFF00FA9376550
:102CB0000080130545E8EFF04FA89305E0041305E5
:102CC0004AE5EFF06FA94A85EF10807D88403DC549
:102CD0001C41D840F19B9CC06313E500DCC08545D6
:102CE000EFF01FD7AA844A85EF1060790DED3769A0
:102CF0000080B7650080376500809385C5E993063D
:102D00001006130649E5130585D8EFF00FA33765C4
:102D10000080130545EBEFF04FA293051006130555
:102D200049E5EFF06FA373240430F2406244268536
:102D30004249D244B249224A05618280639609041D
:102D40004A85EF10C0730DEDB7640080B765008051
:102D5000376500809385C5E993061006138644E520
:102D6000130585D8EFF06F9D37650080130545EB9F
:102D7000EFF0AF9C93051006138544E5EFF0CF9D6F
:102D800073240430814455B71386C400CE86A285CF
:102D90004A85EF00B058814449F9B777008083A78E
:102DA000878AC44B59B78347D500FD8B89E7084D07
:102DB00013351500828001458280411106C6EFF06F
:102DC0006FCFB767008083A78752B2403777008004
:102DD0003E952328A78A81453E8541016F10905A70
:102DE0001C41411122C406C626C22A849DE7B7644D
:102DF0000080B76500803765008093854515130511
:102E000085D89306301813860414EFF00F939305BA
:102E1000301813850414EFF02F940840B240224478
:102E2000924441018280011122CC4EC652C406CE8A
:102E300026CA4AC82A8AAE89214473340430B7644A
:102E40000080138504522188EF10C0610DED3769B1
:102E50000080B7650080376500809385C5E69306DE
:102E6000E004130649E5130585D8EFF00F8D3765AB
:102E70000080130545E8EFF04F8C9305E00413053F
:102E800049E5EFF06F8D13850452EF106061B7775D
:102E90000080A94513059A0023A8078AEFD05FA4F4
:102EA000B7670080376900802324A95223A23753D3
:102EB000293713850452EF10805C0DEDB764008054
:102EC000B7650080376500809385C5E993061006D5
:102ED000138644E5130585D8EFF02F86376500800B
:102EE000130545EBEFF06F8593051006138544E558
:102EF000EFF08F8673240430F2406244D24442499A
:102F0000B249224A05618280011122CC4AC806CE0C
:102F100026CA4EC62A89214473340430B76400801F
:102F2000138504522188EF10E0530DEDB76900803E
:102F3000B7650080376500809385C5E69306E00499
:102F4000138649E5130585D8EFE03FFF376500801C
:102F5000130545E8EFE07FFE9305E004138549E59E
:102F6000EFE09FFF13850452EF1080531305890093
:102F7000853DCA8551248347D90013850452F59BAA
:102F8000A306F900EF10A04F0DEDB7640080B76500
:102F90000080376500809385C5E993061006138687
:102FA00044E5130585D8EFE05FF937650080130528
:102FB00045EBEFE09FF893051006138544E5EFE03D
:102FC000BFF973240430F240624423240900D24440
:102FD0004249B24905618280B777008083A7078A9A
:102FE000411122C406C626C22E84B9E7EF1020493B
:102FF0000DEDB7640080B76500803765008093856C
:10300000C5E993068007138644E5130585D8EFE0EC
:10301000DFF237650080130545EBEFE01FF2930503
:103020008007138544E5EFE03FF322852244B24058
:10303000924441016FD0CF99EF1060440DEDB76419
:103040000080B7650080376500809385C5E99306E9
:103050001006138644E5130585D8EFE01FEE3765AB
:103060000080130545EBEFE05FED93051006138537
:1030700044E5EFE07FEE218873240430B24022441F
:10308000924441018280377700800327078A19E341
:103090006FD00F9493778500F3A707308280214586
:1030A000733505302189C5B7011122CC06CE26CA59
:1030B0004AC84EC6214473340430B7640080138577
:1030C00004522188EF10003A0DED37690080B76592
:1030D0000080376500809385C5E69306E0041306FB
:1030E00049E5130585D8EFE05FE5376500801305F6
:1030F00045E8EFE09FE49305E004130549E5EFE0C0
:10310000BFE51385045237790080EF1060398327BB
:10311000098A1309098A8DCFB7690080B7650080D5
:10312000376500809385850D930600101386C90BC3
:10313000130585D8EFE07FE0376500801305C5E013
:10314000EFE0BFDF930500101385C90BEFE0DFE070
:103150008327890003C7F7008547631EF702B76915
:103160000080B7650080376500809385050F930662
:1031700010101386C90B130585D8EFE01FDC3765E7
:1031800000801305C5E0EFE05FDB930510101385A9
:10319000C90BEFE07FDC032789008347F700FD17A9
:1031A000A307F70013850452EF10602D0DEDB764EF
:1031B0000080B7650080376500809385C5E9930678
:1031C0001006138644E5130585D8EFE01FD7376551
:1031D0000080130545EBEFE05FD6930510061385DD
:1031E00044E5EFE07FD773240430F2406244D244D8
:1031F0004249B24905618280B767008083A787484A
:10320000411122C406C626C22E846398F502B76413
:103210000080B7650080376500809385851D1305A4
:1032200085D89306C02813860414EFE01FD19305B8
:10323000C02813850414EFE03FD258401C40B24030
:1032400092441CC3D8C32320040023220400224438
:1032500041018280011122CC26CA06CE4AC84EC640
:103260002A84A144F3B4043037690080130509525D
:10327000A188EF10201F0DEDB7690080B7650080B1
:10328000376500809385C5E69306E004138649E51B
:10329000130585D8EFE07FCA37650080130545E840
:1032A000EFE0BFC99305E004138549E5EFE0DFCA0D
:1032B00013050952EF10C01E13058400EFF05FB232
:1032C000A2851D3F8347D40013050952F59BA30631
:1032D000F400EF10C01A0DED37690080B76500806B
:1032E000376500809385C5E993061006130649E506
:1032F000130585D8EFE07FC437650080130545EBE3
:10330000EFE0BFC393051006130549E5EFE0DFC406
:10331000F3A4043023240400130584016244F24022
:10332000D2444249B24905616F10806D1C4163135C
:10333000F50081473E858280411122C437740080A8
:103340004AC02A891305048A1305450226C206C607
:10335000F13F1304048AAA8411E14444631209066C
:103360001C448DEF37690080B765008037650080A9
:103370009385C5169306F00713060914130585D81F
:10338000EFE0BFBB376500801305C5E0EFE0FFBA93
:103390009305F00713050914EFE01FBC1C4403C795
:1033A000D7007D8B11EF83D6E7001307F007637911
:1033B000D7001CD0B240224492440249410182808D
:1033C0001C4463849700EFF05F9F04D0E5B70111C0
:1033D0004AC8377900809307098A9C4706CE22CCD9
:1033E00083C7F70026CA4EC61309098A8DEF3764D2
:1033F0000080B7650080376500809385851193064E
:10340000102213060414130585D8EFE01FB33765A7
:1034100000801305C5E0EFE05FB2930510221305AD
:103420000414EFE07FB3832709008DCF3764008059
:10343000B7650080376500809385850D930620224F
:1034400013060414130585D8EFE03FAF37650080FD
:103450001305C5E0EFE07FAE9305202213050414A9
:10346000EFE09FAF214473340430B76400801385CC
:1034700004522188EF00107F0DEDB7690080B76519
:103480000080376500809385C5E69306E0041386C7
:1034900049E5130585D8EFE05FAA3765008013057D
:1034A00045E8EFE09FA99305E004138549E5EFE0C7
:1034B000BFAA13850452EF00B07E0327890005459B
:1034C0008347F7008507A307F700EFF0FFE61385B2
:1034D0000452EF00D07A0DEDB7640080B76500802C
:1034E000376500809385C5E993061006138644E589
:1034F000130585D8EFE07FA437650080130545EB01
:10350000EFE0BFA393051006138544E5EFE0DFA4C9
:10351000732404306244F240D2444249B249056106
:103520006FF0FFB7011122CC26CA06CE4AC84EC69C
:103530002A84A144F3B4043037690080130509528A
:10354000A188EF0030720DEDB7690080B76500808B
:10355000376500809385C5E69306E004138649E548
:10356000130585D8EFE07F9D37650080130545E89A
:10357000EFE0BF9C9305E004138549E5EFE0DF9D94
:1035800013050952EF00D071B767008083A7874801
:103590006318F402B7690080B76500803765008062
:1035A0009385851D130585D8930660271386091416
:1035B000EFE0BF989305602713850914EFE0DF99CA
:1035C000377700809306078ADC529056B7760080E2
:1035D0009386468C1307078A6385D708D9C383056A
:1035E000E4000385E70063DAA506D8431CC058C091
:1035F00000C3C0C38347D400014593E70704A30673
:10360000F400EFF07FD313050952EF0050670DED82
:1036100037640080B7650080376500809385C5E911
:1036200093061006130644E5130585D8EFE0FF90D6
:1036300037650080130545EBEFE03F9093051006DA
:10364000130544E5EFE05F91F3A40430F2406244D7
:10365000D2444249B249056182806304F6009C432A
:10366000C9F350C01C5714C080C300D761B783276B
:1036700005FF011122CC4EC606CE26CA4AC852C446
:103680002A84930985FECDCFA144F3B40430376971
:10369000008013050952A188EF00D05C0DED376A58
:1036A0000080B7650080376500809385C5E6930686
:1036B000E00413064AE5130585D8EFE01F88376557
:1036C0000080130545E8EFE05F879305E0041305EC
:1036D0004AE5EFE07F8813050952EF00705C13059F
:1036E00004FFEFF0EFEFCE85EFF01FB1834754FFFB
:1036F00013050952F59BA30AF4FEEF0050580DED97
:1037000037690080B7650080376500809385C5E91B
:1037100093061006130649E5130585D8EFE0FF81EF
:1037200037650080130545EBEFE03F8193051006F8
:10373000130549E5EFE05F82F3A40430232804FE7B
:10374000834754FF4E85AD9BA30AF4FEEFF0AFE52F
:1037500019C96244F240D2444249224A4E85B249D4
:1037600005616FF03FDCF2406244D2444249B24905
:10377000224A05618280011122CC4AC806CE26CA9F
:103780004EC652C456C22A84214973390930B769DA
:1037900000801385095213798900EF00B04C0DEDBC
:1037A000B7640080B7650080376500809385C5E603
:1037B0009306E004138644E5130585D8EFE0EFF7A0
:1037C00037650080130545E8EFE02FF79305E00427
:1037D000138544E5EFE04FF813850952EF00504C94
:1037E000B77400801385048AA28513054502EFF0A3
:1037F000BFA0B767008083A78748377A008093848B
:10380000048A130A4A8C6318F402B76A0080B76509
:103810000080376500809385851D130585D8930644
:10382000602713860A14EFE04FF193056027138594
:103830000A14EFE06FF2DC509854638A4709C1CB59
:103840008306E4000386E70063DFC606D8431CC096
:1038500058C000C3C0C38347D400884493E707041B
:10386000018D13351500A306F400EFF0FFAC1385AE
:103870000952EF00D0400DED37640080B76500803D
:10388000376500809385C5E993061006130644E565
:10389000130585D8EFE06FEA37650080130545EB27
:1038A000EFE0AFE993051006130544E5EFE0CFEA3A
:1038B00073290930F2406244D2444249B249224A53
:1038C000924A056182806384E7009C43A5FF58C04B
:1038D0009C542320440180C380D4B5BFB7670080C7
:1038E00083A78752B1CBB77700809387078A984721
:1038F0009306F0070356E70063E0C604B76600804E
:103900000306E70083A646526348D602B7660080E6
:1039100083A686486302D702144F99EE944B634BFB
:10392000D50041113A8506C6EFF0FFE4B2404101EF
:103930006FF0AFC8898E94CB8280011122CC4EC625
:1039400006CE26CA4AC8AA89214473340430B76413
:103950000080138504522188EF00D0300DED3769C7
:103960000080B7650080376500809385C5E69306C3
:10397000E004130649E5130585D8EFE00FDC376551
:103980000080130545E8EFE04FDB9305E0041305E5
:1039900049E5EFE06FDC13850452EF00703083C718
:1039A000D900377900801309098A93F7070481CF7A
:1039B000CE8513054902EFF03F8483C7D90093F702
:1039C000F7FBA386F900032589003305354113353C
:1039D0001500EFF07F9613850452EF00502A0DED8D
:1039E000B7640080B7650080376500809385C5E9BE
:1039F00093061006138644E5130585D8EFE0EFD350
:103A000037650080130545EBEFE02FD393051006D3
:103A1000138544E5EFE04FD473240430F240624450
:103A2000D2444249B24905618280011122CC26CAA2
:103A30002A844AC806CE4EC6AE843289EFF0FFEF24
:103A40008347D40093E72700A306F400A9CCB76707
:103A5000008083A7874804C46318F402B769008014
:103A6000B7650080376500809385851D130585D86F
:103A70009306602713860914EFE02FCC9305602787
:103A800013850914EFE04FCD9C40638BF404A9CB60
:103A90000307E4008386E700635FD702D8431CC0B6
:103AA00058C000C3C0C3FD576303F904A9451305FB
:103AB0009900EFC0FFE2130615001305840162446C
:103AC000F240D2444249B249B73500809385E56659
:103AD00005616F007056D4406384D7009C43DDFBC2
:103AE000DC4004C05CC0DC4080C3C0C06DBFF2409D
:103AF0006244D2444249B249056182804111B7779C
:103B0000008022C42A8403A5878A06C6EFF0FFF14D
:103B100022852244B24041016FC08FEB4111B7773B
:103B2000008022C42A8403A5878A26C2AE84B28577
:103B3000368606C6EFF07FEF2285EF0050140DEDBC
:103B400037640080B7650080376500809385C5E9DC
:103B500093068007130644E5130585D8EFE0EFBD13
:103B600037650080130545EBEFE02FBD9305800717
:103B7000130544E5EFE04FBE2244B240268592444F
:103B800041016FC0EFE401114AC84EC606CE22CCF7
:103B900026CAAA89214973390930B7640080138580
:103BA000045213798900EF00F00B0DED37640080AB
:103BB000B7650080376500809385C5E69306E0040D
:103BC000130644E5130585D8EFE02FB7376500806D
:103BD000130545E8EFE06FB69305E004130544E5EF
:103BE000EFE08FB713850452EF00900B4E85EFF096
:103BF000EFF32A8413850452EF0070080DEDB769C6
:103C00000080B7650080376500809385C5E993061D
:103C10001006138649E5130585D8EFE00FB2376526
:103C20000080130545EBEFE04FB1930510061385B7
:103C300049E5EFE06FB27329093061C0214973395A
:103C400009301385045213798900EF00B0010DED9E
:103C5000B7690080B7650080376500809385C5E649
:103C60009306E004138649E5130585D8EFE0EFAC31
:103C700037650080130545E8EFE02FAC9305E004BD
:103C8000138549E5EFE04FAD13850452EF00500175
:103C900013058400EFF0CF94A285EFF0EFD58347B2
:103CA000D40013850452F59BA306F400EF00207D99
:103CB0000DEDB7640080B76500803765008093859F
:103CC000C5E993061006138644E5130585D8EFE091
:103CD000CFA637650080130545EBEFE00FA69305EF
:103CE0001006138544E5EFE02FA77329093023243C
:103CF000040013058401EF00B0502285F2406244B5
:103D0000D2444249B24905618280411126C24AC06B
:103D100006C622C42A89814403240900630389005A
:103D200001E8B24022442685024992444101828042
:103D30002285EFF02FD22285EFF0EF86854469DDF2
:103D40002285EFF02FFEC9BFB77700809387078ADF
:103D500013874702D8D398D7814501456FF0AF8CC0
:103D6000011122CC377400808327048A06CE26CA2C
:103D70004AC84EC652C456C21304048A8DCFB764D3
:103D80000080B7650080376500809385850D9306B8
:103D9000E03713860414130585D8EFE00F9A3765D2
:103DA00000801305C5E0EFE04F999305E0371385D8
:103DB0000414EFE06F9AB7670080144403A78748A4
:103DC0003E8A6385E610214973390930B76900805E
:103DD000138509521379890071250DEDB7640080B0
:103DE000B7650080376500809385C5E69306E004DB
:103DF000138644E5130585D8EFE02F9437650080DE
:103E0000130545E8EFE06F939305E004138544E55F
:103E1000EFE08F941385095261250C441305440289
:103E2000EFF08FBD83278A480444377A0080130A55
:103E30004A8C6398F402B76A0080B76500803765E2
:103E400000809385851D130585D89306602713860A
:103E50000A14EFE08F8E9305602713850A14EFE0B4
:103E6000AF8F5C50185463854709D9C38386E4003B
:103E70000386E70063DAC606D8439CC0D8C004C3F3
:103E8000C4C30545EFF04FCB13850952CD2B0DED83
:103E900037640080B7650080376500809385C5E989
:103EA00093061006130644E5130585D8EFE0EF8866
:103EB00037650080130545EBEFE02F88930510066A
:103EC000130544E5EFE04F89732909302145733527
:103ED00005306244F240D2444249B249224A924AF1
:103EE000218905616FC0CFAE6384E7009C43C9F3AD
:103EF000D8C01C5423A0440184C304D459B7797199
:103F000022D4377400808327048A26D206D64AD06A
:103F10004ECE52CCAA841304048A8DCF3769008018
:103F2000B7650080376500809385850D93069039CD
:103F300013060914130585D8EFE02F80376500803C
:103F40001305C5E0EFD07FFF9305903913050914E1
:103F5000EFE08F80FD57639AF41637690080B765EC
:103F60000080376500809385C5189306A039130635
:103F70000914130585D8EFD05FFC37650080130561
:103F8000C5E0EFD09FFB9305A03913050914EFD0CE
:103F9000BFFCA94513859400EFC09F9493091500B9
:103FA000EF00F0773389A90002C6A144F3B40430CE
:103FB0006800A18845290DED376A0080B76500804B
:103FC000376500809385C5E69306E00413064AE54D
:103FD000130585D8EFD07FF637650080130545E8D7
:103FE000EFD0BFF59305E00413054AE5EFD0DFF607
:103FF00068007D210844EFF05F940844B7350080E5
:104000004E8661059385E566EF001003184468004D
:104010008347D70093E70701A306F7008D210DED35
:10402000B7690080B7650080376500809385C5E972
:1040300093068007138649E5130585D8EFD0FFEF77
:1040400037650080130545EBEFD03FEF9305800700
:10405000138549E5EFD05FF02685EFC06F971C44CC
:1040600083C7D700C18B8DCF37640080B7650080D0
:10407000376500809385051A9306703B1306041478
:10408000130585D8EFD07FEB376500801305C5E0B9
:10409000EFD0BFEA9305703B13050414EFD0DFEBBC
:1040A000EF00F0673305A94081446354A002130672
:1040B000803E81469355F541EFC08FF913064006C7
:1040C0008146EFC06F99AA8429A0E39404ECEFF035
:1040D0003FC9B2502254268502599254F249624A8D
:1040E00045618280B777008003A5878A82800111AD
:1040F00022CC26CA4AC806CE4EC62A842E89B2844D
:104100000DEEB7690080B765008037650080938544
:10411000C51F930660041386C91E130585D8EFD00A
:10412000DFE13765008013058520EFD01FE193059F
:1041300060041385C91EEFD03FE263FE2403B76914
:104140000080B7650080376500809385052293065F
:1041500070041386C91E130585D8EFD01FDE37659E
:10416000008013058523EFD05FDD93057004138570
:10417000C91EEFD07FDE2324240144C400C040C008
:10418000F2406244D2444249B24905618280011141
:1041900026CA4EC606CE22CC4AC8AA89A144F3B488
:1041A0000430376400801305C452A188652C0DEDDE
:1041B00037690080B7650080376500809385C5E664
:1041C0009306E004130649E5130585D8EFD0FFD622
:1041D00037650080130545E8EFD03FD69305E0042E
:1041E000130549E5EFD05FD71305C452552C4E8512
:1041F000EFF07F992A8915C58347D500FD8B89E7A4
:104200001C4D99E3EFF00FB2232609061305C452A3
:104210006244F2404249B249A685D24405616FE04A
:10422000BFDB03A7890083A7C900998FB337F000CC
:10423000BA9723A4F900D9BFB777008083A7078A6C
:1042400001114AC84EC606CE22CC26CA52C42A89BB
:10425000AE8995CF8DCD37640080B7650080376516
:104260000080938505269306C0081306C41E130517
:1042700085D8EFD09FCC376500801305C5E0EFD01F
:10428000DFCB9305C0081305C41EEFD0FFCC21443B
:1042900073340430B76400801385C4522188D92256
:1042A0000DED376A0080B765008037650080938523
:1042B000C5E69306E00413064AE5130585D8EFD05A
:1042C000DFC737650080130545E8EFD01FC79305AA
:1042D000E00413054AE5EFD03FC81385C452C92254
:1042E00083278900B9CFFD172324F9001385C45211
:1042F00079220DEDB7640080B765008037650080D6
:104300009385C5E993061006138644E5130585D801
:10431000EFD0BFC237650080130545EBEFD0FFC17A
:1043200093051006138544E5EFD01FC373240430B2
:104330000145F2406244D2444249B249224A0561F1
:104340008280639609041385C452152A0DEDB76463
:104350000080B7650080376500809385C5E99306C6
:104360001006138644E5130585D8EFD01FBD3765C9
:104370000080130545EBEFD05FBC93051006138555
:1043800044E5EFD07FBD7324043041555DB7A2856D
:104390006244F240224ACE864A86B2494249138597
:1043A000C452D24405616FF06FF78347D500FD8B8F
:1043B00089E7084D13351500828001458280B77763
:1043C000008003A5078A3335A0008280B77700807C
:1043D00083A7878A03C5C70005898280011102531C
:1043E00022CC06CE1AC02A84EFD0AF8CB7770080DB
:1043F00083A7878AF240BC573CD46244056182801F
:104400003C51411122C406C62A8491C38297228559
:10441000EFF0BFF911CD2285EFF02FD28347D40002
:10442000B24093E78700A306F40022444101828052
:104430008347D400898B81C72285EFE0FFAC1C4CF9
:10444000F1DF130584016D2BD1BF2306D500A30630
:10445000C5002307B500A3070500232C0500232E64
:1044600005008280084111C9B777008083C7478B58
:104470000D891D8D3335A000828005458280B77778
:1044800000809387078A03C747019C47D98F18414B
:104490006316F700232005000545828001458280D0
:1044A000B77700809387078A03C747019C47D98F56
:1044B0001CC18280011122CC4AC806CE26CA4EC633
:1044C0002A89214473340430B7640080138504536F
:1044D0002188EFF03FF90DEDB7690080B7650080E6
:1044E000376500809385C5E69306E004138649E5A9
:1044F000130585D8EFD07FA437650080130545E804
:10450000EFD0BFA39305E004138549E5EFD0DFA406
:1045100013850453EFF0DFF88347D90013F7470002
:1045200039EB13850453EFF09FF50DEDB764008070
:10453000B7650080376500809385C5E9930610064E
:10454000138644E5130585D8EFD03F9F376500807B
:10455000130545EBEFD07F9E93051006138544E5C8
:10456000EFD09F9F73240430F2406244D24442490A
:10457000B24905618280ED9BA306F9004A85EFF000
:10458000DFE201C54A85EFE0FFF9A2856244F2400F
:104590004249B24913850453D24405616FE0DFA359
:1045A00099E16FF03FF1411122C42A842E8525053F
:1045B000A94506C6EFC0CFB2130615001305840146
:1045C0002244B240B73500809385E5664101ADA431
:1045D000397156D2B68AB776008083A6068A22DC65
:1045E00026DA4ED652D406DE4AD82A84AE89328ADA
:1045F0009644A9C637690080B7650080376500809A
:104600009306201B130649299385850D130585D82C
:1046100046CE42CC3ECA3AC8EFD03F9237650080C2
:104620001305852AEFD07F919305201B1305492997
:10463000EFD09F92F2486248D2474247864602C274
:10464000528636C0CE85D6862285EFF03FD9FD57FB
:104650006386F400A6852285EFF09FF42285F25050
:104660006254D2544259B259225A925A21618280DC
:104670000111B76700804AC83769008022CC26CA7A
:1046800006CE1384C74B9384C74B1309C94B636F82
:1046900024012684EFE05FA1FD54636E240362448D
:1046A000F240D244424905616FE07FD25C543EC281
:1046B0001C503EC05C488328C4010328840118486C
:1046C000544410444C400840EFF05FD11C40E0CF10
:1046D000130404036DBF4C50638595000840EFF050
:1046E0003FEC1304040355BF011122CC26CA06CEA9
:1046F0004AC8AA8402C62144733404306800218861
:10470000EFF05FD60DED37690080B7650080376543
:1047100000809385C5E69306E004130649E513057A
:1047200085D8EFD09F8137650080130545E8EFD02D
:10473000DF809305E004130549E5EFD0FF816800B1
:10474000EFF01FD683C7C400858B8DCF37690080FB
:10475000B7650080376500809385852E93069002AB
:104760001306092D130585D8EFD02FFD376500807E
:104770001305C531EFD06FFC930590021305092D89
:10478000EFD08FFD2685EFF0BFC7A2856800EFE070
:10479000BF84F2406244D244424905618280B767D7
:1047A000008083A7475399E36FD0DFB00145828033
:1047B0001C4101CD37670080032707486307E500E8
:1047C00089C798471445369798C758411CC3D8C322
:1047D00023200500232205008280B767008083C75D
:1047E0000754411106C622C426C27D5589E7370504
:1047F00000801345F5FFB76700809387C747804364
:10480000630FF40009CC0444EFF07FF9898C014573
:1048100063C704000044EFF09FF83305A440B77766
:10482000008083A7078B81C763D3A7003E85B24072
:1048300022449244410182801C41797122D426D2C3
:104840004ECE06D64AD052CC56CA5AC85EC662C4AC
:104850002A84AE89B2848DCF37690080B765008025
:10486000376500809385C5349306D00413068933D9
:10487000130585D8EFD06FEC376500801305C5E0D0
:10488000EFD0AFEB9305D00413058933EFD0CFEC15
:1048900023263401634390008544A149F3B90930CC
:1048A000376A008013058A5393F98900EFF09FBBA4
:1048B0000DED37690080B76500803765008093850E
:1048C000C5E69306E004130649E5130585D8EFD045
:1048D000CFE637650080130545E8EFD00FE6930576
:1048E000E004130549E5EFD02FE713058A53EFF0F5
:1048F0003FBBEFF0DFEA2695B764008003A9C44709
:1049000008C49384C447630C9900B76A0080376B6E
:104910000080B76B0080376C008063190900DC40B1
:1049200004C05CC0DC4080C3C0C091A8832789005C
:1049300063D607029305CB369306600513868A3348
:1049400013858BD8EFD06FDF1305CCE0EFD0EFDE0F
:104950009305600513858A33EFD00FE003278900A4
:104960001C4463D7E708B307F7402324F9008327E3
:104970004900232024015CC080C3232289009C407D
:10498000638997006317F400EFF03FE58145EFD0AE
:10499000AFFD13058A53EFF09FAE0DED3764008035
:1049A000B7650080376500809385C5E993061006DA
:1049B000130644E5130585D8EFD02FD8376500805E
:1049C000130545EBEFD06FD793051006130544E5AB
:1049D000EFD08FD8F3A90930B25022549254025923
:1049E000F249624AD24A424BB24B224C4561828024
:1049F000998F1CC4DC40E38427F30329090031BFED
:104A0000011122CC4EC606CE26CA4AC8AA89214424
:104A100073340430B7640080138584532188EFF029
:104A20007FA40DED37690080B76500803765008091
:104A30009385C5E69306E004130649E5130585D87A
:104A4000EFD0AFCF37650080130545E8EFD0EFCE4C
:104A50009305E004130549E5EFD00FD01385845387
:104A6000EFF01FA483A70900295989C74E85EFF0ED
:104A70003FD4014913858453EFF07FA00DEDB76457
:104A80000080B7650080376500809385C5E993068F
:104A90001006138644E5130585D8EFD00FCA376595
:104AA0000080130545EBEFD04FC993051006138521
:104AB00044E5EFD06FCA73240430F24062444A8563
:104AC000D2444249B24905618280411122C406C6DE
:104AD00026C24AC0214473340430B7640080138571
:104AE00084532188EFF01F980DED37690080B7657A
:104AF0000080376500809385C5E69306E0041306C1
:104B000049E5130585D8EFD04FC3376500801305FD
:104B100045E8EFD08FC29305E004130549E5EFD0D7
:104B2000AFC313858453EFF0BF97EFF01FCB2A89F3
:104B300013858453EFF0BF940DEDB7640080B76523
:104B40000080376500809385C5E9930610061386BB
:104B500044E5130585D8EFD04FBE376500801305B7
:104B600045EBEFD08FBD93051006138544E5EFD0DC
:104B7000AFBE73240430B24022444A8592440249B5
:104B800041018280011122CC4AC852C406CE26CAF5
:104B90004EC62A892E8A214473340430B7640080BB
:104BA000138584532188EFF0FF8B0DEDB7690080EA
:104BB000B7650080376500809385C5E69306E004FD
:104BC000138649E5130585D8EFD02FB737650080E8
:104BD000130545E8EFD06FB69305E004138549E56A
:104BE000EFD08FB713858453EFF09F8BEFF0FFBEAC
:104BF0006359A900854763D6A700D2854A85EFD0BF
:104C0000AFD613858453EFF09F870DEDB764008016
:104C1000B7650080376500809385C5E99306100667
:104C2000138644E5130585D8EFD02FB13765008092
:104C3000130545EBEFD06FB093051006138544E5DF
:104C4000EFD08FB173240430F2406244D244424921
:104C5000B249224A05618280797122D452CC06D6AB
:104C600026D24AD04ECE56CA5AC85EC662C466C262
:104C70006AC02A8A2144EFE07FC673340430376962
:104C80000080130589532188EFF0CFFD0DEDB76447
:104C90000080B7650080376500809385C5E6930680
:104CA000E004138644E5130585D8EFD00FA93765D6
:104CB0000080130545E8EFD04FA89305E004138565
:104CC00044E5EFD06FA9B769008013058953EFF071
:104CD0002FFDB764008023AA4953376A0080938967
:104CE0004953130ACA4793840450B76A0080B76BCC
:104CF0000080376B0080376C0080B76C0080032D1C
:104D00000A0083A709009440C840630B4D01630962
:104D10000D0003278D0063D6E7081D8F2324ED00C7
:104D2000BE9613D7F7412A97B3B7F600BA9794C047
:104D3000DCC023A00900EFF05FAA8145EFD0CFC20D
:104D400013058953EFF0AFF30DEDB7640080B7653D
:104D50000080376500809385C5E9930610061386A9
:104D600044E5130585D8EFD04F9D376500801305C6
:104D700045EBEFD08F9C93051006138544E5EFD0EB
:104D8000AF9D73240430B250225492540259F24918
:104D9000624AD24A424BB24B224C924C024D456180
:104DA0008280BA969355F741AA9533B6E6002E96BF
:104DB000998F6A8523240D0094C0D0C023A0F900E8
:104DC000EFF01F9F13058953EFF06FEB0DE593850F
:104DD000CBE99306100613864AE513058BD8EFD06E
:104DE000CF9513054CEBEFD04F9593051006138527
:104DF0004AE5EFD06F96732404308327CD006A858F
:104E00002144829773340430130589532188EFF0CD
:104E10006FE51DE59385CCE69306E00413864AE52D
:104E200013058BD8EFD06F9137650080130545E8E7
:104E3000EFD0AF909305E00413854AE5EFD0CF9112
:104E400013058953EFF0CFE55DBD011126CA06CEEB
:104E500022CC4AC84EC6A144F3B40430376900805E
:104E600013058953A188EFF0EFDF0DED3764008063
:104E7000B7650080376500809385C5E69306E0043A
:104E8000130644E5130585D8EFD02F8B37650080D6
:104E9000130545E8EFD06F8A9305E004130544E558
:104EA000EFD08F8B13058953EFF08FDFEFD08FC0DA
:104EB000B76700809387075083A90700C043AA996A
:104EC00033B5A9002A9413058953EFF04FDB0DED9C
:104ED00037690080B7650080376500809385C5E934
:104EE00093061006130649E5130585D8EFD0EF8425
:104EF00037650080130545EBEFD02F84930510062E
:104F0000130549E5EFD04F85F3A40430A285F240A4
:104F100062444E85D2444249B249056182804111C2
:104F200006C6EFF09FF2B24041018280411106C6F1
:104F3000EFF0FFFE1306803E81468145EFB05F91A2
:104F4000130640068146EFB02FB1B2404101828086
:104F5000411122C426C237640080B764008006C6AF
:104F60001304C44B9384C44B63689400B24022443E
:104F700092440145410182809307440122855CC827
:104F80001CCCEFC00FE77104C5B7B777008083A7CB
:104F9000078A5D71A2C4A6C24EDE5AD886C6CAC0B0
:104FA00052DC56DA5ED662D466D26AD06ECEAA8958
:104FB000AE84328B368463800710F1E20149376595
:104FC00000801305C54B3385A940B775DBB69385C3
:104FD00075DB0985EFB09F857D7A856A137CF50FB7
:104FE000D55BD15C130AFA0FFD1A214D938D49014F
:104FF000268774003000DA854E85EFC00FEC631C05
:105000007501268774003000DA854E85EFC0EFEA1F
:10501000631375015155A24723828401BD8B1397F9
:105020008700DC40B3F74701D98F3247B3F7570108
:105030003207D98FDCC00DC505C4631395037335E2
:105040000D302286EE852189EFE05FABFD57E3014D
:10505000F4FAEFF09FDF3304A940E35B04F8555501
:10506000B640264496440649F259625AD25A425BE7
:10507000B25B225C925C025DF24D616182803769B5
:105080000080B765008037650080938505399306F9
:1050900090031306C937130585D8EFC01FEA37659B
:1050A00000801305C5E0EFC05FE993059003130589
:1050B000C937EFC07FEAE35380F0EFF01FD92A89A8
:1050C000A94513059400EFB0BF812A99CDBD834750
:1050D00005000111104122CC139437004AC81D8CE1
:1050E000376900800A04935586001305C94B318245
:1050F000BD89229506CE26CA4EC652C4EFC0EFFC2B
:10510000A145F3B50530B76400801385C45393F906
:105110008500EFF02FB51309C94B0DED376A0080FC
:10512000B7650080376500809385C5E69306E00487
:1051300013064AE5130585D8EFC03FE037650080C8
:10514000130545E8EFC07FDF9305E00413054AE54A
:10515000EFC09FE01385C453EFF08FB413054401F3
:105160004A95EFE09FBA09CD6244F2404249224A93
:10517000CE851385C453B249D24405616FD0DFE5B3
:105180001385C453EFF0AFAF0DED37640080B76502
:105190000080376500809385C5E9930610061306E5
:1051A00044E5130585D8EFC05FD937650080130546
:1051B00045EBEFC09FD893051006130544E5EFC0FB
:1051C000BFD9F3A50930F2406244D2444249B24902
:1051D000224A05618280138645006378B600014546
:1051E00082800145F24005618280011181462C00D8
:1051F00006CEEFF09FD975F5224511466C00EFD031
:10520000CF9922451105F9BF01C571156FF03FEC2B
:105210008280B777008083A7878AAA85A85719C19B
:0A5220006FF07FFB01458280828061
:02522A00FFFF84
:10522C00000000003C140080000000003C140080D2
:10523C00000000003C140080000000003C140080C2
:10524C00000000003C140080000000003C140080B2
:10525C00000000003C14008000000000362000809C
:10526C00000000003C140080000000003C14008092
:10527C00000000003C140080000000003C14008082
:10528C00000000003C140080000000003C14008072
:10529C00000000003C140080000000003C14008062
:1052AC00000000003C140080000000003C14008052
:1052BC00000000003C140080000000003C14008042
:1052CC00000000003C140080000000003C14008032
:1052DC00000000003C140080000000003C14008022
:1052EC00000000003C140080000000003C14008012
:1052FC00000000003C140080000000003C14008002
:10530C00000000003C140080000000003C140080F1
:10531C00000000003C140080000000003C140080E1
:10532C00000000003C140080000000003C140080D1
:10533C00000000003C140080000000003C140080C1
:10534C00000000003C140080000000003C140080B1
:10535C00000000003C140080000000003C140080A1
:10536C00000000003C140080000000003C14008091
:10537C00FC590080FE1F008000000000485E008089
:10538C003621008000000000405E0080BE260080B8
:10539C0000000000FC590080504F0080000000000D
:1053AC0000010202030303030404040404040404C0
:1053BC000505050505050505050505050505050591
:1053CC000606060606060606060606060606060671
:1053DC000606060606060606060606060606060661
:1053EC000707070707070707070707070707070741
:1053FC000707070707070707070707070707070731
:10540C000707070707070707070707070707070720
:10541C000707070707070707070707070707070710
:10542C0008080808080808080808080808080808F0
:10543C0008080808080808080808080808080808E0
:10544C0008080808080808080808080808080808D0
:10545C0008080808080808080808080808080808C0
:10546C0008080808080808080808080808080808B0
:10547C0008080808080808080808080808080808A0
:10548C000808080808080808080808080808080890
:10549C000808080808080808080808080808080880
:1054AC00746573745F6669666F5F74687265616456
:1054BC003274687265616400746573745F666966E2
:1054CC006F5F74687265616432697372000000000A
:1054DC00746573745F6669666F5F69737232746842
:1054EC007265616400000000746573745F666966C0
:1054FC006F5F6765745F6661696C000074657374D7
:10550C005F6669666F5F6C6F6F70000074657374B3
:10551C005F6669666F5F63616E63656C5F77616917
:10552C0074000000746573745F6669666F5F6973FD
:10553C005F656D7074795F746872656164000000FA
:10554C00746573745F6669666F5F69735F656D70B0
:10555C0074795F69737200006669666F5F61706968
:10556C0000000000746669666F5F74687265616440
:10557C005F746872656164006B5F6669666F5F6714
:10558C006574206469646E277420676574202774C1
:10559C00696D656F75742065787069726564272014
:1055AC0073746174757300002872657420697320BC
:1055BC006E6F74204E554C4C290000006B5F666971
:1055CC00666F5F676574206469646E277420676515
:1055DC00742063616E63656C6C656420696E206514
:1055EC00787065637465642074696D656672616D4D
:1055FC006500000028647572203C203830206973E7
:10560C002066616C736529002E2F74657374732F7B
:10561C006B65726E656C2F6669666F2F6669666F57
:10562C005F6170692F7372632F746573745F666941
:10563C00666F5F63616E63656C2E63000A202020C9
:10564C0020417373657274696F6E206661696C6555
:10565C00642061742025733A25643A2025733A201E
:10566C0025730A00746669666F5F676574000000D5
:10567C00744973725F656E7472795F707574000033
:10568C00744973725F656E7472795F67657400003C
:10569C00746669666F5F69735F656D70747900001D
:1056AC00746573745F6669666F5F69735F656D704F
:1056BC0074795F7468726561640000006B5F666981
:1056CC00666F5F69735F656D707479282873747287
:1056DC00756374206B5F6669666F202A29702920B8
:1056EC0069732066616C7365000000006B5F66690E
:1056FC00666F5F69735F656D707479282873747257
:10570C00756374206B5F6669666F202A2970292087
:10571C0069732074727565006B5F6669666F5F698B
:10572C00735F656D70747928266669666F292069C8
:10573C00732066616C73650072785F6461746120BC
:10574C006E6F7420657175616C20746F2028766F94
:10575C006964202A2926646174615B695D0000001C
:10576C0072785F64617461206E6F7420657175610D
:10577C006C20746F2028766F6964202A2926646156
:10578C0074615F6C5B695D0072785F646174612049
:10579C006E6F7420657175616C20746F2028766F44
:1057AC006964202A2926646174615F736C5B695D8E
:1057BC00000000006B5F6669666F5F69735F656D03
:1057CC0070747928706669666F2920697320747209
:1057DC00756500006B5F6669666F5F69735F656D09
:1057EC0070747928706669666F2920697320666108
:1057FC006C7365002E2F74657374732F6B65726EEA
:10580C00656C2F6669666F2F6669666F5F6170697C
:10581C002F7372632F746573745F6669666F5F6351
:10582C006F6E74657874732E630000007465737406
:10583C005F6669666F5F6765745F6661696C0000BF
:10584C006B5F6669666F5F67657428266669666F4D
:10585C002C204B5F4E4F5F574149542920697320D0
:10586C006E6F74204E554C4C000000006B5F6669E7
:10587C00666F5F67657428266669666F2C205449CD
:10588C004D454F555429206973206E6F74204E5529
:10589C004C4C00002E2F74657374732F6B65726EF5
:1058AC00656C2F6669666F2F6669666F5F617069DC
:1058BC002F7372632F746573745F6669666F5F66AE
:1058CC0061696C2E63000000746669666F5F6765C2
:1058DC0074000000697372206669666F20676574D6
:1058EC000A000000697372206669666F2070757417
:1058FC00202D2D2D3E200000746872656164206699
:10590C0069666F206765740A000000007468726530
:10591C006164206669666F20707574202D2D2D3E94
:10592C00200000002A205061737320646174612090
:10593C006279206669666F20696E206C6F6F7020CB
:10594C0025640A006D61696E206669666F2070754A
:10595C0074202D2D2D3E20006D61696E20666966C8
:10596C006F206765740A00002E2F74657374732F93
:10597C006B65726E656C2F6669666F2F6669666FF4
:10598C005F6170692F7372632F746573745F6669DE
:10599C00666F5F6C6F6F702E630000007A1300806F
:1059AC00EA130080EA1300806E1300807A130080E3
:1059BC00D6130080E0130080505A0080705A00808B
:1059CC008C5A0080A05A0080AC5A0080C45A0080C7
:1059DC00756E6B6E6F776E00457863657074696F6A
:1059EC006E20636175736520257320282564290A50
:1059FC0000000000ADBAADDEADBAADDEADBAADDEC5
:105A0C00ADBAADDEADBAADDEADBAADDEADBAADDEC2
:105A1C00ADBAADDEADBAADDEADBAADDEADBAADDEB2
:105A2C00ADBAADDEADBAADDEADBAADDEADBAADDEA2
:105A3C00ADBAADDEADBAADDEADBAADDEADBAADDE92
:105A4C00ADBAADDE496E737472756374696F6E2096
:105A5C0061646472657373206D6973616C69676EE0
:105A6C0065640000496E737472756374696F6E209F
:105A7C00416363657373206661756C74000000008C
:105A8C00496C6C6567616C20696E737472756374B4
:105A9C00696F6E00427265616B706F696E740000A5
:105AAC004C6F61642061646472657373206D6973FB
:105ABC00616C69676E6564004C6F6164206163633F
