:0200000480007A
:100000009702000093824201739052306F00900E6D
:020010000000EE
:02001200FFFFEE
:100014005D7106C00EC212C416C61AC81ECA72CCBE
:1000240076CE7AD07ED22AD42ED632D836DA3ADCBC
:100034003EDEC2C0C6C2F322103496C4F32200309E
:1000440096C6EF00E01A1303000005E9F3222034FA
:10005400B70300809383F3FFB3F272002D43638AE6
:10006400620013050100970000009380E0116F0007
:100074001044A642910296C441A0930201009753F2
:1000840000009383235003A14300411116C003AE23
:100094000300050E23A0C3016308030097000000BA
:1000A400938080036F00104773252034B7020080CB
:1000B4009382F2FF33755500EF00801297420000DF
:1000C4009382822E0E05AA9203A5020003A3420086
:1000D400E7000300175300001303C34A83230300FC
:1000E400FD132320730082421381020083238300C3
:1000F400032E030263087E0897520000938282480D
:1001040003A382002326830223289302232A2303A2
:10011400232C3303232E4303232053052322630577
:10012400232473052326830523289305232AA30563
:10013400232CB30523242302975300009383030A3B
:1001440003AE03002326C30703A3020223A4620011
:10015400032183020324C3028324030303294303E7
:1001640083298303032AC303832A0304032B43043D
:10017400832B8304032CC304832C0305032D430521
:10018400832D8305A64273901234B64273900230D5
:10019400824092412242B2424243D243624EF24EE4
:1001A400025F925F2255B2554256D2566257F257B9
:1001B4000648964861617300203000007300000017
:1001C400975200009382023C03A382008323C30658
:1001D4002189F322053013850300678000000000A5
:1001E4000543B312A30073B34234678000000000D8
:1001F400F322203437030080B3F2620013050000B9
:0A0204006383020005056780000017
:02020E00FFFFF0
:100210006300060293070002B387C740634CF000F7
:10022000130506FE1307000033D5A500930507004C
:100230006780000033D7C5003355C500B395F5007E
:100240003365B5006FF09FFE130101FD232291027B
:100250002328610123261102232481022320210364
:10026000232E3101232C4101232A51012326710120
:100270002324810123229101130B0500938405009F
:10028000639C063813040600930905001749000013
:100290001309892A63F8C512B7070100938A05007C
:1002A0006378F6109306F00FB3B6C6009396360047
:1002B000B357D6003309F90003470900B306D70046
:1002C000130700023307D740630C0700B394E40020
:1002D000B356DB003314E600B3EA9600B319EB0023
:1002E000135B040193050B0013850A00EF00405ACD
:1002F0001309050093050B00931B040113850A00E5
:10030000EF00805493DB0B01930405009305050077
:1003100013850B00EF0080501319090113D7090151
:100320003367E900138A0400637EA7003307870060
:10033000138AF4FF636887006376A700138AE4FFDB
:1003400033078700B304A74093050B00138504000F
:10035000EF0000541309050093050B0013850400FA
:10036000EF00804E93990901930405009305050061
:100370001319090113850B0093D90901EF00004AF5
:10038000B36939011386040063FCA900B309340181
:100390001386F4FF63E6890063F4A9001386E4FF83
:1003A00093170A01B3E7C700130A00006F00001398
:1003B000B707000193060001E36CF6EE9306800197
:1003C0006FF01FEF138A0600631A06009305000002
:1003D00013051000EF00404713040500B7070100A4
:1003E000637CF4129307F00F63F48700130A800014
:1003F000B35744013309F90083460900130600028C
:10040000B38646013306D64063120612B384844095
:10041000130A1000135B040193050B0013850400FD
:10042000EF0000471309050093050B001385040036
:10043000931B0401EF00404193DB0B019304050083
:100440009305050013850B00EF00403D13190901CA
:1004500013D709013367E900938A0400637EA7007C
:1004600033078700938AF4FF636887006376A700E9
:10047000938AE4FF33078700B304A74093050B007A
:1004800013850400EF00C0401309050093050B001D
:1004900013850400EF00403B939909019304050084
:1004A000930505001319090113850B0093D9090160
:1004B000EF00C036B36939011386040063FCA9005C
:1004C000B30934011386F4FF63E6890063F4A900DD
:1004D0001386E4FF93970A01B3E7C700138507006B
:1004E00093050A008320C102032481028324410270
:1004F000032901028329C101032A8101832A4101C1
:10050000032B0101832BC100032C8100832C4100AC
:100510001301010367800000B7070001130A0001FF
:10052000E368F4EC130A80016FF09FEC3314C4000D
:1005300033DAD400B319CB00B356DB00135B0401EC
:10054000B394C40093050B0013050A00B3EA9600A8
:10055000EF0000341309050093050B0013050A0092
:10056000931B0401EF00402E93DB0B019304050065
:100570009305050013850B00EF00402A13190901AC
:1005800013D70A013367E900138A0400637EA700CA
:1005900033078700138AF4FF636887006376A70038
:1005A000138AE4FF33078700B304A74093050B00C9
:1005B00013850400EF00C02D1309050093050B00FF
:1005C00013850400EF0040289304050093050500FF
:1005D00013850B00EF00802493960A01131909017B
:1005E00093D60601B367D9001387040063FEA70002
:1005F000B38787001387F4FF63E8870063F6A700DB
:100600001387E4FFB3878700131A0A01B384A74056
:10061000336AEA006FF01FE063ECD51EB7070100F4
:1006200063F4F6049305F00F33B5D50013153500C8
:1006300033D7A60097470000938707F0B387E700FA
:1006400083C50700130A0002B385A500330ABA4028
:1006500063160A0293071000E3E296E83336CB00F4
:10066000934716006FF09FE7B707000113050001DD
:10067000E3E0F6FC130580016FF09FFBB35AB60070
:10068000B3964601B3EADA0033D9B400B397440114
:10069000B355BB0093DB0A01B3E4F5001305090071
:1006A00093850B00B3194601EF00801E130405006B
:1006B00093850B0013050900139C0A01EF00C01875
:1006C000135C0C01130905009305050013050C00CC
:1006D000EF00C0141314040113D704013367E400BE
:1006E000930C0900637EA70033075701930CF9FFB1
:1006F000636857016376A700930CE9FF330757013E
:100700003309A74093850B0013050900EF0040183B
:100710001304050093850B0013050900EF00C012B8
:10072000130905009305050013050C00EF00000FE9
:10073000939704011314040193D707013367F4005E
:1007400013060900637EA700330757011306F9FF5C
:10075000636857016376A7001306E9FF3307570163
:1007600093970C01370E0100B3E7C7001308FEFF93
:1007700033F3070133F809013307A74093DE07017C
:1007800093D909011305030093050800EF00000940
:10079000930805009385090013050300EF00000886
:1007A000130305009305080013850E00EF000007F2
:1007B000130805009385090013850E00EF0000065D
:1007C00093D6080133030301B386660063F4060180
:1007D0003305C50113D606013305A6006366A702DB
:1007E000E314A7BC370701001307F7FFB3F6E600D1
:1007F00093960601B3F8E80033164B01B386160151
:10080000130A0000E37CD6CC9387F7FF6FF0DFB9C3
:10081000130A0000930700006FF05FCC1306050079
:100820001305000093F61500638406003305C50028
:1008300093D5150013161600E39605FE6780000099
:100840006340050663C6050613860500930505008B
:100850001305F0FF630C060293061000637AB600DE
:100860006358C0001316160093961600E36AB6FE8E
:100870001305000063E6C500B385C5403365D500A8
:1008800093D6160013561600E39606FE6780000006
:1008900093820000EFF05FFB138505006780020084
:1008A0003305A04063D80500B305B0406FF0DFF911
:1008B000B305B04093820000EFF01FF93305A0406C
:1008C000678002009382000063CA0500634C050044
:1008D000EFF09FF71385050067800200B305B04075
:1008E000E35805FE3305A040EFF01FF63305B04096
:1008F00067800200175100001301C16BB71200009E
:100900009382028016910D296F007006000082808C
:10091000797106CE42D446D631E136862E87B74667
:100920000080B7450080374500803C1093864663C1
:10093000938505741305C5763EC6EF001048B24591
:10094000374500801305857EEF00704537550080E0
:100950001305858EEF007046EF10E01EF2404561F2
:100960008280397122DC1306C0022A848145480046
:1009700006DEEF10A010B757008083A7872989EB08
:1009800001464C00228502C602C402C8EF10100ABC
:10099000F250625421618280397122DC2A84374509
:1009A00000801305C57206DEEF0030411306C00259
:1009B00081454800EF10800CB757008083A7872936
:1009C00089EB7D564C00228502C602C402C8EF1096
:1009D000F005F250625421618280757122C537544E
:1009E000008006C726C31304842923200400EF20B7
:1009F000F031B7540080B7160080B75500803755E6
:100A0000008081471387043902C202C0814801482F
:100A100093868699130600209385055B1305453B55
:100A2000EF30C0101840B757008023A0A72A1384C6
:100A3000072A29E3930700042AD8FD5690004C08A2
:100A4000138504393ECCEF10B001B747008037471B
:100A5000008037460080B74500809387877E130764
:100A60004763930630041306067493854564133573
:100A70001500793D0840EF30E01CBA402A449A4402
:100A800049618280357122CD26CB37540080B7541E
:100A9000008006CF4AC94EC752C556C313048429E5
:100AA000814690004C08930A0004138504392320E2
:100AB000040056CC02D8EF10A07AB7490080374A1C
:100AC000008037490080B745008093078A7E1387EE
:100AD000496393066004130609749385856B333567
:100AE000A0003D35B7160080B7550080375500800F
:100AF00081471387043902C202C0814801489386A6
:100B00002696130600209385055B1305453BEF30C1
:100B1000E0011840B757008023AEA7281384C729E7
:100B20000DEB894690004C081385043956CC02D849
:100B3000EF100073B745008093078A7E13874963DF
:100B400093069004130609749385456F13351500B9
:100B5000C1330840EF30000FFA406A44DA444A4992
:100B6000BA492A4A9A4A0D6182803755008041115C
:100B70001305053906C6EF10406A375500808145D8
:100B80001305453A0546EF201019B240B7550080CD
:100B9000374500809385C5181305C56A41016F006C
:100BA000F07C411106C622C499476302F502EF208A
:100BB000D0560DC1EF20705621E1B75500809385C6
:100BC00045A437550080130585A5EF00101FEF00E1
:100BD0003023F5BFEF20505571FD375400801304CA
:100BE00044580C4437550080130585A7EF00F01CCE
:100BF0000844EF302005E1BFB7550080938505A478
:100C0000C9B75D71A2C4A6C286C69947AA842E84BC
:100C100063E9A70837470080931725001307477932
:100C2000BA979C438287375500801305458CEF00A7
:100C3000D018EF20B00D7C40832804010328C400A5
:100C40003ED83C40584014403ED65C5C3044AA85B7
:100C50003ED41C5C37550080130585943ED25C5809
:100C60003ED01C583ECE5C543ECC1C543ECA5C5018
:100C70003EC81C503EC65C4C3EC41C4C3EC25C4848
:100C80003EC01C44EF007013A2852685193F3755DE
:100C900000801305C58E61BF375500801305859010
:100CA00079B737550080A68513054592EF00F010FF
:100CB00049B7411122C406C62A8473262034060689
:100CC0000582954763E3C7023747008093172600E4
:100CD0001307077BBA978C43374500801305057DC2
:100CE000EF00B00DA2850145293FB74500809385EF
:100CF000857CDDB7411106C6F325203437550080C9
:100D000086058581130505AAEF00300BB7450080E5
:100D10009385C57E1145F535B75700809387472ADF
:100D2000984311CB03A3070023A00700B757008007
:100D300003A5872A02838280411106C6EF10E00BCB
:100D4000EF00900DEF108010797122D426D24AD096
:100D50004ECE52CC56CA5AC85EC63E8B06D662C428
:100D6000BD47AA842E84B289368ABA8BC28A468944
:100D70006394F806B7270080938747DD6393F606F0
:100D8000C256CA8526851146EF20F041938509FB9E
:100D9000A295896723AE040423A00406C199938712
:100DA0000788FCC5B7170080B250225493878790FC
:100DB00023A4450323A6750323A8650323AA55038B
:100DC000BCC58CD402599254F249624AD24A424B71
:100DD000B24B224C4561828093860801F947E3F1CA
:100DE000D7FA375C0080B75500803755008013066E
:100DF0008CACE146938585AE130545B7EF00E07BEB
:100E000037550080CA85C1563946130545B9EF00EC
:100E1000C07AE14513058CACEF00007C95B7939741
:100E20001500AE97139727005C45BA970307B500E6
:100E30006353B7009C431357F6417D8B3297158758
:100E40000A07BA979CC21375F601828001117400DB
:100E500006CEF137324785473395A7001C43F24051
:100E6000C98F1CC3056182800111740006CE453F05
:100E7000324785473395A7001C43F2401345F5FFE1
:100E80007D8D08C305618280011126CA444122CCB0
:100E90002A8403558500A6854AC84EC652C456C248
:100EA0005AC006CEA53A83290400834AA400FD5700
:100EB0002A8AAA99A305F40001497D4B634159038D
:100EC00081448357840063CEF404F2406244D244E8
:100ED0004249B249224A924A024B05618280A68564
:100EE00052859D32131719004A97931727005844CB
:100EF0003E97930747005CC31CC76349AB00A3053B
:100F0000240189808D04F19805094DBF7D05935713
:100F1000F541FD8BAA9795878A0723203701BE9953
:100F2000CDB74C402685EFF07F8F1C40268681454B
:100F30003E955C4485041387470018C1984758C103
:100F4000984708C388C722851137A5BF1D71A2CC59
:100F5000D2C466DA86CEA6CACAC8CEC6D6C2DAC09F
:100F60005EDE62DC6AD86ED680100347A500AA8CCC
:100F70000A073D071377077F3301E14058410A8A8A
:100F8000D2860D07719B2320EA000545910663F385
:100F9000A50803C70C012E89B289058B814409C7B6
:100FA000A144F3B40430A188375B0080635C090678
:100FB000B7540080B755008037550080138684BC35
:100FC0009306000C938505C3130545B7FD233755DC
:100FD00000801305C5BFD523138584BC9305000C81
:100FE000E52BFD5483C70C01858B81C7A188F3A431
:100FF0000430130104FAF6406644D6444649B64923
:10100000264A964A064BF25B625CD25C425DB25D58
:101010002561828003A7C6FF050509830D07719B23
:1010200098C2ADB7131729005297832A070003AC63
:101030000C004E85D685EFF06FFE938BFAFF330DD3
:1010400075012A9C83A54C0003D58C00EFF00FFDA1
:101050006369AD02B75700809385C7BDB75700805D
:10106000138547B79306400A13068BBCB923B757BD
:101070000080138587BF91239305400A13058BBC1D
:10108000A12B4E86CA856685D133131719004A975E
:101090009316270003A7CC0036979306470023201A
:1010A000DC0014472322DC00144723A086012324FC
:1010B000870103C70C01058B45E38144E30409F272
:1010C0009306C4FB4E86CA856685913B8326C4FB86
:1010D0001357F5410D8B2A978842719BBD473357B3
:1010E000E5003D8BE310F7F0014D93FDC9FF33861A
:1010F000AD013285D6852324C4FAEFF02FF23307F1
:1011000075012A8C83A54C0003D58C002326E4FAB4
:10111000EFF0CFF00327C4FA032684FA6372A70224
:10112000CA856685913303A70C003A9C03264C00C0
:1011300003270C0018C250C323200C0023220C00EC
:10114000050D9147E315FDFA13D6F9410D8AB299C1
:101150007D1993D9294099BDF3A4043003C70C012C
:10116000058B21DFA147F3B40730A18881BF41116E
:10117000AA872E85B285368606C68297EF2000396B
:10118000EF20502C01458280411122C42A8413058E
:10119000500406C626C2AE840294A6851305200517
:1011A000029422832244B240A6859244130520056E
:1011B000410102839C4185079CC1B757008003A36E
:1011C000871C0283397122DC4ED652D45AD06AC8A9
:1011D00006DE26DA4AD856D25ECE62CC66CA6EC623
:1011E000AA892E8A328D368B05446353E0003A84F7
:1011F0008547930C00026314FB00930C0003B7D4E3
:101200009A3B0549A94A014C9384F49F894D938BDD
:10121000140063140C0063F2A407DE856A85EFF006
:10122000AFE2D2851305050382990509054CDE85D9
:101230006A85EFF0EFE52A8DA9452685EFF0CFE02E
:10124000FD1A8547AA84E394FAFCD28513050D03A1
:1012500082998D4733042441630FFB02F25062549C
:10126000D2544259B259225A925A025BF24B624C02
:10127000D24C424DB24D21618280E34A54FBE3E8F7
:101280006DFBD28566858299050955B7D285130510
:10129000000282997D14E34B80FEC9B7B7570080E6
:1012A00023A4A71C82805D71A2C4A6C2CAC04EDE60
:1012B00052DC56DA66D26AD06ECE86C65AD85ED670
:1012C00062D42A84AE84B28A368D014A7D5981491E
:1012D000814CB70D008003C50A0005E1B6402644E5
:1012E00096440649F259625AD25A425BB25B225C7A
:1012F000925C025DF24D61618280639A0C009306FC
:1013000050026305D528A6850294850AE9B793069D
:101310004006630BD50E63EBA6049306900363E7C8
:10132000A602930610036375D50C9306D0026304DE
:10133000D526930700036303F50A13075002631FC2
:10134000E500A68513055002029409AA93068005BC
:10135000630BD514130730066303E522A685130536
:1013600050020294A68503C50A00F9BF9306000740
:101370006301D51263EFA600930690066306D508B5
:101380009306C0066300D50893068006E30FD5F6E2
:10139000F1B7930650076305D50C63EAA60213075D
:1013A0003007E31DE5FA032C0D00130B4D00E28B13
:1013B00003C50B00631B051A8D476398F900B38BB7
:1013C0008B41B30B79416346701B5A8D41A893063C
:1013D0008007630AD50C9306A0074DBF635C090024
:1013E000638D091A130905FDE39109F2894931BF9B
:1013F000E34A09FE9316290036990609130909FDE7
:101400002A99DDB7050A11B763160A0203260D00F3
:10141000110D635B0600A6851305D00232C002944D
:1014200002467D193306C0404A87CE86A6852285AE
:10143000513B2DA00547E30BEAFC93077D0013F712
:1014400087FF10435443130D87003307B60133372A
:10145000C70036975DDFA68522853D33814C75B583
:1014600063160A0003260D00110D7DBF0547E30B2F
:10147000EAFE93077D0013F787FF130D87001043E3
:10148000584371FBB707008093C7F7FFE3FEC7F827
:10149000D9B7A685130500030294A6851305800716
:1014A000029421498549854663C6460783270D0076
:1014B00002C4110D3EC2414C814B02C0C1481245CD
:1014C000A245138BF8FF13162B0046C6EFE05FD43E
:1014D0003D8939ED82479306000389E7B248854785
:1014E0006390F80636956205A68561850294850BA2
:1014F000631D0B028D46814CE399D9E01317190047
:10150000B30B7741E35C70F5A685130500020294E6
:10151000FD1BCDBF93077D0093F687FF9C42138D83
:1015200086003EC2DC423EC479B766C0DA8841BF5D
:10153000A54793067005E3E7A7FA930600035DB796
:101540009307FCFF3EC66349890185476398F9000C
:10155000A685130500030294324CC9BF8947E39D59
:10156000F9FEA68513050002FDB7A685850B02943A
:1015700081B5A685130500020294FD1BA9B50325BC
:101580000D00A685130B4D00029481B5014A7D59CB
:101590008149854C9DBB8D498DBB8549BDB30111EA
:1015A0002A8637150080AE861305451B6C0006CED3
:1015B00002C6D539F2400561828039712ED24C10B5
:1015C00006CE32D436D63AD83EDA42DC46DE2EC6D5
:1015D000F937F24021618280B7550080375500808D
:1015E00041119385C5C0130505C2794606C6F1377A
:1015F000B74500809385C57E1945EFF08FE0828066
:10160000A147F3A7073073005010828085473395B8
:10161000A700732545308280A147F3B70730735088
:101620004030735040348280411122C426C2375466
:10163000008006C6A947AA841304C42A6317F500CC
:101640000840B5455C41DC438297084093F5F40FB0
:101650005C41DC438297B24022442685924441019A
:101660008280411122C4371400801305846206C6AB
:10167000B521130584622244B240410105B13755BA
:10168000008041111305C5C206C6EF00C06EB757F2
:10169000008023A6A72AF137B2400145410182808C
:1016A000B70710F003A747F403A507F483A547F491
:1016B000E39AE5FE8280011122CC06CE26CA4AC8F2
:1016C0004EC652C456C22144733404303759008088
:1016D0001305092B2188EF20A02E15E9B7540080AF
:1016E000B755008037550080938585C59306E00483
:1016F000138604C4130545B7C93537550080130553
:1017000005C7653D9305E004138504C4F135130551
:10171000092BB7540080EF20602E9384842849372A
:1017200083A9040083AA4400AA8733053541B3B7CF
:10173000A700B385554175661306064C81469D8DFD
:10174000EFE09FB02A8AF5659385054C5285EFF04E
:10175000EF8CAA9933B5A9005695C8C01305092B7B
:1017600023A03401EF20602715E9B7540080B75556
:10177000008037550080938585C893061006138630
:1017800004C4130545B7153D37550080130505CA38
:101790002D3593051006138504C43D3D7324043094
:1017A0006244F240D2444249B249924A5285224AA6
:1017B00005616F203020411106C6DD35F56793873E
:1017C000074C370710F0AA97FD562326D7F433B5F8
:1017D000A7002E952324F7F42326A7F41D453D35B5
:1017E000B24001454101828063950514011106CE86
:1017F00022CC26CA4AC84EC652C456C25AC0FD5749
:101800006315F50025651305E5BCA5671304F5FF11
:101810009387E7BC63DB87103E8421497339093025
:10182000B75A008013850A2B13798900EF204019DD
:1018300015E9B7540080B75500803755008093856F
:1018400085C59306E004138604C4130545B7B53374
:1018500037550080130505C78D339305E0041385C4
:1018600004C49D3B13850A2BEF204019153DB75743
:10187000008093878728F56483A907002A8A9385C7
:10188000044C228503AB4700EFE05FF99387F44BEC
:10189000B38737413E959385044C5295EFE0DFFACC
:1018A0009385044CEFE09FF7338A49412A9A9307C6
:1018B000703E63C547019384044C2695B70710F02A
:1018C000AA997D5723A6E7F433B5A9005A9523A416
:1018D00037F523A6A7F413850A2BEF20001015E98E
:1018E00037540080B755008037550080938585C8F0
:1018F00093061006130604C4130545B77D39375502
:101900000080130505CA553993051006130504C454
:10191000E13173290930F2406244D2444249B2496C
:10192000224A924A024B05618280E35804EE014448
:10193000EDB58280411122C406C626C24AC02144A8
:1019400073340430B75400801385042B2188EF20B2
:10195000200715E937590080B755008037550080BA
:10196000938585C59306E004130609C4130545B79E
:10197000A93137550080130505C781319305E0046F
:10198000130509C491391385042BEF202007093B67
:10199000B757008083A78728F5659385054C1D8D73
:1019A000EFE09FEA2A891385042BEF20000315E955
:1019B000B7540080B755008037550080938585C89F
:1019C00093061006138604C4130545B7FD36375534
:1019D0000080130505CAD53693051006138504C487
:1019E000E53E73240430B24022444A8592440249C1
:1019F000410182808347050003C705006393E70028
:101A000081E73385E740828005058505E5B7B34763
:101A1000B5008D8B95CFAA8701476317E6048280B6
:101A20007DDE850503C7F5FF85077D16A38FE7FEDD
:101A300013F7370075F78D463308E64063EC06016F
:101A40001357260093162700158EB697B695E9B75B
:101A5000AA87F9BFB388E50083A808003388E700A8
:101A6000110723201801C9BF3388E5000348080087
:101A7000B386E70005072380060145B793F6F50F07
:101A8000AA8713F737001DEB93F5F50F1397850021
:101A9000D98D13970501D98D3383C7003E870D4833
:101AA000B308E34063621803135726009315270019
:101AB000AE970D8E3E96639DC70082807DDE8507C2
:101AC000A38FD7FE7D1675BF1107232EB7FEC9BFA2
:101AD0008507A38FD7FEC5B77D558280B757008095
:101AE00023A6A71C8280011122CC1C4537540080FC
:101AF00026CA1304041DB754008006CE4AC84EC639
:101B00009384442B8549232004002A8923A034018F
:101B100082978327490023203401829789471CC07C
:101B20008327C90082978D471CC0624423A004000C
:101B3000F240D2444249B24937550080130545422C
:101B400005616F105027375500804111B75700804D
:101B50007D571305454206C623AAE72AEF10B02594
:101B6000EF10D01AB24041016F20C00D1D71A6CAFE
:101B7000B754008083A7842B86CEA2CCCAC8CEC619
:101B8000D2C4D6C2DAC05EDE62DC66DA6AD86ED64D
:101B900063C90706375400800546AA892E8C1305B1
:101BA00044428145EF10301737550080CE8513052C
:101BB000C5CFEFF09FA037590080130549D1B75A20
:101BC0000080EFF09F9F9384842B014A22CEB75C64
:101BD0000080375B0080372D0080B75D0080B75BE9
:101BE0000080938A4ACB83274C009DEBCE8563030C
:101BF0000A0C37550080130545D8EFF01F9C854728
:101C00009CC0F6406644D6444649B649264A964AA0
:101C1000064BF25B625CD25C425DB25D2561828004
:101C200083250C00B75700801385C7D5EFF0FF98C8
:101C300002C283270C0162871306004093E78700E6
:101C4000FD58014893066DAE3EC093850C7B8147DD
:101C500013054B43EF10906DF247FD551385474236
:101C6000EF10102093874D2B13054B438043EF104B
:101C7000707DB75700809387472B98430504F95729
:101C80001334140003260C006311F702B7550080CB
:101C9000938505D713858BD7EFF03F92130549D174
:101CA000EFF0BF91229A510C3DBF93172400D697B5
:101CB0008C43CDB7375500801305C5D9EFF0FF8FA2
:101CC0009C40B337F0002DBFB757008083A7872B08
:101CD000411122C43755008006C6375400801305D1
:101CE00045D191CFEFF07F8DB7550080938505CC1E
:101CF000130584CC2244B24041016FF01F8CEFF0F9
:101D0000DF8BB7550080938505CEDDB7411106C640
:101D1000EFE0BFE5B240410145BF411102C6B24705
:101D200085073EC6B70701F08CC3410182807D550F
:101D300082800145828013172500B7570080050572
:101D40009387C7DC0A0541113E97AA9722C426C291
:101D50000043844306C663679400B2402244924421
:101D6000410182801C402285DC43829719C12322D5
:101D700004003104CDB74111B757008026C2B754D3
:101D8000008022C406C61384471E4AC09387471E9C
:101D900093840422631894002A893E84631C94006F
:101DA000014415A0584009C718401843630DA70007
:101DB0003104CDB75C4099E33104CDB71C404A856E
:101DC0008C430D3975F92285B24022449244024970
:101DD00041018280411122C426C206C621448944A1
:101DE000F3370430EF20202463C3A4000545854564
:101DF000EF20002FEFF0DF80E5B737550080B757B1
:101E00000080130685289387075B3386C74081458A
:101E100013058528A5B14111094506C6293F375547
:101E20000080130505DEEFF04FF90D452937EF105F
:101E3000F059E93DB75700809387475103C7C70062
:101E4000799B2386E700B24041018280357122CD23
:101E5000B7670080375400804EC79387077B93098C
:101E6000445823A2F9001C081306000781453E854B
:101E700006CF26CB4AC91931054723A4A90001453D
:101E8000A30EE1004D3D05457D3593071010231E3F
:101E9000F100EF102066B7570080938747E237596B
:101EA00000803EC2B72600808547B7650080930456
:101EB00049513EC00147814781480148938666E108
:101EC00013060020938505BB1305495123A09902F1
:101ED000EF10902683C7D4001304445813F7B7FFBC
:101EE000A386E400ED8B99E79C4C89E713054951E3
:101EF000EF00905AB75700809387C7E23EC237552C
:101F000000808547B7260080B76500809304454A66
:101F10003EC0BD48014881470147938646DD130610
:101F20000020938505DB1305454AEF10F02083C799
:101F3000D40044C42145ED9BA386F400B75700802C
:101F40009387C7591CCC5CCC733505302189EFE0F1
:101F50002FA71851AA8709C794517D556310D7043C
:101F6000D44DD84F81C67D55639AE602D8CD98519D
:101F7000944798D3984594C5D44198C7D843637380
:101F8000D700D8C1D84BD447D8C9904FD4C590CD2D
:101F900099C623AA0500DC530145DCD1828065DFA8
:101FA000D8C5D5BF411122C4376400801304847D95
:101FB00026C24AC006C6930484343759008022855D
:101FC000814605468145EF10101EA2851305C926DE
:101FD00013044405EF10E07FE31394FEB240224463
:101FE00092440249014541018280B75700807971CE
:101FF00083A7C75856CA83AA450226D24AD04ECED6
:102000005AC85EC606D622D452CCDCCDAA892E8B05
:10201000B28B23AABA0013090501A144F3B404301A
:102020004A85A188EF10D0190DED37540080B755BF
:10203000008037550080938585C59306E00413061C
:1020400004C4130545B7EFF04FD73755008013058B
:1020500005C7EFF08FD69305E004130504C4EFF035
:10206000AFD74A85EF10901903A4890093878900A0
:10207000631EF40663930B0C4A85EF1010160DEDEA
:1020800037540080B755008037550080938585C848
:1020900093061006130604C4130545B7EFF0EFD1FD
:1020A00037550080130505CAEFF02FD193051006B0
:1020B000130504C4EFF04FD2F3A40430130A00FB5D
:1020C0008DA0FD5601462254B250F249624AD24ACE
:1020D000424BB24BA6854A859254025945616F1016
:1020E000601F83A7C900E307F4F8004041D44C48BF
:1020F0005A8585352A8A75F52285EF00100D8347AC
:10210000D40023260406FD8B91E71C4C81E7228531
:10211000EF00903883C7DA00858BC5D7A6854A853E
:102120003D25B2502254528592540259F249624AD6
:10213000D24A424BB24B4561828083C7DA00858B1D
:10214000B1CB56857D56CE85EF1060124A85EF10D3
:10215000D0080DED37540080B7550080375500800A
:10216000938585C893061006130604C4130545B766
:10217000EFF0AFC437550080130505CAEFF0EFC389
:1021800093051006130504C4EFF00FC5F3A4043043
:10219000014A41BFDE864E863DB75C51B5CF5C49F2
:1021A000411122C406C62A8489C75105B526232AAF
:1021B00004004C505C4023220402D8495CC383C70E
:1021C000D500858B99CF0057375500801305C5265C
:1021D000EF10206015CC22852244B24041016F10DF
:1021E000803D83C7D50023A6050613F7D7FFA38636
:1021F000E500F58B91E79C4D81E72E85EF00D02916
:102200002145733505302244B24021894101FDA3A7
:10221000B24022444101828082809307850008C138
:1022200048C11CC55CC5232805008280B7570080C3
:1022300083A7C758DCD155BB411122C406C62A84E6
:1022400099E5232205002244B2404101B9B72E8509
:102250004C4489C5504019C2EFF06FFB2285E5B7A9
:1022600079715AC8375B008093074B589C4722D43A
:102270004AD04ECE52CC56CA5EC606D626D22A8A3E
:102280002E89B28AB68B9CD19309050121447334FF
:1022900004304E85EF10C0722188130B4B580DEDA2
:1022A000B7540080B755008037550080938585C5A9
:1022B0009306E004138604C4130545B7EFF0EFAFAF
:1022C00037550080130505C7EFF02FAF9305E004E5
:1022D000138504C4EFF04FB04E85EF1020728324B5
:1022E0000A0063149A06639C0B0C4E85EF10E06E97
:1022F0000DEDB7540080B7550080375500809385A9
:1023000085C893061006138604C4130545B7EFF07D
:10231000CFAA37550080130505CAEFF00FAA930521
:102320001006138504C4EFF02FAB7324043013059B
:1023300000FB9DA883274900BDE74A85B93DA5A0BC
:1023400083274A00E381F4FA8440D1DCC848CA8577
:1023500009317DF52685952D4E85EF1000680DED30
:10236000B7540080B755008037550080938585C8E5
:1023700093061006138604C4130545B7EFF0EFA3C8
:1023800037550080130505CAEFF02FA393051006FB
:10239000138504C4EFF04FA473240430E38C0AF8CF
:1023A000D6854A85513D0145B25022549254025976
:1023B000F249624AD24A424BB24B4561828083273E
:1023C0008B00DE8613068A0023AA2701A2854E858C
:1023D000EF00507071F9D9B7411122C426C23754A9
:1023E0000080B754008006C6130404229384842519
:1023F00063689400B24022449244014541018280C6
:102400009307440122855CC81CCCEFE0FFA7710450
:10241000C5B7834705000111104122CC1394370042
:102420004AC81D8C375900800A049355860013054D
:1024300009223182BD89229506CE26CA4EC652C4D3
:10244000EFE0DFB0A145F3B50530B7540080138548
:10245000C42B93F98500EF10A056130909220DED46
:10246000375A0080B755008037550080938585C561
:102470009306E00413060AC4130545B7EFF0EF9383
:1024800037550080130505C7EFF02F939305E0043F
:1024900013050AC4EFF04F941385C42BEF100056B8
:1024A000130544014A95EF10000101CD6244F2404A
:1024B0004249224ACE851385C42BB249D2440561D4
:1024C00079A41385C42BEF1040510DED37540080D3
:1024D000B755008037550080938585C89306100650
:1024E000130604C4130545B7EFF02F8D3755008050
:1024F000130505CAEFF06F8C93051006130504C48D
:10250000EFF08F8DF3A50930F2406244D244424986
:10251000B249224A056182801105E5BD8347D50095
:10252000FD8B89E7084D13351500828001458280B7
:10253000411106C6EFF00FC0B757008083A7872C64
:10254000B240375700803E95232AA75881453E85E3
:1025500041016F10F0381C41411122C406C626C249
:102560002A849DE7B7540080B75500803755008016
:102570009385C5F0130545B793063018138684EF8D
:10258000EFF0AF8393053018138584EFEFF0CF841D
:102590000840B2402244924441018280011122CC81
:1025A0004EC652C406CE26CA4AC82A8AAE892144DB
:1025B00073340430B75400801385042C2188EF1045
:1025C00020400DED37590080B75500803755008009
:1025D000938585C59306E004130609C4130545B722
:1025E000EFE0BFFD37550080130505C7EFE0FFFCA6
:1025F0009305E004130509C4EFE01FFE1385042CC6
:10260000EF10C03FB7570080A94513059A0023AAD1
:102610000758EFE0EFA2B757008037590080232416
:10262000A92C23A2372D29371385042CEF10E03A6B
:102630000DEDB7540080B755008037550080938565
:1026400085C893061006138604C4130545B7EFE04A
:10265000DFF637550080130505CAEFE01FF6930536
:102660001006138504C4EFE03FF773240430F240F2
:102670006244D2444249B249224A05618280011132
:1026800022CC4AC806CE26CA4EC62A8921447334B3
:102690000430B75400801385042C2188EF10403299
:1026A0000DEDB7590080B7550080375500809385F0
:1026B00085C59306E004138609C4130545B7EFE00A
:1026C000DFEF37550080130505C7EFE01FEF9305D7
:1026D000E004138509C4EFE03FF01385042CEF10EC
:1026E000E03113058900853DCA8551248347D9000F
:1026F0001385042CF59BA306F900EF10002E0DEDB9
:10270000B7540080B755008037550080938585C841
:1027100093061006138604C4130545B7EFE0FFE9DE
:1027200037550080130505CAEFE03FE99305100611
:10273000138504C4EFE05FEA73240430F24062447E
:1027400023240900D2444249B24905618280B75727
:10275000008083A74758411122C406C626C22E8492
:10276000B9E7EF1080270DEDB7540080B755008012
:1027700037550080938585C893068007138604C467
:10278000130545B7EFE07FE337550080130505CA11
:10279000EFE0BFE293058007138504C4EFE0DFE3B9
:1027A00022852244B240924441016FD07FA1EF10B4
:1027B000C0220DEDB7540080B7550080375500801A
:1027C000938585C893061006138604C4130545B780
:1027D000EFE0BFDE37550080130505CAEFE0FFDDEF
:1027E00093051006138504C4EFE01FDF21887324CE
:1027F0000430B24022449244410182803757008025
:102800000327475819E36FD0BF9B93778500F3A741
:10281000073082802145733505302189C5B7011104
:1028200022CC06CE26CA4AC84EC621447334043090
:10283000B75400801385042C2188EF1060180DED2B
:1028400037590080B755008037550080938585C57E
:102850009306E004130609C4130545B7EFE0FFD55E
:1028600037550080130505C7EFE03FD59305E00419
:10287000130509C4EFE05FD61385042C3759008097
:10288000EF10C01783274958130949588DCFB759FE
:102890000080B755008037550080938505E9930681
:1028A0000010138649E7130545B7EFE01FD13755F0
:1028B0000080130585BFEFE05FD0930500101385FE
:1028C00049E7EFE07FD18327890003C7F7008547F9
:1028D000631EF702B7590080B75500803755008056
:1028E000938585EA93061010138649E7130545B7CB
:1028F000EFE0BFCC37550080130585BFEFE0FFCB7D
:1029000093051010138549E7EFE01FCD03278900D9
:102910008347F700FD17A307F7001385042CEF107A
:10292000C00B0DEDB7540080B755008037550080BF
:10293000938585C893061006138604C4130545B70E
:10294000EFE0BFC737550080130505CAEFE0FFC6AB
:1029500093051006138504C4EFE01FC873240430E8
:10296000F2406244D2444249B24905618280B7577D
:10297000008083A7071E411122C406C626C22E84EA
:102980006398F502B7540080B75500803755008032
:102990009385C5F7130545B79306C028138684EFC2
:1029A000EFE0BFC19305C028138584EFEFE0DFC2DD
:1029B00058401C40B24092441CC3D8C3232004009A
:1029C00023220400224441018280011122CC26CA24
:1029D00006CE4AC84EC62A84A144F3B404303759FF
:1029E00000801305092CA188EF00907D0DEDB759EB
:1029F0000080B755008037550080938585C59306C4
:102A0000E004138609C4130545B7EFE01FBB375533
:102A10000080130505C7EFE05FBA9305E004138556
:102A200009C4EFE07FBB1305092CEF00307D1305CF
:102A30008400EFF05FB2A2851D3F8347D4001305E9
:102A4000092CF59BA306F400EF0030790DED375902
:102A50000080B755008037550080938585C8930660
:102A60001006130609C4130545B7EFE01FB5375527
:102A70000080130505CAEFE05FB493051006130547
:102A800009C4EFE07FB5F3A4043023240400130548
:102A900084016244F240D2444249B24905616F1058
:102AA000E04B1C416313F50081473E858280411154
:102AB00022C4375400804AC02A891305445813059C
:102AC000450226C206C6F13F13044458AA8411E108
:102AD0004444631209061C448DEF37590080B755F2
:102AE000008037550080938545F29306F007130662
:102AF00089EF130545B7EFE05FAC3755008013054C
:102B000085BFEFE09FAB9305F007130589EFEFE07A
:102B1000BFAC1C4403C7D7007D8B11EF83D6E70001
:102B20001307F0076379D7001CD0B24022449244C7
:102B30000249410182801C4463849700EFF05F9F4B
:102B400004D0E5B701114AC83759008093074958A6
:102B50009C4706CE22CC83C7F70026CA4EC613096F
:102B600049588DEF37540080B755008037550080A5
:102B7000938505ED93061022130684EF130545B7E0
:102B8000EFE0BFA337550080130585BFEFE0FFA23C
:102B900093051022130584EFEFE01FA4832709009B
:102BA0008DCF37540080B75500803755008093850E
:102BB00005E993062022130684EF130545B7EFE0DD
:102BC000DF9F37550080130585BFEFE01F9F9305FA
:102BD0002022130584EFEFE03FA02144733404303A
:102BE000B75400801385042C2188EF00705D0DED33
:102BF000B7590080B755008037550080938585C54B
:102C00009306E004138609C4130545B7EFE0FF9A65
:102C100037550080130505C7EFE03F9A9305E004A0
:102C2000138509C4EFE05F9B1385042CEF00105D52
:102C30000327890005458347F7008507A307F700A9
:102C4000BD351385042CEF0050590DEDB7540080AD
:102C5000B755008037550080938585C893061006C8
:102C6000138604C4130545B7EFE03F953755008040
:102C7000130505CAEFE07F9493051006138504C47D
:102C8000EFE09F95732404306244F240D2444249FD
:102C9000B24905616FF01FB8011122CC26CA06CED9
:102CA0004AC84EC62A84A144F3B404303759008080
:102CB0001305092CA188EF00B0500DEDB759008025
:102CC000B755008037550080938585C59306E0048D
:102CD000138609C4130545B7EFE03F8E37550080D2
:102CE000130505C7EFE07F8D9305E004138509C444
:102CF000EFE09F8E1305092CEF005050B75700806E
:102D000083A7071E6318F402B7590080B7550080E7
:102D1000375500809385C5F7130545B7930660279F
:102D2000138689EFEFE07F8993056027138589EF8C
:102D3000EFE09F8A3757008093064758DC52905641
:102D4000B75600809386865A130747586385D7087D
:102D5000D9C38305E4000385E70063DAA506D843F9
:102D60001CC058C000C3C0C38347D400014593E7CB
:102D70000704A306F400EFF09FD31305092CEF001E
:102D8000D0450DED37540080B75500803755008091
:102D9000938585C893061006130604C4130545B72A
:102DA000EFE0BF8137550080130505CAEFE0FF80D3
:102DB00093051006130504C4EFE01F82F3A404304A
:102DC000F2406244D2444249B249056182806304C0
:102DD000F6009C43C9F350C01C5714C080C300D7F1
:102DE00061B7832705FF011122CC4EC606CE26CA45
:102DF0004AC852C42A84930985FECDCFA144F3B4B6
:102E00000430375900801305092CA188EF00503B8E
:102E10000DED375A0080B7550080375500809385F7
:102E200085C59306E00413060AC4130545B7EFE011
:102E3000CFF837550080130505C7EFE00FF893056D
:102E4000E00413050AC4EFE02FF91305092CEF0085
:102E5000F03A130504FFEFF00FF0CE85EFF03FB12D
:102E6000834754FF1305092CF59BA30AF4FEEF00DA
:102E7000D0360DED37590080B755008037550080AA
:102E8000938585C893061006130609C4130545B734
:102E9000EFE0AFF237550080130505CAEFE0EFF120
:102EA00093051006130509C4EFE00FF3F3A40430F3
:102EB000232804FE834754FF4E85AD9BA30AF4FEEE
:102EC000EFF0CFE519C96244F240D2444249224AA8
:102ED0004E85B24905616FF03FDCF2406244D24456
:102EE0004249B249224A05618280011122CC4AC876
:102EF00006CE26CA4EC652C456C22A842149733908
:102F00000930B75900801385092C13798900EF0027
:102F1000302B0DEDB7540080B75500803755008039
:102F2000938585C59306E004138604C4130545B74D
:102F3000EFE0AFE837550080130505C7EFE0EFE796
:102F40009305E004138504C4EFE00FE91385092C11
:102F5000EF00D02AB754008013854458A28513058A
:102F60004502EFF0DFA0B757008083A7071E375A4E
:102F7000008093844458130A8A5A6318F402B75A9B
:102F80000080B7550080375500809385C5F713053D
:102F900045B79306602713868AEFEFE00FE29305AB
:102FA000602713858AEFEFE02FE3DC509854638AA3
:102FB0004709C1CB8306E4000386E70063DFC6064A
:102FC000D8431CC058C000C3C0C38347D400884442
:102FD00093E70704018D13351500A306F400EFF005
:102FE0001FAD1385092CEF00501F0DED37540080E5
:102FF000B755008037550080938585C89306100625
:10300000130604C4130545B7EFE02FDB37550080E6
:10301000130505CAEFE06FDA93051006130504C423
:10302000EFE08FDB73290930F2406244D244424919
:10303000B249224A924A056182806384E7009C4338
:10304000A5FF58C09C542320440180C380D4B5BF41
:10305000B757008083A7872CB1CBB75700809387E1
:10306000475898479306F0070356E70063E0C60405
:10307000B75600800306E70083A6462C6348D602B5
:10308000B756008083A6061E6302D702144F99EE3E
:10309000944B634BD50041113A8506C6EFF0FFE42F
:1030A000B24041016FF0CFC8898E94CB828001116C
:1030B00022CC4EC606CE26CA4AC8AA8921447334F9
:1030C0000430B75400801385042C2188EF00500F82
:1030D0000DED37590080B755008037550080938536
:1030E00085C59306E004130609C4130545B7EFE050
:1030F000CFCC37550080130505C7EFE00FCC930503
:10310000E004130509C4EFE02FCD1385042CEF0074
:10311000F00E83C7D900375900801309495893F737
:10312000070481CFCE8513054902EFF05F8483C782
:10313000D90093F7F7FBA386F9000325890033052F
:10314000354113351500EFF09F961385042CEF00E1
:10315000D0080DEDB7540080B7550080375500807A
:10316000938585C893061006138604C4130545B7D6
:10317000EFE0AFC437550080130505CAEFE0EFC399
:1031800093051006138504C4EFE00FC573240430C3
:10319000F2406244D2444249B24905618280011141
:1031A00022CC26CA2A844AC806CE4EC6AE843289AC
:1031B000FD3D8347D40093E72700A306F400A9CC84
:1031C000B757008083A7071E04C46318F402B759D9
:1031D0000080B7550080375500809385C5F71305EB
:1031E00045B793066027138689EFEFE00FBD93057F
:1031F0006027138589EFEFE02FBE9C40638BF404BA
:10320000A9CB0307E4008386E700635FD702D843B6
:103210001CC058C000C3C0C3FD576303F904A945CF
:1032200013059900EFD0CFE11306150013058401B3
:103230006244F240D2444249B249B7350080938596
:1032400025DE05616F001035D4406384D7009C43B0
:10325000DDFBDC4004C05CC0DC4080C3C0C06DBF8F
:10326000F2406244D2444249B24905618280B75774
:10327000008083A7C758011122CC4AC84EC606CE8B
:1032800026CA2A842E89B289638CA7028347D50077
:10329000858B9DE7B7540080B75500803755008077
:1032A000938545F4130545B79306D017138684EF2D
:1032B000EFE0AFB09305D017138584EFEFE0CFB107
:1032C00022856244F240D2444E86CA85B2494249C0
:1032D0000561F1B54111B757008022C42A8403A5C6
:1032E000C75826C2AE84B285368606C6EFF03FEBDD
:1032F0002285EF00806E0DED37540080B7550080B9
:1033000037550080938585C893068007130604C44B
:10331000130545B7EFE06FAA37550080130505CABE
:10332000EFE0AFA993058007130504C4EFE0CFAA2F
:103330002244B2402685924441016FC07FE80111CA
:103340004AC84EC606CE22CC26CAAA89214973395C
:103350000930B75400801385042C137989008D251A
:103360000DED37540080B7550080375500809385A8
:1033700085C59306E004130604C4130545B7EFE0C2
:10338000CFA337550080130505C7EFE00FA39305C2
:10339000E004130504C4EFE02FA41385042CB92D19
:1033A0004E85EFF00FF02A841385042C3D250DED9A
:1033B000B7590080B755008037550080938585C880
:1033C00093061006138609C4130545B7EFE0EF9E78
:1033D00037550080130505CAEFE02F9E93051006B0
:1033E000138509C4EFE04F9F732909304DCC214963
:1033F000733909301385042C13798900D1230DED1D
:10340000B7590080B755008037550080938585C532
:103410009306E004138609C4130545B7EFE0EF995E
:1034200037550080130505C7EFE02F999305E00499
:10343000138509C4EFE04F9A1385042CC1231305AB
:103440008400EFF04F91A285EFF06FD28347D40054
:103450001385042CF59BA306F40041230DEDB7540E
:103460000080B755008037550080938585C8930646
:103470001006138604C4130545B7EFE00F943755C3
:103480000080130505CAEFE04F93930510061385DE
:1034900004C4EFE06F94732909302324040013055A
:1034A0008401EF00B02B2285F2406244D2444249AD
:1034B000B24905618280411126C24AC006C622C4B3
:1034C0002A898144032409006303890001E8B2408A
:1034D0002244268502499244410182802285EFF0F0
:1034E000CFCE2285EFF08F83854469DD2285EFF012
:1034F000AFFAC9BFB7570080938747581387470271
:10350000D8D398D7814501456FF04F89B7570080D0
:1035100003A5C7588280011122CC26CA4AC806CE0C
:103520004EC62A842E89B2840DEEB7590080B75555
:10353000008037550080938505FA93066004138652
:1035400009F9130545B7EFE04F873755008013059C
:10355000C5FAEFE08F8693056004138509F9EFE063
:10356000AF8763FE2403B7590080B75500803755F5
:103570000080938545FC93067004138609F91305B2
:1035800045B7EFE08F83375500801305C5FDEFE0A9
:10359000CF8293057004138509F9EFE0EF832324AC
:1035A000240144C400C040C0F2406244D2444249B5
:1035B000B24905618280011126CA4EC606CE22CCD0
:1035C0004AC8AA89A144F3B40430375400801305D3
:1035D000C42CA188F5260DED37590080B755008021
:1035E00037550080938585C59306E004130609C40A
:1035F000130545B7EFD07FFC37550080130505C78D
:10360000EFD0BFFB9305E004130509C4EFD0DFFC46
:103610001305C42CE5264E85EFF07FD22A8915C507
:103620008347D500FD8B89E71C4D99E3EFF0CFE68A
:10363000232609061305C42C6244F2404249B249CC
:10364000A685D24405616FF08F9003A7890083A7F8
:10365000C900998FB337F000BA9723A4F900D9BFF6
:10366000B757008083A7475801114AC84EC606CEF7
:1036700022CC26CA52C42A89AE8995CF8DCD375423
:103680000080B7550080375500809385450093062C
:10369000C008130604F9130545B7EFD01FF23755DC
:1036A0000080130585BFEFD05FF19305C0081305B7
:1036B00004F9EFD07FF2214473340430B754008012
:1036C0001385C42C2188ED2C0DED375A0080B75599
:1036D000008037550080938585C59306E004130666
:1036E0000AC4130545B7EFD05FED375500801305C9
:1036F00005C7EFD09FEC9305E00413050AC4EFD093
:10370000BFED1385C42CDD2C83278900B9CFFD17AD
:103710002324F9001385C42CC9240DEDB75400806F
:10372000B755008037550080938585C893061006ED
:10373000138604C4130545B7EFD03FE83755008022
:10374000130505CAEFD07FE793051006138504C45F
:10375000EFD09FE8732404300145F2406244D24424
:103760004249B249224A0561828063960904138561
:10377000C42CA5240DEDB7540080B75500803755F3
:103780000080938585C893061006138604C413052C
:1037900045B7EFD09FE237550080130505CAEFD03B
:1037A000DFE193051006138504C4EFD0FFE2732414
:1037B000043041555DB7A2856244F240224ACE866C
:1037C0004A86B24942491385C42CD24405616FF040
:1037D0007FB018495C49011126CA52C406CE22CCDA
:1037E0004AC84EC6AA842E8A631EF7023754008048
:1037F000B75500803755008093858507930680066E
:1038000013068403130545B7EFD03FDB375500801F
:1038100013054509EFD07FDA93058006130584036D
:10382000EFD09FDB938984002144733404304E85AC
:10383000218879220DED37590080B7550080375522
:103840000080938585C59306E004130609C413051B
:1038500045B7EFD09FD637550080130505C7EFD089
:10386000DFD59305E004130509C4EFD0FFD64E85DC
:1038700071222685EFF0BFAC2A8905C98347D500A0
:10388000FD8B89E71C4D99E3EFF00FC1A2856244DF
:10389000232A490123260906F240D2444249224AFA
:1038A0004E85B24905616FE09FEA9C484E8523A092
:1038B000470191079CC815220DEDB7540080B755FC
:1038C000008037550080938585C8930610061386BF
:1038D00004C4130545B7EFD05FCE375500801305FC
:1038E00005CAEFD09FCD93051006138504C4EFD011
:1038F000BFCE73240430F2406244D2444249B249FC
:10390000224A056182808347D500FD8B89E7084DF7
:1039100013351500828001458280B757008003A5CA
:1039200047583335A0008280B757008083A7C75817
:1039300003C5C700058982800111025322CC06CE3F
:103940001AC02A84EFD04FC0B757008083A7C7584A
:10395000F240BC573CD46244056182803C51411125
:1039600022C406C62A8491C382972285EFF0BFF94C
:1039700011CD2285EFF0AFF38347D400B24093E737
:103980008700A306F4002244410182808347D400CB
:10399000898B81C72285EFE09FCE1C4CF1DF130598
:1039A00084016D2BD1BF2306D500A306C5002307D4
:1039B000B500A3070500232C0500232E05008280F7
:1039C000084111C9B757008083C787590D891D8DDC
:1039D0003335A000828005458280B75700809387E9
:1039E000475803C747019C47D98F18416316F70012
:1039F000232005000545828001458280B75700805D
:103A00009387475803C747019C47D98F1CC18280C1
:103A1000011122CC4AC806CE26CA4EC62A892144A4
:103A200073340430B75400801385042D2188EFF0DF
:103A30003FF90DEDB7590080B7550080375500802C
:103A4000938585C59306E004138609C4130545B71D
:103A5000EFD0BFB637550080130505C7EFD0FFB5CF
:103A60009305E004138509C4EFD01FB71385042D17
:103A7000EFF0DFF88347D90013F7470039EB1385E0
:103A8000042DEFF09FF50DEDB7540080B755008081
:103A900037550080938585C893061006138604C4A5
:103AA000130545B7EFD07FB137550080130505CA20
:103AB000EFD0BFB093051006138504C4EFD0DFB17B
:103AC00073240430F2406244D2444249B249056151
:103AD0008280ED9BA306F9004A85EFF0DFE201C585
:103AE0004A85EFF06F9BA2856244F2404249B24999
:103AF0001385042DD24405616FE07FC599E16FF015
:103B00003FF1411122C42A842E852505A94506C608
:103B1000EFC01FD313061500130584012244B240E1
:103B2000B7350080938525DE4101ADA4397156D2A9
:103B3000B68AB756008083A6465822DC26DA4ED6CF
:103B400052D406DE4AD82A84AE89328A9644A9C65F
:103B500037590080B7550080375500809306201BE9
:103B60001306490A938505E9130545B746CE42CCAD
:103B70003ECA3AC8EFD07FA4375500801305850BA5
:103B8000EFD0BFA39305201B1305490AEFD0DFA494
:103B9000F2486248D2474247864602C2528636C041
:103BA000CE85D6862285EFF03FD9FD576386F40097
:103BB000A6852285EFF09FF42285F2506254D254FC
:103BC0004259B259225A925A216182800111B75743
:103BD00000804AC83759008022CC26CA06CE1384FA
:103BE00007229384072213090922636F2401268484
:103BF000EFE0FFC2FD54636E24036244F240D244FE
:103C0000424905616FE01FF45C543EC21C503EC047
:103C10005C488328C4010328840118485444104494
:103C20004C400840EFF05FD11C40E0CF1304040388
:103C30006DBF4C50638595000840EFF03FEC1304D6
:103C4000040355BF011122CC26CA06CE4AC8AA8455
:103C500002C621447334043068002188EFF05FD637
:103C60000DED37590080B75500803755008093859A
:103C700085C59306E004130609C4130545B7EFD0C4
:103C8000DF9337550080130505C7EFD01F939305C9
:103C9000E004130509C4EFD03F946800EFF01FD68D
:103CA00083C7C400858B8DCF37590080B7550080FE
:103CB000375500809385850F930690021306090EF1
:103CC000130545B7EFD07F8F375500801305C51218
:103CD000EFD0BF8E930590021305090EEFD0DF8F52
:103CE0002685EFF0BFC7A2856800EFE05FA6F2402F
:103CF0006244D244424905618280B757008083A75D
:103D0000472D99E36FD01FC3014582801C4101CD2F
:103D1000375700800327871D6307E50089C7984749
:103D20001445369798C758411CC3D8C323200500B3
:103D3000232205008280B757008083C7C72D411119
:103D400006C622C426C27D5589E737050080134583
:103D5000F5FFB75700809387471D8043630FF4003A
:103D600009CC0444EFF07FF9898C014563C7040056
:103D70000044EFF09FF83305A440B757008083A7B5
:103D8000475981C763D3A7003E85B240224492447D
:103D9000410182801C41797122D426D24ECE06D6B2
:103DA0004AD052CC56CA5AC85EC662C42A84AE896A
:103DB000B2848DCF37590080B755008037550080C9
:103DC0009385C5159306D00413068914130545B7CA
:103DD000EFD0AFFE37550080130585BFEFD0EFFD64
:103DE0009305D00413058914EFD00FFF2326340167
:103DF000634390008544A149F3B90930375A0080E4
:103E000013058A2D93F98900EFF09FBB0DED37590B
:103E10000080B755008037550080938585C593068F
:103E2000E004130609C4130545B7EFD00FF9375561
:103E30000080130505C7EFD04FF89305E004130584
:103E400009C4EFD06FF913058A2DEFF03FBBEFF0F7
:103E5000DFEA2695B754008003A9441D08C4938463
:103E6000441D630C9900B75A0080375B0080B75B34
:103E70000080375C008063190900DC4004C05CC02E
:103E8000DC4080C3C0C091A88327890063D60702A5
:103E90009305CB179306600513868A1413854BB7D9
:103EA000EFD0AFF113058CBFEFD02FF19305600574
:103EB00013858A14EFD04FF2032789001C4463D77F
:103EC000E708B307F7402324F9008327490023209C
:103ED00024015CC080C3232289009C406389970031
:103EE0006317F400EFF03FE58145EFD0FF8F130536
:103EF0008A2DEFF09FAE0DED37540080B75500804E
:103F000037550080938585C893061006130604C4B0
:103F1000130545B7EFD06FEA37550080130505CA82
:103F2000EFD0AFE993051006130504C4EFD0CFEA34
:103F3000F3A90930B250225492540259F249624A0C
:103F4000D24A424BB24B224C45618280998F1CC4AD
:103F5000DC40E38427F30329090031BF011122CC9F
:103F60004EC606CE26CA4AC8AA89214473340430F4
:103F7000B75400801385842D2188EFF07FA40DEDC8
:103F800037590080B755008037550080938585C527
:103F90009306E004130609C4130545B7EFD0EFE11B
:103FA00037550080130505C7EFD02FE19305E004D6
:103FB000130509C4EFD04FE21385842DEFF01FA441
:103FC00083A70900295989C74E85EFF03FD40149DD
:103FD0001385842DEFF07FA00DEDB7540080B75509
:103FE000008037550080938585C893061006138698
:103FF00004C4130545B7EFD04FDC375500801305D7
:1040000005CAEFD08FDB93051006138504C4EFD0EB
:10401000AFDC73240430F24062444A85D244424902
:10402000B24905618280411122C406C626C24AC037
:10403000214473340430B75400801385842D2188C3
:10404000EFF01F980DED37590080B75500803755B8
:104050000080938585C59306E004130609C4130503
:1040600045B7EFD08FD537550080130505C7EFD082
:10407000CFD49305E004130509C4EFD0EFD5138521
:10408000842DEFF0BF97EFF01FCB2A891385842D85
:10409000EFF0BF940DEDB7540080B7550080375551
:1040A0000080938585C893061006138604C4130503
:1040B00045B7EFD08FD037550080130505CAEFD034
:1040C000CFCF93051006138504C4EFD0EFD073242F
:1040D0000430B24022444A85924402494101828020
:1040E000011122CC4AC852C406CE26CA4EC62A891D
:1040F0002E8A214473340430B75400801385842DF4
:104100002188EFF0FF8B0DEDB7590080B755008087
:1041100037550080938585C59306E004138609C44E
:10412000130545B7EFD06FC937550080130505C794
:10413000EFD0AFC89305E004138509C4EFD0CFC911
:104140001385842DEFF09F8BEFF0FFBE6359A9001C
:10415000854763D6A700D2854A85EFD0EFE813855F
:10416000842DEFF09F870DEDB7540080B755008088
:1041700037550080938585C893061006138604C4BE
:10418000130545B7EFD06FC337550080130505CA37
:10419000EFD0AFC293051006138504C4EFD0CFC390
:1041A00073240430F2406244D2444249B249224A64
:1041B00005618280797122D452CC06D626D24AD0AB
:1041C0004ECE56CA5AC85EC662C466C26AC02A8A41
:1041D0002144EFE0FFE773340430375900801305C2
:1041E000892D2188EFF0CFFD0DEDB7540080B75534
:1041F000008037550080938585C59306E0041386BB
:1042000004C4130545B7EFD04FBB375500801305E5
:1042100005C7EFD08FBA9305E004138504C4EFD02F
:10422000AFBBB75900801305892DEFF02FFDB754B0
:10423000008023AA492D375A00809389492D130AFB
:104240004A1D93840429B75A0080B75B0080375B0E
:104250000080375C0080B75C0080032D0A0083A7D4
:1042600009009440C840630B4D0163090D0003270A
:104270008D0063D6E7081D8F2324ED00BE9613D76B
:10428000F7412A97B3B7F600BA9794C0DCC023A0D1
:104290000900EFF05FAA8145EFD00FD51305892DF6
:1042A000EFF0AFF30DEDB7540080B75500803755F0
:1042B0000080938585C893061006138604C41305F1
:1042C00045B7EFD08FAF37550080130505CAEFD043
:1042D000CFAE93051006138504C4EFD0EFAF73245F
:1042E0000430B250225492540259F249624AD24ADE
:1042F000424BB24B224C924C024D45618280BA96A1
:104300009355F741AA9533B6E6002E96998F6A85A4
:1043100023240D0094C0D0C023A0F900EFF01F9F0C
:104320001305892DEFF06FEB0DE593858BC8930690
:10433000100613860AC413054BB7EFD00FA8130558
:104340000CCAEFD08FA79305100613850AC4EFD0CF
:10435000AFA8732404308327CD006A852144829757
:10436000733404301305892D2188EFF06FE51DE5C6
:1043700093858CC59306E00413860AC413054BB7D6
:10438000EFD0AFA337550080130505C7EFD0EFA2DC
:104390009305E00413850AC4EFD00FA41305892DFB
:0843A000EFF0CFE55DBD828066
:1043A80000000000F40C008000000000F40C008005
:1043B80000000000F40C008000000000F40C0080F5
:1043C80000000000F40C008000000000F40C0080E5
:1043D80000000000F40C008000000000B616008009
:1043E80000000000F40C008000000000F40C0080C5
:1043F80000000000F40C008000000000F40C0080B5
:1044080000000000F40C008000000000F40C0080A4
:1044180000000000F40C008000000000F40C008094
:1044280000000000F40C008000000000F40C008084
:1044380000000000F40C008000000000F40C008074
:1044480000000000F40C008000000000F40C008064
:1044580000000000F40C008000000000F40C008054
:1044680000000000F40C008000000000F40C008044
:1044780000000000F40C008000000000F40C008034
:1044880000000000F40C008000000000F40C008024
:1044980000000000F40C008000000000F40C008014
:1044A80000000000F40C008000000000F40C008004
:1044B80000000000F40C008000000000F40C0080F4
:1044C80000000000F40C008000000000F40C0080E4
:1044D80000000000F40C008000000000F40C0080D4
:1044E80000000000F40C008000000000F40C0080C4
:1044F800E84700807E16008000000000344C0080F1
:10450800B6170080000000002C4C0080321D00808F
:1045180000000000E8470080A41F008000000000A1
:0C452800E8470080D8230080000000005D
:104534000001020203030303040404040404040446
:104544000505050505050505050505050505050517
:1045540006060606060606060606060606060606F7
:1045640006060606060606060606060606060606E7
:1045740007070707070707070707070707070707C7
:1045840007070707070707070707070707070707B7
:1045940007070707070707070707070707070707A7
:1045A4000707070707070707070707070707070797
:1045B4000808080808080808080808080808080877
:1045C4000808080808080808080808080808080867
:1045D4000808080808080808080808080808080857
:1045E4000808080808080808080808080808080847
:1045F4000808080808080808080808080808080837
:104604000808080808080808080808080808080826
:104614000808080808080808080808080808080816
:104624000808080808080808080808080808080806
:104634006D73675F7265636569766572000000007B
:104644006B5F6D626F785F67657428706D626F78F9
:104654002C20266D6D73672C207278646174612C34
:10466400204B5F464F524556455229203D3D203050
:104674002069732066616C7365000000746573744F
:104684005F6D73675F7265636569766572000000CC
:104694006D73675F72656365697665725F756E6C6D
:1046A400696D697465640000746573745F6D626F2D
:1046B400780000006B5F6D626F785F6765742870C7
:1046C4006D626F782C20266D6D73672C2072786470
:1046D4006174612C204B5F4E4F5F57414954292030
:1046E4003D3D203020697320747275650000000020
:1046F4006B5F6D626F785F67657428706D626F7849
:104704002C20266D6D73672C207278646174612C83
:104714002074696D656F757429203D3D20302069D2
:10472400732066616C73650053656E646572205511
:104734004E4C494D495445440A0000002E2F7465DF
:104744007374732F6B65726E656C2F6D626F782F47
:104754006D626F785F75736167652F7372632F6D18
:1047640061696E2E630000000A20202020417373CB
:10477400657274696F6E206661696C65642061742A
:104784002025733A25643A2025733A2025730A00BC
:10479400320C0080A20C0080A20C0080260C008049
:1047A400320C00808E0C0080980C00803C48008005
:1047B4005C480080784800808C48008098480080DD
:1047C400B0480080756E6B6E6F776E0045786365D8
:1047D4007074696F6E20636175736520257320287A
:1047E4002564290A00000000ADBAADDEADBAADDE25
:1047F400ADBAADDEADBAADDEADBAADDEADBAADDEED
:10480400ADBAADDEADBAADDEADBAADDEADBAADDEDC
:10481400ADBAADDEADBAADDEADBAADDEADBAADDECC
:10482400ADBAADDEADBAADDEADBAADDEADBAADDEBC
:10483400ADBAADDEADBAADDE496E73747275637434
:10484400696F6E2061646472657373206D6973614E
:104854006C69676E65640000496E73747275637485
:10486400696F6E20416363657373206661756C7450
:1048740000000000496C6C6567616C20696E73749C
:1048840072756374696F6E00427265616B706F69F3
:104894006E7400004C6F61642061646472657373AC
:1048A400206D6973616C69676E6564004C6F616447
:1048B40020616363657373206661756C7400000026
:1048C4002A2A2A2A204B65726E656C20416C6C6F13
:1048D400636174696F6E204661696C75726521202D
:1048E4002A2A2A2A0A0000002A2A2A2A2A204B6570
:1048F400726E656C204F4F505321202A2A2A2A2A8F
:104904000A0000002A2A2A2A2A204B65726E656C46
:104914002050616E696321202A2A2A2A2A0A00006B
:104924002A2A2A2A20556E6B6E6F776E2046617490
:10493400616C204572726F7220256421202A2A2A14
:104944002A0A000043757272656E74207468726579
:104954006164204944203D2025700A4661756C74C9
:10496400696E6720696E737472756374696F6E2003
:1049740061646472657373203D20307825780A2061
:104984002072613A2030782578202067703A2030F0
:10499400782578202074703A203078257820207487
:1049A400303A20307825780A202074313A20307843
:1049B4002578202074323A203078257820207433EA
:1049C4003A2030782578202074343A2030782578BD
:1049D4000A202074353A2030782578202074363A1D
:1049E4002030782578202061303A203078257820CE
:1049F4002061313A20307825780A202061323A202B
:104A040030782578202061333A20307825782020AA
:104A140061343A2030782578202061353A20307886
:104A240025780A202061363A2030782578202061C4
:104A3400373A20307825780A0000000049535200A4
:104A4400657373656E7469616C2074687265616402
:104A540000000000466174616C206661756C74200E
:104A6400696E20257321205370696E6E696E672EFE
:104A74002E2E0A00466174616C206661756C742088
:104A8400696E20746872656164202570212041621A
:104A94006F7274696E672E0A00000000537075729D
:104AA400696F757320696E746572727570742064B1
:104AB4006574656374656421204952513A20256404
:104AC4000A0000002E2F617263682F726973637687
:104AD40033322F636F72652F7468726561642E635D
:104AE40000000000282828287072696F72697479A0
:104AF4002929203D3D203135202626207A5F6973FF
:104B04005F69646C655F74687265616428287468A1
:104B1400726561645F66756E63292929207C7C2037
:104B24002828283135202D203129203E3D202828D1
:104B34002D31362929292026262028287072696FCC
:104B4400726974792929203E3D2028282D3136297F
:104B5400292026262028287072696F7269747929A1
:104B640029203C3D20283135202D203129292900B8
:104B7400415353455254494F4E204641494C205BC2
:104B840025735D20402025733A25640A0000000047
:104B940009696E76616C6964207072696F726974F8
:104BA4007920282564293B20616C6C6F776564202B
:104BB40072616E67653A20256420746F2025640A4B
:104BC400000000002E2F6C69622F6F732F6D656DCE
:104BD400706F6F6C2E630000626C6F636B5F66694D
:104BE400747328702C20626C6F636B2C206C737A46
:104BF40029000000090A0000096F7574206F6620FF
:104C04006C6576656C730A002E2F6C69622F6F7366
:104C14002F6173736572742E630000004020257346
:104C24003A25643A0A00000075617274300000008D
:104C34007379735F636C6F636B0000002E2F696E72
:104C4400636C7564652F7370696E6C6F636B2E682B
:104C5400000000007A5F7370696E5F6C6F636B5F56
:104C640076616C6964286C29000000000952656350
:104C7400757273697665207370696E6C6F636B0A05
:104C8400000000007A5F7370696E5F756E6C6F630D
:104C94006B5F76616C6964286C290000094E6F743F
:104CA400206D79207370696E6C6F636B210A00004C
:104CB400EC4C0080F44C0080704D00804641494C1F
:104CC4004544000050524F4A4543542045584543FB
:104CD4005554494F4E2025730A0000005355434351
:104CE40045535346554C00005041535300000000B7
:104CF4004641494C0000000052756E6E696E672093
:104D0400746573742073756974652025730A0000D3
:104D14003D3D3D3D3D3D3D3D3D3D3D3D3D3D3D3DBF
:104D24003D3D3D3D3D3D3D3D3D3D3D3D3D3D3D3DAF
:104D34003D3D3D3D3D3D3D3D3D3D3D3D3D3D3D3D9F
:104D44003D3D3D3D3D3D3D3D3D3D3D3D3D3D3D3D8F
:104D54003D3D3D0A000000007374617274696E6722
:104D64002074657374202D2025730A00534B495019
:104D7400000000002573202D2025730A0000000088
:104D84005465737420737569746520257320666196
:104D9400696C65642E0A0000546573742073756928
:104DA4007465202573207375636365656465640A9F
:104DB400000000002E1D00801A1D0080000000006D
:104DC4000000000000000000E45100801452008044
:104DD4002052008020520080205200802A2A2A2A51
:104DE4002A20426F6F74696E67205A657068797201
:104DF400204F53207A65706879722D76312E3133C5
:104E04002E302D333032312D676133613064336697
:104E14006130653437202A2A2A2A2A0A0000000031
:104E24006D61696E0000000069646C65000000003B
:104E34002E2F6B65726E656C2F6D656D706F6F6C68
:104E44002E6300002128285F6B65726E656C2E6EE0
:104E5400657374656420213D203055292026262061
:104E640074696D656F757420213D20302900000040
:104E74002E2F6B65726E656C2F696E636C7564653D
:104E84002F6B73636865642E6800000021285F6BD4
:104E940065726E656C2E6E657374656420213D20A9
:104EA400305529005F6B65726E656C2E6375727286
:104EB400656E742D3E626173652E73636865645F0D
:104EC4006C6F636B656420213D2031005F6B6572FC
:104ED4006E656C2E63757272656E742D3E626173BD
:104EE400652E73636865645F6C6F636B6564202112
:104EF4003D2030002E2F6B65726E656C2F736368D6
:104F040065642E63000000007468726561642D3E60
:104F1400626173652E70656E6465645F6F6E000018
:104F24005F6B65726E656C2E63757272656E74204C
:104F3400213D202828766F6964202A293029000021
:104F4400746872656164203D3D205F6B65726E65B7
:104F54006C2E63757272656E74207C7C2069735F3D
:104F64007468726561645F64756D6D7928746872C4
:104F740065616429000000002169735F69646C65E0
:104F84002874687265616429000000002E2F6B6527
:104F9400726E656C2F73656D2E6300006C696D69AC
:104FA4007420213D20305500096C696D69742063BB
:104FB400616E6E6F74206265207A65726F0A0000FC
:104FC400696E697469616C5F636F756E74203C3DD2
:104FD400206C696D6974000009636F756E742063D9
:104FE400616E6E6F742062652067726561746572AC
:104FF400207468616E206C696D69740A0000000099
:105004002828285F6B65726E656C2E6E65737465F7
:105014006420213D20305529203D3D203029207C2D
:105024007C202874696D656F7574203D3D2030299E
:10503400290000002E2F6B65726E656C2F737461EE
:10504400636B2E63000000007A5F77616974715F9F
:10505400686561642826737461636B2D3E776169AA
:10506400745F7129203D3D202828766F6964202AC9
:1050740029302900737461636B2D3E6E657874204A
:10508400213D20737461636B2D3E746F70000000CA
:1050940009737461636B2069732066756C6C0A0014
:1050A4002E2F6B65726E656C2F7468726561642E49
:1050B400630000000954687265616473206D61794E
:1050C400206E6F742062652063726561746564206C
:1050D400696E20495352730A000000002E2F6B653D
:1050E400726E656C2F7468726561645F61626F7261
:1050F400742E6300287468726561642D3E62617366
:10510400652E757365725F6F7074696F6E73202698
:1051140020282831554C203C3C2028302929292995
:10512400203D3D203055000009657373656E746938
:10513400616C207468726561642061626F72746569
:10514400640A00002E2F6B65726E656C2F74696D96
:10515400656F75742E630000217379735F646E6FDD
:1051640064655F69735F6C696E6B65642826746F30
:105174002D3E6E6F64652900742D3E647469636B03
:0851840073203E3D20300000C5
:10518C0080460080840A00800E0900800E09008091
:10519C000000000094460080DA0900800E090080AF
:1051AC000E0900800000000000000000000000005C
:1051BC0000000000000000000000000084110080CE
:1051CC00D81A008003000000D4510080D451008014
:0851DC00F5FFFFFFA454008061
:1051E4001C450080000000000000000028450080ED
:1051F400000000000000000010450080B84D008051
:1052040000000000F84400800000000000000000DE
:0C521400044500800000000000000000C5
:10522000E052008040000000010002006053008056
:10523000010000000000000000000000205300807A
:1052400040000000010002007853008001000000CF
:08525000000000000000000056
:1052580058520080585200800000000000000000F2
:045268000F00000033
:10526C006C5200806C52008000000000B06700801F
:0C527C00B0670080D867008000000000D0
:040000058000000077
:00000001FF
