:0200000480007A
:100000009702000093824201739052306F00900F6C
:020010000000EE
:02001200FFFFEE
:100014005D7106C00EC212C416C61AC81ECA72CCBE
:1000240076CE7AD07ED22AD42ED632D836DA3ADCBC
:100034003EDEC2C0C6C2F322103496C4F32200309E
:1000440096C6EF00E01B1303000021E1F3222034E5
:10005400B70300809383F3FFB3F272002D43638AE6
:10006400620013050100970000009380E0126F0006
:10007400F060A642910296C4975200009382C27225
:1000840003A302006313030041A0930201009763DA
:1000940000009383A3A503A14300411116C003AE3E
:1000A4000300050E23A0C3016308030097000000AA
:1000B400938080036F00F06273252034B7020080C0
:1000C4009382F2FF33755500EF00801297420000CF
:1000D400938202690E05AA9203A5020003A34200BB
:1000E400E700030017630000130343A08323030006
:1000F400FD132320730082421381020083238300B3
:10010400032E030263087E08976200009382029E16
:1001140003A382002326830223289302232A230392
:10012400232C3303232E4303232053052322630567
:10013400232473052326830523289305232AA30553
:10014400232CB30523242302975300009383435A9B
:1001540003AE03002326C30703A3020223A4620001
:10016400032183020324C3028324030303294303D7
:1001740083298303032AC303832A0304032B43042D
:10018400832B8304032CC304832C0305032D430511
:10019400832D8305A64273901234B64273900230C5
:1001A400824092412242B2424243D243624EF24ED4
:1001B400025F925F2255B2554256D2566257F257A9
:1001C4000648964861617300203000007300000007
:1001D400976200009382829103A382008323C30663
:1001E4002189F32205301385030067800000000095
:1001F4000543B312A30073B34234678000000000C8
:10020400F322203437030080B3F2620013050000A8
:0A0214006383020005056780000007
:02021E00FFFFE0
:100220006300060293070002B387C740634CF000E7
:10023000130506FE1307000033D5A500930507003C
:100240006780000033D7C5003355C500B395F5006E
:100250003365B5006FF09FFE130101FD232291026B
:100260002328610123261102232481022320210354
:10027000232E3101232C4101232A51012326710110
:100280002324810123229101130B0500938405008F
:10029000639C063813040600930905001749000003
:1002A0001309496463F8C512B7070100938A050072
:1002B0006378F6109306F00FB3B6C6009396360037
:1002C000B357D6003309F90003470900B306D70036
:1002D000130700023307D740630C0700B394E40010
:1002E000B356DB003314E600B3EA9600B319EB0013
:1002F000135B040193050B0013850A00EF00405ABD
:100300001309050093050B00931B040113850A00D4
:10031000EF00805493DB0B01930405009305050067
:1003200013850B00EF0080501319090113D7090141
:100330003367E900138A0400637EA7003307870050
:10034000138AF4FF636887006376A700138AE4FFCB
:1003500033078700B304A74093050B0013850400FF
:10036000EF0000541309050093050B0013850400EA
:10037000EF00804E93990901930405009305050051
:100380001319090113850B0093D90901EF00004AE5
:10039000B36939011386040063FCA900B309340171
:1003A0001386F4FF63E6890063F4A9001386E4FF73
:1003B00093170A01B3E7C700130A00006F00001388
:1003C000B707000193060001E36CF6EE9306800187
:1003D0006FF01FEF138A0600631A060093050000F2
:1003E00013051000EF00404713040500B707010094
:1003F000637CF4129307F00F63F48700130A800004
:10040000B35744013309F90083460900130600027B
:10041000B38646013306D64063120612B384844085
:10042000130A1000135B040193050B0013850400ED
:10043000EF0000471309050093050B001385040026
:10044000931B0401EF00404193DB0B019304050073
:100450009305050013850B00EF00403D13190901BA
:1004600013D709013367E900938A0400637EA7006C
:1004700033078700938AF4FF636887006376A700D9
:10048000938AE4FF33078700B304A74093050B006A
:1004900013850400EF00C0401309050093050B000D
:1004A00013850400EF00403B939909019304050074
:1004B000930505001319090113850B0093D9090150
:1004C000EF00C036B36939011386040063FCA9004C
:1004D000B30934011386F4FF63E6890063F4A900CD
:1004E0001386E4FF93970A01B3E7C700138507005B
:1004F00093050A008320C102032481028324410260
:10050000032901028329C101032A8101832A4101B0
:10051000032B0101832BC100032C8100832C41009C
:100520001301010367800000B7070001130A0001EF
:10053000E368F4EC130A80016FF09FEC3314C400FD
:1005400033DAD400B319CB00B356DB00135B0401DC
:10055000B394C40093050B0013050A00B3EA960098
:10056000EF0000341309050093050B0013050A0082
:10057000931B0401EF00402E93DB0B019304050055
:100580009305050013850B00EF00402A131909019C
:1005900013D70A013367E900138A0400637EA700BA
:1005A00033078700138AF4FF636887006376A70028
:1005B000138AE4FF33078700B304A74093050B00B9
:1005C00013850400EF00C02D1309050093050B00EF
:1005D00013850400EF0040289304050093050500EF
:1005E00013850B00EF00802493960A01131909016B
:1005F00093D60601B367D9001387040063FEA700F2
:10060000B38787001387F4FF63E8870063F6A700CA
:100610001387E4FFB3878700131A0A01B384A74046
:10062000336AEA006FF01FE063ECD51EB7070100E4
:1006300063F4F6049305F00F33B5D50013153500B8
:1006400033D7A600974700009387C729B387E700F1
:1006500083C50700130A0002B385A500330ABA4018
:1006600063160A0293071000E3E296E83336CB00E4
:10067000934716006FF09FE7B707000113050001CD
:10068000E3E0F6FC130580016FF09FFBB35AB60060
:10069000B3964601B3EADA0033D9B400B397440104
:1006A000B355BB0093DB0A01B3E4F5001305090061
:1006B00093850B00B3194601EF00801E130405005B
:1006C00093850B0013050900139C0A01EF00C01865
:1006D000135C0C01130905009305050013050C00BC
:1006E000EF00C0141314040113D704013367E400AE
:1006F000930C0900637EA70033075701930CF9FFA1
:10070000636857016376A700930CE9FF330757012D
:100710003309A74093850B0013050900EF0040182B
:100720001304050093850B0013050900EF00C012A8
:10073000130905009305050013050C00EF00000FD9
:10074000939704011314040193D707013367F4004E
:1007500013060900637EA700330757011306F9FF4C
:10076000636857016376A7001306E9FF3307570153
:1007700093970C01370E0100B3E7C7001308FEFF83
:1007800033F3070133F809013307A74093DE07016C
:1007900093D909011305030093050800EF00000930
:1007A000930805009385090013050300EF00000876
:1007B000130305009305080013850E00EF000007E2
:1007C000130805009385090013850E00EF0000064D
:1007D00093D6080133030301B386660063F4060170
:1007E0003305C50113D606013305A6006366A702CB
:1007F000E314A7BC370701001307F7FFB3F6E600C1
:1008000093960601B3F8E80033164B01B386160140
:10081000130A0000E37CD6CC9387F7FF6FF0DFB9B3
:10082000130A0000930700006FF05FCC1306050069
:100830001305000093F61500638406003305C50018
:1008400093D5150013161600E39605FE6780000089
:100850006340050663C6050613860500930505007B
:100860001305F0FF630C060293061000637AB600CE
:100870006358C0001316160093961600E36AB6FE7E
:100880001305000063E6C500B385C5403365D50098
:1008900093D6160013561600E39606FE67800000F6
:1008A00093820000EFF05FFB138505006780020074
:1008B0003305A04063D80500B305B0406FF0DFF901
:1008C000B305B04093820000EFF01FF93305A0405C
:1008D000678002009382000063CA0500634C050034
:1008E000EFF09FF71385050067800200B305B04065
:1008F000E35805FE3305A040EFF01FF63305B04086
:1009000067800200176100001301C1C1B712000027
:10091000938202801691092D6F00B04500008280FD
:100920006F1000656F10C064411106C6EF205020A3
:10093000EF201020EF20D01FEF20901FEF20501F3E
:10094000EF20101FB7570080B240938787723CD5C5
:10095000B75500803755008093850564130545A879
:1009600041016F104063411122C4375400801304C9
:10097000C46C26C24AC006C62A89930404010C40EE
:100980004A851104EF209051E31B94FEB2402244AB
:100990009244024941018280F9B7797106CE22CC96
:1009A00042D446D60DED368637550080BA862E875E
:1009B000B75500803E849385C5B53C10130585B9B5
:1009C0003EC6EF00D07FB2452285EF00907D3755BF
:1009D0000080130545DDEF00907EEF100057F240D8
:1009E000624445618280397122DC375400801304EF
:1009F000C46C26DA4AD84ED652D456D25AD05ECEDD
:100A000006DEAA8B130A04FF37590080B75900800D
:100A1000B7540080375B0080B75A008001466C00F5
:100A20005E85EF20F05A938749CD130709A99306F5
:100A300040021386C4B593058BB013351500B13F42
:100A40004844B247130709A9930650021D8D138627
:100A5000C4B5938749CD9385CAB313351500711476
:100A60002D3FE31D44FBF2506254D2544259B25917
:100A7000225A925A025BF24B21618280411106C6D2
:100A800022C426C237640080AA84B13F1305048FB4
:100A9000EF20B0142685C13D1305048F2244B240D7
:100AA000924441016F2070133DBF411122C42A843A
:100AB00037650080054681451305058F06C6EF2082
:100AC000D00737150080A285130585992D29228529
:100AD000193F2285493DA2852244B2403715008046
:100AE000130585AA410105A1011126CAB76400803A
:100AF00022CC05462A8481451385048F06CE4AC838
:100B0000EF20B003B147B7160080B76500803765A6
:100B100000802287814801489386C6A713060020DB
:100B20003EC0938505B2814702C21305C591EF30DF
:100B3000A0002A892285053DFD551385048FEF20ED
:100B40007014FD551385048FEF20D0132285613D6D
:100B50006244F240D2444A85424905616F30400FF9
:100B6000411122C4B75500803764008013050490FA
:100B700011469385C56C06C6EF20F0271305049037
:100B8000A5372244B24037550080130585754101D1
:100B9000A1BF411122C4B7550080376400801305FE
:100BA000049011469385C56C06C6EF20D02413052A
:100BB0000490E53D2244B240375500801305857509
:100BC0004101E5B5011122CC375400809145130550
:100BD000447706CE26CA4AC8B7640080EF20F022C8
:100BE0001385048F05468145EF202075B7160080D8
:100BF000B765008037650080130744778147938687
:100C0000C6A71306002081480148938505B202C299
:100C100002C01305C591EF2030722A89130544776D
:100C20009933FD551385048FEF20D005FD551385AD
:100C3000048FEF2030051305447775334A85EF3074
:100C4000200113054477EF20301F93051010130582
:100C50004477EF20901B6244F240D2444249310570
:100C6000B75700803757008037560080B75500804F
:100C70009387C7AB1307C7A99306700A1306C6B5B7
:100C80009385C5AE13351500056101BB797106CE9C
:100C900042D446D631E136862E87B7560080B75506
:100CA0000080375500803C10938606BC938585C430
:100CB000130585B93EC6EF009050B2453755008008
:100CC000130545CDEF00F04D37550080130545DD88
:100CD000EF00F04EEF106027F2404561828079719D
:100CE00022D4B7550080376400801305049009466C
:100CF0009385057A06D626D24AD04ECEEF20B00F85
:100D00006C00014613050490EF20902C37590080A9
:100D1000B7590080B75400804105B75500809387CC
:100D200049CD130709BCD546138684C4938505BDF8
:100D300013351500A13F6C001306400613050490FF
:100D4000EF2010292D05B7550080938749CD130753
:100D500009BC138684C4DD469385C5C013351500D0
:100D60003537B250225492540259F249456182807B
:100D7000411106C622C499476302F502EF20B03A3A
:100D80000DC1EF20503A21E1B7550080938505F35E
:100D900037550080130545F4EF007042EF00904690
:100DA000F5BFEF20303971FD376400801304C4AE05
:100DB0000C4437550080130545F6EF0050400844B9
:100DC000EF201069E1BFB75500809385C5F2C9B720
:100DD0005D71A2C4A6C286C69947AA842E8463E91F
:100DE000A7083757008093172500130707C8BA973D
:100DF0009C43828737550080130505DBEF00303CAC
:100E0000EF2000537C40832804010328C4003ED80F
:100E10003C40584014403ED65C5C3044AA853ED4E9
:100E20001C5C37550080130545E33ED25C583ED02C
:100E30001C583ECE5C543ECC1C543ECA5C503EC84E
:100E40001C503EC65C4C3EC41C4C3EC25C483EC07E
:100E50001C44EF00D036A2852685193F3755008007
:100E6000130585DD61BF37550080130545DF79B770
:100E700037550080A685130505E1EF00503449B7CA
:100E8000411122C406C62A84732620340606058230
:100E9000954763E3C702375700809317260013076F
:100EA000C7C9BA978C43375500801305C5CBEF00EF
:100EB0001031A2850145293FB7550080938545CB68
:100EC000DDB7411106C6F32520343755008086056D
:100ED00085811305C5F8EF00902EB75500809385E6
:100EE00085CD1145F535B75700809387877A9843AC
:100EF00011CB03A3070023A00700B757008003A569
:100F0000C77A02838280A147F3B707303757008042
:100F10002324A77A375700802326B77A730000006E
:100F2000A18BF3A707308280411106C6EF10802FF6
:100F3000EF00D02EEF102034797122D426D24AD07F
:100F40004ECE52CC56CA5AC85EC63E8B06D662C436
:100F5000BD47AA842E84B289368ABA8BC28A468952
:100F60006394F806B72700809387E71F6393F6061C
:100F7000C256CA8526851146EF20B023938509FB0A
:100F8000A295896723AE040423A00406C199938720
:100F90000788FCC5B7170080B25022549387879109
:100FA00023A4450323A6750323A8650323AA550399
:100FB000BCC58CD402599254F249624AD24A424B7F
:100FC000B24B224C4561828093860801F947E3F1D8
:100FD000D7FA375C0080B75500803755008013067C
:100FE0004CFBE146938545FD13050506EF00301DDA
:100FF00037550080CA85C156394613050508EF00EC
:10100000101CE14513054CFBEF00501D95B793975D
:101010001500AE97139727005C45BA970307B500F4
:101020006353B7009C431357F6417D8B3297158766
:101030000A07BA979CC21375F601828001117400E9
:1010400006CEF137324785473395A7001C43F2405F
:10105000C98F1CC3056182800111740006CE453F13
:10106000324785473395A7001C43F2401345F5FFEF
:101070007D8D08C305618280011126CA444122CCBE
:101080002A8403558500A6854AC84EC652C456C256
:101090005AC006CEEFF08FF983290400834AA400DA
:1010A000FD572A8AAA99A305F40001497D4B6341A3
:1010B000590381448357840063CFF404F2406244AF
:1010C000D2444249B249224A924A024B0561828087
:1010D000A6855285EFF04FF8131719004A9793171A
:1010E000270058443E97930747005CC31CC76349D9
:1010F000AB00A305240189808D04F198050945BF43
:101100007D059357F541FD8BAA9795878A07232084
:101110003701BE99CDB74C402685EFF02FF11C402A
:10112000268681453E955C4485041387470018C197
:10113000984758C1984708C388C7228501379DBF83
:101140001D71A2CCD6C286CEA6CACAC8CEC6D2C48B
:10115000DAC05EDE62DC66DA6AD86ED68010034ED4
:10116000A500814893172E00BD0793F7077F330131
:10117000F1405C418A8A56838D07F19B23A0FA00D7
:10118000138BF8FF63D2C803638B08000328C3FFE7
:10119000135828000D081378C8FF232003011103FA
:1011A0000328C3FF6379B802FD556318BB022320EF
:1011B00007005155130104FAF6406644D6444649E7
:1011C000B649264A964A064BF25B625CD25C425DA7
:1011D000B25D25618280850865B7834505010149B7
:1011E000858991C521497339093013798900232AEA
:1011F000E4FA13171B00232CD4FA5A9754450A0714
:1012000011073697232EC4FAAA845A8AFD568329D9
:1012100007006308371313172A0083A64900B38C0D
:10122000EA0003A7090083A50C00214D98C254C30E
:1012300023A0090023A2090088403385A940EFF0CC
:101240002FE12A86D2852685013D050A9306FAFFFD
:1012500063C2660503C70401058B19C373290930EE
:10126000832744FB515523A03701E38509F48327E5
:10127000C4FB884023A0670193172B00BE9A83A567
:101280000A003385A940EFF0AFDC832784FB88C3D5
:1012900001450DB7884083A50C00854B3385A940D7
:1012A000EFF00FDB93181A00D298931D25008A08DF
:1012B00083A64C00DE85232614FB36852328D4FA2A
:1012C000EFF0CFD6338CA9003386BB01D2852685BB
:1012D000B533832604FB9040CC40FD1603D5840033
:1012E000E296918E2328D4FAEFF04FD4832604FBA4
:1012F0008328C4FA63F0A602D444C6961386460037
:101300002320CC0090462322CC0090462320860147
:1013100023A48601850B9147E39CFBF883C6040157
:10132000858A89E60149050A910C0DB773290930B0
:1013300083C60401858AFDD673390D30137989007F
:10134000DDB77D1A138749FFE313DAEC814919B73A
:101350001D71A2CCD2C466DA86CEA6CACAC8CEC6D1
:10136000D6C2DAC05EDE62DC6AD86ED68010034771
:10137000A500AA8C0A073D071377077F3301E140D8
:1013800058410A8AD2860D07719B2320EA00054541
:10139000910663F3A50803C70C012E89B289058B5A
:1013A000814409C7A144F3B40430A188375B0080AD
:1013B000635C0906B7540080B7550080375500803C
:1013C0001386440B9306000C9385C511130505067F
:1013D000FD23375500801305850ED5231385440B57
:1013E0009305000CE52BFD5483C70C01858B81C749
:1013F000A188F3A40430130104FAF6406644D644ED
:101400004649B649264A964A064BF25B625CD25C74
:10141000425DB25D2561828003A7C6FF0505098391
:101420000D07719B98C2ADB7131729005297832AF5
:10143000070003AC0C004E85D685EFF02FBF938BD1
:10144000FAFF330D75012A9C83A54C0003D58C004F
:10145000EFF0CFBD6369AD02B75700809385870C6D
:10146000B7570080138507069306400A13064B0BF7
:10147000B923B75700801385470E91239305400A7F
:1014800013054B0BA12B4E86CA856685453E131767
:1014900019004A979316270003A7CC0036979306A6
:1014A00047002320DC0014472322DC00144723A03C
:1014B00086012324870103C70C01058B45E3814482
:1014C000E30409F29306C4FB4E86CA85668581361D
:1014D0008326C4FB1357F5410D8B2A978842719BD5
:1014E000BD473357E5003D8BE310F7F0014D93FD09
:1014F000C9FF3386AD013285D6852324C4FAEFF0C7
:10150000EFB2330775012A8C83A54C0003D58C00FC
:101510002326E4FAEFF08FB10327C4FA032684FAF6
:101520006372A702CA856685053E03A70C003A9C34
:1015300003264C0003270C0018C250C323200C00C4
:1015400023220C00050D9147E315FDFA13D6F9414E
:101550000D8AB2997D1993D9294099BDF3A404301D
:1015600003C70C01058B21DFA147F3B40730A18825
:1015700081BF4111AA872E85B285368606C682971D
:10158000EF10105BEF20C06C01458280411122C436
:101590002A841305500406C626C2AE840294A6858A
:1015A00013052005029422832244B240A68592446A
:1015B00013052005410102839C4185079CC1B75753
:1015C000008003A3C76D0283397122DC4ED652D44A
:1015D0005AD06AC806DE26DA4AD856D25ECE62CC27
:1015E00066CA6EC6AA892E8A328D368B054463532D
:1015F000E0003A848547930C00026314FB00930CCF
:101600000003B7D49A3B0549A94A014C9384F49F3F
:10161000894D938B140063140C0063F2A407DE85DC
:101620006A85EFF06FA3D28513050503829905093A
:10163000054CDE856A85EFF0AFA62A8DA945268583
:10164000EFF08FA1FD1A8547AA84E394FAFCD285B6
:1016500013050D0382998D4733042441630FFB0268
:10166000F2506254D2544259B259225A925A025BF1
:10167000F24B624CD24C424DB24D21618280E34A22
:1016800054FBE3E86DFBD28566858299050955B761
:10169000D2851305000282997D14E34B80FEC9B701
:1016A000B757008023AEA76C82805D71A2C4A6C22A
:1016B000CAC04EDE52DC56DA66D26AD06ECE86C61C
:1016C0005AD85ED662D42A84AE84B28A368D014A54
:1016D0007D598149814CB70D008003C50A0005E1A1
:1016E000B640264496440649F259625AD25A425BA1
:1016F000B25B225C925C025DF24D61618280639A12
:101700000C00930650026305D528A6850294850A2D
:10171000E9B793064006630BD50E63EBA604930668
:10172000900363E7A602930610036375D50C930636
:10173000D0026304D526930700036303F50A130759
:101740005002631FE500A68513055002029409AA02
:1017500093068005630BD514130730066303E52257
:10176000A685130550020294A68503C50A00F9BF99
:10177000930600076301D51263EFA6009306900657
:101780006306D5089306C0066300D5089306800655
:10179000E30FD5F6F1B7930650076305D50C63EA5E
:1017A000A60213073007E31DE5FA032C0D00130B07
:1017B0004D00E28B03C50B00631B051A8D47639830
:1017C000F900B38B8B41B30B79416346701B5A8D83
:1017D00041A893068007630AD50C9306A0074DBF66
:1017E000635C0900638D091A130905FDE39109F291
:1017F000894931BFE34A09FE931629003699060943
:10180000130909FD2A99DDB7050A11B763160A0203
:1018100003260D00110D635B0600A6851305D0029B
:1018200032C0029402467D193306C0404A87CE86F4
:10183000A6852285513B2DA00547E30BEAFC9307C3
:101840007D0013F787FF10435443130D87003307C0
:10185000B6013337C70036975DDFA68522853D3355
:10186000814C75B563160A0003260D00110D7DBF6E
:101870000547E30BEAFE93077D0013F787FF130D7F
:1018800087001043584371FBB707008093C7F7FFE9
:10189000E3FEC7F8D9B7A685130500030294A68511
:1018A00013058007029421498549854663C646078A
:1018B00083270D0002C4110D3EC2414C814B02C072
:1018C000C1481245A245138BF8FF13162B0046C6DC
:1018D000EFE01F953D8939ED82479306000389E7C4
:1018E000B24885476390F80636956205A6856185FE
:1018F0000294850B631D0B028D46814CE399D9E060
:1019000013171900B30B7741E35C70F5A685130537
:1019100000020294FD1BCDBF93077D0093F687FF65
:101920009C42138D86003EC2DC423EC479B766C03D
:10193000DA8841BFA54793067005E3E7A7FA930647
:1019400000035DB79307FCFF3EC6634989018547E5
:101950006398F900A685130500030294324CC9BFB1
:101960008947E39DF9FEA68513050002FDB7A6850C
:10197000850B029481B5A685130500020294FD1B18
:10198000A9B503250D00A685130B4D00029481B562
:10199000014A7D598149854C9DBB8D498DBB854947
:1019A000BDB301112A8637150080AE861305855B0D
:1019B0006C0006CE02C6D539F240056182803971CD
:1019C0002ED24C1006CE32D436D63AD83EDA42DC8D
:1019D00046DE2EC6F937F24021618280B75500807D
:1019E0003755008041119385850F1305C510794641
:1019F00006C6F137B7550080938585CD1945EFF0C0
:101A00002FBD8280A147F3A707307300501082805A
:101A100085473395A700732545308280A147F3B7EA
:101A2000073073504030735040348280411122C4DB
:101A300026C23754008006C6A947AA841304047B33
:101A40006317F5000840B5455C41DC4382970840C8
:101A500093F5F40F5C41DC438297B2402244268523
:101A6000924441018280411122C437240080130531
:101A7000C4A206C6B5211305C4A22244B240410146
:101A800005B13755008041111305851106C6EF00D9
:101A90002071B757008023A8A77AF137B2400145DB
:101AA00041018280B70710F003A747F403A507F4AC
:101AB00083A547F4E39AE5FE8280011122CC06CE8D
:101AC00026CA4AC84EC652C456C221447334043092
:101AD000375900801305497B2188EF10306F15E9D5
:101AE000B7540080B7550080375500809385451462
:101AF0009306E0041386C41213050506C93537554D
:101B000000801305C515653D9305E0041385C412D7
:101B1000F1351305497BB7540080EF10F06E9384C4
:101B20000479493783A9040083AA4400AA873305AE
:101B30003541B3B7A700B385554175661306064C0A
:101B400081469D8DEFE04FF12A8AF5659385054C1E
:101B50005285EFE0BFCDAA9933B5A9005695C8C00C
:101B60001305497B23A03401EF10F06715E9B75442
:101B70000080B75500803755008093854517930640
:101B800010061386C41213050506153D375500804F
:101B90001305C5182D35930510061385C4123D3D58
:101BA000732404306244F240D2444249B249924A1A
:101BB0005285224A05616F20A060411106C6DD35BD
:101BC000F5679387074C370710F0AA97FD56232631
:101BD000D7F433B5A7002E952324F7F42326A7F4D2
:101BE0001D453D35B2400145410182806395051494
:101BF000011106CE22CC26CA4AC84EC652C456C2CD
:101C00005AC0FD576315F50025651305E5BCA567AA
:101C10001304F5FF9387E7BC63DB87103E842149FB
:101C200073390930B75A008013854A7B13798900CC
:101C3000EF10D05915E9B7540080B75500803755DB
:101C40000080938545149306E0041386C41213059F
:101C50000506B533375500801305C5158D3393053B
:101C6000E0041385C4129D3B13854A7BEF10D059C5
:101C7000153DB757008093870779F56483A907005E
:101C80002A8A9385044C228503AB4700EFE01FBAF4
:101C90009387F44BB38737413E959385044C529517
:101CA000EFE09FBB9385044CEFE05FB8338A494176
:101CB0002A9A9307703E63C547019384044C269586
:101CC000B70710F0AA997D5723A6E7F433B5A9000A
:101CD0005A9523A437F523A6A7F413854A7BEF1062
:101CE000905015E937540080B75500803755008073
:101CF00093854517930610061306C41213050506AF
:101D00007D39375500801305C518553993051006E0
:101D10001305C412E13173290930F2406244D24400
:101D20004249B249224A924A024B05618280E358F5
:101D300004EE0144EDB58280411122C406C626C2DC
:101D40004AC0214473340430B75400801385447B67
:101D50002188EF10B04715E937590080B75500804A
:101D600037550080938545149306E0041306C91285
:101D700013050506A931375500801305C5158131B6
:101D80009305E0041305C91291391385447BEF10C4
:101D9000B047093BB757008083A70779F56593855E
:101DA000054C1D8DEFE05FAB2A891385447BEF1056
:101DB000904315E9B7540080B7550080375500802F
:101DC00093854517930610061386C412130505065E
:101DD000FD36375500801305C518D5369305100616
:101DE0001385C412E53E73240430B24022444A8570
:101DF00092440249410182808347050003C70500E0
:101E00006393E70081E73385E74082800505850518
:101E1000E5B7B347B5008D8B95CFAA870147631708
:101E2000E60482807DDE850503C7F5FF85077D1604
:101E3000A38FE7FE13F7370075F78D463308E640AA
:101E400063EC06011357260093162700158EB697EC
:101E5000B695E9B7AA87F9BFB388E50083A808005B
:101E60003388E700110723201801C9BF3388E50034
:101E700003480800B386E70005072380060145B73D
:101E800093F6F50FAA8713F737001DEB93F5F50FBF
:101E900013978500D98D13970501D98D3383C7001A
:101EA0003E870D48B308E3406362180313572600CA
:101EB00093152700AE970D8E3E96639DC7008280D6
:101EC0007DDE8507A38FD7FE7D1675BF1107232EF4
:101ED000B7FEC9BF8507A38FD7FEC5B77D558280E2
:101EE000B757008023A0A76E8280011122CC1C4529
:101EF0003754008026CA1304446EB754008006CEBF
:101F00004AC84EC69384847B8549232004002A89CD
:101F100023A034018297832749002320340182972C
:101F200089471CC08327C90082978D471CC0624423
:101F300023A00400F240D2444249B24937650080F0
:101F40001305C59805616F10404937650080411140
:101F5000B75700807D571305C59806C623ACE77AAE
:101F6000EF10A047EF10C03CB24041016F10504E3F
:101F7000376500804111B757008079571305C59820
:101F800006C623ACE77AEF104045EF10603AB24046
:101F900041016F10F04B1D71A6CAB754008083A792
:101FA000C47B86CEA2CCCAC8CEC6D2C4D6C2DAC042
:101FB0005EDE62DC66DA6AD86ED663C9070637640D
:101FC00000800546AA892E8C1305C4988145EF1020
:101FD000C03637550080CE851305851EEFF03F9E35
:101FE0003759008013050920B75A0080EFF03F9D54
:101FF0009384C47B014A22CEB76C0080376B00808B
:10200000372D0080B75D0080B75B0080938A0A1A85
:1020100083274C009DEBCE8563030A0C3755008067
:1020200013050527EFF0BF9985479CC0F64066442D
:10203000D6444649B649264A964A064BF25B625C4C
:10204000D25C425DB25D2561828083250C00B7576A
:10205000008013858724EFF09F9602C283270C012E
:1020600062871306004093E78700FD5801489306F6
:10207000ADEE3EC093850CD281471305CB99EF108E
:10208000B02BF247FD551385C798EF10A03F9387FB
:102090008D7B1305CB998043EF10903BB7570080A1
:1020A0009387877B98430504F9571334140003265C
:1020B0000C006311F702B75500809385C525138581
:1020C0004B26EFF0DF8F13050920EFF05F8F229A88
:1020D000510C3DBF93172400D6978C43CDB737558D
:1020E000008013058528EFF09F8D9C40B337F000EA
:1020F0002DBFB757008083A7C77B411122C4375536
:10210000008006C6375400801305052091CFEFF0FC
:102110001F8BB75500809385C51A1305441B2244B5
:10212000B24041016FF0BF89EFF07F89B755008061
:102130009385C51CDDB7411106C6EFE0EFFEB24046
:10214000410145BF411102C6B24785073EC6B707E8
:1021500001F08CC3410182807D55828001458280DF
:1021600013172500B757008005059387872B0A05AD
:1021700041113E97AA9722C426C20043844306C653
:1021800063679400B24022449244410182801C4023
:102190002285DC43829719C1232204003104CDB784
:1021A0004111B757008026C2B754008022C406C62A
:1021B0001384876F4AC09387876F938484726318F0
:1021C00094002A893E84631C9400014415A0584061
:1021D00009C718401843630DA7003104CDB75C4010
:1021E00099E33104CDB71C404A858C43313175F9F0
:1021F0002285B24022449244024941018280411129
:1022000022C426C206C621448944F3370430EF10A5
:10221000506263C3A40005458545EF10306DEFF0B3
:102220006FFEE5B737550080B76700801306057964
:10223000938787B13386C74081451305057989B1F6
:102240004111094506C6293F375500801305C52CA5
:10225000EFF0EFF60D452937EF101018E93DB7679D
:1022600000809387C7A703C7C700799B2386E70031
:10227000B24041018280357122CDB777008037644A
:1022800000804EC7938707D29309C4AE23A2F900FA
:102290001C081306000781453E8506CF26CB4AC998
:1022A000EFF01FBE054723A4A9000145A30EE100DE
:1022B000453D0545753593071010231EF100EF10BD
:1022C000A005B757008093870731376900803EC269
:1022D000B72600808547B76500809304C9A73EC034
:1022E0000147814781480148938606241306002050
:1022F000938505121305C9A723A09902EF108064E6
:1023000083C7D4001304C4AE13F7B7FFA386E40059
:10231000ED8B99E79C4C89E71305C9A7EF00E07D99
:10232000B7570080938787313EC237650080854765
:10233000B7260080B76500809304C5A03EC0BD48A5
:102340000148814701479386E61F130600209385C5
:1023500005321305C5A0EF10E05E83C7D40044C466
:102360002145ED9BA386F400B7670080938747B0B3
:102370001CCC5CCC733505302189EFD07FE58347D9
:10238000D500FD8B89E7084D133515008280014586
:102390008280411106C6EFF03F9AB757008083A7AD
:1023A000877CB240376700803E95232EA7AE8145DB
:1023B0003E8541016F1090531C41411122C406C655
:1023C00026C22A849DE7B7540080B7550080375550
:1023D00000809385853B1305050693063018138608
:1023E000443AEFF0CFDD930530181385443AEFF00F
:1023F000EFDE0840B2402244924441018280011144
:1024000022CC4EC652C406CE26CA4AC82A8AAE89F3
:10241000214473340430B75400801385047C218830
:10242000EF10C05A0DED37590080B7550080375571
:102430000080938545149306E0041306C912130522
:102440000506EFF0CFD7375500801305C515EFF01F
:102450000FD79305E0041305C912EFF02FD81385A9
:10246000047CEF10605AB7670080A94513059A00F5
:1024700023AE07AEEFE0CFBDB757008037590080DD
:102480002324A97C23A2377D29371385047CEF10F0
:1024900080550DEDB7540080B7550080375500804A
:1024A00093854517930610061386C4121305050677
:1024B000EFF0EFD0375500801305C518EFF02FD09F
:1024C000930510061385C412EFF04FD17324043026
:1024D000F2406244D2444249B249224A05618280B4
:1024E000011122CC4AC806CE26CA4EC62A892144EA
:1024F00073340430B75400801385047C2188EF10B6
:10250000E04C0DEDB7590080B7550080375500807D
:10251000938545149306E0041386C9121305050636
:10252000EFF0EFC9375500801305C515EFF02FC93F
:102530009305E0041385C912EFF04FCA1385047C9C
:10254000EF10804C13058900853DCA8551248347CF
:10255000D9001385047CF59BA306F900EF10A04871
:102560000DEDB7540080B755008037550080938536
:102570004517930610061386C41213050506EFF0DF
:102580000FC4375500801305C518EFF04FC39305EE
:1025900010061385C412EFF06FC473240430F240A8
:1025A000624423240900D2444249B2490561828031
:1025B000B767008083A7C7AE411122C406C626C2F2
:1025C0002E84B9E7EF1020420DEDB7540080B755C7
:1025D0000080375500809385451793068007138642
:1025E000C41213050506EFF08FBD375500801305A3
:1025F000C518EFF0CFBC930580071385C412EFF028
:10260000EFBD22852244B240924441016FD05FBCAD
:10261000EF10603D0DEDB7540080B7550080375581
:10262000008093854517930610061386C412130580
:102630000506EFF0CFB8375500801305C518EFF049
:102640000FB8930510061385C412EFF02FB9218837
:1026500073240430B240224492444101828037679F
:1026600000800327C7AE19E36FD09FB6937785002C
:10267000F3A7073082802145733505302189C5B71E
:10268000011122CC06CE26CA4AC84EC62144733454
:102690000430B75400801385047C2188EF10003388
:1026A0000DED37590080B755008037550080938570
:1026B00045149306E0041306C91213050506EFF04E
:1026C0000FB0375500801305C515EFF04FAF9305D8
:1026D000E0041305C912EFF06FB01385047C37696D
:1026E0000080EF1060328327C9AE1309C9AE8DCFC9
:1026F000B7590080B7550080375500809385C533A2
:10270000930600101386093213050506EFF02FAB70
:10271000375500801305450EEFF06FAA93050010A2
:1027200013850932EFF08FAB8327890003C7F700C9
:102730008547631EF702B7590080B75500803755AB
:1027400000809385453593061010138609321305D2
:102750000506EFF0CFA6375500801305450EEFF0C4
:102760000FA69305101013850932EFF02FA703274A
:1027700089008347F700FD17A307F7001385047C42
:10278000EF1060260DEDB7540080B7550080375527
:10279000008093854517930610061386C41213050F
:1027A0000506EFF0CFA1375500801305C518EFF0EF
:1027B0000FA1930510061385C412EFF02FA2732406
:1027C0000430F2406244D2444249B24905618280F9
:1027D000B757008083A7476F411122C406C626C29F
:1027E0002E846398F502B7540080B75500803755A2
:1027F00000809385053F130505069306C0281386C0
:10280000443AEFF0CF9B9305C0281385443AEFF08C
:10281000EF9C58401C40B24092441CC3D8C32320B4
:10282000040023220400224441018280011122CCB1
:1028300026CA06CE4AC84EC62A84A144F3B4043040
:10284000375900801305097CA188EF1020180DED81
:10285000B7590080B75500803755008093854514DF
:102860009306E0041386C91213050506EFF02F95B1
:10287000375500801305C515EFF06F949305E004FC
:102880001385C912EFF08F951305097CEF10C0175F
:1028900013058400EFF05FB2A2851D3F8347D4008B
:1028A0001305097CF59BA306F400EF10C0130DED92
:1028B00037590080B75500803755008093854517FC
:1028C000930610061306C91213050506EFF02F8FA5
:1028D000375500801305C518EFF06F8E930510066D
:1028E0001305C912EFF08F8FF3A4043023240400E2
:1028F000130584016244F240D2444249B249056161
:102900006F1080661C416313F50081473E8582800D
:10291000411122C4376400804AC02A891305C4AE1D
:102920001305450226C206C6F13F1304C4AEAA84AD
:1029300011E14444631209061C448DEF37590080AD
:10294000B7550080375500809385053D9306F00705
:102950001306493A13050506EFF06F8637550080D8
:102960001305450EEFF0AF859305F0071305493ABF
:10297000EFF0CF861C4403C7D7007D8B11EF83D6C1
:10298000E7001307F0076379D7001CD0B240224458
:1029900092440249410182801C4463849700EFF015
:1029A0005F9F04D0E5B701114AC8376900809307DB
:1029B000C9AE9C4706CE22CC83C7F70026CA4EC6B6
:1029C0001309C9AE8DEF37540080B75500803755D5
:1029D00000809385C537930610221306443A1305E9
:1029E0000506EFE0DFFD375500801305450EEFE0EB
:1029F0001FFD930510221305443AEFE03FFE8327A5
:102A000009008DCF37540080B755008037550080BE
:102A10009385C533930620221306443A1305050611
:102A2000EFE0FFF9375500801305450EEFE03FF961
:102A3000930520221305443AEFE05FFA21447334F2
:102A40000430B75400801385047C2188EF0010788F
:102A50000DEDB7590080B75500803755008093853C
:102A600045149306E0041386C91213050506EFE02A
:102A70001FF5375500801305C515EFE05FF493058A
:102A8000E0041385C912EFE07FF51385047CEF00A5
:102A9000B0770327890005458347F7008507A3071B
:102AA000F700BD351385047CEF00F0730DEDB754CE
:102AB0000080B755008037550080938545179306F1
:102AC00010061386C41213050506EFE05FEF3755B5
:102AD00000801305C518EFE09FEE930510061385DF
:102AE000C412EFE0BFEF732404306244F240D244DA
:102AF0004249B24905616FF01FB8011122CC26CAC4
:102B000006CE4AC84EC62A84A144F3B404303759CD
:102B100000801305097CA188EF00506B0DEDB759BB
:102B20000080B75500803755008093854514930683
:102B3000E0041386C91213050506EFE05FE8375578
:102B400000801305C515EFE09FE79305E0041385AA
:102B5000C912EFE0BFE81305097CEF00F06AB75730
:102B6000008083A7476F6318F402B7590080B755F8
:102B70000080375500809385053F130505069306B1
:102B800060271386493AEFE09FE39305602713859A
:102B9000493AEFE0BFE4376700809306C7AEDC52E6
:102BA0009056B7660080938606B11307C7AE63855B
:102BB000D708D9C38305E4000385E70063DAA506D7
:102BC000D8431CC058C000C3C0C38347D4000145CC
:102BD00093E70704A306F400EFF09FD31305097CE5
:102BE000EF0070600DED37540080B7550080375509
:102BF000008093854517930610061306C41213052B
:102C00000506EFE0DFDB375500801305C518EFE060
:102C10001FDB930510061305C412EFE03FDCF3A49D
:102C20000430F2406244D2444249B2490561828094
:102C30006304F6009C43C9F350C01C5714C080C302
:102C400000D761B7832705FF011122CC4EC606CEFF
:102C500026CA4AC852C42A84930985FECDCFA1440E
:102C6000F3B40430375900801305097CA188EF00C4
:102C7000F0550DED375A0080B7550080375500806C
:102C8000938545149306E0041306CA12130505063E
:102C9000EFE0FFD2375500801305C515EFE03FD2B6
:102CA0009305E0041305CA12EFE05FD31305097C16
:102CB000EF009055130504FFEFF00FF0CE85EFF015
:102CC0003FB1834754FF1305097CF59BA30AF4FE2B
:102CD000EF0070510DED37590080B7550080375522
:102CE000008093854517930610061306C912130535
:102CF0000506EFE0DFCC375500801305C518EFE07F
:102D00001FCC930510061305C912EFE03FCDF3A4C5
:102D10000430232804FE834754FF4E85AD9BA30A4D
:102D2000F4FEEFF0CFE519C96244F240D2444249C3
:102D3000224A4E85B24905616FF03FDCF2406244A1
:102D4000D2444249B249224A05618280011122CC13
:102D50004AC806CE26CA4EC652C456C22A84214943
:102D600073390930B75900801385097C13798900BC
:102D7000EF00D0450DEDB7540080B75500803755B2
:102D80000080938545149306E0041386C41213054E
:102D90000506EFE0DFC2375500801305C515EFE0EB
:102DA0001FC29305E0041385C412EFE03FC31385EF
:102DB000097CEF007045B76400801385C4AEA2851E
:102DC00013054502EFF0DFA0B757008083A7476FD8
:102DD000376A00809384C4AE130A0AB16318F40200
:102DE000B75A0080B7550080375500809385053F5E
:102DF000130505069306602713864A3AEFE03FBCA9
:102E00009305602713854A3AEFE05FBDDC50985484
:102E1000638A4709C1CB8306E4000386E70063DFCA
:102E2000C606D8431CC058C000C3C0C38347D400E3
:102E3000884493E70704018D13351500A306F400B9
:102E4000EFF01FAD1385097CEF00F0390DED37541D
:102E50000080B7550080375500809385451793064D
:102E600010061306C41213050506EFE05FB53755CB
:102E700000801305C518EFE09FB4930510061305F5
:102E8000C412EFE0BFB573290930F2406244D24466
:102E90004249B249224A924A056182806384E7002E
:102EA0009C43A5FF58C09C542320440180C380D478
:102EB000B5BFB757008083A7877CB1CBB7670080C9
:102EC0009387C7AE98479306F0070356E70063E081
:102ED000C604B75600800306E70083A6467C634815
:102EE000D602B756008083A6466F6302D702144FFE
:102EF00099EE944B634BD50041113A8506C6EFF02D
:102F0000FFE4B24041016FF0CFC8898E94CB82803C
:102F1000011122CC4EC606CE26CA4AC8AA8921442F
:102F200073340430B75400801385047C2188EF008B
:102F3000F0290DED37590080B755008037550080D6
:102F4000938545149306E0041306C912130505067C
:102F5000EFE0FFA6375500801305C515EFE03FA64B
:102F60009305E0041305C912EFE05FA71385047C05
:102F7000EF00902983C7D900376900801309C9AED3
:102F800093F7070481CFCE8513054902EFF05F84E4
:102F900083C7D90093F7F7FBA386F90003258900BF
:102FA0003305354113351500EFF09F961385047CEA
:102FB000EF0070230DEDB7540080B75500803755F2
:102FC000008093854517930610061386C4121305D7
:102FD0000506EFE0DF9E375500801305C518EFE0CA
:102FE0001F9E930510061385C412EFE03F9F7324C4
:102FF0000430F2406244D2444249B24905618280C1
:10300000011122CC26CA2A844AC806CE4EC6AE84F6
:103010003289FD3D8347D40093E72700A306F400DF
:10302000A9CCB757008083A7476F04C46318F40284
:10303000B7590080B7550080375500809385053F0C
:1030400013050506930660271386493AEFE03F977C
:10305000930560271385493AEFE05F989C40638BA6
:10306000F404A9CB0307E4008386E700635FD7027B
:10307000D8431CC058C000C3C0C3FD576303F90444
:10308000A94513059900EFD0AFFC130615001305F1
:1030900084016244F240D2444249B249B7350080CB
:1030A000938545C405616F00B04FD4406384D70059
:1030B0009C43DDFBDC4004C05CC0DC4080C3C0C07E
:1030C0006DBFF2406244D2444249B24905618280F8
:1030D0004111B767008022C42A8403A547AF06C602
:1030E000053722852244B24041016FD06F8E4111D5
:1030F000B767008022C42A8403A547AF26C2AE84E6
:10310000B285368606C6ED3D2285EF00D00D0DED69
:1031100037540080B7550080375500809385451798
:10312000930680071306C41213050506EFE03F89D6
:10313000375500801305C518EFE07F889305800799
:103140001305C412EFE09F892244B24026859244C1
:1031500041016FD0EF8701114AC84EC606CE22CC7E
:1031600026CAAA89214973390930B75400801385CA
:10317000047C13798900EF0070050DED3754008051
:10318000B755008037550080938545149306E004B9
:103190001306C41213050506EFE07F823755008041
:1031A0001305C515EFE0BF819305E0041305C412B4
:1031B000EFE0DF821385047CEF0010054E85EFF011
:1031C0006FF42A841385047CEF00F0010DEDB759EC
:1031D0000080B755008037550080938545179306CA
:1031E00010061386C91213050506EFE04FFD37558B
:1031F00000801305C518EFE08FFC930510061385BA
:10320000C912EFE0AFFD7329093061C0214973395C
:1032100009301385047C13798900EF00207B0DEDC4
:10322000B7590080B7550080375500809385451405
:103230009306E0041386C91213050506EFE02FF884
:10324000375500801305C515EFE06FF79305E004CF
:103250001385C912EFE08FF81385047CEF00C07A64
:1032600013058400EFF04F95A285EFF06FD68347EA
:10327000D4001385047CF59BA306F400EF00A07630
:103280000DEDB7540080B755008037550080938509
:103290004517930610061386C41213050506EFE0C2
:1032A0000FF2375500801305C518EFE04FF1930575
:1032B00010061385C412EFE06FF27329093023243E
:1032C000040013058401EF00304A2285F240624475
:1032D000D2444249B24905618280411126C24AC0A6
:1032E00006C622C42A898144032409006303890095
:1032F00001E8B2402244268502499244410182807D
:103300002285EFF0AFD22285EFF06F87854469DD2B
:103310002285EFF08FFEC9BFB76700809387C7AEE5
:1033200013874702D8D398D7814501456FF02F8D79
:10333000B767008003A547AF8280011122CC26CA5F
:103340004AC806CE4EC62A842E89B2840DEEB759DD
:103350000080B7550080375500809385454193061E
:1033600060041386494013050506EFE04FE5375525
:10337000008013050542EFE08FE493056004138598
:103380004940EFE0AFE563FE2403B7590080B7552D
:10339000008037550080938585439306700413861B
:1033A000494013050506EFE08FE13755008013050E
:1033B0000545EFE0CFE09305700413854940EFE049
:1033C000EFE12324240144C400C040C0F240624421
:1033D000D2444249B24905618280011126CA4EC6D3
:1033E00006CE22CC4AC8AA89A144F3B4043037548B
:1033F00000801305C47CA188D12B0DED37590080C6
:10340000B755008037550080938545149306E00436
:103410001306C91213050506EFE06FDA3755008071
:103420001305C515EFE0AFD99305E0041305C912E4
:10343000EFE0CFDA1305C47CC12B4E85EFF0BFD18E
:103440002A8915C58347D500FD8B89E71C4D99E373
:10345000EFF0AFEA232609061305C47C6244F2406C
:103460004249B249A685D24405616FF06F9403A723
:10347000890083A7C900998FB337F000BA9723A4B6
:10348000F900D9BFB767008083A7C7AE01114AC84A
:103490004EC606CE22CC26CA52C42A89AE8995CF02
:1034A0008DCD37540080B755008037550080938507
:1034B00085479306C0081306444013050506EFE050
:1034C0000FD0375500801305450EEFE04FCF930521
:1034D000C00813054440EFE06FD02144733404303A
:1034E000B75400801385C47C2188CD210DED375A57
:1034F0000080B755008037550080938545149306AA
:10350000E0041306CA1213050506EFE04FCB37554A
:1035100000801305C515EFE08FCA9305E00413057D
:10352000CA12EFE0AFCB1385C47CF9298327890049
:10353000B9CFFD172324F9001385C47C6D210DED4F
:10354000B7540080B75500803755008093854517E4
:10355000930610061386C41213050506EFE02FC666
:10356000375500801305C518EFE06FC593051006A9
:103570001385C412EFE08FC6732404300145F24076
:103580006244D2444249B249224A0561828063962C
:1035900009041385C47C81290DEDB7540080B7550B
:1035A00000803755008093854517930610061386D3
:1035B000C41213050506EFE08FC0375500801305D0
:1035C000C518EFE0CFBF930510061385C412EFE0D6
:1035D000EFC07324043041555DB7A2856244F240C8
:1035E000224ACE864A86B24942491385C47CD244D7
:1035F00005616FF0DFAF0A064CC50CC9B29508C172
:1036000048C1232405004CC98280011122CC2A84A0
:103610002E8506CE2EC6EF10201309CD3246AA8580
:103620002285D13F8547230CF4000145F2406244D6
:10363000056182805155DDBF1C41411122C406C67F
:1036400026C22A846309F5029DC7B7540080B75586
:103650000080375500809385054C130505069306B9
:10366000A0051386C44AEFE08FB59305A005138526
:10367000C44AEFE0AFB683478401858B99CB4844B9
:10368000EF10E00B8347840123260400F99B230CF1
:10369000F400B240224492444101828018495C49BE
:1036A000011126CA52C406CE22CC4AC84EC6AA84EC
:1036B0002E8A631EF70237540080B75500803755B5
:1036C00000809385C54E930680061306C44A1305F1
:1036D0000506EFE0CFAE3755008013058550EFE0CB
:1036E0000FAE930580061305C44AEFE02FAF938910
:1036F00084002144733404304E852188C12C0DEDA3
:1037000037590080B75500803755008093854514A0
:103710009306E0041306C91213050506EFE02FAA6D
:10372000375500801305C515EFE06FA99305E00438
:103730001305C912EFE08FAA4E85F9242685EFF014
:103740009FA12A8905C98347D500FD8B89E71C4DB8
:1037500099E3EFF08FBAA2856244232A4901232618
:103760000906F240D2444249224A4E85B2490561D7
:103770006FE01FE49C484E8523A0470191079CC839
:103780009D240DEDB7540080B7550080375500805B
:1037900093854517930610061386C4121305050674
:1037A000EFE0EFA1375500801305C518EFE02FA11A
:1037B000930510061385C412EFE04FA27324043062
:1037C000F2406244D2444249B249224A05618280B1
:1037D000011122CC26CA4AC84EC652C406CE56C2D1
:1037E0002A89AE89328A93048500214473340430D7
:1037F00026852188E12A0DEDB75A0080B755008053
:1038000037550080938545149306E0041386CA1249
:1038100013050506EFE0AF9A375500801305C5156F
:10382000EFE0EF999305E0041385CA12EFE00F9BD8
:103830002685D92A832709010327C900637DF70458
:103840001387C7FF83A7C7FF2328E900268523A086
:10385000F900512A0DEDB7540080B7550080375557
:10386000008093854517930610061386C41213052E
:103870000506EFE0CF94375500801305C518EFE03B
:103880000F94930510061385C412EFE02F9573244F
:1038900004300145A9A0631D0A042685A9220DED67
:1038A000B7540080B7550080375500809385451781
:1038B000930610061386C41213050506EFE02F9039
:1038C000375500801305C518EFE06F8F930510067C
:1038D0001385C412EFE08F90732404304155F240F9
:1038E0006244D2444249B249224A924A05618280E6
:1038F000D2864A86A2852685EFF06FFFD557E30072
:10390000F5FEB767008083A747AFDC4B23A0F90023
:1039100049B78347D500FD8B89E7084D133515005E
:10392000828001458280B767008003A5C7AE33352A
:10393000A0008280B767008083A747AF03C5C70098
:10394000058982800111025322CC06CE1AC02A8436
:10395000EFD08FDEB767008083A747AFF240BC5738
:103960003CD46244056182803C51411122C406C6A8
:103970002A8491C382972285EFF0BFF911CD228569
:10398000EFF00FD98347D400B24093E78700A30636
:10399000F4002244410182808347D400898B81C78F
:1039A0002285EFE0FFB31C4CF1DF130584016D2B82
:1039B000D1BF2306D500A306C5002307B500A30782
:1039C0000500232C0500232E05008280084111C923
:1039D000B767008083C707B00D891D8D3335A00000
:1039E000828005458280B76700809387C7AE03C792
:1039F00047019C47D98F18416316F7002320050023
:103A00000545828001458280B76700809387C7AEF5
:103A100003C747019C47D98F1CC18280011122CC6A
:103A20004AC806CE26CA4EC62A89214473340430B9
:103A3000B75400801385047D2188EFF03FF90DED28
:103A4000B7590080B75500803755008093854514DD
:103A50009306E0041386C91213050506EFD03FF65E
:103A6000375500801305C515EFD07FF59305E004A9
:103A70001385C912EFD09FF61385047DEFF0DFF8B0
:103A80008347D90013F7470039EB1385047DEFF026
:103A90009FF50DEDB7540080B75500803755008075
:103AA00093854517930610061386C4121305050661
:103AB000EFD0FFF0375500801305C518EFD03FF069
:103AC000930510061385C412EFD05FF17324043000
:103AD000F2406244D2444249B24905618280ED9B82
:103AE000A306F9004A85EFF0DFE201C54A85EFF051
:103AF000CF80A2856244F2404249B2491385047DD9
:103B0000D24405616FE0DFAA99E16FF03FF1411106
:103B100022C42A842E852505A94506C6EFC05FD399
:103B200013061500130584012244B240B735008006
:103B3000938545C44101ADA4397156D2B68AB766A2
:103B4000008083A6C6AE22DC26DA4ED652D406DE2C
:103B50004AD82A84AE89328A9644A9C63759008049
:103B6000B7550080375500809306201B13068951F6
:103B70009385C5331305050646CE42CC3ECA3AC8E6
:103B8000EFD0FFE3375500801305C552EFD03FE378
:103B90009305201B13058951EFD05FE4F24862487A
:103BA000D2474247864602C2528636C0CE85D68666
:103BB0002285EFF03FD9FD576386F400A685228564
:103BC000EFF09FF42285F2506254D2544259B25918
:103BD000225A925A216182800111B75700804AC847
:103BE0003759008022CC26CA06CE1384877293846C
:103BF000877213098972636F24012684EFE05FA83E
:103C0000FD54636E24036244F240D244424905618C
:103C10006FE07FD95C543EC21C503EC05C48832894
:103C2000C401032884011848544410444C400840FF
:103C3000EFF05FD11C40E0CF130404036DBF4C5084
:103C4000638595000840EFF03FEC1304040355BF73
:103C5000011122CC26CA06CE4AC8AA8402C6214433
:103C60007334043068002188EFF05FD60DED3759CA
:103C70000080B75500803755008093854514930622
:103C8000E0041306C91213050506EFD05FD33755BC
:103C900000801305C515EFD09FD29305E0041305EE
:103CA000C912EFD0BFD36800EFF01FD683C7C4009E
:103CB000858B8DCF37590080B755008037550080F0
:103CC0009385C556930690021306495513050506BC
:103CD000EFD0FFCE375500801305055AEFD03FCE09
:103CE0009305900213054955EFD05FCF2685EFF07D
:103CF000BFC7A2856800EFE0BF8BF2406244D244A8
:103D0000424905618280B757008083A7477D99E3C8
:103D10006FE08F82014582801C4101CD37570080C2
:103D20000327C76E6307E50089C798471445369790
:103D300098C758411CC3D8C323200500232205007F
:103D40008280B757008083C7077E411106C622C410
:103D500026C27D5589E7370500801345F5FFB75723
:103D600000809387876E8043630FF40009CC04447E
:103D7000EFF07FF9898C014563C704000044EFF040
:103D80009FF83305A440B767008083A7C7AF81C7FA
:103D900063D3A7003E85B240224492444101828011
:103DA0001C41797122D426D24ECE06D64AD052CCAE
:103DB00056CA5AC85EC662C42A84AE89B2848DCF00
:103DC00037590080B7550080375500809385055DD1
:103DD0009306D0041306C95B13050506EFD03FBE5A
:103DE000375500801305450EEFD07FBD9305D004F5
:103DF0001305C95BEFD09FBE2326340163439000B7
:103E00008544A149F3B90930375A008013058A7DEA
:103E100093F98900EFF09FBB0DED37590080B7553E
:103E2000008037550080938545149306E0041306FF
:103E3000C91213050506EFD09FB83755008013054A
:103E4000C515EFD0DFB79305E0041305C912EFD015
:103E5000FFB813058A7DEFF03FBBEFF0DFEA269550
:103E6000B754008003A9846E08C49384846E630CE5
:103E70009900B75A0080375B0080B75B0080375CE1
:103E8000008063190900DC4004C05CC0DC4080C3D2
:103E9000C0C091A88327890063D6070293050B5FF2
:103EA000930660051386CA5B13850B06EFD03FB1FE
:103EB00013054C0EEFD0BFB0930560051385CA5BA8
:103EC000EFD0DFB1032789001C4463D7E708B307AD
:103ED000F7402324F90083274900232024015CC0F4
:103EE00080C3232289009C40638997006317F400F4
:103EF000EFF03FE58145EFD07FCF13058A7DEFF0EE
:103F00009FAE0DED37540080B755008037550080C7
:103F100093854517930610061306C412130505066C
:103F2000EFD0FFA9375500801305C518EFD03FA982
:103F3000930510061305C412EFD05FAAF3A9093048
:103F4000B250225492540259F249624AD24A424B28
:103F5000B24B224C45618280998F1CC4DC40E384C3
:103F600027F30329090031BF011122CC4EC606CE2A
:103F700026CA4AC8AA89214473340430B754008041
:103F80001385847D2188EFF07FA40DED37590080E3
:103F9000B755008037550080938545149306E0049B
:103FA0001306C91213050506EFD07FA1375500800F
:103FB0001305C515EFD0BFA09305E0041305C91282
:103FC000EFD0DFA11385847DEFF01FA483A7090044
:103FD000295989C74E85EFF03FD401491385847D67
:103FE000EFF07FA00DEDB7540080B7550080375536
:103FF000008093854517930610061386C412130597
:104000000506EFD0DF9B375500801305C518EFD0AC
:104010001F9B930510061385C412EFD03F9C732499
:104020000430F24062444A85D2444249B2490561B3
:104030008280411122C406C626C24AC0214473347C
:104040000430B75400801385847D2188EFF01F98D9
:104050000DED37590080B7550080375500809385A6
:1040600045149306E0041306C91213050506EFD0A4
:104070001F95375500801305C515EFD05F94930544
:10408000E0041305C912EFD07F951385847DEFF00E
:10409000BF97EFF01FCB2A891385847DEFF0BF9483
:1040A0000DEDB7540080B7550080375500809385DB
:1040B0004517930610061386C41213050506EFD0A4
:1040C0001F90375500801305C518EFD05F8F9305FB
:1040D00010061385C412EFD07F9073240430B240D1
:1040E00022444A859244024941018280011122CC36
:1040F0004AC852C406CE26CA4EC62A892E8A2144F0
:1041000073340430B75400801385847D2188EFF028
:10411000FF8B0DEDB7590080B755008037550080F3
:10412000938545149306E0041386C912130505060A
:10413000EFD0FF88375500801305C515EFD03F88B5
:104140009305E0041385C912EFD05F891385847D40
:10415000EFF09F8BEFF0FFBE6359A900854763D650
:10416000A700D2854A85EFD07FA81385847DEFF024
:104170009F870DEDB7540080B755008037550080FC
:1041800093854517930610061386C412130505067A
:10419000EFD0FF82375500801305C518EFD03F825E
:1041A000930510061385C412EFD05F837324043087
:1041B000F2406244D2444249B249224A05618280B7
:1041C000797122D452CC06D626D24AD04ECE56CAC7
:1041D0005AC85EC662C466C26AC02A8A2144EFE039
:1041E0005FCD73340430375900801305897D2188F1
:1041F000EFF0CFFD0DEDB7540080B7550080375577
:104200000080938545149306E0041386C4121305B9
:104210000506EFD0CFFA375500801305C515EFD04E
:104220000FFA9305E0041385C412EFD02FFBB759A2
:1042300000801305897DEFF02FFDB754008023AA7D
:10424000497D375A00809389497D130A8A6E938489
:104250008479B75A0080B75B0080375B0080375C99
:104260000080B75C0080032D0A0083A709009440FA
:10427000C840630B4D0163090D0003278D0063D611
:10428000E7081D8F2324ED00BE9613D7F7412A9728
:10429000B3B7F600BA9794C0DCC023A00900EFF0D2
:1042A0005FAA8145EFD09F941305897DEFF0AFF3AE
:1042B0000DEDB7540080B7550080375500809385C9
:1042C0004517930610061386C41213050506EFD092
:1042D0000FEF375500801305C518EFD04FEE93054B
:1042E00010061385C412EFD06FEF73240430B25060
:1042F000225492540259F249624AD24A424BB24B7A
:10430000224C924C024D45618280BA969355F741FA
:10431000AA9533B6E6002E96998F6A8523240D0060
:1043200094C0D0C023A0F900EFF01F9F1305897D32
:10433000EFF06FEB0DE593854B1793061006138690
:10434000CA1213050B06EFD08FE71305CC18EFD078
:104350000FE7930510061385CA12EFD02FE87324D8
:1043600004308327CD006A8521448297733404305A
:104370001305897D2188EFF06FE51DE593854C14C9
:104380009306E0041386CA1213050B06EFD02FE341
:10439000375500801305C515EFD06FE29305E00493
:1043A0001385CA12EFD08FE31305897DEFF0CFE5B7
:1043B0005DBD011126CA06CE22CC4AC84EC6A14414
:1043C000F3B40430375900801305897DA188EFF0DC
:1043D000EFDF0DED37540080B75500803755008072
:1043E000938545149306E0041306C41213050506CD
:1043F000EFD0EFDC375500801305C515EFD02FDC6B
:104400009305E0041305C412EFD04FDD1305897D39
:10441000EFF08FDFEFD05F92B757008093878779F7
:1044200083A90700C043AA9933B5A9002A941305AC
:10443000897DEFF04FDB0DED37590080B7550080D7
:104440003755008093854517930610061306C91249
:1044500013050506EFD0AFD6375500801305C518F4
:10446000EFD0EFD5930510061305C912EFD00FD783
:10447000F3A40430A285F24062444E85D2444249FE
:10448000B24905618280411122C426C2375400809E
:10449000B754008006C6130484729384447463681E
:1044A0009400B24022449244014541018280930726
:1044B000440122855CC81CCCEFC01FBC7104C5B789
:1044C000B767008083A7C7AE5D71A2C4A6C24EDEE7
:1044D0005AD886C6CAC052DC56DA5ED662D466D2D4
:1044E0006AD06ECEAA89AE84328B36846380071080
:1044F000F1E2014937550080130585723385A940E3
:10450000B775DBB6938575DB0985EFC02FB27D7A71
:10451000856A137CF50FD55BD15C130AFA0FFD1A7F
:10452000214D938D4901268774003000DA854E8530
:10453000EFC01FC1631C7501268774003000DA8547
:104540004E85EFC0FFBF631375015155A24723820B
:104550008401BD8B13978700DC40B3F74701D98FE7
:104560003247B3F757013207D98FDCC00DC505C4F8
:104570006313950373350D302286EE852189EFE0B4
:104580003FB5FD57E301F4FAEFF0BFE23304A94071
:10459000E35B04F85555B640264496440649F25963
:1045A000625AD25A425BB25B225C925C025DF24D6F
:1045B0006161828037590080B7550080375500808F
:1045C000938545619306900313060960130505065C
:1045D000EFD0EFBE375500801305450EEFD02FBE4C
:1045E0009305900313050960EFD04FBFE35380F0AC
:1045F000EFF03FDC2A89A94513059400EFC04FA5D1
:104600002A99CDBD834705000111104122CC139496
:1046100037004AC81D8C375900800A04935586001C
:10462000130589723182BD89229506CE26CA4EC6EF
:1046300052C4EFC0FFD1A145F3B50530B754008097
:104640001385C47D93F98500EFF04FB81309897283
:104650000DED375A0080B75500803755008093859F
:1046600045149306E0041306CA1213050506EFD09D
:104670000FB5375500801305C515EFD04FB493051E
:10468000E0041305CA12EFD06FB51385C47DEFF0B7
:10469000AFB7130544014A95EFE03FC409CD62442A
:1046A000F2404249224ACE851385C47DB249D244A4
:1046B00005616FD0FFEF1385C47DEFF0CFB20DED34
:1046C00037540080B75500803755008093854517D3
:1046D000930610061306C41213050506EFD02FAE7D
:1046E000375500801305C518EFD06FAD9305100640
:1046F0001305C412EFD08FAEF3A50930F240624427
:10470000D2444249B249224A05618280138645005B
:104710006378B600014582800145F24005618280E0
:10472000011181462C0006CEEFF09FD975F5224588
:1047300011466C00EFD0EFED22451105F9BF01C520
:1047400071156FF03FEC8280B767008083A747AF99
:10475000AA85A85719C16FF07FFB0145828082802E
:1047600000000000C20E008000000000C20E0080A9
:1047700000000000C20E008000000000C20E008099
:1047800000000000C20E008000000000C20E008089
:1047900000000000C20E008000000000BA1A008075
:1047A00000000000C20E008000000000C20E008069
:1047B00000000000C20E008000000000C20E008059
:1047C00000000000C20E008000000000C20E008049
:1047D00000000000C20E008000000000C20E008039
:1047E00000000000C20E008000000000C20E008029
:1047F00000000000C20E008000000000C20E008019
:1048000000000000C20E008000000000C20E008008
:1048100000000000C20E008000000000C20E0080F8
:1048200000000000C20E008000000000C20E0080E8
:1048300000000000C20E008000000000C20E0080D8
:1048400000000000C20E008000000000C20E0080C8
:1048500000000000C20E008000000000C20E0080B8
:1048600000000000C20E008000000000C20E0080A8
:1048700000000000C20E008000000000C20E008098
:1048800000000000C20E008000000000C20E008088
:1048900000000000C20E008000000000C20E008078
:1048A00000000000C20E008000000000C20E008068
:1048B000D44C0080821A008000000000205100804B
:1048C000BA1B008000000000185100805C210080AD
:1048D00000000000D44C00808644008000000000EE
:1048E0000001020203030303040404040404040497
:1048F0000505050505050505050505050505050568
:104900000606060606060606060606060606060647
:104910000606060606060606060606060606060637
:104920000707070707070707070707070707070717
:104930000707070707070707070707070707070707
:1049400007070707070707070707070707070707F7
:1049500007070707070707070707070707070707E7
:1049600008080808080808080808080808080808C7
:1049700008080808080808080808080808080808B7
:1049800008080808080808080808080808080808A7
:104990000808080808080808080808080808080897
:1049A0000808080808080808080808080808080887
:1049B0000808080808080808080808080808080877
:1049C0000808080808080808080808080808080867
:1049D0000808080808080808080808080808080857
:1049E000746573745F737461636B5F74687265611F
:1049F00064327468726561640000000074657374E9
:104A00005F737461636B5F757365725F7468726501
:104A10006164327468726561640000007465737467
:104A20005F737461636B5F7468726561643269732C
:104A300072000000746573745F737461636B5F7000
:104A40006F705F6661696C00746573745F73746125
:104A5000636B5F757365725F706F705F6661696CC1
:104A600000000000746573745F737461636B5F6151
:104A70006C6C6F635F7468726561643274687265D0
:104A800061640000737461636B5F617069000000B2
:104A900074737461636B5F706F700000746573741E
:104AA0005F737461636B5F616C6C6F635F7468727A
:104AB0006561643274687265616400007265736F69
:104AC0007572636520706F6F6C20697320736D6100
:104AD0006C6C6572207468656E20726571756573A3
:104AE000746564206275666665720000287265747C
:104AF000203D3D202D454E4F4D454D20697320668C
:104B0000616C7365290000006B5F737461636B5F98
:104B1000706F702870737461636B2C202672785FDD
:104B2000646174612C204B5F4E4F5F57414954299B
:104B300020697320747275650000000072785F64EC
:104B4000617461206E6F7420657175616C20746F83
:104B500020646174615B695D000000002E2F746544
:104B60007374732F6B65726E656C2F737461636BF6
:104B70002F737461636B5F6170692F7372632F743D
:104B80006573745F737461636B5F636F6E74657874
:104B900074732E63000000000A20202020417373EC
:104BA000657274696F6E206661696C6564206174FA
:104BB0002025733A25643A2025733A2025730A008C
:104BC000737461636B5F706F705F6661696C000026
:104BD0006B5F737461636B5F706F70287374616374
:104BE0006B2C202672785F646174612C204B5F4EC1
:104BF0004F5F5741495429206E6F7420657175616C
:104C00006C20746F202D4542555359006B5F7374AF
:104C100061636B5F706F7028737461636B2C202607
:104C200072785F646174612C2054494D454F55542E
:104C300029206E6F7420657175616C20746F202D52
:104C400045414741494E00002E2F74657374732F00
:104C50006B65726E656C2F737461636B2F73746117
:104C6000636B5F6170692F7372632F746573745F18
:104C7000737461636B5F6661696C2E630000000092
:104C8000000E0080700E0080700E0080F40D008019
:104C9000000E00805C0E0080660E0080284D0080B3
:104CA000484D0080644D0080784D0080844D008028
:104CB0009C4D0080756E6B6E6F776E0045786365F6
:104CC0007074696F6E206361757365202573202889
:104CD0002564290A00000000ADBAADDEADBAADDE34
:104CE000ADBAADDEADBAADDEADBAADDEADBAADDEFC
:104CF000ADBAADDEADBAADDEADBAADDEADBAADDEEC
:104D0000ADBAADDEADBAADDEADBAADDEADBAADDEDB
:104D1000ADBAADDEADBAADDEADBAADDEADBAADDECB
:104D2000ADBAADDEADBAADDE496E73747275637443
:104D3000696F6E2061646472657373206D6973615D
:104D40006C69676E65640000496E73747275637494
:104D5000696F6E20416363657373206661756C745F
:104D600000000000496C6C6567616C20696E7374AB
:104D700072756374696F6E00427265616B706F6902
:104D80006E7400004C6F61642061646472657373BB
:104D9000206D6973616C69676E6564004C6F616456
:104DA00020616363657373206661756C7400000035
:104DB0002A2A2A2A204B65726E656C20416C6C6F22
:104DC000636174696F6E204661696C75726521203C
:104DD0002A2A2A2A0A0000002A2A2A2A2A204B657F
:104DE000726E656C204F4F505321202A2A2A2A2A9E
:104DF0000A0000002A2A2A2A2A204B65726E656C56
:104E00002050616E696321202A2A2A2A2A0A00007A
:104E10002A2A2A2A20556E6B6E6F776E204661749F
:104E2000616C204572726F7220256421202A2A2A23
:104E30002A0A000043757272656E74207468726588
:104E40006164204944203D2025700A4661756C74D8
:104E5000696E6720696E737472756374696F6E2012
:104E600061646472657373203D20307825780A2070
:104E70002072613A2030782578202067703A2030FF
:104E8000782578202074703A203078257820207496
:104E9000303A20307825780A202074313A20307852
:104EA0002578202074323A203078257820207433F9
:104EB0003A2030782578202074343A2030782578CC
:104EC0000A202074353A2030782578202074363A2C
:104ED0002030782578202061303A203078257820DD
:104EE0002061313A20307825780A202061323A203A
:104EF00030782578202061333A20307825782020BA
:104F000061343A2030782578202061353A20307895
:104F100025780A202061363A2030782578202061D3
:104F2000373A20307825780A0000000049535200B3
:104F3000657373656E7469616C2074687265616411
:104F400000000000466174616C206661756C74201D
:104F5000696E20257321205370696E6E696E672E0D
:104F60002E2E0A00466174616C206661756C742097
:104F7000696E207468726561642025702120416229
:104F80006F7274696E672E0A0000000053707572AC
:104F9000696F757320696E746572727570742064C0
:104FA0006574656374656421204952513A20256413
:104FB0000A0000002E2F617263682F726973637696
:104FC00033322F636F72652F7468726561642E636C
:104FD00000000000282828287072696F72697479AF
:104FE0002929203D3D203135202626207A5F69730E
:104FF0005F69646C655F74687265616428287468B1
:10500000726561645F66756E63292929207C7C2046
:105010002828283135202D203129203E3D202828E0
:105020002D31362929292026262028287072696FDB
:10503000726974792929203E3D2028282D3136298E
:10504000292026262028287072696F7269747929B0
:1050500029203C3D20283135202D203129292900C7
:10506000415353455254494F4E204641494C205BD1
:1050700025735D20402025733A25640A0000000056
:1050800009696E76616C6964207072696F72697407
:105090007920282564293B20616C6C6F776564203A
:1050A00072616E67653A20256420746F2025640A5A
:1050B000000000002E2F6C69622F6F732F6D656DDD
:1050C000706F6F6C2E630000626C6F636B5F66695C
:1050D000747328702C20626C6F636B2C206C737A55
:1050E00029000000090A0000096F7574206F66200E
:1050F0006C6576656C730A002E2F6C69622F6F7376
:105100002F6173736572742E630000004020257355
:105110003A25643A0A00000075617274300000009C
:105120007379735F636C6F636B0000002E2F696E81
:10513000636C7564652F7370696E6C6F636B2E683A
:10514000000000007A5F7370696E5F6C6F636B5F65
:1051500076616C6964286C2900000000095265635F
:10516000757273697665207370696E6C6F636B0A14
:10517000000000007A5F7370696E5F756E6C6F631C
:105180006B5F76616C6964286C290000094E6F744E
:10519000206D79207370696E6C6F636B210A00005B
:1051A000D8510080E05100805C5200804641494C5B
:1051B0004544000050524F4A45435420455845430A
:1051C0005554494F4E2025730A0000005355434360
:1051D00045535346554C00005041535300000000C6
:1051E0004641494C0000000052756E6E696E6720A2
:1051F000746573742073756974652025730A0000E3
:105200003D3D3D3D3D3D3D3D3D3D3D3D3D3D3D3DCE
:105210003D3D3D3D3D3D3D3D3D3D3D3D3D3D3D3DBE
:105220003D3D3D3D3D3D3D3D3D3D3D3D3D3D3D3DAE
:105230003D3D3D3D3D3D3D3D3D3D3D3D3D3D3D3D9E
:105240003D3D3D0A000000007374617274696E6731
:105250002074657374202D2025730A00534B495028
:10526000000000002573202D2025730A0000000097
:1052700054657374207375697465202573206661A5
:10528000696C65642E0A0000546573742073756937
:105290007465202573207375636365656465640AAE
:1052A0000000000058210080442100800000000020
:1052B0000000000000000000F85600801C5700802D
:1052C0002857008028570080285700802A2A2A2A39
:1052D0002A20426F6F74696E67205A657068797210
:1052E000204F53207A65706879722D76312E3133D4
:1052F0002E302D333032312D6761336130643366A7
:105300006130653437202A2A2A2A2A0A0000000040
:105310006D61696E0000000069646C65000000004A
:105320002E2F6B65726E656C2F696E636C7564658C
:105330002F6B73636865642E6800000021285F6B23
:1053400065726E656C2E6E657374656420213D20F8
:10535000305529005F6B65726E656C2E63757272D5
:10536000656E742D3E626173652E73636865645F5C
:105370006C6F636B656420213D2031005F6B65724B
:105380006E656C2E63757272656E742D3E6261730C
:10539000652E73636865645F6C6F636B6564202161
:1053A0003D2030002E2F6B65726E656C2F73636825
:1053B00065642E63000000007468726561642D3EB0
:1053C000626173652E70656E6465645F6F6E000068
:1053D0005F6B65726E656C2E63757272656E74209C
:1053E000213D202828766F6964202A293029000071
:1053F0002169735F69646C652874687265616429EA
:10540000000000002E2F6B65726E656C2F73656D4A
:105410002E6300006C696D697420213D20305500B9
:10542000096C696D69742063616E6E6F74206265CA
:10543000207A65726F0A0000696E697469616C5F39
:10544000636F756E74203C3D206C696D697400005B
:1054500009636F756E742063616E6E6F7420626590
:105460002067726561746572207468616E206C6972
:105470006D69740A000000002828285F6B65726E51
:10548000656C2E6E657374656420213D203055294E
:10549000203D3D203029207C7C202874696D656F7B
:1054A0007574203D3D203029290000002E2F6B65AA
:1054B000726E656C2F737461636B2E630000000065
:1054C0007A5F77616974715F6865616428267374B7
:1054D00061636B2D3E776169745F7129203D3D20CA
:1054E0002828766F6964202A293029007374616343
:1054F0006B2D3E6E65787420213D20737461636B63
:105500002D3E746F7000000009737461636B206935
:10551000732066756C6C0A002E2F6B65726E656C5D
:105520002F7468726561642E63000000095468720C
:1055300065616473206D6179206E6F7420626520EF
:105540006372656174656420696E20495352730A01
:10555000000000002E2F6B65726E656C2F746872F0
:105560006561645F61626F72742E63002874687293
:105570006561642D3E626173652E757365725F6F40
:105580007074696F6E73202620282831554C203C9A
:105590003C20283029292929203D3D203055000074
:1055A00009657373656E7469616C207468726561F6
:1055B000642061626F727465640A00002E2F6B654F
:1055C000726E656C2F74696D656F75742E63000063
:1055D000217379735F646E6F64655F69735F6C6973
:1055E0006E6B65642826746F2D3E6E6F64652900AE
:1055F000742D3E647469636B73203E3D203000005F
:105600002E2F6B65726E656C2F6D656D706F6F6C94
:105610002E6300002128285F6B65726E656C2E6E0C
:10562000657374656420213D20305529202626208D
:1056300074696D656F757420213D2030290000006C
:10564000E0490080600B00801E0900801E09008078
:1056500000000000FC490080200900801E09008035
:105660001E090080040000001C4A0080920B00808C
:105670001E0900801E09008000000000344A0080DE
:10568000DE0C00801E0900801E0900800000000062
:10569000484A0080240900801E0900801E090080FD
:1056A00004000000644A0080C40B00801E090080D2
:1056B0001E09008000000000000000000000000043
:1056C000000000000000000000000000CDAB000062
:1056D0003412000000000000000000008815008067
:1056E000DC1E008003000000E8560080E8560080C1
:0856F000F5FFFFFF0C5A0080DA
:1056F800D44800800000000000000000C848008076
:10570800A452008000000000B048008000000000A3
:1057180000000000BC4800800000000000000000FD
:10572800E45700808000000002000100E458008077
:0C57380001000000000000000000000064
:10574400445700804457008000000000000000001F
:045754000F00000042
:10575800585700805857008000000000206D0080D6
:10576800206D0080306D00800000000074570080BC
:105778007457008000000000306D0080306D00809C
:08578800406D008000000000EC
:040000058000000077
:00000001FF
