:0200000480007A
:100000009702000093820201739052306F105032B9
:10001000130101FB2320110023223100232441007E
:100020002326510023286100232A7100232CC101BB
:10003000232ED1012320E1032322F1032324A10253
:100040002326B1022328C102232AD102232CE10254
:10005000232EF1022320010523221105F32210345F
:1000600023245104F322003023265104EF00002002
:100070001303000063160504F3222034B703008045
:100080009383F3FFB3F272001303B000638A62003C
:100090001305010097000000938040146F10501A60
:1000A000832281049382420023245104978200001A
:1000B0009382826203A30200631403006F000009AD
:1000C0009302010097930000938383C703A1430029
:1000D000130101FF2320510003AE0300130E1E0085
:1000E00023A0C30163080300970000009380C003AE
:1000F0006F10D01D73252034B70200809382F2FF69
:1001000033755500EF00801597720000938202CD81
:1001100013153500B382A20003A5020003A3420019
:10012000E700030017930000130383C18323030038
:100130009383F3FF232073008322010013810200C5
:1001400083238300032E030263087E089792000036
:10015000938202BF03A382002326830223289302F3
:10016000232A2303232C3303232E43032320530565
:10017000232263052324730523268305232893055F
:10018000232AA305232CB3052324230297830000ED
:100190009383834E03AE03002326C30703A3020207
:1001A00023A46200032183020324C30283240303E4
:1001B0000329430383298303032AC303832A0304F4
:1001C000032B4304832B8304032CC304832C0305D8
:1001D000032D4305832D83058322810473901234FC
:1001E0008322C104739002308320010083214100E7
:1001F000032281008322C1000323010183234101E3
:10020000032E8101832EC101032F0102832F41029E
:10021000032581028325C1020326010383264103AE
:10022000032781038327C103032801048328410492
:100230001301010573002030730000009792000045
:10024000938202B003A382008323C3061375850043
:10025000F3220530138503006780000013031000AC
:10026000B312A30073B3423467800000F32220343A
:1002700037030080B3F262001305000063840200BC
:08028000130515006780000062
:100288006300060293070002B387C740634CF0007F
:10029800130506FE1307000033D5A50093050700D4
:1002A8006780000033D7C5003355C500B395F50006
:1002B8003365B5006FF09FFE130101FD2322910203
:1002C80023286101232611022324810223202103EC
:1002D800232E3101232C4101232A510123267101A8
:1002E8002324810123229101130B05009384050027
:1002F800639C06381304060093090500177900006B
:10030800130949C663F8C512B7070100938A0500A7
:100318006378F6109306F00FB3B6C60093963600CE
:10032800B357D6003309F90003470900B306D700CD
:10033800130700023307D740630C0700B394E400A7
:10034800B356DB003314E600B3EA9600B319EB00AA
:10035800135B040193050B0013850A00EF0040634B
:100368001309050093050B00931B040113850A006C
:10037800EF00805D93DB0B019304050093050500F6
:1003880013850B00EF0080501319090113D70901D9
:100398003367E900138A0400637EA70033078700E8
:1003A800138AF4FF636887006376A700138AE4FF63
:1003B80033078700B304A74093050B001385040097
:1003C800EF00005D1309050093050B001385040079
:1003D800EF008057939909019304050093050500E0
:1003E8001319090113850B0093D90901EF00004A7D
:1003F800B36939011386040063FCA900B309340109
:100408001386F4FF63E6890063F4A9001386E4FF0A
:1004180093170A01B3E7C700130A00006F0000131F
:10042800B707000193060001E36CF6EE930680011E
:100438006FF01FEF138A0600631A06009305000089
:1004480013051000EF00405013040500B707010022
:10045800637CF4129307F00F63F48700130A80009B
:10046800B35744013309F900834609001306000213
:10047800B38646013306D64063120612B38484401D
:10048800130A1000135B040193050B001385040085
:10049800EF0000501309050093050B0013850400B5
:1004A800931B0401EF00404A93DB0B019304050002
:1004B8009305050013850B00EF00403D1319090152
:1004C80013D709013367E900938A0400637EA70004
:1004D80033078700938AF4FF636887006376A70071
:1004E800938AE4FF33078700B304A74093050B0002
:1004F80013850400EF00C0491309050093050B009C
:1005080013850400EF004044939909019304050002
:10051800930505001319090113850B0093D90901E7
:10052800EF00C036B36939011386040063FCA900E3
:10053800B30934011386F4FF63E6890063F4A90064
:100548001386E4FF93970A01B3E7C70013850700F2
:1005580093050A008320C1020324810283244102F7
:10056800032901028329C101032A8101832A410148
:10057800032B0101832BC100032C8100832C410034
:100588001301010367800000B7070001130A000187
:10059800E368F4EC130A80016FF09FEC3314C40095
:1005A80033DAD400B319CB00B356DB00135B040174
:1005B800B394C40093050B0013050A00B3EA960030
:1005C800EF00003D1309050093050B0013050A0011
:1005D800931B0401EF00403793DB0B0193040500E4
:1005E8009305050013850B00EF00402A1319090134
:1005F80013D70A013367E900138A0400637EA70052
:1006080033078700138AF4FF636887006376A700BF
:10061800138AE4FF33078700B304A74093050B0050
:1006280013850400EF00C0361309050093050B007D
:1006380013850400EF00403193040500930505007D
:1006480013850B00EF00802493960A011319090102
:1006580093D60601B367D9001387040063FEA70089
:10066800B38787001387F4FF63E8870063F6A70062
:100678001387E4FFB3878700131A0A01B384A740DE
:10068800336AEA006FF01FE063ECD51EB70701007C
:1006980063F4F6049305F00F33B5D5001315350050
:1006A80033D7A600977700009387C78BB387E700F7
:1006B80083C50700130A0002B385A500330ABA40B0
:1006C80063160A0293071000E3E296E83336CB007C
:1006D800934716006FF09FE7B70700011305000165
:1006E800E3E0F6FC130580016FF09FFBB35AB600F8
:1006F800B3964601B3EADA0033D9B400B39744019C
:10070800B355BB0093DB0A01B3E4F50013050900F8
:1007180093850B00B3194601EF00802713040500E9
:1007280093850B0013050900139C0A01EF00C021F3
:10073800135C0C01130905009305050013050C0053
:10074800EF00C0141314040113D704013367E40045
:10075800930C0900637EA70033075701930CF9FF38
:10076800636857016376A700930CE9FF33075701C5
:100778003309A74093850B0013050900EF004021BA
:100788001304050093850B0013050900EF00C01B37
:10079800130905009305050013050C00EF00000F71
:1007A800939704011314040193D707013367F400E6
:1007B80013060900637EA700330757011306F9FFE4
:1007C800636857016376A7001306E9FF33075701EB
:1007D80093970C01370E0100B3E7C7001308FEFF1B
:1007E80033F3070133F809013307A74093DE070104
:1007F80093D909011305030093050800EF000009C8
:10080800930805009385090013050300EF0000080D
:10081800130305009305080013850E00EF00000779
:10082800130805009385090013850E00EF000006E4
:1008380093D6080133030301B386660063F4060107
:100848003305C50113D606013305A6006366A70262
:10085800E314A7BC370701001307F7FFB3F6E60058
:1008680093960601B3F8E80033164B01B3861601D8
:10087800130A0000E37CD6CC9387F7FF6FF0DFB94B
:10088800130A0000930700006FF05FCC1306050001
:100898001305000093F61500638406003305C500B0
:1008A80093D5150013161600E39605FE6780000021
:1008B800130101FF1383060023261100130E050000
:1008C800930805009306060013070000930700002D
:1008D8001308000013F51600931E1700630C05009B
:1008E8003385080133380501B387E700B307F800FB
:1008F8001308050013D7F80193D6160033E7EE0066
:1009080093981800E39806FC638805001305060011
:10091800EFF0DFF7B387A700630A030013050E00A3
:1009280093050300EFF09FF6B307F5008320C1009D
:100938001305080093850700130101016780000073
:100948006340050663C60506138605009305050082
:100958001305F0FF630C060293061000637AB600D5
:100968006358C0001316160093961600E36AB6FE85
:100978001305000063E6C500B385C5403365D5009F
:1009880093D6160013561600E39606FE67800000FD
:1009980093820000EFF05FFB13850500678002007B
:1009A8003305A04063D80500B305B0406FF0DFF908
:1009B800B305B04093820000EFF01FF93305A04063
:1009C800678002009382000063CA0500634C05003B
:1009D800EFF09FF71385050067800200B305B0406C
:1009E800E35805FE3305A040EFF01FF63305B0408D
:1009F8006780020067800000130101FF2324810043
:100A0800378400801304046D832704002326110013
:100A1800938717002320F400EF40D04A8305E500B0
:100A280093851500EF408079EF4050068327040036
:100A38008320C100938717002320F400032481003A
:100A4800130101016780000037150080930500003D
:100A5800130505C06F1080096F209004130101FF72
:100A68002324810037840080131545001304045F94
:100A78003304A4008325C40003264400377500808E
:100A88001305051423261100EF20400393050400E5
:100A9800032481008320C100379500801305C58891
:100AA800130101016F308001130101FE9305050058
:100AB800232C81001304050037850080130505A544
:100AC800232E1100232A91002328210123263101F6
:100AD800EF10D07EEF50506A93090500130504000B
:100AE80013890500EF40101AEF501069B30935411A
:100AF80033353501B3852541B384A540378500805A
:100B0800130585A7EF10907B9357F44163C2F40255
:100B18006394970063EE8900130744013334870018
:100B28003304F4006366940063988404637637059D
:100B380037760080B785008037850080938545A982
:100B48001305C5A99306E02B1306C60BEF10107703
:100B5800032481018320C101832441010329010168
:100B6800938509008329C100378500801305C5AA2C
:100B7800130101026F109074032481018320C101C5
:100B880083244101032901018329C100378500809D
:100B98001305C571130101026F401040130101FFD5
:100BA80023248100131455003304A4401314240093
:100BB800330585001314350037750080930504004C
:100BC8001305C50F23261100EF10506F13050400FD
:100BD800EF40906B3775008013050512EF10106E0B
:100BE800032481008320C100378500801305C57167
:100BF800130101016F40503A130101FF23248100C2
:100C08003784008013040471232291008324040094
:100C180023261100638C0400930710006386F402F6
:100C28009307F0FF2322F4006F00C000EF409029E3
:100C38002324A4008320C1000324810083244100CD
:100C48001301010167800000EF40D06163060500D1
:100C5800232404006FF01FFEB797008083A747D4B2
:100C68008387E70063D60700232494006FF09FFC76
:100C7800930720002324F4006FF0DFFB130101FD2C
:100C8800232E1100232C8100232401032326110382
:100C9800631605041386060037850080930607004F
:100CA80013870500B7850080138407009385C5ACBA
:100CB80093078102130505AF2326F100EF1010609A
:100CC8008325C10013050400EF10505C37850080B0
:100CD8001305C5C6EF10905EEF2080598320C1012F
:100CE800032481011301010367800000130101FE41
:100CF800232E1100232C8100232A9100232821016F
:100D0800232631012324410123225101EF40901B66
:100D180093050000EF40804A37850080130545831E
:100D2800EF10D05937840080EF40D01913040471B4
:100D3800930A05002320040023220400EFF0DFD0EB
:100D48000325440037790080B7840080378A008003
:100D5800B789008093074A86130709081386C4AC2D
:100D68009385C9879306401C13351500EFF01FF1D2
:100D780003258400B7870080B78500803305554177
:100D8800130709081386C4AC9306701C9385058B5A
:100D98009387878913351500EFF05FEE378500805C
:100DA8001305458EEF109051930710002320F4008F
:100DB80023220400EFF05FC90325440093074A8605
:100DC800130709081386C4AC9385C9879306E01CEA
:100DD80013351500EFF09FEA03258400B7870080DC
:100DE800B7850080130709081386C4AC93878790DA
:100DF8009306101D9385859213351500EFF01FE8B3
:100E0800378500801305C594EF10504BEF4090458F
:100E180013451500B7870080B785008013070908B8
:100E28001386C4AC938707989306401D9385059A4B
:100E38001375F50FEFF09FE4B797008083A747D4A9
:100E4800032481018320C1010388E7008329C100AD
:100E5800032A8100832A4100130709081386C4ACBA
:100E680003290101832441011345F8FFB787008056
:100E7800B78500809387879B9306801D9385C59EC1
:100E88001355F501130101026FF05FDF6780000061
:100E9800130101FE23282101232E1100232C810098
:100EA800232A91002326310123244101EF50502B9E
:100EB80013090500EF50D02AE30EA9FE1309190003
:100EC8009304000013040000EF5090296300250BE1
:100ED80093D7C401130570001314440033E487004A
:100EE800EF10D046EF50D02793944400130A050022
:100EF800130900009309000063942409631234095C
:100F0800EF50102613057000EF1050431304000033
:100F1800930400006312890863909908EF505024E5
:100F2800032481013305AA408320C10183244101A0
:100F3800032901018329C100032A8100B7870080A2
:100F48003777008037860080B7850080938707A1B0
:100F5800130787069306C0171306C6AC938505A327
:100F68003335A000130101026FF05FD1938714009D
:100F780033B7970033048700938407006FF0DFF4DA
:100F8800EF50101E9307190033B72701B309370133
:100F9800138907006FF05FF6EF50901C9307140059
:100FA80033B78700B3049700138407006FF09FF6E8
:100FB8006F20002F130101FEB7160080B79500803F
:100FC800379500802322010023200100930840FF69
:100FD800130800009307000013070000938686009B
:100FE80013060020938505171305C581232E1100CC
:100FF800EF40905A8320C10113010102678000006D
:10100800B78700809387076D03A70700130101FEC8
:10101800232C81001304050037850080232E11003E
:1010280013071700232A91002328210123263101C1
:10103800232441019305F0FF1305C57223A0E7009F
:10104800EF40D003EF40006893090500377A00802D
:101058003305A440B777008037840080B7840080C8
:10106800B7750080130904719387472A3335A000A8
:1010780013078A099306A01E1386C4AC9385452CD2
:10108800EFF0DFBF2320090023220900EFF0DF9BE8
:1010980083274900130404711305000063980700AF
:1010A800032584003305354113351500B7770080D3
:1010B800B775008013078A091386C4AC9306401FCE
:1010C800938505329387072FEFF05FBB93071000D6
:1010D8002320F40023220400EFF01F9783278400C5
:1010E80003254400B775008013078A093365F500A6
:1010F800B77700801386C4AC938787369306A01F02
:101108009385853913351500EFF05FB7EF409015DB
:1011180013451500B7770080B785008013078A0943
:101128001386C4AC9387073D9306C01F9385059A21
:101138001375F50FEFF09FB4B797008083A747D4D6
:10114800032481018320C1010385E70003290101EC
:101158008329C10013078A091386C4AC032A8100B6
:1011680083244101B7770080B775008093870740D3
:101178009306F01F938545421355F50113010102AB
:101188006FF0DFAF130101FEB7160080B79500803E
:10119800379500809307000013074001938646BAED
:1011A800130600182322010023200100930840FFA2
:1011B80013080000938505371305058A232E1100AF
:1011C800EF40903D37850080930580021305C57177
:1011D800EF40C06A8320C101B7770080377700806D
:1011E80037860080B7750080938747511307C70C6F
:1011F8009306802E1306C6AC938545541335150007
:10120800130101026FF09FA7130101FE232A910029
:10121800B78400809384046D232E1100232C810051
:1012280023A00400EF40004A93050000EF30107936
:10123800378400801305C4721306F0FF930500007D
:10124800EF400049B7160080B795008037850080C9
:10125800930840FF23220100232001001308000007
:1012680093070000130700009386066F13060020FB
:10127800938505D71305C573EF40103203A8040002
:10128800B7770080377700801305F8FF378600802E
:10129800B78500809387877E1307C70E9306C037EC
:1012A8001306C6AC9385058113351500EFF01F9D15
:1012B8001305C472EF40404E1305C472EF40C04D91
:1012C8001305C472032481018320C10183244101D1
:1012D800130101026F40404C130101F7232E31071F
:1012E800232C4107B7990080379A0080B7160080F1
:1012F800930840FF1308000093070000130720031A
:10130800938606AB130600189385093713050A8AD6
:101318002322010023200100232611082324810809
:101328002322910823202109232A51072328610712
:101338002326710723248107232291072320A1074D
:10134800232EB105EF4050253785008093054006D0
:101358001305C571EF40805237740080B77700805D
:10136800B7840080B7750080938747551307C40D6D
:10137800930630301386C4AC9385C55813351500D1
:10138800EFF0DF8F37750080B78A00801305055AA4
:10139800371D0080138B0A5F930B0A8A138909375C
:1013A800EF10C07193890937130A0A8A938A0A5F72
:1013B800130C0000930D7000930C0D0083A74A00D6
:1013C80013070C00938509002322F10013050A0076
:1013D80023200100930850FF130800009307000022
:1013E80093064DA613060018130C1C00EF40D01AE4
:1013F800938A0A01130A0A0793890918E310BCFDA6
:1014080037930080930D0000377D0080B77A008005
:10141800377A0080130C03001305C3889305E02E68
:10142800EF20C06A9309050093070D5D1307C40DEB
:10143800930630311386C4AC93850A603335A00017
:10144800EFF0DF8303A88900377E008093058E6460
:101458003305B84193880D0093070A611307C40D3B
:10146800930670311386C4AC13351500EFF01F8155
:1014780003A6490083A5C9003775008013050567D1
:10148800EF10C063377E0080938D1D0093077000B6
:10149800232CC10137930080E390FDF81305C3881E
:1014A8009305E02EEF208062377A0080B77A0080BB
:1014B80093070A6A1307C40D930600321386C4AC57
:1014C8009385CA6C13351500EFF04FFB3775008014
:1014D8001305C56DEF10805EB77500801306000117
:1014E800938585F513054102EF10103D930D4103D7
:1014F80013030B00130D00009309700083274300AA
:1015080013070D00930509002322F10013850B0032
:1015180023200100930850FF1308000093070000E0
:1015280093864CA613060018232E6100EF40D006C0
:101538000323C10123A0AD00130D1D0013030301F4
:10154800938B0B0713090918938D4D00E3183DFB86
:10155800B71B000013090B0093090000130D0000CE
:10156800930C7000938BEBAB93972900130701053D
:10157800B307F70083A747FD638EA71193850B0078
:101588001305CC88EF208054B7770080B7750080AA
:10159800930D05009387075D1307C40D9306E03488
:1015A8001386C4AC938505603335A000EFF00FEDCA
:1015B80003A88D0083258101B777008033050D418D
:1015C80093870761930620351386C4AC9385856499
:1015D8001335150093080D001307C40DEFF00FEA3B
:1015E80083A68D0003A64D0083A5CD00B7770080A4
:1015F8001385C770EF10804C130D1D0013090901E6
:10160800E3149DF71385C9FFB7770080B77500808D
:101618001307C40D1386C4AC938809009387877792
:101628009306B035130840009385457B13351500A4
:10163800EFF0CFE49305E02E1305CC88EF200049A6
:101648001307C40D032481088320C1080329010856
:101658008329C107032B0107832BC106032C8106AD
:10166800832C4106032D0106832DC10593070A6AC1
:101678001386C4AC032A8107832441089385CA6C66
:10168800832A41079306F035133515001301010924
:101698006FF0CFDE032649008325C900B7770080A5
:1016A8001385477493060D00EF10404113070B0094
:1016B8009307000083268700638AA6019387170093
:1016C80013070701E39897FF6FF05FEB1307010516
:1016D80093972700B307F70003A547FE93891900DE
:1016E800EF40D0056FF05FF1130101FD2324810263
:1016F800378400801304046D83270400232E3101EE
:10170800B7890080938717009305F0FF1385C97286
:10171800232611022322910223202103232C410195
:101728002320F400EF408015EF30D079130A05002C
:10173800B7160080B795008037850080930830FF82
:101748001308000023220100232001009307000052
:1017580013070000938606A013060020938505F75B
:101768001305C57A23200400EF4000630325040015
:1017780037790080B7840080B7770080B77500801C
:101788001307C90A1386C4AC9387C7169306802427
:101798009385051A13351500EFF04FCEEF30102F53
:1017A80003280400B7770080B77500801307C90ABB
:1017B8001386C4AC333500019387471C9306202554
:1017C8009385C51FEFF08FCB03280400B7770080FF
:1017D800B77500801307C90A1386C4AC13252800FF
:1017E8009387C7219306602593854525EFF00FC998
:1017F8008305EA0013050A009385F5FFEF30101CF6
:10180800EF30D02803250400B7770080B785008023
:101818001305F5FF1307C90A1386C4AC9385058120
:10182800133515009387472793060026EFF00FC559
:10183800032481028320C102832441020329010277
:10184800032A81011385C9728329C1019305F0FF19
:10185800130101036F40800237850080130101FFE7
:101868001306F0FF930500001305C5712326110028
:10187800EF301066379500809305000013060000CE
:10188800130505BBEF504012379500801305C58836
:10189800EF2000218320C100B785008037850080B4
:1018A80093858552130585A4130101016F105022F9
:1018B800130101FF232611002324810093076000F0
:1018C8006304F502EF40001A63040502EF40801933
:1018D80063160504B7850080938585DC378500800D
:1018E8001305C5DDEF10801DEF1040246FF0DFFFFA
:1018F800EF404018E31C05FC379400801304C4D360
:1019080083258400378500801305C5DFEF10001B91
:1019180003258400EF4080626FF01FFDB7850080CB
:10192800938545DC6FF09FFB130101FB23248104A1
:1019380023229104232611049307600093040500D1
:101948001384050063E0A70E3787008093172500EE
:10195800130787B1B387E70083A7070067800700ED
:1019680037850080130585C4EF104015EF3090557A
:1019780083274404832804010328C4002328F10290
:101988008327040403274400832604002326F10246
:101998008327C40303268404930505002324F10246
:1019A80083278403378500801305C5CC2322F102E1
:1019B800832744032320F10283270403232EF10005
:1019C8008327C402232CF10083278402232AF100F1
:1019D800832744022328F100832704022326F100E9
:1019E8008327C4012324F100832784012322F100E3
:1019F800832744012320F10083278400EF10000C83
:101A08009305040013850400EFF09FEA37850080F2
:101A1800130505C76FF05FF5378500801305C5C846
:101A28006FF09FF43785008093850400130585CAFD
:101A3800EF10C0086FF09FF3130101FF232481000A
:101A480023261100130405007326203413161600EC
:101A5800135616009307500063E8C70237870080C3
:101A680093172600130747B3B307F70083A50700AA
:101A780037850080130545B5EF1040049305040031
:101A880013050000EFF05FEAB78500809385C5B4C1
:101A98006FF01FFE130101FF23261100F3252034E8
:101AA800378500809395150093D51500130545E2F9
:101AB800EF10C000B7850080938505B71305400077
:101AC800EFF09FE6B78700809387476D03A707006D
:101AD800630C070003A3070023A00700B787008053
:101AE80003A5876D670003006780000093078000E7
:101AF800F3B7073037870080232AA76C3787008021
:101B0800232CB76C7300000093F78700F3A7073006
:101B180067800000130101FF23261100EF109036A3
:101B2800EF10C003EF10D03C17910000130101AC77
:101B3800B71200009382028033015100EFF09FFD3D
:101B48006F001011130101FD232481022322910249
:101B580023202103232E3101232C4101232A510163
:101B68002328610123267101138B07002326110204
:101B7800232481019307F0009304050013840500D2
:101B880093090600138A0600930B0700930A0800BE
:101B980013890800639AF808B73700809387476568
:101BA800639AF60883260103930509001385040048
:101BB80013064000EF30507E938509FBB305B4004F
:101BC800B727000023AE040423A0040693F505FFFD
:101BD8009387078823A6F504B72700808320C102CE
:101BE80003248102938787B423A4450323A675039E
:101BF80023A8650323AA550323A4F50423A4B40248
:101C080003290102832441028329C101032A810196
:101C1800832A4101032B0101832BC100032C81007E
:101C28001301010367800000938608019307E00110
:101C3800E3FAD7F6378C0080B785008037850080B7
:101C48001306CCE4930680019385C5E6130585EF5A
:101C5800EF00D0663785008093050900930600FFE2
:101C68001306E000130585F1EF0050659305800128
:101C78001305CCE4EF0050686FF0DFF2939715007E
:101C8800B387B700139727008327C500B387E700FA
:101C98000307B5006354B70083A707001357F6413D
:101CA8001377F7013307C700135757401317270057
:101CB800B387E70023A0F6001375F60167800000DC
:101CC800130101FE9306C100232E1100EFF01FFB44
:101CD8000327C100930710003395A7008327070047
:101CE8008320C101B3E7A7002320F70013010102F5
:101CF80067800000130101FE9306C100232E110026
:101D0800EFF0DFF70327C100930710003395A70012
:101D1800832707008320C1011345F5FF33F5A7008A
:101D28002320A7001301010267800000130101FEB0
:101D3800232A910083244500232C810013040500E5
:101D480003558500938504002328210123263101AA
:101D5800232441012322510123206101232E110054
:101D6800EFE0DFB283290400834AA4009307F0FF61
:101D7800130A0500B389A900A305F400130900009C
:101D8800130BF001634C590393040000835784003C
:101D980063CCF4088320C101032481018324410119
:101DA800032901018329C100032A8100832A4100F4
:101DB800032B0100130101026780000093850400D2
:101DC80013050A00EFE05FB813171900330727015E
:101DD800931727000327C4003307F700930747002A
:101DE8002322F7002324F700634EAB00A305240148
:101DF80093D424009384340093F4C4FF1309190086
:101E08006FF05FF81305F5019357F54193F7F70164
:101E1800B387A70093D7574093972700232037010C
:101E2800B389F9006FF0DFFC8325440013850400B3
:101E3800EFE0DFA583270400138604009305000064
:101E48003385A7008327C4009384140013874700B1
:101E58002320E50003A787002322E50003A78700C6
:101E68002320A70023A4A70013050400EFF05FE5D3
:101E78006FF0DFF1130101FA232C810423225105AD
:101E8800232E1104232A9104232821052326310512
:101E98002324410523206105232E7103232C81036C
:101EA800232A91032328A1032326B103130401063F
:101EB800034EA5009308000093172E009387F700A0
:101EC80093F7077F3301F14083274500930A010008
:101ED80013830A009387370093F7C7FF23A0FA00FC
:101EE800138BF8FF63D4C803638C08000328C3FF6F
:101EF80013582800130838001378C8FF232003015B
:101F0800130343000328C3FF637AB8049305F0FF63
:101F1800631ABB0423200700130540FF130104FACA
:101F28008320C10503248105832441050329010574
:101F38008329C104032A8104832A4104032B010451
:101F4800832BC103032C8103832C4103032D01033D
:101F5800832DC102130101066780000093881800D1
:101F68006FF01FF8834505011309000093F515006C
:101F780063880500130980007339093013798900D3
:101F8800232AE4FA13171B00232CD4FA330767011A
:101F98008326C50013172700130747003387E60079
:101FA800232EC4FA93040500130A0B009306F0FFCE
:101FB800832907006306371913172A0083A64900E7
:101FC800B38CEA0003A7090083A50C00130D800059
:101FD80023A0E6002322D70023A0090023A209009A
:101FE80003A504003385A940EFE09F95130605007B
:101FF80093050A0013850400EFF0DFCF130A1A00D7
:102008009306FAFF63CA660503C70401137717002E
:102018006304070073290930832744FB130540FF35
:1020280023A03701E38C09EE8327C4FB03A5040032
:1020380023A0670193172B00B38AFA0083A50A002F
:102048003385A940EFE0DF8F832784FB23A0A70017
:10205800130500006FF09FEC03A5040083A50C0096
:10206800930B10003385A940EFE09F8D93181A0059
:10207800B3884801931D25009398280083A64C0037
:1020880093850B00232614FB138506002328D4FA16
:10209800EFE0CFFF338CA9003386BB0193050A001C
:1020A80013850400EFF0DFC1832604FB03A60400B8
:1020B80083A544009386F6FF03D58400B306DC00AD
:1020C800B386C6402328D4FAEFE04FFC832604FBEE
:1020D8008328C4FA63F4A60283A6C400B386160153
:1020E800138646002320CC0003A686002322CC00BA
:1020F80003A686002320860123A48601938B1B0058
:1021080093074000E39CFBF683C6040193F6160090
:10211800639A060013090000130A1A00938C4C00F6
:102128006FF01FEE7329093083C6040193F6160079
:10213800E38206FE73390D30137989006FF0DFFDF5
:10214800130AFAFF138749FFE314DAE6930900003C
:102158006FF09FEB130101FA232C8104232441051E
:10216800232A9103232E1104232A910423282105CD
:10217800232631052322510523206105232E7103CF
:10218800232C81032328A1032326B103130401066A
:102198000347A500930C0500131727001307F70042
:1021A8001377077F3301E14003274500130A010035
:1021B80093060A00130737001377C7FF2320EA00A6
:1021C800130510009386460063F0A50C03C70C01A5
:1021D800138905009309060013771700930400007C
:1021E8006308070093048000F3B4043093F4840078
:1021F800378B00806358090AB7840080B785008050
:10220800378500801386C4F49306000C938545FB3C
:10221800130585EFEF00900A37850080130505F850
:10222800EF00D0091385C4F49305000CEF00D00C1F
:102238009304F0FF83C70C0193F717006386070028
:1022480093F48400F3A40430130104FA8320C10535
:102258000324810583244105032901058329C10439
:10226800032A8104832A4104032B0104832BC1031D
:10227800032C8103832C4103032D0103832DC10209
:10228800130101066780000003A7C6FF13051500A8
:1022980013572700130737001377C7FF23A0E6005B
:1022A8006FF05FF2131729003307EA00832A07004B
:1022B80003AC0C001385090093850A00EFE00FDDDD
:1022C800938BFAFF330D7501330CAC0083A54C00DA
:1022D80003D58C00EFE08FDB636CAD02B78700801D
:1022E800938507F6B7870080138587EF9306400A22
:1022F8001306CBF4EF00807CB78700801385C7F7FF
:10230800EF00C07B9305400A1305CBF4EF00C07EB5
:10231800138609009305090013850C00EFF05F9AF6
:1023280013171900330727019316270003A7CC00BA
:102338003307D700930647002320DC008326870055
:102348002322DC008326870023A08601232487011B
:1023580003C70C0113771700631C070C93040000D4
:10236800E30A09EC9306C4FB1386090093050900E8
:1023780013850C00EFF09F908326C4FB1357F5419B
:10238800137737003307A70003A506001377C7FFA5
:102398009307F0003357E5001377F700E31CF7E8DD
:1023A800130D000093FDC9FF3386AD011305060028
:1023B80093850A002324C4FAEFE04FCD3307750153
:1023C800130C050083A54C0003D58C002326E4FAE2
:1023D800EFE0CFCB0327C4FA032684FA6378A70279
:1023E8009305090013850C00EFF0DF9003A70C009C
:1023F800330C870103264C0003270C002320E6003A
:102408002322C70023200C0023220C00130D1D00DB
:1024180093074000E31AFDF813D6F9411376360006
:10242800B30936011309F9FF93D929406FF09FDCEE
:10243800F3A4043003C70C0113771700E30007F275
:1024480093078000F3B4073093F484006FF05FF1D2
:10245800130101FF93070500138505009305060086
:102468001386060023261100E7800700EF30802539
:10247800EF30D02C1305000067800000130101FF26
:10248800232481001304050013055004232611009A
:102498002322910093840500E7000400938504003B
:1024A80013052005E700040013030400032481003A
:1024B8008320C1009385040083244100130520056F
:1024C800130101016700030083A705009387170024
:1024D80023A0F500B787008003A307666700030001
:1024E800130101FC232C81022326310323244103F9
:1024F800232061032328A101232E1102232A9102FC
:102508002328210323225103232E7101232C810127
:10251800232A91012326B10193090500138A050096
:10252800130D0600138B0600130410006354E0001B
:102538001304070093071000930C00026314FB00B8
:10254800930C0003B7D49A3B13091000930AA00018
:10255800130C00009384F49F930D2000938B1400B8
:1025680063140C0063F2A40B93850B0013050D0094
:10257800EFE08FBD93050A0013050503E780090006
:1025880013091900130C100093850B0013050D0097
:10259800EFE00FC0130D05009305A000138504009C
:1025A800EFE08FBA938AFAFF9307100093040500AF
:1025B800E396FAFA93050A0013050D03E78009006C
:1025C80093073000330424416306FB068320C103CC
:1025D8000324810383244103032901038329C102BE
:1025E800032A8102832A4102032B0102832BC101A2
:1025F800032C8101832C4101032D0101832DC1008E
:102608001301010467800000E34054F9E3EE6DF71D
:1026180093050A0013850C00E780090013091900C7
:102628006FF09FF693050A0013050002E780090082
:102638001304F4FFE34880FE6FF05FF9B78700806A
:1026480023A0A76667800000130101FB23248104EF
:102658002322910423202105232E3103232C410317
:10266800232A5103232291032320A103232EB101FE
:1026780023261104232861032326710323248103BD
:102688001304050093840500930A0600138D0600C1
:10269800130A00001309F0FF93090000930C0000CF
:1026A800B70D008003C50A00631005048320C10428
:1026B8000324810483244104032901048329C103D9
:1026C800032A8103832A4103032B0103832BC102BD
:1026D800032C8102832C4102032D0102832DC101A9
:1026E8001301010567800000639E0C0093065002E9
:1026F800630CD53693850400E7000400938A1A001A
:102708006FF05FFA930640066300D51263E2A606EF
:102718009306900363EAA602930610036374D50E2A
:102728009306D002630CD534930700036300F50CBD
:10273800130750026312E502938504001305500243
:10274800E70004006F000016930680056300D51C9F
:10275800130730066300E530938504001305500223
:10276800E70004009385040003C50A006FF05FFDCD
:1027780093060007630CD51663E0A602930690063D
:102788006304D50A9306C006630CD5089306800631
:10279800E306D5F66FF05FFC930650076308D51083
:1027A80063EEA60213073007E318E5FA032C0D00C1
:1027B800130B4D00930B0C0003C50B00631A052681
:1027C800930730006398F900B38B8B41B30B7941C1
:1027D80063487027130D0B006F00C00C9306800729
:1027E8006306D5129306A0076FF09FFA635E09008F
:1027F800638A0928130905FDE39209F0930920006B
:102808006FF0DFEFE34809FE9316290033892601AC
:1028180013191900130909FD330925016FF0DFFDAC
:10282800130A1A006FF09FED63120A0403260D00C5
:10283800130D4D0063500602938504001305D00262
:102848002320C100E7000400032601001309F9FF53
:102858003306C040130709009386090093850400D6
:1028680013050400EFF0DFC76F00C0031307100063
:10287800E30EEAFA93077D0013F787FF03260700A4
:1028880083264700130D87003307B6013337C70087
:102898003307D700E30007FA938504001305040003
:1028A800EFF0DFBD930C00006FF05FE563180A00DE
:1028B80003260D00130D4D006FF0DFF9130710000C
:1028C800E308EAFE93077D0013F787FF130D8700DF
:1028D8000326070003274700E31007FCB70700801B
:1028E80093C7F7FFE3F8C7F66FF01FFB9385040063
:1028F80013050003E700040093850400130580070F
:10290800E7000400130980009309100093061000E3
:1029180063C2460B83270D0023240100130D4D00CD
:102928002322F100130C0001930B00002320010067
:10293800930800010325410083258100138BF8FFCC
:1029480013162B0023261101EFD09F931375F50062
:10295800631805088327010093060003639807009E
:102968008328C100930710006396F8083385A600F2
:10297800131585019385040013558541E70004006C
:10298800938B1B0063180B0493063000930C000014
:10299800E396D9D613171900B30B7741E35470F1B6
:1029A8009385040013050002E7000400938BFBFFE6
:1029B8006FF0DFFE93077D0093F687FF83A706007D
:1029C800138D86002322F10083A746002324F100FB
:1029D8006FF05FF52320910193080B006FF09FF5CE
:1029E8009307900093067005E3E2A7F893060003A7
:1029F8006FF0DFF79307FCFF2326F100634C890192
:102A080093071000639CF9009385040013050003E5
:102A1800E7000400032CC1006FF01FFC930720009F
:102A2800E39AF9FE93850400130500026FF05FFE38
:102A380093850400938B1B00E70004006FF0DFD739
:102A48009385040013050002E7000400938BFBFF45
:102A58006FF01FD803250D0093850400130B4D005C
:102A6800E70004006FF01FD7130A00001309F0FFF6
:102A780093090000930C10006FF05FC893093000B1
:102A88006FF0DFC7930910006FF05FC7130101FEF5
:102A98001306050037250080938605001305054DAC
:102AA8009305C100232E110023260100EFF0DFB9A2
:102AB8008320C1011301010267800000130101FC9A
:102AC8002322B10293054102232E11002324C102BF
:102AD8002326D1022328E102232AF102232C010311
:102AE800232E11032326B100EFF05FFA8320C101E2
:102AF8001301010467800000B785008037850080D6
:102B0800130101FF938505F9130545FA1306E00142
:102B180023261100EFF09FFAB7850080938505B74B
:102B280013056000EFE05FE0678000009307800016
:102B3800F3A7073073005010678000009307100058
:102B48003395A70073254530678000009307100070
:102B58003395A700733545306780000093078000E0
:102B6800F3B707307350403073504034678000002B
:102B7800130101FF23248100232291003784008060
:102B8800232611009307A000930405001304C46DC5
:102B9800631CF500032504009305D0008327450036
:102BA80083A74700E78007000325040093F5F40F87
:102BB8008327450083A74700E78007008320C100DB
:102BC80003248100138504008324410013010101BB
:102BD80067800000130101FF23248100373400803F
:102BE800130584B723261100EF00005F130584B78F
:102BF800032481008320C100130101016FF01FA489
:102C080037850080130101FF130505FB23261100FA
:102C1800EF00101AB787008023AEA76CEFF09FFB78
:102C28008320C10013050000130101016780000023
:102C3800B70710F003A747F403A507F483A547F4E3
:102C4800E39AE5FE67800000130101FE232C810052
:102C5800232E1100232A9100232821012326310144
:102C680023244101232251011304800073340430CA
:102C7800378900801305096E13748400EF20907360
:102C8800631E0502B7840080B78500803785008001
:102C98009385C5FD9306E004138644FC130585EF70
:102CA800EFF0DFE137850080130545FFEFF01FE106
:102CB8009305E004138544FCEFF01FE41305096E47
:102CC800B7840080EF2090749384046CEFF05FF673
:102CD80083A9040083AA44009307050033053541FE
:102CE800B3B7A700B385554137D601001306064C84
:102CF80093060000B385F540EFD00FDC130A0500FA
:102D0800B7D501009385054C13050A00EFD01FB80D
:102D1800B309350133B5A9003305550123A2A40031
:102D28001305096E23A03401EF20506B631E0502C2
:102D3800B7840080B7850080378500809385C500FB
:102D480093061006138644FC130585EFEFF01FD792
:102D58003785008013054502EFF05FD6930510060E
:102D6800138544FCEFF05FD97324043003248101F8
:102D78008320C10183244101032901018329C10062
:102D8800832A410013050A00032A81001301010266
:102D98006F301007130101FF23261100EFF05FE9E0
:102DA800B7D701009387074C370710F0B307F50032
:102DB8009306F0FF2326D7F433B5A7003305B500F3
:102DC8002324F7F42326A7F413057000EFF01FD788
:102DD8008320C10013050000130101016780000072
:102DE8006392051A130101FE232E1100232C810082
:102DF800232A91002328210123263101232441017C
:102E080023225101232061019307F0FF6316F50087
:102E1800379500001305E5BCB79700001304F5FFCC
:102E28009387E7BC63DA87141384070013098000CB
:102E380073390930B78A008013850A6E13798900BF
:102E4800EF205057631E0502B7840080B7850080C5
:102E5800378500809385C5FD9306E004138644FCFE
:102E6800130585EFEFF09FC537850080130545FFF3
:102E7800EFF0DFC49305E004138544FCEFF0DFC7EF
:102E880013850A6EEF209058EFF09FDAB78700801D
:102E98009387076CB7D4010083A90700130A0500BC
:102EA8009385044C1305040003AB4700EFD01F9E25
:102EB8009387F44BB38737413305F5009385044C6A
:102EC8003305AA00EFD05FA89385044CEFD01F9C70
:102ED800338A4941330AAA009307703E63C6470103
:102EE8009384044C33059500B70710F0B3093501F6
:102EF8001307F0FF23A6E7F433B5A90033056501EE
:102F080023A437F523A6A7F413850A6EEF20104DE6
:102F1800631E050237840080B785008037850080EE
:102F28009385C50093061006130644FC130585EF28
:102F3800EFF0DFB83785008013054502EFF01FB8C2
:102F480093051006130544FCEFF01FBB73290930E5
:102F58008320C10103248101832441010329010144
:102F68008329C100032A8100832A4100032B010021
:102F78001301010267800000E35A04EA1304000009
:102F88006FF0DFEA67800000130101FF232481004E
:102F980023261100232291002320210113048000FD
:102FA80073340430B78400801385046E137484006E
:102FB800EF205040631E050237890080B7850080E6
:102FC800378500809385C5FD9306E004130649FC08
:102FD800130585EFEFF09FAE37850080130545FF99
:102FE800EFF0DFAD9305E004130549FCEFF0DFB027
:102FF8001385046EEF209041EFF09FC3B7870080E0
:1030080083A7076CB7D501009385054C3305F540B8
:10301800EFD09F93130905001385046EEF20103C31
:10302800631E0502B7840080B7850080378500805D
:103038009385C50093061006138644FC130585EF97
:10304800EFF0DFA73785008013054502EFF01FA7D3
:1030580093051006138544FCEFF01FAA732404306F
:103068008320C10003248100130509008324410043
:10307800032901001301010167800000130101FF0A
:1030880023261100EFF0DFBA8320C10013010101EC
:10309800678000008347050003C705006394E700C5
:1030A800639607003385E740678000001305150025
:1030B800938515006FF01FFEB347B50093F73700EF
:1030C800638C070493070500130700006316E606E0
:1030D80067800000E30E06FE9385150003C7F5FF21
:1030E800938717001306F6FFA38FE7FE13F7370041
:1030F800E31207FE930630003308E64063E2060356
:1031080013572600931627003306D640B387D700F7
:10311800B385D5006FF05FFB930705006FF01FFDC7
:10312800B388E50083A808003388E7001307470041
:10313800232018016FF05FFC3388E500034808007E
:10314800B386E70013071700238006016FF01FF806
:1031580093F6F50F9307050013F737006314070478
:1031680093F5F50F13978500B365B700139705011D
:10317800B365B7003383C70013870700130830000F
:10318800B308E340636A1803135726009315270012
:10319800B387B7003306B6403386C7006394C702C7
:1031A80067800000E30E06FE93871700A38FD7FE03
:1031B8001306F6FF6FF05FFA13074700232EB7FEDA
:1031C8006FF01FFC93871700A38FD7FE6FF01FFDCA
:1031D8001305F0FF67800000B787008023A2A76669
:1031E80067800000130101FE232C810083278500DE
:1031F80037840080232A910013048466B7840080F2
:10320800232E110023282101232631019384446EA3
:1032180093091000232004001309050023A034019A
:10322800E78007008327490023203401E78007004F
:10323800930720002320F4008327C900E7800700B4
:10324800930730002320F4000324810123A0040005
:103258008320C10183244101032901018329C1007D
:10326800379500801305C5BD130101026F20C052B8
:1032780037950080130101FFB78700801307F0FF1F
:103288001305C5BD2326110023A2E76EEF20C05009
:10329800EF2040438320C100130101016F20104A31
:1032A80037950080130101FFB78700801307E0FFFF
:1032B8001305C5BD2326110023A2E76EEF20C04DDC
:1032C800EF2040408320C100130101016F20104707
:1032D800130101FA232A9104B784008083A7846E1E
:1032E800232E1104232C81042328210523263105AC
:1032F800232441052322510523206105232E710330
:10330800232C8103232A91032328A1032326B10315
:1033180063C407083794008013061000930905005A
:10332800138C05001305C4BD93050000EF20403A37
:10333800378500809385090013058507EFF00FF89E
:103348003789008013050909B78A0080EFF00FF765
:103358009384846E130A0000232E8100B7AC00808A
:10336800379B0080373D0080B78D0080B78B008089
:10337800938A8A0383274C00639E07049385090078
:1033880063060A103785008013050510EFF00FF368
:103398009307100023A0F4008320C10503248105AE
:1033A80083244105032901058329C104032A8104D3
:1033B800832A4104032B0104832BC103032C8103BB
:1033C800832C4103032D0103832DC1021301010640
:1033D8006780000083250C00B78700801385870D60
:1033E800EFF0CFED2322010083270C0113070C0017
:1033F8001306004093E787009308F0FF13080000C6
:103408009306CD1E2320F10093850CDF930700005F
:103418001305CBBEEF2050188327C1019305F0FF99
:103428001385C7BDEF20804593874D6E1305CBBE2E
:1034380003A40700EF209030B78700809387476E7A
:1034480003A70700130414009307E0FF13341400C4
:1034580003260C006314F702B78500809385C50E18
:1034680013854B0FEFF08FE513050909EFF00FE512
:10347800330A8A00130C4C016FF0DFEF9317240016
:10348800B387FA0083A507006FF09FFD378500809A
:1034980013058511EFF08FE283A70400B337F0001E
:1034A8006FF05FEFB787008083A7876E130101FF76
:1034B800232481003785008023261100378400806B
:1034C8001305050963820702EFF04FDFB785008017
:1034D800938545041305C404032481008320C10097
:1034E800130101016FF08FDDEFF04FDDB78500802C
:1034F800938545066FF01FFE130101FF2326110077
:10350800EFE08FB58320C100130101016FF09FF92F
:10351800130101FF232601008327C10093871700A9
:103528002326F100B70701F023A0B700130101011A
:10353800678000001305F0FF678000001305000096
:103548006780000013172500B78700801305150052
:103558009387871413152500130101FF3387E700AC
:10356800B387A700232481002322910003240700A6
:1035780083A4070023261100636C94008320C100F4
:1035880003248100832441001301010167800000A6
:10359800832704001305040083A74700E78007007A
:1035A80063040500232204001304C4006FF0DFFC49
:1035B800130101FFB787008023229100B7840080A0
:1035C80023248100232611001384C76723202101A7
:1035D8009387C7679384C46A631C94001309050022
:1035E8001384070063149402130400006F0040045E
:1035F8000327440063080700032704000327070084
:103608006308A7021304C4006FF01FFD832744005A
:10361800639607001304C4006FF0DFFC83270400DF
:103628001305090083A50700EFF0DFA6E31405FEE4
:10363800130504008320C100032481008324410072
:10364800032901001301010167800000130101FF34
:1036580023248100232291002326110013048000D3
:1036680093042000F3370430EF20905B63C4A40078
:103678001305100093051000EF205068EFF00FCBF2
:103688006FF05FFE37850080B79700801306056CE2
:10369800938787D63386C740930500001305056CCA
:1036A8006FF01FAB130101FF130520002326110043
:1036B800EFF05FE9378500801305C515EFF00FC0FF
:1036C80013053000EFF01FE8EF20407CEFF0DFE259
:1036D800B79700809387C7CC03C7C7001377E7FF66
:1036E8002386E7008320C1001301010167800000E1
:1036F800130101F6232C8108B7B7008037940080A6
:1037080023263109938707DF9309C4D323A2F9003D
:1037180093070101130600079305000013850700AE
:10372800232E1108232A910823282109EFF05FA2EC
:103738001307100023A4A90013050000A30EE1003D
:10374800EFF05FE013051000EFF0DFDF93071010D4
:10375800231EF100EF109024B78700809387071A83
:10376800379900802322F100B736008093071000B4
:10377800B7A500809304C9CC2320F10013070000EB
:103788009307000093080000130800009386C66A98
:10379800130600209385051F1305C9CC23A09902A1
:1037A800EF20803483C7D4001304C4D313F7B7FFC2
:1037B800A386E40093F7B701639A070083A78401FF
:1037C800639607001305C9CCEF00905AB7770080BD
:1037D8009387874E2322F1003795008093071000C6
:1037E800B7360080B7A500809304C5C52320F10033
:1037F8009308F00013080000930700001307000067
:1038080093864665130600209385053F1305C5C5B5
:10381800EF20802D83C7D400232694001305800051
:1038280093F7B7FFA386F400B7970080938747D52F
:10383800232CF400232EF40073350530137585000E
:10384800EFC01F9F8347D500130101FE232C810081
:10385800232E110093F7F70113040500639C07005A
:1038680083278501639807002326B100EF00505095
:103878008325C10023260406232AB4008320C1011E
:10388800032481011301010267800000130101FE76
:10389800232C8100232A910023282101232631018A
:1038A8002324410123206101232E110023225101E9
:1038B8001304050093890500130A0600138B0600FC
:1038C8001309850093048000F3B40430130509003C
:1038D80093F48400EF20002E631E0502B78A00804F
:1038E800B7850080378500809385C5FD9306E00481
:1038F80013864AFC130585EFEFF04F9C378500804F
:10390800130545FFEFF08F9B9305E00413854AFCF0
:10391800EFF08F9E13050900EF20402F1305C40018
:10392800EF10C0656300050293050A00EFF09FF1F0
:103938001305090093850400EF00C05E130500001D
:103948006F000006630E0B0A13058000EF30004677
:10395800631C050613050900EF204028631E0502B5
:1039680037840080B7850080378500809385C5003F
:1039780093061006130644FC130585EFEFF00F9429
:103988003785008013054502EFF04F939305100625
:10399800130544FCEFF04F96F3A40430130540FFE1
:1039A8008320C101032481018324410103290101EA
:1039B8008329C100032A8100832A4100032B0100C7
:1039C80013010102678000009307100023224501BC
:1039D8002320F5008327050093F737006398090231
:1039E80003270400B367F7002320F500832744006A
:1039F8002320A400E39E07F22322A4006FF05FF3C4
:103A080023200A0013050A006FF0DFFC03A7090052
:103A18001377C7FF63180702032744002320F50024
:103A2800631807002322A4002320A4006FF05FF08E
:103A38008327070093F73700B367F5002320F700C3
:103A48006FF09FFBB3E7E7002320F50083A7090089
:103A580093F737003365F50023A0A9006FF05FEDF9
:103A6800130101FF232481002326110013040500FC
:103A7800630E05008327050093F737006388070066
:103A88000324450063840500EF304031130504002A
:103A98008320C10003248100130101016780000015
:103AA8009307C500232005002322050023240500D1
:103AB8002326F5002328F5006780000013860500FB
:103AC80083254500930600006FF05FDC130101FEBB
:103AD800232C8100232A9100232821012326310148
:103AE800232E110023244101930405009389050026
:103AF800130985001304800073340430130509008A
:103B080013748400EF20000B631E0502378A0080BF
:103B1800B7850080378500809385C5FD9306E0044E
:103B280013064AFC130585EFEFE05FF9378500803F
:103B3800130545FFEFE09FF89305E00413054AFCE1
:103B4800EFE09FFB13050900EF20400C03A50400DC
:103B5800630A05088327050003A7440093F7C7FFF6
:103B680023A0F4006314E50023A2F40093051000D9
:103B7800EFF01FEF9304050013050900EF2000067E
:103B8800631E050237890080B7850080378500806D
:103B98009385C50093061006130649FC130585EFA7
:103BA800EFE0DFF13785008013054502EFE01FF1F4
:103BB80093051006130549FCEFE01FF47324043045
:103BC8008320C10103248101138504000329010115
:103BD800832441018329C100032A810013010102C2
:103BE80067800000639A090413050900EF10107F2D
:103BF800631E0502B7840080B78500803785008082
:103C08009385C50093061006138644FC130585EFBB
:103C1800EFE0DFEA3785008013054502EFE01FEA91
:103C280093051006138544FCEFE01FED7324043060
:103C3800930400006FF0DFF81386C4009386090030
:103C48009305040013050900EF10000A930400000F
:103C5800E31805F6B797008083A747D483A44701E4
:103C68006FF01FF68347D50093F7F70163980700B5
:103C78000325850113351500678000001305000032
:103C880067800000130101FF23261100EFF0CFAF7A
:103C9800B787008083A7476F8320C10037970080CC
:103CA8003385A7002326A7D49305000013850700B2
:103CB800130101016F20900483270500130101FF00
:103CC80023248100232611002322910013040500D8
:103CD80063980702B7840080B78500803785008025
:103CE80093850524130585EF930630181386C4229F
:103CF800EFE0DFDC930530181385C422EFE0DFDF47
:103D0800032504008320C10003248100832441008B
:103D18001301010167800000130101FE232C8100BB
:103D28002326310123244101232E1100232A910047
:103D380023282101130A0500938905001304800034
:103D480073340430B78400801385C46E1374840000
:103D5800EF105066631E050237890080B785008022
:103D6800378500809385C5FD9306E004130649FC5A
:103D7800130585EFEFE09FD437850080130545FFD5
:103D8800EFE0DFD39305E004130549FCEFE0DFD64D
:103D98001385C46EEF109067B79700809305A00055
:103DA80013059A0023A607D4EFC09FB9B7870080F0
:103DB80037890080232AA96E23A8376FEFF09FEC7C
:103DC8001385C46EEF109061631E0502B7840080EE
:103DD800B7850080378500809385C5009306100657
:103DE800138644FC130585EFEFE05FCD378500802F
:103DF80013054502EFE09FCC93051006138544FC9C
:103E0800EFE09FCF732404308320C1010324810194
:103E180083244101032901018329C100032A810068
:103E28001301010267800000130101FE232C8100A9
:103E380023282101232E1100232A91002326310152
:103E4800130905001304800073340430B78400801C
:103E58001385C46E13748400EF10D055631E0502D9
:103E6800B7890080B7850080378500809385C5FDB8
:103E78009306E004138649FC130585EFEFE01FC4A1
:103E880037850080130545FFEFE05FC39305E00425
:103E9800138549FCEFE05FC61385C46EEF10105719
:103EA80013058900EFF05FE193050900EF00002F8B
:103EB8008347D9001385C46E93F7D7FFA306F9008B
:103EC800EF10D051631E0502B7840080B7850080CB
:103ED800378500809385C50093061006138644FC39
:103EE800130585EFEFE09FBD378500801305450278
:103EF800EFE0DFBC93051006138544FCEFE0DFBF5D
:103F0800732404308320C101032481012324090080
:103F180083244101032901018329C10013010102FE
:103F280067800000B797008083A7C7D3130101FFFC
:103F380023248100232611002322910013840500E5
:103F4800639E0704EF109049631E0502B784008042
:103F5800B7850080378500809385C5009306800764
:103F6800138644FC130585EFEFE05FB537850080C5
:103F780013054502EFE09FB493058007138544FCC1
:103F8800EFE09FB713050400032481008320C100DC
:103F980083244100130101016FC08FA9EF10104461
:103FA800631E0502B7840080B785008037850080CE
:103FB8009385C50093061006138644FC130585EF08
:103FC800EFE0DFAF3785008013054502EFE01FAF54
:103FD80093051006138544FCEFE01FB213748400A8
:103FE800732404308320C10003248100832441000A
:103FF8001301010167800000379700800327C7D3AA
:10400800631407006FC0CFA293778500F3A707302A
:10401800678000001305800073350530137585002F
:104028006FF09FFD130101FE232C8100232E110048
:10403800232A91002328210123263101130480001B
:1040480073340430B78400801385C46E13748400FD
:10405800EF105036631E050237890080B78500804F
:10406800378500809385C5FD9306E004130649FC57
:10407800130585EFEFE09FA437850080130545FF02
:10408800EFE0DFA39305E004130549FCEFE0DFA6AA
:104098001385C46E37990080EF1050378327C9D332
:1040A8001309C9D3638E0702B7890080B7850080DA
:1040B800378500809385451C930600101386891A5E
:1040C800130585EFEFE09F9F378500801305C5F73F
:1040D800EFE0DF9E930500101385891AEFE0DFA15A
:1040E8008327890003C7F70093071000631EF702B0
:1040F800B7890080B7850080378500809385C51D06
:10410800930610101386891A130585EFEFE01F9B9D
:10411800378500801305C5F7EFE05F9A9305101007
:104128001385891AEFE05F9D032789008347F7000D
:104138009387F7FFA307F7001385C46EEF10102AC3
:10414800631E0502B7840080B7850080378500802C
:104158009385C50093061006138644FC130585EF66
:10416800EFE0DF953785008013054502EFE01F95E6
:1041780093051006138544FCEFE01F987324043060
:104188008320C10103248101832441010329010102
:104198008329C1001301010267800000B7870080EE
:1041A80083A78767130101FF2324810023261100B9
:1041B80023229100138405006398F502B7840080D8
:1041C800B78500803785008093854534130585EFD2
:1041D8009306C0281386C422EFE05F8E9305C0289B
:1041E8001385C422EFE05F9103274400832704006E
:1041F8008320C100832441002320F70023A2E70085
:104208002320040023220400032481001301010158
:1042180067800000130101FE232C8100232A9100EE
:10422800232E110023282101232631011304050020
:1042380093048000F3B40430378900801305C96EF5
:1042480093F48400EF101017631E0502B7890080ED
:10425800B7850080378500809385C5FD9306E00407
:10426800138649FC130585EFEFE05F8537850080ED
:10427800130545FFEFE09F849305E004138549FC8F
:10428800EFE09F871305C96EEF10501813058400DF
:10429800EFF09FA293050400EFF05FF08347D4008E
:1042A8001305C96E93F7D7FFA306F400EF10101398
:1042B800631E050237890080B78500803785008036
:1042C8009385C50093061006130649FC130585EF70
:1042D800EFE0CFFE3785008013054502EFE00FFEC3
:1042E80093051006130549FCEFE01F81F3A4043081
:1042F8002324040013058401032481018320C101C0
:1043080083244101032901018329C100130101020A
:104318006F208001832705006314F50093070000D0
:104328001385070067800000130101FF2324810023
:104338003794008023202101130905001305C4D3F5
:10434800130545022322910023261100EFF09FFC5C
:104358001304C4D393040500631405008324C40024
:10436800631E090683278400639E0702378900803D
:10437800B785008037850080938585259306F007EB
:104388001306C922130585EFEFE04FF33785008048
:104398001305C5F7EFE08FF29305F0071305C9225F
:1043A800EFE08FF58327840003C7D7001377F70161
:1043B8006316070283D6E7001307F0076370D70276
:1043C8002320F4028320C1000324810083244100B8
:1043D800032901001301010167800000832784007D
:1043E80063849700EFF01F8A232094026FF09FFDEB
:1043F800130101FE23282101379900809307C9D3AF
:1044080083A78700232E1100232C810083C7F70080
:10441800232A9100232631011309C9D3639E070279
:1044280037840080B78500803785008093854520D4
:10443800930610221306C422130585EFEFE00FE858
:10444800378500801305C5F7EFE04FE79305102285
:104458001305C422EFE04FEA83270900638E0702A1
:1044680037840080B7850080378500809385451C98
:10447800930620221306C422130585EFEFE00FE40C
:10448800378500801305C5F7EFE04FE39305202239
:104498001305C422EFE04FE61304800073340430A0
:1044A800B78400801385C46E13748400EF10807085
:1044B800631E0502B7890080B785008037850080B4
:1044C8009385C5FD9306E004138649FC130585EF23
:1044D800EFE0CFDE37850080130545FFEFE00FDE04
:1044E8009305E004138549FCEFE00FE11385C46EE2
:1044F800EF10C07103278900130510008347F700E8
:1045080093871700A307F700EFF01FE21385C46E27
:10451800EF10C06C631E0502B7840080B785008069
:10452800378500809385C50093061006138644FCE2
:10453800130585EFEFE08FD8378500801305450216
:10454800EFE0CFD793051006138544FCEFE0CFDAF0
:1045580073240430032481018320C1018324410191
:10456800032901018329C100130101026FF09FAAE9
:10457800130101FE232C8100232A9100232E110010
:104588002328210123263101130405009304800008
:10459800F3B40430378900801305C96E93F484009E
:1045A800EF104061631E0502B7890080B78500805F
:1045B800378500809385C5FD9306E004138649FC82
:1045C800130585EFEFE08FCF37850080130545FF92
:1045D800EFE0CFCE9305E004138549FCEFE0CFD19F
:1045E8001305C96EEF108062B787008083A78767BD
:1045F8006318F402B7890080B7850080378500808A
:1046080093854534130585EF930660271386C922E1
:10461800EFE0CFCA930560271385C922EFE0CFCD1D
:10462800379700809306C7D383A7460203A686025E
:10463800B7960080938606D61307C7D36386D70A32
:104648006384070A8305E4000385E70063D8A508A7
:1046580003A747002320F4002322E4002320870037
:1046680023A287008347D4001305000093E70704BB
:10467800A306F400EFF05FCB1305C96EEF100056E8
:10468800631E050237840080B78500803785008067
:104698009385C50093061006130644FC130585EFA1
:1046A800EFE0CFC13785008013054502EFE00FC169
:1046B80093051006130544FCEFE00FC4F3A404307F
:1046C8008320C101032481018324410103290101BD
:1046D8008329C10013010102678000006306F60008
:1046E80083A70700E39207F62322C40083278702E3
:1046F8002320D40023A08700232487026FF09FF68D
:10470800832705FF130101FE232C81002326310195
:10471800232E1100232A910023282101232441015B
:1047280013040500930985FE6384070C9304800035
:10473800F3B40430378900801305C96E93F48400FC
:10474800EF104047631E0502378A0080B785008056
:10475800378500809385C5FD9306E00413064AFC5F
:10476800130585EFEFE08FB537850080130545FF0A
:10477800EFE0CFB49305E00413054AFCEFE0CFB7B0
:104788001305C96EEF108048130504FFEFF0CFD270
:1047980093850900EFF09FA0834754FF1305C96E66
:1047A80093F7D7FFA30AF4FEEF104043631E0502F8
:1047B80037890080B7850080378500809385C500DC
:1047C80093061006130649FC130585EFEFE00FAFBB
:1047D8003785008013054502EFE04FAE93051006BC
:1047E800130549FCEFE04FB1F3A40430232804FE7D
:1047F800834754FF1385090093F7B7FEA30AF4FE15
:10480800EFF04FC663040502032481018320C10130
:104818008324410103290101032A8100138509002A
:104828008329C100130101026FF09FD48320C101C5
:104838000324810183244101032901018329C10043
:10484800032A81001301010267800000130101FEA1
:10485800232C810023282101232E1100232A9100D3
:104868002326310123244101232251011304050089
:104878001309800073390930B78900801385C96E20
:1048880013798900EF100033631E0502B784008096
:10489800B7850080378500809385C5FD9306E004C1
:1048A800138644FC130585EFEFE04FA137850080A0
:1048B800130545FFEFE08FA09305E004138544FC42
:1048C800EFE08FA31385C96EEF104034B7940080D2
:1048D8001385C4D39305040013054502EFF01F8C1C
:1048E800B787008083A78767379A00809384C4D3EB
:1048F800130A0AD66318F402B78A0080B7850080C5
:104908003785008093854534130585EF9306602726
:104918001386CA22EFE08F9A930560271385CA226F
:10492800EFE08F9D83A7440203A78402638E470BA1
:10493800638C070A8306E4000386E70063D0C60A8F
:1049480003A747002320F4002322E4002320870044
:1049580023A287008347D40003A5840093E70704B4
:104968003305854013351500A306F400EFF0DF9BEF
:104978001385C96EEF108026631E050237840080F8
:10498800B7850080378500809385C500930610069B
:10499800130644FC130585EFEFE04F92378500803E
:1049A80013054502EFE08F9193051006130544FCAB
:1049B800EFE08F94732909308320C101032481011A
:1049C80083244101032901018329C100032A8100AD
:1049D800832A410013010102678000006386E70013
:1049E80083A70700E39A07F42322E40083A784023D
:1049F8002320440123A0870023A484026FF09FF59D
:104A0800B787008083A7476F63860706B79700803C
:104A18009387C7D303A787009306F0070356E700D9
:104A280063EAC604B78600800306E70083A6066F1C
:104A38006342D604B786008083A68667630CD702D4
:104A4800832687016398060283A607016340D5027F
:104A5800130101FF1305070023261100EFF01FDFE4
:104A68008320C100130101016FF0CFA1B386A640D6
:104A780023A8D70067800000130101FE232C8100C2
:104A880023263101232E1100232A910023282101F6
:104A9800930905001304800073340430B784008040
:104AA8001385C46E13748400EF10C010631E0502D2
:104AB80037890080B7850080378500809385C5FDDC
:104AC8009306E004130649FC130585EFEFD01FFF9A
:104AD80037850080130545FFEFD05FFE9305E0049E
:104AE800130549FCEFE04F811385C46EEF100012E7
:104AF80083C7D900379900801309C9D393F70704EE
:104B0800638E07009385090013054902EFF00FE94A
:104B180083C7D90093F7F7FBA386F900032589001B
:104B28003305354113351500EFF01F801385C46E2A
:104B3800EF10C00A631E0502B7840080B7850080A5
:104B4800378500809385C50093061006138644FCBC
:104B5800130585EFEFD09FF63785008013054502D2
:104B6800EFD0DFF593051006138544FCEFD0DFF88E
:104B7800732404308320C10103248101832441016B
:104B8800032901018329C100130101026780000084
:104B9800130101FE232C8100232A91001304050030
:104BA80023282101232E1100232631019384050097
:104BB80013090600EFF05FEC8347D40093E7270062
:104BC800A306F40063860406B787008083A7876777
:104BD800232494006318F402B7890080B785008005
:104BE8003785008093854534130585EF9306602744
:104BF8001386C922EFD09FEC930560271385C9223D
:104C0800EFD09FEF83A70400638CF406638A07063E
:104C18000307E4008386E700635CD70403A7470023
:104C28002320F4002322E4002320870023A2870006
:104C38009307F0FF6304F9069305A0001305990094
:104C4800EFB01FD01306150013058401032481015A
:104C58008320C10183244101032901018329C10063
:104C6800B745008093858570130101026F100049D4
:104C780083A644006386D70083A70700E39C07F850
:104C880083A74400232094002322F40083A7440030
:104C980023A0870023A284006FF09FF98320C1011D
:104CA8000324810183244101032901018329C100CF
:104CB8001301010267800000130101FFB79700800C
:104CC800232481001304050003A547D423261100DB
:104CD800EFF01FEC13050400032481008320C100BA
:104CE800130101016FB0CFD4130101FFB797008002
:104CF800232481001304050003A547D4232291002F
:104D080093840500930506001386060023261100E8
:104D1800EFF01FE813050400EF00506C631E050256
:104D280037840080B7850080378500809385C5006B
:104D380093068007130644FC130585EFEFD01FD8B0
:104D48003785008013054502EFD05FD793058007AC
:104D5800130544FCEFD05FDA032481008320C100EF
:104D68001385040083244100130101016FB04FCC67
:104D7800130101FE232C8100232821012324410152
:104D8800232E1100232A91002326310123225101C9
:104D98002320610113040500138A0500130980000C
:104DA80073390930B78900801385C96E1379890072
:104DB800EF005060631E0502B7840080B78500804D
:104DC800378500809385C5FD9306E004138644FC6F
:104DD800130585EFEFD09FCE37850080130545FF7B
:104DE800EFD0DFCD9305E004138544FCEFD0DFD08E
:104DF8001385C96EEF00906113050400EFE09FE68C
:104E0800131A8A01930A0500135A8A41630005148C
:104E1800B79400801385C4D3930504001305450295
:104E2800EFF0CFB7B787008083A7876723074401D0
:104E3800379A00809384C4D3130A0AD66318F402FD
:104E4800378B0080B785008037850080938545348F
:104E5800130585EF930660271306CB22EFD01FC6F4
:104E6800930560271305CB22EFD01FC983A74402FF
:104E780003A784026380470D638E070A8306E40054
:104E88000386E70063D2C60A03A747002320F4007D
:104E98002322E4002320870023A2870013051000A3
:104EA800EFF08FC81385C96EEF005053631E0502DB
:104EB80037840080B7850080378500809385C500DA
:104EC80093061006130644FC130585EFEFD01FBFA9
:104ED8003785008013054502EFD05FBE93051006A5
:104EE800130544FCEFD05FC17329093063840A06B7
:104EF800B797008083A747D483C7F700639C07044C
:104F0800032481018320C101832441010329010174
:104F18008329C100032A8100832A4100032B010051
:104F2800130101026FF00F8F6386E70083A7070064
:104F3800E39807F42322E40083A784022320440192
:104F480023A0870023A484026FF05FF523074401A0
:104F58006FF05FF58320C10103248101832441019F
:104F6800032901018329C100032A8100832A410002
:104F7800032B01001301010267800000130101FEE9
:104F88002328210123263101232E1100232C8100FF
:104F9800232A910093090500130980007339093009
:104FA800B78400801385C46E13798900EF009040A0
:104FB800631E050237840080B7850080378500802E
:104FC8009385C5FD9306E004130644FC130585EF9D
:104FD800EFD0DFAE37850080130545FFEFD01FAE59
:104FE8009305E004130544FCEFD01FB11385C46E8C
:104FF800EF00D04113850900EFF0CFB1130405008D
:105008001385C46EEF00903D631E0502B7890080CA
:10501800B7850080378500809385C5009306100604
:10502800138649FC130585EFEFD05FA9378500800B
:1050380013054502EFD09FA893051006138549FC78
:10504800EFD09FAB732909306306040C1309800065
:10505800733909301385C46E13798900EF009035D0
:10506800631E0502B7890080B785008037850080F8
:105078009385C5FD9306E004138649FC130585EF67
:10508800EFD0DFA337850080130545FFEFD01FA3BE
:105098009305E004138549FCEFD01FA61385C46E61
:1050A800EF00D03613058400EFE01FC1930504001C
:1050B800EFF0CF8E8347D4001385C46E93F7D7FFE4
:1050C800A306F400EF009031631E0502B784008048
:1050D800B7850080378500809385C5009306100644
:1050E800138644FC130585EFEFD05F9D378500805C
:1050F80013054502EFD09F9C93051006138544FCC9
:10510800EFD09F9F732909302324040013058401DD
:10511800EF108021130504008320C10103248101BD
:1051280083244101032901018329C10013010102DC
:1051380067800000130101FF232291002320210131
:10514800232611002324810013090500930400007D
:105158000324090063048900631004028320C1004A
:1051680003248100138504000329010083244100DE
:10517800130101016780000013050400EFF08F8917
:1051880013050400EFE01FAE93041000E30205FCD2
:1051980013050400EFF0CFBD6FF09FFBB7970080B9
:1051A8009387C7D31387470223A2E70223A4E70202
:1051B80093050000130500006FE01FB6130101FFFF
:1051C800232481002320210123261100232291007A
:1051D800138705019307E0011309050013840500EF
:1051E80063F4E704B7840080B785008037850080C2
:1051F800930650341386C4229385452C130585EFF6
:10520800EFD0DF8B3785008093050400130585F107
:10521800930600FF1306E000EFD05F8A9305503431
:105228001385C422EFD05F8DB797008083A7C7D3BB
:10523800638E0702B7840080B785008037850080B9
:105248009385451C930660341386C422130585EFA5
:10525800EFD0DF86378500801305C5F7EFD01F86AE
:10526800930560341385C422EFD01F899305040089
:10527800032481008320C100832441001305090011
:1052880003290100130101016FF09FAE130101FE14
:10529800232C8100379400808327C4D3232E110048
:1052A800232A9100232821012326310123244101A7
:1052B800232251011304C4D3638E0702B7840080EC
:1052C800B7850080378500809385451C9306E037B5
:1052D8001386C422130585EFEFD04FFE3785008073
:1052E8001305C5F7EFD08FFD9305E0371385C4226A
:1052F800EFD09F80B78700808326840003A7876745
:10530800138A07006386E61213098000733909308F
:10531800B78900801385C96E13798900EF00900959
:10532800631E0502B7840080B7850080378500803A
:105338009385C5FD9306E004138644FC130585EFA9
:10534800EFD0CFF737850080130545FFEFD00FF773
:105358009305E004138544FCEFD00FFA1385C96E5A
:10536800EF00D00A8325840013054402EFE01FE311
:1053780083278A6783248400379A0080130A0AD611
:105388006398F402B78A0080B7850080378500806B
:1053980093854534130585EF930660271386CA2243
:1053A800EFD0CFF1930560271385CA22EFD0CFF451
:1053B8008327440203278402638A470B6388070A0A
:1053C8008386E4000386E70063DCC60803A747007A
:1053D80023A0F40023A2E4002320970023A297002F
:1053E80013051000EFE05FF41385C96EEF00007F2E
:1053F800631E050237840080B785008037850080EA
:105408009385C50093061006130644FC130585EF23
:10541800EFD0CFEA3785008013054502EFD00FEAB9
:1054280093051006130544FCEFD00FED73290930DE
:105438001305800073350530032481018320C101E1
:1054480083244101032901018329C100032A810022
:10545800832A410013758500130101026FA05FDDE7
:105468006386E70083A70700E39E07F423A2E4000E
:105478008327840223A0440123A0970023249402B5
:105488006FF01FF6130101FD232481023794008079
:105498008327C4D323229102232611022320210328
:1054A800232E3101232C4101930405001304C4D396
:1054B800638E070237890080B785008037850080B2
:1054C8009385451C930690391306C922130585EF69
:1054D800EFD0CFDE378500801305C5F7EFD00FDE9C
:1054E800930590391305C922EFD00FE19307F0FF18
:1054F8006394F41A37890080B78500803785008067
:10550800938585279306A0391306C922130585EFCD
:10551800EFD0CFDA378500801305C5F7EFD00FDA63
:105528009305A0391305C922EFD00FDD9305A0001C
:1055380013859400EFB0CFC093091500EF104042D7
:105548003389A9002326010093048000F3B40430B2
:105558001305C10093F48400EF00C065631E0502C3
:10556800378A0080B7850080378500809385C5FD20
:105578009306E00413064AFC130585EFEFD00FD419
:1055880037850080130545FFEFD04FD39305E0041E
:1055980013054AFCEFD04FD61305C100EF00006792
:1055A80003258400EFF04FCD03258400B745008024
:1055B800138609001305850193858570EF00103463
:1055C800032784001305C1008347D70093E7070129
:1055D800A306F700EF008060631E0502B78900800C
:1055E800B7850080378500809385C50093068007BE
:1055F800138649FC130585EFEFD04FCC3785008023
:1056080013054502EFD08FCB93058007138549FC1E
:10561800EFD08FCE13850400EFA09FC183278400AD
:1056280083C7D70093F70701638E0702378400808A
:10563800B7850080378500809385C5289306703B21
:105648001306C422130585EFEFD04FC737850080B6
:105658001305C5F7EFD08FC69305703B1305C42219
:10566800EFD08FC9EF10C02F3305A9409304000075
:105678006358A0021306803E930600009355F54137
:10568800EFB00FA31306400693060000EFA0DFC299
:10569800930405006F00C000E39A04E8EFF01FBF11
:1056A8008320C10203248102138504000329010217
:1056B800832441028329C101032A810113010103C3
:1056C80067800000B797008003A547D46780000073
:1056D800130101FE232C8100232A91002328210194
:1056E800232E110023263101130405001389050018
:1056F80093040600631E0602B7890080B785008000
:10570800378500809385853693066004138689352E
:10571800130585EFEFD08FBA37850080130545371D
:10572800EFD0CFB99305600413858935EFD0CFBC8E
:1057380063FE2403B7890080B78500803785008021
:105748009385C5389306700413868935130585EF4C
:10575800EFD0CFB6378500801305453AEFD00FB6A6
:105768009305700413858935EFD00FB923242401DC
:105778002326940023208400232284008320C1014F
:105788000324810183244101032901018329C100E4
:105798001301010267800000130101FE232A910012
:1057A80023263101232E1100232C810023282101D7
:1057B8009309050093048000F3B404303784008013
:1057C8001305846F93F48400EF00C03E631E050246
:1057D80037890080B7850080378500809385C5FDAF
:1057E8009306E004130649FC130585EFEFD00FADCF
:1057F80037850080130545FFEFD04FAC9305E004D3
:10580800130549FCEFD04FAF1305846FEF0000403C
:1058180013850900EFF08FF61309050063020504EC
:105828008347D50093F7F70163980700832785011D
:1058380063940700EFE0DFD3232609061305846F7E
:10584800032481018320C101032901018329C100A7
:105858009385040083244101130101026FE08FEC5A
:1058680003A7890083A7C900B387E740B337F000CF
:10587800B387E70023A4F9006FF05FFCB7970080B7
:1058880083A7C7D3130101FE232821012326310151
:10589800232E1100232C8100232A91002324410167
:1058A800130905009389050063800704638E0502C8
:1058B80037840080B7850080378500809385C53C94
:1058C8009306C00813068435130585EFEFD00F9FA4
:1058D800378500801305C5F7EFD04F9E9305C008A4
:1058E80013058435EFD04FA11304800073340430BE
:1058F800B78400801385846F13748400EF00802BB5
:10590800631E0502378A0080B785008037850080CE
:105918009385C5FD9306E00413064AFC130585EF3D
:10592800EFD0CF9937850080130545FFEFD00F9949
:105938009305E00413054AFCEFD00F9C1385846F90
:10594800EF00C02C83278900638C07069387F7FF35
:105958002324F9001385846FEF004028631E050295
:10596800B7840080B7850080378500809385C5009F
:1059780093061006138644FC130585EFEFD00F94A9
:105988003785008013054502EFD04F939305100625
:10599800138544FCEFD04F967324043013050000A0
:1059A8008320C101032481018324410103290101CA
:1059B8008329C100032A81001301010267800000C6
:1059C800639A09041385846FEF004021631E050262
:1059D800B7840080B7850080378500809385C5002F
:1059E80093061006138644FC130585EFEFD00F8D40
:1059F8003785008013054502EFD04F8C93051006BC
:105A0800138544FCEFD04F8F73240430130500FF37
:105A18006FF01FF993050400032481018320C1015D
:105A2800032A810093860900130609008329C1000F
:105A3800032901011385846F8324410113010102A5
:105A48006FF08FAA8347D50093F7F7016398070093
:105A58000325850113351500678000001305000034
:105A680067800000B797008003A5C7D33335A0002F
:105A780067800000B797008083A747D403C5C70095
:105A880013751500678000003726B700130101FF62
:105A9800130606B0930600009305000023261100A4
:105AA8002324810023229100EFA09FE037460F00B6
:105AB8001306062493060000EFA01F8013040500B8
:105AC800EFD0CFDB93040500EFD04FDB33059540D3
