:0200000480007A
:100000009702000093820201739052306F00507586
:10001000130101FB2320110023223100232441007E
:100020002326510023286100232A7100232CC101BB
:10003000232ED1012320E1032322F1032324A10253
:100040002326B1022328C102232AD102232CE10254
:10005000232EF1022320010523221105F32210345F
:1000600023245104F322003023265104EF00002002
:100070001303000063160504F3222034B703008045
:100080009383F3FFB3F272001303B000638A62003C
:100090001305010097000000938040146F00505D2D
:1000A000832281049382420023245104977200002A
:1000B0009382428B03A30200631403006F000009C4
:1000C0009302010097730000938303BE03A14300D2
:1000D000130101FF2320510003AE0300130E1E0085
:1000E00023A0C30163080300970000009380C003AE
:1000F0006F00D06073252034B70200809382F2FF36
:1001000033755500EF0080159762000093820281DD
:1001100013153500B382A20003A5020003A3420019
:10012000E700030017730000130303B883230300E1
:100130009383F3FF232073008322010013810200C5
:1001400083238300032E030263087E089772000056
:10015000938282B503A3820023268302232893027D
:10016000232A2303232C3303232E43032320530565
:10017000232263052324730523268305232893055F
:10018000232AA305232CB30523242302976300000D
:100190009383C37103AE03002326C30703A30202A4
:1001A00023A46200032183020324C30283240303E4
:1001B0000329430383298303032AC303832A0304F4
:1001C000032B4304832B8304032CC304832C0305D8
:1001D000032D4305832D83058322810473901234FC
:1001E0008322C104739002308320010083214100E7
:1001F000032281008322C1000323010183234101E3
:10020000032E8101832EC101032F0102832F41029E
:10021000032581028325C1020326010383264103AE
:10022000032781038327C103032801048328410492
:100230001301010573002030730000009772000065
:10024000938282A603A382008323C30613758500CD
:10025000F3220530138503006780000013031000AC
:10026000B312A30073B3423467800000F32220343A
:1002700037030080B3F262001305000063840200BC
:08028000130515006780000062
:100288006300060293070002B387C740634CF0007F
:10029800130506FE1307000033D5A50093050700D4
:1002A8006780000033D7C5003355C500B395F50006
:1002B8003365B5006FF09FFE9387050013080600AD
:1002C8001387060013030500639606289758000055
:1002D8009388487C63F6C50E370701006378E60CFF
:1002E8001307F00F3337C70013173700B356E6006C
:1002F800B388D80083C608003387E6009306000257
:10030800B386E640638C0600B397D7003357E50001
:100318003318D600B365F7003313D5001355080119
:1003280033F7A50213160801135606019356030165
:10033800B3D5A50213170701B366D700B307B602F2
:100348001387050063FEF600B38606011387F5FFE1
:1003580063E8060163F6F6001387E5FFB386060136
:10036800B386F640B3F7A602131303011353030130
:10037800B3D6A6029397070133E36700B305D60205
:1003880013850600637CB300330368001385F6FF0A
:10039800636603016374B3001385E6FF131707014F
:1003A8003367A700930500006F00400EB7060001F1
:1003B80013070001E36CD6F2130780016FF01FF3F7
:1003C800631606009306100033D8C602B70601006C
:1003D8006372D80C9306F00F63F4060113078000CC
:1003E800B356E800B388D80083C60800B386E60091
:1003F800130700023307D7406318070AB38707417A
:1004080093051000135608019318080193D80801A2
:100418009356030133F7C702B3D7C702131707016F
:10042800B366D7003385F8021387070063FEA6007A
:10043800B38606011387F7FF63E8060163F6A60093
:100448001387E7FFB3860601B386A640B3F7C60253
:100458001313030113530301B3D6C602939707017D
:1004680033E36700B388D80213850600637C130161
:10047800330368001385F6FF636603016374130191
:100488001385E6FF131707013367A7001305070055
:1004980067800000B706000113070001E362D8F483
:1004A800130780016FF0DFF33318E800B3D5D700E6
:1004B8003313E500B356D50013550801B397E70089
:1004C80033F7A502B3E8F6009317080193D707019D
:1004D80013D60801B3D5A502131707013367C70060
:1004E800B386B70213860500637ED700330707017A
:1004F8001386F5FF636807016376D7001386E5FF67
:1005080033070701B306D74033F7A60293980801CB
:1005180093D80801B3D6A60213170701B385D702EB
:10052800B36717011387060063FEB700B387070197
:100538001387F6FF63E8070163F6B7001387E6FF42
:10054800B3870701B387B74093150601B3E5E50004
:100558006FF05FEB63E6D5183707010063F4E60434
:100568001308F00F3337D8001317370033D8E600D5
:100578009755000093850552B385050103C805000A
:10058800930500023308E800B38505416396050228
:1005980013071000E3ECF6EE3335C50013471500DA
:1005A8006FF0DFEEB705000113070001E3E0B6FCCA
:1005B800130780016FF09FFB33570601B396B6000F
:1005C800B366D70093DE060133D70701B378D703A4
:1005D800B397B700335805013363F80093970601C2
:1005E80093D70701135803013316B6003357D703BF
:1005F8009398080133E80801338FE702130E0700C8
:10060800637EE8013308D800130EF7FF6368D8004B
:100618006376E801130EE7FF3308D8003308E84192
:10062800B378D8033358D80393980801B38E0703D7
:100638009317030193D70701B3E7F80013070800DE
:1006480063FED701B387D7001307F8FF63E8D70025
:1006580063F6D7011307E8FFB387D700131E0E010F
:10066800B387D741B70E01003367EE001388FEFF4A
:1006780033730701935807013378060113560601AF
:10068800330E03033388080393560E013303C30262
:1006980033030301B3866600B388C80263F4060116
:1006A800B388D80113D60601B308160163E6170309
:1006B800E39A17CFB70701009387F7FFB3F6F60061
:1006C80093960601337EFE003315B500B386C60146
:1006D80093050000E37CD5DA1307F7FF6FF09FCC92
:1006E80093050000130700006FF05FDA67800000D1
:1006F8006F10506F6F10106F130101FF2326110048
:10070800EF30407DEF30007DEF30C07CEF30807CF3
:10071800EF30407CEF30007CB77700808320C10049
:100728009387078E2324F506B76500803765008018
:100738009385857F1305C5C3130101016F10906D63
:10074800130101FF232481003774008013044488B7
:1007580023229100232021012326110013090500DB
:1007680093040401832504001305090013044400BD
:10077800EF30103EE31894FE8320C100032481006B
:10078800832441000329010013010101678000004F
:100798006FF01FFB130101FD232E1100232C810094
:1007A8002324010323261103631605041386060078
:1007B800376500809306070013870500B76500803A
:1007C80013840700938545D193078102130505D546
:1007D8002326F100EF1080678325C100130504006C
:1007E800EF10C063376500801305C5F8EF10006689
:1007F800EF10505C8320C101032481011301010320
:1008080067800000130101FC232C810237740080EB
:1008180013044488232A9102232821032326310321
:10082800232441032322510323206103232E710132
:10083800232E1102930B0500130A04FF3769008069
:10084800B7690080B7640080376B0080B76A0080A2
:10085800130600009305C10013850B00EF30904884
:100868009387C9E8130789C493064002138644D1C5
:1008780093050BCC13351500EFF0DFF10325C40009
:100888008327C100130789C4930650023305F54036
:10089800138644D19387C9E893854ACF1335150049
:1008A8001304C4FFEFF01FEFE31444FB8320C103DC
:1008B8000324810383244103032901038329C102FB
:1008C800032A8102832A4102032B0102832BC101DF
:1008D8001301010467800000130101FF23261100A2
:1008E800232481002322910037740080930405009B
:1008F800EFF05FF1130584AAEF30006B1385040055
:10090800EFF01FE4130584AA032481008320C100AB
:1009180083244100130101016F3000696FF09FEEDD
:10092800130101FF2324810013040500377500809B
:100938001306100093050000130585AA232611004D
:10094800EF30005A370500809305040013058579B8
:10095800EF00C05C13050400EFF0DFEA13050400A4
:10096800EFF01FDE93050400032481008320C100FB
:100978003715008013054592130101016F00005AD5
:10098800130101FE232A9100B7740080232C8100F3
:10099800130610001304050093050000138584AAAC
:1009A800232E110023282101EF3080539307C00024
:1009B800B7160080B77500803775008013070400EC
:1009C80093080000130800009386068E1306002083
:1009D8002320F100938505CD930700002322010011
:1009E800130545ADEF30D076130905001305040053
:1009F800EFF01FD59305F0FF138584AAEF30006947
:100A08009305F0FF138584AAEF30406813050400AE
:100A1800EFF05FDF032481018320C10183244101BA
:100A28001305090003290101130101026F40800C1D
:100A3800130101FF23248100B775008037740080FB
:100A4800130584AB130640009385458823261100BF
:100A5800EF305000130584ABEFF09FF203248100C0
:100A68008320C1003775008013050591130101012A
:100A78006FF01FF1130101FF23248100B775008077
:100A880037740080130584AB1306400093854588AE
:100A980023261100EF30007C130584ABEFF05FE8EC
:100AA800032481008320C100377500801305059158
:100AB800130101016FF0DFE6130101FE232C810011
:100AC80037740080930540001305C492232E11004B
:100AD800232A910023282101B7740080EF30C079C0
:100AE800138584AA1306100093050000EF30403FD9
:100AF800B7160080B7750080377500801307C49259
:100B0800930700009386068E1306002093080000C2
:100B180013080000938505CD23220100232001003E
:100B2800130545ADEF30D062130905001305C492D3
:100B3800EFF01FC19305F0FF138584AAEF3000552D
:100B48009305F0FF138584AAEF3040541305C4922F
:100B5800EFF05FCB13050900EF30D0791305C4928D
:100B6800EF30C076930510101305C492EF30C070B3
:100B7800032481018320C101832441010329010148
:100B88001305C500B76700803767008037660080A7
:100B9800B7650080938747C7130747C59306700A50
:100BA800130646D1938545CA133515001301010272
:100BB8006FF05FBE130101FD232E110023240103F2
:100BC80023261103631805041386060013870500FE
:100BD800B7660080B765008037650080930781029B
:100BE800938686D7938505E0130505D52326F1005E
:100BF800EF10C0258325C100376500801305C5E8BF
:100C0800EF10C021376500801305C5F8EF100024E8
:100C1800EF10501A8320C1011301010367800000FF
:100C2800130101FD23248102B77500803774008009
:100C3800130584AB1306200093858595232611029E
:100C48002322910223202103232E3101EF308060DB
:100C58009305C10013060000130584ABEF3090081C
:100C680037690080B7690080B76400801305050103
:100C7800B76500809387C9E8130789D793065001A1
:100C8800138604E0938585D813351500EFF09FF29D
:100C98009305C10013064006130584ABEF3090049A
:100CA8001305B500B76500809387C9E8130789D78E
:100CB800138604E093067001938545DC133515000F
:100CC800EFF05FEF8320C1020324810283244102F5
:100CD800032901028329C101130101036780000070
:100CE800130101FF232611002324810093076000CC
:100CF8006304F502EF30901A63040502EF30101A0E
:100D080063160504B76500809385850E37650080F6
:100D18001305C50FEF108013EF10401A6FF0DFFFB7
:100D2800EF30D018E31C05FC37740080130444CA64
:100D380083258400376500801305C511EF10001165
:100D480003258400EF30105B6FF01FFDB76500804E
:100D58009385450E6FF09FFB130101FB232481044B
:100D680023229104232611049307600093040500AD
:100D78001384050063E0A70E3767008093172500EA
:100D8800130787E3B387E70083A707006780070097
:100D980037650080130585F6EF10400BEF308013A0
:100DA80083274404832804010328C4002328F1026C
:100DB8008327040403274400832604002326F10222
:100DC8008327C40303268404930505002324F10222
:100DD80083278403376500801305C5FE2322F102AB
:100DE800832744032320F10283270403232EF100E1
:100DF8008327C402232CF10083278402232AF100CD
:100E0800832744022328F100832704022326F100C4
:100E18008327C4012324F100832784012322F100BE
:100E2800832744012320F10083278400EF10000268
:100E38009305040013850400EFF09FEA37650080EE
:100E4800130505F96FF05FF5376500801305C5FADE
:100E58006FF09FF43765008093850400130585FCC7
:100E6800EF00D07E6FF09FF3130101FF2324810070
:100E780023261100130405007326203413161600C8
:100E8800135616009307500063E8C70237670080BF
:100E980093172600130747E5B307F70083A5070054
:100EA80037650080130545E7EF00507A9305040085
:100EB80013050000EFF05FEAB76500809385C5E68B
:100EC8006FF01FFE130101FF23261100F3252034C4
:100ED800376500809395150093D5150013054514C3
:100EE800EF00D076B7650080938505E913054000CB
:100EF800EFF09FE6B77700809387079603A7070070
:100F0800630C070003A3070023A00700B77700803E
:100F180003A54796670003006780000093078000D9
:100F2800F3B70730377700802320A79637770080FC
:100F38002322B7967300000093F78700F3A70730C2
:100F480067800000130101FF23261100EF10D0274E
:100F5800EF00D078EF10102E176100001301017711
:100F6800B71200009382028033015100EFF09FFD19
:100F78006F009008130101FD2324810223229102AE
:100F880023202103232E3101232C4101232A51013F
:100F98002328610123267101138B070023261102E0
:100FA800232481019307F0009304050013840500AE
:100FB80093090600138A0600930B0700930A08009A
:100FC80013890800639AF808B737008093878799D0
:100FD800639AF60883260103930509001385040024
:100FE80013064000EF30C078938509FBB305B400C1
:100FF800B727000023AE040423A0040693F505FFD9
:101008009387078823A6F504B71700808320C102B9
:1010180003248102938787F723A4450323A6750336
:1010280023A8650323AA550323A4F50423A4B40223
:1010380003290102832441028329C101032A810172
:10104800832A4101032B0101832BC100032C81005A
:101058001301010367800000938608019307E001EC
:10106800E3FAD7F6376C0080B765008037650080F3
:101078001306CC16930680019385C51813058521A0
:10108800EF00D05C3765008093050900930600FFE8
:101098001306E00013058523EF00505B93058001DC
:1010A8001305CC16EF00505E6FF0DFF29307C00017
:1010B8003387F5028327C500B387E7000307B50028
:1010C8006354B70083A70700130700023347E602FB
:1010D8001375F60113172700B387E70023A0F6005E
:1010E80067800000130101FE9306C100232E110042
:1010F800EFF0DFFB0327C100930710003395A7002B
:10110800832707008320C101B3E7A7002320F70046
:101118001301010267800000130101FE9306C1005C
:10112800232E1100EFF09FF80327C100930710004A
:101138003395A700832707008320C1011345F5FFD6
:1011480033F5A7002320A7001301010267800000E0
:101158008327450003588500130101FF23248100DC
:101168003308F80213040500032505008348A4008A
:101178001307F0FF2326110023229100A305E400A2
:10118800930500001303C00033050501130EF00199
:10119800930E000263C21503930400008357840072
:1011A80063C4F4068320C100032481008324410022
:1011B80013010101678000003357F8020326C400B9
:1011C800B3866502B306D6001386460023A2C6007E
:1011D80023A4C600634EEE00A305B40093D72700EE
:1011E8009387370093F7C7FF938515006FF09FFA31
:1011F8001307F7013347D70323A0A60013172700C7
:101208003305E5006FF09FFD832744001386040033
:10121800930500003387F4028327040013050400B4
:1012280093841400B387E7000327C400930647009C
:1012380023A0D7008326870023A2D7008326870010
:1012480023A0F6002324F700EFF0DFE96FF01FF585
:10125800130101FB2324810423267103232611048F
:101268002322910423202105232E3103232C41031B
:10127800232A510323286103232481032322910372
:101288002320A103232EB10113040105034EA50059
:101298009308000093172E009387F70093F7077FB2
:1012A8003301F14083274500930B010013830B00A2
:1012B8009387370093F7C7FF23A0FB00138CF8FF31
:1012C80063D4C803638C08008327C3FF93D7270020
:1012D8009387370093F7C7FF2320F30013034300D6
:1012E8008327C3FF63FAB7049307F0FF631AFC046C
:1012F80023200700130540FF130104FB8320C104CA
:101308000324810483244104032901048329C1039C
:10131800032A8103832A4103032B0103832BC10280
:10132800032C8102832C4102032D0102832DC1016C
:101338001301010567800000938818006FF01FF8FB
:10134800834705011309000093F717006388070016
:101358001309800073390930137989009307C00095
:10136800B307FC02232EE4FA138D0600930C060043
:1013780093040500130A0C00138747008327C50050
:10138800B387E7001307F0FF83A90700638C3717BB
:1013980083A7090003A74900931A2A00B38A5B01AF
:1013A8002320F70023A2E70023A0090023A20900B5
:1013B80083A7040003A60A0093050A00B387F9402F
:1013C80033C6C70213850400130A1A00EFF0DFD4EE
:1013D8009306C0009307FAFF63C6870583C7040115
:1013E80093F7170063840700732909308327C4FB28
:1013F800130540FF23A03701E38009F083A7040009
:1014080013182C00B38B0B01B389F94083A70B0089
:1014180023A08C0113050000B3C9F90223203D0164
:101428006FF09FED83AD040083A70A00B30EDA02C4
:10143800B38DB94113071000B3CDFD02939D2D0064
:1014480003AB4A003306B70193050A00330EEB02DB
:10145800138504002328D4FB232CE4FA130BFBFF89
:10146800338EC901232AC4FBEFF0DFC7032E44FBE8
:1014780083A7040003A64400330B6E01330BFB4023
:1014880083D78400032784FB832E04FBB387C7021A
:101498009306C00093084000130380006374FB02A6
:1014A80083A7C400B387D701138647002320CE0043
:1014B80003A687002322CE0003A687002320C601A7
:1014C80023A4C70113071700E31C17F783C70401F8
:1014D80093F71700639A070013090000130A1A000C
:1014E800938A4A006FF01FEF7329093083C70401FC
:1014F80093F71700E38207FE7339033013798900E5
:101508006FF0DFFD130AFAFF938749FFE31EEAE64F
:10151800930900006FF09FEC130101FA232C81045A
:1015280023263105232E7103232E1104232A910427
:101538002328210523244105232251052320610561
:10154800232C8103232A91032328A1032326B103F3
:10155800130401068346A500930B05001308100029
:10156800939626009386F60093F6067F3301D140C2
:1015780083264500930901001385090093863600E8
:1015880093F6C6FF23A0D9001305450063F4050DA3
:1015980083C60B01138C05001309060093F6160089
:1015A800930400006388060093048000F3B40430B9
:1015B80093F48400B76A0080130DC000930D800077
:1015C80063580C0AB7640080B765008037650080EF
:1015D8001386C4269306000C9385452D1305852193
:1015E800EF00D006376500801305052AEF001006C6
:1015F8001385C4269305000CEF0010099304F0FF2F
:1016080083C70B0193F717006386070093F48400E0
:10161800F3A40430130104FA8320C10503248105CF
:1016280083244105032901058329C104032A810470
:10163800832A4104032B0104832BC103032C810358
:10164800832C4103032D0103832DC10213010106DD
:10165800678000008326C5FF1308180093D626006C
:101668009386360093F6C6FF2320D5006FF0DFF18E
:1016780093162C00B386D90003AA060003D68B0064
:1016880083A54B00B306490303A80B00130BFAFF0D
:101698003306B602B30CD800B306DB0063ECC6020F
:1016A800B767008093850728B7670080138587216F
:1016B8009306400A1386CA26EF004079B767008070
:1016C8001385C729EF0080789305400A1385CA2639
:1016D800EF00807B1306090093050C0013850B00AF
:1016E800EFF05FA0B306AC0303A6CB00B306D600A9
:1016F8001386460023A0CC0003A6860023A2CC00B4
:1017080003A686002320960123A4960183C60B0115
:1017180093F616006394060C93040000E3020CEEA3
:101728009306C4FB1306090093050C0013850B00F0
:10173800EFF0DF9793064000B346D5020326C4FBBB
:1017480003250600939626003355D5001375F5003A
:101758009306F000E316D5EA13080000137EC9FFCC
:101768001303400083D58B0003A54B0033060E01FD
:10177800B3084603B385A502B386680163F6B604C9
:1017880093050C0013850B002322C4FB232404FBC0
:10179800232614FBEFF05F9883A60B008328C4FA76
:1017A800032E44FA032884FAB386160183A546005B
:1017B80003A606001303400023A0C5002322B60099
:1017C80023A0060023A2060013081800E31C68F8EB
:1017D800130CFCFF334909036FF09FDEF3A40430B8
:1017E80083C60B0193F61600E38806F2F3B40D30B6
:1017F80093F484006FF09FF2130101FF9307050033
:10180800138505009305060013860600232611009C
:10181800E7800700EF20006CEF30C02D13050000B3
:1018280067800000130101FF2324810013040500D1
:1018380013055004232611002322910093840500E8
:10184800E70004009385040013052005E700040061
:1018580013030400032481008320C100938504003E
:1018680083244100130520051301010167000300CB
:1018780083A705009387170023A0F500B77700809A
:1018880003A3478967000300130101FB2324810494
:10189800232E3103232C4103232A510323286103D8
:1018A80023261104232291042320210523267103D2
:1018B80023248103232291032320A103232EB10192
:1018C800130A0500938A050093090600138B060086
:1018D800130410006354E00013040700930710007A
:1018E800130C00026314FB00130C0003B7D49A3BDB
:1018F80013091000930CA000130700009384F49FB1
:10190800930D2000130DA000938B1400631407009F
:1019180063F2340933D5790393850A001309190052
:1019280013050503E7000A0013071000938CFCFF5A
:1019380093071000B3F97903B3D4A403E396FCFC2E
:1019480093850A0013850903E7000A00930730000E
:1019580033042441630AFB068320C1040324810461
:1019680083244104032901048329C103032A810331
:10197800832A4103032B0103832BC102032C810219
:10198800832C4102032D0102832DC101130101059E
:1019980067800000E34C94F9E3EA6DF993850A0047
:1019A80013050C002326E100E7000A0013091900BB
:1019B8000327C1006FF09FF793850A001305000203
:1019C800E7000A001304F4FFE34880FE6FF0DFF835
:1019D800B777008023AAA78867800000130101FB5E
:1019E800232481042322910423202105232E31035B
:1019F800232C4103232A5103232291032320A103EB
:101A0800232EB10123261104232861032326710301
:101A1800232481031304050093840500930A060018
:101A2800138D0600130A00001309F0FF9309000044
:101A3800930C0000B70D008003C50A00631005046D
:101A48008320C1040324810483244104032901045D
:101A58008329C103032A8103832A4103032B01033A
:101A6800832BC102032C8102832C4102032D010226
:101A7800832DC1011301010567800000639E0C00DE
:101A880093065002630AD53693850400E7000400E4
:101A9800938A1A006FF05FFA93064006630ED5101A
:101AA80063E2A6069306900363EAA6029306100370
:101AB8006374D50E9306D002630AD53493070003E6
:101AC8006300F50C130750026312E50293850400C6
:101AD80013055002E70004006F00C0159306800547
:101AE800630ED51A13073006630EE52E938504009E
:101AF80013055002E70004009385040003C50A009B
:101B08006FF05FFD93060007630AD51663E0A6022F
:101B1800930690066302D50A9306C006630AD508A1
:101B280093068006E306D5F66FF05FFC9306500730
:101B38006306D51063EEA60213073007E318E5FA2B
:101B4800032C0D00130B4D00930B0C0003C50B0069
:101B580063180526930730006398F900B38B8B410F
:101B6800B30B794163467027130D0B006F00800C8F
:101B7800930680076304D5129306A0076FF09FFAB7
:101B8800635E090063880928130905FDE39209F0DB
:101B9800930920006FF0DFEFE34809FE9306A000E9
:101BA8003309D902130909FD330925016FF01FFE16
:101BB800130A1A006FF0DFED63120A0403260D0002
:101BC800130D4D0063500602938504001305D002DF
:101BD8002320C100E7000400032601001309F9FFD0
:101BE8003306C04013070900938609009385040053
:101BF80013050400EFF05FC96F00C003130710005E
:101C0800E30EEAFA93077D0013F787FF0326070020
:101C180083264700130D87003307B6013337C70003
:101C28003307D700E30007FA93850400130504007F
:101C3800EFF05FBF930C00006FF09FE563180A0098
:101C480003260D00130D4D006FF0DFF91307100088
:101C5800E308EAFE93077D0013F787FF130D87005B
:101C68000326070003274700E31007FCB707008097
:101C780093C7F7FFE3F8C7F66FF01FFB93850400DF
:101C880013050003E700040093850400130580078B
:101C9800E700040013098000930910009306100060
:101CA80063C2460B83270D0023240100130D4D004A
:101CB8002322F100130C0001930B000023200100E4
:101CC800930800010325410083258100138BF8FF49
:101CD80013162B0023261101EFE08FDA1375F50098
:101CE800631805088327010093060003639807001B
:101CF8008328C100930710006396F8083385A6006F
:101D0800131585019385040013558541E7000400E8
:101D1800938B1B0063180B0493063000930C000090
:101D2800E398D9D613171900B30B7741E35470F130
:101D38009385040013050002E7000400938BFBFF62
:101D48006FF0DFFE93077D0093F687FF83A70600F9
:101D5800138D86002322F10083A746002324F10077
:101D68006FF05FF52320910193080B006FF09FF54A
:101D78009307900093067005E3E2A7F89306000323
:101D88006FF0DFF79307FCFF2326F100634C89010E
:101D980093071000639CF900938504001305000362
:101DA800E7000400032CC1006FF01FFC930720001C
:101DB800E39AF9FE93850400130500026FF05FFEB5
:101DC80093850400938B1B00E70004006FF01FD875
:101DD8009385040013050002E7000400938BFBFFC2
:101DE8006FF05FD803250D0093850400130B4D0099
:101DF800E70004006FF05FD7130A00001309F0FF33
:101E080093090000930C10006FF09FC893093000ED
:101E18006FF01FC8930910006FF09FC7130101FEF0
:101E2800130605003725008093860500130585876E
:101E38009305C100232E110023260100EFF01FBADD
:101E48008320C1011301010267800000130101FC16
:101E58002322B10293054102232E11002324C1023B
:101E68002326D1022328E102232AF102232C01038D
:101E7800232E11032326B100EFF05FFA8320C1015E
:101E88001301010467800000B76500803765008092
:101E9800130101FF9385052B1305452C1306E0015B
:101EA80023261100EFF09FFAB7650080938505E9B6
:101EB80013056000EFE05FEA678000009307800089
:101EC800F3A70730730050106780000093071000D5
:101ED8003395A7007325453067800000930780007D
:101EE800F3B70730735040307350403467800000B8
:101EF800130101FF232481002322910037740080FD
:101F0800232611009307A000930405001304849668
:101F1800631CF500032504009305D00083274500C2
:101F280083A74700E78007000325040093F5F40F13
:101F38008327450083A74700E78007008320C10067
:101F48000324810013850400832441001301010147
:101F580067800000130101FF2324810037240080DB
:101F6800130584EF23261100EF00405B130584EF6F
:101F7800032481008320C100130101016FF05FA5D4
:101F880037650080130101FF1305052D2326110075
:101F9800EF005016B777008023A4A796EFF09FFBB9
:101FA8008320C100130500001301010167800000B0
:101FB800B70710F003A747F403A507F483A547F470
:101FC800E39AE5FE67800000130101FE232C8100DF
:101FD800232E1100232A91002328210123263101D1
:101FE8002324410123225101130480007334043057
:101FF800377900801305C99613748400EF2000799F
:10200800631E0502B7640080B765008037650080ED
:102018009385C52F9306E0041386442E1305852166
:10202800EFF0DFE23765008013054531EFF01FE27E
:102038009305E0041385442EEFF01FE51305C996B8
:10204800B7740080EF20007A93848494EFF05FF6F1
:1020580083A9040083AA440013070500330535410A
:102068003337A700B385554137D601001306064C10
:1020780093060000B385E540EFE00FA4B7D7010051
:102088009387074CB387A702130A05001305C9965F
:10209800B3893701B3B7F900B387570123A03401D7
:1020A80023A2F400EF200071631E0502B7640080CC
:1020B800B7650080376500809385C53293061006A2
:1020C8001386442E13058521EFF05FD8376500800D
:1020D80013054534EFF09FD7930510061385442E5A
:1020E800EFF09FDA73240430032481018320C101B7
:1020F80083244101032901018329C100832A410066
:1021080013050A00032A8100130101026F30C00A77
:10211800130101FF23261100EFF09FE9B7D7010053
:102128009387074C370710F0B307F5009306F0FFC5
:102138002326D7F433B5A7003305B5002324F7F4D5
:102148002326A7F413057000EFF05FD88320C100A1
:10215800130500001301010167800000639C051648
:10216800130101FE232E1100232C8100232A910044
:1021780023282101232631019307F0FF6316F50078
:10218800379500001305E5BCB79700001304F5FF69
:102198009387E7BC63DA87121384070093048000EF
:1021A800F3B40430377900801305C99693F484009A
:1021B800EF20C05D631E0502B7690080B765008027
:1021C800376500809385C52F9306E0041386492E52
:1021D80013058521EFF09FC737650080130545314A
:1021E800EFF0DFC69305E0041385492EEFF0DFC951
:1021F8001305C996EF20005FEFF09FDBB7D601000B
:10220800B77700801386064C9387879403A7070047
:1022180083A54700B307C4029386F64B3384E64090
:102228009306703EB3878700B307F500B3D7C7029C
:102238003305A740B387C7023305F50063C4A6007A
:10224800B387C700B70610F03387E7001306F0FF1F
:1022580023A6C6F4B337F700B387B70023A4E6F480
:1022680023A6F6F41305C996EF20C054631E050291
:1022780037640080B7650080376500809385C53274
:10228800930610061306442E13058521EFF01FBC94
:102298003765008013054534EFF05FBB93051006E2
:1022A8001305442EEFF05FBEF3A404308320C10170
:1022B8000324810183244101032901018329C100E9
:1022C8001301010267800000E35A04EC13040000C4
:1022D8006FF0DFEC67800000130101FF2324810009
:1022E80023261100232291002320210113048000BA
:1022F80073340430377900801305C9961374840049
:10230800EF20C048631E0502B7640080B7650080EF
:10231800376500809385C52F9306E0041386442E05
:1023280013058521EFF09FB237650080130545310D
:10233800EFF0DFB19305E0041385442EEFF0DFB42E
:102348001305C996EF20004AEFF09FC6B7770080C3
:1023580083A48794B304954037D501001305054C31
:10236800B3D4A4021305C996EF20C044631E050226
:1023780037690080B7650080376500809385C5326E
:10238800930610061306492E13058521EFF01FAC9E
:102398003765008013054534EFF05FAB93051006F1
:1023A8001305492EEFF05FAE732404308320C1007B
:1023B80003248100138504000329010083244100BC
:1023C80013010101678000008347050003C705006A
:1023D8006394E700639607003385E7406780000051
:1023E80013051500938515006FF01FFEB347B50060
:1023F80093F737006380070693070500130700006B
:10240800631AE60667800000E30E06FE9385150052
:1024180003C7F5FF938717001306F6FFA38FE7FEA0
:1024280013F73700E31207FE930630003308E6403F
:1024380063E60603135726009306C0FFB306D702C8
:1024480013172700B387E700B385E5003306D600E6
:102458006FF0DFFA930705006FF09FFCB388E50083
:1024680083A808003388E7001307470023201801D2
:102478006FF0DFFB3388E50003480800B386E70008
:1024880013071700238006016FF09FF793F6F50FE7
:102498009307050013F737006318070493F5F50F42
:1024A80013978500B365B70013970501B365B700A7
:1024B8003383C7001387070013083000B308E340CD
:1024C800636E18031357260093152700B387B700C8
:1024D8009305C0FF3307B7023307C7003387E70008
:1024E8006394E70267800000E30E06FE93871700F7
:1024F800A38FD7FE1306F6FF6FF0DFF91307470027
:10250800232EB7FE6FF09FFB93871700A38FD7FE8C
:102518006FF01FFD1305F0FF67800000B77700809C
:1025280023ACA78867800000130101FE232C8100DB
:102538008327850037740080232A91001304C489F7
:10254800B7740080232E110023282101232631018E
:1025580093840497930910002320040013090500AD
:1025680023A03401E7800700832749002320340192
:10257800E7800700930720002320F4008327C90081
:10258800E7800700930730002320F400032481012B
:1025980023A004008320C1018324410103290101F0
:1025A8008329C10037750080130545B41301010262
:1025B8006F10901F37750080130101FFB7770080F7
:1025C8001307F0FF130545B42326110023A8E79647
:1025D800EF10901DEF1010108320C10013010101AE
:1025E8006F20405137750080130101FFB7770080D5
:1025F8001307E0FF130545B42326110023A8E79627
:10260800EF10901AEF10100D8320C1001301010183
:102618006F20404E130101FA232A9104B7740080F9
:1026280083A74497232E1104232C810423282105F2
:102638002326310523244105232251052320610542
:10264800232E7103232C8103232A91032328A1031A
:102658002326B10363C407083774008013061000EB
:1026680093090500138C0500130544B49305000075
:10267800EF10100737650080938509001305053AA8
:10268800EFF0CFFC376900801305893BB76A0080FB
:10269800EFF0CFFB93844497130A0000232E8100A8
:1026A800B77C0080377B0080372D0080B77D0080A5
:1026B800B76B0080938A8A3583274C00639E070492
:1026C8009385090063060A10376500801305854263
:1026D800EFF0CFF79307100023A0F4008320C10583
:1026E8000324810583244105032901058329C104A5
:1026F800032A8104832A4104032B0104832BC10389
:10270800032C8103832C4103032D0103832DC10274
:10271800130101066780000083250C00B76700805D
:1027280013850740EFF08FF22322010083270C0165
:1027380013070C001306004093E787009308F0FF87
:102748001308000093060D532320F10093850CED28
:102758009307000013054BB5EF20801F8327C101A5
:102768009305F0FF138547B4EF10501293870D9728
:1027780013054BB503A40700EF20C037B7770080D7
:102788009387079703A70700130414009307E0FF34
:102798001334140003260C006314F702B765008095
:1027A800938545411385CB41EFF04FEA1305893BEB
:1027B800EFF0CFE9330A8A00130C4C016FF0DFEF1A
:1027C80093172400B387FA0083A507006FF09FFDD5
:1027D8003765008013050544EFF04FE783A7040031
:1027E800B337F0006FF05FEFB777008083A74797A4
:1027F800130101FF2324810037650080232611007F
:10280800376400801305853B63820702EFF00FE40D
:10281800B7650080938545361305C43603248100C7
:102828008320C100130101016FF04FE2EFF00FE2C6
:10283800B7650080938545386FF01FFE130101FFCF
:1028480023261100EFD05FEB8320C10013010101A3
:102858006FF09FF9130101FF232601008327C100B0
:10286800938717002326F100B70701F023A0B700CC
:1028780013010101678000001305F0FF6780000065
:10288800130500006780000013172500B767008054
:10289800130515009387074713152500130101FF3A
:1028A8003387E700B387A700232481002322910000
:1028B8000324070083A4070023261100636C9400F7
:1028C8008320C100032481008324410013010101F6
:1028D80067800000832704001305040083A74700CE
:1028E800E780070063040500232204001304C400E2
:1028F8006FF0DFFC130101FFB777008023229100FE
:10290800B774008023248100232611001384078BC9
:10291800232021019387078B9384048E631C9400E2
:1029280013090500138407006314940213040000BC
:102938006F004004032744006308070003270400CE
:10294800032707006308A7021304C4006FF01FFDE4
:1029580083274400639607001304C4006FF0DFFC6C
:10296800832704001305090083A50700EFF0DFA5FE
:10297800E31405FE130504008320C100032481002D
:10298800832441000329010013010101678000002D
:10299800130101FF23248100232291002326110023
:1029A8001304800093042000F3370430EF20C06242
:1029B80063C4A4001305100093051000EF20806F76
:1029C800EFF0CFCF6FF05FFE37750080B7770080EC
:1029D80013068594938707CD3386C7409305000077
:1029E800130585946FF09FAA130101FF13052000BA
:1029F80023261100EFF05FE937650080130545488D
:102A0800EFF0CFC413053000EFF01FE8EF2080038C
:102A1800EFF0DFE2B7770080938747C303C7C700AB
:102A28001377E7FF2386E7008320C1001301010124
:102A380067800000130101F6232C8108B787008006
:102A48003774008023263109938707ED930944CA18
:102A580023A2F9009307010113060007930500005C
:102A680013850700232E1108232A910823282109FA
:102A7800EFF0DFA11307100023A4A900130500003D
:102A8800A30EE100EFF05FE013051000EFF0DFDFC9
:102A980093071010231EF100EF10C041B7670080A4
:102AA8009387874C377900802322F100B73600805E
:102AB80093071000B7750080930449C32320F100E1
:102AC8001307000093070000930800001308000094
:102AD8009386069F130600209385052D130549C389
:102AE80023A09902EF10D03D83C7D400130444CA31
:102AF80013F7B7FFA386E40093F7B701639A0700BB
:102B080083A7840163960700130549C3EF00901853
:102B1800B76700809387074D2322F100377500803F
:102B280093071000B7360080B7750080930445BC42
:102B38002320F1009308F000130800009307000019
:102B48001307000093868699130600209385054D88
:102B5800130545BCEF10D03683C7D4002326940054
:102B68001305800093F7B7FFA386F400B7770080BA
:102B78009387C7CB232CF400232EF400733505303C
:102B880013758500EFD0CFEA8347D50093F7F70197
:102B98006398070003258501133515006780000039
:102BA8001305000067800000130101FF23261100B0
:102BB800EFF08FF2B777008083A707988320C100D2
:102BC800377700803385A700232AA7CA930500001A
:102BD80013850700130101016F20C04D83270500ED
:102BE800130101FF232481002326110023229100D1
:102BF8001304050063980702B7640080B765008076
:102C0800376500809385055713058521930630188D
:102C18001386C455EFF08FA3930530181385C45558
:102C2800EFF08FA6032504008320C1000324810050
:102C3800832441001301010167800000130101FE94
:102C4800232C81002328210123244101232E110054
:102C5800232A91002326310113090500138A050050
:102C68001304800073340430B7740080138584978C
:102C780013748400EF109031631E0502B769008059
:102C8800B7650080376500809385C52F9306E004FB
:102C98001386492E13058521EFF04F9B3765008079
:102CA80013054531EFF08F9A9305E0041385492EFB
:102CB800EFF08F9D13858497EF10D032B77700809F
:102CC80023AA07CA130999009307A0003349F902F8
:102CD800B777008023A02799B777008023AE47975E
:102CE800EFF09FEC13858497EF10D02C631E05023C
:102CF800B7640080B7650080376500809385C5326A
:102D0800930610061386442E13058521EFF00F94C1
:102D18003765008013054534EFF04F93930510068F
:102D28001385442EEFF04F96732404308320C1019D
:102D38000324810183244101032901018329C1005E
:102D4800032A81001301010267800000130101FEBC
:102D5800232C810023282101232E1100232A9100EE
:102D6800232631011309050013048000733404304D
:102D7800B77400801385849713748400EF101021B2
:102D8800631E0502B7690080B7650080376500805B
:102D98009385C52F9306E0041386492E13058521D4
:102DA800EFF0CF8A3765008013054531EFF00F8AC1
:102DB8009305E0041385492EEFF00F8D1385849752
:102DC800EF10502213058900EFF05FE19305090029
:102DD800EF00002F8347D9001385849793F7D7FF17
:102DE800A306F900EF10101D631E0502B7640080EA
:102DF800B7650080376500809385C5329306100655
:102E08001386442E13058521EFF04F843765008023
:102E180013054534EFF08F83930510061385442E70
:102E2800EFF08F86732404308320C10103248101CD
:102E38002324090083244101032901018329C100B6
:102E48001301010267800000B777008083A747CA93
:102E5800130101FF2324810023261100232291005E
:102E680013840500639E0704EF10D014631E050247
:102E7800B7640080B7650080376500809385C532E8
:102E8800930680071386442E13058521EFE01FFC67
:102E98003765008013054534EFE05FFB9305800735
:102EA8001385442EEFE05FFE130504000324810020
:102EB8008320C10083244100130101016FD04FB763
:102EC800EF10500F631E0502B7640080B7650080DD
:102ED800376500809385C532930610061386442E05
:102EE80013058521EFE09FF637650080130545340B
:102EF800EFE0DFF5930510061385442EEFE0DFF8C9
:102F080013748400732404308320C10003248100D7
:102F18008324410013010101678000003777008096
:102F2800032747CA631407006FD08FB093778500D3
:102F3800F3A707306780000013058000733505305C
:102F4800137585006FF09FFD130101FE232C81008E
:102F5800232E1100232A9100232821012326310141
:102F68001304800073340430B77400801385849789
:102F780013748400EF109001631E05023769008006
:102F8800B7650080376500809385C52F9306E004F8
:102F98001306492E13058521EFE05FEB37650080A6
:102FA80013054531EFE09FEA9305E0041305492E28
:102FB800EFE09FED1385849737790080EF1090023A
:102FC800832749CA130949CA638E0702B769008073
:102FD800B7650080376500809385454F93060010DC
:102FE8001386894D13058521EFE05FE6376500807C
:102FF8001305C529EFE09FE5930500101385894D5A
:10300800EFE09FE88327890003C7F70093071000C4
:10301800631EF702B7690080B765008037650080D6
:103028009385C550930610101386894D1305852185
:10303800EFE0DFE1376500801305C529EFE01FE108
:10304800930510101385894DEFE01FE403278900CD
:103058008347F7009387F7FFA307F7001385849743
:10306800EF104075631E0502B7640080B7650080E5
:10307800376500809385C532930610061386442E63
:1030880013058521EFE09FDC376500801305453483
:10309800EFE0DFDB930510061385442EEFE0DFDE5B
:1030A800732404308320C101032481018324410156
:1030B800032901018329C10013010102678000006F
:1030C800B777008083A7C78A130101FF23248100F3
:1030D8002326110023229100138405006398F5022A
:1030E800B7640080B7650080376500809385855A8E
:1030F800130585219306C0281386C455EFE01FD514
:103108009305C0281385C455EFE01FD80327440052
:10311800832704008320C100832441002320F70073
:1031280023A2E700232004002322040003248100B3
:103138001301010167800000130101FE232C8100A7
:10314800232A9100232E110023282101232631014F
:103158001304050093048000F3B404303779008029
:103168001305899793F48400EF104062631E0502EB
:10317800B7690080B7650080376500809385C52FE3
:103188009306E0041386492E13058521EFE01FCC32
:103198003765008013054531EFE05FCB9305E00408
:1031A8001385492EEFE05FCE13058997EF108063F2
:1031B80013058400EFF09FA293050400EFF05FF081
:1031C8008347D4001305899793F7D7FFA306F40024
:1031D800EF10405E631E050237690080B765008006
:1031E800376500809385C532930610061306492E6D
:1031F80013058521EFE09FC5376500801305453429
:10320800EFE0DFC4930510061305492EEFE0DFC792
:10321800F3A404302324040013058401032481014A
:103228008320C10183244101032901018329C100AD
:10323800130101026F10D04A832705006314F500BB
:10324800930700001385070067800000130101FF42
:1032580023248100377400802320210113090500ED
:10326800130544CA130545022322910023261100A1
:10327800EFF09FFC130444CA93040500631405008F
:103288008324C400631E090683278400639E070203
:1032980037690080B7650080376500809385855859
:1032A8009306F0071306C95513058521EFE01FBAE9
:1032B800376500801305C529EFE05FB99305F0076E
:1032C8001305C955EFE05FBC8327840003C7D70007
:1032D8001377F7016316070283D6E7001307F00791
:1032E8006370D7022320F4028320C10003248100E5
:1032F80083244100032901001301010167800000B4
:103308008327840063849700EFF01F8A23209402A8
:103318006FF09FFD130101FE2328210137790080FA
:10332800930749CA83A78700232E1100232C810005
:1033380083C7F700232A910023263101130949CABC
:10334800639E070237640080B76500803765008098
:1033580093854553930610221306C45513058521FA
:10336800EFE0DFAE376500801305C529EFE01FAE3B
:10337800930510221305C455EFE01FB183270900F8
:10338800638E070237640080B76500803765008068
:103398009385454F930620221306C45513058521AE
:1033A800EFE0DFAA376500801305C529EFE01FAA03
:1033B800930520221305C455EFE01FAD13048000C8
:1033C80073340430B77400801385849713748400B1
:1033D800EF10C03B631E0502B7690080B765008027
:1033E800376500809385C52F9306E0041386492E20
:1033F80013058521EFE09FA537650080130545314A
:10340800EFE0DFA49305E0041385492EEFE0DFA782
:1034180013858497EF10003D0327890013051000DA
:103428008347F70093871700A307F700EFF01FE221
:1034380013858497EF100038631E0502B764008077
:10344800B7650080376500809385C53293061006FE
:103458001386442E13058521EFE05F9F37650080B2
:1034680013054534EFE09F9E930510061385442EFF
:10347800EFE09FA173240430032481018320C1015C
:1034880083244101032901018329C1001301010299
:103498006FF09FAA130101FE232C8100232A9100BB
:1034A800232E1100232821012326310113040500AE
:1034B80093048000F3B404303779008013058997AA
:1034C80093F48400EF10802C631E0502B769008016
:1034D800B7650080376500809385C52F9306E004A3
:1034E8001386492E13058521EFE05F963765008026
:1034F80013054531EFE09F959305E0041385492EA8
:10350800EFE09F9813058997EF10C02DB7770080DB
:1035180083A7C78A6318F402B7690080B76500807B
:10352800376500809385855A1305852193066027A2
:103538001386C955EFE09F91930560271385C955F8
:10354800EFE09F9437770080930647CA83A7460227
:1035580003A68602B7760080938686CC130747CAEF
:103568006386D70A6384070A8305E4000385E700B6
:1035780063D8A50803A747002320F4002322E4000A
:103588002320870023A287008347D4001305000067
:1035980093E70704A306F400EFF05FCB13058997C0
:1035A800EF104021631E050237640080B765008074
:1035B800376500809385C532930610061306442E9E
:1035C80013058521EFE09F88376500801305453492
:1035D800EFE0DF87930510061305442EEFE0DF8A3E
:1035E800F3A404308320C101032481018324410111
:1035F800032901018329C10013010102678000002A
:103608006306F60083A70700E39207F62322C400A7
:10361800832787022320D40023A08700232487023E
:103628006FF09FF6832705FF130101FE232C81000D
:1036380023263101232E1100232A9100232821015A
:103648002324410113040500930985FE6384070CB4
:1036580093048000F3B40430377900801305899708
:1036680093F48400EF108012631E0502376A00800D
:10367800B7650080376500809385C52F9306E00401
:1036880013064A2E13058521EFE04FFC37650080AD
:1036980013054531EFE08FFB9305E00413054A2E2F
:1036A800EFE08FFE13058997EF10C013130504FF91
:1036B800EFF0CFD293850900EFF09FA0834754FF26
:1036C8001305899793F7D7FFA30AF4FEEF10800E2E
:1036D800631E050237690080B76500803765008082
:1036E8009385C532930610061306492E13058521C6
:1036F800EFE0CFF53765008013054534EFE00FF5AF
:10370800930510061305492EEFE00FF8F3A40430D3
:10371800232804FE834754FF1385090093F7B7FE57
:10372800A30AF4FEEFF04FC66304050203248101E7
:103738008320C1018324410103290101032A810057
:10374800138509008329C100130101026FF09FD47A
:103758008320C1010324810183244101032901013C
:103768008329C100032A8100130101026780000038
:10377800130101FE232C810023282101232E11008F
:10378800232A9100232631012324410123225101B8
:10379800130405001309800073390930B7790080D4
:1037A8001385899713798900EF00507E631E0502FF
:1037B800B7640080B7650080376500809385C52FA2
:1037C8009306E0041386442E13058521EFE00FE8E5
:1037D8003765008013054531EFE04FE79305E004B6
:1037E8001385442EEFE04FEA13858997EF00907F09
:1037F800B7740080138544CA930504001305450275
:10380800EFF01F8CB777008083A7C78A377A0080CC
:10381800938444CA130A8ACC6318F402B76A0080F6
:10382800B7650080376500809385855A1305852123
:10383800930660271386CA55EFE04FE1930560278A
:103848001385CA55EFE04FE483A7440203A7840217
:10385800638E470B638C070A8306E4000386E70040
:1038680063D0C60A03A747002320F4002322E400FC
:103878002320870023A287008347D40003A5840060
:1038880093E707043305854013351500A306F400B4
:10389800EFF0DF9B13858997EF00D071631E050257
:1038A80037640080B7650080376500809385C5322E
:1038B800930610061306442E13058521EFE00FD951
:1038C8003765008013054534EFE04FD8930510069F
:1038D8001305442EEFE04FDB732909308320C10123
:1038E8000324810183244101032901018329C100A3
:1038F800032A8100832A4100130101026780000026
:103908006386E70083A70700E39A07F42322E4000D
:1039180083A784022320440123A0870023A48402D0
:103928006FF09FF5B777008083A70798638607062F
:10393800B7770080938747CA03A787009306F007E5
:103948000356E70063EAC604B77600800306E7007B
:1039580083A6C6976342D604B776008083A6C68A34
:10396800630CD702832687016398060283A60701A2
:103978006340D502130101FF130507002326110038
:10398800EFF01FDF8320C100130101016FF0CFA109
:10399800B386A64023A8D70067800000130101FE64
:1039A800232C810023263101232E1100232A910084
:1039B800232821019309050013048000733404307F
:1039C800B77400801385849713748400EF00105C2B
:1039D800631E050237690080B7650080376500807F
:1039E8009385C52F9306E0041306492E13058521F8
:1039F800EFE0CFC53765008013054531EFE00FC50F
:103A08009305E0041305492EEFE00FC8138584974A
:103A1800EF00505D83C7D90037790080130949CA80
:103A280093F70704638E070093850900130549027D
:103A3800EFF00FE983C7D90093F7F7FBA386F900E6
:103A4800032589003305354113351500EFF01F8034
:103A580013858497EF001056631E0502B764008033
:103A6800B7650080376500809385C53293061006D8
:103A78001386442E13058521EFE04FBD376500807E
:103A880013054534EFE08FBC930510061385442ECB
:103A9800EFE08FBF732404308320C1010324810128
:103AA80083244101032901018329C1001301010273
:103AB80067800000130101FE232C8100232A910056
:103AC8001304050023282101232E11002326310188
:103AD8009384050013090600EFF05FEC8347D400D8
:103AE80093E72700A306F40063860406B7770080EF
:103AF80083A7C78A232494006318F402B769008057
:103B0800B7650080376500809385855A1305852140
:103B1800930660271386C955EFE04FB393056027D6
:103B28001385C955EFE04FB683A70400638CF406EC
:103B3800638A07060307E4008386E700635CD7040B
:103B480003A747002320F4002322E4002320870052
:103B580023A287009307F0FF6304F906130999006D
:103B68001306A0003346C90213058401032481010A
:103B78008320C10183244101032901018329C10054
:103B8800B73500809385C56213010102130616003C
:103B98006F10401283A644006386D70083A70700EE
:103BA800E39C07F883A74400232094002322F40011
:103BB80083A7440023A0870023A284006FF09FF905
:103BC8008320C101032481018324410103290101C8
:103BD8008329C1001301010267800000130101FF5E
:103BE800B7770080232481001304050003A5C7CA02
:103BF80023261100EFF01FEC1305040003248100B5
:103C08008320C100130101016FC08FE2130101FF7E
:103C1800B7770080232481001304050003A5C7CAD1
:103C2800232291009384050093050600138606005D
:103C380023261100EFF01FE813050400EF0090376A
:103C4800631E050237640080B76500803765008011
:103C58009385C532930680071306442E13058521E4
:103C6800EFE0CF9E3765008013054534EFE00F9EE7
:103C7800930580071305442EEFE00FA1032481006C
:103C88008320C1001385040083244100130101012E
:103C98006FC00FDA130101FE232821012326310109
:103CA800232E1100232C8100232A9100930905005B
:103CB8001309800073390930B7740080138584971D
:103CC80013798900EF00902C631E05023764008089
:103CD800B7650080376500809385C52F9306E0049B
:103CE8001306442E13058521EFE04F9637650080B3
:103CF80013054531EFE08F959305E0041305442E35
:103D0800EFE08F9813858497EF00D02D1385090075
:103D1800EFF08FD21304050013858497EF009029E4
:103D2800631E0502B7690080B765008037650080AB
:103D38009385C532930610061386492E13058521EF
:103D4800EFE0CF903765008013054534EFE00F9022
:103D5800930510061385492EEFE00F937329093058
:103D68006306040C1309800073390930138584979E
:103D780013798900EF009021631E0502B76900805E
:103D8800B7650080376500809385C52F9306E004EA
:103D98001386492E13058521EFE04F8B3765008088
:103DA80013054531EFE08F8A9305E0041385492E0A
:103DB800EFE08F8D13858497EF00D02213058400E0
:103DC800EFE0DFE193050400EFF08FAF8347D40005
:103DD8001385849793F7D7FFA306F400EF00901D8F
:103DE800631E0502B7640080B765008037650080F0
:103DF8009385C532930610061386442E1305852134
:103E0800EFE0CF843765008013054534EFE00F8479
:103E1800930510061385442EEFE00F8773290930A8
:103E28002324040013058401EF10800B13050400FC
:103E38008320C10103248101832441010329010155
:103E48008329C1001301010267800000130101FFEB
:103E580023229100232021012326110023248100FD
:103E68001309050093040000032409006304890072
:103E7800631004028320C100032481001385040019
:103E88000329010083244100130101016780000018
:103E980013050400EFF04FAA13050400EFE0DFCE8E
:103EA80093041000E30205FC13050400EFF08FDE15
:103EB8006FF09FFBB7770080938747CA1387470245
:103EC80023A2E70223A4E7029305000013050000DC
:103ED8006FE0DFD6B777008003A5C7CA6780000008
:103EE800130101FE232C8100232A9100232821019C
:103EF800232E110023263101130405001389050020
:103F080093040600631E0602B7690080B765008047
:103F1800376500809385C55C930660041386C95B8A
:103F280013058521EFD09FF2376500801305855D65
:103F3800EFD0DFF1930560041385C95BEFD0DFF4A0
:103F480063FE2403B7690080B76500803765008089
:103F58009385055F930670041386C95B1305852155
:103F6800EFD0DFEE3765008013058560EFD01FEED8
:103F7800930570041385C95BEFD01FF12324240136
:103F88002326940023208400232284008320C10157
:103F98000324810183244101032901018329C100EC
:103FA8001301010267800000130101FE232A91001A
:103FB80023263101232E1100232C810023282101DF
:103FC8009309050093048000F3B40430377400802B
:103FD8001305449893F48400EF00407B631E0502A8
:103FE80037690080B7650080376500809385C52FE5
:103FF8009306E0041306492E13058521EFD01FE52B
:104008003765008013054531EFD05FE49305E00480
:104018001305492EEFD05FE713054498EF00807C25
:1040280013850900EFF01FC7130905006302050493
:104038008347D50093F7F701639807008327850125
:1040480063940700EFF00FC523260906130544986B
:10405800032481018320C101032901018329C100AF
:104068009385040083244101130101026FE0DFDD21
:1040780003A7890083A7C900B387E740B337F000D7
:10408800B387E70023A4F9006FF05FFCB7770080DF
:1040980083A747CA130101FE2328210123263101E2
:1040A800232E1100232C8100232A9100232441016F
:1040B800130905009389050063800704638E0502D0
:1040C80037640080B7650080376500809385056395
:1040D8009306C0081306C45B13058521EFD01FD7CC
:1040E800376500801305C529EFD05FD69305C00852
:1040F8001305C45BEFD05FD9130480007334043018
:10410800B77400801385449813748400EF00006826
:10411800631E0502376A0080B76500803765008036
:104128009385C52F9306E00413064A2E13058521AF
:10413800EFD0DFD13765008013054531EFD01FD1AF
:104148009305E00413054A2EEFD01FD41385449835
:10415800EF00406983278900638C07069387F7FF80
:104168002324F90013854498EF00C064631E0502F8
:10417800B7640080B7650080376500809385C532D5
:10418800930610061386442E13058521EFD01FCC05
:104198003765008013054534EFD05FCB93051006D3
:1041A8001385442EEFD05FCE73240430130500002E
:1041B8008320C101032481018324410103290101D2
:1041C8008329C100032A81001301010267800000CE
:1041D800639A090413854498EF00C05D631E0502C5
:1041E800B7640080B7650080376500809385C53265
:1041F800930610061386442E13058521EFD01FC59C
:104208003765008013054534EFD05FC49305100669
:104218001385442EEFD05FC773240430130500FFC5
:104228006FF01FF993050400032481018320C10165
:10423800032A810093860900130609008329C10017
:1042480003290101138544988324410113010102C4
:104258006FF0DF9B131626002326B5002328B50030
:10426800B385C5002320A5002322A500232405002B
:10427800232AB50067800000130101FE232C81006A
:104288001304050013850500232E11002326B10011
:10429800EF10C065630805020326C10093050500F9
:1042A80013050400EFF01FFB93071000230CF40024
:1042B800130500008320C1010324810113010102B9
:1042C80067800000130540FF6FF0DFFE83270500BD
:1042D800130101FF232481002326110023229100CA
:1042E80013040500630AF50263880702B7640080B7
:1042F800B76500803765008093858567130585213C
:104308009306A00513864466EFD05FB49305A00515
:1043180013854466EFD05FB78347840193F717008E
:10432800638E07000325C400EF10405B83478401B8
:104338002326040093F7E7FF230CF4008320C10031
:1043480003248100832441001301010167800000D8
:104358000327050183274501130101FE232A910044
:1043680023244101232E1100232C8100232821011D
:104378002326310193040500138A0500631EF70202
:1043880037640080B7650080376500809385456A8B
:10439800930680061306446613058521EFD01FABEC
:1043A800376500801305056CEFD05FAA930580067A
:1043B80013054466EFD05FAD938984001304800031
:1043C800733404301385090013748400EF00003C33
:1043D800631E050237690080B76500803765008075
:1043E8009385C52F9306E0041306492E13058521EE
:1043F800EFD0DFA53765008013054531EFD01FA545
:104408009305E0041305492EEFD01FA81385090072
:10441800EF00403D13850400EFF0DF871309050026
:10442800630605048347D50093F7F70163980700EF
:104438008327850163940700EFF0CF859305040077
:1044480003248101232A4901232609068320C10167
:104458008324410103290101032A810013850900EE
:104468008329C100130101026FE01F9E83A7040185
:104478001385090023A047019387470023A8F40068
:10448800EF004033631E0502B7640080B765008003
:10449800376500809385C532930610061386442E2F
:1044A80013058521EFD09F9A3765008013054534A1
:1044B800EFD0DF99930510061385442EEFD0DF9CCB
:1044C800732404308320C101032481018324410122
:1044D800032901018329C100032A81001301010274
:1044E80067800000130101FE232C8100232A91001C
:1044F800232821012326310123244101232E1100E1
:10450800232251011309050093890500130A0600A7
:104518009304850013048000733404301385040069
:1045280013748400EF008026631E0502B76A0080BA
:10453800B7650080376500809385C52F9306E00432
:1045480013864A2E13058521EFD05F9037650080CA
:1045580013054531EFD09F8F9305E00413854A2E4C
:10456800EFD09F9213850400EF00C027832709012D
:104578000327C9006372F7061387C7FF83A7C7FF1E
:104588002328E9001385040023A0F900EF00802206
:10459800631E0502B7640080B76500803765008038
:1045A8009385C532930610061386442E130585217C
:1045B800EFD0DF893765008013054534EFD01F89B8
:1045C800930510061385442EEFD01F8C73240430F6
:1045D800130500006F004005631A0A0613850400DE
:1045E800EF00401D631E0502B7640080B7650080B8
:1045F800376500809385C532930610061386442ECE
:1046080013058521EFD09F84376500801305453455
:10461800EFD0DF83930510061385442EEFD0DF8695
:1046280073240430130500FF8320C1010324810192
:1046380083244101032901018329C100032A810040
:10464800832A4100130101026780000093060A00D3
:10465800130609009305040013850400EFF00FDB2F
:10466800930750FFE302F5FCB777008083A7C7CA1A
:1046780083A7470123A0F9006FF09FF58347D50072
:1046880093F7F70163980700032585011335150093
:10469800678000001305000067800000B77700807E
:1046A80003A547CA3335A00067800000B7770080AC
:1046B80083A7C7CA03C5C700137515006780000024
:1046C800130101FE03230102232C8100232E110074
:1046D8002320610013040500EFC0DF89B77700804D
:1046E80083A7C7CA8320C10183A787062324F406AA
:1046F8000324810113010102678000008327050656
:10470800130101FF2324810023261100130405004F
:1047180063840700E780070013050400EFF01FF625
:104728006304050213050400EFF04FA78347D40084
:104738008320C10093E78700A306F40003248100C7
:1047480013010101678000008347D40093F7270015
:104758006386070013050400EFE04FDF8327840119
:10476800E38607FC13058401EF0080776FF01FFCD8
:104778002306D500A306C5002307B500A307050037
:10478800232C0500232E0500678000000325050063
:10479800630E0500B777008083C787CB1375350094
:1047A8003305F5403335A00067800000130510007D
:1047B80067800000B7770080938747CA03C747011F
:1047C80083A78700B3E7E700032705006318F7000E
:1047D8002320050013051000678000001305000062
:1047E80067800000B7770080938747CA03C74701EF
:1047F80083A78700B3E7E7002320F5006780000060
:10480800130101FE232C810023282101232E1100EE
:10481800232A91002326310113090500130480007F
:1048280073340430B774008013858498137484003B
:10483800EFF0DFF5631E0502B7690080B7650080F9
:10484800376500809385C52F9306E0041386492EAB
:1048580013058521EFD08FDF3765008013054531BB
:10486800EFD0CFDE9305E0041385492EEFD0CFE1DA
:1048780013858498EFF01FF78347D90013F7470093
:104888006314070613858498EFF0DFF2631E0502B0
:10489800B7640080B7650080376500809385C532AE
:1048A800930610061386442E13058521EFD00FDAE0
:1048B8003765008013054534EFD04FD993051006AE
:1048C8001385442EEFD04FDC732404308320C101BC
:1048D8000324810183244101032901018329C100A3
:1048E800130101026780000093F7B7FFA306F900E0
:1048F80013050900EFF09FD86306050013050900AA
:10490800EFE05FB993050400032481018320C1010E
:10491800032901018329C100138584988324410157
:10492800130101026FE04FD2639405006FF05FED51
:10493800938595001306A00033C6C502B7350080DD
:104948009385C56213058501130616006F0080362E
:10495800130101FC23225103938A0600B7760080D5
:1049680083A646CA232C8102232A910223263103D7
:1049780023244103232E11022328210313040500B5
:1049880093890500130A060083244104638E0604F4
:1049980037690080B7650080376500809306201B63
:1049A8001306096D9385454F13058521232E1101A3
:1049B800232C0101232AF1002328E100EFD00FC99D
:1049C800376500801305456EEFD04FC89305201B4F
:1049D8001305096DEFD04FCB8328C101032881014E
:1049E80083274101032701018326010423220100B3
:1049F80013060A002320D1009385090093860A0034
:104A080013050400EFF0DFCB9307F0FF6388F40091
:104A18009385040013050400EFF01FF1130504004B
:104A28008320C10303248103832441030329010351
:104A38008329C102032A8102832A41021301010446
:104A480067800000130101FEB77700802328210149
:104A580037790080232C8100232A9100232E11000E
:104A68001384078E9384078E1309098E63662403C3
:104A780013840400EFE04FCD9304F0FF6360240734
:104A8800032481018320C1018324410103290101F9
:104A9800130101026FE01F888327C4022322F1005B
:104AA800832704022320F100832744018328C401BB
:104AB80003288401032704018326C40003268400F5
:104AC8008325440003250400EFF09FBF83270400DB
:104AD80023AE8704130404036FF05FF983254402AF
:104AE8006386950003250400EFF01FE41304040314
:104AF8006FF0DFF8130101FE232C8100232A9100B7
:104B0800232E1100232821019304050023260100E8
:104B180013048000733404301305C1001374840037
:104B2800EFF0DFC6631E050237690080B7650080B5
:104B3800376500809385C52F9306E0041306492E38
:104B480013058521EFD08FB03765008013054531F7
:104B5800EFD0CFAF9305E0041305492EEFD0CFB2C5
:104B68001305C100EFF01FC883C7C40093F71700EF
:104B7800638E070237690080B7650080376500805B
:104B880093854572930690021306C9701305852113
:104B9800EFD0CFAB3765008013058575EFD00FAB2D
:104BA800930590021305C970EFD00FAE138504006A
:104BB800EFF0DFB4930504001305C100EFE0CFA8C0
:104BC8008320C101032481018324410103290101B8
:104BD8001301010267800000B777008083A7C79898
:104BE800639407006FD04FEF130500006780000043
:104BF8008327050063020502377700800327478A69
:104C0800630CE500638A070003A7870083268500F5
:104C18003307D70023A4E700032745002320F70024
:104C280023A2E70023200500232205006780000057
:104C3800B777008083C78799130101FF23261100E6
:104C480023248100232291001305F0FF63960700B7
:104C5800370500801345F5FFB77700809387078AEB
:104C680003A407006304F40263020402832484009B
:104C7800EFF09FF6B384A4401305000063C8040056
:104C880003248400EFF05FF53305A440B777008074
:104C980083A747CB6386070063D4A7001385070063
:104CA8008320C100032481008324410013010101F2
:104CB8006780000083270500130101FD232481027A
:104CC80023229102232E31012326110223202103BE
:104CD800232C4101232A5101232861012326710134
:104CE8002324810113040500938905009304060019
:104CF800638E070237690080B765008037650080DA
:104D0800938585789306D004130649771305852182
:104D1800EFD0CF93376500801305C529EFD00F93E7
:104D28009305D00413054977EFD00F962326340155
:104D3800634490009304100093098000F3B909308C
:104D4800377A008013050A9993F98900EFF01FA4B8
:104D5800631E050237690080B765008037650080EB
:104D68009385C52F9306E0041306492E1305852164
:104D7800EFD0CF8D3765008013054531EFD00F8D0B
:104D88009305E0041305492EEFD00F9013050A99F7
:104D9800EFF05FA5EFF05FE433059500B77400808E
:104DA80003A9048A2324A4009384048A630C990029
:104DB800B76A0080376B0080B76B0080376C008063
:104DC8006310090283A74400232094002322F400DF
:104DD80083A7440023A0870023A284006F00C00596
:104DE8008327890063D6070293058B7A93066005AB
:104DF80013864A7713858B21EFD04F851305CC296D
:104E0800EFD0CF849305600513854A77EFD0CF871D
:104E1800032789008327840063D8E70AB307F7408C
:104E28002324F90083274900232024012322F400A6
:104E380023A087002322890083A70400638A9700A0
:104E48006318F400EFF0DFDE93050000EFD00FB138
:104E580013050A99EFF01F96631E05023764008058
:104E6800B7650080376500809385C53293061006C4
:104E78001306442E13058521EFC05FFD37650080BA
:104E880013054534EFC09FFC930510061305442E07
:104E9800EFC09FFFF3A909308320C10203248102D8
:104EA80083244102032901028329C101032A8101C4
:104EB800832A4101032B0101832BC100032C8100AC
:104EC8001301010367800000B387E7402324F4003F
:104ED80083A74400E38827EF032909006FF05FEEFA
:104EE800130101FE232C810023263101232E1100FA
:104EF800232A910023282101930905001304800027
:104F080073340430B77400801385049913748400D3
:104F1800EFF0DF87631E050237690080B765008000
:104F2800376500809385C52F9306E0041306492E44
:104F380013058521EFC09FF13765008013054531C2
:104F4800EFC0DFF09305E0041305492EEFC0DFF34F
:104F580013850499EFF01F8983A709001309A0FEA0
:104F68006388070013850900EFF09FC81309000044
:104F780013850499EFF01F84631E0502B76400804F
:104F8800B7650080376500809385C53293061006A3
:104F98001386442E13058521EFC05FEB376500802B
:104FA80013054534EFC09FEA930510061385442E78
:104FB800EFC09FED732404308320C10103248101D5
:104FC8001305090083244101032901018329C10034
:104FD8001301010267800000130101FF23248100EF
:104FE800232611002322910023202101130480008D
:104FF80073340430B77400801385049913748400E3
:10500800EFF0CFF8631E050237690080B7650080AE
:10501800376500809385C52F9306E0041306492E53
:1050280013058521EFC09FE23765008013054531E0
:10503800EFC0DFE19305E0041305492EEFC0DFE47C
:1050480013850499EFF00FFAEFF09FBE13090500DE
:1050580013850499EFF00FF6631E0502B76400800C
:10506800B7650080376500809385C53293061006C2
:105078001386442E13058521EFC05FDD3765008058
:1050880013054534EFC09FDC930510061385442EA5
:10509800EFC09FDF732404308320C1000324810004
:1050A80013050900832441000329010013010101AC
:1050B80067800000130101FE232C810023282101B1
:1050C80023244101232E1100232A91002326310194
:1050D80013090500138A0500130480007334043093
:1050E800B77400801385049913748400EFF00FEAF5
:1050F800631E0502B7690080B765008037650080C8
:105108009385C52F9306E0041386492E1305852140
:10511800EFC0DFD33765008013054531EFC01FD3DB
:105128009305E0041385492EEFC01FD61385049913
:10513800EFF04FEBEFF0DFAF635CA90093071000CF
:1051480063D8A70093050A0013050900EFD00F8163
:1051580013850499EFF00FE6631E0502B76400801B
:10516800B7650080376500809385C53293061006C1
:105178001386442E13058521EFC05FCD3765008067
:1051880013054534EFC09FCC930510061385442EB4
:10519800EFC09FCF732404308320C1010324810111
:1051A80083244101032901018329C100032A8100C5
:1051B8001301010267800000130101FD232481020D
:1051C800232C4101232611022322910223202103AB
:1051D800232E3101232A510123286101232671013D
:1051E80023248101232291012320A101130A050010
:1051F80013048000EFE00FF3733404303779008034
:105208001305099913748400EFF04FD8631E050243
:10521800B7640080B7650080376500809385C52F27
:105228009306E0041386442E13058521EFC01FC2A0
:105238003765008013054531EFC05FC19305E00471
:105248001385442EEFC05FC4B77900801305099910
:10525800EFF04FD9B774008023A64999377A0080B8
:105268009389C998130A0A8A93840495B76A0080B7
:10527800B76B0080376B0080376C0080B76C00809C
:10528800032D0A0083A7090083A6040003A5440090
:10529800630C4D01630A0D0003278D0063DCE70AE8
:1052A8003307F7402324ED00B386D70013D7F7411F
:1052B8003307A700B3B7F600B387E70023A0D400ED
:1052C80023A2F40023A00900EFF09F9693050000A5
:1052D800EFC0DFE813050999EFF0CFCD631E050293
:1052E800B7640080B7650080376500809385C53254
:1052F800930610061386442E13058521EFC01FB5AB
:105308003765008013054534EFC05FB49305100678
:105318001385442EEFC05FB7732404308320C10285
:105328000324810283244102032901028329C10144
:10533800032A8101832A4101032B0101832BC10028
:10534800032C8100832C4100032D0100130101036C
:1053580067800000B306D7009355F741B385A500D1
:1053680033B6E6003306B600B387E74013050D00F1
:1053780023240D0023A0D40023A2C40023A0F900F5
:10538800EFF01F8713050999EFF0CFC263160502E6
:105398009385CB329306100613864A2E13058B216C
:1053A800EFC0DFAA13054C34EFC05FAA93051006BF
:1053B80013854A2EEFC05FAD732404308327CD00D8
:1053C80013050D0013048000E780070073340430D0
:1053D8001305099913748400EFF04FBB6318050295
:1053E8009385CC2F9306E00413864A2E13058B2150
:1053F800EFC0DFA53765008013054531EFC01FA555
:105408009305E00413854A2EEFC01FA813050999D8
:10541800EFF04FBD6FF0DFE6130101FE232A910084
:10542800232E1100232C810023282101232631015A
:1054380093048000F3B40430377900801305099988
:1054480093F48400EFF08FB4631E05023764008084
:10545800B7650080376500809385C52F9306E00403
:105468001306442E13058521EFC05F9E3765008023
:1054780013054531EFC09F9D9305E0041305442EA5
:10548800EFC09FA013050999EFF0CFB5EFC0DFE497
:10549800B77700809387079583A9070003A447007F
:1054A800B309350133B5A9003304850013050999FB
:1054B800EFF04FB0631E050237690080B7650080C2
:1054C800376500809385C532930610061306492E6A
:1054D80013058521EFC09F97376500801305453474
:1054E800EFC0DF96930510061305492EEFC0DF992C
:1054F800F3A40430930504008320C101032481012F
:105508001385090083244101032901018329C1006E
:105518001301010267800000130101FF23248100A9
:105528002322910037740080B7740080232611006D
:105538001304048E9384C48F636E94008320C10087
:105548000324810083244100130500001301010195
:10555800678000009307440113050400232AF40020
:10556800232CF400EFB0DFBE1304C4016FF0DFFC9E
:10557800B777008083A747CA130101FB2322910450
:10558800232E3103232C41032326710323261104E0
:105598002324810423202105232A5103232861037E
:1055A80023248103232291032320A103232EB10165
:1055B800130A050093890500930B060093840600DF
:1055C800638207166394061213090000377400807B
:1055D8001304048E33048A40B777DBB6135424408F
:1055E800938777DB3304F402B7FAFFFF371B000019
:1055F800130C50FF930C40FF938AFA0F130BFBFF19
:10560800130D8000930D4A011374F40F13870900DA
:105618009306C1001306810093850B0013050A0049
:10562800EFB01FC363128503138709009306C100F7
:105638001306810093850B0013050A00EFB05FC1C4
:1056480063148501130540FF8327810023828900A5
:1056580093F7F7001397870083A74900B3F757011B
:10566800B3E7E7000327C100B3F767011317C700C3
:10567800B3E7E70023A2F900630C0502638A04027A
:105688006318950373350D301386040093850D0058
:1056980013758500EFE08FD49307F0FFE388F4F6E5
:1056A800EFF09FD7B304A940E3D204F6130550FFE7
:1056B8008320C104032481048324410403290104B1
:1056C8008329C103032A8103832A4103032B01038E
:1056D800832BC102032C8102832C4102032D01027A
:1056E800832DC10113010105678000003764008024
:1056F800B7650080376500809385C57C9306900365
:105708001306847B13058521EFC04FF437650080AD
:105718001305C529EFC08FF3930590031305847B08
:10572800EFC08FF6E35290EAEFF01FCF1389940091
:105738009307A0003349F9023309A9006FF01FE964
:10574800130101FE23282101034905009307C00125
:10575800032605003309F90223263101B7790080B1
:10576800935586001385098E1356C60093F5F500E8
:10577800232C8100232E1100232A910033052501B3
:105788002324410113048000EFB01FD9733404307F
:10579800B774008013854499EFE05FFF13748400A9
:1057A8009389098E631E0502376A0080B7650080F9
:1057B800376500809385C52F9306E00413064A2EAB
:1057C80013058521EFC08FE8376500801305453143
:1057D800EFC0CFE79305E00413054A2EEFC0CFEAE8
:1057E80013854499EFF00F80130549013385A9000B
:1057F800EFE0CFE563060502930504000324810169
:105808008320C101032901018329C100032A8100E2
:105818001385449983244101130101026FD0CFE21B
:1058280013854499EFE01FF9631E0502B7640080F1
:10583800B7650080376500809385C53293061006EA
:105848001386442E13058521EFC04FE0376500808D
:1058580013054534EFC08FDF930510061385442EDA
:10586800EFC08FE2732404308320C1010324810137
:1058780083244101032901018329C100032A8100EE
:10588800130101026780000013864500637EB6009D
:105898001305000067800000130500008320C10184
:1058A8001301010267800000130101FE9306000046
:1058B80093058100232E1100EFF09FCBE31E05FC1A
:1058C80003258100130640009305C100EFC01FB2F5
:1058D80003258100130545006FF05FFC6306050092
:1058E8001305C5FF6FF0DFE567800000B77700801C
:1058F80083A7C7CA9305050003A5870663040500A7
:105908006FF09FF8130500006780000067800000B3
:1059180000000000CC0E008000000000CC0E0080CB
:1059280000000000CC0E008000000000CC0E0080BB
:1059380000000000CC0E008000000000CC0E0080AB
:1059480000000000CC0E008000000000D01F008086
:1059580000000000CC0E008000000000CC0E00808B
:1059680000000000CC0E008000000000CC0E00807B
:1059780000000000CC0E008000000000CC0E00806B
:1059880000000000CC0E008000000000CC0E00805B
:1059980000000000CC0E008000000000CC0E00804B
:1059A80000000000CC0E008000000000CC0E00803B
:1059B80000000000CC0E008000000000CC0E00802B
:1059C80000000000CC0E008000000000CC0E00801B
:1059D80000000000CC0E008000000000CC0E00800B
:1059E80000000000CC0E008000000000CC0E0080FB
:1059F80000000000CC0E008000000000CC0E0080EB
:105A080000000000CC0E008000000000CC0E0080DA
:105A180000000000CC0E008000000000CC0E0080CA
:105A280000000000CC0E008000000000CC0E0080BA
:105A380000000000CC0E008000000000CC0E0080AA
:105A480000000000CC0E008000000000CC0E00809A
:105A580000000000CC0E008000000000CC0E00808A
:105A68008C5E0080881F008000000000D8620080E3
:105A78001821008000000000D06200808828008083
:105A8800000000008C5E00802055008000000000AF
:105A980000010202030303030404040404040404CD
:105AA800050505050505050505050505050505059E
:105AB800060606060606060606060606060606067E
:105AC800060606060606060606060606060606066E
