:0200000480007A
:100000009702000093824201739052306F00901764
:020010000000EE
:02001200FFFFEE
:100014005D7106C00EC212C416C61AC81ECA72CCBE
:1000240076CE7AD07ED22AD42ED632D836DA3ADCBC
:100034003EDEC2C0C6C2F322103496C4F32200309E
:1000440096C6EF00E01A1303000005E9F3222034FA
:10005400B70300809383F3FFB3F272002D43638AE6
:10006400620013050100970000009380E0116F10F7
:100074006075A642910296C441A093020100976361
:1000840000009383A33D03A14300411116C003AEB6
:100094000300050E23A0C3016308030097000000BA
:1000A400938080036F10207873252034B70200807A
:1000B4009382F2FF33755500EF00801297520000CF
:1000C4009382C2D40E05AA9203A5020003A34200A0
:1000D400E70003001763000013034338832303007E
:1000E400FD132320730082421381020083238300C3
:1000F400032E030263087E0897620000938202368F
:1001040003A382002326830223289302232A2303A2
:10011400232C3303232E4303232053052322630577
:10012400232473052326830523289305232AA30563
:10013400232CB30523242302976300009383C3F97C
:1001440003AE03002326C30703A3020223A4620011
:10015400032183020324C3028324030303294303E7
:1001640083298303032AC303832A0304032B43043D
:10017400832B8304032CC304832C0305032D430521
:10018400832D8305A64273901234B64273900230D5
:10019400824092412242B2424243D243624EF24EE4
:1001A400025F925F2255B2554256D2566257F257B9
:1001B4000648964861617300203000007300000017
:1001C400976200009382822903A382008323C306DB
:1001D4002189F322053013850300678000000000A5
:1001E4000543B312A30073B34234678000000000D8
:1001F400F322203437030080B3F2620013050000B9
:0A0204006383020005056780000017
:02020E00FFFFF0
:100210006300060293070002B387C740634CF000F7
:10022000130506FE1307000033D5A500930507004C
:100230006780000033D7C5003355C500B395F5007E
:100240003365B5006FF09FFE130101FD232291027B
:100250002328610123261102232481022320210364
:10026000232E3101232C4101232A51012326710120
:100270002324810123229101130B0500938405009F
:10028000639C063813040600930905001759000003
:10029000130909D063F8C512B7070100938A050056
:1002A0006378F6109306F00FB3B6C6009396360047
:1002B000B357D6003309F90003470900B306D70046
:1002C000130700023307D740630C0700B394E40020
:1002D000B356DB003314E600B3EA9600B319EB0023
:1002E000135B040193050B0013850A00EF004063C4
:1002F0001309050093050B00931B040113850A00E5
:10030000EF00805D93DB0B0193040500930505006E
:1003100013850B00EF0080501319090113D7090151
:100320003367E900138A0400637EA7003307870060
:10033000138AF4FF636887006376A700138AE4FFDB
:1003400033078700B304A74093050B00138504000F
:10035000EF00005D1309050093050B0013850400F1
:10036000EF00805793990901930405009305050058
:100370001319090113850B0093D90901EF00004AF5
:10038000B36939011386040063FCA900B309340181
:100390001386F4FF63E6890063F4A9001386E4FF83
:1003A00093170A01B3E7C700130A00006F00001398
:1003B000B707000193060001E36CF6EE9306800197
:1003C0006FF01FEF138A0600631A06009305000002
:1003D00013051000EF00405013040500B70701009B
:1003E000637CF4129307F00F63F48700130A800014
:1003F000B35744013309F90083460900130600028C
:10040000B38646013306D64063120612B384844095
:10041000130A1000135B040193050B0013850400FD
:10042000EF0000501309050093050B00138504002D
:10043000931B0401EF00404A93DB0B01930405007A
:100440009305050013850B00EF00403D13190901CA
:1004500013D709013367E900938A0400637EA7007C
:1004600033078700938AF4FF636887006376A700E9
:10047000938AE4FF33078700B304A74093050B007A
:1004800013850400EF00C0491309050093050B0014
:1004900013850400EF00404493990901930405007B
:1004A000930505001319090113850B0093D9090160
:1004B000EF00C036B36939011386040063FCA9005C
:1004C000B30934011386F4FF63E6890063F4A900DD
:1004D0001386E4FF93970A01B3E7C700138507006B
:1004E00093050A008320C102032481028324410270
:1004F000032901028329C101032A8101832A4101C1
:10050000032B0101832BC100032C8100832C4100AC
:100510001301010367800000B7070001130A0001FF
:10052000E368F4EC130A80016FF09FEC3314C4000D
:1005300033DAD400B319CB00B356DB00135B0401EC
:10054000B394C40093050B0013050A00B3EA9600A8
:10055000EF00003D1309050093050B0013050A0089
:10056000931B0401EF00403793DB0B01930405005C
:100570009305050013850B00EF00402A13190901AC
:1005800013D70A013367E900138A0400637EA700CA
:1005900033078700138AF4FF636887006376A70038
:1005A000138AE4FF33078700B304A74093050B00C9
:1005B00013850400EF00C0361309050093050B00F6
:1005C00013850400EF0040319304050093050500F6
:1005D00013850B00EF00802493960A01131909017B
:1005E00093D60601B367D9001387040063FEA70002
:1005F000B38787001387F4FF63E8870063F6A700DB
:100600001387E4FFB3878700131A0A01B384A74056
:10061000336AEA006FF01FE063ECD51EB7070100F4
:1006200063F4F6049305F00F33B5D50013153500C8
:1006300033D7A6009757000093878795B387E700C5
:1006400083C50700130A0002B385A500330ABA4028
:1006500063160A0293071000E3E296E83336CB00F4
:10066000934716006FF09FE7B707000113050001DD
:10067000E3E0F6FC130580016FF09FFBB35AB60070
:10068000B3964601B3EADA0033D9B400B397440114
:10069000B355BB0093DB0A01B3E4F5001305090071
:1006A00093850B00B3194601EF0080271304050062
:1006B00093850B0013050900139C0A01EF00C0216C
:1006C000135C0C01130905009305050013050C00CC
:1006D000EF00C0141314040113D704013367E400BE
:1006E000930C0900637EA70033075701930CF9FFB1
:1006F000636857016376A700930CE9FF330757013E
:100700003309A74093850B0013050900EF00402132
:100710001304050093850B0013050900EF00C01BAF
:10072000130905009305050013050C00EF00000FE9
:10073000939704011314040193D707013367F4005E
:1007400013060900637EA700330757011306F9FF5C
:10075000636857016376A7001306E9FF3307570163
:1007600093970C01370E0100B3E7C7001308FEFF93
:1007700033F3070133F809013307A74093DE07017C
:1007800093D909011305030093050800EF00000940
:10079000930805009385090013050300EF00000886
:1007A000130305009305080013850E00EF000007F2
:1007B000130805009385090013850E00EF0000065D
:1007C00093D6080133030301B386660063F4060180
:1007D0003305C50113D606013305A6006366A702DB
:1007E000E314A7BC370701001307F7FFB3F6E600D1
:1007F00093960601B3F8E80033164B01B386160151
:10080000130A0000E37CD6CC9387F7FF6FF0DFB9C3
:10081000130A0000930700006FF05FCC1306050079
:100820001305000093F61500638406003305C50028
:1008300093D5150013161600E39605FE6780000099
:10084000130101FF1383060023261100130E050078
:1008500093080500930606001307000093070000A5
:100860001308000013F51600931E1700630C050013
:100870003385080133380501B387E700B307F80073
:100880001308050013D7F80193D6160033E7EE00DE
:1008900093981800E39806FC63880500130506008A
:1008A000EFF0DFF7B387A700630A030013050E001C
:1008B00093050300EFF09FF6B307F5008320C10016
:1008C00013050800938507001301010167800000EC
:1008D0006340050663C605061386050093050500FB
:1008E0001305F0FF630C060293061000637AB6004E
:1008F0006358C0001316160093961600E36AB6FEFE
:100900001305000063E6C500B385C5403365D50017
:1009100093D6160013561600E39606FE6780000075
:1009200093820000EFF05FFB1385050067800200F3
:100930003305A04063D80500B305B0406FF0DFF980
:10094000B305B04093820000EFF01FF93305A040DB
:10095000678002009382000063CA0500634C0500B3
:10096000EFF09FF71385050067800200B305B040E4
:10097000E35805FE3305A040EFF01FF63305B04005
:1009800067800200176100001301C130B712000038
:10099000938202801691EF00506B00006F10E00907
:1009A00000008280B76700809387072823A0070094
:1009B00023A207008280B767008093870728D84367
:1009C0000507D8C38280B7670080938707289843BC
:1009D000050798C38280B76700809387C713630DAC
:1009E000F504B7670080938787166309F504B76736
:1009F0000080938747196305F504B76700809387E4
:100A0000071C6301F504B76700809387C71E631452
:100A1000F5029147B75600808A07376700809386B2
:100A2000065EBE961307872E3E9794421C55958FFF
:100A300093B717001CC382808147E9BF8547D9BFA0
:100A40008947C9BF8D47F9B7411106C6EF30302736
:100A50006350A0021306803E81469355F541CD3385
:100A6000130640068146EFF02FFEB240410182801E
:100A70000145E5BF797106CE42D446D61DED3686D6
:100A800037550080BA862E87B75500803C10938575
:100A90008560130545633EC6EF10E03EB24537550D
:100AA00000801305056BEF10403C3765008013058F
:100AB00045FEEF10403DEF105010F240456182803E
:100AC000797122D44AD052CC56CA37540080375953
:100AD0000080375A0080B75A008026D24ECE5AC8BE
:100AE0005EC606D681441304445F1309095EB759F4
:100AF0000080528BD68BB3079400330799009C4338
:100B00001843B75500809306501D98D71386896007
:100B100093870A6B13070A189385055A0545993F71
:100B20009104D147E399F4FC930420031309C01204
:100B30000840A685014693842403EF301077110402
:100B4000E39824FF1305C012EF209056376500800C
:100B50001305C513EF30107F376500801305851628
:100B6000EF30507E3765008013054519EF30907DDA
:100B7000376500801305051CEF30D07C3765008099
:100B8000376400801305C51E1304842EEF30907B5C
:100B90009304440137590080084093870B6B130777
:100BA0000B189306301E138689609305095C1104A7
:100BB000D135E39384FEB250225492540259F24943
:100BC000624AD24A424BB24B45618280411106C60D
:100BD00022C426C237640080F1331305C42B0146BA
:100BE0008145EF30B06A0146930540061305C42BDA
:100BF000EF30B06B316513050535EF304019130543
:100C0000C42B9935AA841305C42BEF30B07322444A
:100C1000B24013B534039244B75700803757008071
:100C200037560080B75500809387076B13078719E5
:100C300093060020130686609385854741011DBDFC
:100C4000411122C406C62A84EF3010758547630E11
:100C5000F5022285EF30106F2285EF30F0737D159D
:100C6000B75700803757008037560080B75500804F
:100C70009387076B1307C7099306B00413068660B2
:100C80009385852113351500F5332285753B930730
:100C9000100363EEA7022285EF30D06A22856D3300
:100CA00013352503B757008037570080375600802B
:100CB000B75500809387076B1307C7099306D004C5
:100CC0001306866093850524134515006533B767C1
:100CD000008003A707288D4763D8E70022852244B8
:100CE000B24041016F301066B2402244410182801F
:100CF000411122C406C62A84813B15CD2285EF30DE
:100D00007064228591332244B240B7570080375730
:100D1000008037560080B75500809387076B130714
:100D2000C70A9306C005130686609385C52613354A
:100D30001500410181B3B24022444101828041113A
:100D400006C622C485313764008037160080B71587
:100D50000080130606CF938505C41305C42BEF301E
:100D6000F0521305C42B1306200393054006EF3001
:100D7000D0531305C42BEF30306215CD1305C42BAF
:100D8000EF30505C1305C42BEF301061B757008073
:100D90003757008037560080B75500809387076B20
:100DA0001307C7119306F011130686609385054A51
:100DB00013351500C1311305C42B79319307100386
:100DC00063E0A7041305C42BEF30D0571305C42BE1
:100DD000A53913352503B75700803757008037569C
:100DE0000080B75500809387076B1307C7119306E0
:100DF0001012130686609385C54C134515009D3966
:100E00001305C42B2244B24041016F30B05341114D
:100E100006C622C4413E3764008001468145130561
:100E2000C42BEF30B046130620039305400613058C
:100E3000C42BEF3090473735040013058523EF208E
:100E400010751305C42BEF30305591476300F5043E
:100E50001305C42BEF30104F1305C42BEF30D053C4
:100E60007115B75700803757008037560080B75547
:100E700000809387076B130747139306E01313064D
:100E800086609385055013351500ED361305C42B88
:100E90002244B24041016F30F04A797106D622D423
:100EA00026D24AD04ECE52CC56CA5AC85EC662C46A
:100EB00066C26AC0C53C3764008037160080B7152B
:100EC00000801306669B9385E5551305C42BEF3010
:100ED000F03B13062003930540061305C42BEF30A7
:100EE000D03C8144B76A008037590080B7590080F0
:100EF000375A0080B75B0080054B375C0080B75CD9
:100F0000008083A70A28138D0A2863869702130599
:100F1000C42BEF30304303250D009387096B130773
:100F20004915058D9306C01513068A609385CB522B
:100F30001335150081361305C42BEF3010526308AA
:100F400065031305C42BEF30F03F1305C42BEF30BE
:100F5000D0507D159387096B130749159306E0154B
:100F600013068A609305CC54133515002136832768
:100F70000D008504638697021305C42BEF30903C67
:100F800003250D009387096B13074915058D9306FB
:100F9000001613068A6093858C5713351500D93CCB
:100FA0009147E390F4F61305C42B2254B2509254A7
:100FB0000259F249624AD24A424BB24B224C924CFD
:100FC000024D45616F301038411106C622C426C259
:100FD0004AC037640080F9321306200393054006A7
:100FE00013050411EF30702CB7640080EF305022ED
:100FF000138904282324A90037F504001305855814
:101000002326B900EF20B0580327090091479384A5
:101010000428630DF70213050411EF30B032884045
:10102000B757008037570080711537560080B75585
:1010300000809387076B1307C7169306F0171306F4
:1010400086609385053C133515002D34D8408547BF
:10105000630DF70213050411EF30D02EC840B757C7
:101060000080375700807D1537560080B7550080C7
:101070009387076B1307C71693060018130686603D
:101080009385053E13351500F53213050411EF3035
:10109000702BEFF03F9113062003930540061305D4
:1010A0000411EF309020316513050535EF20304EE7
:1010B000130620039305400613050411EF30F01EBC
:1010C000EF30101588C437F5040013058558CCC4DB
:1010D000EF20F04B98409147630EF702130504117F
:1010E000EF3050268840B757008037570080711581
:1010F00037560080B75500809387076B1307C716D4
:1011000093063019130686609385053C1335150048
:10111000EFF05F96D8408547630EF7021305041180
:10112000EF305022C840B7570080375700807D15F8
:1011300037560080B75500809387076B1307C71693
:1011400093064019130686609385053E13351500F6
:10115000EFF05F92130504112244B2409244024919
:1011600041016F30301E411106C622C426C2EFF085
:101170007F8337640080371600801306669B8145A5
:101180001305C42BEF30901013062003930540067F
:101190001305C42BEF30701137F504001305855883
:1011A000EF20F03E1305C42BB7640080EF30901998
:1011B00083A704289384042885CF1305C42BEF301C
:1011C00070188840B7570080375700803756008026
:1011D000B75500809387076B1307870E9306F00BB4
:1011E000130686609385053A13351500EFF09F8846
:1011F000D8408547630EF7021305C42BEF309014D7
:10120000C840B7570080375700807D15375600809B
:10121000B75500809387076B1307870E9306100C52
:10122000130686609385053E13351500EFF09F8405
:101230001305C42B2244B240924441016F309010F8
:10124000411106C622C426C24AC0EFF0AFF537648A
:101250000080B715008001469385659C1305C42B5B
:10126000EF30D0020146930540061305C42BEF3042
:10127000D003B7640080EF30A079138904282324B9
:10128000A9006565130585A82326B900EF20303035
:1012900003270900854793840428630EF70213058A
:1012A000C42BEF30300A8840B75700803757008092
:1012B0007D1537560080B75500809387076B13075D
:1012C000470D9306F0091306866093850540133594
:1012D0001500EFF02FFADC4085CF1305C42BEF305B
:1012E0007006C840B75700803757008037560080D7
:1012F000B75500809387076B1307470D9306000AC5
:10130000130686609385054213351500EFF08FF6BE
:101310001305C42B2244B2409244024941016F306C
:101320007002411106C622C426C24AC0EFF08FE700
:101330003764008037160080B71500801306669B5F
:101340009385E5551305C42BEF3040741306200335
:10135000930540061305C42BEF302075B764008059
:10136000EF30006B138904282324A90037F504000B
:10137000130585582326B900EF20702103270900A3
:10138000914793840428630EF7021305C42BEF30B2
:10139000607B8840B75700803757008071153756FB
:1013A0000080B75500809387076B1307870B930660
:1013B000F007130686609385053C13351500EFF0A2
:1013C0006FEBD8408547630EF7021305C42BEF304F
:1013D0006077C840B7570080375700807D15375673
:1013E0000080B75500809387076B1307870B930620
:1013F0000008130686609385053E13351500EFF04F
:101400006FE71305C42B2244B240924402494101C4
:101410006F304073797122D437640080130504293A
:101420000146814506D626D24AD04ECE52CC56CA67
:101430005AC85EC662C466C2EF3040650546814543
:1014400013050429EF30606613050429EF30F0001E
:1014500013050429EF30006F37640080EFF08FD45C
:10146000014681451305C42BEF304062130620036B
:1014700081451305C42BEF3040631305C42BEF30B7
:10148000C07DEF30E058B76400809387042888C798
:10149000CCC71149938404288549B75A0080375B2B
:1014A0000080B75B0080375C0080130AE0FCB75C0B
:1014B00000801305C42BEF30407A63093503130510
:1014C000C42BEF3020681305C42BEF3000797D1555
:1014D00093070B6B13874A109306C00F13868B601C
:1014E0009305CC5413351500EFF0CFD8EF304052B0
:1014F0009C44D84488C4B307FA40B336FA00134773
:10150000F7FF158FAA97CCC433B5A700BA952E95CF
:1015100019E163F3F9021305C42BEF30A0629307BE
:101520000B6B13874A109306301013868B609385DC
:101530000C440145EFF00FD47D19E31C09F61305A7
:10154000C42B2254B25092540259F249624AD24AF0
:10155000424BB24B224C924C45616F30A05E411120
:1015600022C437640080130704281C4326C206C621
:1015700085071CC30547AA84130404286392E70A5D
:10158000EF30004918445C4408C43307E540B336E3
:10159000E500B387F540958F4CC46344F00689E7B6
:1015A0009307300663EFE7042685EF30A059EF304C
:1015B000204614445C4408C4B306D5403337D500F4
:1015C000B387F540998F4CC4375700800545634871
:1015D000F00089E79307300663E3D7000145B7576A
:1015E000008037560080B75500809387076B13073C
:1015F000C70893063003130686609385451BEFF0FA
:101600006FC7EF30E040184008C44CC48D4763D921
:10161000E7082244B2402685924441016F3080524F
:10162000EF30003F18445C4408C43307E540B3364C
:10163000E500B387F540958F4CC4E344F0FC89E79F
:1016400093071003E3EFE7FA2685EF30A04FEF3062
:10165000203C14445C4408C4B306D5403337D5005D
:10166000B387F540998F4CC43757008005456348D0
:10167000F00089E79307100363E3D7000145B757EC
:10168000008037560080B75500809387076B13079B
:10169000C70893065003130686609385851E85B799
:1016A000B2402244924441018280B76500803755A0
:1016B0000080938585FE130545396F0070524111F6
:1016C00006C622C499476302F502EF20606A0DC185
:1016D000EF20006A21E1B76500809385C5903765EA
:1016E000008013050592EF00007AEF00207EF5BF21
:1016F000EF20E06871FD376400801304C4450C449A
:101700003765008013050594EF00E0770844EF206B
:10171000F01CE1BFB765008093858590C9B75D7106
:10172000A2C4A6C286C69947AA842E8463E7A708E6
:1017300037570080931725001307C765BA979C4356
:101740008287375500801305C578352FEF20A034E8
:101750007C40832804010328C4003ED83C40584004
:1017600014403ED65C5C3044AA853ED41C5C376590
:101770000080130505813ED25C583ED01C583ECEF9
:101780005C543ECC1C543ECA5C503EC81C503EC605
:101790005C4C3EC41C4C3EC25C483EC01C44E5252B
:1017A000A2852685293F375500801305457B71BFEB
:1017B000375500801305057D49BF37550080A68544
:1017C0001305C57EC92559B7411122C406C62A840E
:1017D0007326203406060582954763E2C702375711
:1017E00000809317260013078767BA978C433755F5
:1017F000008013058569412DA28501450D37B75538
:10180000008093850569E5B7411106C6F3252034AC
:10181000376500808605858113058596AD25B7550A
:1018200000809385456B1145DD3DB7670080938748
:101830000724984311CB03A3070023A00700B76731
:10184000008003A5472402838280411106C6EF0071
:101850003062492DEF001067797122D426D24AD028
:101860004ECE52CC56CA5AC85EC63E8B06D662C40D
:10187000BD47AA842E84B289368ABA8BC28A468929
:101880006394F806B72700809387A7646393F606EE
:10189000C256CA8526851146EF20605A938509FBFA
:1018A000A295896723AE040423A00406C1999387F7
:1018B0000788FCC5B7170080B25022549387C79998
:1018C00023A4450323A6750323A8650323AA550370
:1018D000BCC58CD402599254F249624AD24A424B56
:1018E000B24B224C4561828093860801F947E3F1AF
:1018F000D7FA376C0080B765008037650080130623
:101900000C99E1469385059B1305C5A3AD2B37655F
:101910000080CA85C15639461305C5A5AD23E145EA
:1019200013050C994123ADB793971500AE97139704
:1019300027005C45BA970307B5006353B7009C4383
:101940001357F6417D8B329715870A07BA979CC2C9
:101950001375F60182800111740006CEF13732470B
:1019600085473395A7001C43F240C98F1CC305610E
:101970008280011126CA444122CC2A840355850065
:10198000A6854AC84EC652C456C25AC006CEEFE01B
:10199000FFE883290400834AA400FD572A8AAA99F4
:1019A000A305F40001497D4B6341590381448357EA
:1019B000840063CFF404F2406244D2444249B24905
:1019C000224A924A024B05618280A6855285EFE049
:1019D000BFF0131719004A979317270058443E97F2
:1019E000930747005CC31CC76349AB00A3052401F0
:1019F00089808D04F198050945BF7D059357F54110
:101A0000FD8BAA9795878A0723203701BE99CDB70A
:101A10004C402685EFE09FE01C40268681453E95A0
:101A20005C4485041387470018C1984758C19847FC
:101A300008C388C7228505379DBF4111AA872E8517
:101A4000B285368606C68297EF20E004EF20006953
:101A500001458280411122C42A841305500406C620
:101A600026C2AE840294A685130520050294228323
:101A70002244B240A6859244130520054101028309
:101A80009C4185079CC1B767008003A3470C028374
:101A9000397122DC4ED652D45AD06AC806DE26DA14
:101AA0004AD856D25ECE62CC66CA6EC6AA892E8A43
:101AB000328D368B05446353E0003A848547930C9E
:101AC00000026314FB00930C0003B7D49A3B054952
:101AD000A94A014C9384F49F894D938B140063149D
:101AE0000C0063F2A407DE856A85EFE0FFDED28595
:101AF0001305050382990509054CDE856A85EFE02B
:101B00003FE22A8DA9452685EFE01FDDFD1A8547B6
:101B1000AA84E394FAFCD28513050D0382998D47BC
:101B200033042441630FFB02F2506254D2544259F1
:101B3000B259225A925A025BF24B624CD24C424D3D
:101B4000B24D21618280E34A54FBE3E86DFBD2850C
:101B500066858299050955B7D285130500028299D9
:101B60007D14E34B80FEC9B7B767008023A2A70CA2
:101B700082805D71A2C4A6C2CAC04EDE52DC56DAB3
:101B800066D26AD06ECE86C65AD85ED662D42A8411
:101B9000AE84B28A368D014A7D598149814CB70D98
:101BA000008003C50A0005E1B64026449644064974
:101BB000F259625AD25A425BB25B225C925C025D7D
:101BC000F24D61618280639A0C00930650026305B6
:101BD000D528A6850294850AE9B793064006630BCB
:101BE000D50E63EBA6049306900363E7A602930663
:101BF00010036375D50C9306D0026304D5269307B2
:101C000000036303F50A13075002631FE500A6856E
:101C100013055002029409AA93068005630BD5149C
:101C2000130730066303E522A685130550020294CC
:101C3000A68503C50A00F9BF930600076301D51204
:101C400063EFA600930690066306D5089306C006C8
:101C50006300D50893068006E30FD5F6F1B7930627
:101C600050076305D50C63EAA60213073007E31D8E
:101C7000E5FA032C0D00130B4D00E28B03C50B009E
:101C8000631B051A8D476398F900B38B8B41B30B27
:101C900079416346701B5A8D41A893068007630AF9
:101CA000D50C9306A0074DBF635C0900638D091A2C
:101CB000130905FDE39109F2894931BFE34A09FEA1
:101CC0009316290036990609130909FD2A99DDB7EB
:101CD000050A11B763160A0203260D00110D635B96
:101CE0000600A6851305D00232C0029402467D1973
:101CF0003306C0404A87CE86A6852285513B2DA05B
:101D00000547E30BEAFC93077D0013F787FF1043B9
:101D10005443130D87003307B6013337C700369796
:101D20005DDFA68522853D33814C75B563160A00BB
:101D300003260D00110D7DBF0547E30BEAFE930757
:101D40007D0013F787FF130D87001043584371FB85
:101D5000B707008093C7F7FFE3FEC7F8D9B7A6859A
:101D6000130500030294A6851305800702942149F8
:101D70008549854663C6460783270D0002C4110DB9
:101D80003EC2414C814B02C0C1481245A245138B53
:101D9000F8FF13162B0046C6EFE08FC73D8939EDDB
:101DA00082479306000389E7B24885476390F806A7
:101DB00036956205A68561850294850B631D0B022D
:101DC0008D46814CE399D9E013171900B30B774185
:101DD000E35C70F5A685130500020294FD1BCDBFE0
:101DE00093077D0093F687FF9C42138D86003EC2C9
:101DF000DC423EC479B766C0DA8841BFA547930686
:101E00007005E3E7A7FA930600035DB79307FCFFAD
:101E10003EC66349890185476398F900A685130585
:101E200000030294324CC9BF8947E39DF9FEA685A1
:101E300013050002FDB7A685850B029481B5A68522
:101E4000130500020294FD1BA9B503250D00A6850C
:101E5000130B4D00029481B5014A7D598149854C8F
:101E60009DBB8D498DBB8549BDB301112A863725A0
:101E70000080AE86130505A86C0006CE02C6D539D3
:101E8000F2400561828039712ED24C1006CE32D4D8
:101E900036D63AD83EDA42DC46DE2EC6F937F24074
:101EA00021618280B765008037650080411193858C
:101EB00005A9130545AA794606C6F137B75500802E
:101EC0009385456B1945EFF09F858280A147F3A765
:101ED000073073005010828085473395A700732523
:101EE00045308280A147F3B70730735040307350BC
:101EF00040348280411122C426C23764008006C665
:101F0000A947AA84130484246317F5000840B54543
:101F10005C41DC438297084093F5F40F5C41DC435D
:101F20008297B24022442685924441018280411129
:101F300022C437240080130544EF06C61129130577
:101F400044EF2244B240410105B1376500804111A0
:101F5000130505AB06C6512DB767008023A4A7243F
:101F6000F937B240014541018280B70710F003A75D
:101F700047F403A507F483A547F4E39AE5FE8280BE
:101F8000011122CC06CE26CA4AC84EC652C456C239
:101F9000214473340430376900801305C924218833
:101FA000EF10906B15E9B7640080B7650080376566
:101FB00000809385C5AD9306E004138644AC1305F9
:101FC000C5A3D13537650080130545AF6D3D930539
:101FD000E004138544ACF9351305C924B7640080C7
:101FE000EF10506B93840423493783A9040083AA1C
:101FF0004400AA8733053541B3B7A700B3855541DF
:1020000075661306064C81469D8DEFE0EFA32A8A84
:10201000F5659385054C5285EFE05F80AA9933B54D
:10202000A9005695C8C01305C92423A03401EF1098
:10203000506415E9B7640080B7650080376500809B
:102040009385C5B093061006138644AC1305C5A34B
:102050001D3D37650080130545B2353593051006E3
:10206000138544AC8135732404306244F240D24479
:102070004249B249924A5285224A05616F20006C5A
:10208000411106C6DD35F5679387074C370710F019
:10209000AA97FD562326D7F433B5A7002E952324FF
:1020A000F7F42326A7F41D45053DB2400145410143
:1020B000828063950514011106CE22CC26CA4AC837
:1020C0004EC652C456C25AC0FD576315F500256569
:1020D0001305E5BCA5671304F5FF9387E7BC63DB35
:1020E00087103E84214973390930B76A008013850F
:1020F000CA2413798900EF10305615E9B7640080BF
:10210000B7650080376500809385C5AD9306E00410
:10211000138644AC1305C5A3BD3337650080130592
:1021200045AF95339305E004138544ACA53B138577
:10213000CA24EF103056153DB767008093870723F8
:10214000F56483A907002A8A9385044C228503AB92
:102150004700EFE0AFEC9387F44BB38737413E95F0
:102160009385044C5295EFE02FF79385044CEFE0F4
:10217000EFEA338A49412A9A9307703E63C54701C3
:102180009384044C2695B70710F0AA997D5723A68F
:10219000E7F433B5A9005A9523A437F523A6A7F48D
:1021A0001385CA24EF10F04C15E937640080B76539
:1021B0000080376500809385C5B09306100613062E
:1021C00044AC1305C5A3C13137650080130545B282
:1021D0005D3993051006130544ACE93173290930C4
:1021E000F2406244D2444249B249224A924A024BE6
:1021F00005618280E35804EE0144EDB5828041110F
:1022000022C406C626C24AC0214473340430B764CF
:1022100000801385C4242188EF1010440DED376928
:102220000080B7650080376500809385C5AD930653
:10223000E004130649AC1305C5A3EFF0DFC437650E
:102240000080130545AFEFF01FC49305E0041305AC
:1022500049ACEFF03FC51385C424EF10B0433133D0
:10226000B767008083A70723F5659385054C1D8D0F
:10227000EFE08FE62A891385C424EF10903F0DED1F
:10228000B7640080B7650080376500809385C5B06E
:1022900093061006138644AC1305C5A3EFF0BFBE2A
:1022A00037650080130545B2EFF0FFBD93051006BA
:1022B000138544ACEFF01FBF73240430B2402244B6
:1022C0004A859244024941018280411106C6713912
:1022D000B240410182808347050003C70500639334
:1022E000E70081E73385E740828005058505E5B78E
:1022F00093F6F50FAA8713F737001DEB93F5F50F4B
:1023000013978500D98D13970501D98D3383C700A5
:102310003E870D48B308E340636218031357260055
:1023200093152700AE970D8E3E96639DC700828061
:102330007DDE8507A38FD7FE7D1675BF1107232E7F
:10234000B7FEC9BF8507A38FD7FEC5B77D5582806D
:10235000B767008023A4A70C8280011122CC1C4502
:102360003764008026CA1304C40CB764008006CE0C
:102370004AC84EC6938404258549232004002A892F
:1023800023A03401829783274900232034018297B8
:1023900089471CC08327C90082978D471CC06244AF
:1023A00023A00400F240D2444249B249376500807C
:1023B0001305C52F05616F10A078376500804111A6
:1023C000B76700807D571305C52F06C623A8E724ED
:1023D000EF100077EF10206CB24041016F101050E9
:1023E0001D71A6CAB764008083A7442586CEA2CCFF
:1023F000CAC8CEC6D2C4D6C2DAC05EDE62DC66DA35
:102400006AD86ED663C90706376400800546AA8974
:102410002E8C1305C42F8145EF108068376500802E
:10242000CE85130505B8EFF01FA6376900801305A8
:1024300089B9B76A0080EFF01FA593844425014A4B
:1024400022CEB76C0080376B0080372D0080B76DCF
:102450000080B76B0080938A8AB383274C009DEB82
:10246000CE8563030A0C37650080130585C0EFF045
:102470009FA185479CC0F6406644D6444649B6496C
:10248000264A964A064BF25B625CD25C425DB25DC4
:102490002561828083250C00B7670080138507BE05
:1024A000EFF07F9E02C283270C0162871306004073
:1024B00093E78700FD5801489306AD353EC09385EC
:1024C0000C4981471305CB30EF10D02FF247FD5553
:1024D0001385C72FEF10607193870D251305CB303F
:1024E0008043EF10B03FB76700809387072598437C
:1024F0000504F9571334140003260C006311F70286
:10250000B7650080938545BF1385CBBFEFF0BF97BC
:10251000130589B9EFF03F97229A510C3DBF9317ED
:102520002400D6978C43CDB737650080130505C2CC
:10253000EFF07F959C40B337F0002DBFB767008068
:1025400083A74725411122C43765008006C637643A
:102550000080130585B991CFEFF0FF92B765008039
:10256000938545B41305C4B42244B24041016FF0D1
:102570009F91EFF05F91B7650080938545B6DDB719
:10258000411106C6EFF06F92B240410145BF4111C3
:1025900002C6B24785073EC6B70701F08CC34101AA
:1025A00082807D5582800145828013172500B767A0
:1025B00000800505938707C50A0541113E97AA9734
:1025C00022C426C20043844306C663679400B24017
:1025D00022449244410182801C402285DC43829740
:1025E00019C1232204003104CDB74111B76700801F
:1025F00026C2B764008022C406C61384070E4AC0F0
:102600009387070E93840411631894002A893E84EB
:10261000631C940001441DA0584009C7184018438A
:10262000630EA7003104CDB75C4099E33104CDB708
:102630001C404A858C43EFF01FCA6DF92285B240D9
:1026400022449244024941018280411122C426C29F
:1026500006C621448944F3370430EF10507563C334
:10266000A40005458545EF202000EFF03F86E5B743
:1026700037650080B7670080130605239387874876
:102680003386C7408145130505236FF07FC641118E
:10269000094506C6193F37650080130545C6EFF0AA
:1026A0008FFE0D451937EF10F01BD93DB76700803D
:1026B0009387C73E03C7C700799B2386E700B240D4
:1026C00041018280357122CDB77700803764008068
:1026D0004EC7938707499309C44523A2F9001C08F4
:1026E0001306000781453E8506CF26CB4AC9EFF089
:1026F0003FC0054723A4A9000145A30EE10075359D
:102700000545653593071010231EF100EF00B07EDC
:10271000B7670080938787CA376900803EC2B726B3
:1027200000808547B77500809304C93E3EC00147CD
:102730008147814801489386E66813060020938507
:1027400005891305C93E23A09902EF10606883C76D
:10275000D4001304C44513F7B7FFA386E400ED8B40
:1027600099E79C4C89E71305C93EEF00607CB76789
:102770000080938707CB3EC2376500808547B72628
:102780000080B77500809304C5373EC0BD4801483E
:10279000814701479386A66413060020938505A907
:1027A0001305C537EF10C06283C7D40044C4214568
:1027B000ED9BA386F400B7670080938747471CCC46
:1027C0005CCC733505302189EFD09F9F8347D500BE
:1027D000FD8B89E7084D1335150082800145828005
:1027E000411106C6EFF0BFA1B767008083A7072697
:1027F000B240376700803E952326A74681453E8537
:1028000041016F1070661C41411122C406C626C2E8
:102810002A849DE7B7640080B76500803765008033
:10282000938545D51305C5A393063018138604D4A4
:10283000EFF06FE593053018138504D4EFF08FE6C1
:102840000840B2402244924441018280011122CCCE
:102850004EC652C406CE26CA4AC82A8AAE89214428
:1028600073340430B7640080138584252188EF1009
:10287000A05E0DED37690080B76500803765008088
:102880009385C5AD9306E004130649AC1305C5A3B3
:10289000EFF06FDF37650080130545AFEFF0AFDE77
:1028A0009305E004130549ACEFF0CFDF13858425D1
:1028B000EF10405EB7670080A94513059A0023A674
:1028C0000746EFE0EF80B76700803769008023207C
:1028D000A92623AE3725293713858425EF106059A3
:1028E0000DEDB7640080B765008037650080938583
:1028F000C5B093061006138644AC1305C5A3EFF0CC
:102900008FD837650080130545B2EFF0CFD7930518
:102910001006138544ACEFF0EFD873240430F24076
:102920006244D2444249B249224A0561828001117F
:1029300022CC4EC606CE26CA4AC8AA892144733480
:102940000430B7640080138584252188EF10C050BF
:102950000DED37690080B76500803765008093858D
:10296000C5AD9306E004130649AC1305C5A3EFF00B
:102970008FD137650080130545AFEFF0CFD09305B9
:10298000E004130549ACEFF0EFD113858425EF1077
:1029900060504E855D262A8913858425EF10604D91
:1029A0000DEDB7640080B7650080376500809385C2
:1029B000C5B093061006138644AC1305C5A3EFF00B
:1029C0008FCC37650080130545B2EFF0CFCB930570
:1029D0001006138544ACEFF0EFCC73240430F240C2
:1029E00062444A85D2444249B2490561828001115C
:1029F00022CC4AC806CE26CA4EC62A892144733440
:102A00000430B7640080138584252188EF10C0440A
:102A10000DEDB7690080B76500803765008093854C
:102A2000C5AD9306E004138649AC1305C5A3EFF0CA
:102A30008FC537650080130545AFEFF0CFC4930510
:102A4000E004138549ACEFF0EFC513858425EF1042
:102A5000604413058900453BCA8551248347D9004A
:102A600013858425F59BA306F900EF1080400DED3A
:102A7000B7640080B7650080376500809385C5B076
:102A800093061006138644AC1305C5A3EFF0AFBF41
:102A900037650080130545B2EFF0EFBE93051006D1
:102AA000138544ACEFF00FC073240430F24062444D
:102AB00023240900D2444249B24905618280B767A4
:102AC000008083A7C745411122C406C626C22E84B2
:102AD000B9E7EF10003A0DEDB7640080B7650080EC
:102AE000376500809385C5B093068007138644AC94
:102AF0001305C5A3EFF02FB937650080130545B264
:102B0000EFF06FB893058007138544ACEFF08FB9F1
:102B100022852244B240924441016FD06FEAEF1007
:102B200040350DEDB7640080B765008037650080E3
:102B30009385C5B093061006138644AC1305C5A350
:102B4000EFF06FB437650080130545B2EFF0AFB317
:102B500093051006138544ACEFF0CFB4218873249D
:102B60000430B240224492444101828037670080A1
:102B70000327C74519E36FD0AFE493778500F3A728
:102B8000073082802145733505302189C5B7011191
:102B900022CC06CE26CA4AC84EC62144733404301D
:102BA000B7640080138584252188EF10E02A0DED9D
:102BB00037690080B7650080376500809385C5ADB3
:102BC0009306E004130649AC1305C5A3EFF0AFABC1
:102BD00037650080130545AFEFF0EFAA9305E004D9
:102BE000130549ACEFF00FAC1385842537690080DD
:102BF000EF10402A8327C9451309C9458DCFB7690E
:102C00000080B765008037650080938545CD9306C9
:102C10000010138689CB1305C5A3EFF0CFA6376547
:102C200000801305C5CEEFF00FA6930500101385A5
:102C300089CBEFF02FA78327890003C7F7008547CB
:102C4000631EF702B7690080B765008037650080B2
:102C5000938505CF93061010138689CB1305C5A362
:102C6000EFF06FA2376500801305C5CEEFF0AFA17E
:102C700093051010138589CBEFF0CFA203278900AD
:102C80008347F700FD17A307F70013858425EF108E
:102C9000401E0DEDB7640080B76500803765008089
:102CA0009385C5B093061006138644AC1305C5A3DF
:102CB000EFF06F9D37650080130545B2EFF0AF9CD4
:102CC00093051006138544ACEFF0CF9D73240430B8
:102CD000F2406244D2444249B24905618280B767FA
:102CE000008083A7C70D411122C406C626C22E84C8
:102CF0006398F502B7640080B7650080376500808F
:102D0000938585DD1305C5A39306C028138604D4D7
:102D1000EFF06F979305C028138504D4EFF08F98D8
:102D200058401C40B24092441CC3D8C32320040026
:102D3000232204002244410182801C416313F500D8
:102D400081473E858280411122C4376400804AC099
:102D50002A891305C4451305450226C206C6F13F5C
:102D60001304C445AA8411E14444631209061C44B7
:102D70008DEF37690080B7650080376500809385E7
:102D8000C5D69306F007130609D41305C5A3EFF0C3
:102D90008F8F376500801305C5CEEFF0CF8E93057A
:102DA000F007130509D4EFF0EF8F1C4403C7D700D9
:102DB0007D8B11EF83D6E7001307F0076379D70007
:102DC0001CD0B240224492440249410182801C44FA
:102DD00063849700EFF0DFA004D0E5B701114AC883
:102DE000376900809307C9459C4706CE22CC83C72C
:102DF000F70026CA4EC61309C9458DEF3764008017
:102E0000B765008037650080938585D193061022D1
:102E1000130604D41305C5A3EFF0EF8637650080D1
:102E20001305C5CEEFF02F8693051022130504D4A9
:102E3000EFF04F87832709008DCF37640080B76597
:102E4000008037650080938545CD930620221306C8
:102E500004D41305C5A3EFF00F8337650080130575
:102E6000C5CEEFF04F8293052022130504D4EFF076
:102E70006F83214473340430B76400801385842544
:102E80002188EF00707D0DEDB7690080B765008087
:102E9000376500809385C5AD9306E004138649AC81
:102EA0001305C5A3EFE03FFE37650080130545AF6E
:102EB000EFE07FFD9305E004138549ACEFE09FFE52
:102EC00013858425EF00107D03278900054583477E
:102ED000F7008507A307F700BD3513858425EF00AC
:102EE00050790DEDB7640080B765008037650080CC
:102EF0009385C5B093061006138644AC1305C5A38D
:102F0000EFE07FF837650080130545B2EFE0BFF7CB
:102F100093051006138544ACEFE0DFF8732404300A
:102F20006244F240D2444249B24905616FF09FC504
:102F3000011122CC26CA06CE4AC84EC62A84A14414
:102F4000F3B404303769008013058925A188EF00A8
:102F5000B0700DEDB7690080B765008037650080FF
:102F60009385C5AD9306E004138649AC1305C5A34C
:102F7000EFE07FF137650080130545AFEFE0BFF06C
:102F80009305E004138549ACEFE0DFF113058925D3
:102F9000EF005070B767008083A7C70D6318F40275
:102FA000B7690080B765008037650080938585DD4F
:102FB0001305C5A393066027138609D4EFE0BFEC81
:102FC00093056027138509D4EFE0DFED37670080B4
:102FD0009306C745DC529056B76600809386064834
:102FE0001307C7456385D708D9C38305E400038564
:102FF000E70063DAA506D8431CC058C000C3C0C3AD
:103000008347D400014593E70704A306F400EFF0DB
:103010009FD313058925EF00D0650DED376400803F
:10302000B7650080376500809385C5B093061006AC
:10303000130644AC1305C5A3EFE0FFE43765008039
:10304000130545B2EFE03FE493051006130544ACC9
:10305000EFE05FE5F3A40430F2406244D244424919
:10306000B249056182806304F6009C43C9F350C0F5
:103070001C5714C080C300D761B7832705FF011117
:1030800022CC4EC606CE26CA4AC852C42A84930908
:1030900085FECDCFA144F3B4043037690080130519
:1030A0008925A188EF00505B0DED376A0080B76578
:1030B0000080376500809385C5AD9306E004130654
:1030C0004AAC1305C5A3EFE01FDC3765008013058C
:1030D00045AFEFE05FDB9305E00413054AACEFE09A
:1030E0007FDC13058925EF00F05A130504FFEFF08C
:1030F0008FF1CE85EFF0BFBE834754FF13058925BE
:10310000F59BA30AF4FEEF00D0560DED3769008061
:10311000B7650080376500809385C5B093061006BB
:10312000130649AC1305C5A3EFE0FFD53765008052
:10313000130545B2EFE03FD593051006130549ACE2
:10314000EFE05FD6F3A40430232804FE834754FF46
:103150004E85AD9BA30AF4FEEFF04FE719C9624418
:10316000F240D2444249224A4E85B24905616FF08D
:103170003FDCF2406244D2444249B249224A0561EE
:103180008280011122CC4AC806CE26CA4EC652C43D
:1031900056C22A84214973390930B76900801385E2
:1031A000892513798900EF00304B0DEDB76400805D
:1031B000B7650080376500809385C5AD9306E00450
:1031C000138644AC1305C5A3EFE0FFCB3765008041
:1031D000130545AFEFE03FCB9305E004138544AC06
:1031E000EFE05FCC13858925EF00D04AB7640080FB
:1031F0001385C445A28513054502EFF05FAEB7679E
:10320000008083A7C70D376A00809384C445130AE2
:103210000A486318F402B76A0080B7650080376512
:103220000080938585DD1305C5A39306602713866B
:103230000AD4EFE05FC59305602713850AD4EFE059
:103240007FC6DC509854638A4709C1CB8306E400EB
:103250000386E70063DFC606D8431CC058C000C31E
:10326000C0C38347D400884493E70704018D133516
:103270001500A306F400EFF01FAD13858925EF00BC
:10328000503F0DED37640080B765008037650080E2
:103290009385C5B093061006130644AC1305C5A369
:1032A000EFE07FBE37650080130545B2EFE0BFBD9C
:1032B00093051006130544ACEFE0DFBE7329093017
:1032C000F2406244D2444249B249224A924A0561DC
:1032D00082806384E7009C43A5FF58C09C54232050
:1032E000440180C380D4B5BFB767008083A7072699
:1032F000B1CBB76700809387C74598479306F0071F
:103300000356E70063E0C604B76600800306E700E3
:1033100083A6C6256348D602B766008083A6C60D7D
:103320006302D702144F99EE944B634BD5004111C1
:103330003A8506C6EFF0FFE4B24041016FF04FCA94
:10334000898E94CB8280011122CC4EC606CE26CA2D
:103350004AC8AA89214473340430B76400801385B5
:1033600084252188EF00502F0DED37690080B76567
:103370000080376500809385C5AD9306E004130691
:1033800049AC1305C5A3EFE01FB0376500801305F6
:1033900045AFEFE05FAF9305E004130549ACEFE004
:1033A0007FB013858425EF00F02E83C7D9003769DD
:1033B00000801309C94593F7070481CFCE85130513
:1033C0004902EFF0DF9183C7D90093F7F7FBA3869B
:1033D000F900032589003305354113351500EFF059
:1033E0009F9613858425EF00D0280DEDB7640080EB
:1033F000B7650080376500809385C5B093061006D9
:10340000138644AC1305C5A3EFE0FFA73765008022
:10341000130545B2EFE03FA793051006138544ACB2
:10342000EFE05FA873240430F2406244D244424982
:10343000B24905618280011122CC26CA2A844AC879
:1034400006CE4EC6AE843289EFF0FFEF8347D4003C
:1034500093E72700A306F400A9CCB767008083A7F1
:10346000C70D04C46318F402B7690080B765008013
:1034700037650080938585DD1305C5A39306602716
:10348000138609D4EFE03FA093056027138509D484
:10349000EFE05FA19C40638BF404A9CB0307E40039
:1034A0008386E700635FD702D8431CC058C000C3BF
:1034B000C0C3FD576303F904A94513059900EFD074
:1034C0002FC113061500130584016244F240D24453
:1034D0004249B249B73500809385A50705616F0061
:1034E000F054D4406384D7009C43DDFBDC4004C02F
:1034F0005CC0DC4080C3C0C06DBFF2406244D244B7
:103500004249B249056182804111B767008022C4F7
:103510002A8403A5474626C2AE84B285368606C6EF
:10352000EFF07FF12285EF00D0140DED37640080BD
:10353000B7650080376500809385C5B09306800726
:10354000130644AC1305C5A3EFE0FF933765008075
:10355000130545B2EFE03F9393058007130544AC94
:10356000EFE05F942244B2402685924441016FC04F
:103570003FC501114AC84EC606CE22CC26CAAA892A
:10358000214973390930B764008013858425137984
:103590008900EF00700C0DED37640080B765008086
:1035A000376500809385C5AD9306E004130644ACEF
:1035B0001305C5A3EFE03F8D37650080130545AFC8
:1035C000EFE07F8C9305E004130544ACEFE09F8DA2
:1035D00013858425EF00100C4E85EFF00FF62A843A
:1035E00013858425EF00F0080DEDB7690080B765FD
:1035F0000080376500809385C5B09306100613865A
:1036000049AC1305C5A3EFE01F883765008013059B
:1036100045B2EFE05F8793051006138549ACEFE0F4
:103620007F887329093061C02149733909301385B6
:10363000842513798900EF0030020DEDB769008011
:10364000B7650080376500809385C5AD9306E004BB
:10365000138649AC1305C5A3EFE0FF8237650080F0
:10366000130545AFEFE03F829305E004138549ACB5
:10367000EFE05F8313858425EF00D00113058400FC
:10368000EFF06F98A285EFF08FE58347D4001385A4
:103690008425F59BA306F400EF00A07D0DEDB76433
:1036A0000080B7650080376500809385C5B09306BC
:1036B0001006138644AC1305C5A3EFE0CFFC3765B5
:1036C0000080130545B2EFE00FFC9305100613854B
:1036D00044ACEFE02FFD73290930232404001305C7
:1036E0008401EF0030512285F2406244D2444249C5
:1036F000B24905618280B76700809387C745138709
:103700004702D8D398D7814501456FF02F94011116
:1037100022CC376400808327C44506CE26CA4AC817
:103720004EC652C456C21304C4458DCFB764008040
:10373000B765008037650080938545CD9306E037F7
:10374000138604D41305C5A3EFE0EFF337650080BB
:103750001305C5CEEFE02FF39305E037138504D4AE
:10376000EFE04FF4B7670080144403A7C70D3E8A0B
:103770006387E610214973390930B76900801385E2
:10378000892513798900EF00206D0DEDB764008065
:10379000B7650080376500809385C5AD9306E0046A
:1037A000138644AC1305C5A3EFE0EFED3765008049
:1037B000130545AFEFE02FED9305E004138544AC0E
:1037C000EFE04FEE13858925EF00C06C0C44130524
:1037D0004402EFF0CFD08327CA0D0444376A00803B
:1037E000130A0A486398F402B76A0080B76500803C
:1037F00037650080938585DD1305C5A39306602793
:1038000013860AD4EFE02FE89305602713850AD4C6
:10381000EFE04FE95C50185463854709D9C38386AC
:10382000E4000386E70063DAC606D8439CC0D8C02C
:1038300004C3C4C30545EFF00FD113858925152DA9
:103840000DED37640080B765008037650080938593
:10385000C5B093061006130644AC1305C5A3EFE0EC
:103860008FE237650080130545B2EFE0CFE19305A5
:103870001006130544ACEFE0EFE27329093021454F
:10388000733505306244F240D2444249B249224A7B
:10389000924A218905616FC0BF926384E7009C430F
:1038A000C9F3D8C01C5423A0440184C304D459B71D
:1038B000797122D4376400808327C44526D206D686
:1038C0004AD04ECE52CCAA841304C4458DCF37695A
:1038D0000080B765008037650080938545CD9306ED
:1038E0009039130609D41305C5A3EFE0CFD9376586
:1038F00000801305C5CEEFE00FD99305903913056D
:1039000009D4EFE02FDAFD57639AF4163769008087
:10391000B7650080376500809385C5D89306A039C8
:10392000130609D41305C5A3EFE0EFD53765008072
:103930001305C5CEEFE02FD59305A039130509D4A3
:10394000EFE04FD6A94513859400EFC07FF89309A7
:103950001500EF10000B3389A90002C6A144F3B48F
:1039600004306800A188CD290DED376A0080B76565
:103970000080376500809385C5AD9306E00413068B
:103980004AAC1305C5A3EFE00FD0376500801305DF
:1039900045AFEFE04FCF9305E00413054AACEFE0ED
:1039A0006FD06800C5290844EFF0FF990844B73587
:1039B00000804E8661059385A507EF003007184407
:1039C00068008347D70093E70701A306F700552156
:1039D0000DEDB7690080B76500803765008093857D
:1039E000C5B093068007138649AC1305C5A3EFE065
:1039F0008FC937650080130545B2EFE0CFC8930546
:103A00008007138549ACEFE0EFC92685EFC04FFB77
:103A10001C4483C7D700C18B8DCF37640080B76546
:103A2000008037650080938505DA9306703B1306A6
:103A300004D41305C5A3EFE00FC537650080130557
:103A4000C5CEEFE04FC49305703B130504D4EFE0FF
:103A50006FC5EF00107B3305A94081446354A00279
:103A60001306803E81469355F541EFC07FDD130676
:103A700040068146EFC04FFDAA8429A0E39404ECE0
:103A8000EFF0FFC8B2502254268502599254F249F1
:103A9000624A45618280B767008003A547468280FD
:103AA000011122CC26CA4AC806CE4EC62A842E89C7
:103AB000B2840DEEB7690080B7650080376500807D
:103AC0009385C5DF930660041386C9DE1305C5A37D
:103AD000EFE06FBB37650080130585E0EFE0AFBA1C
:103AE000930560041385C9DEEFE0CFBB63FE2403BA
:103AF000B7690080B765008037650080938505E26F
:103B0000930670041386C9DE1305C5A3EFE0AFB7B3
:103B100037650080130585E3EFE0EFB69305700489
:103B20001385C9DEEFE00FB82324240144C400C08C
:103B300040C0F2406244D2444249B24905618280A9
:103B4000011126CA4EC606CE22CC4AC8AA89A14473
:103B5000F3B404303764008013054426A188ED2CAB
:103B60000DED37690080B76500803765008093856B
:103B7000C5AD9306E004130649AC1305C5A3EFE0F9
:103B80008FB037650080130545AFEFE0CFAF9305E9
:103B9000E004130549ACEFE0EFB013054426DD2C3B
:103BA0004E85EFF01F9D2A8915C58347D500FD8BF3
:103BB00089E71C4D99E3EFF0AFB7232609061305FB
:103BC00044266244F2404249B249A685D244056186
:103BD0006FE0FFEE03A7890083A7C900998FB33771
:103BE000F000BA9723A4F900D9BFB767008083A774
:103BF000C74501114AC84EC606CE22CC26CA52C4B9
:103C00002A89AE8995CF8DCD37640080B765008055
:103C100037650080938505E69306C0081306C4DE69
:103C20001305C5A3EFE02FA6376500801305C5CEA9
:103C3000EFE06FA59305C0081305C4DEEFE08FA683
:103C4000214473340430B7640080138544262188EE
:103C500021240DED376A0080B7650080376500804C
:103C60009385C5AD9306E00413064AAC1305C5A3BE
:103C7000EFE06FA137650080130545AFEFE0AFA01F
:103C80009305E00413054AACEFE0CFA11385442669
:103C9000112483278900B9CFFD172324F900138548
:103CA0004426C12A0DEDB7640080B76500803765F2
:103CB00000809385C5B093061006138644AC1305A7
:103CC000C5A3EFE04F9C37650080130545B2EFE0D8
:103CD0008F9B93051006138544ACEFE0AF9C7324D3
:103CE00004300145F2406244D2444249B249224A7A
:103CF0000561828063960904138544269D2A0DED93
:103D0000B7640080B7650080376500809385C5B0D3
:103D100093061006138644AC1305C5A3EFE0AF96D7
:103D200037650080130545B2EFE0EF959305100667
:103D3000138544ACEFE00F977324043041555DB711
:103D4000A2856244F240224ACE864A86B24942495E
:103D500013854426D24405616FF00FFB8347D500DD
:103D6000FD8B89E7084D133515008280014582805F
:103D7000B767008003A5C7453335A0008280B767C9
:103D8000008083A7474603C5C70005898280372680
:103D9000B7004111130606B08146814506C622C40C
:103DA00026C2EFC0FFA937460F001306062481463E
:103DB000EFC08FC92A84EFE04FD1AA84EFE0EFD0A3
:103DC000058DE36D85FEB24022449244410182801C
:103DD0000111025322CC06CE1AC02A84EFD0DFA7ED
:103DE000B767008083A74746F240BC573CD4624483
:103DF000056182803C51411122C406C62A8491C3C8
:103E000082972285EFF09FF511CD2285EFF0AFD399
:103E10008347D400B24093E78700A306F40022440E
:103E2000410182808347D400898B81C72285EFE0DE
:103E30001FBC1C4CF1DF130584016D2BD1BF230681
:103E4000D500A306C5002307B500A3070500232C52
:103E50000500232E05008280084111C9B767008044
:103E600083C707470D891D8D3335A0008280054526
:103E70008280B76700809387C74503C747019C4787
:103E8000D98F18416316F70023200500054582806D
:103E900001458280B76700809387C74503C7470104
:103EA0009C47D98F1CC18280011122CC4AC806CE02
:103EB00026CA4EC62A89214473340430B764008070
:103EC000138584262188EFF03FF90DEDB769008056
:103ED000B7650080376500809385C5AD9306E00423
:103EE000138649AC1305C5A3EFD0FFF937650080F1
:103EF000130545AFEFD03FF99305E004138549ACB6
:103F0000EFD05FFA13858426EFF0DFF88347D900FE
:103F100013F7470039EB13858426EFF09FF50DED7D
:103F2000B7640080B7650080376500809385C5B0B1
:103F300093061006138644AC1305C5A3EFD0BFF457
:103F400037650080130545B2EFD0FFF393051006E7
:103F5000138544ACEFD01FF573240430F240624463
:103F6000D2444249B24905618280ED9BA306F90023
:103F70004A85EFF0BFDE01C54A85EFE07FFBA285F1
:103F80006244F2404249B24913858426D244056115
:103F90006FE0FFB299E16FF03FF1411122C42A8432
:103FA0002E852505A94506C6EFC09F92130615006C
:103FB000130584012244B240B73500809385A507DC
:103FC0004101ADA4397156D2B68AB766008083A686
:103FD000C64522DC26DA4ED652D406DE4AD82A84DA
:103FE000AE89328A9644A9C637690080B7650080D9
:103FF000376500809306201B130649E9938545CD5C
:104000001305C5A346CE42CC3ECA3AC8EFD0BFE79F
:1040100037650080130585EAEFD0FFE69305201B86
:10402000130549E9EFD01FE8F2486248D2474247FA
:10403000864602C2528636C0CE85D6862285EFF0ED
:104040003FD9FD576386F400A6852285EFF09FF4E3
:104050002285F2506254D2544259B259225A925A8D
:10406000216182800111B76700804AC837690080EA
:1040700022CC26CA06CE1384071193840711130994
:104080000911636F24012684EFE07FB0FD54636E55
:1040900024036244F240D244424905616FE01FD4D8
:1040A0005C543EC21C503EC05C488328C4010328B7
:1040B00084011848544410444C400840EFF05FD14C
:1040C0001C40E0CF130404036DBF4C506385950082
:1040D0000840EFF03FEC1304040355BF011122CC5C
:1040E00026CA06CE4AC8AA8402C6214473340430C4
:1040F00068002188EFF05FD60DED37690080B76565
:104100000080376500809385C5AD9306E0041306F3
:1041100049AC1305C5A3EFD01FD737650080130541
:1041200045AFEFD05FD69305E004130549ACEFD05F
:104130007FD76800EFF01FD683C7C400858B8DCF73
:1041400037690080B765008037650080938585EE0C
:1041500093069002130609ED1305C5A3EFD0BFD255
:10416000376500801305C5F1EFD0FFD193059002AC
:10417000130509EDEFD01FD32685EFF0BFC7A28549
:104180006800EFE0DF93F2406244D24442490561A7
:104190008280B767008083A7C72699E36FE02F86E8
:1041A000014582801C4101CD376700800327470D00
:1041B0006307E50089C798471445369798C7584163
:1041C0001CC3D8C323200500232205008280B767C3
:1041D000008083C78727411106C622C426C27D55A9
:1041E00089E7370500801345F5FFB767008093879F
:1041F000070D8043630FF40009CC0444EFF07FF90E
:10420000898C014563C704000044EFF09FF8330533
:10421000A440B767008083A7C74681C763D3A700C0
:104220003E85B24022449244410182801C41797112
:1042300022D426D24ECE06D64AD052CC56CA5AC81E
:104240005EC662C42A84AE89B2848DCF376900808D
:10425000B7650080376500809385C5F49306D00468
:10426000130689F31305C5A3EFD0FFC1376500809E
:104270001305C5CEEFD03FC19305D004130589F3D4
:10428000EFD05FC223263401634390008544A149E7
:10429000F3B90930376A008013050A2793F98900BA
:1042A000EFF09FBB0DED37690080B7650080376583
:1042B00000809385C5AD9306E004130649AC130551
:1042C000C5A3EFD05FBC37650080130545AFEFD0C5
:1042D0009FBB9305E004130549ACEFD0BFBC1305A9
:1042E0000A27EFF03FBBEFF0DFEA2695B7640080C6
:1042F00003A9040D08C49384040D630C9900B76AE4
:104300000080376B0080B76B0080376C00806319CA
:104310000900DC4004C05CC0DC4080C3C0C091A880
:104320008327890063D607029305CBF693066005C1
:1043300013868AF31385CBA3EFD0FFB41305CCCE3D
:10434000EFD07FB49305600513858AF3EFD09FB556
:10435000032789001C4463D7E708B307F7402324E9
:10436000F90083274900232024015CC080C3232255
:1043700089009C40638997006317F400EFF03FE5E4
:104380008145EFD01FD313050A27EFF09FAE0DED47
:1043900037640080B7650080376500809385C5B0BD
:1043A00093061006130644AC1305C5A3EFD0BFADAA
:1043B00037650080130545B2EFD0FFAC93051006BA
:1043C000130544ACEFD01FAEF3A90930B25022540C
:1043D00092540259F249624AD24A424BB24B224CA1
:1043E00045618280998F1CC4DC40E38427F3032954
:1043F000090031BF011122CC4EC606CE26CA4AC8DA
:10440000AA89214473340430B764008013850427DB
:104410002188EFF07FA40DED37690080B76500803B
:10442000376500809385C5AD9306E004130649AC5B
:104430001305C5A3EFD03FA537650080130545AF31
:10444000EFD07FA49305E004130549ACEFD09FA5FE
:1044500013850427EFF01FA483A70900295989C7F2
:104460004E85EFF03FD4014913850427EFF07FA07C
:104470000DEDB7640080B7650080376500809385D7
:10448000C5B093061006138644AC1305C5A3EFD040
:104490009F9F37650080130545B2EFD0DF9E9305DF
:1044A0001006138544ACEFD0FF9F73240430F24014
:1044B00062444A85D2444249B249056182801C4126
:1044C0006385070E011126CA4EC606CE22CC4AC805
:1044D000AA89A144F3B40430376900801305092781
:1044E000A188EFF07F970DED37640080B7650080FD
:1044F000376500809385C5AD9306E004130644AC90
:104500001305C5A3EFD03F9837650080130545AF6D
:10451000EFD07F979305E004130544ACEFD09F984C
:1045200013050927EFF01F97376700801307070D62
:104530001C4301446384E7005843B9EF130509277E
:10454000EFF03F930DED37690080B7650080376568
:1045500000809385C5B093061006130649AC130579
:10456000C5A3EFD05F9237650080130545B2EFD049
:104570009F9193051006130549ACEFD0BF92F3A4A9
:104580000430EFF01FC13305A440F2406244D2442E
:104590004249B2490561828094473694E38037FBF3
:1045A000D1DFE38DE7F89C4349BF0145828041118B
:1045B00022C406C626C24AC0214473340430B764FC
:1045C0000080138504272188EFF01F890DED3769DE
:1045D0000080B7650080376500809385C5AD930680
:1045E000E004130649AC1305C5A3EFD0DF89376596
:1045F0000080130545AFEFD01F899305E004130534
:1046000049ACEFD03F8A13850427EFF0BF88EFF065
:104610001FBC2A8913850427EFF0BF850DEDB76411
:104620000080B7650080376500809385C5B093062C
:104630001006138644AC1305C5A3EFD0DF8437659D
:104640000080130545B2EFD01F8493051006138533
:1046500044ACEFD03F8573240430B24022444A85F5
:104660009244024941018280011122CC4AC852C4BD
:1046700006CE26CA4EC62A892E8A214473340430B7
:10468000B7640080138504272188EFF0EFFC0DED5F
:10469000B7690080B7650080376500809385C5AD38
:1046A0009306E004138649AC1305C5A3EFD0AFFD14
:1046B00037650080130545AFEFD0EFFC9305E004AC
:1046C000138549ACEFD00FFE13850427EFF08FFC64
:1046D000EFF0FFAF6359A900854763D6A700D285E5
:1046E0004A85EFD01F9D13850427EFF08FF80DED5D
:1046F000B7640080B7650080376500809385C5B0DA
:1047000093061006138644AC1305C5A3EFD0AFF78C
:1047100037650080130545B2EFD0EFF6930510061C
:10472000138544ACEFD00FF873240430F240624498
:10473000D2444249B249224A05618280797122D429
:1047400052CC06D626D24AD04ECE56CA5AC85EC6DB
:1047500062C466C26AC02A8A2144EFE0FFB873349B
:10476000043037690080130509272188EFF0CFEE68
:104770000DEDB7640080B7650080376500809385D4
:10478000C5AD9306E004138644AC1305C5A3EFD072
:104790008FEF37650080130545AFEFD0CFEE93055F
:1047A000E004138544ACEFD0EFEFB7690080130548
:1047B0000927EFF02FEEB764008023A64927376A58
:1047C00000809389C926130A0A0D93848423B76A4B
:1047D0000080B76B0080376B0080376C0080B76C4F
:1047E0000080032D0A0083A709009440C840630B92
:1047F0004D0163090D0003278D0063D6E7081D8F67
:104800002324ED00BE9613D7F7412A97B3B7F600DD
:10481000BA9794C0DCC023A00900EFF05F9B8145EC
:10482000EFD03F8913050927EFF0AFE40DEDB76432
:104830000080B7650080376500809385C5B093061A
:104840001006138644AC1305C5A3EFD0CFE337653C
:104850000080130545B2EFD00FE3930510061385D2
:1048600044ACEFD02FE473240430B250225492545D
:104870000259F249624AD24A424BB24B224C924C04
:10488000024D45618280BA969355F741AA9533B699
:10489000E6002E96998F6A8523240D0094C0D0C01F
:1048A00023A0F900EFF01F9013050927EFF06FDC4C
:1048B0000DE59385CBB09306100613864AAC13051D
:1048C000CBA3EFD04FDC13054CB2EFD0CFDB930579
:1048D000100613854AACEFD0EFDC73240430832735
:1048E000CD006A852144829773340430130509276B
:1048F0002188EFF06FD61DE59385CCAD9306E004DB
:1049000013864AAC1305CBA3EFD0EFD737650080F1
:10491000130545AFEFD02FD79305E00413854AACBC
:10492000EFD04FD813050927EFF0CFD65DBD0111A9
:1049300026CA06CE22CC4AC84EC6A144F3B40430DF
:104940003769008013050927A188EFF0EFD00DED3E
:1049500037640080B7650080376500809385C5ADFA
:104960009306E004130644AC1305C5A3EFD0AFD102
:1049700037650080130545AFEFD0EFD09305E00415
:10498000130544ACEFD00FD213050927EFF08FD0F9
:10499000EFD0FF86B76700809387872383A907003E
:1049A000C043AA9933B5A9002A9413050927EFF04B
:1049B0004FCC0DED37690080B7650080376500800A
:1049C0009385C5B093061006130649AC1305C5A31D
:1049D000EFD06FCB37650080130545B2EFD0AFCA7B
:1049E00093051006130549ACEFD0CFCBF3A40430E8
:1049F000A285F24062444E85D2444249B2490561E3
:104A00008280411106C6EFF09FF2B24041018280E0
:104A1000411106C6EFF0BFF11306803E8146EFB0AC
:104A20003FE2130640068146EFB01F82B2404101CB
:104A300082801051411122C406C626C22A846358BE
:104A4000C000B7550080938525A3EFF02FFE5C5082
:104A500085075CD01C4C99C3228582970448410489
:104A60006381840299CC2685EFD07FF883C7D40078
:104A7000FD8B91E79C4C81E72685EFE06FCB23A669
:104A80000406B2402244924441018280930705010A
:104A90000CCD50CD232205021CC95CC92320050082
:104AA00023220500232405028280797122D426D294
:104AB0004AD006D64ECE2A84AE84328963C705001A
:104AC00063450600B3E7C5008DEFB7690080B765A1
:104AD000008037650080938505F9930630071386BB
:104AE000C9F71305C5A3EFD00FBA376500801305CA
:104AF00005FDEFD04FB9930530071385C9F7EFD007
:104B00006FBAA94513059900EFB09FDC2AC4A945E7
:104B100013859400EFB0DFDB2AC62285EFF09F8D6E
:104B2000A2472322040222851CD022543246B250CE
:104B300092540259F249B7550080938525A34561E7
:104B40006FF0CFEE411122C406C62A84EFF09F8A8F
:104B500021E15C4C99C322858297130504018145AC
:104B6000EFD0FFDC2A840DC5EFD07FE88347D40067
:104B7000FD8B91E71C4C81E72285EFE06FBB21455F
:104B8000733505302244B240218941016FD01FFEA8
:104B9000B240224441018280011122CC4AC806CE93
:104BA00026CA4EC62A89214473340430B764008073
:104BB000138544272188EFF02FAA0DEDB7690080F7
:104BC000B7650080376500809385C5AD9306E00426
:104BD000138649AC1305C5A3EFD0EFAA3765008053
:104BE000130545AFEFD02FAA9305E004138549AC18
:104BF000EFD04FAB13854427EFF0CFA9138544279F
:104C00008329490223220902EFF0AFA60DEDB76414
:104C10000080B7650080376500809385C5B0930636
:104C20001006138644AC1305C5A3EFD0CFA5376596
:104C30000080130545B2EFD00FA59305100613852C
:104C400044ACEFD02FA673240430F24062444E856A
:104C5000D2444249B24905618280B767008083A788
:104C6000C74501114EC606CE22CC26CA4AC8AA891B
:104C70008DCF37640080B7650080376500809385ED
:104C800045CD9306A00B1306C4F71305C5A3EFD0BB
:104C90008F9F376500801305C5CEEFD0CF9E93055B
:104CA000A00B1305C4F7EFD0EF9F214473340430F9
:104CB000B7640080138544272188EFF0EF990DED4C
:104CC00037690080B7650080376500809385C5AD82
:104CD0009306E004130649AC1305C5A3EFD0AF9AC1
:104CE00037650080130545AFEFD0EF999305E004D9
:104CF000130549ACEFD00F9B13854427EFF08F9934
:104D000003A949026318090683A70900A5C7A2855C
:104D1000FD561386090113854427EFE0EFFE214479
:104D200073340430138544272188EFF0EF920DEDA2
:104D300037690080B7650080376500809385C5AD11
:104D40009306E004130649AC1305C5A3EFD0AF9357
:104D500037650080130545AFEFD0EF929305E0046F
:104D6000130549ACEFD00F9413854427EFF08F92D1
:104D700003A9490223A2090213854427EFF06F8F8C
:104D80000DEDB7640080B7650080376500809385BE
:104D9000C5B093061006138644AC1305C5A3EFD027
:104DA0008F8E37650080130545B2EFD0CF8D930508
:104DB0001006138544ACEFD0EF8E73240430F2401C
:104DC00062444A85D2444249B24905618280411118
:104DD00022C426C237640080B764008006C613046C
:104DE00084219384842163689400B24022449244D5
:104DF0000145410182809307440122855CC81CCC97
:0A4E0000EFC03FB77104C5B7828010
:024E0A00FFFFA8
:104E0C000000000008180080000000000818008056
:104E1C000000000008180080000000000818008046
:104E2C000000000008180080000000000818008036
:104E3C00000000000818008000000000801F0080A7
:104E4C000000000008180080000000000818008016
:104E5C000000000008180080000000000818008006
:104E6C0000000000081800800000000008180080F6
:104E7C0000000000081800800000000008180080E6
:104E8C0000000000081800800000000008180080D6
:104E9C0000000000081800800000000008180080C6
:104EAC0000000000081800800000000008180080B6
:104EBC0000000000081800800000000008180080A6
:104ECC000000000008180080000000000818008096
:104EDC000000000008180080000000000818008086
:104EEC000000000008180080000000000818008076
:104EFC000000000008180080000000000818008066
:104F0C000000000008180080000000000818008055
:104F1C000000000008180080000000000818008045
:104F2C000000000008180080000000000818008035
:104F3C000000000008180080000000000818008025
:104F4C000000000008180080000000000818008015
:104F5C00B05600804A1F008000000000B85A008044
:104F6C008020008000000000B05A0080A625008040
:104F7C0000000000B0560080CE4D00800000000004
:104F8C0000010202030303030404040404040404E4
:104F9C0005050505050505050505050505050505B5
:104FAC000606060606060606060606060606060695
:104FBC000606060606060606060606060606060685
:104FCC000707070707070707070707070707070765
:104FDC000707070707070707070707070707070755
:104FEC000707070707070707070707070707070745
:104FFC000707070707070707070707070707070735
:10500C000808080808080808080808080808080814
:10501C000808080808080808080808080808080804
:10502C0008080808080808080808080808080808F4
:10503C0008080808080808080808080808080808E4
:10504C0008080808080808080808080808080808D4
:10505C0008080808080808080808080808080808C4
:10506C0008080808080808080808080808080808B4
:10507C0008080808080808080808080808080808A4
:10508C006475726174696F6E5F65787069726500C2
:10509C007374617475735F65787069726500000074
:1050AC007374617475735F73746F7000746573746B
:1050BC005F74696D65725F6475726174696F6E5F40
:1050CC00706572696F640000746573745F74696DE8
:1050DC0065725F706572696F645F300074657374BC
:1050EC005F74696D65725F657870697265666E5F15
:1050FC006E756C6C00000000746573745F74696D80
:10510C0065725F706572696F6469636974790000B8
:10511C00746573745F74696D65725F7374617475B3
:10512C00735F676574000000746573745F74696DF8
:10513C0065725F7374617475735F6765745F616EBC
:10514C007974696D65000000746573745F74696DC2
:10515C0065725F7374617475735F73796E6300004D
:10516C00746573745F74696D65725F6B5F6465669B
:10517C00696E6500746573745F74696D65725F75D3
:10518C007365725F64617461000000007465737410
:10519C005F74696D65725F72656D61696E696E676A
:1051AC005F676574000000006B5F757074696D65F6
:1051BC005F64656C7461282674646174612E746913
:1051CC006D657374616D7029203E3D203130302047
:1051DC0069732066616C7365000000006B5F75700D
:1051EC0074696D655F64656C7461282674646174A0
:1051FC00612E74696D657374616D7029203E3D205C
:10520C0035302069732066616C7365006B5F74695F
:10521C006D65725F7374617475735F676574287400
:10522C00696D657229203D3D2031206973206661CE
:10523C006C7365006B5F74696D65725F72656D612F
:10524C00696E696E675F6765742874696D6572292C
:10525C00203E3D2035302069732066616C736500FB
:10526C006B5F74696D65725F72656D61696E696E95
:10527C00675F6765742874696D657229203D3D20F0
:10528C00302069732066616C7365000074657374FB
:10529C005F74696D65725F6475726174696F6E5F5E
:1052AC00706572696F640000746573745F74696D06
:1052BC0065725F706572696F645F300074657374DA
:1052CC005F74696D65725F657870697265666E5F33
:1052DC006E756C6C00000000746573745F74696D9E
:1052EC0065725F706572696F6469636974790000D7
:1052FC00746573745F74696D65725F7374617475D2
:10530C00735F676574000000746573745F74696D16
:10531C0065725F7374617475735F6765745F616EDA
:10532C007974696D65000000746573745F74696DE0
:10533C0065725F7374617475735F73796E6300006B
:10534C00746573745F74696D65725F6B5F646566B9
:10535C00696E6500746573745F74696D65725F75F1
:10536C007365725F6461746100000000746573742E
:10537C005F74696D65725F72656D61696E696E6788
:10538C005F6765740000000074696D65725F617021
:10539C006900000074646174612E657870697265CF
:1053AC005F636E74203D3D20302069732066616C14
:1053BC007365000074646174612E65787069726540
:1053CC005F636E74203D3D20342069732066616CF0
:1053DC007365000074646174612E73746F705F6325
:1053EC006E74203D3D20312069732066616C7365BD
:1053FC000000000074646174612E657870697265D8
:10540C005F636E74203D3D20312069732066616CB2
:10541C007365000074646174612E73746F705F63E4
:10542C006E74203D3D20302069732066616C73657D
:10543C000000000028282864656C746129203E3D1A
:10544C0020283530292920262620282864656C74CC
:10545C006129203C3D2028353029202B202831295A
:10546C0029292069732066616C73650072656D6112
:10547C00696E696E67203C3D202844555241544961
:10548C004F4E202F2032292069732066616C736582
:10549C00000000006B5F74696D65725F73746174FA
:1054AC0075735F676574282674696D657229203D74
:1054BC003D20302069732066616C7365000000002C
:1054CC006B5F74696D65725F72656D61696E696E33
:1054DC00675F676574282674696D657229203E3D87
:1054EC0020313030202F20322069732066616C739C
:1054FC00650000006B5F74696D65725F7374617435
:10550C0075735F676574282674696D657229203D13
:10551C003D20342069732066616C736500000000C7
:10552C0074646174612E6578706972655F636E7402
:10553C00203D3D20692069732066616C7365000015
:10554C006B5F74696D65725F7374617475735F738F
:10555C00796E63282674696D657229203D3D203172
:10556C002069732066616C7365000000746461745B
:10557C00612E6578706972655F636E74203D3D20A5
:10558C002869202B2031292069732066616C736592
:10559C0000000000636865636B203D3D20757365FA
:1055AC00725F646174615B69695D20697320666117
:1055BC006C736500757365725F646174615F636FB2
:1055CC0072726563745B69695D2069732066616CD6
:1055DC007365000037130000BEBA00000DD0000048
:1055EC00AFDE0000DEFA00003C61008068610080E4
:1055FC0094610080C0610080EC6100802E2F746586
:10560C007374732F6B65726E656C2F74696D657234
:10561C002F74696D65725F6170692F7372632F6D82
:10562C0061696E2E630000000A20202020417373F4
:10563C00657274696F6E206661696C656420617453
:10564C002025733A25643A2025733A2025730A00E5
:10565C004C170080BA170080BA17008042170080E0
:10566C004C170080A6170080B017008004570080EC
:10567C0024570080405700805457008060570080AA
:10568C0078570080756E6B6E6F776E00457863652A
:10569C007074696F6E2063617573652025732028A3
:1056AC002564290A00000000ADBAADDEADBAADDE4E
:1056BC00ADBAADDEADBAADDEADBAADDEADBAADDE16
:1056CC00ADBAADDEADBAADDEADBAADDEADBAADDE06
:1056DC00ADBAADDEADBAADDEADBAADDEADBAADDEF6
:1056EC00ADBAADDEADBAADDEADBAADDEADBAADDEE6
:1056FC00ADBAADDEADBAADDE496E7374727563745E
:10570C00696F6E2061646472657373206D69736177
:10571C006C69676E65640000496E737472756374AE
:10572C00696F6E20416363657373206661756C7479
:10573C0000000000496C6C6567616C20696E7374C5
:10574C0072756374696F6E00427265616B706F691C
:10575C006E7400004C6F61642061646472657373D5
:10576C00206D6973616C69676E6564004C6F616470
:10577C0020616363657373206661756C740000004F
:10578C002A2A2A2A204B65726E656C20416C6C6F3C
:10579C00636174696F6E204661696C757265212056
:1057AC002A2A2A2A0A0000002A2A2A2A2A204B6599
:1057BC00726E656C204F4F505321202A2A2A2A2AB8
:1057CC000A0000002A2A2A2A2A204B65726E656C70
:1057DC002050616E696321202A2A2A2A2A0A000095
:1057EC002A2A2A2A20556E6B6E6F776E20466174BA
:1057FC00616C204572726F7220256421202A2A2A3E
:10580C002A0A000043757272656E742074687265A2
:10581C006164204944203D2025700A4661756C74F2
:10582C00696E6720696E737472756374696F6E202C
:10583C0061646472657373203D20307825780A208A
:10584C002072613A2030782578202067703A203019
:10585C00782578202074703A2030782578202074B0
:10586C00303A20307825780A202074313A2030786C
:10587C002578202074323A20307825782020743313
:10588C003A2030782578202074343A2030782578E6
:10589C000A202074353A2030782578202074363A46
:1058AC002030782578202061303A203078257820F7
:1058BC002061313A20307825780A202061323A2054
:1058CC0030782578202061333A20307825782020D4
:1058DC0061343A2030782578202061353A203078B0
:1058EC0025780A202061363A2030782578202061EE
:1058FC00373A20307825780A0000000049535200CE
:10590C00657373656E7469616C207468726561642B
:10591C0000000000466174616C206661756C742037
:10592C00696E20257321205370696E6E696E672E27
:10593C002E2E0A00466174616C206661756C7420B1
:10594C00696E207468726561642025702120416243
:10595C006F7274696E672E0A0000000053707572C6
:10596C00696F757320696E746572727570742064DA
:10597C006574656374656421204952513A2025642D
:10598C000A0000002E2F617263682F7269736376B0
:10599C0033322F636F72652F7468726561642E6386
:1059AC0000000000282828287072696F72697479C9
:1059BC002929203D3D203135202626207A5F697328
:1059CC005F69646C655F74687265616428287468CB
:1059DC00726561645F66756E63292929207C7C2061
:1059EC002828283135202D203129203E3D202828FB
:1059FC002D31362929292026262028287072696FF6
:105A0C00726974792929203E3D2028282D313629A8
:105A1C00292026262028287072696F7269747929CA
:105A2C0029203C3D20283135202D203129292900E1
:105A3C00415353455254494F4E204641494C205BEB
:105A4C0025735D20402025733A25640A0000000070
:105A5C0009696E76616C6964207072696F72697421
:105A6C007920282564293B20616C6C6F7765642054
:105A7C0072616E67653A20256420746F2025640A74
:105A8C00000000002E2F6C69622F6F732F617373EF
:105A9C006572742E63000000402025733A25643A29
:105AAC000A00000075617274300000007379735F36
:105ABC00636C6F636B0000002E2F696E636C7564F2
