:0200000480007A
:100000009702000093824201739052306F00900E6D
:020010000000EE
:02001200FFFFEE
:100014005D7106C00EC212C416C61AC81ECA72CCBE
:1000240076CE7AD07ED22AD42ED632D836DA3ADCBC
:100034003EDEC2C0C6C2F322103496C4F32200309E
:1000440096C6EF00E01A1303000005E9F3222034FA
:10005400B70300809383F3FFB3F272002D43638AE6
:10006400620013050100970000009380E0116F0007
:10007400B032A642910296C441A093020100975364
:1000840000009383A30F03A14300411116C003AEE4
:100094000300050E23A0C3016308030097000000BA
:1000A400938080036F00B03573252034B70200803D
:1000B4009382F2FF33755500EF00801297420000DF
:1000C400938282010E05AA9203A5020003A34200B3
:1000D400E7000300175300001303430A83230300BC
:1000E400FD132320730082421381020083238300C3
:1000F400032E030263087E089752000093820208CD
:1001040003A382002326830223289302232A2303A2
:10011400232C3303232E4303232053052322630577
:10012400232473052326830523289305232AA30563
:10013400232CB3052324230297530000938303BE87
:1001440003AE03002326C30703A3020223A4620011
:10015400032183020324C3028324030303294303E7
:1001640083298303032AC303832A0304032B43043D
:10017400832B8304032CC304832C0305032D430521
:10018400832D8305A64273901234B64273900230D5
:10019400824092412242B2424243D243624EF24EE4
:1001A400025F925F2255B2554256D2566257F257B9
:1001B4000648964861617300203000007300000017
:1001C40097520000938282FB03A382008323C30619
:1001D4002189F322053013850300678000000000A5
:1001E4000543B312A30073B34234678000000000D8
:1001F400F322203437030080B3F2620013050000B9
:0A0204006383020005056780000017
:02020E00FFFFF0
:100210006300060293070002B387C740634CF000F7
:10022000130506FE1307000033D5A500930507004C
:100230006780000033D7C5003355C500B395F5007E
:100240003365B5006FF09FFE130101FD232291027B
:100250002328610123261102232481022320210364
:10026000232E3101232C4101232A51012326710120
:100270002324810123229101130B0500938405009F
:10028000639C063813040600930905001749000013
:100290001309C9FC63F8C512B7070100938A05006A
:1002A0006378F6109306F00FB3B6C6009396360047
:1002B000B357D6003309F90003470900B306D70046
:1002C000130700023307D740630C0700B394E40020
:1002D000B356DB003314E600B3EA9600B319EB0023
:1002E000135B040193050B0013850A00EF00405ACD
:1002F0001309050093050B00931B040113850A00E5
:10030000EF00805493DB0B01930405009305050077
:1003100013850B00EF0080501319090113D7090151
:100320003367E900138A0400637EA7003307870060
:10033000138AF4FF636887006376A700138AE4FFDB
:1003400033078700B304A74093050B00138504000F
:10035000EF0000541309050093050B0013850400FA
:10036000EF00804E93990901930405009305050061
:100370001319090113850B0093D90901EF00004AF5
:10038000B36939011386040063FCA900B309340181
:100390001386F4FF63E6890063F4A9001386E4FF83
:1003A00093170A01B3E7C700130A00006F00001398
:1003B000B707000193060001E36CF6EE9306800197
:1003C0006FF01FEF138A0600631A06009305000002
:1003D00013051000EF00404713040500B7070100A4
:1003E000637CF4129307F00F63F48700130A800014
:1003F000B35744013309F90083460900130600028C
:10040000B38646013306D64063120612B384844095
:10041000130A1000135B040193050B0013850400FD
:10042000EF0000471309050093050B001385040036
:10043000931B0401EF00404193DB0B019304050083
:100440009305050013850B00EF00403D13190901CA
:1004500013D709013367E900938A0400637EA7007C
:1004600033078700938AF4FF636887006376A700E9
:10047000938AE4FF33078700B304A74093050B007A
:1004800013850400EF00C0401309050093050B001D
:1004900013850400EF00403B939909019304050084
:1004A000930505001319090113850B0093D9090160
:1004B000EF00C036B36939011386040063FCA9005C
:1004C000B30934011386F4FF63E6890063F4A900DD
:1004D0001386E4FF93970A01B3E7C700138507006B
:1004E00093050A008320C102032481028324410270
:1004F000032901028329C101032A8101832A4101C1
:10050000032B0101832BC100032C8100832C4100AC
:100510001301010367800000B7070001130A0001FF
:10052000E368F4EC130A80016FF09FEC3314C4000D
:1005300033DAD400B319CB00B356DB00135B0401EC
:10054000B394C40093050B0013050A00B3EA9600A8
:10055000EF0000341309050093050B0013050A0092
:10056000931B0401EF00402E93DB0B019304050065
:100570009305050013850B00EF00402A13190901AC
:1005800013D70A013367E900138A0400637EA700CA
:1005900033078700138AF4FF636887006376A70038
:1005A000138AE4FF33078700B304A74093050B00C9
:1005B00013850400EF00C02D1309050093050B00FF
:1005C00013850400EF0040289304050093050500FF
:1005D00013850B00EF00802493960A01131909017B
:1005E00093D60601B367D9001387040063FEA70002
:1005F000B38787001387F4FF63E8870063F6A700DB
:100600001387E4FFB3878700131A0A01B384A74056
:10061000336AEA006FF01FE063ECD51EB7070100F4
:1006200063F4F6049305F00F33B5D50013153500C8
:1006300033D7A60097470000938747C2B387E700E8
:1006400083C50700130A0002B385A500330ABA4028
:1006500063160A0293071000E3E296E83336CB00F4
:10066000934716006FF09FE7B707000113050001DD
:10067000E3E0F6FC130580016FF09FFBB35AB60070
:10068000B3964601B3EADA0033D9B400B397440114
:10069000B355BB0093DB0A01B3E4F5001305090071
:1006A00093850B00B3194601EF00801E130405006B
:1006B00093850B0013050900139C0A01EF00C01875
:1006C000135C0C01130905009305050013050C00CC
:1006D000EF00C0141314040113D704013367E400BE
:1006E000930C0900637EA70033075701930CF9FFB1
:1006F000636857016376A700930CE9FF330757013E
:100700003309A74093850B0013050900EF0040183B
:100710001304050093850B0013050900EF00C012B8
:10072000130905009305050013050C00EF00000FE9
:10073000939704011314040193D707013367F4005E
:1007400013060900637EA700330757011306F9FF5C
:10075000636857016376A7001306E9FF3307570163
:1007600093970C01370E0100B3E7C7001308FEFF93
:1007700033F3070133F809013307A74093DE07017C
:1007800093D909011305030093050800EF00000940
:10079000930805009385090013050300EF00000886
:1007A000130305009305080013850E00EF000007F2
:1007B000130805009385090013850E00EF0000065D
:1007C00093D6080133030301B386660063F4060180
:1007D0003305C50113D606013305A6006366A702DB
:1007E000E314A7BC370701001307F7FFB3F6E600D1
:1007F00093960601B3F8E80033164B01B386160151
:10080000130A0000E37CD6CC9387F7FF6FF0DFB9C3
:10081000130A0000930700006FF05FCC1306050079
:100820001305000093F61500638406003305C50028
:1008300093D5150013161600E39605FE6780000099
:100840006340050663C6050613860500930505008B
:100850001305F0FF630C060293061000637AB600DE
:100860006358C0001316160093961600E36AB6FE8E
:100870001305000063E6C500B385C5403365D500A8
:1008800093D6160013561600E39606FE6780000006
:1008900093820000EFF05FFB138505006780020084
:1008A0003305A04063D80500B305B0406FF0DFF911
:1008B000B305B04093820000EFF01FF93305A0406C
:1008C000678002009382000063CA0500634C050044
:1008D000EFF09FF71385050067800200B305B04075
:1008E000E35805FE3305A040EFF01FF63305B04096
:1008F00067800200176100001301C18BB71200006E
:10090000938202801691312E6F00F01500008280D4
:10091000397122DC4ED637540080B759008026DA70
:100920004AD8114681451385C9E41304C4E53759F3
:100930000080040852D456D25AD006DE1309091B8F
:10094000EF20500A930A041C268A371B0080CA85B0
:10095000228502C202C085480148814701479306AB
:100960000B9B13060020EF2090552320AA001304B0
:10097000040713090920110AE31B54FD1144FD5516
:100980001385C9E47D14EF20901A75F813840401CF
:1009900088409104EF203064E39C84FEF25062545E
:1009A000D2544259B259225A925A025B2161828032
:1009B0003755008019718545130505DB86DEA2DCFD
:1009C000A6DACAD8CED6D2D4D6D2DAD0EF300064E6
:1009D000B707008085077D8D635605007D1513657B
:1009E000E5FF0505B7570080938747D10A053E9577
:1009F000032A05001306000481450810EF1080103B
:100A0000A949930A0104154B8A8426890010A285FE
:100A10009306800C11465285EF10605D2320A900DB
:100A200021041109E31554FF9306800C4146D68535
:100A30005285EF10C05B2AC801449C4099E713150A
:100A400034001C103E95EF10207F05049104E3163E
:100A500064FFFD19E39A09FA375500801305C5E4D0
:100A6000EF205002F6506654D6544659B659265ACD
:100A7000965A065B09618280B75500803745008031
:100A8000938585CD130505376F106014411106C697
:100A900022C499476302F502EF20D0210DC1EF2057
:100AA000702121E1B745008093854563374500807B
:100AB00013058564EF00F03FEF001044F5BFEF2011
:100AC000502071FD375400801304C4170C4437457F
:100AD000008013058566EF00D03D0844EF20B04F3D
:100AE000E1BFB745008093850563C9B75D71A2C4B6
:100AF000A6C286C69947AA842E8463E9A708374709
:100B000000809317250013074738BA979C438287C4
:100B1000374500801305454BEF00B039EF20E06BFF
:100B20007C40832804010328C4003ED83C40584040
:100B300014403ED65C5C3044AA853ED41C5C3745EC
:100B40000080130585533ED25C583ED01C583ECEE3
:100B50005C543ECC1C543ECA5C503EC81C503EC641
:100B60005C4C3EC41C4C3EC25C483EC01C44EF0082
:100B70005034A2852685193F374500801305C54DA1
:100B800061BF374500801305854F79B73745008031
:100B9000A68513054551EF00D03149B7411122C454
:100BA00006C62A847326203406060582954763E329
:100BB000C70237470080931726001307073ABA97F2
:100BC0008C43374500801305053CEF00902EA2852D
:100BD0000145293FB74500809385853BDDB741112D
:100BE00006C6F32520343745008086058581130528
:100BF0000569EF00102CB74500809385C53D114570
:100C0000F535B7570080938747DB984311CB03A393
:100C1000070023A00700B757008003A587DB0283E6
:100C20008280411106C6EF106023EF00702EEF1096
:100C30000028797122D426D24AD04ECE52CC56CA40
:100C40005AC85EC63E8B06D662C4BD47AA842E84AF
:100C5000B289368ABA8BC28A46896394F806B72766
:100C60000080938767E36393F606C256CA8526859C
:100C70001146EF20D00C938509FBA295896723AE1E
:100C8000040423A00406C19993870788FCC5B717FD
:100C90000080B25022549387879023A4450323A653
:100CA000750323A8650323AA5503BCC58CD4025938
:100CB0009254F249624AD24A424BB24B224C4561AD
:100CC000828093860801F947E3F1D7FA374C008018
:100CD000B74500803745008013068C6BE14693854D
:100CE000856D13054576EF00D01C37450080CA8519
:100CF000C156394613054578EF00B01BE145130591
:100D00008C6BEF00F01C95B793971500AE97139777
:100D100027005C45BA970307B5006353B7009C43AF
:100D20001357F6417D8B329715870A07BA979CC2F5
:100D30001375F60182800111740006CEF137324737
:100D400085473395A7001C43F240C98F1CC305613A
:100D500082800111740006CE453F324785473395A6
:100D6000A7001C43F2401345F5FF7D8D08C30561C4
:100D70008280011126CA444122CC2A840355850071
:100D8000A6854AC84EC652C456C25AC006CE793449
:100D900083290400834AA400FD572A8AAA99A3053F
:100DA000F40001497D4B634159038144835784001A
:100DB00063CEF404F2406244D2444249B249224A2A
:100DC000924A024B05618280A6855285B53C131775
:100DD00019004A979317270058443E9793074700F6
:100DE0005CC31CC76349AB00A305240189808D0443
:100DF000F19805094DBF7D059357F541FD8BAA97E5
:100E000095878A0723203701BE99CDB74C402685A8
:100E100031341C40268681453E955C448504138709
:100E2000470018C1984758C1984708C388C722850A
:100E30001937ADBF1D71A2CCD6C286CEA6CACAC80C
:100E4000CEC6D2C4DAC05EDE62DC66DA6AD86ED69E
:100E50008010034EA500814893172E00BD0793F71D
:100E6000077F3301F1405C418A8A56838D07F19BED
:100E700023A0FA00138BF8FF63D2C803638B08002A
:100E80000328C3FF135828000D081378C8FF232038
:100E9000030111030328C3FF6379B802FD556318EA
:100EA000BB02232007005155130104FAF6406644A3
:100EB000D6444649B649264A964A064BF25B625CDE
:100EC000D25C425DB25D25618280850865B783454D
:100ED00005010149858991C5214973390930137983
:100EE0008900232AE4FA13171B00232CD4FA5A97FB
:100EF00054450A0711073697232EC4FAAA845A8A42
:100F0000FD56832907006308371313172A0083A6A9
:100F10004900B38CEA0003A7090083A50C00214D0A
:100F200098C254C323A0090023A209008840338536
:100F3000A940EFF0FF902A86D2852685193D050A43
:100F40009306FAFF63C2660503C70401058B19C344
:100F500073290930832744FB515523A03701E385CA
:100F600009F48327C4FB884023A0670193172B0053
:100F7000BE9A83A50A003385A940EFF07F8C8327B2
:100F800084FB88C301450DB7884083A50C00854BC1
:100F90003385A940EFF0DF8A93181A00D298931D89
:100FA00025008A0883A64C00DE85232614FB36859F
:100FB0002328D4FAEFF09F86338CA9003386BB0137
:100FC000D28526858D3B832604FB9040CC40FD16C0
:100FD00003D58400E296918E2328D4FAEFF01F8483
:100FE000832604FB8328C4FA63F0A602D444C69681
:100FF000138646002320CC0090462322CC00904646
:101000002320860123A48601850B9147E39CFBF8EE
:1010100083C60401858A89E60149050A910C0DB74A
:101020007329093083C60401858AFDD673390D30D2
:1010300013798900DDB77D1A138749FFE313DAECD2
:10104000814919B71D71A2CCD2C466DA86CEA6CA70
:10105000CAC8CEC6D6C2DAC05EDE62DC6AD86ED638
:1010600080100347A500AA8C0A073D071377077F66
:101070003301E14058410A8AD2860D07719B232033
:10108000EA000545910663F3A50803C70C012E8904
:10109000B289058B814409C7A144F3B40430A18807
:1010A000374B0080635C0906B7440080B755008069
:1010B000374500801386847B9306000C9385058258
:1010C00013054576FD23374500801305C57ED523DE
:1010D0001385847B9305000CE52BFD5483C70C011D
:1010E000858B81C7A188F3A40430130104FAF6406C
:1010F0006644D6444649B649264A964A064BF25BB0
:10110000625CD25C425DB25D2561828003A7C6FF4E
:10111000050509830D07719B98C2ADB71317290008
:101120005297832A070003AC0C004E85D685EFF05A
:10113000EFEE938BFAFF330D75012A9C83A54C00CB
:1011400003D58C00EFF08FED6369AD02B7470080E7
:101150009385C77CB7470080138547769306400A7E
:1011600013068B7BB923B74700801385877E9123B5
:101170009305400A13058B7BA12B4E86CA85668595
:101180005D3E131719004A979316270003A7CC005A
:101190003697930647002320DC0014472322DC0007
:1011A000144723A086012324870103C70C01058B64
:1011B00045E38144E30409F29306C4FB4E86CA85E5
:1011C000668599368326C4FB1357F5410D8B2A9704
:1011D0008842719BBD473357E5003D8BE310F7F024
:1011E000014D93FDC9FF3386AD013285D685232499
:1011F000C4FAEFF0AFE2330775012A8C83A54C00E7
:1012000003D58C002326E4FAEFF04FE10327C4FA5C
:10121000032684FA6372A702CA8566851D3E03A76A
:101220000C003A9C03264C0003270C0018C250C344
:1012300023200C0023220C00050D9147E315FDFA35
:1012400013D6F9410D8AB2997D1993D9294099BDD8
:10125000F3A4043003C70C01058B21DFA147F3B4CD
:101260000730A18881BF4111AA872E85B2853686B5
:1012700006C68297EF107076EF20E0550145828018
:10128000411122C42A841305500406C626C2AE8426
:101290000294A68513052005029422832244B240BD
:1012A000A685924413052005410102839C418507D0
:1012B0009CC1B757008003A307D00283397122DC99
:1012C0004ED652D45AD06AC806DE26DA4AD856D24A
:1012D0005ECE62CC66CA6EC6AA892E8A328D368BE5
:1012E00005446353E0003A848547930C000263147D
:1012F000FB00930C0003B7D49A3B0549A94A014C63
:101300009384F49F894D938B140063140C0063F253
:10131000A407DE856A85EFF02FD3D2851305050378
:1013200082990509054CDE856A85EFF06FD62A8D16
:10133000A9452685EFF04FD1FD1A8547AA84E3948D
:10134000FAFCD28513050D0382998D47330424419D
:10135000630FFB02F2506254D2544259B259225ADE
:10136000925A025BF24B624CD24C424DB24D21611B
:101370008280E34A54FBE3E86DFBD285668582995F
:10138000050955B7D2851305000282997D14E34BF8
:1013900080FEC9B7B757008023A0A7D082805D71B7
:1013A000A2C4A6C2CAC04EDE52DC56DA66D26AD0E9
:1013B0006ECE86C65AD85ED662D42A84AE84B28AED
:1013C000368D014A7D598149814CB70D008003C596
:1013D0000A0005E1B640264496440649F259625A8D
:1013E000D25A425BB25B225C925C025DF24D61615B
:1013F0008280639A0C00930650026305D528A68567
:101400000294850AE9B793064006630BD50E63EB99
:10141000A6049306900363E7A60293061003637580
:10142000D50C9306D0026304D5269307000363030B
:10143000F50A13075002631FE500A6851305500245
:10144000029409AA93068005630BD514130730068E
:101450006303E522A685130550020294A68503C501
:101460000A00F9BF930600076301D51263EFA600D7
:10147000930690066306D5089306C0066300D50858
:1014800093068006E30FD5F6F1B793065007630580
:10149000D50C63EAA60213073007E31DE5FA032C17
:1014A0000D00130B4D00E28B03C50B00631B051AE7
:1014B0008D476398F900B38B8B41B30B7941634639
:1014C000701B5A8D41A893068007630AD50C9306BA
:1014D000A0074DBF635C0900638D091A130905FD60
:1014E000E39109F2894931BFE34A09FE93162900C5
:1014F00036990609130909FD2A99DDB7050A11B7BE
:1015000063160A0203260D00110D635B0600A68513
:101510001305D00232C0029402467D193306C04042
:101520004A87CE86A6852285513B2DA00547E30B31
:10153000EAFC93077D0013F787FF10435443130D14
:1015400087003307B6013337C70036975DDFA685BE
:1015500022853D33814C75B563160A0003260D00C4
:10156000110D7DBF0547E30BEAFE93077D0013F7DE
:1015700087FF130D87001043584371FBB7070080A6
:1015800093C7F7FFE3FEC7F8D9B7A6851305000395
:101590000294A68513058007029421498549854652
:1015A00063C6460783270D0002C4110D3EC2414C9D
:1015B000814B02C0C1481245A245138BF8FF131698
:1015C0002B0046C6EFE0DFC43D8939ED8247930624
:1015D000000389E7B24885476390F80636956205AF
:1015E000A68561850294850B631D0B028D46814C97
:1015F000E399D9E013171900B30B7741E35C70F559
:10160000A685130500020294FD1BCDBF93077D0044
:1016100093F687FF9C42138D86003EC2DC423EC497
:1016200079B766C0DA8841BFA54793067005E3E73E
:10163000A7FA930600035DB79307FCFF3EC6634914
:10164000890185476398F900A68513050003029474
:10165000324CC9BF8947E39DF9FEA68513050002F8
:10166000FDB7A685850B029481B5A68513050002FA
:101670000294FD1BA9B503250D00A685130B4D0093
:10168000029481B5014A7D598149854C9DBB8D49A4
:101690008DBB8549BDB301112A8637150080AE8602
:1016A0001305C52A6C0006CE02C6D539F240056185
:1016B000828039712ED24C1006CE32D436D63AD82A
:1016C0003EDA42DC46DE2EC6F937F24021618280E6
:1016D000B74500803755008041119385C57F1305BC
:1016E0000581794606C6F137B74500809385C53D2B
:1016F0001945EFF0AFBF8280A147F3A70730730011
:101700005010828085473395A7007325453082802D
:10171000A147F3B707307350403073504034828094
:10172000411122C426C23754008006C6A947AA84A4
:101730001304C4DB6317F5000840B5455C41DC4386
:101740008297084093F5F40F5C41DC438297B240E6
:1017500022442685924441018280411122C43714DB
:1017600000801305047206C6F52E13050472224488
:10177000B240410105B13755008041111305C581C3
:1017800006C6992DB757008023AEA7DAF937B240C5
:10179000014541018280B70710F003A747F403A574
:1017A00007F483A547F4E39AE5FE8280011122CC79
:1017B00006CE26CA4AC84EC652C456C22144733405
:1017C000043037590080130509DC2188EF10D05808
:1017D00015E9B7540080B7550080374500809385E0
:1017E00085849306E0041386048313054576D1357A
:1017F00037550080130505866D3D9305E00413857C
:101800000483F935130509DCB7540080EF109058B4
:10181000938404DA493783A9040083AA4400AA8781
:1018200033053541B3B7A700B38555417566130637
:10183000064C81469D8DEFE03FA12A8AF565938590
:10184000054C5285EFE09FFDAA9933B5A900569546
:10185000C8C0130509DC23A03401EF10905115E92D
:10186000B7540080B7550080374500809385858741
:101870009306100613860483130545761D3D3755E0
:1018800000801305058935359305100613850483FB
:101890008135732404306244F240D2444249B24953
:1018A000924A5285224A05616F20E049411106C6DD
:1018B000DD35F5679387074C370710F0AA97FD567B
:1018C0002326D7F433B5A7002E952324F7F4232637
:1018D000A7F41D45053DB240014541018280639555
:1018E0000514011106CE22CC26CA4AC84EC652C4DF
:1018F00056C25AC0FD576315F50025651305E5BCB2
:10190000A5671304F5FF9387E7BC63DB87103E846C
:10191000214973390930B75A008013850ADC1379DD
:101920008900EF10704315E9B7540080B755008067
:1019300037450080938585849306E00413860483ED
:1019400013054576BD33375500801305058695335D
:101950009305E00413850483A53B13850ADCEF108F
:101960007043153DB7570080938707DAF56483A964
:1019700007002A8A9385044C228503AB4700EFE0D9
:10198000FFE99387F44BB38737413E959385044C29
:101990005295EFE07FEB9385044CEFE03FE8338A0C
:1019A00049412A9A9307703E63C547019384044CCA
:1019B0002695B70710F0AA997D5723A6E7F433B50B
:1019C000A9005A9523A437F523A6A7F413850ADCAA
:1019D000EF10303A15E937540080B755008037458D
:1019E00000809385858793061006130604831305EC
:1019F0004576C13137550080130505895D3993055A
:101A0000100613050483E93173290930F24062445A
:101A1000D2444249B249224A924A024B056182802D
:101A2000E35804EE0144EDB58280411122C406C69C
:101A300026C24AC0214473340430B7540080138551
:101A400004DC2188EF10503115E937590080B75573
:101A5000008037450080938585849306E004130653
:101A6000098313054576B131375500801305058686
:101A700089319305E004130509839939138504DC42
:101A8000EF105031093BB757008083A707DAF5659F
:101A90009385054C1D8DEFE03FDB2A89138504DC1F
:101AA000EF10302D15E9B7540080B7550080374549
:101AB000008093858587930610061386048313059B
:101AC0004576C53E3755008013050589DD369305FB
:101AD000100613850483ED3E73240430B240224483
:101AE0004A8592440249410182808347050003C729
:101AF00005006393E70081E73385E74082800505B1
:101B00008505E5B793F6F50FAA8713F737001DEBA8
:101B100093F5F50F13978500D98D13970501D98D8E
:101B20003383C7003E870D48B308E3406362180360
:101B30001357260093152700AE970D8E3E96639D92
:101B4000C70082807DDE8507A38FD7FE7D1675BF17
:101B50001107232EB7FEC9BF8507A38FD7FEC5B7D0
:101B60007D558280B757008023A2A7D082800111C3
:101B700022CC1C453754008026CA130484D0B754A5
:101B8000008006CE4AC84EC6938444DC8549232093
:101B900004002A8923A03401829783274900232047
:101BA0003401829789471CC08327C90082978D47DB
:101BB0001CC0624423A00400F240D2444249B2490E
:101BC000375500801305C50105616F10A06B1D71AD
:101BD000A6CAB754008083A784DC86CEA2CCCAC82C
:101BE000CEC6D2C4D6C2DAC05EDE62DC66DA6AD89D
:101BF0006ED663C90706375400800546AA892E8C25
:101C00001305C4018145EF10E05D37550080CE8596
:101C10001305C58EEFF0FFA93759008013054990D1
:101C2000B75A0080EFF0FFA8938484DC014A22CEEB
:101C3000B76C0080375B0080372D0080B75D008077
:101C4000B75B0080938A4A8A83274C009DEBCE8540
:101C500063030A0C3755008013054597EFF07FA505
:101C600085479CC0F6406644D6444649B649264A54
:101C7000964A064BF25B625CD25C425DB25D2561C6
:101C8000828083250C00B75700801385C794EFF03E
:101C90005FA202C283270C0162871306004093E70C
:101CA0008700FD5801489306EDB63EC093850C9B16
:101CB00081471305CB02EF109020F247FD551385A5
:101CC000C701EF10C06693874DDC1305CB0280433C
:101CD000EF107030B7570080938747DC98430504B6
:101CE000F9571334140003260C006311F702B7559B
:101CF00000809385059613858B96EFF09F9B1305C7
:101D00004990EFF01F9B229A510C3DBF931724007E
:101D1000D6978C43CDB7375500801305C598EFF0A3
:101D20005F999C40B337F0002DBFB757008083A761
:101D300087DC411122C43755008006C63754008025
:101D40001305459091CFEFF0DF96B755008093854E
:101D5000058B1305848B2244B24041016FF07F95BF
:101D6000EFF03F95B75500809385058DDDB74111A4
:101D700006C6EFE07FD0B240410145BF411102C627
:101D8000B24785073EC6B70701F08CC34101828088
:101D90007D5582800145828013172500B75700804A
:101DA00005059387C79B0A0541113E97AA9722C450
:101DB00026C20043844306C663679400B2402244AF
:101DC0009244410182801C402285DC43829719C1E4
:101DD000232204003104CDB74111B757008026C239
:101DE000B754008022C406C6138447D24AC09387E2
:101DF00047D2938444D5631894002A893E84631C97
:101E00009400014415A0584009C718401843630DB9
:101E1000A7003104CDB75C4099E33104CDB71C4035
:101E20004A858C43D93175F92285B24022449244C7
:101E3000024941018280411122C426C206C62144C2
:101E40008944F3370430EF10305763C3A4000545CD
:101E50008545EF101062EFF03F8AE5B737550080F7
:101E6000B7570080130605DA9387871A3386C74071
:101E70008145130505DA79B14111094506C6293FA7
:101E8000375500801305059DEFF0BF820D452937BA
:101E9000EF10F00CE93DB75700809387C71003C7D8
:101EA000C700799B2386E700B240410182803571EB
:101EB00022CDB7770080375400804EC79387079BA9
:101EC0009309C41723A2F9001C08130600078145D3
:101ED0003E8506CF26CB4AC93531054723A4A90044
:101EE0000145A30EE1004D3D05457D3593071010DA
:101EF000231EF100EF10E02CB7570080938747A115
:101F0000375900803EC2B72600808547B7650080FC
:101F10009304C9103EC00147814781480148938618
:101F200086E713060020938505DB1305C91023A05F
:101F30009902EF10005A83C7D4001304C41713F793
:101F4000B7FFA386E400ED8B99E79C4C89E7130566
:101F5000C910EF007026B75700809387C7A13EC213
:101F6000375500808547B7260080B7650080930409
:101F7000C5093EC0BD48014881470147938666E3D5
:101F800013060020938505FB1305C509EF10605467
:101F900083C7D40044C42145ED9BA386F400B75702
:101FA0000080938747191CCC5CCC733505302189A0
:101FB000EFE00FA1411122C426C237540080B7546C
:101FC000008006C6130444D59384C4D86368940083
:101FD000B24022449244014541018280930744016A
:101FE00022855CC81CCCEFE0DFD87104C5B7B757B9
:101FF000008083A7C7175D71A2C4A6C24EDE5AD85F
:1020000086C6CAC052DC56DA5ED662D466D26AD0C0
:102010006ECEAA89AE84328B368463800710F1E2DB
:10202000014937550080130545D53385A940B7755B
:10203000DBB6938575DB0985EFE04FFE7D7A856A17
:10204000137CF50FD55BD15C130AFA0FFD1A214DF5
:10205000938D4901268774003000DA854E85EFE0C4
:102060007FDD631C7501268774003000DA854E859C
:10207000EFE05FDC631375015155A24723828401B1
:10208000BD8B13978700DC40B3F74701D98F3247E8
:10209000B3F757013207D98FDCC00DC505C46313F0
:1020A000950373350D302286EE852189EF00D06DC2
:1020B000FD57E301F4FAEF1030683304A940E35B05
:1020C00004F85555B640264496440649F259625ADA
:1020D000D25A425BB25B225C925C025DF24D61615E
:1020E000828037590080B75500803745008093853E
:1020F00085A393069003130649A213054576EFF0D6
:102100004FDB374500801305857EEFF08FDA9305AE
:102110009003130549A2EFF0AFDBE35380F0EF101B
:10212000B0612A89A94513059400EFE06FF12A995F
:10213000CDBD834705000111104122CC1394370017
:102140004AC81D8C375900800A0493558600130530
:1021500049D53182BD89229506CE26CA4EC652C4C3
:10216000EFE05FEEA145F3B50530B754008013856D
:10217000C4DC93F98500EF10203E130949D50DED1D
:10218000375A0080B7550080374500809385858495
:102190009306E00413060A8313054576EFF06FD12A
:1021A0003755008013050586EFF0AFD09305E004A6
:1021B00013050A83EFF0CFD11385C4DCEF10803D07
:1021C000130544014A95EF00F07B01CD6244F240D3
:1021D0004249224ACE851385C4DCB249D244056106
:1021E00079A41385C4DCEF10C0380DED375400809E
:1021F000B755008037450080938585879306100684
:102200001306048313054576EFF0AFCA37550080F7
:1022100013050589EFF0EFC9930510061305048334
:10222000EFF00FCBF3A50930F2406244D2444249AB
:10223000B249224A056182801105E5BD8347D50078
:10224000FD8B89E7084D133515008280014582809A
:10225000411106C6EFF06FFDB757008083A787DDF9
:10226000B240375700803E952326A71881453E850A
:1022700041016F1010201C41411122C406C626C224
:102280002A849DE7B7540080B75500803745008009
:102290009385C5AF1305457693063018138684AE33
:1022A000EFF02FC193053018138584AEEFF04FC2C5
:1022B0000840B2402244924441018280011122CC64
:1022C0004EC652C406CE26CA4AC82A8AAE892144BE
:1022D00073340430B7540080138504DD2188EF1077
:1022E000A0270DED37590080B75500803745008095
:1022F000938585849306E0041306098313054576C8
:10230000EFF02FBB3755008013050586EFF06FBA4D
:102310009305E00413050983EFF08FBB138504DDFB
:10232000EF104027B7570080A94513059A0023A650
:102330000718EFE0EFD0B757008037590080232C03
:10234000A9DC23AA37DD2937138504DDEF106022CD
:102350000DEDB7540080B755008037450080938558
:102360008587930610061386048313054576EFF0E0
:102370004FB43755008013050589EFF08FB39305EF
:10238000100613850483EFF0AFB473240430F240D9
:102390006244D2444249B249224A05618280011115
:1023A00022CC4AC806CE26CA4EC62A892144733496
:1023B0000430B7540080138504DD2188EF10C01964
:1023C0000DEDB7590080B7550080374500809385E3
:1023D00085849306E0041386098313054576EFF0A0
:1023E0004FAD3755008013050586EFF08FAC930590
:1023F000E00413850983EFF0AFAD138504DDEF1022
:10240000601913058900853DCA8551248347D90089
:10241000138504DDF59BA306F900EF1080150DED83
:10242000B7540080B7550080374500809385858775
:10243000930610061386048313054576EFF06FA705
:102440003755008013050589EFF0AFA693051006F8
:1024500013850483EFF0CFA773240430F240624465
:1024600023240900D2444249B24905618280B7570A
:10247000008083A7C717411122C406C626C22E8436
:10248000B9E7EF10000F0DEDB7540080B75500808D
:1024900037450080938585879306800713860483DC
:1024A00013054576EFF0EFA0375500801305058939
:1024B000EFF02FA09305800713850483EFF04FA161
:1024C00022852244B240924441016FD07FCFEF1069
:1024D000400A0DEDB7540080B755008037450080A5
:1024E0009385858793061006138604831305457626
:1024F000EFF02F9C3755008013050589EFF06F9B97
:102500009305100613850483EFF08F9C21887324B4
:102510000430B24022449244410182803757008007
:102520000327C71719E36FD0BFC993778500F3A7B7
:10253000073082802145733505302189C5B70111E7
:1025400022CC06CE26CA4AC84EC621447334043073
:10255000B7540080138504DD2188EF00F07F0DED76
:1025600037590080B75500803745008093858584B2
:102570009306E0041306098313054576EFF06F9385
:102580003755008013050586EFF0AF929305E00400
:1025900013050983EFF0CF93138504DD37590080CD
:1025A000EF00507F8327C9171309C9178DCFB7597B
:1025B0000080B755008037450080938505A89306B5
:1025C0000010138649A613054576EFF08F8E374528
:1025D00000801305857EEFF0CF8D930500101385E5
:1025E00049A6EFF0EF8E8327890003C7F7008547E0
:1025F000631EF702B7590080B75500803745008049
:10260000938585A993061010138649A61305457670
:10261000EFF02F8A374500801305857EEFF06F8934
:1026200093051010138549A6EFF08F8A03278900C0
:102630008347F700FD17A307F700138504DDEF00BC
:1026400050730DEDB7540080B755008037450080BA
:1026500093858587930610061386048313054576B4
:10266000EFF02F853755008013050589EFF06F8453
:102670009305100613850483EFF08F8573240430CF
:10268000F2406244D2444249B24905618280B75760
:10269000008083A707D2411122C406C626C22E8419
:1026A0006398F502B7540080B75500803745008025
:1026B000938545B3130545769306C028138684AEEB
:1026C000EFE03FFF9305C028138584AEEFF04F8005
:1026D00058401C40B24092441CC3D8C3232004007D
:1026E00023220400224441018280011122CC26CA07
:1026F00006CE4AC84EC62A84A144F3B404303759E2
:102700000080130509DDA188EF0010650DEDB759B4
:102710000080B755008037450080938585849306F7
:10272000E0041386098313054576EFE09FF83755DB
:10273000008013050586EFE0DFF79305E0041385BD
:102740000983EFE0FFF8130509DDEF00B06413051E
:102750008400EFF05FB2A2851D3F8347D4001305CC
:1027600009DDF59BA306F400EF00B0600DED3759CD
:102770000080B75500803745008093858587930694
:1027800010061306098313054576EFE09FF23755CF
:10279000008013050589EFE0DFF1930510061305AE
:1027A0000983EFE0FFF2F3A40430232404001305AF
:1027B00084016244F240D2444249B24905616F103B
:1027C00000331C416313F50081473E85828041112F
:1027D00022C4375400804AC02A891305C417130540
:1027E000450226C206C6F13F1304C417AA8411E1AC
:1027F0004444631209061C448DEF37590080B755D5
:10280000008037450080938545B19306F007130695
:1028100089AE13054576EFE0DFE937450080130503
:10282000857EEFE01FE99305F007130589AEEFE021
:102830003FEA1C4403C7D7007D8B11EF83D6E70026
:102840001307F0076379D7001CD0B24022449244AA
:102850000249410182801C4463849700EFF05F9F2E
:1028600004D0E5B701114AC8375900809307C9174A
:102870009C4706CE22CC83C7F70026CA4EC6130952
:10288000C9178DEF37540080B75500803745008059
:10289000938505AC93061022130684AE1305457686
:1028A000EFE03FE1374500801305857EEFE07FE0F4
:1028B00093051022130584AEEFE09FE18327090002
:1028C0008DCF37540080B755008037450080938501
:1028D00005A893062022130684AE13054576EFE083
:1028E0005FDD374500801305857EEFE09FDC9305B3
:1028F0002022130584AEEFE0BFDD214473340430A1
:10290000B7540080138504DD2188EF00F0440DEDFD
:10291000B7590080B755008037450080938585847E
:102920009306E0041386098313054576EFE07FD80C
:102930003755008013050586EFE0BFD79305E00407
:1029400013850983EFE0DFD8138504DDEF009044A1
:102950000327890005458347F7008507A307F7008C
:10296000BD35138504DDEF00D0400DEDB754008078
:10297000B7550080374500809385858793061006FC
:102980001386048313054576EFE0BFD237550080E8
:1029900013050589EFE0FFD1930510061385048325
:1029A000EFE01FD3732404306244F240D244424922
:1029B000B24905616FF01FB8011122CC26CA06CEBC
:1029C0004AC84EC62A84A144F3B404303759008063
:1029D000130509DDA188EF0030380DEDB7590080EF
:1029E000B755008037450080938585849306E004C1
:1029F0001386098313054576EFE0BFCB375500807A
:102A000013050586EFE0FFCA9305E00413850983EB
:102A1000EFE01FCC130509DDEF00D037B75700807A
:102A200083A707D26318F402B7590080B755008016
:102A300037450080938545B3130545769306602797
:102A4000138689AEEFE0FFC693056027138589AE34
:102A5000EFE01FC8375700809306C717DC52905627
:102A6000B75600809386061A1307C7176384D708E2
:102A7000D1C38305E4000385E70063D9A506D843E5
:102A80001CC058C000C3C0C38347D400014593E7AE
:102A90000704A306F400253B130509DDEF00702DA4
:102AA0000DED37540080B755008037450080938581
:102AB0008587930610061306048313054576EFE019
:102AC0005FBF3755008013050589EFE09FBE930572
:102AD000100613050483EFE0BFBFF3A40430F240F7
:102AE0006244D2444249B249056182806304F600DF
:102AF0009C43D1F350C01C5714C080C300D769B7A2
:102B0000832705FF011122CC4EC606CE26CA4AC82D
:102B100052C42A84930985FECDCFA144F3B4043076
:102B200037590080130509DDA188EF00F0220DED73
:102B3000375A0080B75500803745008093858584DB
:102B40009306E00413060A8313054576EFE07FB68B
:102B50003755008013050586EFE0BFB59305E00407
:102B600013050A83EFE0DFB6130509DDEF009022BD
:102B7000130504FFEFF02FF0CE85EFF05FB1834730
:102B800054FF130509DDF59BA30AF4FEEF00701E48
:102B90000DED37590080B75500803745008093858B
:102BA0008587930610061306098313054576EFE023
:102BB0005FB03755008013050589EFE09FAF93059F
:102BC000100613050983EFE0BFB0F3A404302328F7
:102BD00004FE834754FF4E85AD9BA30AF4FEEFF03D
:102BE000EFE511C96244F240D2444249224A4E857F
:102BF000B2490561D1B3F2406244D2444249B2497C
:102C0000224A05618280011122CC4AC806CE26CA1A
:102C10004EC652C456C22A84214973390930B75965
:102C20000080138509DD13798900EF00F0120DEDA6
:102C3000B7540080B7550080374500809385858460
:102C40009306E0041386048313054576EFE07FA620
:102C50003755008013050586EFE0BFA59305E00416
:102C600013850483EFE0DFA6138509DDEF009012E2
:102C7000B75400801385C417A28513054502EFF0F1
:102C80001FA1B757008083A707D2375A00809384CB
:102C9000C417130A0A1A6318F402B75A0080B7550A
:102CA000008037450080938545B31305457693062C
:102CB000602713868AAEEFE0DF9F930560271385B8
:102CC0008AAEEFE0FFA0DC509854638A4709C1CB7D
:102CD0008306E4000386E70063DFC606D8431CC012
:102CE00058C000C3C0C38347D400884493E7070497
:102CF000018D13351500A306F400EFF05FAD1385C9
:102D000009DDEF0010070DED37540080B755008046
:102D10003745008093858587930610061306048344
:102D200013054576EFE0FF983755008013050589B8
:102D3000EFE03F989305100613050483EFE05F99D9
:102D400073290930F2406244D2444249B249224ACE
:102D5000924A056182806384E7009C43A5FF58C0C6
:102D60009C542320440180C380D4B5BFB757008052
:102D700083A787DDA9CBB75700809387C7179847EC
:102D80009306F0070356E70063EFC602B7560080CC
:102D90000306E70083A646DD6347D602B7560080E8
:102DA00083A606D26301D702144F91EE944B634A77
:102DB000D50041113A8506C6B935B24041016FF0E0
:102DC0002FC9898E94CB8280011122CC4EC606CEAB
:102DD00026CA4AC8AA89214473340430B7540080F3
:102DE000138504DD2188EF0020770DED3759008031
:102DF000B755008037450080938585849306E004AD
:102E00001306098313054576EFE0BF8A3755008026
:102E100013050586EFE0FF899305E0041305098398
:102E2000EFE01F8B138504DDEF00C07683C7D90068
:102E3000375900801309C91793F7070481CFCE854E
:102E400013054902EFF0BF8483C7D90093F7F7FB5E
:102E5000A386F90003258900330535411335150094
:102E6000EFF0FF96138504DDEF00A0700DEDB75471
:102E70000080B7550080374500809385858793068D
:102E800010061386048313054576EFE09F823755BD
:102E9000008013050589EFE0DF8193051006138597
:102EA0000483EFE0FF8273240430F2406244D24492
:102EB0004249B24905618280011122CC26CA2A8486
:102EC0004AC806CE4EC6AE843289FD3D8347D40043
:102ED00093E72700A306F400A9CCB757008083A787
:102EE00007D204C46318F402B7590080B7550080B4
:102EF00037450080938545B31305457693066027D3
:102F0000138689AEEFE0EFFA93056027138589AE4B
:102F1000EFE00FFC9C40638BF404A9CB0307E400B3
:102F20008386E700635FD702D8431CC058C000C344
:102F3000C0C3FD576303F904A94513059900EFD0F9
:102F40003F9013061500130584016244F240D244F9
:102F50004249B249B7350080938505B005616F00DD
:102F6000901CD4406384D7009C43DDFBDC4004C04C
:102F70005CC0DC4080C3C0C06DBFF2406244D2443C
:102F80004249B249056182804111B757008022C48D
:102F90002A8403A5471806C6053722852244B24075
:102FA00041016FD0EFA14111B757008022C42A849C
:102FB00003A5471826C2AE84B285368606C6ED3D07
:102FC0002285452B0DED37540080B75500803745DD
:102FD0000080938585879306800713060483130575
:102FE0004576EFE00FED3755008013050589EFE0DA
:102FF0004FEC9305800713050483EFE06FED224447
:10300000B2402685924441016FD08F9B01114AC87E
:103010004EC606CE22CC26CAAA8921497339093068
:10302000B7540080138504DD1379890035230DED35
:1030300037540080B75500803745008093858584DC
:103040009306E0041306048313054576EFE06FE66C
:103050003755008013050586EFE0AFE59305E004E2
:1030600013050483EFE0CFE6138504DD25234E85A9
:10307000EFF02FF52A84138504DDE5290DEDB7590E
:103080000080B7550080374500809385858793067B
:1030900010061386098313054576EFE08FE1375557
:1030A000008013050589EFE0CFE093051006138536
:1030B0000983EFE0EFE1732909304DCC21497339E1
:1030C0000930138504DD1379890079210DEDB75995
:1030D0000080B7550080374500809385858493062E
:1030E000E0041386098313054576EFE08FDC37553E
:1030F000008013050586EFE0CFDB9305E004138520
:103100000983EFE0EFDC138504DD692113058400FA
:10311000EFF06F96A285EFF08FD78347D400138529
:1031200004DDF59BA306F400A9210DEDB754008042
:10313000B755008037450080938585879306100634
:103140001386048313054576EFE0AFD6375500802C
:1031500013050589EFE0EFD5930510061385048369
:10316000EFE00FD7732909302324040013058401ED
:10317000EF00F0172285F2406244D2444249B2493E
:1031800005618280411126C24AC006C622C42A892E
:103190008144032409006303890001E8B24022440A
:1031A000268502499244410182802285EFF0EFD3C7
:1031B0002285EFF0AF88854469DD2285EFF0CFFFEF
:1031C000C9BFB75700809387C71713874702D8D363
:1031D00098D7814505456FF06F8EB757008003A5DE
:1031E00047188280011122CC26CA4AC806CE4EC694
:1031F0002A842E89B2840DEEB7590080B75500801D
:1032000037450080938585B593066004138689B49D
:1032100013054576EFE0EFC937550080130545B635
:10322000EFE02FC993056004138589B4EFE04FCA1E
:1032300063FE2403B7590080B755008037450080EE
:103240009385C5B793067004138689B41305457634
:10325000EFE02FC637550080130545B9EFE06FC585
:1032600093057004138589B4EFE08FC623242401ED
:1032700044C400C040C0F2406244D2444249B24912
:1032800005618280011126CA4EC606CE22CC4AC8EC
:10329000AA89A144F3B40430375400801305C4DD77
:1032A000A1885D2C0DED37590080B755008037455A
:1032B0000080938585849306E00413060983130533
:1032C0004576EFE00FBF3755008013050586EFE028
:1032D0004FBE9305E00413050983EFE06FBF1305AC
:1032E000C4DD4D2C4E85EFF07FD22A8915C583476A
:1032F000D500FD8B89E71C4D99E3EFF0EFEB23261A
:1033000009061305C4DD6244F2404249B249A6856C
:10331000D24405616FF0AF9503A7890083A7C90068
:10332000998FB337F000BA9723A4F900D9BFB757E4
:10333000008083A7C71701114AC84EC606CE22CC0B
:1033400026CA52C42A89AE8995CF8DCD37540080C4
:10335000B7550080374500809385C5BB9306C008EC
:10336000130684B413054576EFE0AFB4374500800B
:103370001305857EEFE0EFB39305C008130584B411
:10338000EFE00FB5214473340430B7540080138547
:10339000C4DD2188D1220DED375A0080B755008059
:1033A00037450080938585849306E00413060A83DD
:1033B00013054576EFE0EFAF37550080130505861E
:1033C000EFE02FAF9305E00413050A83EFE04FB061
:1033D0001385C4DDC12283278900B9CFFD172324BB
:1033E000F9001385C4DD71220DEDB7540080B75587
:1033F00000803745008093858587930610061386E5
:10340000048313054576EFE0CFAA375500801305F6
:103410000589EFE00FAA9305100613850483EFE0FA
:103420002FAB732404300145F2406244D244424938
:10343000B249224A05618280639609041385C4DD7E
:103440000D2A0DEDB7540080B75500803745008038
:1034500093858587930610061386048313054576A6
:10346000EFE02FA53755008013050589EFE06FA425
:103470009305100613850483EFE08FA573240430B1
:1034800041555DB7A2856244F240224ACE864A8603
:10349000B24942491385C4DDD24405616FF0BFB023
:1034A0008347D500FD8B89E7084D133515008280D1
:1034B00001458280B757008003A5C7173335A000A8
:1034C0008280B757008083A7471803C5C7000589C6
:1034D00082800111025322CC06CE1AC02A84EFD07A
:1034E0004FF5B757008083A74718F240BC573CD42C
:1034F0006244056182803C51411122C406C62A847F
:1035000091C382972285693F11CD2285EFF0DF8B31
:103510008347D400B24093E78700A306F400224417
:10352000410182808347D400898B81C72285EFE0E7
:103530001FE71C4CF1DF13058401552BD1BF230677
:10354000D500A306C5002307B500A3070500232C5B
:103550000500232E05008280084111C9B75700805D
:1035600083C707190D891D8D3335A000828005455D
:103570008280B75700809387C71703C747019C47CE
:10358000D98F18416316F700232005000545828076
:1035900001458280B75700809387C71703C747014B
:1035A0009C47D98F1CC18280011122CC4AC806CE0B
:1035B00026CA4EC62A89214473340430B754008089
:1035C000138504DE2188493F0DEDB7590080B755BA
:1035D000008037450080938585849306E004138638
:1035E000098313054576EFE0CF8C3755008013052E
:1035F0000586EFE00F8C9305E00413850983EFE067
:103600002F8D138504DE79378347D90013F74700E0
:1036100031EB138504DEB13F0DEDB7540080B75593
:1036200000803745008093858587930610061386B2
:10363000048313054576EFE0CF87375500801305E7
:103640000589EFE00F879305100613850483EFE0EB
:103650002F8873240430F2406244D2444249B24974
:1036600005618280ED9BA306F9004A85EFF05FE3D8
:1036700001C54A85EFF04FB4A2856244F240424949
:10368000B249138504DED24405616FE05FDE99E143
:103690006FF09FF1411122C42A842E852505A9458A
:1036A00006C6EFD0EF9913061500130584012244D6
:1036B000B240B7350080938505B04101ADA43971A2
:1036C00056D2B68AB756008083A6C61722DC26DA01
:1036D0004ED652D406DE4AD82A84AE89328A96441F
:1036E000A9C637590080B75500803745008093063A
:1036F000201B130609BF938505A81305457646CE02
:1037000042CC3ECA3AC8EFD0DFFA375500801305E5
:1037100045C0EFD01FFA9305201B130509BFEFD05A
:103720003FFBF2486248D2474247864602C2528671
:1037300036C0CE85D6862285EFF0BFD9FD57638689
:10374000F400A6852285EFF09FF42285F2506254A2
:10375000D2544259B259225A925A2161828001119F
:10376000B75700804AC83759008022CC26CA06CEF7
:10377000138447D5938447D5130949D5636F240132
:103780002684EFE0DFDBFD54636E24036244F240E5
:10379000D244424905616FF0EF8C5C543EC21C502C
:1037A0003EC05C488328C40103288401184854445F
:1037B00010444C400840EFF0DFD11C40E0CF130430
:1037C00004036DBF4C50638595000840EFF03FEC5B
:1037D0001304040355BF011122CC26CA06CE4AC8E1
:1037E000AA8402C621447334043068002188EFF0B3
:1037F000BFD60DED37590080B755008037450080A2
:10380000938585849306E0041306098313054576A2
:10381000EFD03FEA3755008013050586EFD07FE9EA
:103820009305E00413050983EFD09FEA6800EFF0E9
:103830007FD683C7C400858B8DCF37590080B7559D
:10384000008037450080938545C493069002130697
:10385000C9C213054576EFD0DFE537550080130563
:1038600085C7EFD01FE5930590021305C9C2EFD0BD
:103870003FE62685EFF03FC8A2856800EFE03FBF36
:10388000F2406244D244424905618280B7570080C9
:1038900083A747DE99E36FE04F99014582801C4181
:1038A00001CD37570080032707D16307E50089C79B
:1038B00098471445369798C758411CC3D8C323204E
:1038C0000500232205008280B757008083C707DFE9
:1038D000411106C622C426C27D5589E737050080FE
:1038E0001345F5FFB75700809387C7D08043630F18
:1038F000F40009CC0444EFF07FF9898C014563C7DB
:1039000004000044EFF09FF83305A440B75700804F
:1039100083A7C71881C763D3A7003E85B24022445E
:103920009244410182801C41797122D426D24ECE2C
:1039300006D64AD052CC56CA5AC85EC662C42A8439
:10394000AE89B2848DCF37590080B7550080374596
:103950000080938585CA9306D004130649C91305D0
:103960004576EFD01FD5374500801305857EEFD013
:103970005FD49305D004130549C9EFD07FD5232622
:103980003401634390008544A149F3B90930375AA3
:10399000008013058ADE93F98900EFF0FFBB0DED7F
:1039A00037590080B755008037450080938585845E
:1039B0009306E0041306098313054576EFD07FCF05
:1039C0003755008013050586EFD0BFCE9305E00480
:1039D00013050983EFD0DFCF13058ADEEFF09FBB1D
:1039E000EFF0DFEA2695B754008003A9C4D008C4DD
:1039F0009384C4D0630C9900B75A0080375B008071
:103A0000B74B0080374C008063190900DC4004C0CC
:103A10005CC0DC4080C3C0C091A88327890063D606
:103A2000070293058BCC9306600513864AC913855C
:103A30004B76EFD01FC813058C7EEFD09FC7930540
:103A4000600513854AC9EFD0BFC8032789001C440D
:103A500063D7E708B307F7402324F9008327490019
:103A6000232024015CC080C3232289009C406389F9
:103A700097006317F400EFF03FE58145EFD03FE694
:103A800013058ADEEFF0FFAE0DED37540080B75519
:103A900000803745008093858587930610061306BE
:103AA000048313054576EFD0DFC03755008013053A
:103AB0000589EFD01FC09305100613050483EFD0CE
:103AC0003FC1F3A90930B250225492540259F2492D
:103AD000624AD24A424BB24B224C45618280998F56
:103AE0001CC4DC40E38427F30329090031BF011122
:103AF00022CC4EC606CE26CA4AC8AA8921447334AF
:103B00000430B7540080138584DE2188EFF0DFA4F1
:103B10000DED37590080B7550080374500809385FB
:103B200085849306E0041306098313054576EFD0D8
:103B30005FB83755008013050586EFD09FB7930512
:103B4000E00413050983EFD0BFB8138584DEEFF0DE
:103B50007FA483A70900295989C74E85EFF03FD478
:103B60000149138584DEEFF0DFA00DEDB75400802E
:103B7000B7550080374500809385858793061006EA
:103B80001386048313054576EFD0BFB23755008006
:103B900013050589EFD0FFB1930510061385048343
:103BA000EFD01FB373240430F24062444A85D244FC
:103BB0004249B24905618280411122C406C626C22B
:103BC0004AC0214473340430B7540080138584DE26
:103BD0002188EFF07F980DED37590080B7550080B0
:103BE00037450080938585849306E0041306098396
:103BF00013054576EFD0FFAB3755008013050586DA
:103C0000EFD03FAB9305E00413050983EFD05FAC21
:103C1000138584DEEFF01F98EFF01FCB2A89138500
:103C200084DEEFF01F950DEDB7540080B75500808E
:103C30003745008093858587930610061386048395
:103C400013054576EFD0FFA637550080130505898B
:103C5000EFD03FA69305100613850483EFD05FA72E
:103C600073240430B24022444A85924402494101FF
:103C70008280011122CC4AC852C406CE26CA4EC642
:103C80002A892E8A214473340430B7540080138566
:103C900084DE2188EFF05F8C0DEDB7590080B755B9
:103CA000008037450080938585849306E004138661
:103CB000098313054576EFD0DF9F37550080130544
:103CC0000586EFD01F9F9305E00413850983EFD08D
:103CD0003FA0138584DEEFF0FF8BEFF0FFBE63594A
:103CE000A900854763D6A700D2854A85EFD03FBF9C
:103CF000138584DEEFF0FF870DEDB7540080B755D4
:103D000000803745008093858587930610061386CB
:103D1000048313054576EFD0DF99375500801305EE
:103D20000589EFD01F999305100613850483EFD002
:103D30003F9A73240430F2406244D2444249B2496B
:103D4000224A05618280797122D452CC06D626D2CD
:103D50004AD04ECE56CA5AC85EC662C466C26AC04F
:103D60002A8A2144EFF08F80733404303759008061
:103D7000130589DE2188EFF02FFE0DEDB75400808A
:103D8000B755008037450080938585849306E0040D
:103D90001386048313054576EFD0BF913755008015
:103DA00013050586EFD0FF909305E0041385048387
:103DB000EFD01F92B7590080130589DEEFF08FFD19
:103DC000B754008023A249DF375A0080938949DE27
:103DD000130ACAD0938484DAB75A0080B75B008094
:103DE000374B0080375C0080B75C0080032D0A00F1
:103DF00083A709009440C840630B4D0163090D007F
:103E000003278D0063D6E7081D8F2324ED00BE969F
:103E100013D7F7412A97B3B7F600BA9794C0DCC01E
:103E200023A00900EFF05FAA8145EFD05FAB130537
:103E300089DEEFF00FF40DEDB7540080B755008028
:103E40003745008093858587930610061386048383
:103E500013054576EFD0FF8537550080130505899A
:103E6000EFD03F859305100613850483EFD05F865E
:103E700073240430B250225492540259F249624AD7
:103E8000D24A424BB24B224C924C024D4561828049
:103E9000BA969355F741AA9533B6E6002E96998FB8
:103EA0006A8523240D0094C0D0C023A0F900EFF050
:103EB0001F9F130589DEEFF0CFEB0DE593858B8710
:103EC0009306100613860A8313054B76EFD06FFE18
:103ED00013050C89EFD0EFFD9305100613850A83B7
:103EE000EFD00FFF732404308327CD006A8521446F
:103EF000829773340430130589DE2188EFF0CFE513
:103F00001DE593858C849306E00413860A831305CC
:103F10004B76EFD00FFA3755008013050586EFD0AA
:103F20004FF99305E00413850A83EFD06FFA130568
:103F300089DEEFF02FE65DBD011126CA06CE22CC48
:103F40004AC84EC6A144F3B4043037590080130563
:103F500089DEA188EFF04FE00DED37540080B755B2
:103F6000008037450080938585849306E00413061E
:103F7000048313054576EFD0CFF337550080130542
:103F80000586EFD00FF39305E00413050483EFD00B
:103F90002FF4130589DEEFF0EFDFEFD01FA9B7573D
:103FA0000080938787DA83A90700C043AA9933B5B5
:103FB000A9002A94130589DEEFF0AFDB0DED375928
:103FC0000080B7550080374500809385858793062C
:103FD00010061306098313054576EFD08FED37558C
:103FE000008013050589EFD0CFEC9305100613056B
:103FF0000983EFD0EFEDF3A40430A285F2406244D0
:104000004E85D2444249B24905618280011122CCD9
:104010004AC852C406CE26CA4EC62A8A2E892144D0
:1040200073340430B75400801385C4DE2188EFF068
:10403000AFD20DEDB7590080B755008037450080ED
:10404000938585849306E0041386098313054576DA
:10405000EFD02FE63755008013050586EFD06FE5CA
:104060009305E00413850983EFD08FE61385C4DE42
:10407000EFF04FD283290A001385C4DE4E99232026
:104080002A01EFF00FCF0DEDB7540080B755008037
:104090003745008093858587930610061386048331
:1040A00013054576EFD0EFE03755008013050589FD
:1040B000EFD02FE09305100613850483EFD04FE176
:1040C00073240430F24062444E85D2444249B249DE
:0840D000224A05618280828012
:1040D80000000000DE0B008000000000DE0B008006
:1040E80000000000DE0B008000000000DE0B0080F6
:1040F80000000000DE0B008000000000DE0B0080E6
:1041080000000000DE0B008000000000AC170080FB
:1041180000000000DE0B008000000000DE0B0080C5
:1041280000000000DE0B008000000000DE0B0080B5
:1041380000000000DE0B008000000000DE0B0080A5
:1041480000000000DE0B008000000000DE0B008095
:1041580000000000DE0B008000000000DE0B008085
:1041680000000000DE0B008000000000DE0B008075
:1041780000000000DE0B008000000000DE0B008065
:1041880000000000DE0B008000000000DE0B008055
:1041980000000000DE0B008000000000DE0B008045
:1041A80000000000DE0B008000000000DE0B008035
:1041B80000000000DE0B008000000000DE0B008025
:1041C80000000000DE0B008000000000DE0B008015
:1041D80000000000DE0B008000000000DE0B008005
:1041E80000000000DE0B008000000000DE0B0080F5
:1041F80000000000DE0B008000000000DE0B0080E5
:1042080000000000DE0B008000000000DE0B0080D4
:1042180000000000DE0B008000000000DE0B0080C4
:10422800D8430080761700800000000024480080F2
:10423800AC180080000000001C480080941D00801D
:1042480000000000D8430080B41F00800000000078
:104258000001020203030303040404040404040425
:1042680005050505050505050505050505050505F6
:1042780006060606060606060606060606060606D6
:1042880006060606060606060606060606060606C6
:1042980007070707070707070707070707070707A6
:1042A8000707070707070707070707070707070796
:1042B8000707070707070707070707070707070786
:1042C8000707070707070707070707070707070776
:1042D8000808080808080808080808080808080856
:1042E8000808080808080808080808080808080846
:1042F8000808080808080808080808080808080836
:104308000808080808080808080808080808080825
:104318000808080808080808080808080808080815
:104328000808080808080808080808080808080805
:1043380008080808080808080808080808080808F5
:1043480008080808080808080808080808080808E5
:10435800746573745F6D706F6F6C5F74687265619C
:1043680064736166650000006D706F6F6C5F7468E0
:104378007265616473616665000000001C0B008053
:104388008C0B00808C0B0080100B00801C0B0080B5
:10439800780B0080820B00802C4400804C44008005
:1043A800684400807C44008088440080A0440080E9
:1043B800756E6B6E6F776E00457863657074696FA4
:1043C8006E20636175736520257320282564290A8A
:1043D80000000000ADBAADDEADBAADDEADBAADDEFF
:1043E800ADBAADDEADBAADDEADBAADDEADBAADDEFD
:1043F800ADBAADDEADBAADDEADBAADDEADBAADDEED
:10440800ADBAADDEADBAADDEADBAADDEADBAADDEDC
:10441800ADBAADDEADBAADDEADBAADDEADBAADDECC
:10442800ADBAADDE496E737472756374696F6E20D0
:1044380061646472657373206D6973616C69676E1A
:1044480065640000496E737472756374696F6E20D9
:10445800416363657373206661756C7400000000C6
:10446800496C6C6567616C20696E737472756374EE
:10447800696F6E00427265616B706F696E740000DF
:104488004C6F61642061646472657373206D697335
:10449800616C69676E6564004C6F61642061636379
:1044A800657373206661756C740000002A2A2A2AD5
:1044B800204B65726E656C20416C6C6F636174692A
:1044C8006F6E204661696C75726521202A2A2A2A36
:1044D8000A0000002A2A2A2A2A204B65726E656C77
:1044E800204F4F505321202A2A2A2A2A0A00000046
:1044F8002A2A2A2A2A204B65726E656C2050616E22
:10450800696321202A2A2A2A2A0A00002A2A2A2A12
:1045180020556E6B6E6F776E20466174616C204516
:1045280072726F7220256421202A2A2A2A0A000022
:1045380043757272656E742074687265616420498F
:1045480044203D2025700A4661756C74696E6720A9
:10455800696E737472756374696F6E2061646472D6
:10456800657373203D20307825780A202072613ADF
:104578002030782578202067703A203078257820F8
:104588002074703A2030782578202074303A203012
:104598007825780A202074313A2030782578202030
:1045A80074323A2030782578202074333A203078D5
:1045B8002578202074343A20307825780A20207411
:1045C800353A2030782578202074363A20307825FE
:1045D80078202061303A2030782578202061313ADF
:1045E80020307825780A202061323A2030782578E2
:1045F800202061333A2030782578202061343A2011
:1046080030782578202061353A20307825780A20BE
:104618002061363A2030782578202061373A2030DA
:104628007825780A000000004953520065737365C5
:104638006E7469616C2074687265616400000000C2
:10464800466174616C206661756C7420696E202502
:104658007321205370696E6E696E672E2E2E0A00C4
:10466800466174616C206661756C7420696E207493
:104678006872656164202570212041626F727469D7
:104688006E672E0A0000000053707572696F7573AB
:1046980020696E74657272757074206465746563E0
:1046A80074656421204952513A2025640A000000AB
:1046B8002E2F617263682F726973637633322F63AA
:1046C8006F72652F7468726561642E630000000064
:1046D800282828287072696F726974792929203D01
:1046E8003D203135202626207A5F69735F69646C26
:1046F800655F7468726561642828746872656164AE
:104708005F66756E63292929207C7C20282828313A
:1047180035202D203129203E3D2028282D313629CD
:1047280029292026262028287072696F72697479D1
:104738002929203E3D2028282D31362929202626C2
:104748002028287072696F726974792929203C3D84
:1047580020283135202D203129292900415353455E
:104768005254494F4E204641494C205B25735D20E9
:10477800402025733A25640A0000000009696E7616
:10478800616C6964207072696F7269747920282578
:1047980064293B20616C6C6F7765642072616E6779
:1047A800653A20256420746F2025640A0000000003
:1047B8002E2F6C69622F6F732F6D656D706F6F6C24
:1047C8002E630000626C6F636B5F66697473287098
:1047D8002C20626C6F636B2C206C737A29000000AC
:1047E800090A0000096F7574206F66206C6576658C
:1047F8006C730A002E2F6C69622F6F732F617373AD
:104808006572742E63000000402025733A25643ACF
:104818000A00000075617274300000007379735FDC
:10482800636C6F636B0000002E2F696E636C756498
:10483800652F7370696E6C6F636B2E6800000000E3
:104848007A5F7370696E5F6C6F636B5F76616C69BA
:1048580064286C2900000000095265637572736949
:104868007665207370696E6C6F636B0A00000000D8
:104878007A5F7370696E5F756E6C6F636B5F76617C
:104888006C6964286C290000094E6F74206D7920CA
:104898007370696E6C6F636B210A0000DC480080DE
:1048A800E4480080604900804641494C4544000086
:1048B80050524F4A45435420455845435554494F53
:1048C8004E2025730A000000535543434553534671
:1048D800554C000050415353000000004641494CDC
:1048E8000000000052756E6E696E672074657374FF
:1048F8002073756974652025730A00003D3D3D3DB0
:104908003D3D3D3D3D3D3D3D3D3D3D3D3D3D3D3DCF
:104918003D3D3D3D3D3D3D3D3D3D3D3D3D3D3D3DBF
:104928003D3D3D3D3D3D3D3D3D3D3D3D3D3D3D3DAF
:104938003D3D3D3D3D3D3D3D3D3D3D3D3D3D3D0AD2
:10494800000000007374617274696E672074657387
:1049580074202D2025730A00534B49500000000095
:104968002573202D2025730A0000000054657374F8
:10497800207375697465202573206661696C6564A8
:104988002E0A0000546573742073756974652025B8
:1049980073207375636365656465640A00000000CD
:1049A800901D00807C1D00800000000000000000B9
:1049B80000000000244D0080484D0080544D0080C8
:1049C800544D0080544D00802A2A2A2A2A20426FFA
:1049D8006F74696E67205A6570687972204F53202A
:1049E8007A65706879722D76312E31332E302D33F9
:1049F8003032312D6761336130643366613065343C
:104A080037202A2A2A2A2A0A000000006D61696EC6
:104A18000000000069646C65000000002E2F6B65C3
:104A2800726E656C2F6D656D706F6F6C2E63000014
:104A38002128285F6B65726E656C2E6E65737465D0
:104A48006420213D203055292026262074696D6573
:104A58006F757420213D2030290000002E2F6B65D2
:104A6800726E656C2F696E636C7564652F6B73630A
:104A78006865642E6800000021285F6B65726E65AA
:104A88006C2E6E657374656420213D2030552900B5
:104A98005F6B65726E656C2E63757272656E742DD0
:104AA8003E626173652E73636865645F6C6F636BE8
:104AB800656420213D2031005F6B65726E656C2E48
:104AC80063757272656E742D3E626173652E7363D1
:104AD8006865645F6C6F636B656420213D203000FE
:104AE8002E2F6B65726E656C2F73636865642E6319
:104AF800000000007468726561642D3E6261736530
:104B08002E70656E6465645F6F6E00005F6B657222
:104B18006E656C2E63757272656E7420213D202857
:104B280028766F6964202A29302900002169735F7B
:104B380069646C6528746872656164290000000006
:104B48002E2F6B65726E656C2F73656D2E6300007A
:104B58006C696D697420213D20305500096C696DC0
:104B680069742063616E6E6F74206265207A657265
:104B78006F0A0000696E697469616C5F636F756EB6
:104B880074203C3D206C696D6974000009636F7581
:104B98006E742063616E6E6F742062652067726543
:104BA80061746572207468616E206C696D69740A3D
:104BB800000000002828285F6B65726E656C2E6EF9
:104BC800657374656420213D20305529203D3D20C2
:104BD8003029207C7C202874696D656F7574203DB0
:104BE8003D203029290000002E2F6B65726E656C00
:104BF8002F7468726561642E63000000095468723E
:104C080065616473206D6179206E6F742062652020
:104C18006372656174656420696E20495352730A32
:104C2800000000002E2F6B65726E656C2F74687221
:104C38006561645F61626F72742E630028746872C4
:104C48006561642D3E626173652E757365725F6F71
:104C58007074696F6E73202620282831554C203CCB
:104C68003C20283029292929203D3D2030550000A5
:104C780009657373656E7469616C20746872656127
:104C8800642061626F727465640A00002E2F6B6580
:104C9800726E656C2F74696D656F75742E63000094
:104CA800217379735F646E6F64655F69735F6C69A4
:104CB8006E6B65642826746F2D3E6E6F64652900DF
:104CC800742D3E647469636B73203E3D2030000090
:104CD80058430080100900800E0900800E090080EA
:104CE80000000000000000000000000000000000BC
:104CF80000000000000000007C120080601B0080A3
:104D0800030000000C4D00800C4D0080544D0080C5
:0C4D1800704D0080F5FFFFFF9C500080F4
:104D24004C4200800000000000000000404200806F
:104D3400A849008000000000284200800000000014
:104D44000000000034420080000000000000000069
:104D5400F44D00801000000002000100344E008079
:104D6400010000000000000000000000144E00805C
:104D74001000000002000100404E0080010000000D
:084D8400000000000000000027
:104D8C008C4D00808C4D0080000000000000000065
:044D9C000F00000004
:040000058000000077
:00000001FF
