:0200000480007A
:100000009702000093820201739052306F10904566
:10001000130101FB2320110023223100232441007E
:100020002326510023286100232A7100232CC101BB
:10003000232ED1012320E1032322F1032324A10253
:100040002326B1022328C102232AD102232CE10254
:10005000232EF1022320010523221105F32210345F
:1000600023245104F322003023265104EF00001F03
:1000700013030000631E0502F3222034B70300803F
:100080009383F3FFB3F272001303B000638A62003C
:100090001305010097000000938040136F1010308B
:1000A0008322810493824200232451046F000009BB
:1000B00093020100978300009383038103A143000F
:1000C000130101FF2320510003AE0300130E1E0095
:1000D00023A0C30163080300970000009380C003BE
:1000E0006F10903473252034B70200809382F2FFA2
:1000F00033755500EF008015976200009382C21798
:1001000013153500B382A20003A5020003A3420029
:10011000E7000300177300001303037B832303002E
:100120009383F3FF232073008322010013810200D5
:1001300083238300032E030263087E089772000066
:100140009382827803A382002326830223289302CA
:10015000232A2303232C3303232E43032320530575
:10016000232263052324730523268305232893056F
:10017000232AA305232CB30523242302977300000D
:100180009383433C03AE03002326C30703A3020269
:1001900023A46200032183020324C30283240303F4
:1001A0000329430383298303032AC303832A030404
:1001B000032B4304832B8304032CC304832C0305E8
:1001C000032D4305832D830583228104739012340C
:1001D0008322C104739002308320010083214100F7
:1001E000032281008322C1000323010183234101F3
:1001F000032E8101832EC101032F0102832F4102AF
:10020000032581028325C1020326010383264103BE
:10021000032781038327C1030328010483284104A2
:100220001301010573002030730000009772000075
:100230009382826903A382008323C306137585001A
:10024000F3220530138503006780000013031000BC
:10025000B312A30073B3423467800000F32220344A
:1002600037030080B3F262001305000063840200CC
:08027000130515006780000072
:100278006300060293070002B387C740634CF0008F
:10028800130506FE1307000033D5A50093050700E4
:100298006780000033D7C5003355C500B395F50016
:1002A8003365B5006FF09FFE130101FD2322910213
:1002B80023286101232611022324810223202103FC
:1002C800232E3101232C4101232A510123267101B8
:1002D8002324810123229101130B05009384050037
:1002E800639C06381304060093090500176900008B
:1002F8001309091063F8C512B7070100938A0500AE
:100308006378F6109306F00FB3B6C60093963600DE
:10031800B357D6003309F90003470900B306D700DD
:10032800130700023307D740630C0700B394E400B7
:10033800B356DB003314E600B3EA9600B319EB00BA
:10034800135B040193050B0013850A00EF0040635B
:100358001309050093050B00931B040113850A007C
:10036800EF00805D93DB0B01930405009305050006
:1003780013850B00EF0080501319090113D70901E9
:100388003367E900138A0400637EA70033078700F8
:10039800138AF4FF636887006376A700138AE4FF73
:1003A80033078700B304A74093050B0013850400A7
:1003B800EF00005D1309050093050B001385040089
:1003C800EF008057939909019304050093050500F0
:1003D8001319090113850B0093D90901EF00004A8D
:1003E800B36939011386040063FCA900B309340119
:1003F8001386F4FF63E6890063F4A9001386E4FF1B
:1004080093170A01B3E7C700130A00006F0000132F
:10041800B707000193060001E36CF6EE930680012E
:100428006FF01FEF138A0600631A06009305000099
:1004380013051000EF00405013040500B707010032
:10044800637CF4129307F00F63F48700130A8000AB
:10045800B35744013309F900834609001306000223
:10046800B38646013306D64063120612B38484402D
:10047800130A1000135B040193050B001385040095
:10048800EF0000501309050093050B0013850400C5
:10049800931B0401EF00404A93DB0B019304050012
:1004A8009305050013850B00EF00403D1319090162
:1004B80013D709013367E900938A0400637EA70014
:1004C80033078700938AF4FF636887006376A70081
:1004D800938AE4FF33078700B304A74093050B0012
:1004E80013850400EF00C0491309050093050B00AC
:1004F80013850400EF004044939909019304050013
:10050800930505001319090113850B0093D90901F7
:10051800EF00C036B36939011386040063FCA900F3
:10052800B30934011386F4FF63E6890063F4A90074
:100538001386E4FF93970A01B3E7C7001385070002
:1005480093050A008320C102032481028324410207
:10055800032901028329C101032A8101832A410158
:10056800032B0101832BC100032C8100832C410044
:100578001301010367800000B7070001130A000197
:10058800E368F4EC130A80016FF09FEC3314C400A5
:1005980033DAD400B319CB00B356DB00135B040184
:1005A800B394C40093050B0013050A00B3EA960040
:1005B800EF00003D1309050093050B0013050A0021
:1005C800931B0401EF00403793DB0B0193040500F4
:1005D8009305050013850B00EF00402A1319090144
:1005E80013D70A013367E900138A0400637EA70062
:1005F80033078700138AF4FF636887006376A700D0
:10060800138AE4FF33078700B304A74093050B0060
:1006180013850400EF00C0361309050093050B008D
:1006280013850400EF00403193040500930505008D
:1006380013850B00EF00802493960A011319090112
:1006480093D60601B367D9001387040063FEA70099
:10065800B38787001387F4FF63E8870063F6A70072
:100668001387E4FFB3878700131A0A01B384A740EE
:10067800336AEA006FF01FE063ECD51EB70701008C
:1006880063F4F6049305F00F33B5D5001315350060
:1006980033D7A60097670000938787D5B387E7000D
:1006A80083C50700130A0002B385A500330ABA40C0
:1006B80063160A0293071000E3E296E83336CB008C
:1006C800934716006FF09FE7B70700011305000175
:1006D800E3E0F6FC130580016FF09FFBB35AB60008
:1006E800B3964601B3EADA0033D9B400B3974401AC
:1006F800B355BB0093DB0A01B3E4F5001305090009
:1007080093850B00B3194601EF00802713040500F9
:1007180093850B0013050900139C0A01EF00C02103
:10072800135C0C01130905009305050013050C0063
:10073800EF00C0141314040113D704013367E40055
:10074800930C0900637EA70033075701930CF9FF48
:10075800636857016376A700930CE9FF33075701D5
:100768003309A74093850B0013050900EF004021CA
:100778001304050093850B0013050900EF00C01B47
:10078800130905009305050013050C00EF00000F81
:10079800939704011314040193D707013367F400F6
:1007A80013060900637EA700330757011306F9FFF4
:1007B800636857016376A7001306E9FF33075701FB
:1007C80093970C01370E0100B3E7C7001308FEFF2B
:1007D80033F3070133F809013307A74093DE070114
:1007E80093D909011305030093050800EF000009D8
:1007F800930805009385090013050300EF0000081E
:10080800130305009305080013850E00EF00000789
:10081800130805009385090013850E00EF000006F4
:1008280093D6080133030301B386660063F4060117
:100838003305C50113D606013305A6006366A70272
:10084800E314A7BC370701001307F7FFB3F6E60068
:1008580093960601B3F8E80033164B01B3861601E8
:10086800130A0000E37CD6CC9387F7FF6FF0DFB95B
:10087800130A0000930700006FF05FCC1306050011
:100888001305000093F61500638406003305C500C0
:1008980093D5150013161600E39605FE6780000031
:1008A800130101FF1383060023261100130E050010
:1008B800930805009306060013070000930700003D
:1008C8001308000013F51600931E1700630C0500AB
:1008D8003385080133380501B387E700B307F8000B
:1008E8001308050013D7F80193D6160033E7EE0076
:1008F80093981800E39806FC638805001305060022
:10090800EFF0DFF7B387A700630A030013050E00B3
:1009180093050300EFF09FF6B307F5008320C100AD
:100928001305080093850700130101016780000083
:100938006340050663C60506138605009305050092
:100948001305F0FF630C060293061000637AB600E5
:100958006358C0001316160093961600E36AB6FE95
:100968001305000063E6C500B385C5403365D500AF
:1009780093D6160013561600E39606FE678000000D
:1009880093820000EFF05FFB13850500678002008B
:100998003305A04063D80500B305B0406FF0DFF918
:1009A800B305B04093820000EFF01FF93305A04073
:1009B800678002009382000063CA0500634C05004B
:1009C800EFF09FF71385050067800200B305B0407C
:1009D800E35805FE3305A040EFF01FF63305B0409D
:1009E8006780020067800000B77700809387876E72
:1009F80023A0070023A2070067800000B7770080C4
:100A08009387876E03A747001307170023A2E70001
:100A180067800000B77700809387876E03A7070079
:100A28001307170023A0E70067800000B77700804E
:100A38009387475A6306F506B77700809387075D63
:100A48006304F506B77700809387C75F6302F506EE
:100A5800B7770080938787626300F506B7770080D1
:100A680093874765631CF50293074000B7760080BB
:100A78009397270037770080938686A4B386F6007D
:100A8800130707753307F70083A606008327850237
:100A9800B387D74093B717002320F700678000007B
:100AA800930700006FF09FFC930710006FF01FFC86
:100AB800930720006FF09FFB930730006FF01FFB38
:100AC800130101FF23261100EF40903F6356A00257
:100AD8001306803E930600009355F541EFF05FDC66
:100AE8001306400693060000EFF00FFC8320C100B8
:100AF8001301010167800000130500006FF01FFF5C
:100B0800130101FD232E11002324010323261103C1
:100B180063160504138606003775008093060700E0
:100B280013870500B775008093078102938505A791
:100B38001305C5A92326F100EF10502A8325C1000B
:100B480037750080130585B1EF1050263775008082
:100B58001305C544EF109028EF2000198320C10128
:100B68001301010367800000130101FD23248102A2
:100B780023202103232C4101232A510137740080AB
:100B880037790080376A0080B77A00802322910283
:100B9800232E310123286101232671012326110206
:100BA800930400001304C4A5130989A4B77900802D
:100BB800130B0A00938B0A00B307940033079900BC
:100BC80083A7070003270700B77500809306501D09
:100BD80023A4E702138609A793878AB113078A5EBD
:100BE800938585A013051000EFF09FF193844400CE
:100BF80093074001E392F4FC930420031309C01205
:100C0800032504009385040013060000938424033D
:100C1800EF50C02113044400E39424FF1305C012CD
:100C2800EF305030377500801305455AEF50C02C0F
:100C3800377500801305055DEF50002C377500806F
:100C48001305C55FEF50402B37750080130585628B
:100C5800EF50802A3775008037740080130545658A
:100C680013040475EF504029930444013779008038
:100C78000325040093878BB113078B5E9306301E00
:100C8800138609A7930589A213044400EFF05FE7D0
:100C9800E39084FE8320C10203248102832441025D
:100CA800032901028329C101032A8101832A410101
:100CB800032B0101832BC10013010103678000008E
:100CC800130101FF23261100232481002322910010
:100CD80037740080EFF05FD11305447213060000EB
:100CE80093050000EF50001213060000930540061C
:100CF80013054472EF50801337C5000013050535FE
:100D0800EF40800213054472EFF09FDB9304050067
:100D180013054472EF50401E032481008320C10054
:100D280013B5340383244100B77700803767008008
:100D380037760080B7750080938787B113070760FF
:100D480093060020130606A79385058E130101015B
:100D58006FF01FDB130101FF2324810023261100FC
:100D680013040500EF50C021930710006302F50437
:100D780013050400EF50401813050400EF504020FD
:100D88001305F5FFB7770080376700803776008056
:100D9800B7650080938787B1130747509306B0045F
:100DA800130606A79385056813351500EFF05FD580
:100DB80013050400EFF0DFD09307100363E2A704E4
:100DC80013050400EF50401313050400EFF05FCF44
:100DD80013352503B77700803767008037760080A2
:100DE800B7650080938787B1130747509306D004EF
:100DF800130606A79385856A13451500EFF05FD0A3
:100E0800B777008003A7876E9307300063DCE7009D
:100E180013050400032481008320C100130101018C
:100E28006F50800D8320C10003248100130101014C
:100E380067800000130101FF23248100232611008D
:100E480013040500EFF0DFC763060504130504006B
:100E5800EF50800A13050400EFF09FC603248100B9
:100E68008320C100B777008037670080377600801D
:100E7800B7650080938787B1130747519306C0056C
:100E8800130606A79385456D133515001301010157
:100E98006FF01FC78320C1000324810013010101E3
:100EA80067800000130101FF23261100232481001D
:100EB800EFF09FB33774008037160080B7150080B5
:100EC8001306C6E39385C5D513054472EF409073A6
:100ED800130544721306200393054006EF4010756E
:100EE80013054472EF50C0096300050413054472EA
:100EF800EF50800013054472EF508008B7770080E8
:100F08003767008037760080B7750080938787B190
:100F1800130747589306F011130606A79385859083
:100F280013351500EFF0DFBD13054472EFF05FB91C
:100F38009307100363E2A70413054472EF40D07BC4
:100F480013054472EFF0DFB713352503B777008038
:100F58003767008037760080B7750080938787B140
:100F68001307475893061012130606A7938545934F
:100F780013451500EFF0DFB8130544720324810010
:100F88008320C100130101016F401077130101FF95
:100F98002326110023248100EFF01FA53774008059
:100FA800130600009305000013054472EF40906596
:100FB800130620039305400613054472EF4010679B
:100FC8003735040013058523EF3010561305447296
:100FD800EF40107B930740006302F5041305447249
:100FE800EF40907113054472EF4090791305C5FFE7
:100FF800B77700803767008037760080B775008044
:10100800938787B11307C7599306E013130606A7FA
:101018009385859613351500EFF09FAE130544723E
:10102800032481008320C100130101016F40D06CAB
:10103800130101FD23261102232481022322910298
:1010480023202103232E3101232C4101232A51017E
:101058002328610123267101232481012322910180
:101068002320A101EFF05F983774008037160080C5
:10107800B7250080130646A093858584130544721E
:10108800EF40505813062003930540061305447299
:10109800EF40D05993040000B77A00803769008088
:1010A800B7790080377A0080B77B0080130B100077
:1010B800377C0080B77C008083A78A6E138D8A6E88
:1010C8006388970213054472EF40106303250D00EF
:1010D800938789B11307C95B330595409306C015FB
:1010E80013060AA793854B9913351500EFF05FA1F6
:1010F80013054472EF405077630A65031305447281
:10110800EF40905F13054472EF4010761305F5FF2A
:10111800938789B11307C95B9306E01513060AA7DD
:1011280093054C9B13351500EFF09F9D83270D0009
:10113800938414006388970213054472EF40D05BD0
:1011480003250D00938789B11307C95B33059540C3
:101158009306001613060AA793850C9E13351500EF
:10116800EFF01F9A93074000E398F4F413054472D4
:10117800032481028320C10283244102032901023E
:101188008329C101032A8101832A4101032B01011B
:10119800832BC100032C8100832C4100032D010007
:1011A800130101036F405055130101FF232611005D
:1011B80023248100232291002320210137740080F9
:1011C800EFF09F821306200393054006130584570A
:1011D800EF40D045B7740080EF40D0361389846E55
:1011E8002324A90037F50400130585582326B900E0
:1011F800EF30903303270900930740009384846EEF
:101208006300F70413058457EF40104F03A504004B
:10121800B7770080376700801305C5FF37760080F1
:10122800B7750080938787B11307475D9306F0175A
:10123800130606A79385858213351500EFF05F8C9A
:1012480003A74400930710006300F70413058457AD
:10125800EF40904A03A54400B777008037670080C5
:101268001305F5FF37760080B7750080938787B13F
:101278001307475D93060018130606A79385858410
:1012880013351500EFF0DF8713058457EF40D0467C
:10129800EFF08FF5130620039305400613058457D6
:1012A800EF40D03837C5000013050535EF30D0279B
:1012B800130620039305400613058457EF401037A3
:1012C800EF40502823A4A40037F5040013058558DF
:1012D80023A6B400EF30502503A70400930740006D
:1012E8006300F70413058457EF40104103A5040079
:1012F800B7770080376700801305C5FF3776008011
:10130800B7750080938787B11307475D9306301937
:10131800130606A79385858213351500EFF04FFE57
:1013280003A74400930710006300F70413058457CC
:10133800EF40903C03A54400B777008037670080F2
:101348001305F5FF37760080B7750080938787B15E
:101358001307475D93064019130606A793858584EE
:1013680013351500EFF0CFF91305845703248100D6
:101378008320C100832441000329010013010101D6
:101388006F409037130101FF2326110023248100A9
:1013980023229100EFF04FE5377400803716008064
:1013A800130646A09305000013054472EF409025EC
:1013B800130620039305400613054472EF401027D7
:1013C80037F5040013058558EF30101613054472DD
:1013D800B7740080EF40503283A7846E9384846E84
:1013E800638E070213054472EF40103103A5040011
:1013F800B77700803767008037760080B775008040
:10140800938787B1130707559306F00B130606A7B2
:101418009385858013351500EFF08FEE03A7440000
:10142800930710006300F70413054472EF40D02CB3
:1014380003A54400B7770080376700801305F5FFE0
:1014480037760080B7750080938787B113070755F3
:101458009306100C130606A793858584133515008B
:10146800EFF00FEA13054472032481008320C100C2
:1014780083244100130101016F401028130101FF6B
:1014880023261100232481002322910023202101F7
:10149800EFF08FD537740080B71500801306000071
:1014A8009385C5A113054472EF40D01513060000BB
:1014B8009305400613054472EF405017B774008037
:1014C800EF4050081389846E2324A9003795010042
:1014D800130585A82326B900EF3010050327090056
:1014E800930710009384846E6300F7041305447215
:1014F800EF40902003A50400B7770080376700808D
:101508001305F5FF37760080B7750080938787B19C
:101518001307C7539306F009130606A79385858614
:1015280013351500EFF0CFDD83A74400638E070263
:1015380013054472EF40501C03A54400B7770080A0
:101548003767008037760080B7750080938787B14A
:101558001307C7539306000A130606A793858588C1
:1015680013351500EFF0CFD9130544720324810019
:101578008320C100832441000329010013010101D4
:101588006F409017130101FF2326110023248100C7
:101598002322910023202101EFF00FC5377400802A
:1015A80037160080B7250080130646A093858584EA
:1015B80013054472EF4010051306200393054006F7
:1015C80013054472EF409006B7740080EF408077AF
:1015D8001389846E2324A90037F504001305855860
:1015E8002326B900EF304074032709009307400011
:1015F8009384846E6300F70413054472EF40D00FA0
:1016080003A50400B7770080376700801305C5FF7E
:1016180037760080B7750080938787B11307075224
:101628009306F007130606A79385858213351500E0
:10163800EFF00FCD03A74400930710006300F704F1
:1016480013054472EF40500B03A54400B7770080A0
:10165800376700801305F5FF37760080B77500807F
:10166800938787B11307075293060008130606A746
:101678009385858413351500EFF08FC813054472E0
:10168800032481008320C100832441000329010031
:10169800130101016F405006130101FD232481024B
:1016A800377400801305846F13060000930500004B
:1016B800232611022322910223202103232E310104
:1016C800232C4101232A510123286101232671017A
:1016D8002324810123229101EF40C07213061000D8
:1016E800930500001305846FEF4040741305846F61
:1016F800EF4090171305846FEF4010003774008097
:10170800EFF08FAE13060000930500001305447236
:10171800EF40406F13062003930500001305447241
:10172800EF40C07013054472EF401014EF40806121
:10173800B77400809387846E23A4A70023A6B700FC
:10174800130940009384846E93091000B76A0080DF
:10175800377B0080B77B0080377C0080130AE0FC71
:10176800B77C008013054472EF401010630A3503FC
:1017780013054472EF40407813054472EF40D00ED1
:101788001305F5FF93078BB11387CA569306C00F4D
:1017980013860BA793054C9B13351500EFF04FB636
:1017A800EF40405A83A7840003A7C40023A4A400E1
:1017B800B307FA40B336FA001347F7FF3307D740A9
:1017C800B307F50023A6B40033B5A700B385E50039
:1017D8003305B5006314050063F4F9021305447278
:1017E800EF40807193078BB11387CA569306301068
:1017F80013860BA793858C8A13050000EFF04FB072
:101808001309F9FFE31009F6130544720324810252
:101818008320C10283244102032901028329C101D3
:10182800032A8101832A4101032B0101832BC10073
:10183800032C8100832C4100130101036F40C06B0E
:10184800130101FF23248100377400801307846E7D
:10185800832707002322910023261100938717006E
:101868002320F70013071000930405001304846E67
:10187800639AE70CEF40004D032784008327C400D8
:101888002324A4003307E540B336E500B387F540C9
:10189800B387D7402326B400634EF006639607004B
:1018A8009307300663E8E70613850400EF40C06439
:1018B800EF404049832684008327C4002324A400E2
:1018C800B306D5403337D500B387F540B387E74033
:1018D8002326B4003767008013051000634AF00020
:1018E800639607009307300663E4D70013050000EA
:1018F800B777008037760080B7650080938787B117
:101908001307474F93063003130606A79385C5614F
:10191800EFF00F9FEF400043032704002324A400A7
:101928002326B4009307300063DEE70A032481000E
:101938008320C100138504008324410013010101A1
:101948006F40805BEF400040032784008327C4007A
:101958002324A4003307E540B336E500B387F540F8
:10196800B387D7402326B400E346F0FA639607000E
:1019780093071003E3E0E7FA13850400EF40C0572C
:10198800EF40403C832684008327C4002324A4001E
:10199800B306D5403337D500B387F540B387E74062
:1019A8002326B4003767008013051000634AF0004F
:1019B800639607009307100363E4D700130500003C
:1019C800B777008037760080B7650080938787B146
:1019D8001307474F93065003130606A7938505651B
:1019E8006FF01FF38320C10003248100832441008A
:1019F8001301010167800000B7750080376500801A
:101A0800938505451305C57F6F100031130101FF4C
:101A18002326110023248100930760006304F50244
:101A2800EF30402E63040502EF30C02D6316050425
:101A3800B7750080938545D737750080130585D81D
:101A4800EF00D039EF0090406FF0DFFFEF30802CCF
:101A5800E31C05FC378400801304448C8325840030
:101A680037750080130585DAEF00503703258400A9
:101A7800EF30C0766FF01FFDB7750080938505D7EE
:101A88006FF09FFB130101FB23248104232291049F
:101A980023261104930760009304050013840500AE
:101AA80063E0A70E3777008093172500130747AC2C
:101AB800B387E70083A707006780070037750080B2
:101AC800130545BFEF009031EF20D0698327440408
:101AD800832804010328C4002328F102832704046F
:101AE80003274400832604002326F1028327C40326
:101AF80003268404930505002324F1028327840325
:101B080037750080130585C72322F1028327440314
:101B18002320F10283270403232EF1008327C40224
:101B2800232CF10083278402232AF100832744020F
:101B38002328F100832704022326F1008327C40108
:101B48002324F100832784012322F1008327440101
:101B58002320F10083278400EF0050289305040018
:101B680013850400EFF09FEA377500801305C5C19F
:101B78006FF05FF537750080130585C36FF09FF42C
:101B88003775008093850400130545C5EF001025BF
:101B98006FF09FF3130101FF232481002326110016
:101BA8001304050073262034131616001356160066
:101BB8009307500063E8C702377700809317260021
:101BC800130707AEB307F70083A507003775008032
:101BD800130505B0EF0090209305040013050000DD
:101BE800EFF05FEAB7750080938585AF6FF01FFE51
:101BF800130101FF23261100F325203437750080D7
:101C08009395150093D51500130505DDEF00101DFC
:101C1800B77500809385C5B113054000EFF09FE6C6
:101C2800B77700809387876A03A70700630C0700CC
:101C380003A3070023A00700B777008003A5C76A9E
:101C48006700030067800000130101FF23261100CD
:101C5800EF10C047EF009021EF10004E1761000011
:101C68001301C148B712000093820280330151006A
:101C7800EFF09FFD6F00C02F130101FD23248102A7
:101C88002322910223202103232E3101232C4101F9
:101C9800232A51012328610123267101138B070090
:101CA80023261102232481019307F00093040500E1
:101CB8001384050093090600138A0600930B070096
:101CC800930A080013890800639AF808B737008058
:101CD8009387C709639AF6088326010393050900C9
:101CE8001385040013064000EF300015938509FBA7
:101CF800B305B400B727000023AE040423A00406EC
:101D080093F505FF9387078823A6F504B727008076
:101D18008320C102032481029387C7C723A44503F4
:101D280023A6750323A8650323AA550323A4F50452
:101D380023A4B40203290102832441028329C10197
:101D4800032A8101832A4101032B0101832BC1004E
:101D5800032C8100130101036780000093860801AA
:101D68009307E001E3FAD7F6377C0080B775008067
:101D78003775008013068CDF93068001938585E113
:101D8800130545EAEF0090053775008093050900B3
:101D9800930600FF1306E000130545ECEF0010045E
:101DA8009305800113058CDFEF0010076FF0DFF259
:101DB80093971500B387B700139727008327C500AB
:101DC800B387E7000307B5006354B70083A707008C
:101DD8001357F6411377F7013307C70013575740D6
:101DE80013172700B387E70023A0F6001375F60141
:101DF80067800000130101FE9306C100232E110025
:101E0800EFF01FFB0327C100930710003395A700CD
:101E1800832707008320C101B3E7A7002320F70029
:101E28001301010267800000130101FE232A9100BB
:101E380083244500232C81001304050003558500E5
:101E480093850400232821012326310123244101FD
:101E58002322510123206101232E1100EFE01FA24C
:101E680083290400834AA4009307F0FF130A05009E
:101E7800B389A900A305F40013090000130BF001AE
:101E8800634C5903930400008357840063CCF4081F
:101E98008320C10103248101832441010329010115
:101EA8008329C100032A8100832A4100032B0100F2
:101EB80013010102678000009385040013050A00DE
:101EC800EFE09FA71317190033072701931727007F
:101ED8000327C4003307F700930747002322F700BE
:101EE8002324F700634EAB00A305240193D42400F8
:101EF8009384340093F4C4FF130919006FF05FF85A
:101F08001305F5019357F54193F7F701B387A70038
:101F180093D757409397270023203701B389F900B7
:101F28006FF0DFFC8325440013850400EFE01F9564
:101F38008327040013860400930500003385A70057
:101F48008327C40093841400138747002320E500E7
:101F580003A787002322E50003A787002320A70003
:101F680023A4A70013050400EFF0DFE86FF0DFF10A
:101F7800130101FF9307050013850500930506006B
:101F88001386060023261100E7800700EF20901D26
:101F9800EF30C0241305000067800000130101FF23
:101FA800232481001304050013055004232611007F
:101FB8002322910093840500E70004009385040020
:101FC80013052005E700040013030400032481001F
:101FD8008320C10093850400832441001305200554
:101FE800130101016700030083A705009387170009
:101FF80023A0F500B777008003A3C752670003004A
:10200800130101FC232C81022326310323244103DD
:10201800232061032328A101232E1102232A9102E0
:102028002328210323225103232E7101232C81010C
:10203800232A91012326B10193090500138A05007B
:10204800130D0600138B0600130410006354E00000
:102058001304070093071000930C00026314FB009D
:10206800930C0003B7D49A3B13091000930AA000FD
:10207800130C00009384F49F930D2000938B14009D
:1020880063140C0063F2A40B93850B0013050D0079
:10209800EFE09F8A93050A0013050503E78009000E
:1020A80013091900130C100093850B0013050D007C
:1020B800EFE01F8D130D05009305A00013850400A4
:1020C800EFE09F87938AFAFF9307100093040500B7
:1020D800E396FAFA93050A0013050D03E780090051
:1020E80093073000330424416306FB068320C103B1
:1020F8000324810383244103032901038329C102A3
:10210800032A8102832A4102032B0102832BC10186
:10211800032C8101832C4101032D0101832DC10072
:102128001301010467800000E34054F9E3EE6DF702
:1021380093050A0013850C00E780090013091900AC
:102148006FF09FF693050A0013050002E780090067
:102158001304F4FFE34880FE6FF05FF9B77700805F
:1021680023A6A75267800000130101FB23248104E2
:102178002322910423202105232E3103232C4103FC
:10218800232A5103232291032320A103232EB101E3
:1021980023261104232861032326710323248103A2
:1021A8001304050093840500930A0600138D0600A6
:1021B800130A00001309F0FF93090000930C0000B4
:1021C800B70D008003C50A00631005048320C1040D
:1021D8000324810483244104032901048329C103BE
:1021E800032A8103832A4103032B0103832BC102A2
:1021F800032C8102832C4102032D0102832DC1018E
:102208001301010567800000639E0C0093065002CD
:10221800630CD53693850400E7000400938A1A00FE
:102228006FF05FFA930640066300D51263E2A606D4
:102238009306900363EAA602930610036374D50E0F
:102248009306D002630CD534930700036300F50CA2
:10225800130750026312E502938504001305500228
:10226800E70004006F000016930680056300D51C84
:10227800130730066300E530938504001305500208
:10228800E70004009385040003C50A006FF05FFDB2
:1022980093060007630CD51663E0A6029306900622
:1022A8006304D50A9306C006630CD5089306800616
:1022B800E306D5F66FF05FFC930650076308D51068
:1022C80063EEA60213073007E318E5FA032C0D00A6
:1022D800130B4D00930B0C0003C50B00631A052666
:1022E800930730006398F900B38B8B41B30B7941A6
:1022F80063487027130D0B006F00C00C930680070E
:102308006306D5129306A0076FF09FFA635E090073
:10231800638A0928130905FDE39209F0930920004F
:102328006FF0DFEFE34809FE931629003389260191
:1023380013191900130909FD330925016FF0DFFD91
:10234800130A1A006FF09FED63120A0403260D00AA
:10235800130D4D0063500602938504001305D00247
:102368002320C100E7000400032601001309F9FF38
:102378003306C040130709009386090093850400BB
:1023880013050400EFF0DFC76F00C0031307100048
:10239800E30EEAFA93077D0013F787FF0326070089
:1023A80083264700130D87003307B6013337C7006C
:1023B8003307D700E30007FA9385040013050400E8
:1023C800EFF0DFBD930C00006FF05FE563180A00C3
:1023D80003260D00130D4D006FF0DFF913071000F1
:1023E800E308EAFE93077D0013F787FF130D8700C4
:1023F8000326070003274700E31007FCB707008000
:1024080093C7F7FFE3F8C7F66FF01FFB9385040047
:1024180013050003E70004009385040013058007F3
:10242800E7000400130980009309100093061000C8
:1024380063C2460B83270D0023240100130D4D00B2
:102448002322F100130C0001930B0000232001004C
:10245800930800010325410083258100138BF8FFB1
:1024680013162B0023261101EFD09FE01375F500FA
:102478006318050883270100930600036398070083
:102488008328C100930710006396F8083385A600D7
:10249800131585019385040013558541E700040051
:1024A800938B1B0063180B0493063000930C0000F9
:1024B800E396D9D613171900B30B7741E35470F19B
:1024C8009385040013050002E7000400938BFBFFCB
:1024D8006FF0DFFE93077D0093F687FF83A7060062
:1024E800138D86002322F10083A746002324F100E0
:1024F8006FF05FF52320910193080B006FF09FF5B3
:102508009307900093067005E3E2A7F8930600038B
:102518006FF0DFF79307FCFF2326F100634C890176
:1025280093071000639CF9009385040013050003CA
:10253800E7000400032CC1006FF01FFC9307200084
:10254800E39AF9FE93850400130500026FF05FFE1D
:1025580093850400938B1B00E70004006FF0DFD71E
:102568009385040013050002E7000400938BFBFF2A
:102578006FF01FD803250D0093850400130B4D0041
:10258800E70004006FF01FD7130A00001309F0FFDB
:1025980093090000930C10006FF05FC89309300096
:1025A8006FF0DFC7930910006FF05FC7130101FEDA
:1025B800130605003725008093860500130505FFDF
:1025C8009305C100232E110023260100EFF0DFB987
:1025D8008320C1011301010267800000130101FC7F
:1025E8002322B10293054102232E11002324C102A4
:1025F8002326D1022328E102232AF102232C0103F6
:10260800232E11032326B100EFF05FFA8320C101C6
:102618001301010467800000B775008037750080DA
:10262800130101FF938585EF1305C5F01306E0013B
:1026380023261100EFF09FFAB77500809385C5B186
:1026480013056000EFF00FC4678000009307800057
:10265800F3A707307300501067800000930710003D
:102668003395A700732545306780000093078000E5
:10267800F3B7073073504030735040346780000020
:10268800130101FF23248100232291003774008065
:10269800232611009307A000930405001304046B7C
:1026A800631CF500032504009305D000832745002B
:1026B80083A74700E78007000325040093F5F40F7C
:1026C8008327450083A74700E78007008320C100D0
:1026D80003248100138504008324410013010101B0
:1026E80067800000130101FF232481003724008044
:1026F8001305846823261100EF00805513058468AC
:10270800032481008320C100130101016FF01FA57C
:1027180037750080130101FF130585F12326110089
:10272800EF00900DB777008023A8A76AEFF09FFB12
:102738008320C10013050000130101016780000018
:10274800B70710F003A747F403A507F483A547F4D8
:10275800E39AE5FE67800000130101FE232C810047
:10276800232E1100232A9100232821012326310139
:1027780023244101232251011304800073340430BF
:10278800377900801305496B13748400EF20806C3F
:10279800631E0502B7740080B77500803775008026
:1027A800938545F49306E0041386C4F2130545EABD
:1027B800EFF0DFE2377500801305C5F5EFF01FE293
:1027C8009305E0041385C4F2EFF01FE51305496B88
:1027D800B7740080EF20806D93848469EFF05FF612
:1027E80083A9040083AA44009307050033053541F3
:1027F800B3B7A700B385554137D601001306064C79
:1028080093060000B385F540EFD01FAA130A050010
:10281800B7D501009385054C13050A00EFE00F8634
:10282800B309350133B5A9003305550123A2A40026
:102838001305496B23A03401EF204064631E050291
:10284800B7740080B775008037750080938545F7A9
:10285800930610061386C4F2130545EAEFF01FD855
:10286800377500801305C5F8EFF05FD7930510069C
:102878001385C4F2EFF05FDA732404300324810176
:102888008320C10183244101032901018329C10057
:10289800832A410013050A00032A8100130101025B
:1028A8006F30C012130101FF23261100EFF05FE91A
:1028B800B7D701009387074C370710F0B307F50027
:1028C8009306F0FF2326D7F433B5A7003305B500E8
:1028D8002324F7F42326A7F413057000EFF01FD87C
:1028E8008320C10013050000130101016780000067
:1028F8006392051A130101FE232E1100232C810077
:10290800232A910023282101232631012324410170
:1029180023225101232061019307F0FF6316F5007C
:10292800379500001305E5BCB79700001304F5FFC1
:102938009387E7BC63DA87141384070013098000C0
:1029480073390930B77A008013854A6B1379890087
:10295800EF204050631E0502B7740080B7750080F1
:1029680037750080938545F49306E0041386C4F216
:10297800130545EAEFF09FC6377500801305C5F5C6
:10298800EFF0DFC59305E0041385C4F2EFF0DFC86C
:1029980013854A6BEF208051EFF09FDAB7770080FC
:1029A80093878769B7D4010083A90700130A050034
:1029B8009385044C1305040003AB4700EFD01FECCC
:1029C8009387F44BB38737413305F5009385044C5F
:1029D8003305AA00EFD05FF69385044CEFD01FEAC9
:1029E800338A4941330AAA009307703E63C64701F8
:1029F8009384044C33059500B70710F0B3093501EB
:102A08001307F0FF23A6E7F433B5A90033056501E2
:102A180023A437F523A6A7F413854A6BEF200046B5
:102A2800631E050237740080B77500803775008013
:102A3800938545F7930610061306C4F2130545EA75
:102A4800EFF0DFB9377500801305C5F8EFF01FB94F
:102A5800930510061305C4F2EFF01FBC7329093063
:102A68008320C10103248101832441010329010139
:102A78008329C100032A8100832A4100032B010016
:102A88001301010267800000E35A04EA13040000FE
:102A98006FF0DFEA67800000130101FF2324810043
:102AA80023261100232291002320210113048000F2
:102AB80073340430B77400801385446B1374840036
:102AC800EF204039631E050237790080B775008012
:102AD80037750080938545F49306E0041306C9F220
:102AE800130545EAEFF09FAF377500801305C5F56C
:102AF800EFF0DFAE9305E0041305C9F2EFF0DFB1A4
:102B08001385446BEF20803AEFF09FC3B7770080BE
:102B180083A78769B7D501009385054C3305F54030
:102B2800EFD09FE1130905001385446BEF200035B2
:102B3800631E0502B7740080B77500803775008082
:102B4800938545F7930610061386C4F2130545EAE4
:102B5800EFF0DFA8377500801305C5F8EFF01FA860
:102B6800930510061385C4F2EFF01FAB73240430ED
:102B78008320C10003248100130509008324410038
:102B8800032901001301010167800000130101FFFF
:102B980023261100EFF0DFBA8320C10013010101E1
:102BA800678000008347050003C705006394E700BA
:102BB800639607003385E74067800000130515001A
:102BC800938515006FF01FFE93F6F50F9307050028
:102BD80013F737006314070493F5F50F139785006F
:102BE800B365B70013970501B365B7003383C70012
:102BF8001387070013083000B308E340636A18031B
:102C08001357260093152700B387B7003306B6403D
:102C18003386C7006394C70267800000E30E06FE90
:102C280093871700A38FD7FE1306F6FF6FF05FFA9E
:102C380013074700232EB7FE6FF01FFC938717007A
:102C4800A38FD7FE6FF01FFD1305F0FF678000000C
:102C5800B777008023A8A75267800000130101FE00
:102C6800232C81008327850037740080232A910054
:102C780013044453B7740080232E11002328210124
:102C8800232631019384846B9309100023200400C8
:102C98001309050023A03401E780070083274900B2
:102CA80023203401E7800700930720002320F40045
:102CB8008327C900E7800700930730002320F4002A
:102CC8000324810123A004008320C101832441013E
:102CD800032901018329C100377500801305457652
:102CE800130101026F10505537750080130101FF61
:102CF800B77700801307F0FF1305457623261100E8
:102D080023ACE76AEF105053EF10D0458320C10081
:102D1800130101016F20804C130101FA232A910449
:102D2800B774008083A7C46B232E1104232C81045D
:102D38002328210523263105232441052322510573
:102D480023206105232E7103232C8103232A910359
:102D58002328A1032326B10363C40708377400801E
:102D68001306100093090500138C0500130544761B
:102D780093050000EF10D03F377500809385090058
:102D8800130585FEEFF09F8537790080130509004C
:102D9800B77A0080EFF09F849384C46B130A000015
:102DA800232E8100B78C0080377B0080373D008060
:102DB800B77D0080B77B0080938A0AFA83274C008E
:102DC800639E07049385090063060A10377500801F
:102DD80013050507EFF09F809307100023A0F40068
:102DE8008320C105032481058324410503290105A6
:102DF8008329C104032A8104832A4104032B010483
:102E0800832BC103032C8103832C4103032D01036E
:102E1800832DC102130101066780000083250C0081
:102E2800B777008013858704EFF04FFB232201005A
:102E380083270C0113070C001306004093E7870053
:102E48009308F0FF1308000093064DC62320F100F5
:102E580093850C8F9307000013054B77EF20C01D57
:102E68008327C1019305F0FF13854776EF10104BB8
:102E780093878D6B13054B7703A40700EF2000366B
:102E8800B77700809387876B03A7070013041400A4
:102E98009307E0FF1334140003260C006314F702B1
:102EA800B77500809385C50513854B06EFF00FF3C2
:102EB80013050900EFF08FF2330A8A00130C4C0156
:102EC8006FF0DFEF93172400B387FA0083A507009C
:102ED8006FF09FFD3775008013058508EFF00FF040
:102EE80083A70400B337F0006FF05FEFB777008077
:102EF80083A7C76B130101FF232481003775008066
:102F08002326110037740080130505006382070229
:102F1800EFF0CFECB77500809385C5FA130544FB35
:102F2800032481008320C100130101016FF00FEB1E
:102F3800EFF0CFEAB77500809385C5FC6FF01FFEF0
:102F4800130101FF23261100EFE01FAB8320C1000E
:102F5800130101016FF09FF9130101FF23260100FE
:102F68008327C100938717002326F100B70701F0D4
:102F780023A0B70013010101678000001305F0FFCB
:102F88006780000013050000678000001317250004
:102F9800B7770080130515009387870B1315250055
:102FA800130101FF3387E700B387A70023248100BB
:102FB800232291000324070083A40700232611007D
:102FC800636C94008320C1000324810083244100A2
:102FD8001301010167800000832704001305040022
:102FE80083A74700E7800700630405002322040045
:102FF8001304C4006FF0DFFC130101FFB7770080F2
:1030080023229100B7740080232481002326110015
:1030180013848754232021019387875493848457EA
:10302800631C9400130905001384070063149402B9
:10303800130400006F0040040327440063080700DE
:1030480003270400032707006308A7021304C4002A
:103058006FF01FFD83274400639607001304C40024
:103068006FF0DFFC832704001305090083A5070020
:10307800EFF05FB3E31405FE130504008320C100DD
:103088000324810083244100032901001301010165
:1030980067800000130101FF23248100232291008F
:1030A800232611001304800093042000F337043012
:1030B800EF20C07363C4A40013051000930510002B
:1030C800EF209000EFF08FD86FF05FFE377500802B
:1030D800B7870080130685699387078F3386C740B3
:1030E80093050000130585696FF01FAE130101FFFA
:1030F8001305200023261100EFF05FE937750080E3
:103108001305C50CEFF08FCD13053000EFF01FE865
:10311800EF20C001EFF0DFE2B78700809387478593
:1031280003C7C7001377E7FF2386E7008320C100A2
:103138001301010167800000130101F6232C8108A7
:10314800B797008037840080232631099387078F3B
:103158009309448C23A2F900930701011306000781
:103168009305000013850700232E1108232A9108D0
:1031780023282109EFF05FA51307100023A4A90055
:1031880013050000A30EE100EFF05FE01305100047
:10319800EFF0DFDF93071010231EF100EF10003768
:1031A800B777008093870711378900802322F100C1
:1031B800B736008093071000B785008093044985CF
:1031C8002320F10013070000930700009308000074
:1031D800130800009386460F13060020938505CF39
:1031E8001305498523A09902EF10103A83C7D4002C
:1031F8001304448C13F7B7FFA386E40093F7B701D1
:10320800639A070083A7840163960700130549851D
:10321800EF005017B7770080938787112322F100BA
:103228003775008093071000B7360080B785008097
:103238009304457E2320F1009308F0001308000052
:1032480093070000130700009386C60913060020A1
:10325800938505EF1305457EEF10103383C7D4001F
:10326800232694001305800093F7B7FFA386F40084
:10327800B78700809387C78D232CF400232EF40092
:103288007335053013758500EFC09FF98347D50066
:1032980093F7F70163980700032585011335150097
:1032A800678000001305000067800000130101FF1C
:1032B80023261100EFF04FFEB777008083A7876CB5
:1032C8008320C100378700803385A700232AA78C75
:1032D8009305000013850700130101016F20C05EEC
:1032E80083270500130101FF2324810023261100F1
:1032F800232291001304050063980702B774008025
:10330800B7750080377500809385C51B130545EA9E
:10331800930630181386841AEFF04FAC93053018D3
:103328001385841AEFF04FAF032504008320C100F2
:1033380003248100832441001301010167800000F8
:10334800130101FE232C810023263101232441018E
:10335800232E1100232A910023282101130A050096
:10336800938905001304800073340430B774008017
:103378001385046C13748400EF10D02D631E0502AE
:1033880037790080B775008037750080938545F4DC
:103398009306E0041306C9F2130545EAEFF00FA4FB
:1033A800377500801305C5F5EFF04FA39305E004CA
:1033B8001305C9F2EFF04FA61385046CEF10102F18
:1033C800B78700809305A00013059A0023AA078CED
:1033D800EFD00FD6B7770080377900802324A96C07
:1033E80023A2376DEFF09FEC1385046CEF101029C2
:1033F800631E0502B7740080B775008037750080BA
:10340800938545F7930610061386C4F2130545EA1B
:10341800EFF0CF9C377500801305C5F8EFF00F9CCF
:10342800930510061385C4F2EFF00F9F7324043040
:103438008320C1010324810183244101032901015F
:103448008329C100032A810013010102678000005B
:10345800130101FE232C810023263101232E1100A4
:10346800232A9100232821019309050013048000D1
:1034780073340430B77400801385046C13748400AB
:10348800EF10501D631E050237790080B775008064
:1034980037750080938545F49306E0041306C9F256
:1034A800130545EAEFF08F93377500801305C5F5CE
:1034B800EFF0CF929305E0041305C9F2EFF0CF9532
:1034C8001385046CEF10901E13850900EF00C045AA
:1034D800130905001385046CEF10501A631E0502CA
:1034E800B7740080B775008037750080938545F7FD
:1034F800930610061386C4F2130545EAEFF00F8E03
:10350800377500801305C5F8EFF04F8D9305100649
:103518001385C4F2EFF04F90732404308320C10167
:1035280003248101130509008324410103290101B2
:103538008329C1001301010267800000130101FE05
:10354800232C810023282101232E1100232A9100F6
:103558002326310113090500130480007334043055
:10356800B77400801385046C13748400EF10900EF8
:10357800631E0502B7790080B77500803775008033
:10358800938545F49306E0041386C9F2130545EACA
:10359800EFF0CF84377500801305C5F5EFF00F8481
:1035A8009305E0041385C9F2EFF00F871385046CC7
:1035B800EF10D00F13058900EFF09FD29305090093
:1035C800EF00002F8347D9001385046C93F7D7FFCA
:1035D800A306F900EF10900A631E0502B774008075
:1035E800B775008037750080938545F793061006F8
:1035F8001386C4F2130545EAEFE05FFE37750080D5
:103608001305C5F8EFE09FFD930510061385C4F276
:10361800EFF08F80732404308320C10103248101DB
:103628002324090083244101032901018329C100BE
:103638001301010267800000B787008083A7478CC9
:10364800130101FF23248100232611002322910066
:1036580013840500639E0704EF105002631E0502E1
:10366800B7740080B775008037750080938545F77B
:10367800930680071386C4F2130545EAEFE01FF6A8
:10368800377500801305C5F8EFE05FF593058007EF
:103698001385C4F2EFE05FF81305040003248100EA
:1036A8008320C10083244100130101016FC05FB76B
:1036B800EF10C07C631E0502B7740080B7750080E8
:1036C80037750080938545F7930610061386C4F274
:1036D800130545EAEFE09FF0377500801305C5F83C
:1036E800EFE0DFEF930510061385C4F2EFE0DFF299
:1036F80013748400732404308320C10003248100E0
:10370800832441001301010167800000378700808E
:103718000327478C631407006FC09FB09377850019
:10372800F3A7073067800000130580007335053064
:10373800137585006FF09FFD130101FE232C810096
:10374800232E1100232A9100232821012326310149
:103758001304800073340430B77400801385046C3C
:1037680013748400EF10006F631E05023779008020
:10377800B775008037750080938545F49306E0049B
:103788001306C9F2130545EAEFE05FE537750080D7
:103798001305C5F5EFE09FE49305E0041305C9F2AE
:1037A800EFE09FE71385046C37890080EF10007005
:1037B8008327498C1309498C638E0702B7790080E7
:1037C800B7750080377500809385C5139306001080
:1037D80013860912130545EAEFE05FE037750080AC
:1037E80013054515EFE09FDF9305001013850912B7
:1037F800EFE09FE28327890003C7F70093071000D3
:10380800631EF702B7790080B775008037750080AE
:10381800938585159306101013860912130545EA3A
:10382800EFE0DFDB3775008013054515EFE01FDBA0
:103838009305101013850912EFE01FDE0327890096
:103848008347F7009387F7FFA307F7001385046CF6
:10385800EF10C062631E0502B7740080B775008060
:1038680037750080938545F7930610061386C4F2D2
:10387800130545EAEFE09FD6377500801305C5F8B4
:10388800EFE0DFD5930510061385C4F2EFE0DFD82B
:10389800732404308320C10103248101832441015E
:1038A800032901018329C100130101026780000077
:1038B800B777008083A74754130101FF23248100B1
:1038C8002326110023229100138405006398F50232
:1038D800B7740080B775008037750080938505241C
:1038E800130545EA9306C0281386841AEFE01FCF14
:1038F8009305C0281385841AEFE01FD203274400DC
:10390800832704008320C100832441002320F7007B
:1039180023A2E700232004002322040003248100BB
:103928001301010167800000832705006314F50077
:10393800930700001385070067800000130101FF4B
:1039480023248100378400802320210113090500E6
:103958001305448C130545022322910023261100E8
:10396800EFF09FFC1304448C9304050063140500D6
:103978008324C400631E090683278400639E07020C
:1039880037790080B7750080377500809385451DAD
:103998009306F0071306891A130545EAEFE01FC4DA
:1039A8003775008013054515EFE05FC39305F007F1
:1039B8001305891AEFE05FC68327840003C7D70081
:1039C8001377F7016316070283D6E7001307F0079A
:1039D8006370D7022320F4028320C10003248100EE
:1039E80083244100032901001301010167800000BD
:1039F8008327840063849700EFF05F8B2320940271
:103A08006FF09FFD130101FE2328210137890080F3
:103A18009307498C83A78700232E1100232C81004C
:103A280083C7F700232A9100232631011309498C03
:103A3800639E070237740080B77500803775008071
:103A480093850518930610221306841A130545EA70
:103A5800EFE0DFB83775008013054515EFE01FB8B4
:103A6800930510221305841AEFE01FBB8327090072
:103A7800638E070237740080B77500803775008041
:103A88009385C513930620221306841A130545EA65
:103A9800EFE0DFB43775008013054515EFE01FB47C
:103AA800930520221305841AEFE01FB71304800042
:103AB80073340430B77400801385046C1374840065
:103AC800EF104039631E0502B7790080B775008092
:103AD80037750080938545F49306E0041386C9F290
:103AE800130545EAEFE09FAF377500801305C5F56C
:103AF800EFE0DFAE9305E0041385C9F2EFE0DFB134
:103B08001385046CEF10803A032789001305100011
:103B18008347F70093871700A307F700EFF01FE22A
:103B28001385046CEF108035631E0502B77400809E
:103B3800B775008037750080938545F793061006A2
:103B48001386C4F2130545EAEFE05FA937750080D4
:103B58001305C5F8EFE09FA8930510061385C4F276
:103B6800EFE09FAB73240430032481018320C1015B
:103B780083244101032901018329C10013010102A2
:103B88006FF09FBA130101FE232C8100232A9100B4
:103B9800232E1100232821012326310113040500B7
:103BA80093048000F3B40430377900801305096C5E
:103BB80093F48400EF10002A631E0502B779008091
:103BC800B775008037750080938545F49306E00447
:103BD8001386C9F2130545EAEFE05FA03775008048
:103BE8001305C5F5EFE09F9F9305E0041385C9F21F
:103BF800EFE09FA21305096CEF10402BB777008008
:103C080083A747546318F402B7790080B77500801A
:103C18003775008093850524130545EA93066027C8
:103C28001386891AEFE09F9B930560271385891AED
:103C3800EFE09F9E378700809306478C83A7460254
:103C480003A68602B78600809386868E1307478C64
:103C58006386D70A6384070A8305E4000385E700BF
:103C680063D8A50803A747002320F4002322E40013
:103C78002320870023A287008347D4001305000070
:103C880093E70704A306F400EFF05FCB1305096C74
:103C9800EF10C01E631E050237740080B7750080E0
:103CA80037750080938545F7930610061306C4F20E
:103CB800130545EAEFE09F92377500801305C5F8B4
:103CC800EFE0DF91930510061305C4F2EFE0DF94EF
:103CD800F3A404308320C10103248101832441011A
:103CE800032901018329C100130101026780000033
:103CF8006306F60083A70700E39207F62322C400B1
:103D0800832787022320D40023A087002324870247
:103D18006FF09FF6832705FF130101FE232C810016
:103D280023263101232E1100232A91002328210163
:103D38002324410113040500930985FE6384070CBD
:103D480093048000F3B40430377900801305096CBC
:103D580093F48400EF100010631E0502377A008088
:103D6800B775008037750080938545F49306E004A5
:103D78001306CAF2130545EAEFE05F86377500803F
:103D88001305C5F5EFE09F859305E0041305CAF216
:103D9800EFE09F881305096CEF104011130504FF2D
:103DA800EFF00FD493850900EFF09FB0834754FFDD
:103DB8001305096C93F7D7FFA30AF4FEEF10000C64
:103DC800631E050237790080B7750080377500805B
:103DD800938545F7930610061306C9F2130545EABD
:103DE800EFE0CFFF377500801305C5F8EFE00FFF50
:103DF800930510061305C9F2EFE01F82F3A40430FF
:103E0800232804FE834754FF1385090093F7B7FE60
:103E1800A30AF4FEEFF08FC76304050203248101AF
:103E28008320C1018324410103290101032A810060
:103E3800138509008329C100130101026FF09FD483
:103E48008320C10103248101832441010329010145
:103E58008329C100032A8100130101026780000041
:103E6800130101FE232C810023282101232E110098
:103E7800232A9100232631012324410123225101C1
:103E8800130405001309800073390930B7790080DD
:103E98001385096C13798900EF00D07B631E050236
:103EA800B7740080B775008037750080938545F436
:103EB8009306E0041386C4F2130545EAEFE00FF217
:103EC800377500801305C5F5EFE04FF19305E00461
:103ED8001385C4F2EFE04FF41385096CEF00107DF1
:103EE800B78400801385448C9305040013054502AC
:103EF800EFF01F9CB777008083A74754378A00806C
:103F08009384448C130A8A8E6318F402B77A00806B
:103F1800B77500803775008093850524130545EA39
:103F28009306602713868A1AEFE04FEB9305602704
:103F380013858A1AEFE04FEE83A7440203A7840291
:103F4800638E470B638C070A8306E4000386E70049
:103F580063D0C60A03A747002320F4002322E40005
:103F68002320870023A287008347D40003A5840069
:103F780093E707043305854013351500A306F400BD
:103F8800EFF0DF9B1385096CEF00506F631E05028D
:103F980037740080B775008037750080938545F7C2
:103FA800930610061306C4F2130545EAEFE00FE383
:103FB800377500801305C5F8EFE04FE2930510064A
:103FC8001305C4F2EFE04FE5732909308320C101DE
:103FD8000324810183244101032901018329C100AC
:103FE800032A8100832A410013010102678000002F
:103FF8006386E70083A70700E39A07F42322E40017
:1040080083A784022320440123A0870023A48402D9
:104018006FF09FF5B777008083A7876C63860706E4
:10402800B78700809387478C03A787009306F0071C
:104038000356E70063EAC604B77600800306E70084
:1040480083A6466C6342D604B776008083A646549E
:10405800630CD702832687016398060283A60701AB
:104068006340D502130101FF130507002326110041
:10407800EFF01FDF8320C100130101016FF00FA3D0
:10408800B386A64023A8D70067800000130101FE6D
:10409800232C810023263101232E1100232A91008D
:1040A8002328210193090500130480007334043088
:1040B800B77400801385046C13748400EF00905962
:1040C800631E050237790080B77500803775008058
:1040D800938545F49306E0041306C9F2130545EAEF
:1040E800EFE0CFCF377500801305C5F5EFE00FCFB0
:1040F8009305E0041305C9F2EFE00FD21385046CB1
:10410800EF00D05A83C7D900378900801309498C3A
:1041180093F70704638E0700938509001305490286
:10412800EFF00FF983C7D90093F7F7FBA386F900DF
:10413800032589003305354113351500EFF01F803D
:104148001385046CEF009053631E0502B77400805A
:10415800B775008037750080938545F7930610067C
:104168001386C4F2130545EAEFE04FC737750080A0
:104178001305C5F8EFE08FC6930510061385C4F242
:10418800EFE08FC9732404308320C1010324810127
:1041980083244101032901018329C100130101027C
:1041A80067800000130101FE232C8100232A91005F
:1041B8001304050023282101232E11002326310191
:1041C8009384050013090600EFF05FEC8347D400E1
:1041D80093E72700A306F40063860406B7770080F8
:1041E80083A74754232494006318F402B779008006
:1041F800B77500803775008093850524130545EA57
:10420800930660271386891AEFE04FBD9305602750
:104218001385891AEFE04FC083A70400638CF40666
:10422800638A07060307E4008386E700635CD70414
:1042380003A747002320F4002322E400232087005B
:1042480023A287009307F0FF6304F9069305A000F3
:1042580013059900EFC0CFED13061500130584016F
:10426800032481018320C101832441010329010121
:104278008329C100B74500809385C5D11301010288
:104288006F10C01183A644006386D70083A7070078
:10429800E39C07F883A74400232094002322F4001A
:1042A80083A7440023A0870023A284006FF09FF90E
:1042B8008320C101032481018324410103290101D1
:1042C8008329C1001301010267800000130101FF67
:1042D800B7870080232481001304050003A5C78C39
:1042E8002322910093840500930506001386060097
:1042F80023261100EFF01FEB13050400EF00103820
:10430800631E050237740080B7750080377500801A
:10431800938545F7930680071306C4F2130545EA0B
:10432800EFE0CFAB377500801305C5F8EFE00FABB2
:10433800930580071305C4F2EFE00FAE0324810054
:104348008320C10013850400832441001301010167
:104358006FB01FED130101FE23282101232631012F
:10436800232E1100232C8100232A91009309050094
:104378001309800073390930B77400801385046C01
:1043880013798900EF00102D631E05023774008031
:10439800B775008037750080938545F49306E0046F
:1043A8001306C4F2130545EAEFE04FA33775008002
:1043B8001305C5F5EFE08FA29305E0041305C4F2D9
:1043C800EFE08FA51385046CEF00502E13850900CC
:1043D800EFF08FD5130405001385046CEF00102A45
:1043E800631E0502B7790080B775008037750080B5
:1043F800938545F7930610061386C9F2130545EA17
:10440800EFE0CF9D377500801305C5F8EFE00F9DED
:10441800930510061385C9F2EFE00FA07329093040
:104428006306040C13098000733909301385046C82
:1044380013798900EF001022631E0502B779008006
:10444800B775008037750080938545F49306E004BE
:104458001386C9F2130545EAEFE04F9837750080D7
:104468001305C5F5EFE08F979305E0041385C9F2AE
:10447800EFE08F9A1385046CEF0050231305840036
:10448800EFE01FE693050400EFF08FC28347D400E6
:104498001385046C93F7D7FFA306F400EF00101EF2
:1044A800631E0502B7740080B775008037750080F9
:1044B800938545F7930610061386C4F2130545EA5B
:1044C800EFE0CF91377500801305C5F8EFE00F9145
:1044D800930510061385C4F2EFE00F947329093091
:1044E8002324040013058401EF10000E13050400B3
:1044F8008320C1010324810183244101032901018F
:104508008329C1001301010267800000B78700807A
:104518009387478C1387470223A2E70223A4E70265
:1045280093050000130500006FE09FE1130101FEF1
:10453800232C8100378400808327448C232E11008C
:10454800232A910023282101232631012324410114
:10455800232251011304448C638E0702B774008030
:10456800B7750080377500809385C5139306E037CB
:104578001386841A130545EAEFE04F8637750080E5
:1045880013054515EFE08F859305E0371385841AE9
:10459800EFE08F88B77700808326840003A747540D
:1045A800138A07006386E6121309800073390930FD
:1045B800B77900801385096C13798900EF00900999
:1045C800631E0502B7740080B775008037750080D8
:1045D800938545F49306E0041386C4F2130545EA6F
:1045E800EFD0DFFF377500801305C5F5EFD01FFF4B
:1045F8009305E0041385C4F2EFE00F821385096C7C
:10460800EF00D00A8325840013054402EFF04FAA77
:1046180083274A5483248400378A0080130A8A8EA9
:104628006398F402B77A0080B77500803775008008
:1046380093850524130545EA9306602713868A1A8D
:10464800EFD0DFF99305602713858A1AEFD0DFFCD6
:104658008327440203278402638A470B6388070A77
:104668008386E4000386E70063DCC60803A74700E7
:1046780023A0F40023A2E4002320970023A297009C
:1046880013051000EFF08FAB1385096CEF00007F66
:10469800631E050237740080B77500803775008087
:1046A800938545F7930610061306C4F2130545EAE9
:1046B800EFD0DFF2377500801305C5F8EFD01FF291
:1046C800930510061305C4F2EFD01FF573290930BE
:1046D8001305800073350530032481018320C1014F
:1046E80083244101032901018329C100032A810090
:1046F800832A410013758500130101026FB05FB270
:104708006386E70083A70700E39E07F423A2E4007B
:104718008327840223A0440123A097002324940222
:104728006FF01FF6130101FD2324810237840080F6
:104738008327448C2322910223261102232021035C
:10474800232E3101232C4101930405001304448CCA
:10475800638E070237790080B7750080377500804F
:104768009385C513930690391306891A130545EAEC
:10477800EFD0DFE63775008013054515EFD01FE64B
:10478800930590391305891AEFD01FE99307F0FFB5
:104798006394F41A37790080B77500803775008004
:1047A8009385451F9306A0391306891A130545EA10
:1047B800EFD0DFE23775008013054515EFD01FE213
:1047C8009305A0391305891AEFD01FE59305A000BA
:1047D80013859400EFC0CF9593091500EF1000558D
:1047E8003389A9002326010093048000F3B4043020
:1047F8001305C10093F48400EF00C065631E050231
:10480800377A0080B775008037750080938545F446
:104818009306E0041306CAF2130545EAEFD01FDC3D
:10482800377500801305C5F5EFD05FDB9305E0040D
:104838001305CAF2EFD05FDE1305C100EF00006771
:1048480003258400EFF09F8403258400B74500808A
:1048580013860900130585019385C5D1EF0010342F
:10486800032784001305C1008347D70093E7070196
:10487800A306F700EF008060631E0502B779008089
:10488800B775008037750080938545F793068007D4
:104898001386C9F2130545EAEFD05FD43775008057
:1048A8001305C5F8EFD09FD3930580071385C9F288
:1048B800EFD09FD613850400EFB09F96832784001E
:1048C80083C7D70093F70701638E07023774008008
:1048D800B775008037750080938585209306703BF7
:1048E8001306841A130545EAEFD05FCF37750080A9
:1048F80013054515EFD09FCE9305703B1305841A19
:10490800EFD09FD1EF1080423305A94093040000F7
:104918006358A0021306803E930600009355F541A4
:10492800EFB01FF81306400693060000EFB0DF97BC
:10493800930405006F00C000E39A04E8EFF01FBF7E
:104948008320C10203248102138504000329010284
:10495800832441028329C101032A81011301010330
:1049680067800000B787008003A5C78C67800000B8
:10497800130101FE232C8100232A91002328210101
:10498800232E110023263101130405001389050085
:1049980093040600631E0602B7790080B77500808D
:1049A800377500809385452693066004138649254C
:1049B800130545EAEFD09FC2377500801305052718
:1049C800EFD0DFC19305600413854925EFD0DFC41C
:1049D80063FE2403B7790080B775008037750080BF
:1049E800938585289306700413864925130545EA9F
:1049F800EFD0DFBE377500801305052AEFD01FBE44
:104A08009305700413854925EFD01FC12324240181
:104A18002326940023208400232284008320C101BC
:104A28000324810183244101032901018329C10051
:104A38001301010267800000130101FE232A91007F
:104A480023263101232E1100232C81002328210144
:104A58009309050093048000F3B404303774008090
:104A68001305C46C93F48400EF00C03E631E050276
:104A780037790080B775008037750080938545F4D5
:104A88009306E0041306C9F2130545EAEFD01FB5F3
:104A9800377500801305C5F5EFD05FB49305E004C2
:104AA8001305C9F2EFD05FB71305C46CEF000040DF
:104AB80013850900EFF01F8A130905006302050436
:104AC8008347D50093F7F70163980700832785018B
:104AD80063940700EFF00F8B232609061305C46CB7
:104AE800032481018320C101032901018329C10015
:104AF8009385040083244101130101026FE0DFB3B1
:104B080003A7890083A7C900B387E740B337F0003C
:104B1800B387E70023A4F9006FF05FFCB787008034
:104B280083A7478C130101FE232821012326310185
:104B3800232E1100232C8100232A910023244101D4
:104B4800130905009389050063800704638E050235
:104B580037740080B7750080377500809385852C81
:104B68009306C00813064425130545EAEFD01FA78E
:104B78003775008013054515EFD05FA69305C0086B
:104B880013054425EFD05FA9130480007334043063
:104B9800B77400801385C46C13748400EF00802BF5
:104BA800631E0502377A0080B7750080377500806C
:104BB800938545F49306E0041306CAF2130545EA03
:104BC800EFD0DFA1377500801305C5F5EFD01FA121
:104BD8009305E0041305CAF2EFD01FA41385C46C33
:104BE800EF00C02C83278900638C07069387F7FFA3
:104BF8002324F9001385C46CEF004028631E0502C6
:104C0800B7740080B775008037750080938545F7C5
:104C1800930610061386C4F2130545EAEFD01F9CCD
:104C2800377500801305C5F8EFD05F9B9305100614
:104C38001385C4F2EFD05F9E73240430130500007F
:104C48008320C10103248101832441010329010137
:104C58008329C100032A8100130101026780000033
:104C6800639A09041385C46CEF004021631E050292
:104C7800B7740080B775008037750080938545F755
:104C8800930610061386C4F2130545EAEFD01F9564
:104C9800377500801305C5F8EFD05F9493051006AB
:104CA8001385C4F2EFD05F9773240430130500FF17
:104CB8006FF01FF993050400032481018320C101CB
:104CC800032A810093860900130609008329C1007D
:104CD800032901011385C46C8324410113010102D6
:104CE8006FF0CFDE8347D50093F7F701639807008D
:104CF80003258501133515006780000013050000A2
:104D080067800000B787008003A5478C3335A00073
:104D180067800000B787008083A7C78C03C5C700DA
:104D280013751500678000003726B700130101FFCF
:104D3800130606B093060000930500002326110011
:104D48002324810023229100EFB09FB537460F003E
:104D58001306062493060000EFB00FD513040500D0
:104D6800EFD0DFE293040500EFD05FE23305954012
:104D7800E36C85FE8320C100032481008324410065
:104D88001301010167800000130101FE03230102E2
:104D9800232C8100232E1100232061001304050019
:104DA800EFC09FEDB787008083A7C78C8320C10120
:104DB80083A787062324F406032481011301010233
:104DC8006780000083270506130101FF2324810063
:104DD800232611001304050063840700E7800700F9
:104DE80013050400EFF01FF0630405021305040027
:104DF800EFF0CFA98347D4008320C10093E7870051
:104E0800A306F40003248100130101016780000058
:104E18008347D40093F7270063860700130504002F
:104E2800EFE0CFF183278401E38607FC13058401B3
:104E3800EF0080796FF01FFC2306D500A306C5009C
:104E48002307B500A3070500232C0500232E050022
:104E58006780000003250500630E0500B787008002
:104E680083C7878D137535003305F5403335A000AA
:104E7800678000001305100067800000B787008076
:104E88009387478C03C7470183A78700B3E7E700E9
:104E9800032705006318F7002320050013051000F9
:104EA800678000001305000067800000B787008056
:104EB8009387478C03C7470183A78700B3E7E700B9
:104EC8002320F50067800000130101FE232C8100D8
:104ED80023282101232E1100232A910023263101A2
:104EE800130905001304800073340430B77400807C
:104EF8001385046D13748400EFF0DFF5631E05025B
:104F0800B7790080B775008037750080938545F4C0
:104F18009306E0041386C9F2130545EAEFD00FECB7
:104F2800377500801305C5F5EFD04FEB9305E00406
:104F38001385C9F2EFD04FEE1385046DEFF01FF71C
:104F48008347D90013F74700631407061385046DD8
:104F5800EFF0DFF2631E0502B7740080B7750080BA
:104F680037750080938545F7930610061386C4F2BB
:104F7800130545EAEFD08FE6377500801305C5F8AD
:104F8800EFD0CFE5930510061385C4F2EFD0CFE834
:104F9800732404308320C101032481018324410147
:104FA800032901018329C100130101026780000060
:104FB80093F7B7FFA306F90013050900EFF09FD296
:104FC8006306050013050900EFE0DFBB9305040045
:104FD800032481018320C101032901018329C10020
:104FE8001385046D83244101130101026FE0CFE4AE
:104FF800639405006FF05FED130101FF2324810026
:105008001304050013850500130595009305A000FA
:1050180023261100EFB0DF91130615001305840154
:10502800032481008320C100B74500809385C5D142
:10503800130101016F008036130101FC2322510383
:10504800938A0600B786008083A6468C232C8102AB
:10505800232A91022326310323244103232E1102FC
:10506800232821031304050093890500130A060069
:1050780083244104638E060437790080B775008065
:10508800377500809306201B1306C92F9385C51317
:10509800130545EA232E1101232C0101232AF100CF
:1050A8002328E100EFD08FD3377500801305053131
:1050B800EFD0CFD29305201B1305C92FEFD0CFD542
:1050C8008328C101032881018327410103270101A6
:1050D800832601042322010013060A002320D1009D
:1050E8009385090093860A0013050400EFF0DFC9D1
:1050F8009307F0FF6388F400938504001305040008
:10510800EFF01FEF130504008320C103032481037C
:1051180083244103032901038329C102032A81024D
:10512800832A41021301010467800000130101FE74
:10513800B77700802328210137790080232C81004C
:10514800232A9100232E11001384875793848757AD
:10515800130989576366240313840400EFE0CFDD45
:105168009304F0FF63602407032481018320C101B5
:105178008324410103290101130101026FE09F8883
:105188008327C4022322F100832704022320F1008D
:10519800832744018328C4010328840103270401C9
:1051A8008326C400032684008325440003250400C5
:1051B800EFF09FBD8327040023AE87041304040384
:1051C8006FF05FF983254402638695000325040088
:1051D800EFF01FE2130404036FF0DFF8130101FE80
:1051E800232C8100232A9100232E1100232821013A
:1051F800930405002326010013048000733404304F
:105208001305C10013748400EFF0DFC4631E0502A8
:1052180037790080B775008037750080938545F42D
:105228009306E0041306C9F2130545EAEFD00FBB55
:10523800377500801305C5F5EFD04FBA9305E00424
:105248001305C9F2EFD04FBD1305C100EFF01FC61B
:1052580083C7C40093F71700638E0702377900806D
:10526800B7750080377500809385053593069002E1
:1052780013068933130545EAEFD04FB6377500801A
:1052880013054538EFD08FB5930590021305893380
:10529800EFD08FB813850400EFF0DFB29305040058
:1052A8001305C100EFE04FB98320C1010324810138
:1052B80083244101032901011301010267800000D1
:1052C800B777008083A7476D639407006FD0CFFC42
:1052D80013050000678000008327050063020502AC
:1052E800377700800327C753630CE500638A0700FC
:1052F80003A78700832685003307D70023A4E70088
:10530800032745002320F70023A2E70023200500F8
:105318002322050067800000B777008083C7076EE7
:10532800130101FF23261100232481002322910069
:105338001305F0FF63960700370500801345F5FF56
:10534800B77700809387875303A407006304F402A8
:105358006302040283248400EFF09FF6B384A44020
:105368001305000063C8040003248400EFF05FF510
:105378003305A440B787008083A7478D638607005D
:1053880063D4A700138507008320C100032481008C
:105398008324410013010101678000008327050071
:1053A800130101FD2324810223229102232E3101BE
:1053B8002326110223202103232C4101232A5101F2
:1053C8002328610123267101232481011304050088
:1053D8009389050093040600638E070237790080DD
:1053E800B7750080377500809385453B9306D004D8
:1053F8001306093A130545EAEFD04F9E377500802A
:1054080013054515EFD08F9D9305D0041305093A70
:10541800EFD08FA02326340163449000930410003A
:1054280093098000F3B90930377A008013058A6D33
:1054380093F98900EFF01FA2631E050237790080F7
:10544800B775008037750080938545F49306E004AE
:105458001306C9F2130545EAEFD04F983775008057
:105468001305C5F5EFD08F979305E0041305C9F22E
:10547800EFD08F9A13058A6DEFF05FA3EFF05FE42A
:1054880033059500B774008003A984532324A4002E
:1054980093848453630C9900B77A0080377B00802B
:1054A800B77B0080377C00806310090283A7440023
:1054B800232094002322F40083A7440023A087001C
:1054C80023A284006F00C0058327890063D60702E2
:1054D80093054B3D9306600513860A3A13854BEAFC
:1054E800EFD0CF8F13054C15EFD04F8F9305600584
:1054F80013850A3AEFD04F92032789008327840047
:1055080063D8E70AB307F7402324F9008327490043
:10551800232024012322F40023A0870023228900CA
:1055280083A70400638A97006318F400EFF0DFDEB6
:1055380093050000EFD0CFBB13058A6DEFF01F94E1
:10554800631E050237740080B775008037750080C8
:10555800938545F7930610061306C4F2130545EA2A
:10556800EFD0CF87377500801305C5F8EFD00F87C8
:10557800930510061305C4F2EFD00F8AF3A909307A
:105588008320C102032481028324410203290102EA
:105598008329C101032A8101832A4101032B0101C7
:1055A800832BC100032C81001301010367800000D5
:1055B800B387E7402324F40083A74400E38827EF58
:1055C800032909006FF05FEE130101FE232C81000F
:1055D80023263101232E1100232A9100232821019B
:1055E800930905001304800073340430B7740080F5
:1055F8001385846D13748400EFF0DF85631E050244
:1056080037790080B775008037750080938545F439
:105618009306E0041306C9F2130545EAEFC01FFC20
:10562800377500801305C5F5EFC05FFB9305E004EF
:105638001305C9F2EFC05FFE1385846DEFF01F8775
:1056480083A709001309A0FE6388070013850900D2
:10565800EFF09FC8130900001385846DEFF01F82D7
:10566800631E0502B7740080B77500803775008027
:10567800938545F7930610061386C4F2130545EA89
:10568800EFC0DFF5377500801305C5F8EFC01FF5CB
:10569800930510061385C4F2EFC01FF87324043075
:1056A8008320C101032481011305090083244101DA
:1056B800032901018329C100130101026780000049
:1056C8008327050063800712130101FE232A910036
:1056D80023263101232E1100232C810023282101A8
:1056E8009309050093048000F3B4043037790080EF
:1056F8001305896D93F48400EFF0CFF5631E05025E
:1057080037740080B775008037750080938545F43D
:105718009306E0041306C4F2130545EAEFC01FEC34
:10572800377500801305C5F5EFC05FEB9305E004FE
:105738001305C4F2EFC05FEE1305896DEFF00FF7A4
:105748003777008013078753832707001304000067
:105758006386E70003274700639807061305896DEA
:10576800EFF0CFF1631E050237790080B77500802E
:1057780037750080938545F7930610061306C9F21E
:10578800130545EAEFC09FE5377500801305C5F896
:10579800EFC0DFE4930510061305C9F2EFC0DFE799
:1057A800F3A40430EFF0DFB13305A4408320C10136
:1057B8000324810183244101032901018329C100B4
:1057C800130101026780000083A687003304D40018
:1057D800E38637F9E38407F8E382E7F883A707004D
:1057E8006FF09FF71305000067800000130101FFA9
:1057F8002324810023261100232291002320210144
:105808001304800073340430B77400801385846DEA
:1058180013748400EFF00FE4631E050237790080EB
:10582800B775008037750080938545F49306E004CA
:105838001306C9F2130545EAEFC05FDA3775008031
:105848001305C5F5EFC09FD99305E0041305C9F208
:10585800EFC09FDC1385846DEFF04FE5EFF0DFAB11
:10586800130905001385846DEFF04FE1631E0502EF
:10587800B7740080B775008037750080938545F749
:10588800930610061386C4F2130545EAEFC01FD528
:10589800377500801305C5F8EFC05FD4930510066F
:1058A8001385C4F2EFC05FD7732404308320C1008E
:1058B8000324810013050900832441000329010002
:1058C8001301010167800000130101FE232C8100F0
:1058D8002328210123244101232E1100232A91008A
:1058E8002326310113090500138A050013048000DB
:1058F80073340430B77400801385846D1374840086
:10590800EFF04FD5631E0502B7790080B7750080A8
:1059180037750080938545F49306E0041386C9F231
:10592800130545EAEFC09FCB377500801305C5F511
:10593800EFC0DFCA9305E0041385C9F2EFC0DFCDDD
:105948001385846DEFF08FD6EFF01F9D635CA9007F
:105958009307100063D8A70093050A0013050900F0
:10596800EFC01FF91385846DEFF04FD1631E050258
:10597800B7740080B775008037750080938545F748
:10598800930610061386C4F2130545EAEFC01FC537
:10599800377500801305C5F8EFC05FC4930510067E
:1059A8001385C4F2EFC05FC7732404308320C1019C
:1059B8000324810183244101032901018329C100B2
:1059C800032A81001301010267800000130101FD11
:1059D80023248102232C4101232611022322910230
:1059E80023202103232E3101232A51012328610179
:1059F8002326710123248101232291012320A1015F
:105A0800130A050013048000EFE0CFE0733404307C
:105A1800377900801305896D13748400EFF08FC304
:105A2800631E0502B7740080B77500803775008063
:105A3800938545F49306E0041386C4F2130545EAFA
:105A4800EFC0DFB9377500801305C5F5EFC01FB982
:105A58009305E0041385C4F2EFC01FBCB77900803A
:105A68001305896DEFF08FC4B774008023AA496DC0
:105A7800377A00809389496D130A8A539384046A9C
:105A8800B77A0080B77B0080377B0080377C008046
:105A9800B77C0080032D0A0083A7090083A60400B1
:105AA80003A54400630C4D01630A0D0003278D0014
:105AB80063DCE70A3307F7402324ED00B386D700F9
:105AC80013D7F7413307A700B3B7F600B387E7004A
