:0200000480007A
:100000009702000093820201739052306F10C01C5F
:10001000130101FB2320110023223100232441007E
:100020002326510023286100232A7100232CC101BB
:10003000232ED1012320E1032322F1032324A10253
:100040002326B1022328C102232AD102232CE10254
:10005000232EF1022320010523221105F32210345F
:1000600023245104F322003023265104EF00002002
:100070001303000063160504F3222034B703008045
:100080009383F3FFB3F272001303B000638A62003C
:100090001305010097000000938040146F10C00406
:1000A000832281049382420023245104977200002A
:1000B0009382C2C103A30200631403006F0000090E
:1000C0009302010097730000938383F403A143001C
:1000D000130101FF2320510003AE0300130E1E0085
:1000E00023A0C30163080300970000009380C003AE
:1000F0006F10400873252034B70200809382F2FF0E
:1001000033755500EF00801597620000938242B767
:1001100013153500B382A20003A5020003A3420019
:10012000E700030017730000130383EE832303002B
:100130009383F3FF232073008322010013810200C5
:1001400083238300032E030263087E089772000056
:10015000938202EC03A382002326830223289302C6
:10016000232A2303232C3303232E43032320530565
:10017000232263052324730523268305232893055F
:10018000232AA305232CB3052324230297730000FD
:10019000938303A803AE03002326C30703A302022D
:1001A00023A46200032183020324C30283240303E4
:1001B0000329430383298303032AC303832A0304F4
:1001C000032B4304832B8304032CC304832C0305D8
:1001D000032D4305832D83058322810473901234FC
:1001E0008322C104739002308320010083214100E7
:1001F000032281008322C1000323010183234101E3
:10020000032E8101832EC101032F0102832F41029E
:10021000032581028325C1020326010383264103AE
:10022000032781038327C103032801048328410492
:100230001301010573002030730000009772000065
:10024000938202DD03A382008323C3061375850016
:10025000F3220530138503006780000013031000AC
:10026000B312A30073B3423467800000F32220343A
:1002700037030080B3F262001305000063840200BC
:08028000130515006780000062
:100288006300060293070002B387C740634CF0007F
:10029800130506FE1307000033D5A50093050700D4
:1002A8006780000033D7C5003355C500B395F50006
:1002B8003365B5006FF09FFE130101FD2322910203
:1002C80023286101232611022324810223202103EC
:1002D800232E3101232C4101232A510123267101A8
:1002E8002324810123229101130B05009384050027
:1002F800639C06381304060093090500176900007B
:10030800130989AF63F8C512B7070100938A05007E
:100318006378F6109306F00FB3B6C60093963600CE
:10032800B357D6003309F90003470900B306D700CD
:10033800130700023307D740630C0700B394E400A7
:10034800B356DB003314E600B3EA9600B319EB00AA
:10035800135B040193050B0013850A00EF00405A54
:100368001309050093050B00931B040113850A006C
:10037800EF00805493DB0B019304050093050500FF
:1003880013850B00EF0080501319090113D70901D9
:100398003367E900138A0400637EA70033078700E8
:1003A800138AF4FF636887006376A700138AE4FF63
:1003B80033078700B304A74093050B001385040097
:1003C800EF0000541309050093050B001385040082
:1003D800EF00804E939909019304050093050500E9
:1003E8001319090113850B0093D90901EF00004A7D
:1003F800B36939011386040063FCA900B309340109
:100408001386F4FF63E6890063F4A9001386E4FF0A
:1004180093170A01B3E7C700130A00006F0000131F
:10042800B707000193060001E36CF6EE930680011E
:100438006FF01FEF138A0600631A06009305000089
:1004480013051000EF00404713040500B70701002B
:10045800637CF4129307F00F63F48700130A80009B
:10046800B35744013309F900834609001306000213
:10047800B38646013306D64063120612B38484401D
:10048800130A1000135B040193050B001385040085
:10049800EF0000471309050093050B0013850400BE
:1004A800931B0401EF00404193DB0B01930405000B
:1004B8009305050013850B00EF00403D1319090152
:1004C80013D709013367E900938A0400637EA70004
:1004D80033078700938AF4FF636887006376A70071
:1004E800938AE4FF33078700B304A74093050B0002
:1004F80013850400EF00C0401309050093050B00A5
:1005080013850400EF00403B93990901930405000B
:10051800930505001319090113850B0093D90901E7
:10052800EF00C036B36939011386040063FCA900E3
:10053800B30934011386F4FF63E6890063F4A90064
:100548001386E4FF93970A01B3E7C70013850700F2
:1005580093050A008320C1020324810283244102F7
:10056800032901028329C101032A8101832A410148
:10057800032B0101832BC100032C8100832C410034
:100588001301010367800000B7070001130A000187
:10059800E368F4EC130A80016FF09FEC3314C40095
:1005A80033DAD400B319CB00B356DB00135B040174
:1005B800B394C40093050B0013050A00B3EA960030
:1005C800EF0000341309050093050B0013050A001A
:1005D800931B0401EF00402E93DB0B0193040500ED
:1005E8009305050013850B00EF00402A1319090134
:1005F80013D70A013367E900138A0400637EA70052
:1006080033078700138AF4FF636887006376A700BF
:10061800138AE4FF33078700B304A74093050B0050
:1006280013850400EF00C02D1309050093050B0086
:1006380013850400EF004028930405009305050086
:1006480013850B00EF00802493960A011319090102
:1006580093D60601B367D9001387040063FEA70089
:10066800B38787001387F4FF63E8870063F6A70062
:100678001387E4FFB3878700131A0A01B384A740DE
:10068800336AEA006FF01FE063ECD51EB70701007C
:1006980063F4F6049305F00F33B5D5001315350050
:1006A80033D7A6009757000093870775B387E700ED
:1006B80083C50700130A0002B385A500330ABA40B0
:1006C80063160A0293071000E3E296E83336CB007C
:1006D800934716006FF09FE7B70700011305000165
:1006E800E3E0F6FC130580016FF09FFBB35AB600F8
:1006F800B3964601B3EADA0033D9B400B39744019C
:10070800B355BB0093DB0A01B3E4F50013050900F8
:1007180093850B00B3194601EF00801E13040500F2
:1007280093850B0013050900139C0A01EF00C018FC
:10073800135C0C01130905009305050013050C0053
:10074800EF00C0141314040113D704013367E40045
:10075800930C0900637EA70033075701930CF9FF38
:10076800636857016376A700930CE9FF33075701C5
:100778003309A74093850B0013050900EF004018C3
:100788001304050093850B0013050900EF00C01240
:10079800130905009305050013050C00EF00000F71
:1007A800939704011314040193D707013367F400E6
:1007B80013060900637EA700330757011306F9FFE4
:1007C800636857016376A7001306E9FF33075701EB
:1007D80093970C01370E0100B3E7C7001308FEFF1B
:1007E80033F3070133F809013307A74093DE070104
:1007F80093D909011305030093050800EF000009C8
:10080800930805009385090013050300EF0000080D
:10081800130305009305080013850E00EF00000779
:10082800130805009385090013850E00EF000006E4
:1008380093D6080133030301B386660063F4060107
:100848003305C50113D606013305A6006366A70262
:10085800E314A7BC370701001307F7FFB3F6E60058
:1008680093960601B3F8E80033164B01B3861601D8
:10087800130A0000E37CD6CC9387F7FF6FF0DFB94B
:10088800130A0000930700006FF05FCC1306050001
:100898001305000093F61500638406003305C500B0
:1008A80093D5150013161600E39605FE6780000021
:1008B8006340050663C60506138605009305050013
:1008C8001305F0FF630C060293061000637AB60066
:1008D8006358C0001316160093961600E36AB6FE16
:1008E8001305000063E6C500B385C5403365D50030
:1008F80093D6160013561600E39606FE678000008E
:1009080093820000EFF05FFB13850500678002000B
:100918003305A04063D80500B305B0406FF0DFF998
:10092800B305B04093820000EFF01FF93305A040F3
:10093800678002009382000063CA0500634C0500CB
:10094800EFF09FF71385050067800200B305B040FC
:10095800E35805FE3305A040EFF01FF63305B0401D
:1009680067800200678000006F10907B6F10507BDB
:10097800130101FF23261100EF309009EF305009D1
:10098800EF301009EF30D008EF309008EF30500802
:10099800B77700808320C100938747C42324F506D6
:1009A800B7750080376500809385C5B5130505FACE
:1009B800130101016F10D079130101FF2324810075
:1009C80037740080130484BE232291002320210160
:1009D800232611001309050093040401832504004C
:1009E8001305090013044400EF30504AE31894FE3D
:1009F8008320C100032481008324410003290100CE
:100A080013010101678000006FF01FFB130101FD56
:100A1800232E1100232C81002324010323261103F4
:100A280063160504138606003765008093060700E1
:100A380013870500B7650080138407009385850731
:100A4800930781021305450B2326F100EF108071EF
:100A58008325C10013050400EF10C06D37650080C1
:100A68001305052FEF100070EF1090688320C10167
:100A7800032481011301010367800000130101FCB5
:100A8800232C810237740080130484BE232A910228
:100A9800232821032326310323244103232251033E
:100AA80023206103232E7101232E1102930B0500CD
:100AB800130A04FF37690080B7690080B7640080B3
:100AC800376B0080B76A0080130600009305C100E9
:100AD80013850B00EF30D0549387091F1307C9FA09
:100AE800930640021386840793054B0213351500BD
:100AF800EFF0DFF10325C4008327C1001307C9FA0B
:100B0800930650023305F540138684079387091F1F
:100B180093858A05133515001304C4FFEFF01FEF02
:100B2800E31444FB8320C10303248103832441038A
:100B3800032901038329C102032A8102832A41026E
:100B4800032B0102832BC1011301010467800000FC
:100B5800130101FF23261100232481002322910081
:100B68003774008093040500EFF05FF1130504E18A
:100B7800EF30407713850400EFF01FE4130504E11C
:100B8800032481008320C100832441001301010153
:100B98006F3040756FF09FEE130101FF2324810031
:100BA8001304050037750080130610009305000034
:100BB800130505E123261100EF3040663715008044
:100BC80093050400130505A1EF00C05C130504009C
:100BD800EFF0DFEA13050400EFF01FDE93050400D1
:100BE800032481008320C100371500801305C5B98F
:100BF800130101016F00005A130101FE232A91001D
:100C0800B7740080232C810013061000130405001C
:100C180093050000138504E1232E110023282101E8
:100C2800EF30C05F9307C000B7160080B77500802B
:100C380037750080130704009308000013080000AC
:100C4800938686B5130600202320F10093850504BA
:100C580093070000232201001305C5E3EF400005B8
:100C68001309050013050400EFF01FD59305F0FFE5
:100C7800138504E1EF3040759305F0FF138504E117
:100C8800EF30807413050400EFF05FDF0324810167
:100C98008320C101832441011305090003290101AF
:100CA800130101026F40C01A130101FF23248100C0
:100CB800B775008037740080130504E213064000FE
:100CC800938585BE23261100EF30900C130504E2AE
:100CD800EFF09FF2032481008320C1003775008064
:100CE800130545C7130101016FF01FF1130101FF3F
:100CF80023248100B775008037740080130504E24F
:100D080013064000938585BE23261100EF30500856
:100D1800130504E2EFF05FE8032481008320C1009B
:100D280037750080130545C7130101016FF0DFE631
:100D3800130101FE232C81003774008093054000C5
:100D4800130504C9232E1100232A91002328210109
:100D5800B7740080EF301006138504E11306100005
:100D680093050000EF30804BB7160080B775008000
:100D780037750080130704C993070000938686B56A
:100D8800130600209308000013080000938505044B
:100D980023220100232001001305C5E3EF30107161
:100DA80013090500130504C9EFF01FC19305F0FFEF
:100DB800138504E1EF3040619305F0FF138504E1EA
:100DC800EF308060130504C9EFF05FCB130509000D
:100DD800EF400008130504C9EF3010039305101005
:100DE800130504C9EF30007D032481018320C1016C
:100DF80083244101032901011305C500B767008059
:100E08003767008037660080B7650080938787FD65
:100E1800130787FB9306700A1306860793858500D8
:100E280013351500130101026FF05FBE130101FDB8
:100E3800232E11002324010323261103631805041C
:100E48001386060013870500B7660080B765008023
:100E580037650080930781029386C60D93854516F2
:100E68001305450B2326F100EF10C02F8325C10081
:100E7800376500801305051FEF10C02B376500800C
:100E88001305052FEF10002EEF1090268320C101C7
:100E98001301010367800000130101FD232481026F
:100EA800B775008037740080130504E2130620002C
:100EB800938505CC232611022322910223202103A6
:100EC800232E3101EF30C06C9305C10013060000DA
:100ED800130504E2EF30D01437690080B769008049
:100EE800B764008013050501B76500809387091F63
:100EF8001307C90D93065001138644169385C50E32
:100F080013351500EFF09FF29305C1001306400654
:100F1800130504E2EF30D0101305B500B765008063
:100F28009387091F1307C90D13864416930670018A
:100F38009385851213351500EFF05FEF8320C1020A
:100F48000324810283244102032901028329C10168
:100F58001301010367800000130101FF232611001C
:100F680023248100930760006304F502EF30D02644
:100F780063040502EF30502663160504B765008048
:100F88009385C5443765008013050546EF10801D1D
:100F9800EF1040246FF0DFFFEF301025E31C05FC55
:100FA800377400801304C4008325840037650080EB
:100FB80013050548EF10001B03258400EF30506926
:100FC8006FF01FFDB7650080938585446FF09FFB28
:100FD800130101FB232481042322910423261104F5
:100FE80093076000930405001384050063E0A70ECF
:100FF80037670080931725001307C719B387E700E1
:1010080083A7070067800700376500801305C52C94
:10101800EF104015EF30C01F8327440483280401D4
:101028000328C4002328F10283270404032744006B
:10103800832604002326F1028327C403032684049D
:10104800930505002324F102832784033765008074
:10105800130505352322F102832744032320F102D7
:1010680083270403232EF1008327C402232CF100D5
:1010780083278402232AF100832744022328F100CE
:10108800832704022326F1008327C4012324F100C7
:10109800832784012322F100832744012320F100C0
:1010A80083278400EF10000C9305040013850400C7
:1010B800EFF09FEA376500801305452F6FF05FF565
:1010C80037650080130505316FF09FF437650080A0
:1010D800938504001305C532EF10C0086FF09FF325
:1010E800130101FF232481002326110013040500A6
:1010F8007326203413161600135616009307500053
:1011080063E8C70237670080931726001307871B19
:10111800B307F70083A50700376500801305851D11
:10112800EF1040049305040013050000EFF05FEA98
:10113800B76500809385051D6FF01FFE130101FF41
:1011480023261100F3252034376500809395150078
:1011580093D515001305854AEF10C000B7650080C8
:101168009385451F13054000EFF09FE6B777008091
:10117800938787CC03A70700630C070003A3070026
:1011880023A00700B777008003A5C7CC670003003A
:101198006780000093078000F3B707303777008037
:1011A8002324A7CC377700802326B7CC7300000010
:1011B80093F78700F3A7073067800000130101FF4A
:1011C80023261100EF101034EF10C002EF10503A30
:1011D8001771000013018186B71200009382028004
:1011E80033015100EFF09FFD6F001011130101FD55
:1011F800232481022322910223202103232E31015B
:10120800232C4101232A510123286101232671013E
:10121800138B070023261102232481019307F00072
:10122800930405001384050093090600138A060039
:10123800930B0700930A080013890800639AF808BB
:10124800B7370080938747CD639AF6088326010352
:10125800930509001385040013064000EF301005BC
:10126800938509FBB305B400B727000023AE040437
:1012780023A0040693F505FF9387078823A6F504A2
:10128800B71700808320C102032481029387071FB8
:1012980023A4450323A6750323A8650323AA55039E
:1012A80023A4F50423A4B4020329010283244102E0
:1012B8008329C101032A8101832A4101032B0101EA
:1012C800832BC100032C81001301010367800000F8
:1012D800938608019307E001E3FAD7F6376C00809C
:1012E800B76500803765008013060C4D93068001B2
:1012F8009385054F1305C557EF00D0663765008005
:1013080093050900930600FF1306E0001305C5596D
:10131800EF0050659305800113050C4DEF005068F0
:101328006FF0DFF293971500B387B7001397270084
:101338008327C500B387E7000307B5006354B700E8
:1013480083A707001357F6411377F7013307C70040
:101358001357574013172700B387E70023A0F60059
:101368001375F60167800000130101FE9306C100A2
:10137800232E1100EFF01FFB0327C1009307100075
:101388003395A700832707008320C101B3E7A7008F
:101398002320F7001301010267800000130101FEFA
:1013A8009306C100232E1100EFF0DFF70327C100D9
:1013B800930710003395A700832707008320C101F6
:1013C8001345F5FF33F5A7002320A70013010102F9
:1013D80067800000130101FE232A91008324450041
:1013E800232C810013040500035585009385040010
:1013F80023282101232631012324410123225101DD
:1014080023206101232E1100EFF04FC88329040027
:10141800834AA4009307F0FF130A0500B389A900C3
:10142800A305F40013090000130BF001634C5903E2
:10143800930400008357840063CCF4088320C1011F
:101448000324810183244101032901018329C10067
:10145800032A8100832A4100032B010013010102A2
:10146800678000009385040013050A00EFF0CFC4DD
:101478001317190033072701931727000327C40000
:101488003307F700930747002322F7002324F700C8
:10149800634EAB00A305240193D424009384340045
:1014A80093F4C4FF130919006FF05FF81305F501F1
:1014B8009357F54193F7F701B387A70093D75740A0
:1014C8009397270023203701B389F9006FF0DFFCD9
:1014D8008325440013850400EFF04FBB83270400E5
:1014E80013860400930500003385A7008327C400F2
:1014F80093841400138747002320E50003A787007F
:101508002322E50003A787002320A70023A4A70020
:1015180013050400EFF05FE56FF0DFF1130101FA46
:10152800232C810423225105232E1104232A9104FC
:10153800232821052326310523244105232061057D
:10154800232E7103232C8103232A91032328A1032B
:101558002326B10313040106034EA50093080000D7
:1015680093172E009387F70093F7077F3301F14015
:1015780083274500930A010013830A0093873700E5
:1015880093F7C7FF23A0FA00138BF8FF63D4C803AF
:10159800638C08000328C3FF135828001308380079
:1015A8001378C8FF23200301130343000328C3FF54
:1015B800637AB8049305F0FF631ABB04232007007D
:1015C800130540FF130104FA8320C1050324810594
:1015D80083244105032901058329C104032A8104C1
:1015E800832A4104032B0104832BC103032C8103A9
:1015F800832C4103032D0103832DC102130101062E
:1016080067800000938818006FF01FF88345050174
:101618001309000093F5150063880500130980007D
:101628007339093013798900232AE4FA13171B0048
:10163800232CD4FA330767018326C5001317270024
:10164800130747003387E600232EC4FA93040500E6
:10165800130A0B009306F0FF832907006306371966
:1016680013172A0083A64900B38CEA0003A70900D0
:1016780083A50C00130D800023A0E6002322D700C9
:1016880023A0090023A2090003A504003385A9406B
:10169800EFF00FA21306050093050A001385040056
:1016A800EFF0DFCF130A1A009306FAFF63CA660544
:1016B80003C704011377170063040700732909306F
:1016C800832744FB130540FF23A03701E38C09EE71
:1016D8008327C4FB03A5040023A0670193172B00ED
:1016E800B38AFA0083A50A003385A940EFF04F9C1E
:1016F800832784FB23A0A700130500006FF09FEC4D
:1017080003A5040083A50C00930B10003385A940A2
:10171800EFF00F9A93181A00B3884801931D25001B
:101728009398280083A64C0093850B00232614FB6E
:10173800138506002328D4FAEFF04F95338CA900BF
:101748003386BB0193050A0013850400EFF0DFC15F
:10175800832604FB03A6040083A544009386F6FFB2
:1017680003D58400B306DC00B386C6402328D4FA28
:10177800EFF0CF91832604FB8328C4FA63F4A60212
:1017880083A6C400B3861601138646002320CC0026
:1017980003A686002322CC0003A686002320860108
:1017A80023A48601938B1B0093074000E39CFBF660
:1017B80083C6040193F61600639A06001309000015
:1017C800130A1A00938C4C006FF01FEE732909302E
:1017D80083C6040193F61600E38206FE73390D30C2
:1017E800137989006FF0DFFD130AFAFF138749FFA9
:1017F800E314DAE6930900006FF09FEB130101FA96
:10180800232C810423244105232A9103232E110428
:10181800232A910423282105232631052322510553
:1018280023206105232E7103232C81032328A10380
:101838002326B103130401060347A500930C0500F2
:10184800131727001307F7001377077F3301E140C9
:1018580003274500130A010093060A0013073700FF
:101868001377C7FF2320EA0013051000938646006C
:1018780063F0A50C03C70C01138905009309060042
:10188800137717009304000063080700930480008F
:10189800F3B4043093F48400376B00806358090A6A
:1018A800B7640080B7650080376500801386045DE3
:1018B8009306000C938585631305C557EF00900ABE
:1018C8003765008013054560EF00D0091385045D76
:1018D8009305000CEF00D00C9304F0FF83C70C01B4
:1018E80093F717006386070093F48400F3A4043089
:1018F800130104FA8320C1050324810583244105CB
:10190800032901058329C104032A8104832A410488
:10191800032B0104832BC103032C8103832C410374
:10192800032D0103832DC102130101066780000006
:1019380003A7C6FF13051500135727001307370021
:101948001377C7FF23A0E6006FF05FF21317290093
:101958003307EA00832A070003AC0C00138509004B
:1019680093850A00EFE09FF2938BFAFF330D750120
:10197800330CAC0083A54C0003D58C00EFE01FF1BD
:10198800636CAD02B76700809385475EB7670080D8
:101998001385C7579306400A13060B5DEF00807C3A
:1019A800B767008013850760EF00C07B9305400A86
:1019B80013050B5DEF00C07E13860900930509002F
:1019C80013850C00EFF05F9A1317190033072701EE
:1019D8009316270003A7CC003307D70093064700C8
:1019E8002320DC00832687002322DC00832687004F
:1019F80023A086012324870103C70C01137717004E
:101A0800631C070C93040000E30A09EC9306C4FB6B
:101A1800138609009305090013850C00EFF09F90C9
:101A28008326C4FB1357F541137737003307A70004
:101A380003A506001377C7FF9307F0003357E500A7
:101A48001377F700E31CF7E8130D000093FDC9FFB7
:101A58003386AD011305060093850A002324C4FAD2
:101A6800EFE0DFE233077501130C050083A54C0096
:101A780003D58C002326E4FAEFE05FE10327C4FADC
:101A8800032684FA6378A7029305090013850C00DE
:101A9800EFF0DF9003A70C00330C870103264C00FE
:101AA80003270C002320E6002322C70023200C0074
:101AB80023220C00130D1D0093074000E31AFDF8C4
:101AC80013D6F94113763600B30936011309F9FF25
:101AD80093D929406FF09FDCF3A4043003C70C01AD
:101AE80013771700E30007F293078000F3B4073079
:101AF80093F484006FF05FF1130101FF9307050071
:101B08001385050093050600138606002326110099
:101B1800E7800700EF20C06FEF3080331305000027
:101B280067800000130101FF2324810013040500CE
:101B380013055004232611002322910093840500E5
:101B4800E70004009385040013052005E70004005E
:101B580013030400032481008320C100938504003B
:101B680083244100130520051301010167000300C8
:101B780083A705009387170023A0F500B777008097
:101B880003A387BF67000300130101FC232C810214
:101B98002326310323244103232061032328A101A1
:101BA800232E1102232A91022328210323225103E1
:101BB800232E7101232C8101232A91012326B101AF
:101BC80093090500138A0500130D0600138B060000
:101BD800130410006354E000130407009307100077
:101BE800930C00026314FB00930C0003B7D49A3BD8
:101BF80013091000930AA000130C00009384F49FAB
:101C0800930D2000938B140063140C0063F2A40B53
:101C180093850B0013050D00EFE01FCA93050A001A
:101C280013050503E780090013091900130C1000B8
:101C380093850B0013050D00EFE09FCC130D0500F5
:101C48009305A00013850400EFE01FC7938AFAFFED
:101C58009307100093040500E396FAFA93050A0027
:101C680013050D03E780090093073000330424416E
:101C78006306FB068320C1030324810383244103F5
:101C8800032901038329C102032A8102832A41020D
:101C9800032B0102832BC101032C8101832C4101F9
:101CA800032D0101832DC100130101046780000089
:101CB800E34054F9E3EE6DF793050A0013850C0031
:101CC800E7800900130919006FF09FF693050A00D1
:101CD80013050002E78009001304F4FFE34880FEBF
:101CE8006FF05FF9B777008023ACA7BE678000006C
:101CF800130101FB232481042322910423202105BD
:101D0800232E3103232C4103232A51032322910339
:101D18002320A103232EB1012326110423286103C4
:101D280023267103232481031304050093840500EB
:101D3800930A0600138D0600130A00001309F0FF2A
:101D480093090000930C0000B70D008003C50A003A
:101D5800631005048320C1040324810483244104FF
:101D6800032901048329C103032A8103832A410328
:101D7800032B0103832BC102032C8102832C410214
:101D8800032D0102832DC1011301010567800000A5
:101D9800639E0C0093065002630CD53693850400AD
:101DA800E7000400938A1A006FF05FFA9306400672
:101DB8006300D51263E2A6069306900363EAA602BF
:101DC800930610036374D50E9306D002630CD534C2
:101DD800930700036300F50C130750026312E50232
:101DE8009385040013055002E70004006F000016F5
:101DF800930680056300D51C130730066300E530A1
:101E08009385040013055002E7000400938504003D
:101E180003C50A006FF05FFD93060007630CD51633
:101E280063E0A602930690066304D50A9306C006EB
:101E3800630CD50893068006E306D5F66FF05FFCC1
:101E4800930650076308D51063EEA6021307300700
:101E5800E318E5FA032C0D00130B4D00930B0C004F
:101E680003C50B00631A0526930730006398F90031
:101E7800B38B8B41B30B794163487027130D0B006B
:101E88006F00C00C930680076306D5129306A0075F
:101E98006FF09FFA635E0900638A0928130905FD3C
:101EA800E39209F0930920006FF0DFEFE34809FEA1
:101EB800931629003389260113191900130909FDFE
:101EC800330925016FF0DFFD130A1A006FF09FED4B
:101ED80063120A0403260D00130D4D006350060219
:101EE800938504001305D0022320C100E7000400F5
:101EF800032601001309F9FF3306C0401307090040
:101F0800938609009385040013050400EFF0DFC7EA
:101F18006F00C00313071000E30EEAFA93077D0071
:101F280013F787FF0326070083264700130D870052
:101F38003307B6013337C7003307D700E30007FA82
:101F48009385040013050400EFF0DFBD930C000037
:101F58006FF05FE563180A0003260D00130D4D00AE
:101F68006FF0DFF913071000E308EAFE93077D001E
:101F780013F787FF130D8700032607000327470081
:101F8800E31007FCB707008093C7F7FFE3F8C7F62D
:101F98006FF01FFB9385040013050003E70004009E
:101FA8009385040013058007E700040013098000E7
:101FB800930910009306100063C2460B83270D0097
:101FC80023240100130D4D002322F100130C0001FE
:101FD800930B000023200100930800010325410012
:101FE80083258100138BF8FF13162B00232611017C
:101FF800EFE00FA91375F5006318050883270100A2
:1020080093060003639807008328C1009307100014
:102018006396F8083385A600131585019385040097
:1020280013558541E7000400938B1B0063180B04CC
:1020380093063000930C0000E396D9D613171900C5
:10204800B30B7741E35470F1938504001305000244
:10205800E7000400938BFBFF6FF0DFFE93077D0022
:1020680093F687FF83A70600138D86002322F100CD
:1020780083A746002324F1006FF05FF52320910128
:1020880093080B006FF09FF5930790009306700577
:10209800E3E2A7F8930600036FF0DFF79307FCFF6E
:1020A8002326F100634C890193071000639CF90013
:1020B8009385040013050003E7000400032CC10006
:1020C8006FF01FFC93072000E39AF9FE9385040044
:1020D800130500026FF05FFE93850400938B1B00CD
:1020E800E70004006FF0DFD79385040013050002B2
:1020F800E7000400938BFBFF6FF01FD803250D004A
:1021080093850400130B4D00E70004006FF01FD700
:10211800130A00001309F0FF93090000930C100044
:102128006FF05FC8930930006FF0DFC793091000A4
:102138006FF05FC7130101FE130605003725008005
:1021480093860500130585B79305C100232E11005A
:1021580023260100EFF0DFB98320C101130101023A
:1021680067800000130101FC2322B102930541029C
:10217800232E11002324C1022326D1022328E102A1
:10218800232AF102232C0103232E11032326B10055
:10219800EFF05FFA8320C10113010104678000009A
:1021A800B765008037650080130101FF938545619D
:1021B800130585621306E00123261100EFF09FFA4C
:1021C800B76500809385451F13056000EFE05FE069
:1021D8006780000093078000F3A707307300501052
:1021E80067800000930710003395A70073254530DA
:1021F8006780000093078000F3B7073073504030C2
:102208007350403467800000130101FF23248100CC
:102218002322910037740080232611009307A00021
:1022280093040500130404CD631CF5000325040082
:102238009305D0008327450083A74700E780070060
:102248000325040093F5F40F8327450083A747006F
:10225800E78007008320C100032481001385040060
:10226800832441001301010167800000130101FF6D
:10227800232481003724008013050421232611001C
:10228800EF00805D13050421032481008320C10031
:10229800130101016FF01FA537650080130101FFCD
:1022A8001305456323261100EF009018B7770080C7
:1022B80023A8A7CCEFF09FFB8320C10013050000E3
:1022C8001301010167800000B70710F003A747F466
:1022D80003A507F483A547F4E39AE5FE67800000A9
:1022E800130101FE232C8100232E1100232A9100C3
:1022F80023282101232631012324410123225101CE
:10230800130480007334043037790080130549CDF5
:1023180013748400EF20407B631E0502B7640080BD
:10232800B765008037650080938505669306E004ED
:10233800138684641305C557EFF0DFE23765008024
:1023480013058567EFF01FE29305E00413858464A5
:10235800EFF01FE5130549CDB7740080EF20407CEE
:10236800938404CBEFF05FF683A9040083AA4400AA
:102378009307050033053541B3B7A700B385554129
:1023880037D601001306064C93060000B385F540C6
:10239800EFD09FF2130A0500B7D501009385054CCD
:1023A80013050A00EFE08FCEB309350133B5A90054
:1023B8003305550123A2A400130549CD23A03401F8
:1023C800EF200073631E0502B7640080B7650080C4
:1023D8003765008093850569930610061386846423
:1023E8001305C557EFF01FD8376500801305856AB8
:1023F800EFF05FD79305100613858464EFF05FDA7A
:1024080073240430032481018320C1018324410102
:10241800032901018329C100832A410013050A0009
:10242800032A8100130101026F30C00E130101FF5E
:1024380023261100EFF05FE9B7D701009387074C17
:10244800370710F0B307F5009306F0FF2326D7F4FB
:1024580033B5A7003305B5002324F7F42326A7F4E2
:1024680013057000EFF01FD88320C100130500008A
:1024780013010101678000006392051A130101FE30
:10248800232E1100232C8100232A910023282101C7
:1024980023263101232441012322510123206101F4
:1024A8009307F0FF6316F500379500001305E5BCA8
:1024B800B79700001304F5FF9387E7BC63DA871426
:1024C800138407001309800073390930B77A008034
:1024D80013854ACD13798900EF20005F631E05023A
:1024E800B7640080B765008037650080938505660E
:1024F8009306E004138684641305C557EFF09FC65E
:102508003765008013058567EFF0DFC59305E004A4
:1025180013858464EFF0DFC813854ACDEF2040604F
:10252800EFF09FDAB7770080938707CBB7D4010025
:1025380083A90700130A05009385044C13050400BA
:1025480003AB4700EFE08FB49387F44BB387374171
:102558003305F5009385044C3305AA00EFE0CFB5A9
:102568009385044CEFE08FB2338A4941330AAA00BD
:102578009307703E63C647019384044C3305950066
:10258800B70710F0B30935011307F0FF23A6E7F4E6
:1025980033B5A9003305650123A437F523A6A7F4AD
:1025A80013854ACDEF20C054631E050237640080AE
:1025B800B765008037650080938505699306100626
:1025C800130684641305C557EFF0DFB9376500803B
:1025D8001305856AEFF01FB9930510061305846487
:1025E800EFF01FBC732909308320C1010324810146
:1025F80083244101032901018329C100032A8100A1
:10260800832A4100032B01001301010267800000A7
:10261800E35A04EA130400006FF0DFEA6780000061
:10262800130101FF23248100232611002322910096
:10263800232021011304800073340430B774008010
:10264800138544CD13748400EF200048631E0502EF
:1026580037690080B7650080376500809385056617
:102668009306E004130689641305C557EFF09FAF7E
:102678003765008013058567EFF0DFAE9305E0044A
:1026880013058964EFF0DFB1138544CDEF2040498D
:10269800EFF09FC3B777008083A707CBB7D50100BA
:1026A8009385054C3305F540EFE00FA113090500AC
:1026B800138544CDEF20C043631E0502B764008034
:1026C800B765008037650080938505699306100615
:1026D800138684641305C557EFF0DFA837650080BB
:1026E8001305856AEFF01FA8930510061385846407
:1026F800EFF01FAB732404308320C1000324810052
:102708001305090083244100032901001301010175
:10271800678000008347050003C705006394E7004E
:10272800639607003385E7406780000013051500AE
:10273800938515006FF01FFEB347B50093F7370078
:10274800638C070493070500130700006316E60669
:1027580067800000E30E06FE9385150003C7F5FFAA
:10276800938717001306F6FFA38FE7FE13F73700CA
:10277800E31207FE930630003308E64063E20603DF
:1027880013572600931627003306D640B387D70081
:10279800B385D5006FF05FFB930705006FF01FFD51
:1027A800B388E50083A808003388E70013074700CB
:1027B800232018016FF05FFC3388E5000348080008
:1027C800B386E70013071700238006016FF01FF890
:1027D80093F6F50F9307050013F737006314070402
:1027E80093F5F50F13978500B365B70013970501A7
:1027F800B365B7003383C700138707001308300099
:10280800B308E340636A180313572600931527009B
:10281800B387B7003306B6403386C7006394C70250
:1028280067800000E30E06FE93871700A38FD7FE8C
:102838001306F6FF6FF05FFA13074700232EB7FE63
:102848006FF01FFC93871700A38FD7FE6FF01FFD53
:102858001305F0FF67800000B777008023AEA7BE9E
:1028680067800000130101FE232C81008327850067
:1028780037740080232A9100130404C0B7740080C1
:10288800232E11002328210123263101938484CD8E
:1028980093091000232004001309050023A0340124
:1028A800E78007008327490023203401E7800700D9
:1028B800930720002320F4008327C900E78007003E
:1028C800930730002320F4000324810123A004008F
:1028D8008320C10183244101032901018329C10007
:1028E800377500801305C5EA130101026F10901FA8
:1028F80037750080130101FFB77700801307F0FFD9
:102908001305C5EA2326110023ACE7CCEF10901D70
:10291800EF1010108320C100130101016F204053F4
:1029280037750080130101FFB77700801307E0FFB8
:102938001305C5EA2326110023ACE7CCEF10901A43
:10294800EF10100D8320C100130101016F204050CA
:10295800130101FA232A9104B774008083A7C4CD18
:10296800232E1104232C8104232821052326310535
:10297800232441052322510523206105232E7103B9
:10298800232C8103232A91032328A1032326B1039F
:1029980063C4070837740080130610009309050004
:1029A800138C05001305C4EA93050000EF10100707
:1029B800376500809385090013054570EFF08FFA9D
:1029C800376900801305C971B76A0080EFF08FF985
:1029D8009384C4CD130A0000232E8100B77C0080A5
:1029E800377B0080373D0080B77D0080B76B008063
:1029F800938ACA6B83274C00639E0704938509005A
:102A080063060A10376500801305C578EFF08FF567
:102A18009307100023A0F4008320C1050324810537
:102A280083244105032901058329C104032A81045C
:102A3800832A4104032B0104832BC103032C810344
:102A4800832C4103032D0103832DC10213010106C9
:102A58006780000083250C00B767008013854776E0
:102A6800EFF04FF02322010083270C0113070C001D
:102A78001306004093E787009308F0FF130800004F
:102A88009306CD862320F10093850C24930700003C
:102A98001305CBEBEF2080218327C1019305F0FFBD
:102AA8001385C7EAEF10501293878DCD1305CBEB32
:102AB80003A40700EF20C039B7770080938787CD3C
:102AC80003A70700130414009307E0FF133414004E
:102AD80003260C006314F702B76500809385857799
:102AE80013850B78EFF00FE81305C971EFF08FE746
:102AF800330A8A00130C4C016FF0DFEF93172400A0
:102B0800B387FA0083A507006FF09FFD3765008043
:102B18001305457AEFF00FE583A70400B337F000FB
:102B28006FF05FEFB777008083A7C7CD130101FF70
:102B38002324810037650080232611003764008034
:102B48001305C57163820702EFF0CFE1B765008016
:102B58009385856C1305046D032481008320C100CF
:102B6800130101016FF00FE0EFF0CFDFB7650080D0
:102B78009385856E6FF01FFE130101FF2326110058
:102B8800EFD01FDF8320C100130101016FF09FF90F
:102B9800130101FF232601008327C1009387170033
:102BA8002326F100B70701F023A0B70013010101A4
:102BB800678000001305F0FF678000001305000020
:102BC8006780000013172500B767008013051500FC
:102BD8009387477D13152500130101FF3387E7000D
:102BE800B387A70023248100232291000324070030
:102BF80083A4070023261100636C94008320C1007E
:102C0800032481008324410013010101678000002F
:102C1800832704001305040083A74700E780070003
:102C280063040500232204001304C4006FF0DFFCD2
:102C3800130101FFB777008023229100B774008049
:102C48002324810023261100138447C12320210156
:102C5800938747C1938444C4631C940013090500F7
:102C68001384070063149402130400006F004004E7
:102C7800032744006308070003270400032707000D
:102C88006308A7021304C4006FF01FFD83274400E4
:102C9800639607001304C4006FF0DFFC8327040069
:102CA8001305090083A50700EFF0DFA6E31405FE6E
:102CB800130504008320C1000324810083244100FC
:102CC800032901001301010167800000130101FFBE
:102CD800232481002322910023261100130480005D
:102CE80093042000F3370430EF20C06463C4A400C9
:102CF8001305100093051000EF208071EFF08FCDC1
:102D08006FF05FFE37750080B7770080130605CB3C
:102D1800938787033386C74093050000130505CBC7
:102D28006FF01FAB130101FF1305200023261100CC
:102D3800EFF05FE9376500801305857EEFF08FC2FD
:102D480013053000EFF01FE8EF208005EFF0DFE219
:102D5800B77700809387C7F903C7C7001377E7FFE2
:102D68002386E7008320C10013010101678000006A
:102D7800130101F6232C8108B7870080377400807F
:102D880023263109938707249309C40023A2F90055
:102D98009307010113060007930500001385070038
:102DA800232E1108232A910823282109EFF05FA276
:102DB8001307100023A4A90013050000A30EE100C7
:102DC800EFF05FE013051000EFF0DFDF930710105E
:102DD800231EF100EF10C041B77700809387C782A8
:102DE800377900802322F100B7360080930710005E
:102DF800B77500809304C9F92320F1001307000078
:102E08009307000093080000130800009386C6D2B9
:102E180013060020938505641305C9F923A09902B8
:102E2800EF10D03D83C7D4001304C40013F7B7FFD5
:102E3800A386E40093F7B701639A070083A7840188
:102E4800639607001305C9F9EF009018B77700805B
:102E5800938747832322F10037750080930710007A
:102E6800B7360080B78500809304C5F22320F100AF
:102E78009308F000130800009307000013070000F0
:102E8800938646CD13060020938505841305C5F265
:102E9800EF10D03683C7D400232694001305800092
:102EA80093F7B7FFA386F400B777008093874702AC
:102EB800232CF400232EF400733505301375850098
:102EC800EFD00FB78347D50093F7F7016398070052
:102ED80003258501133515006780000013050000E0
:102EE80067800000130101FF23261100EFF04FF364
:102EF800B777008083A787CE8320C100377700800B
:102F08003385A700232EA70093050000138507002B
:102F1800130101016F20C04F83270500130101FF32
:102F28002324810023261100232291001304050085
:102F380063980702B7740080B77500803765008012
:102F48009385458D1305C557930630181386048C51
:102F5800EFF04FA1930530181385048CEFF04FA4C0
:102F6800032504008320C100032481008324410039
:102F78001301010167800000130101FE232C810069
:102F88002326310123244101232E1100232A9100F5
:102F980023282101130A05009389050013048000E2
:102FA80073340430B7740080138504CE137484001E
:102FB800EF109031631E050237690080B765008005
:102FC80037650080938505669306E00413068964D7
:102FD8001305C557EFF00F9937650080130585670E
:102FE800EFF04F989305E00413058964EFF04F9BC9
:102FF800138504CEEF10D032B77700809305A00078
:1030080013059A0023AE0700EFD09F8AB777008098
:10301800377900802324A9CE23A237CFEFF09FEC85
:10302800138504CEEF10D02C631E0502B764008010
:10303800B76500803765008093850569930610069B
:10304800138684641305C557EFF0CF913765008068
:103058001305856AEFF00F919305100613858464B4
:10306800EFF00F94732404308320C10103248101FD
:1030780083244101032901018329C100032A810016
:103088001301010267800000130101FE232C810057
:1030980023282101232E1100232A91002326310100
:1030A800130905001304800073340430B7740080DA
:1030B800138504CE13748400EF101021631E0502DB
:1030C800B7690080B765008037650080938505661D
:1030D8009306E004138689641305C557EFF08F88BB
:1030E8003765008013058567EFF0CF879305E00407
:1030F80013858964EFF0CF8A138504CEEF10502230
:1031080013058900EFF05FE193050900EF00002F38
:103118008347D900138504CE93F7D7FFA306F90098
:10312800EF10101D631E0502B7640080B7650080AC
:1031380037650080938505699306100613868464B5
:103148001305C557EFF00F82376500801305856AB0
:10315800EFF04F819305100613858464EFF04F84D8
:10316800732404308320C10103248101232409002E
:1031780083244101032901018329C10013010102AC
:1031880067800000B777008083A7C700130101FF9D
:103198002324810023261100232291001384050093
:1031A800639E0704EF10D014631E0502B764008005
:1031B800B7650080376500809385056993068007A9
:1031C800138684641305C557EFE0DFF9376500807F
:1031D8001305856AEFE01FF993058007138584645A
:1031E800EFE01FFC13050400032481008320C100C5
:1031F80083244100130101016FD08F83EF10500F1A
:10320800631E0502B7640080B765008037650080DB
:103218009385056993061006138684641305C557BC
:10322800EFE05FF4376500801305856AEFE09FF3F0
:103238009305100613858464EFE09FF613748400E9
:10324800732404308320C1000324810083244100B7
:103258001301010167800000377700800327C7004A
:10326800631407006FC0DFFC93778500F3A707306E
:1032780067800000130580007335053013758500DD
:103288006FF09FFD130101FE232C8100232E1100F6
:10329800232A9100232821012326310113048000C9
:1032A80073340430B7740080138504CE137484001B
:1032B800EF109001631E050237690080B765008032
:1032C80037650080938505669306E00413068964D4
:1032D8001305C557EFE01FE93765008013058567BB
:1032E800EFE05FE89305E00413058964EFE05FEB26
:1032F800138504CE37790080EF1090028327C90028
:103308001309C900638E0702B7790080B77500807A
:103318003765008093858585930600101386C983D9
:103328001305C557EFE01FE43765008013050560F6
:10333800EFE05FE3930500101385C983EFE05FE6D4
:103348008327890003C7F70093071000631EF7025D
:10335800B7790080B7750080376500809385058749
:10336800930610101386C9831305C557EFE09FDF36
:103378003765008013050560EFE0DFDE9305101068
:103388001385C983EFE0DFE1032789008347F7004E
:103398009387F7FFA307F700138504CEEF10407556
:1033A800631E0502B7640080B7650080376500803A
:1033B8009385056993061006138684641305C5571B
:1033C800EFE05FDA376500801305856AEFE09FD983
:1033D8009305100613858464EFE09FDC73240430A2
:1033E8008320C101032481018324410103290101B0
:1033F8008329C1001301010267800000B7770080AC
:1034080083A707C1130101FF23248100232611008C
:1034180023229100138405006398F502B774008095
:10342800B7750080376500809385C5901305C5572B
:103438009306C0281386048CEFE0DFD29305C028DA
:103448001385048CEFE0DFD50327440083270400AD
:103458008320C100832441002320F70023A2E70032
:103468002320040023220400032481001301010106
:1034780067800000130101FE232C8100232A91009C
:10348800232E1100232821012326310113040500CE
:1034980093048000F3B4043037790080130509CE13
:1034A80093F48400EF104062631E0502B769008040
:1034B800B765008037650080938505669306E0044C
:1034C800138689641305C557EFE0DFC937650080A7
:1034D80013058567EFE01FC99305E0041385896428
:1034E800EFE01FCC130509CEEF10806313058400AD
:1034F800EFF09FA293050400EFF05FF08347D4003C
:10350800130509CE93F7D7FFA306F400EF10405E2A
:10351800631E050237690080B76500803765008043
:103528009385056993061006130689641305C55724
:10353800EFE05FC3376500801305856AEFE09FC23F
:103548009305100613058964EFE09FC5F3A40430C2
:103558002324040013058401032481018320C1016D
:1035680083244101032901018329C10013010102B8
:103578006F10D04C832705006314F50093070000F3
:103588001385070067800000130101FF23248100D1
:103598003774008023202101130905001305C40096
:1035A800130545022322910023261100EFF09FFC0A
:1035B8001304C40093040500631405008324C400A5
:1035C800631E090683278400639E070237790080FB
:1035D800B7750080376500809385C58E9306F00720
:1035E8001306098C1305C557EFE0DFB73765008070
:1035F80013050560EFE01FB79305F0071305098C65
:10360800EFE01FBA8327840003C7D7001377F701B9
:103618006316070283D6E7001307F0076370D70223
:103628002320F4028320C100032481008324410065
:10363800032901001301010167800000832784002A
:1036480063849700EFF01F8A232094026FF09FFD98
:10365800130101FE23282101377900809307C9004F
:1036680083A78700232E1100232C810083C7F7002E
:10367800232A9100232631011309C900639E0702FA
:1036880037740080B7750080376500809385858919
:10369800930610221306048C1305C557EFE09FAC60
:1036A8003765008013050560EFE0DFAB9305102256
:1036B8001305048CEFE0DFAE83270900638E070251
:1036C80037740080B77500803765008093858585DD
:1036D800930620221306048C1305C557EFE09FA814
:1036E8003765008013050560EFE0DFA7930520220A
:1036F8001305048CEFE0DFAA130480007334043050
:10370800B7740080138504CE13748400EF10C03B97
:10371800631E0502B7690080B765008037650080C1
:10372800938505669306E004138689641305C557D7
:10373800EFE05FA33765008013058567EFE09FA280
:103748009305E00413858964EFE09FA5138504CEF3
:10375800EF10003D03278900130510008347F70089
:1037680093871700A307F700EFF01FE2138504CE35
:10377800EF100038631E0502B7640080B76500804B
:10378800376500809385056993061006138684645F
:103798001305C557EFE01F9D376500801305856A3F
:1037A800EFE05F9C9305100613858464EFE05F9F4C
:1037B80073240430032481018320C101832441013F
:1037C800032901018329C100130101026FF09FAA97
:1037D800130101FE232C8100232A9100232E1100BE
:1037E80023282101232631011304050093048000B6
:1037F800F3B4043037790080130509CE93F48400BC
:10380800EF10802C631E0502B7690080B765008041
:1038180037650080938505669306E00413868964FE
:103828001305C557EFE01F943765008013058567BA
:10383800EFE05F939305E00413858964EFE05F96FA
:10384800130509CEEF10C02DB777008083A707C1F5
:103858006318F402B7790080B77500803765008077
:103868009385C5901305C557930660271386098C61
:10387800EFE05F8F930560271385098CEFE05F9277
:10388800377700809306C70083A7460203A68602FF
:10389800B7760080938606031307C7006386D70AA6
:1038A8006384070A8305E4000385E70063D8A50855
:1038B80003A747002320F4002322E40023208700E5
:1038C80023A287008347D4001305000093E7070469
:1038D800A306F400EFF05FCB130509CEEF104021EB
:1038E800631E050237640080B76500803765008075
:1038F8009385056993061006130684641305C55756
:10390800EFE05F86376500801305856AEFE09F85E5
:103918009305100613058464EFE09F88F3A4043030
:103928008320C1010324810183244101032901016A
:103938008329C10013010102678000006306F600B5
:1039480083A70700E39207F62322C4008327870290
:103958002320D40023A08700232487026FF09FF63A
:10396800832705FF130101FE232C81002326310143
:10397800232E1100232A9100232821012324410109
:1039880013040500930985FE6384070C93048000E3
:10399800F3B4043037790080130509CE93F484001A
:1039A800EF108012631E0502376A0080B765008039
:1039B80037650080938505669306E00413068A64DC
:1039C8001305C557EFE00FFA3765008013058567C3
:1039D800EFE04FF99305E00413058A64EFE04FFC2C
:1039E800130509CEEF10C013130504FFEFF0CFD273
:1039F80093850900EFF09FA0834754FF130509CE74
:103A080093F7D7FFA30AF4FEEF10800E631E05029A
:103A180037690080B7650080376500809385056940
:103A280093061006130689641305C557EFE08FF354
:103A3800376500801305856AEFE0CFF2930510061D
:103A480013058964EFE0CFF5F3A40430232804FEBE
:103A5800834754FF1385090093F7B7FEA30AF4FEC2
:103A6800EFF04FC663040502032481018320C101DE
:103A78008324410103290101032A810013850900D8
:103A88008329C100130101026FF09FD48320C10173
:103A98000324810183244101032901018329C100F1
:103AA800032A81001301010267800000130101FE4F
:103AB800232C810023282101232E1100232A910081
:103AC8002326310123244101232251011304050037
:103AD8001309800073390930B7790080138509CE3E
:103AE80013798900EF00507E631E0502B7640080D9
:103AF800B765008037650080938505669306E00406
:103B0800138684641305C557EFE0CFE53765008059
:103B180013058567EFE00FE59305E00413858464DA
:103B2800EFE00FE8138509CEEF00907FB7740080AF
:103B38001385C4009305040013054502EFF01F8C9C
:103B4800B777008083A707C1377A00809384C400C1
:103B5800130A0A036318F402B77A0080B775008065
:103B6800376500809385C5901305C5579306602770
:103B780013860A8CEFE00FDF9305602713850A8C04
:103B8800EFE00FE283A7440203A78402638E470B8A
:103B9800638C070A8306E4000386E70063D0C60A3D
:103BA80003A747002320F4002322E40023208700F2
:103BB80023A287008347D40003A5840093E7070462
:103BC8003305854013351500A306F400EFF0DF9B9D
:103BD800138509CEEF00D071631E0502376400809B
:103BE800B7650080376500809385056993061006E0
:103BF800130684641305C557EFE0CFD637650080F8
:103C08001305856AEFE00FD6930510061305846443
:103C1800EFE00FD9732909308320C1010324810102
:103C280083244101032901018329C100032A81005A
:103C3800832A410013010102678000006386E700C0
:103C480083A70700E39A07F42322E40083A78402EA
:103C58002320440123A0870023A484026FF09FF54A
:103C6800B777008083A787CE63860706B77700807B
:103C78009387C70003A787009306F0070356E7005A
:103C880063EAC604B77600800306E70083A646CE3B
:103C98006342D604B776008083A606C1630CD702B8
:103CA800832687016398060283A607016340D5022D
:103CB800130101FF1305070023261100EFF01FDF92
:103CC8008320C100130101016FF0CFA1B386A64084
:103CD80023A8D70067800000130101FE232C810070
:103CE80023263101232E1100232A910023282101A4
:103CF800930905001304800073340430B7740080FE
:103D0800138504CE13748400EF00105C631E050253
:103D180037690080B7650080376500809385056640
:103D28009306E004130689641305C557EFE08FC3B3
:103D38003765008013058567EFE0CFC29305E0047F
:103D480013058964EFE0CFC5138504CEEF00505DFD
:103D580083C7D900377900801309C90093F707048E
:103D6800638E07009385090013054902EFF00FE9F8
:103D780083C7D90093F7F7FBA386F90003258900C9
:103D88003305354113351500EFF01F80138504CE38
:103D9800EF001056631E0502B7640080B765008007
:103DA8003765008093850569930610061386846439
:103DB8001305C557EFE00FBB376500801305856A0B
:103DC800EFE04FBA9305100613858464EFE04FBD0A
:103DD800732404308320C101032481018324410119
:103DE800032901018329C100130101026780000032
:103DF800130101FE232C8100232A910013040500DE
:103E080023282101232E1100232631019384050044
:103E180013090600EFF05FEC8347D40093E727000F
:103E2800A306F40063860406B777008083A707C15A
:103E3800232494006318F402B7790080B7750080D2
:103E4800376500809385C5901305C557930660278D
:103E58001386098CEFE00FB1930560271385098C51
:103E6800EFE00FB483A70400638CF406638A0706A7
:103E78000307E4008386E700635CD70403A74700D1
:103E88002320F4002322E4002320870023A28700B4
:103E98009307F0FF6304F9069305A0001305990042
:103EA800EFC01FA113061500130584010324810127
:103EB8008320C10183244101032901018329C10011
:103EC800B745008093858596130101026F10401451
:103ED80083A644006386D70083A70700E39C07F8FE
:103EE80083A74400232094002322F40083A74400DE
:103EF80023A0870023A284006FF09FF98320C101CB
:103F08000324810183244101032901018329C1007C
:103F18001301010267800000130101FFB7770080D9
:103F2800232481001304050003A54701232611005B
:103F3800EFF01FEC13050400032481008320C10067
:103F4800130101016FC0CFAE130101FFB7770080E5
:103F5800232481001304050003A5470123229100AF
:103F68009384050093050600138606002326110096
:103F7800EFF01FE813050400EF009037631E0502F9
:103F880037640080B76500803765008093850569D0
:103F980093068007130684641305C557EFE08F9CCA
:103FA800376500801305856AEFE0CF9B930580078E
:103FB80013058464EFE0CF9E032481008320C100B1
:103FC8001385040083244100130101016FC04FA62B
:103FD800130101FE2328210123263101232E11007C
:103FE800232C8100232A91009309050013098000DE
:103FF80073390930B7740080138504CE13798900AA
:10400800EF00902C631E050237640080B7650080BE
:1040180037650080938505669306E004130684647B
:104028001305C557EFE00F943765008013058567C2
:10403800EFE04F939305E00413058464EFE04F9697
:10404800138504CEEF00D02D13850900EFF08FD231
:1040580013040500138504CEEF009029631E0502A2
:10406800B7690080B765008037650080938505696A
:1040780093061006138689641305C557EFE08F8EE3
:10408800376500801305856AEFE0CF8D930510062C
:1040980013858964EFE0CF90732909306306040C17
:1040A8001309800073390930138504CE1379890008
:1040B800EF009021631E0502B7690080B765008094
:1040C80037650080938505669306E0041386896446
:1040D8001305C557EFE00F8937650080130585671D
:1040E800EFE04F889305E00413858964EFE04F8B78
:1040F800138504CEEF00D02213058400EFE0DFE142
:1041080093050400EFF08FAF8347D400138504CEE6
:1041180093F7D7FFA306F400EF00901D631E050276
:10412800B7640080B76500803765008093850569AE
:1041380093061006138684641305C557EFE08F8233
:10414800376500801305856AEFE0CF819305100677
:1041580013858464EFE0CF84732909302324040095
:1041680013058401EF10800D130504008320C1019D
:104178000324810183244101032901018329C1000A
:104188001301010267800000130101FF232291003F
:10419800232021012326110023248100130905006F
:1041A80093040000032409006304890063100402D7
:1041B8008320C10003248100138504000329010022
:1041C80083244100130101016780000013050400E6
:1041D800EFF04FAA13050400EFE0DFCE93041000C0
:1041E800E30205FC13050400EFF08FDE6FF09FFB80
:1041F800B77700809387C7001387470223A2E70297
:1042080023A4E70293050000130500006FE0DFD642
:10421800B777008003A5470167800000130101FEFE
:10422800232C8100232A910023282101232E110009
:1042380023263101130405001389050093040600A1
:10424800631E0602B7790080B77500803765008065
:104258009385059393066004138609921305C55741
:10426800EFD05FF0377500801305C593EFD09FEF4F
:104278009305600413850992EFD09FF263FE24032F
:10428800B7790080B77500803765008093854595BC
:1042980093067004138609921305C557EFD09FEC57
:1042A800377500801305C596EFD0DFEB93057004D2
:1042B80013850992EFD0DFEE2324240123269400EE
:1042C80023208400232284008320C1010324810148
:1042D80083244101032901018329C100130101023B
:1042E80067800000130101FE232A91002326310173
:1042F800232E1100232C8100232821019309050076
:1043080093048000F3B40430377400801305C4CEDE
:1043180093F48400EF00407B631E05023769008038
:10432800B765008037650080938505669306E004CD
:10433800130689641305C557EFD0DFE2376500809F
:1043480013058567EFD01FE29305E0041305896420
:10435800EFD01FE51305C4CEEF00807C138509005C
:10436800EFF01FC713090500630205048347D50052
:1043780093F7F70163980700832785016394070083
:10438800EFF00FC5232609061305C4CE03248101C7
:104398008320C101032901018329C10093850400F9
:1043A80083244101130101026FE0DFDD03A78900C7
:1043B80083A7C900B387E740B337F000B387E700A6
:1043C80023A4F9006FF05FFCB777008083A7C700CC
:1043D800130101FE2328210123263101232E110078
:1043E800232C8100232A910023244101130905006D
:1043F8009389050063800704638E05023774008083
:10440800B775008037650080938545999306C00885
:10441800130604921305C557EFD0DFD43765008023
:1044280013050560EFD01FD49305C0081305049247
:10443800EFD01FD71304800073340430B7740080A2
:104448001385C4CE13748400EF000068631E050250
:10445800376A0080B76500803765008093850566F8
:104468009306E00413068A641305C557EFD09FCF5F
:104478003765008013058567EFD0DFCE9305E0042C
:1044880013058A64EFD0DFD11385C4CEEF004069ED
:1044980083278900638C07069387F7FF2324F90095
:1044A8001385C4CEEF00C064631E0502B7640080A4
:1044B800B765008037650080938505699306100607
:1044C800138684641305C557EFD0DFC937650080AC
:1044D8001305856AEFD01FC99305100613858464F8
:1044E800EFD01FCC73240430130500008320C101D2
:1044F8000324810183244101032901018329C10087
:10450800032A81001301010267800000639A0904ED
:104518001385C4CEEF00C05D631E0502B76400803A
:10452800B765008037650080938505699306100696
:10453800138684641305C557EFD0DFC23765008042
:104548001305856AEFD01FC293051006138584648E
:10455800EFD01FC573240430130500FF6FF01FF957
:1045680093050400032481018320C101032A8100EB
:1045780093860900130609008329C1000329010154
:104588001385C4CE83244101130101026FF0DF9B20
:10459800131626002326B5002328B500B385C500C9
:1045A8002320A5002322A50023240500232AB500E3
:1045B80067800000130101FE232C8100130405000D
:1045C80013850500232E11002326B100EF10406843
:1045D800630805020326C1009305050013050400BE
:1045E800EFF01FFB93071000230CF40013050000E5
:1045F8008320C101032481011301010267800000A7
:10460800130540FF6FF0DFFE83270500130101FF4C
:10461800232481002326110023229100130405007E
:10462800630AF50263880702B7740080B7750080D3
:10463800376500809385C59D1305C5579306A0056A
:104648001386849CEFD01FB29305A0051385849C24
:10465800EFD01FB58347840193F71700638E0700D7
:104668000325C400EF10C05D83478401232604009E
:1046780093F7E7FF230CF4008320C1000324810093
:10468800832441001301010167800000032705010D
:1046980083274501130101FE232A910023244101A8
:1046A800232E1100232C81002328210123263101E8
:1046B80093040500138A0500631EF702377400800F
:1046C800B775008037650080938585A093068006BE
:1046D8001306849C1305C557EFD0DFA837750080F3
:1046E800130545A2EFD01FA8930580061305849CE7
:1046F800EFD01FAB93898400130480007334043017
:104708001385090013748400EF00003C631E050242
:1047180037690080B7650080376500809385056636
:104728009306E004130689641305C557EFD09FA3C9
:104738003765008013058567EFD0DFA29305E00495
:1047480013058964EFD0DFA513850900EF00403D0C
:1047580013850400EFF0DF871309050063060504DD
:104768008347D50093F7F7016398070083278501EE
:1047780063940700EFF0CF859305040003248101BB
:10478800232A4901232609068320C10183244101E4
:1047980003290101032A8100138509008329C10027
:1047A800130101026FE01F9E83A70401138509000E
:1047B80023A047019387470023A8F400EF00403364
:1047C800631E0502B7640080B76500803765008006
:1047D8009385056993061006138684641305C557E7
:1047E800EFD05F98376500801305856AEFD09F97F3
:1047F8009305100613858464EFD09F9A73240430C0
:104808008320C1010324810183244101032901017B
:104818008329C100032A8100130101026780000077
:10482800130101FE232C8100232A91002328210152
:104838002326310123244101232E11002322510173
:104848001309050093890500130A060093048500DF
:104858001304800073340430138504001374840037
:10486800EF008026631E0502B76A0080B7650080E6
:1048780037650080938505669306E00413868A648D
:104888001305C557EFD01F8E376500801305856760
:10489800EFD05F8D9305E00413858A64EFD05F90B5
:1048A80013850400EF00C027832709010327C900E7
:1048B8006372F7061387C7FF83A7C7FF2328E9009A
:1048C8001385040023A0F900EF008022631E05026F
:1048D800B7640080B76500803765008093850569F7
:1048E80093061006138684641305C557EFD09F8777
:1048F800376500801305856AEFD0DF8693051006BB
:1049080013858464EFD0DF89732404301305000015
:104918006F004005631A0A0613850400EF00401D66
:10492800631E0502B7640080B765008037650080A4
:104938009385056993061006138684641305C55785
:10494800EFD05F82376500801305856AEFD09F81BD
:104958009305100613858464EFD09F847324043074
:10496800130500FF8320C101032481018324410131
:10497800032901018329C100032A8100832A4100F8
:10498800130101026780000093060A00130609005C
:104998009305040013850400EFF00FDB930750FF25
:1049A800E302F5FCB777008083A7470183A7470197
:1049B80023A0F9006FF09FF58347D50093F7F7011F
:1049C80063980700032585011335150067800000EB
:1049D8001305000067800000B777008003A5C700B3
:1049E8003335A00067800000B777008083A74701B0
:1049F80003C5C7001375150067800000130101FE89
:104A080003230102232C8100232E1100232061009F
:104A180013040500EFC08FFDB777008083A7470117
:104A28008320C10183A787062324F4060324810178
:104A3800130101026780000083270506130101FFA7
:104A48002324810023261100130405006384070032
:104A5800E780070013050400EFF01FF66304050262
:104A680013050400EFF04FA78347D4008320C1004B
:104A780093E78700A306F4000324810013010101D2
:104A8800678000008347D40093F7270063860700F8
:104A980013050400EFE04FDF83278401E38607FC5A
:104AA80013058401EF0080796FF01FFC2306D50001
:104AB800A306C5002307B500A3070500232C05009E
:104AC800232E05006780000003250500630E0500FE
:104AD800B777008083C70702137535003305F540A3
:104AE8003335A000678000001305100067800000C0
:104AF800B77700809387C70003C7470183A787005C
:104B0800B3E7E700032705006318F7002320050033
:104B1800130510006780000013050000678000007F
:104B2800B77700809387C70003C7470183A787002B
:104B3800B3E7E7002320F50067800000130101FEBA
:104B4800232C810023282101232E1100232A9100E0
:104B5800232631011309050013048000733404303F
:104B6800B7740080138504CF13748400EFF0DFF569
:104B7800631E0502B7690080B7650080376500804D
:104B8800938505669306E004138689641305C55763
:104B9800EFD04FDD3765008013058567EFD08FDCD8
:104BA8009305E00413858964EFD08FDF138504CF64
:104BB800EFF01FF78347D90013F747006314070680
:104BC800138504CFEFF0DFF2631E0502B76400809F
:104BD800B7650080376500809385056993061006E0
:104BE800138684641305C557EFD0CFD73765008087
:104BF8001305856AEFD00FD79305100613858464D3
:104C0800EFD00FDA732404308320C101032481011B
:104C180083244101032901018329C10013010102F1
:104C28006780000093F7B7FFA306F9001305090092
:104C3800EFF09FD86306050013050900EFE05FB9A0
:104C480093050400032481018320C1010329010184
:104C58008329C100138504CF832441011301010274
:104C68006FE04FD2639405006FF05FED130101FF11
:104C780023248100130405001385050013059500FE
:104C88009305A00023261100EFB09FC2130615005C
:104C980013058401032481008320C100B7450080E7
:104CA80093858596130101016F008036130101FC7D
:104CB80023225103938A0600B776008083A6C60094
:104CC800232C8102232A9102232631032324410322
:104CD800232E1102232821031304050093890500BC
:104CE800130A060083244104638E06043779008082
:104CF800B7750080376500809306201B130649A30B
:104D0800938585851305C557232E1101232C010191
:104D1800232AF1002328E100EFD0CFC437750080A3
:104D2800130585A4EFD00FC49305201B130549A3D1
:104D3800EFD00FC78328C1010328810183274101D0
:104D480003270101832601042322010013060A0018
:104D58002320D1009385090093860A0013050400D7
:104D6800EFF0DFC99307F0FF6388F4009385040030
:104D780013050400EFF01FEF130504008320C1039F
:104D88000324810383244103032901038329C102E6
:104D9800032A8102832A410213010104678000006B
:104DA800130101FEB777008023282101377900809D
:104DB800232C8100232A9100232E1100138447C439
:104DC800938447C4130949C4636624031384040005
:104DD800EFE04FCB9304F0FF6360240703248101C5
:104DE8008320C10183244101032901011301010228
:104DF8006FE01F868327C4022322F1008327040261
:104E08002320F100832744018328C4010328840157
:104E1800032704018326C400032684008325440055
:104E280003250400EFF09FBD8327040023AE870409
:104E3800130404036FF05FF9832544026386950029
:104E480003250400EFF01FE2130404036FF0DFF8FA
:104E5800130101FE232C8100232A9100232E110027
:104E68002328210193040500232601001304800050
:104E7800733404301305C10013748400EFF0DFC4E9
:104E8800631E050237690080B765008037650080BA
:104E9800938505669306E004130689641305C557D0
:104EA800EFD04FAC3765008013058567EFD08FAB27
:104EB8009305E00413058964EFD08FAE1305C10094
:104EC800EFF01FC683C7C40093F71700638E07026D
:104ED80037790080B775008037650080938585A88D
:104EE80093069002130609A71305C557EFD08FA79D
:104EF800377500801305C5ABEFD0CFA69305900298
:104F0800130509A7EFD0CFA913850400EFF0DFB28E
:104F1800930504001305C100EFE0CFA68320C1016B
:104F280003248101832441010329010113010102A2
:104F380067800000B777008083A747CF6394070096
:104F48006FD00FEE1305000067800000832705006F
:104F58006302050237770080032787C0630CE500EA
:104F6800638A070003A78700832685003307D700D5
:104F780023A4E700032745002320F70023A2E70026
:104F8800232005002322050067800000B7770080F2
:104F980083C707D0130101FF2326110023248100B2
:104FA800232291001305F0FF639607003705008060
:104FB8001345F5FFB7770080938747C003A4070020
:104FC8006304F4026302040283248400EFF09FF672
:104FD800B384A4401305000063C8040003248400BC
:104FE800EFF05FF53305A440B777008083A7C701CA
:104FF8006386070063D4A700138507008320C100D8
:10500800032481008324410013010101678000000B
:1050180083270500130101FD232481022322910225
:10502800232E31012326110223202103232C4101A1
:10503800232A510123286101232671012324810198
:10504800130405009389050093040600638E070284
:1050580037790080B7750080376500809385C5AEC5
:105068009306D004130689AD1305C557EFD08F8F6B
:105078003765008013050560EFD0CF8E9305D00407
:10508800130589ADEFD0CF912326340163449000F6
:105098009304100093098000F3B90930377A00802F
:1050A80013058ACF93F98900EFF01FA2631E05024A
:1050B80037690080B765008037650080938505668D
:1050C8009306E004130689641305C557EFD08F894A
:1050D8003765008013058567EFD0CF889305E00416
:1050E80013058964EFD0CF8B13058ACFEFF05FA348
:1050F800EFF05FE433059500B774008003A944C05E
:105108002324A400938444C0630C9900B77A0080D8
:10511800377B0080B76B0080376C00806310090212
:1051280083A74400232094002322F40083A744008B
:1051380023A0870023A284006F00C005832789006D
:1051480063D607029305CBB09306600513868AAD34
:105158001385CB57EFD00F8113050C60EFD08F80EC
:105168009305600513858AADEFD08F8303278900E7
:105178008327840063D8E70AB307F7402324F9009C
:1051880083274900232024012322F40023A0870039
:105198002322890083A70400638A97006318F40018
:1051A800EFF0DFDE93050000EFD00FAD13058ACFD7
:1051B800EFF01F94631E050237640080B765008016
:1051C8003765008093850569930610061306846485
:1051D8001305C557EFC01FF9376500801305856AA9
:1051E800EFC05FF89305100613058464EFC05FFBFA
:1051F800F3A909308320C1020324810283244102D8
:10520800032901028329C101032A8101832A41015B
:10521800032B0101832BC100032C8100130101031F
:1052280067800000B387E7402324F40083A7440085
:10523800E38827EF032909006FF05FEE130101FEF1
:10524800232C810023263101232E1100232A9100CB
:1052580023282101930905001304800073340430C6
:10526800B7740080138584CF13748400EFF0DF8552
:10527800631E050237690080B765008037650080C6
:10528800938505669306E004130689641305C557DC
:10529800EFC05FED3765008013058567EFC09FECB1
:1052A8009305E00413058964EFC09FEF138584CF4D
:1052B800EFF01F8783A709001309A0FE6388070082
:1052C80013850900EFF09FC813090000138584CFE8
:1052D800EFF01F82631E0502B7640080B765008087
:1052E80037650080938505699306100613868464E4
:1052F8001305C557EFC01FE7376500801305856A9A
:10530800EFC05FE69305100613858464EFC05FE97C
:10531800732404308320C10103248101130509008B
:1053280083244101032901018329C10013010102DA
:1053380067800000130101FF232481002326110048
:1053480023229100232021011304800073340430A8
:10535800B7740080138584CF13748400EFF0CFF600
:10536800631E050237690080B765008037650080D5
:10537800938505669306E004130689641305C557EB
:10538800EFC05FDE3765008013058567EFC09FDDDE
:105398009305E00413058964EFC09FE0138584CF6B
:1053A800EFF00FF8EFF09FBE13090500138584CFC7
:1053B800EFF00FF4631E0502B7640080B765008044
:1053C8003765008093850569930610061386846403
:1053D8001305C557EFC01FD9376500801305856AC7
:1053E800EFC05FD89305100613858464EFC05FDBB8
:1053F800732404308320C1000324810013050900AD
:105408008324410003290100130101016780000082
:10541800130101FE232C81002328210123244101AB
:10542800232E1100232A9100232631011309050098
:10543800138A05001304800073340430B7740080A5
:10544800138584CF13748400EFF00FE8631E050200
:10545800B7690080B7650080376500809385056669
:105468009306E004138689641305C557EFC09FCFE0
:105478003765008013058567EFC0DFCE9305E0042C
:1054880013858964EFC0DFD1138584CFEFF04FE92E
:10549800EFF0DFAF635CA9009307100063D8A700A3
:1054A80093050A0013050900EFC01FFD138584CF7B
:1054B800EFF00FE4631E0502B7640080B765008053
:1054C8003765008093850569930610061386846402
:1054D8001305C557EFC01FC9376500801305856AD6
:1054E800EFC05FC89305100613858464EFC05FCBD7
:1054F800732404308320C1010324810183244101E2
:10550800032901018329C100032A81001301010233
:1055180067800000130101FD23248102232C41012F
:10552800232611022322910223202103232E310155
:10553800232A510123286101232671012324810193
:10554800232291012320A101130A050013048000DE
:10555800EFE00FF17334043037790080130589CFF9
:1055680013748400EFF04FD6631E0502B764008001
:10557800B765008037650080938505669306E0046B
:10558800138684641305C557EFC0DFBD37650080F7
:1055980013058567EFC01FBD9305E0041385846478
:1055A800EFC01FC0B7790080130589CFEFF04FD740
:1055B800B774008023AA49CF377A0080938949CFEE
:1055C800130A4AC0938484CBB76A0080B76B008003
:1055D800376B0080376C0080B76C0080032D0A00A1
:1055E80083A7090083A6040003A54400630C4D01AA
:1055F800630A0D0003278D0063DCE70A3307F740D1
:105608002324ED00B386D70013D7F7413307A7004B
:10561800B3B7F600B387E70023A0D40023A2F400B1
:1056280023A00900EFF09F9693050000EFC0DFE488
:10563800130589CFEFF0CFCB631E0502B764008056
:10564800B765008037650080938505699306100665
:10565800138684641305C557EFC0DFB03765008033
:105668001305856AEFC01FB093051006138584647F
:10567800EFC01FB3732404308320C10203248102C6
:1056880083244102032901028329C101032A8101DC
:10569800832A4101032B0101832BC100032C8100C4
:1056A800832C4100032D01001301010367800000D2
:1056B800B306D7009355F741B385A50033B6E60086
:1056C8003306B600B387E74013050D0023240D0009
:1056D80023A0D40023A2C40023A0F900EFF01F8761
:1056E800130589CFEFF0CFC06316050293850B69C8
:1056F8009306100613868A641305CB57EFC09FA63E
:1057080013058C6AEFC01FA69305100613858A64DB
:10571800EFC01FA9732404308327CD0013050D00A3
:1057280013048000E780070073340430130589CF21
:1057380013748400EFF04FB96318050293850C6663
:105748009306E00413868A641305CB57EFC09FA124
:105758003765008013058567EFC0DFA09305E00477
:1057680013858A64EFC0DFA3130589CFEFF04FBB21
:105778006FF0DFE6130101FE232A9100232E1100AA
:10578800232C810023282101232631019304800042
:10579800F3B4043037790080130589CF93F484007B
:1057A800EFF08FB2631E050237640080B765008092
:1057B80037650080938505669306E00413068464C4
:1057C8001305C557EFC01F9A376500801305856715
:1057D800EFC05F999305E00413058464EFC05F9CF4
:1057E800130589CFEFF0CFB3EFC09FE3B777008001
:1057F800938787CB83A9070003A44700B309350122
:1058080033B5A90033048500130589CFEFF04FAEF7
:10581800631E050237690080B76500803765008020
:105828009385056993061006130689641305C55701
:10583800EFC05F93376500801305856AEFC09F92BC
:105848009305100613058964EFC09F95F3A40430EF
:10585800930504008320C1010324810113850900F5
:1058680083244101032901018329C1001301010295
:1058780067800000130101FF232481002322910087
:1058880037740080B774008023261100130444C4C1
:10589800938404C6636E94008320C10003248100AE
:1058A80083244100130500001301010167800000F3
:1058B8009307440113050400232AF400232CF40061
:1058C800EFB05FB11304C4016FF0DFFCB77700805D
:1058D80083A7C700130101FB232481042322910419
:1058E800232E3103232861032326110423202105B5
:1058F800232C4103232A51032326710323248103E4
:10590800232291032320A103232EB101930905002B
:1059180093840500130B06001384060063820716A0
:10592800639406121309000037750080130545C4F7
:105938003385A940B775DBB6938575DB13552540CC
:10594800EFA0DFF437FAFFFFB71A0000137CF50F5A
:10595800930B50FF930C40FF130AFA0F938AFAFF38
:10596800130D8000938D4901138704009306C1002D
:105978001306810093050B0013850900EFB01FBAC9
:1059880063127503138704009306C1001306810090
:1059980093050B0013850900EFB05FB86314750118
:1059A800130540FF832781002382840193F7F700C2
:1059B8001397870083A74400B3F74701B3E7E700CD
:1059C8000327C100B3F757011317C700B3E7E70070
:1059D80023A2F400630C0502630A0402631895030A
:1059E80073350D301306040093850D00137585007B
:1059F800EFE08FD29307F0FFE308F4F6EFF09FD7BC
:105A08003304A940E35204F6130550FF8320C10470
:105A18000324810483244104032901048329C10345
:105A2800032A8103832A4103032B0103832BC10229
:105A3800032C8102832C4102032D0102832DC10115
:105A4800130101056780000037790080B775008071
:105A580037650080938505B3930690031306C9B193
:105A68001305C557EFC00FF03765008013050560B3
:105A7800EFC04FEF930590031305C9B1EFC04FF284
:105A8800E35280EAEFF01FCF130905009305A00049
:105A980013059400EFA0DFE1330925016FF0DFE87B
:105AA80083470500130101FE03260500232C81000E
:105AB80013943700232821013304F44037790080F8
:105AC8001314240093558600130549C41356C600C1
