:0200000480007A
:100000009702000093820201739052306F005057A4
:10001000130101FB2320110023223100232441007E
:100020002326510023286100232A7100232CC101BB
:10003000232ED1012320E1032322F1032324A10253
:100040002326B1022328C102232AD102232CE10254
:10005000232EF1022320010523221105F32210345F
:1000600023245104F322003023265104EF00001F03
:1000700013030000631E0502F3222034B70300803F
:100080009383F3FFB3F272001303B000638A62003C
:100090001305010097000000938040136F00D041CA
:1000A0008322810493824200232451046F000009BB
:1000B0009302010097730000938303C903A14300D7
:1000C000130101FF2320510003AE0300130E1E0095
:1000D00023A0C30163080300970000009380C003BE
:1000E0006F00504673252034B70200809382F2FFE0
:1000F00033755500EF00801597620000938242AF80
:1001000013153500B382A20003A5020003A3420029
:10011000E700030017730000130303C383230300E6
:100120009383F3FF232073008322010013810200D5
:1001300083238300032E030263087E089772000066
:10014000938282C003A38200232683022328930282
:10015000232A2303232C3303232E43032320530575
:10016000232263052324730523268305232893056F
:10017000232AA305232CB30523242302977300000D
:100180009383038303AE03002326C30703A3020262
:1001900023A46200032183020324C30283240303F4
:1001A0000329430383298303032AC303832A030404
:1001B000032B4304832B8304032CC304832C0305E8
:1001C000032D4305832D830583228104739012340C
:1001D0008322C104739002308320010083214100F7
:1001E000032281008322C1000323010183234101F3
:1001F000032E8101832EC101032F0102832F4102AF
:10020000032581028325C1020326010383264103BE
:10021000032781038327C1030328010483284104A2
:100220001301010573002030730000009772000075
:10023000938282B103A382008323C30613758500D2
:10024000F3220530138503006780000013031000BC
:10025000B312A30073B3423467800000F32220344A
:1002600037030080B3F262001305000063840200CC
:08027000130515006780000072
:100278006300060293070002B387C740634CF0008F
:10028800130506FE1307000033D5A50093050700E4
:100298006780000033D7C5003355C500B395F50016
:1002A8003365B5006FF09FFE9387050013080600BD
:1002B8001387060013030500639606289768000055
:1002C800938888AA63F6C50E370701006378E60CA1
:1002D8001307F00F3337C70013173700B356E6007C
:1002E800B388D80083C608003387E6009306000267
:1002F800B386E640638C0600B397D7003357E50012
:100308003318D600B365F7003313D5001355080129
:1003180033F7A50213160801135606019356030175
:10032800B3D5A50213170701B366D700B307B60202
:100338001387050063FEF600B38606011387F5FFF1
:1003480063E8060163F6F6001387E5FFB386060146
:10035800B386F640B3F7A602131303011353030140
:10036800B3D6A6029397070133E36700B305D60215
:1003780013850600637CB300330368001385F6FF1A
:10038800636603016374B3001385E6FF131707015F
:100398003367A700930500006F00400EB706000101
:1003A80013070001E36CD6F2130780016FF01FF307
:1003B800631606009306100033D8C602B70601007C
:1003C8006372D80C9306F00F63F4060113078000DC
:1003D800B356E800B388D80083C60800B386E600A1
:1003E800130700023307D7406318070AB38707418A
:1003F80093051000135608019318080193D80801B3
:100408009356030133F7C702B3D7C702131707017F
:10041800B366D7003385F8021387070063FEA6008A
:10042800B38606011387F7FF63E8060163F6A600A3
:100438001387E7FFB3860601B386A640B3F7C60263
:100448001313030113530301B3D6C602939707018D
:1004580033E36700B388D80213850600637C130171
:10046800330368001385F6FF6366030163741301A1
:100478001385E6FF131707013367A7001305070065
:1004880067800000B706000113070001E362D8F493
:10049800130780016FF0DFF33318E800B3D5D700F6
:1004A8003313E500B356D50013550801B397E70099
:1004B80033F7A502B3E8F6009317080193D70701AD
:1004C80013D60801B3D5A502131707013367C70070
:1004D800B386B70213860500637ED700330707018A
:1004E8001386F5FF636807016376D7001386E5FF77
:1004F80033070701B306D74033F7A60293980801DC
:1005080093D80801B3D6A60213170701B385D702FB
:10051800B36717011387060063FEB700B3870701A7
:100528001387F6FF63E8070163F6B7001387E6FF52
:10053800B3870701B387B74093150601B3E5E50014
:100548006FF05FEB63E6D5183707010063F4E60444
:100558001308F00F3337D8001317370033D8E600E5
:100568009765000093854580B385050103C805009C
:10057800930500023308E800B38505416396050238
:1005880013071000E3ECF6EE3335C50013471500EA
:100598006FF0DFEEB705000113070001E3E0B6FCDA
:1005A800130780016FF09FFB33570601B396B6001F
:1005B800B366D70093DE060133D70701B378D703B4
:1005C800B397B700335805013363F80093970601D2
:1005D80093D70701135803013316B6003357D703CF
:1005E8009398080133E80801338FE702130E0700D8
:1005F800637EE8013308D800130EF7FF6368D8005C
:100608006376E801130EE7FF3308D8003308E841A2
:10061800B378D8033358D80393980801B38E0703E7
:100628009317030193D70701B3E7F80013070800EE
:1006380063FED701B387D7001307F8FF63E8D70035
:1006480063F6D7011307E8FFB387D700131E0E011F
:10065800B387D741B70E01003367EE001388FEFF5A
:1006680033730701935807013378060113560601BF
:10067800330E03033388080393560E013303C30272
:1006880033030301B3866600B388C80263F4060126
:10069800B388D80113D60601B308160163E6170319
:1006A800E39A17CFB70701009387F7FFB3F6F60071
:1006B80093960601337EFE003315B500B386C60156
:1006C80093050000E37CD5DA1307F7FF6FF09FCCA2
:1006D80093050000130700006FF05FDA67800000E1
:1006E800B77700809387C7A303A70700130101FF0B
:1006F8002326E1000327C1001307170023A0E70002
:100708001301010167800000130101FD232E110070
:10071800232C8100232401032326110363160504D7
:1007280013860600376500809306070013870500C7
:10073800B765008013840700938545FC9307810201
:10074800130585FE2326F100EF1080578325C1008D
:1007580013050400EF10C0533765008013054516D4
:10076800EF100056EF10504C8320C1010324810183
:100778001301010367800000B7770080B775008018
:1007880037750080130101FE23AE07A29306F0FF20
:10079800B777008013060040938505D7130505A891
:1007A800232E110023AC07A2EF408046B716008025
:1007B800B7750080377500802322010023200100CF
:1007C8009308C000130800009307000013070000F7
:1007D800938686911306004093850517130545B047
:1007E800EF40801AB7160080B77500803775008013
:1007F800930700001307000093860699130600402C
:1008080023220100232001009308C00013080000E0
:1008180093850557130545B7EF400017B7A50000A6
:1008280037750080938505C4130545A0EF30D04B7C
:100838008320C101B7670080376700803766008072
:10084800B76500809387C7F5130707E89306C00DBF
:10085800130646FC9385C5F71335150013010102ED
:100868006FF09FEA130101FD23229102B7140000E3
:100878002324810223202103232E3101232C41012B
:10088800232611021309050093848438EF409053FE
:10089800B304950033B4A400B70900803304B4004E
:1008A8009389896E377A0080EF40D05163C88502FA
:1008B8006314B400636495028320C1020324810297
:1008C8001305090083244102032901028329C10178
:1008D800032A8101130101036780000093051000BA
:1008E8001305C1002322010023243101232601001E
:1008F800EF40D050137515006318050093054100AB
:1009080013050AA8EF200034130919006FF0DFF966
:10091800130101FF2320210137790080232481005E
:100928009305F0FF1305499E3774008023261100B4
:1009380023229100130484A3EF30103B0325040005
:10094800B7740080EFF01FF22320A4001385449FA2
:10095800EF30502B9305F0FF1305499EEF30D03848
:1009680003250400EFF01FF02320A40003248100D6
:100978008320C100032901001385449F832441007B
:10098800130101016F301028130101FC2326B10166
:10099800B77D008013854D9E232E1102232C8102E2
:1009A800232A9102232821032326310323244103E8
:1009B8002322510323206103232E7101232C81015B
:1009C800232A91012328A101EF30D0231305000029
:1009D800EFF05FE9B77C0080375D00001304050085
:1009E80093050DE213854C9FEF3010303769008076
:1009F800B7640080376C0080B76B008093070CE900
:100A08001307C9E6138644FC93854BEB9306300A1B
:100A180013351500377A0080EFF01FCF130A8AA329
:100A2800B779008003250A009389C9A383A7090021
:100A38003305A400376B0080B76A00803305F540A2
:100A48001307C9E69307CBEE138644FC9306600AA6
:100A580093850AF113351500EFF01FCB9305A0001D
:100A68001305A000EF20C04313854D9EEF30901969
:100A780013050400EFF01FDF93050DE213040500D2
:100A880013854C9FEF30502693070CE91307C9E6EE
:100A9800138644FC93854BEB9306000B1335150026
:100AA800EFF09FC603250A009307CBEE1307C9E6AC
:100AB8003304A40003A50900138644FC93850AF1B6
:100AC8003305A440133515009306300BEFF0DFC350
:100AD800032481038320C1038324410303290103E1
:100AE8008329C102032A8102832A4102032B0102BE
:100AF800832BC101032C8101832C4101032D0101AA
:100B0800832DC10037750080130545A0130101042A
:100B18006F30500FB7750080376500809385059753
:100B2800130545FB6F105013130101FF2326110015
:100B380023248100930760006304F502EF305039E5
:100B480063040502EF30D03863160504B7650080EA
:100B58009385052C376500801305452DEF10401649
:100B6800EF10001D6FF0DFFFEF309037E31C05FC3E
:100B780037740080130444D48325840037650080CB
:100B88001305452FEF10C01303258400EF30107AAA
:100B98006FF01FFDB76500809385C52B6FF09FFB35
:100BA800130101FB23248104232291042326110429
:100BB80093076000930405001384050063E0A70E03
:100BC800376700809317250013070701B387E700ED
:100BD80083A70700678007003765008013050514A1
:100BE800EF10000EEF30C0748327440483280401FB
:100BF8000328C4002328F1028327040403274400A0
:100C0800832604002326F1028327C40303268404D1
:100C1800930505002324F1028327840337650080A8
:100C28001305451C2322F102832744032320F102E4
:100C380083270403232EF1008327C402232CF10009
:100C480083278402232AF100832744022328F10002
:100C5800832704022326F1008327C4012324F100FB
:100C6800832784012322F100832744012320F100F4
:100C780083278400EF10C004930504001385040043
:100C8800EFF09FEA37650080130585166FF05FF572
:100C980037650080130545186FF09FF437650080AD
:100CA800938504001305051AEF1080016FF09FF378
:100CB800130101FF232481002326110013040500DA
:100CC8007326203413161600135616009307500087
:100CD80063E8C70237670080931726001307C70227
:100CE800B307F70083A50700376500801305C5041F
:100CF800EF00107D9305040013050000EFF05FEA94
:100D0800B7650080938545046FF01FFE130101FF4E
:100D180023261100F32520343765008093951500AC
:100D280093D515001305C531EF009079B76500809C
:100D38009385850613054000EFF09FE6B77700809E
:100D4800938707A403A70700630C070003A3070002
:100D580023A00700B777008003A547A46700030016
:100D680067800000130101FF23261100EF10102AED
:100D7800EF00107EEF105030177100001301013F93
:100D8800B71200009382028033015100EFF09FFDFB
:100D98006F009008130101FD232481022322910290
:100DA80023202103232E3101232C4101232A510121
:100DB8002328610123267101138B070023261102C2
:100DC800232481019307F000930405001384050090
:100DD80093090600138A0600930B0700930A08007C
:100DE80013890800639AF808B72700809387C77D9E
:100DF800639AF60883260103930509001385040006
:100E080013064000EF30501A938509FBB305B40070
:100E1800B727000023AE040423A0040693F505FFBA
:100E28009387078823A6F504B71700808320C1029B
:100E380003248102938787D923A4450323A6750336
:100E480023A8650323AA550323A4F50423A4B40205
:100E580003290102832441028329C101032A810154
:100E6800832A4101032B0101832BC100032C81003C
:100E78001301010367800000938608019307E001CE
:100E8800E3FAD7F6376C0080B765008037650080D5
:100E980013064C3493068001938545361305053FA8
:100EA800EF0010623765008093050900930600FF84
:100EB8001306E00013050541EF00906093058001DB
:100EC80013054C34EF0090636FF0DFF29307C00016
:100ED8003387F5028327C500B387E7000307B5000A
:100EE8006354B70083A70700130700023347E602DD
:100EF8001375F60113172700B387E70023A0F60040
:100F080067800000130101FE9306C100232E110023
:100F1800EFF0DFFB0327C100930710003395A7000C
:100F2800832707008320C101B3E7A7002320F70028
:100F38001301010267800000130101FE9306C1003E
:100F4800232E1100EFF09FF80327C100930710002C
:100F58003395A700832707008320C1011345F5FFB8
:100F680033F5A7002320A7001301010267800000C2
:100F78008327450003588500130101FF23248100BE
:100F88003308F80213040500032505008348A4006C
:100F98001307F0FF2326110023229100A305E40084
:100FA800930500001303C00033050501130EF0017B
:100FB800930E000263C21503930400008357840054
:100FC80063C4F4068320C100032481008324410004
:100FD80013010101678000003357F8020326C4009B
:100FE800B3866502B306D6001386460023A2C60060
:100FF80023A4C600634EEE00A305B40093D72700D0
:101008009387370093F7C7FF938515006FF09FFA12
:101018001307F7013347D70323A0A60013172700A8
:101028003305E5006FF09FFD832744001386040015
:10103800930500003387F402832704001305040096
:1010480093841400B387E7000327C400930647007E
:1010580023A0D7008326870023A2D70083268700F2
:1010680023A0F6002324F700EFF0DFE96FF01FF567
:10107800130101FB23248104232671032326110471
:101088002322910423202105232E3103232C4103FD
:10109800232A510323286103232481032322910354
:1010A8002320A103232EB10113040105034EA5003B
:1010B8009308000093172E009387F70093F7077F94
:1010C8003301F14083274500930B010013830B0084
:1010D8009387370093F7C7FF23A0FB00138CF8FF13
:1010E80063D4C803638C08008327C3FF93D7270002
:1010F8009387370093F7C7FF2320F30013034300B8
:101108008327C3FF63FAB7049307F0FF631AFC044D
:1011180023200700130540FF130104FB8320C104AB
:101128000324810483244104032901048329C1037E
:10113800032A8103832A4103032B0103832BC10262
:10114800032C8102832C4102032D0102832DC1014E
:101158001301010567800000938818006FF01FF8DD
:10116800834705011309000093F7170063880700F8
:101178001309800073390930137989009307C00077
:10118800B307FC02232EE4FA138D0600930C060025
:1011980093040500130A0C00138747008327C50032
:1011A800B387E7001307F0FF83A90700638C37179D
:1011B80083A7090003A74900931A2A00B38A5B0191
:1011C8002320F70023A2E70023A0090023A2090097
:1011D80083A7040003A60A0093050A00B387F94011
:1011E80033C6C70213850400130A1A00EFF0DFD4D0
:1011F8009306C0009307FAFF63C6870583C70401F7
:1012080093F7170063840700732909308327C4FB09
:10121800130540FF23A03701E38009F083A70400EA
:1012280013182C00B38B0B01B389F94083A70B006B
:1012380023A08C0113050000B3C9F90223203D0146
:101248006FF09FED83AD040083A70A00B30EDA02A6
:10125800B38DB94113071000B3CDFD02939D2D0046
:1012680003AB4A003306B70193050A00330EEB02BD
:10127800138504002328D4FB232CE4FA130BFBFF6B
:10128800338EC901232AC4FBEFF0DFC7032E44FBCA
:1012980083A7040003A64400330B6E01330BFB4005
:1012A80083D78400032784FB832E04FBB387C702FC
:1012B8009306C00093084000130380006374FB0288
:1012C80083A7C400B387D701138647002320CE0025
:1012D80003A687002322CE0003A687002320C60189
:1012E80023A4C70113071700E31C17F783C70401DA
:1012F80093F71700639A070013090000130A1A00EE
:10130800938A4A006FF01FEF7329093083C70401DD
:1013180093F71700E38207FE7339033013798900C6
:101328006FF0DFFD130AFAFF938749FFE31EEAE631
:10133800930900006FF09FEC130101FA232C81043C
:1013480023263105232E7103232E1104232A910409
:101358002328210523244105232251052320610543
:10136800232C8103232A91032328A1032326B103D5
:10137800130401068346A500930B0500130810000B
:10138800939626009386F60093F6067F3301D140A4
:1013980083264500930901001385090093863600CA
:1013A80093F6C6FF23A0D9001305450063F4050D85
:1013B80083C60B01138C05001309060093F616006B
:1013C800930400006388060093048000F3B404309B
:1013D80093F48400B76A0080130DC000930D800059
:1013E80063580C0AB7640080B765008037650080D1
:1013F800138644449306000C9385C54A1305053F9C
:10140800EF00100C3765008013058547EF00500B7F
:10141800138544449305000CEF00500E9304F0FF2D
:1014280083C70B0193F717006386070093F48400C2
:10143800F3A40430130104FA8320C10503248105B1
:1014480083244105032901058329C104032A810452
:10145800832A4104032B0104832BC103032C81033A
:10146800832C4103032D0103832DC10213010106BF
:10147800678000008326C5FF1308180093D626004E
:101488009386360093F6C6FF2320D5006FF0DFF170
:1014980093162C00B386D90003AA060003D68B0046
:1014A80083A54B00B306490303A80B00130BFAFFEF
:1014B8003306B602B30CD800B306DB0063ECC602F1
:1014C800B767008093858745B76700801385073F16
:1014D8009306400A13864A44EF00807EB76700806F
:1014E80013854747EF00C07D9305400A13854A449A
:1014F800EF00D0001306090093050C0013850B00BC
:10150800EFF05FA0B306AC0303A6CB00B306D6008A
:101518001386460023A0CC0003A6860023A2CC0095
:1015280003A686002320960123A4960183C60B01F7
:1015380093F616006394060C93040000E3020CEE85
:101548009306C4FB1306090093050C0013850B00D2
:10155800EFF0DF9793064000B346D5020326C4FB9D
:1015680003250600939626003355D5001375F5001C
:101578009306F000E316D5EA13080000137EC9FFAE
:101588001303400083D58B0003A54B0033060E01DF
:10159800B3084603B385A502B386680163F6B604AB
:1015A80093050C0013850B002322C4FB232404FBA2
:1015B800232614FBEFF05F9883A60B008328C4FA58
:1015C800032E44FA032884FAB386160183A546003D
:1015D80003A606001303400023A0C5002322B6007B
:1015E80023A0060023A2060013081800E31C68F8CD
:1015F800130CFCFF334909036FF09FDEF3A404309A
:1016080083C60B0193F61600E38806F2F3B40D3097
:1016180093F484006FF09FF2130101FF9307050014
:10162800138505009305060013860600232611007E
:10163800E7800700EF20D04FEF30404F130101FF44
:101648002322910023261100232481002320210135
:10165800930405009305F0FF13850400EF10805FE5
:1016680013040500E30805FE032945009305E0FF80
:1016780013058500EF400008137515006306050083
:1016880013050400E7000900EF20102B6FF09FFC02
:101698001305000067800000130101FF2324810067
:1016A800130405001305500423261100232291007A
:1016B80093840500E70004009385040013052005C2
:1016C800E700040013030400032481008320C10001
:1016D80093850400832441001305200513010101AB
:1016E8006700030083A705009387170023A0F50070
:1016F800B777008003A3879967000300130101FBF4
:1017080023248104232E3103232C4103232A51034C
:101718002328610323261104232291042320210571
:101728002326710323248103232291032320A10369
:10173800232EB101130A0500938A050093090600B8
:10174800138B0600130410006354E0001304070011
:1017580093071000130C00026314FB00130C000322
:10176800B7D49A3B13091000930CA000130700008C
:101778009384F49F930D2000130DA000938B140005
:101788006314070063F2340933D5790393850A009B
:101798001309190013050503E7000A0013071000D1
:1017A800938CFCFF93071000B3F97903B3D4A40317
:1017B800E396FCFC93850A0013850903E7000A00F9
:1017C8009307300033042441630AFB068320C104D5
:1017D8000324810483244104032901048329C103C8
:1017E800032A8103832A4103032B0103832BC102AC
:1017F800032C8102832C4102032D0102832DC10198
:101808001301010567800000E34C94F9E3EA6DF9E0
:1018180093850A0013050C002326E100E7000A005F
:10182800130919000327C1006FF09FF793850A0079
:1018380013050002E7000A001304F4FFE34880FEE2
:101848006FF0DFF8B777008023ACA79867800000B7
:10185800130101FB23248104232291042320210561
:10186800232E3103232C4103232A510323229103DE
:101878002320A103232EB101232611042328610369
:101888002326710323248103130405009384050090
:10189800930A0600138D0600130A00001309F0FFCF
:1018A80093090000930C0000B70D008003C50A00DF
:1018B800631005048320C1040324810483244104A4
:1018C800032901048329C103032A8103832A4103CD
:1018D800032B0103832BC102032C8102832C4102B9
:1018E800032D0102832DC10113010105678000004A
:1018F800639E0C0093065002630AD5369385040054
:10190800E7000400938A1A006FF05FFA9306400616
:10191800630ED51063E2A6069306900363EAA60257
:10192800930610036374D50E9306D002630AD53468
:10193800930700036300F50C130750026312E502D6
:101948009385040013055002E70004006F00C015DA
:1019580093068005630ED51A13073006630EE52E2D
:101968009385040013055002E700040093850400E2
:1019780003C50A006FF05FFD93060007630AD516DA
:1019880063E0A602930690066302D50A9306C00692
:10199800630AD50893068006E306D5F66FF05FFC68
:1019A800930650076306D51063EEA60213073007A7
:1019B800E318E5FA032C0D00130B4D00930B0C00F4
:1019C80003C50B0063180526930730006398F900D8
:1019D800B38B8B41B30B794163467027130D0B0012
:1019E8006F00800C930680076304D5129306A00746
:1019F8006FF09FFA635E090063880928130905FDE3
:101A0800E39209F0930920006FF0DFEFE34809FE45
:101A18009306A0003309D902130909FD33092501EA
:101A28006FF01FFE130A1A006FF0DFED63120A044D
:101A380003260D00130D4D00635006029385040024
:101A48001305D0022320C100E7000400032601008B
:101A58001309F9FF3306C0401307090093860900EC
:101A68009385040013050400EFF05FC96F00C003FD
:101A780013071000E30EEAFA93077D0013F787FFB8
:101A88000326070083264700130D87003307B60196
:101A98003337C7003307D700E30007FA93850400FC
:101AA80013050400EFF05FBF930C00006FF09FE593
:101AB80063180A0003260D00130D4D006FF0DFF9BF
:101AC80013071000E308EAFE93077D0013F787FF6A
:101AD800130D87000326070003274700E31007FCC0
:101AE800B707008093C7F7FFE3F8C7F66FF01FFB4F
:101AF8009385040013050003E700040093850400A0
:101B080013058007E70004001309800093091000FB
:101B18009306100063C2460B83270D00232401009F
:101B2800130D4D002322F100130C0001930B00004C
:101B3800232001009308000103254100832581002B
:101B4800138BF8FF13162B0023261101EFE04FF239
:101B58001375F50063180508832701009306000331
:101B6800639807008328C100930710006396F8085C
:101B78003385A60013158501938504001355854107
:101B8800E7000400938B1B0063180B0493063000D6
:101B9800930C0000E398D9D613171900B30B7741BB
:101BA800E35470F19385040013050002E700040074
:101BB800938BFBFF6FF0DFFE93077D0093F687FFA3
:101BC80083A70600138D86002322F10083A7460011
:101BD8002324F1006FF05FF52320910193080B0097
:101BE8006FF09FF59307900093067005E3E2A7F85E
:101BF800930600036FF0DFF79307FCFF2326F1003D
:101C0800634C890193071000639CF90093850400D5
:101C180013050003E7000400032CC1006FF01FFC4C
:101C280093072000E39AF9FE938504001305000248
:101C38006FF05FFE93850400938B1B00E7000400A0
:101C48006FF01FD89385040013050002E700040015
:101C5800938BFBFF6FF05FD803250D00938504007D
:101C6800130B4D00E70004006FF05FD7130A000064
:101C78001309F0FF93090000930C10006FF09FC840
:101C8800930930006FF01FC8930910006FF09FC7C9
:101C9800130101FE13060500371500809386050021
:101CA8001305C56E9305C100232E110023260100DC
:101CB800EFF01FBA8320C101130101026780000001
:101CC800130101FC2322B10293054102232E1100C6
:101CD8002324C1022326D1022328E102232AF10268
:101CE800232C0103232E11032326B100EFF05FFA02
:101CF8008320C1011301010467800000B7650080DB
:101D080037650080130101FF938585481305C54990
:101D18001306E00123261100EFF09FFAB765008053
:101D28009385850613056000EFE09FE76780000054
:101D380093078000F3A707307300501067800000F6
:101D4800930710003395A70073254530678000007E
:101D580093078000F3B70730735040307350403416
:101D680067800000130101FF2324810023229100D2
:101D780037740080232611009307A0009304050000
:101D8800130484A4631CF500032504009305D00004
:101D98008327450083A74700E78007000325040041
:101DA80093F5F40F8327450083A74700E7800700D2
:101DB8008320C1000324810013850400832441008B
:101DC8001301010167800000130101FF2324810032
:101DD800372400801305C4D623261100EF00405B8A
:101DE8001305C4D6032481008320C1001301010117
:101DF8006FF05FA537650080130101FF1305854A61
:101E080023261100EF005013B777008023A4A7A45E
:101E1800EFF09FFB8320C1001305000013010101AF
:101E280067800000B70710F003A747F403A507F47D
:101E380083A547F4E39AE5FE67800000130101FEDD
:101E4800232C8100232E1100232A9100232821010D
:101E58002326310123244101232251011304800048
:101E680073340430377900801305C9A413748400CF
:101E7800EF205015631E0502B7640080B765008027
:101E8800376500809385454D9306E0041386C44B5F
:101E98001305053FEFF0DFE2376500801305C54EF7
:101EA800EFF01FE29305E0041385C44BEFF01FE544
:101EB8001305C9A4B7740080EF205016938484A238
:101EC800EFF05FF683A9040083AA44001307050016
:101ED800330535413337A700B385554137D601005F
:101EE8001306064C93060000B385E540EFE0CFBB30
:101EF800B7D701009387074CB387A702130A0500D9
:101F08001305C9A4B3893701B3B7F900B3875701DB
:101F180023A0340123A2F400EF20500D631E050214
:101F2800B7640080B76500803765008093854550A9
:101F3800930610061386C44B1305053FEFF05FD8D0
:101F4800376500801305C551EFF09FD7930510063C
:101F58001385C44BEFF09FDA732404300324810106
:101F68008320C10183244101032901018329C10080
:101F7800832A410013050A00032A81001301010284
:101F88006F30402E130101FF23261100EFF09FE967
:101F9800B7D701009387074C370710F0B307F50050
:101FA8009306F0FF2326D7F433B5A7003305B50011
:101FB8002324F7F42326A7F413057000EFF05FD865
:101FC8008320C10013050000130101016780000090
:101FD800639C0516130101FE232E1100232C81009A
:101FE800232A910023282101232631019307F0FF9A
:101FF8006316F500379500001305E5BCB797000098
:102008001304F5FF9387E7BC63DA8712138407008C
:1020180093048000F3B40430377900801305C9A411
:1020280093F48400EF20007A631E0502B7690080EC
:10203800B7650080376500809385454D9306E004B9
:102048001386C94B1305053FEFF09FC7376500801E
:102058001305C54EEFF0DFC69305E0041385C94BA1
:10206800EFF0DFC91305C9A4EF20407BEFF09FDB39
:10207800B7D60100B77700801386064C938787A2EE
:1020880003A7070083A54700B307C4029386F64B4E
:102098003384E6409306703EB3878700B307F500A4
:1020A800B3D7C7023305A740B387C7023305F50086
:1020B80063C4A600B387C700B70610F03387E700EC
:1020C8001306F0FF23A6C6F4B337F700B387B700AB
:1020D80023A4E6F423A6F6F41305C9A4EF2000719F
:1020E800631E050237640080B7650080376500808D
:1020F80093854550930610061306C44B1305053FF8
:10210800EFF01FBC376500801305C551EFF05FBBCA
:10211800930510061305C44BEFF05FBEF3A404301B
:102128008320C10103248101832441010329010182
:102138008329C1001301010267800000E35A04ECFF
:10214800130400006FF0DFEC67800000130101FF4B
:10215800232481002326110023229100232021011A
:102168001304800073340430377900801305C9A440
:1021780013748400EF200065631E0502B7640080B5
:10218800B7650080376500809385454D9306E00468
:102198001386C44B1305053FEFF09FB237650080E7
:1021A8001305C54EEFF0DFB19305E0041385C44B6A
:1021B800EFF0DFB41305C9A4EF204066EFF09FC627
:1021C800B777008083A487A2B304954037D5010070
:1021D8001305054CB3D4A4021305C9A4EF2000616C
:1021E800631E050237690080B76500803765008087
:1021F80093854550930610061306C94B1305053FF2
:10220800EFF01FAC376500801305C551EFF05FABE9
:10221800930510061305C94BEFF05FAE7324043025
:102228008320C100032481001385040003290100D1
:1022380083244100130101016780000083470500E2
:1022480003C705006394E700639607003385E740FA
:102258006780000013051500938515006FF01FFEB9
:10226800B347B50093F73700638007069307050067
:1022780013070000631AE60667800000E30E06FEF7
:102288009385150003C7F5FF938717001306F6FF1C
:10229800A38FE7FE13F73700E31207FE930630001B
:1022A8003308E64063E60603135726009306C0FF8B
:1022B800B306D70213172700B387E700B385E500F5
:1022C8003306D6006FF0DFFA930705006FF09FFC26
:1022D800B388E50083A808003388E70013074700A0
:1022E800232018016FF0DFFB3388E500034808005E
:1022F800B386E70013071700238006016FF09FF7E6
:1023080093F6F50F9307050013F7370063180704D2
:1023180093F5F50F13978500B365B700139705017B
:10232800B365B7003383C70013870700130830006D
:10233800B308E340636E180313572600931527006C
:10234800B387B7009305C0FF3307B7023307C70049
:102358003387E7006394E70267800000E30E06FE18
:1023680093871700A38FD7FE1306F6FF6FF0DFF9E8
:1023780013074700232EB7FE6FF09FFB93871700C4
:10238800A38FD7FE6FF01FFD1305F0FF67800000D5
:10239800B777008023AEA79867800000130101FE7D
:1023A800232C81008327850037740080232A91001D
:1023B8001304049AB7740080232E110023282101E6
:1023C80023263101938404A59309100023200400D7
:1023D8001309050023A03401E7800700832749007B
:1023E80023203401E7800700930720002320F4000E
:1023F8008327C900E7800700930730002320F400F3
:102408000324810123A004008320C1018324410106
:10241800032901018329C10037750080130545BED2
:10242800130101026F10107E37750080130101FF40
:10243800B77700801307F0FF130545BE2326110068
:1024480023A8E7A4EF10107CEF10906E8320C10042
:10245800130101016F20806D130101FA232A9104F1
:10246800B774008083A744A5232E1104232C81046C
:10247800232821052326310523244105232251053C
:1024880023206105232E7103232C8103232A910322
:102498002328A1032326B10363C4070837740080E7
:1024A8001306100093090500138C0500130544BE9C
:1024B80093050000EF109068376500809385090048
:1024C80013058557EFF0CFFF3769008013050959C9
:1024D800B76A0080EFF0CFFE938444A5130A00008A
:1024E800232E8100B78C0080377B0080372D008039
:1024F800B77D0080B76B0080938A0A5383274C000E
:10250800639E07049385090063060A1037650080F7
:1025180013050560EFF0CFFA9307100023A0F4002D
:102528008320C1050324810583244105032901056E
:102538008329C104032A8104832A4104032B01044B
:10254800832BC103032C8103832C4103032D010337
:10255800832DC102130101066780000083250C004A
:10256800B76700801385875DEFF08FF523220100A0
:1025780083270C0113070C001306004093E787001C
:102588009308F0FF1308000093064D3A2320F1004A
:1025980093850C979307000013054BBFEF20C03EAF
:1025A8008327C1019305F0FF138547BEEF10D07351
:1025B80093870DA513054BBF03A40700EF20005711
:1025C800B7770080938707A503A7070013041400B3
:1025D8009307E0FF1334140003260C006314F7027A
:1025E800B76500809385C55E13854B5FEFF04FEDAF
:1025F80013050959EFF0CFEC330A8A00130C4C018C
:102608006FF0DFEF93172400B387FA0083A5070064
:102618006FF09FFD3765008013058561EFF04FEA85
:1026280083A70400B337F0006FF05FEFB77700803F
:1026380083A747A5130101FF232481003765008084
:1026480023261100376400801305055963820702A9
:10265800EFF00FE7B76500809385C5531305445421
:10266800032481008320C100130101016FF04FE5AD
:10267800EFF00FE5B76500809385C5556FF01FFE35
:10268800130101FF23261100EFE0CFC88320C1000A
:10269800130101016FF09FF9130101FF23260100C7
:1026A8008327C100938717002326F100B70701F09D
:1026B80023A0B70013010101678000001305F0FF94
:1026C80067800000130500006780000013172500CD
:1026D800B7670080130515009387876413152500D5
:1026E800130101FF3387E700B387A7002324810084
:1026F800232291000324070083A407002326110046
:10270800636C94008320C10003248100832441006A
:1027180013010101678000008327040013050400EA
:1027280083A74700E780070063040500232204000D
:102738001304C4006FF0DFFC130101FFB7770080BA
:1027480023229100B77400802324810023261100DE
:102758001384479B232021019387479B9384449E9E
:10276800631C940013090500138407006314940282
:10277800130400006F0040040327440063080700A7
:1027880003270400032707006308A7021304C400F3
:102798006FF01FFD83274400639607001304C400ED
:1027A8006FF0DFFC832704001305090083A50700E9
:1027B800EFF0DFA8E31405FE130504008320C10031
:1027C800032481008324410003290100130101012E
:1027D80067800000130101FF232481002322910058
:1027E800232611001304800093042000F3370430DB
:1027F800EF20500963C4A4001305100093051000CE
:10280800EF201016EFF0CFD26FF05FFE3775008023
:10281800B7770080130685A2938707D73386C7400A
:1028280093050000130585A26FF09FAD130101FF0A
:102838001305200023261100EFF05FE937650080BB
:102848001305C565EFF0CFC713053000EFF01FE89B
:10285800EF20C022EFF0DFE2B7770080938747CD03
:1028680003C7C7001377E7FF2386E7008320C1006B
:102878001301010167800000130101F6232C810870
:10288800B79700803774008023263109938707970C
:10289800930944D423A2F900930701011306000702
:1028A8009305000013850700232E1108232A910899
:1028B80023282109EFF0DFA41307100023A4A9009F
:1028C80013050000A30EE100EFF05FE01305100010
:1028D800EFF0DFDF93071010231EF100EF10D00395
:1028E800B76700809387076A377900802322F10051
:1028F800B736008093071000B7850080930449CD50
:102908002320F1001307000093070000930800003C
:10291800130800009386468313060020938505D785
:10292800130549CD23A09902EF10105D83C7D40089
:10293800130444D413F7B7FFA386E40093F7B70151
:10294800639A070083A7840163960700130549CD9E
:10295800EF00905AB76700809387876A2322F100B7
:102968003775008093071000B7260080B785008070
:10297800930445C62320F1009308F00013080000D3
:1029880093070000130700009386C67D13060020F6
:10299800938505F7130545C6EF10105683C7D40075
:1029A800232694001305800093F7B7FFA386F4004D
:1029B800B77700809387C7D5232CF400232EF40023
:1029C8007335053013758500EFD09F858347D50093
:1029D800130101FE232C8100232E110093F7F70128
:1029E80013040500639C070083278501639807008B
:1029F8002326B100EF0050508325C100232604068A
:102A0800232AB4008320C101032481011301010298
:102A180067800000130101FE232C8100232A910006
:102A28002328210123263101232441012320610188
:102A3800232E110023225101130405009389050058
:102A4800130A0600138B06001309850093048000FF
:102A5800F3B404301305090093F48400EF10905682
:102A6800631E0502B76A0080B7650080376500807D
:102A78009385454D9306E0041386CA4B1305053F1D
:102A8800EFF00FA4376500801305C54EEFF04FA394
:102A98009305E0041385CA4BEFF04FA61305090010
:102AA800EF10D0571305C400EF100045630005026E
:102AB80093050A00EFF09FF11305090093850400C0
:102AC800EF00C05E130500006F000006630E0B0ADE
:102AD80013058000EF30C00E631C050613050900BE
:102AE800EF10D050631E050237640080B765008080
:102AF8003765008093854550930610061306C44B2E
:102B08001305053FEFF0CF9B376500801305C551CE
:102B1800EFF00F9B930510061305C44BEFF00F9EC3
:102B2800F3A40430130540FF8320C101032481016D
:102B380083244101032901018329C100032A81005B
:102B4800832A4100032B0100130101026780000062
:102B580093071000232245012320F5008327050051
:102B680093F737006398090203270400B367F70057
:102B78002320F500832744002320A400E39E07F2C6
:102B88002322A4006FF05FF323200A0013050A0034
:102B98006FF0DFFC03A709001377C7FF631807026C
:102BA800032744002320F500631807002322A4000C
:102BB8002320A4006FF05FF08327070093F7370006
:102BC800B367F5002320F7006FF09FFBB3E7E7003A
:102BD8002320F50083A7090093F737003365F50034
:102BE80023A0A9006FF05FED130101FF23248100EA
:102BF8002326110013040500630E05008327050032
:102C080093F73700638807000324450063840500B1
:102C1800EF20107A130504008320C10003248100EB
:102C280013010101678000009307C50023200500F8
:102C380023220500232405002326F5002328F50078
:102C48006780000013860500832545009306000071
:102C58006FF05FDC130101FE232C8100232A910011
:102C68002328210123263101232E11002324410189
:102C78009304050093890500130985001304800057
:102C8800733404301305090013748400EF10903373
:102C9800631E0502376A0080B765008037650080CB
:102CA8009385454D9306E0041306CA4B1305053F6B
:102CB800EFF00F81376500801305C54EEFF04F80A8
:102CC8009305E0041305CA4BEFF04F831305090081
:102CD800EF10D03403A50400630A05088327050014
:102CE80003A7440093F7C7FF23A0F4006314E5008B
:102CF80023A2F40093051000EFF01FEF93040500E2
:102D080013050900EF10902E631E05023769008035
:102D1800B765008037650080938545509306100697
:102D28001306C94B1305053FEFE09FF9376500808F
:102D38001305C551EFE0DFF8930510061305C94BDD
:102D4800EFE0DFFB732404308320C10103248101F9
:102D58001385040003290101832441018329C1004B
:102D6800032A81001301010267800000639A0904A5
:102D780013050900EF109027631E0502B764008051
:102D8800B765008037650080938545509306100627
:102D98001386C44B1305053FEFE09FF237650080AB
:102DA8001305C551EFE0DFF1930510061385C44BF9
:102DB800EFE0DFF473240430930400006FF0DFF8D1
:102DC8001386C400938609009305040013050900BF
:102DD800EF10000A93040000E31805F6B7770080A7
:102DE80083A7C7D483A447016FF01FF68347D50094
:102DF80093F7F7016398070003258501133515003C
:102E0800678000001305000067800000130101FFC0
:102E180023261100EFF08FB3B777008083A707A6AA
:102E28008320C100377700803385A700232AA7D4E1
:102E38009305000013850700130101016F2040323C
:102E480083270500130101FF232481002326110095
:102E5800232291001304050063980702B7640080D9
:102E6800B765008037650080938585741305053F35
:102E78009306301813864473EFE09FE493053018E7
:102E880013854473EFE09FE7032504008320C10006
:102E9800032481008324410013010101678000009D
:102EA800130101FE232C8100232821012324410141
:102EB800232E1100232A910023263101130905002E
:102EC800138A05001304800073340430B77400803B
:102ED800138584A513748400EF10D00E631E0502B9
:102EE800B7690080B7650080376500809385454DD8
:102EF8009306E0041386C94B1305053FEFE05FDC3A
:102F0800376500801305C54EEFE09FDB9305E004AD
:102F18001385C94BEFE09FDE138584A5EF101010D1
:102F2800B777008023AA07D4130999009307A00054
:102F38003349F902B777008023A027A7B777008025
:102F480023AE47A5EFF09FEC138584A5EF10100A78
:102F5800631E0502B7640080B7650080376500808E
:102F680093854550930610061386C44B1305053FF9
:102F7800EFE01FD5376500801305C551EFE05FD43A
:102F8800930510061385C44BEFE05FD77324043014
:102F98008320C10103248101832441010329010104
:102FA8008329C100032A8100130101026780000000
:102FB800130101FE232C810023282101232E110057
:102FC800232A9100232631011309050013048000E8
:102FD80073340430B7740080138584A51374840097
:102FE800EF10407E631E0502B7690080B765008058
:102FF800376500809385454D9306E0041386C94BD9
:103008001305053FEFE0DFCB376500801305C54E9C
:10301800EFE01FCB9305E0041385C94BEFE01FCE0B
:10302800138584A5EF10807F13058900EFF05FE119
:1030380093050900EF00002F8347D900138584A565
:1030480093F7D7FFA306F900EF10407A631E050235
:10305800B7640080B7650080376500809385455068
:10306800930610061386C44B1305053FEFE05FC5B2
:10307800376500801305C551EFE09FC4930510061E
:103088001385C44BEFE09FC7732404308320C1012C
:103098000324810123240900832441010329010118
:1030A8008329C1001301010267800000B7770080FF
:1030B80083A747D4130101FF23248100232611008D
:1030C8002322910013840500639E0704EF10007209
:1030D800631E0502B7640080B7650080376500800D
:1030E80093854550930680071386C44B1305053F07
:1030F800EFE01FBD376500801305C551EFE05FBCE9
:10310800930580071385C44BEFE05FBF13050400E8
:10311800032481008320C10083244100130101019D
:103128006FD00F90EF10806C631E0502B7640080AB
:10313800B765008037650080938545509306100673
:103148001386C44B1305053FEFE09FB73765008032
:103158001305C551EFE0DFB6930510061385C44B80
:10316800EFE0DFB913748400732404308320C100B6
:1031780003248100832441001301010167800000BA
:1031880037770080032747D4631407006FD04F892F
:1031980093778500F3A70730678000001305800048
:1031A80073350530137585006FF09FFD130101FE1F
:1031B800232C8100232E1100232A9100232821018A
:1031C800232631011304800073340430B77400805F
:1031D800138584A513748400EF10C05E631E050276
:1031E80037690080B7650080376500809385454D55
:1031F8009306E0041306C94B1305053FEFE05FACE7
:10320800376500801305C54EEFE09FAB9305E004DA
:103218001305C94BEFE09FAE138584A5377900806D
:10322800EF10C05F832749D4130949D4638E07027E
:10323800B7690080B7650080376500809385C56CE5
:10324800930600101386096B1305053FEFE05FA78F
:103258003765008013054547EFE09FA693050010EA
:103268001385096BEFE09FA98327890003C7F7003F
:1032780093071000631EF702B7690080B7650080E6
:10328800376500809385456E930610101386096B89
:103298001305053FEFE0DFA23765008013054547BA
:1032A800EFE01FA2930510101385096BEFE01FA52F
:1032B800032789008347F7009387F7FFA307F700E1
:1032C800138584A5EF108052631E0502B764008041
:1032D800B7650080376500809385455093061006D2
:1032E8001386C44B1305053FEFE09F9D37650080AB
:1032F8001305C551EFE0DF9C930510061385C44BF9
:10330800EFE0DF9F732404308320C101032481018F
:1033180083244101032901018329C100130101020A
:1033280067800000B777008083A7079B130101FF20
:1033380023248100232611002322910013840500F1
:103348006398F502B7640080B76500803765008030
:10335800938505781305053F9306C02813864473A3
:10336800EFE01F969305C02813854473EFE01F997B
:1033780003274400832704008320C10083244100DD
:103388002320F70023A2E7002320040023220400BF
:10339800032481001301010167800000130101FE6D
:1033A800232C8100232A9100232E11002328210198
:1033B800232631011304050093048000F3B404307C
:1033C80037790080130589A593F48400EF10803FB6
:1033D800631E0502B7690080B76500803765008005
:1033E8009385454D9306E0041386C94B1305053FA5
:1033F800EFE01F8D376500801305C54EEFE05F8C49
:103408009305E0041385C94BEFE05F8F130589A589
:10341800EF10C04013058400EFF09FA2930504004D
:10342800EFF05FF08347D400130589A593F7D7FF22
:10343800A306F400EF10803B631E05023769008085
:10344800B765008037650080938545509306100660
:103458001306C94B1305053FEFE09F8637650080CB
:103468001305C551EFE0DF85930510061305C94B19
:10347800EFE0DF88F3A4043023240400130584015B
:10348800032481018320C10183244101032901010F
:103498008329C100130101026F10502F83270500F3
:1034A8006314F50093070000138507006780000088
:1034B800130101FF23248100377400802320210198
:1034C80013090500130544D413054502232291006E
:1034D80023261100EFF09FFC130444D49304050045
:1034E800631405008324C400631E0906832784002F
:1034F800639E070237690080B765008037650080E2
:10350800938505769306F007130649731305053F5F
:10351800EFE00FFB3765008013054547EFE04FFAF2
:103528009305F00713054973EFE04FFD83278400E7
:1035380003C7D7001377F7016316070283D6E7009E
:103548001307F0076370D7022320F4028320C10019
:103558000324810083244100032901001301010190
:10356800678000008327840063849700EFF01F8A38
:10357800232094026FF09FFD130101FE23282101EF
:1035880037790080930749D483A78700232E110039
:10359800232C810083C7F700232A910023263101B9
:1035A800130949D4639E070237640080B765008019
:1035B800376500809385C5709306102213064473FF
:1035C8001305053FEFE0CFEF37650080130545474A
:1035D800EFE00FEF9305102213054473EFE00FF2AD
:1035E80083270900638E070237640080B76500806F
:1035F800376500809385C56C9306202213064473B3
:103608001305053FEFE0CFEB37650080130545470D
:10361800EFE00FEB9305202213054473EFE00FEE64
:103628001304800073340430B7740080138584A5B4
:1036380013748400EF100019631E0502B769008037
:10364800B7650080376500809385454D9306E00493
:103658001386C94B1305053FEFE08FE637650080F9
:103668001305C54EEFE0CFE59305E0041385C94B7C
:10367800EFE0CFE8138584A5EF10401A03278900EF
:10368800130510008347F70093871700A307F70077
:10369800EFF01FE2138584A5EF104015631E0502A5
:1036A800B7640080B7650080376500809385455012
:1036B800930610061386C44B1305053FEFE04FE051
:1036C800376500801305C551EFE08FDF93051006BD
:1036D8001385C44BEFE08FE2732404300324810187
:1036E8008320C10183244101032901018329C100E9
:1036F800130101026FF09FAA130101FE232C810020
:10370800232A9100232E1100232821012326310189
:103718001304050093048000F3B404303779008063
:10372800130589A593F48400EF10C009631E0502F0
:10373800B7690080B7650080376500809385454D7F
:103748009306E0041386C94B1305053FEFE04FD7F6
:10375800376500801305C54EEFE08FD69305E0046A
:103768001385C94BEFE08FD9130589A5EF10000B1E
:10377800B777008083A7079B6318F402B7690080B6
:10378800B765008037650080938505781305053F88
:103798009306602713864973EFE08FD2930560275D
:1037A80013854973EFE08FD537770080930647D4A8
:1037B80083A7460203A68602B7760080938686D63C
:1037C800130747D46386D70A6384070A8305E4008E
:1037D8000385E70063D8A50803A747002320F40062
:1037E8002322E4002320870023A287008347D400F4
:1037F8001305000093E70704A306F400EFF05FCB7E
:10380800130589A5EF00907E631E050237640080CA
:10381800B76500803765008093854550930610068C
:103828001306C44B1305053FEFE08FC937650080C9
:103838001305C551EFE0CFC8930510061305C44B17
:10384800EFE0CFCBF3A404308320C101032481012E
:1038580083244101032901018329C10013010102C5
:10386800678000006306F60083A70700E39207F667
:103878002322C400832787022320D40023A08700A3
:10388800232487026FF09FF6832705FF130101FEAB
:10389800232C810023263101232E1100232A910095
:1038A800232821012324410113040500930985FEDF
:1038B8006384070C93048000F3B4043037790080E4
:1038C800130589A593F48400EF00D06F631E0502E9
:1038D800376A0080B7650080376500809385454D5D
:1038E8009306E0041306CA4B1305053FEFE04FBDEE
:1038F800376500801305C54EEFE08FBC9305E004E3
:103908001305CA4BEFE08FBF130589A5EF001071AF
:10391800130504FFEFF0CFD293850900EFF09FA0C5
:10392800834754FF130589A593F7D7FFA30AF4FE2D
:10393800EF00D06B631E050237690080B765008011
:103948003765008093854550930610061306C94BCA
:103958001305053FEFE0CFB6376500801305C55165
:10396800EFE00FB6930510061305C94BEFE00FB94A
:10397800F3A40430232804FE834754FF1385090069
:1039880093F7B7FEA30AF4FEEFF04FC663040502EF
:10399800032481018320C1018324410103290101FA
:1039A800032A8100138509008329C100130101023C
:1039B8006FF09FD48320C101032481018324410136
:1039C800032901018329C100032A8100130101028F
:1039D80067800000130101FE232C810023282101A8
:1039E800232E1100232A910023263101232441018B
:1039F800232251011304050013098000733909308B
:103A0800B7790080138589A513798900EF00905B49
:103A1800631E0502B7640080B765008037650080C3
:103A28009385454D9306E0041386C44B1305053F63
:103A3800EFE00FA9376500801305C54EEFE04FA8EA
:103A48009305E0041385C44BEFE04FAB138589A5BC
:103A5800EF00D05CB7740080138544D4930504004C
:103A680013054502EFF01F8CB777008083A7079BEB
:103A7800377A0080938444D4130A8AD66318F402F0
:103A8800B76A0080B7650080376500809385057840
:103A98001305053F9306602713864A73EFE04FA28C
:103AA8009305602713854A73EFE04FA583A7440267
:103AB80003A78402638E470B638C070A8306E4001E
:103AC8000386E70063D0C60A03A747002320F40053
:103AD8002322E4002320870023A287008347D40001
:103AE80003A5840093E707043305854013351500C3
:103AF800A306F400EFF0DF9B138589A5EF00104FB4
:103B0800631E050237640080B76500803765008052
:103B180093854550930610061306C44B1305053FBD
:103B2800EFE00F9A376500801305C551EFE04F9914
:103B3800930510061305C44BEFE04F9C7329093019
:103B48008320C10103248101832441010329010148
:103B58008329C100032A8100832A4100130101023D
:103B6800678000006386E70083A70700E39A07F4ED
:103B78002322E40083A784022320440123A0870092
:103B880023A484026FF09FF5B777008083A707A668
:103B980063860706B7770080938747D403A7870013
:103BA8009306F0070356E70063EAC604B776008079
:103BB8000306E70083A6C6A56342D604B77600804D
:103BC80083A6069B630CD7028326870163980602A7
:103BD80083A607016340D502130101FF13050700FF
:103BE80023261100EFF01FDF8320C100130101011C
:103BF8006FF0CFA1B386A64023A8D7006780000046
:103C0800130101FE232C810023263101232E1100EC
:103C1800232A910023282101930905001304800019
:103C280073340430B7740080138584A5137484003A
:103C3800EF005039631E050237690080B7650080C0
:103C4800376500809385454D9306E0041306C94BFC
:103C58001305053FEFE0CF86376500801305C54E95
:103C6800EFE00F869305E0041305C94BEFE00F89D9
:103C7800138584A5EF00903A83C7D900377900806F
:103C8800130949D493F70704638E07009385090045
:103C980013054902EFF00FE983C7D90093F7F7FB43
:103CA800A386F9000325890033053541133515002E
:103CB800EFF01F80138584A5EF005033631E0502C3
:103CC800B7640080B76500803765008093854550EC
:103CD800930610061386C44B1305053FEFD05FFE0D
:103CE800376500801305C551EFD09FFD9305100679
:103CF8001385C44BEFE08F80732404308320C10107
:103D08000324810183244101032901018329C1007E
:103D18001301010267800000130101FE232C8100BA
:103D2800232A91001304050023282101232E1100C2
:103D3800232631019384050013090600EFF05FEC98
:103D48008347D40093E72700A306F400638604069C
:103D5800B777008083A7079B232494006318F40295
:103D6800B7690080B765008037650080938505785E
:103D78001305053F9306602713864973EFD05FF458
:103D88009305602713854973EFD05FF783A7040075
:103D9800638CF406638A07060307E4008386E7005A
:103DA800635CD70403A747002320F4002322E40020
:103DB8002320870023A287009307F0FF6304F906F6
:103DC800130999001306A0003346C902130584019C
:103DD800032481018320C1018324410103290101B6
:103DE8008329C100B7450080938505891301010225
:103DF800130616006F00D07683A644006386D700AA
:103E080083A70700E39C07F883A7440023209400B6
:103E18002322F40083A7440023A0870023A2840060
:103E28006FF09FF98320C10103248101832441019C
:103E3800032901018329C1001301010267800000E1
:103E4800130101FFB77700802324810013040500C4
:103E580003A5C7D423261100EFF01FEC13050400B7
:103E6800032481008320C100130101016FC04FBBEF
:103E7800130101FFB7770080232481001304050094
:103E880003A5C7D423229100938405009305060057
:103E98001386060023261100EFF01FE8130504001F
:103EA800EF00D014631E050237640080B7650080F8
:103EB8003765008093854550930680071306C44BE9
:103EC8001305053FEFD0DFDF376500801305C551C7
:103ED800EFD01FDF930580071305C44BEFD01FE217
:103EE800032481008320C10013850400832441003A
:103EF800130101016FC0CFB2130101FE2328210174
:103F080023263101232E1100232C8100232A91001E
:103F1800930905001309800073390930B7740080CC
:103F2800138584A513798900EF00D009631E050263
:103F380037640080B7650080376500809385454DFC
:103F48009306E0041306C44B1305053FEFD05FD773
:103F5800376500801305C54EEFD09FD69305E00462
:103F68001305C44BEFD09FD9138584A5EF00100B20
:103F780013850900EFF08FD213040500138584A57B
:103F8800EF00D006631E0502B7690080B7650080A0
:103F98003765008093854550930610061386C94BF4
:103FA8001305053FEFD0DFD1376500801305C551F4
:103FB800EFD01FD1930510061385C94BEFD01FD43E
:103FC800732909306306040C13098000733909301A
:103FD800138584A513798900EF00C07E631E05024E
:103FE800B7690080B7650080376500809385454DC7
:103FF8009306E0041386C94B1305053FEFD05FCC49
:10400800376500801305C54EEFD09FCB9305E004BC
:104018001385C94BEFD09FCE138584A5EF00100000
:1040280013058400EFE0DFE193050400EFF08FAFA4
:104038008347D400138584A593F7D7FFA306F4001C
:10404800EF00C07A631E0502B7640080B765008080
:104058003765008093854550930610061386C44B38
:104068001305053FEFD0DFC5376500801305C5513F
:10407800EFD01FC5930510061385C44BEFD01FC89A
:10408800732909302324040013058401EF001070FC
:10409800130504008320C101032481018324410105
:1040A800032901018329C10013010102678000006F
:1040B800130101FF2322910023202101232611004F
:1040C8002324810013090500930400000324090038
:1040D80063048900631004028320C1000324810063
:1040E8001385040003290100832441001301010101
:1040F8006780000013050400EFF04FAA13050400C1
:10410800EFE0DFCE93041000E30205FC1305040082
:10411800EFF08FDE6FF09FFBB7770080938747D46F
:104128001387470223A2E70223A4E70293050000AE
:10413800130500006FE0DFD6130101FE232C810078
:1041480037740080832744D4232E1100232A91003A
:10415800232821012326310123244101232251014F
:10416800130444D4638E0702B7640080B7650080E7
:10417800376500809385C56C9306E03713864473D2
:104188001305053FEFD0DFB33765008013054547BA
:10419800EFD01FB39305E03713854473EFD01FB6F4
:1041A800B77700808326840003A7079B138A07003C
:1041B8006386E6121309800073390930B7790080E5
:1041C800138589A513798900EF00C05F631E050276
:1041D800B7640080B7650080376500809385454DDA
:1041E8009306E0041386C44B1305053FEFD05FAD7B
:1041F800376500801305C54EEFD09FAC9305E004EA
:104208001385C44BEFD09FAF138589A5EF000061DC
:104218008325840013054402EFF0CF9083270A9B7F
:1042280083248400377A0080130A8AD66398F402BC
:10423800B76A0080B7650080376500809385057888
:104248001305053F9306602713864A73EFD05FA7CF
:104258009305602713854A73EFD05FAA832744022A
:1042680003278402638A470B6388070A8386E4006E
:104278000386E70063DCC60803A7470023A0F40011
:1042880023A2E4002320970023A29700130510001F
:10429800EFF00FA2138589A5EF004055631E0502B4
:1042A80037640080B7650080376500809385455086
:1042B800930610061306C44B1305053FEFD05FA005
:1042C800376500801305C551EFD09F9F93051006F1
:1042D8001305C44BEFD09FA2732909301305800042
:1042E80073350530032481018320C10183244101F2
:1042F800032901018329C100032A8100832A41007F
:1043080013758500130101026FB09FF16386E70002
:1043180083A70700E39E07F423A2E400832784020F
:1043280023A0440123A09700232494026FF01FF6D2
:10433800B777008003A5C7D467800000130101FE8A
:10434800232C8100232A910023282101232E1100E8
:104358002326310113040500138905009304060080
:10436800631E0602B7690080B76500803765008064
:104378009385457A93066004138649791305053FAA
:10438800EFD01F94376500801305057BEFD05F934E
:104398009305600413854979EFD05F9663FE240383
:1043A800B7690080B7650080376500809385857C94
:1043B80093067004138649791305053FEFD05F9083
:1043C800376500801305057EEFD09F8F9305700435
:1043D80013854979EFD09F92232424012326940042
:1043E80023208400232284008320C1010324810127
:1043F80083244101032901018329C100130101021A
:1044080067800000130101FE232A91002326310151
:10441800232E1100232C8100232821019309050054
:1044280093048000F3B4043037740080130544A665
:1044380093F48400EF000039631E05023769008099
:10444800B7650080376500809385454D9306E00485
:104458001306C94B1305053FEFD09F8637650080CB
:104468001305C54EEFD0DF859305E0041305C94B4E
:10447800EFD0DF88130544A6EF00403A1385090002
:10448800EFF09FA713090500630205048347D500D1
:1044980093F7F70163980700832785016394070062
:1044A800EFF08FA523260906130544A603248101EE
:1044B8008320C101032901018329C10093850400D8
:1044C80083244101130101026FE05FBE03A7890045
:1044D80083A7C900B387E740B337F000B387E70085
:1044E80023A4F9006FF05FFCB777008083A747D457
:1044F800130101FE2328210123263101232E110057
:10450800232C8100232A910023244101130905004B
:104518009389050063800704638E05023764008071
:10452800B775008037650080938585809306C0083D
:10453800130644791305053FEFD08FF837650080DF
:1045480013054547EFD0CFF79305C0081305447905
:10455800EFD0CFFA1304800073340430B7740080AE
:10456800138544A613748400EF00C025631E05025A
:10457800376A0080B7650080376500809385454DB0
:104588009306E0041306CA4B1305053FEFD04FF31B
:10459800376500801305C54EEFD08FF29305E00410
:1045A8001305CA4BEFD08FF5138544A6EF000027FB
:1045B80083278900638C07069387F7FF2324F90074
:1045C800138544A6EF008022631E0502B7640080AD
:1045D800B7650080376500809385455093061006BF
:1045E8001386C44B1305053FEFD08FED3765008068
:1045F8001305C551EFD0CFEC930510061385C44BB6
:10460800EFD0CFEF73240430130500008320C101DD
:104618000324810183244101032901018329C10065
:10462800032A81001301010267800000639A0904CC
:10463800138544A6EF00801B631E0502B764008043
:10464800B76500803765008093854550930610064E
:104658001386C44B1305053FEFD08FE637650080FE
:104668001305C551EFD0CFE5930510061385C44B4C
:10467800EFD0CFE873240430130500FF6FF01FF963
:1046880093050400032481018320C101032A8100CA
:1046980093860900130609008329C1000329010133
:1046A800138544A683244101130101026FF04FFCD6
:1046B8008347D50093F7F701639807000325850121
:1046C800133515006780000013050000678000009F
:1046D800B777008003A547D43335A0006780000072
:1046E800B777008083A7C7D403C5C7001375150023
:1046F8006780000067800000130101FE03230102A8
:10470800232C8100232E11002320610013040500AF
:10471800EFC04FE8B777008083A7C7D48320C101D3
:1047280083A787062324F4060324810113010102C9
:104738006780000083270506130101FF23248100F9
:10474800232611001304050063840700E78007008F
:1047580013050400EFF0DFF56304050213050400F8
:10476800EFF00FCA8347D4008320C10093E7870086
:10477800A306F400032481001301010167800000EF
:104788008347D40093F727006386070013050400C6
:10479800EFE01F8283278401E38607FC1305840169
:1047A800EF00C07E6FF01FFC2306D500A306C500EE
:1047B8002307B500A3070500232C0500232E0500B9
:1047C8006780000003250500630E0500B7770080A9
:1047D80083C787D5137535003305F5403335A000F9
:1047E800678000001305100067800000B77700801D
:1047F800938747D403C7470183A78700B3E7E70038
:10480800032705006318F70023200500130510008F
:10481800678000001305000067800000B7770080FC
:10482800938747D403C7470183A78700B3E7E70007
:104838002320F50067800000130101FE232C81006E
:1048480023282101232E1100232A91002326310138
:10485800130905001304800073340430B774008012
:10486800138584A613748400EFF0DFF5631E050238
:10487800B7690080B7650080376500809385454D2E
:104888009306E0041386C94B1305053FEFD04FC3C9
:10489800376500801305C54EEFD08FC29305E0043D
:1048A8001385C94BEFD08FC5138584A6EFF01FF78A
:1048B8008347D90013F7470063140706138584A6B6
:1048C800EFF0DFF2631E0502B7640080B765008071
:1048D8003765008093854550930610061386C44BB0
:1048E8001305053FEFD0CFBD376500801305C551CF
:1048F800EFD00FBD930510061385C44BEFD00FC042
:10490800732404308320C1010324810183244101DD
:10491800032901018329C1001301010267800000F6
:1049280093F7B7FFA306F90013050900EFF05FD866
:104938006306050013050900EFE01FDC930504007A
:10494800032481018320C101032901018329C100B6
:10495800138584A683244101130101026FE00FF53A
:10496800639405006FF05FED938595001306A00032
:1049780033C6C502B74500809385058913058501AF
:10498800130616006F00C03D130101FC23225103DA
:10499800938A0600B776008083A646D4232C81022A
:1049A800232A91022326310323244103232E1102B3
:1049B800232821031304050093890500130A060020
:1049C80083244104638E060437790080B76500802C
:1049D800376500809306201B1306C9839385C56C31
:1049E8001305053F232E1101232C0101232AF10071
:1049F8002328E100EFD0CFAC37750080130505857B
:104A0800EFD00FAC9305201B1305C983EFD00FAF70
:104A18008328C1010328810183274101032701015C
:104A2800832601042322010013060A002320D10053
:104A38009385090093860A0013050400EFF0DFCB85
:104A48009307F0FF6388F4009385040013050400BE
:104A5800EFF01FF1130504008320C1030324810331
:104A680083244103032901038329C102032A810204
:104A7800832A41021301010467800000130101FE2B
:104A8800B77700802328210137790080232C810003
:104A9800232A9100232E11001384479E9384479E56
:104AA8001309499E6366240313840400EFE00FF0A2
:104AB8009304F0FF63602407032481018320C1016C
:104AC8008324410103290101130101026FE0DFAAD8
:104AD8008327C4022322F100832704022320F10044
:104AE800832744018328C401032884010327040180
:104AF8008326C4000326840083254400032504007C
:104B0800EFF09FBF8327040023AE87041304040338
:104B18006FF05FF98325440263869500032504003E
:104B2800EFF01FE4130404036FF0DFF8130101FE34
:104B3800232C8100232A9100232E110023282101F0
:104B48009304050023260100130480007334043005
:104B58001305C10013748400EFF0DFC6631E05025D
:104B680037690080B7650080376500809385454DBB
:104B78009306E0041306C94B1305053FEFD04F9485
:104B8800376500801305C54EEFD08F939305E00479
:104B98001305C94BEFD08F961305C100EFF01FC85E
:104BA80083C7C40093F71700638E07023779008024
:104BB800B775008037650080938505899306900254
:104BC800130689871305053FEFD08F8F377500804F
:104BD8001305458CEFD0CF8E930590021305898776
:104BE800EFD0CF9113850400EFF0DFB493050400F4
:104BF8001305C100EFE08FCB8320C101032481019D
:104C08008324410103290101130101026780000087
:104C1800130101FD2326110223248102232EA10062
:104C2800232CB100232AC1002328D100EFD0DFFFB5
:104C3800832601010327C101832581010326410140
:104C48001304470193880600B71600802322010049
:104C58002320010013050400130800009307000037
:104C680093864664EFF05FD21305040003248102A3
:104C78008320C102B77500809385058E1301010357
:104C88006FF05FA7B777008083A7C7A66394070074
:104C98006FD0CFCB13050000678000008327050085
:104CA80063020502377700800327879A630CE500C3
:104CB800638A070003A78700832685003307D70088
:104CC80023A4E700032745002320F70023A2E700D9
:104CD800232005002322050067800000B7770080A5
:104CE80083C7C7A7130101FF2326110023248100CE
:104CF800232291001305F0FF639607003705008013
:104D08001345F5FFB77700809387479A03A40700F8
:104D18006304F4026302040283248400EFF09FF624
:104D2800B384A4401305000063C80400032484006E
:104D3800EFF05FF53305A440B777008083A747D528
:104D48006386070063D4A700138507008320C1008A
:104D580003248100832441001301010167800000BE
:104D680083270500130101FD2324810223229102D8
:104D7800232E31012326110223202103232C410154
:104D8800232A51012328610123267101232481014B
:104D9800130405009389050093040600638E070237
:104DA80037790080B7750080376500809385059056
:104DB8009306D0041306C98E1305053FEFC05FF0B4
:104DC8003765008013054547EFC09FEF9305D00472
:104DD8001305C98EEFC09FF2232634016344900067
:104DE8009304100093098000F3B90930377A0080E2
:104DF80013050AA793F98900EFF0DF9C631E0502EB
:104E080037690080B7650080376500809385454D18
:104E18009306E0041306C94B1305053FEFC05FEA8C
:104E2800376500801305C54EEFC09FE99305E00480
:104E38001305C94BEFC09FEC13050AA7EFF01F9E9F
:104E4800EFF05FE433059500B774008003A9449A36
:104E58002324A4009384449A630C9900B77A0080B1
:104E6800377B0080B76B0080376C008063100902C5
:104E780083A74400232094002322F40083A744003E
:104E880023A0870023A284006F00C0058327890020
:104E980063D6070293050B92930660051386CA8EA4
:104EA80013850B3FEFC0DFE113054C47EFC05FE10F
:104EB800930560051385CA8EEFC05FE40327890058
:104EC8008327840063D8E70AB307F7402324F9004F
:104ED80083274900232024012322F40023A08700EC
:104EE8002322890083A70400638A97006318F400CB
:104EF800EFF0DFDE93050000EFD08F8D13050AA7D2
:104F0800EFF0DF8E631E050237640080B76500800E
:104F18003765008093854550930610061306C44BE9
:104F28001305053FEFC0DFD9376500801305C5516C
:104F3800EFC01FD9930510061305C44BEFC01FDC43
:104F4800F3A909308320C10203248102832441028A
:104F5800032901028329C101032A8101832A41010E
:104F6800032B0101832BC100032C810013010103D2
:104F780067800000B387E7402324F40083A7440038
:104F8800E38827EF032909006FF05FEE130101FEA4
:104F9800232C810023263101232E1100232A91007E
:104FA8002328210193090500130480007334043079
:104FB800B7740080138504A713748400EFF09F80F2
:104FC800631E050237690080B76500803765008079
:104FD8009385454D9306E0041306C94B1305053F19
:104FE800EFC01FCE376500801305C54EEFC05FCDFB
:104FF8009305E0041305C94BEFC05FD0138504A7E0
:10500800EFF0DF8183A709001309A0FE638807007A
:1050180013850900EFF09FC813090000138504A742
:10502800EFF0CFFC631E0502B7640080B76500800F
:105038003765008093854550930610061386C44B48
:105048001305053FEFC0DFC7376500801305C5515D
:10505800EFC01FC7930510061385C44BEFC01FCAC6
:10506800732404308320C10103248101130509003E
:1050780083244101032901018329C100130101028D
:1050880067800000130101FF2324810023261100FB
:10509800232291002320210113048000733404305B
:1050A800B7740080138504A713748400EFF08FF1A0
:1050B800631E050237690080B76500803765008088
:1050C8009385454D9306E0041306C94B1305053F28
:1050D800EFC01FBF376500801305C54EEFC05FBE28
:1050E8009305E0041305C94BEFC05FC1138504A7FE
:1050F800EFF0CFF2EFF09FBE13090500138504A768
:10510800EFF0CFEE631E0502B7640080B76500803C
:105118003765008093854550930610061386C44B67
:105128001305053FEFC0DFB9376500801305C5518A
:10513800EFC01FB9930510061385C44BEFC01FBC01
:10514800732404308320C10003248100130509005F
:105158008324410003290100130101016780000035
:10516800130101FE232C810023282101232441015E
:10517800232E1100232A910023263101130905004B
:10518800138A05001304800073340430B774008058
:10519800138504A713748400EFF0CFE2631E0502A1
:1051A800B7690080B7650080376500809385454DF5
:1051B8009306E0041386C94B1305053FEFC05FB0A3
:1051C800376500801305C54EEFC09FAF9305E00417
:1051D8001385C94BEFC09FB2138504A7EFF00FE406
:1051E800EFF0DFAF635CA9009307100063D8A70056
:1051F80093050A0013050900EFC09FDD138504A776
:10520800EFF0CFDE631E0502B7640080B76500804B
:105218003765008093854550930610061386C44B66
:105228001305053FEFC0DFA9376500801305C55199
:10523800EFC01FA9930510061385C44BEFC01FAC20
:10524800732404308320C101032481018324410194
:10525800032901018329C100032A810013010102E6
:1052680067800000130101FD23248102232C4101E2
:10527800232611022322910223202103232E310108
:10528800232A510123286101232671012324810146
:10529800232291012320A101130A05001304800091
:1052A800EFE09F8E7334043037790080130509A727
:1052B80013748400EFF00FD1631E0502B7640080F9
:1052C800B7650080376500809385454D9306E004F7
:1052D8001386C44B1305053FEFC09F9E37650080BA
:1052E8001305C54EEFC0DF9D9305E0041385C44B3D
:1052F800EFC0DFA0B7790080130509A7EFF00FD240
:10530800B774008023A649A7377A00809389C9A675
:10531800130A4A9A938404A3B76A0080B76B008083
:10532800376B0080376C0080B76C0080032D0A0053
:1053380083A7090083A6040003A54400630C4D015C
:10534800630A0D0003278D0063DCE70A3307F74083
:105358002324ED00B386D70013D7F7413307A700FE
:10536800B3B7F600B387E70023A0D40023A2F40064
:1053780023A00900EFF09F9693050000EFC05FC5DA
:10538800130509A7EFF08FC6631E0502B7640080F6
:10539800B7650080376500809385455093061006F1
:1053A8001386C44B1305053FEFC09F9137650080F6
:1053B8001305C551EFC0DF90930510061385C44B44
:1053C800EFC0DF93732404308320C10203248102D9
:1053D80083244102032901028329C101032A81018F
:1053E800832A4101032B0101832BC100032C810077
:1053F800832C4100032D0100130101036780000085
:10540800B306D7009355F741B385A50033B6E60038
:105418003306B600B387E74013050D0023240D00BB
:1054280023A0D40023A2C40023A0F900EFF01F8713
:10543800130509A7EFF08FBB6316050293854B5040
:10544800930610061386CA4B13050B3FEFC05F8700
:105458001305CC51EFC0DF86930510061385CA4BA0
:10546800EFC0DF89732404308327CD0013050D00B6
:1054780013048000E780070073340430130509A77C
:1054880013748400EFF00FB46318050293854C4D34
:105498009306E0041386CA4B13050B3FEFC05F82E7
:1054A800376500801305C54EEFC09F819305E00462
:1054B8001385CA4BEFC09F84130509A7EFF00FB6F9
:1054C8006FF0DFE6130101FE232A9100232E11005D
:1054D800232C8100232821012326310193048000F5
:1054E800F3B4043037790080130509A793F48400D6
:1054F800EFF04FAD631E050237640080B76500808A
:10550800376500809385454D9306E0041306C44B28
:105518001305053FEFC0CFFA376500801305C54E68
:10552800EFC00FFA9305E0041305C44BEFC00FFD5D
:10553800130509A7EFF08FAEEFC05FC1B777008002
:10554800938707A383A9070003A44700B30935017C
:1055580033B5A90033048500130509A7EFF00FA997
:10556800631E050237690080B765008037650080D3
:1055780093854550930610061306C94B1305053F3E
:10558800EFC00FF4376500801305C551EFC04FF326
:10559800930510061305C94BEFC04FF6F3A404306A
:1055A800930504008320C1010324810113850900A8
:1055B80083244101032901018329C1001301010248
:1055C80067800000130101FF23261100EFF09FEF11
:1055D8009307803E33B7A7021306400693060000E0
:1055E800B385B7023385A702B385E500EFA0DFCB0B
:1055F8008320C1001301010167800000130101FE2F
:10560800232C81002328210123244101232E11006A
:10561800232A910023263101130A05001389050066
:105628001304800073340430B7740080138544A7D2
:1056380013748400EFF00F99631E0502B7690080A8
:10564800B7650080376500809385454D9306E00473
:105658001386C94B1305053FEFC08FE637650080F9
:105668001305C54EEFC0CFE59305E0041385C94B7C
:10567800EFC0CFE8138544A7EFF04F9A83290A00BB
:10568800138544A733E9290123202A01EFF00F9657
:10569800631E0502B7640080B76500803765008027
:1056A80093854550930610061386C44B1305053F92
:1056B800EFC00FE1376500801305C551EFC04FE01B
:1056C800930510061385C44BEFC04FE373240430D1
:1056D8008320C1010324810113850900832441012A
:1056E800032901018329C100032A81001301010252
:1056F80067800000130101FE232C8100232821016B
:1057080023244101232E1100232A9100232631014D
:10571800130A05001389050013048000733404304C
:10572800B7740080138544A713748400EFF08F8941
:10573800631E0502B7690080B76500803765008081
:105748009385454D9306E0041386C94B1305053F21
:10575800EFC00FD7376500801305C54EEFC04FD691
:105768009305E0041385C94BEFC04FD9138544A7AF
:10577800EFF0CF8A83290A00138544A733F929015A
:1057880023202A01EFF08F86631E0502B76400808C
:10579800B7650080376500809385455093061006ED
:1057A8001386C44B1305053FEFC08FD137650080C2
:1057B8001305C551EFC0CFD0930510061385C44B10
:1057C800EFC0CFD3732404308320C10103248101A7
:1057D8001385090083244101032901018329C1009C
:1057E800032A81001301010267800000130101FFF1
:1057F800232481002322910037740080B77400802D
:10580800232611001304449E9384449E636E9400DF
:105818008320C10003248100832441001305000074
:105828001301010167800000930744011305040078
:10583800232AF400232CF400EFB08FF31304C401DF
:105848006FF0DFFCB777008083A747D4130101FB13
:1058580023229104232E3103232C41032326710391
:10586800232611042324810423202105232A5103FC
:105878002328610323248103232291032320A103E6
:10588800232EB101130A050093890500930B060026
:1058980093840600638207166394061213090000B6
:1058A800377400801304449E33048A40B777DBB60C
:1058B80013542440938777DB3304F402B7FAFFFFCD
:1058C800371B0000130C50FF930C40FF938AFA0F0C
:1058D800130BFBFF130D8000930D4A011374F40F93
:1058E800138709009306C1001306810093850B00F6
:1058F80013050A00EFB0CFF7631285031387090079
:105908009306C1001306810093850B0013050A0056
:10591800EFB00FF663148501130540FF832781005C
:105928002382890093F7F7001397870083A749001C
:10593800B3F75701B3E7E7000327C100B3F76701DF
:105948001317C700B3E7E70023A2F900630C0502A9
:10595800638A04026318950373350D3013860400B7
:1059680093850D0013758500EFE08FCD9307F0FF49
:10597800E388F4F6EFF01FB5B304A940E3D204F6C8
:10598800130550FF8320C1040324810483244104A8
:10599800032901048329C103032A8103832A4103BC
:1059A800032B0103832BC102032C8102832C4102A8
:1059B800032D0102832DC101130101056780000039
:1059C80037740080B77500803765008093854594EB
:1059D80093069003130604931305053FEFC04FAEDB
:1059E8003765008013054547EFC08FAD93059003D9
:1059F80013050493EFC08FB0E35290EAEFF09FAC29
:105A0800138994009307A0003349F9023309A900C8
:105A18006FF01FE9130101FE232821010349050046
:105A28009307C001032605003309F9022326310133
:105A3800B7790080935586001385499E1356C60092
:105A480093F5F500232C8100232E1100232A9100C1
:105A5800330525012324410113048000EFB0DF8DB5
:105A680073340430B7740080138584A7EFE09FD5A2
:105A7800137484009389499E631E0502376A008067
:105A8800B7650080376500809385454D9306E0042F
:105A98001306CA4B1305053FEFC08FA23765008078
:105AA8001305C54EEFC0CFA19305E0041305CA4BFB
:105AB800EFC0CFA4138584A7EFE05FD61305490193
:105AC8003385A900EFE0CFDE6306050293050400E5
