:0200000480007A
:100000009702000093820201739052306F0090714A
:10001000130101FB2320110023223100232441007E
:100020002326510023286100232A7100232CC101BB
:10003000232ED1012320E1032322F1032324A10253
:100040002326B1022328C102232AD102232CE10254
:10005000232EF1022320010523221105F32210345F
:1000600023245104F322003023265104EF00001F03
:1000700013030000631E0502F3222034B70300803F
:100080009383F3FFB3F272001303B000638A62003C
:100090001305010097000000938040136F00105C6F
:1000A0008322810493824200232451046F000009BB
:1000B00093020100977300009383038D03A1430013
:1000C000130101FF2320510003AE0300130E1E0095
:1000D00023A0C30163080300970000009380C003BE
:1000E0006F00906073252034B70200809382F2FF86
:1000F00033755500EF008015975200009382026B14
:1001000013153500B382A20003A5020003A3420029
:10011000E700030017730000130303878323030022
:100120009383F3FF232073008322010013810200D5
:1001300083238300032E030263087E089772000066
:100140009382828403A382002326830223289302BE
:10015000232A2303232C3303232E43032320530575
:10016000232263052324730523268305232893056F
:10017000232AA305232CB30523242302976300001D
:100180009383034603AE03002326C30703A302029F
:1001900023A46200032183020324C30283240303F4
:1001A0000329430383298303032AC303832A030404
:1001B000032B4304832B8304032CC304832C0305E8
:1001C000032D4305832D830583228104739012340C
:1001D0008322C104739002308320010083214100F7
:1001E000032281008322C1000323010183234101F3
:1001F000032E8101832EC101032F0102832F4102AF
:10020000032581028325C1020326010383264103BE
:10021000032781038327C1030328010483284104A2
:100220001301010573002030730000009762000085
:100230009382827503A382008323C306137585000E
:10024000F3220530138503006780000013031000BC
:10025000B312A30073B3423467800000F32220344A
:1002600037030080B3F262001305000063840200CC
:08027000130515006780000072
:100278006300060293070002B387C740634CF0008F
:10028800130506FE1307000033D5A50093050700E4
:100298006780000033D7C5003355C500B395F50016
:1002A8003365B5006FF09FFE130101FD2322910213
:1002B80023286101232611022324810223202103FC
:1002C800232E3101232C4101232A510123267101B8
:1002D8002324810123229101130B05009384050037
:1002E800639C06381304060093090500175900009B
:1002F8001309096463F8C512B7070100938A05005A
:100308006378F6109306F00FB3B6C60093963600DE
:10031800B357D6003309F90003470900B306D700DD
:10032800130700023307D740630C0700B394E400B7
:10033800B356DB003314E600B3EA9600B319EB00BA
:10034800135B040193050B0013850A00EF00405A64
:100358001309050093050B00931B040113850A007C
:10036800EF00805493DB0B0193040500930505000F
:1003780013850B00EF0080501319090113D70901E9
:100388003367E900138A0400637EA70033078700F8
:10039800138AF4FF636887006376A700138AE4FF73
:1003A80033078700B304A74093050B0013850400A7
:1003B800EF0000541309050093050B001385040092
:1003C800EF00804E939909019304050093050500F9
:1003D8001319090113850B0093D90901EF00004A8D
:1003E800B36939011386040063FCA900B309340119
:1003F8001386F4FF63E6890063F4A9001386E4FF1B
:1004080093170A01B3E7C700130A00006F0000132F
:10041800B707000193060001E36CF6EE930680012E
:100428006FF01FEF138A0600631A06009305000099
:1004380013051000EF00404713040500B70701003B
:10044800637CF4129307F00F63F48700130A8000AB
:10045800B35744013309F900834609001306000223
:10046800B38646013306D64063120612B38484402D
:10047800130A1000135B040193050B001385040095
:10048800EF0000471309050093050B0013850400CE
:10049800931B0401EF00404193DB0B01930405001B
:1004A8009305050013850B00EF00403D1319090162
:1004B80013D709013367E900938A0400637EA70014
:1004C80033078700938AF4FF636887006376A70081
:1004D800938AE4FF33078700B304A74093050B0012
:1004E80013850400EF00C0401309050093050B00B5
:1004F80013850400EF00403B93990901930405001C
:10050800930505001319090113850B0093D90901F7
:10051800EF00C036B36939011386040063FCA900F3
:10052800B30934011386F4FF63E6890063F4A90074
:100538001386E4FF93970A01B3E7C7001385070002
:1005480093050A008320C102032481028324410207
:10055800032901028329C101032A8101832A410158
:10056800032B0101832BC100032C8100832C410044
:100578001301010367800000B7070001130A000197
:10058800E368F4EC130A80016FF09FEC3314C400A5
:1005980033DAD400B319CB00B356DB00135B040184
:1005A800B394C40093050B0013050A00B3EA960040
:1005B800EF0000341309050093050B0013050A002A
:1005C800931B0401EF00402E93DB0B0193040500FD
:1005D8009305050013850B00EF00402A1319090144
:1005E80013D70A013367E900138A0400637EA70062
:1005F80033078700138AF4FF636887006376A700D0
:10060800138AE4FF33078700B304A74093050B0060
:1006180013850400EF00C02D1309050093050B0096
:1006280013850400EF004028930405009305050096
:1006380013850B00EF00802493960A011319090112
:1006480093D60601B367D9001387040063FEA70099
:10065800B38787001387F4FF63E8870063F6A70072
:100668001387E4FFB3878700131A0A01B384A740EE
:10067800336AEA006FF01FE063ECD51EB70701008C
:1006880063F4F6049305F00F33B5D5001315350060
:1006980033D7A6009757000093878729B387E700C9
:1006A80083C50700130A0002B385A500330ABA40C0
:1006B80063160A0293071000E3E296E83336CB008C
:1006C800934716006FF09FE7B70700011305000175
:1006D800E3E0F6FC130580016FF09FFBB35AB60008
:1006E800B3964601B3EADA0033D9B400B3974401AC
:1006F800B355BB0093DB0A01B3E4F5001305090009
:1007080093850B00B3194601EF00801E1304050002
:1007180093850B0013050900139C0A01EF00C0180C
:10072800135C0C01130905009305050013050C0063
:10073800EF00C0141314040113D704013367E40055
:10074800930C0900637EA70033075701930CF9FF48
:10075800636857016376A700930CE9FF33075701D5
:100768003309A74093850B0013050900EF004018D3
:100778001304050093850B0013050900EF00C01250
:10078800130905009305050013050C00EF00000F81
:10079800939704011314040193D707013367F400F6
:1007A80013060900637EA700330757011306F9FFF4
:1007B800636857016376A7001306E9FF33075701FB
:1007C80093970C01370E0100B3E7C7001308FEFF2B
:1007D80033F3070133F809013307A74093DE070114
:1007E80093D909011305030093050800EF000009D8
:1007F800930805009385090013050300EF0000081E
:10080800130305009305080013850E00EF00000789
:10081800130805009385090013850E00EF000006F4
:1008280093D6080133030301B386660063F4060117
:100838003305C50113D606013305A6006366A70272
:10084800E314A7BC370701001307F7FFB3F6E60068
:1008580093960601B3F8E80033164B01B3861601E8
:10086800130A0000E37CD6CC9387F7FF6FF0DFB95B
:10087800130A0000930700006FF05FCC1306050011
:100888001305000093F61500638406003305C500C0
:1008980093D5150013161600E39605FE6780000031
:1008A8006340050663C60506138605009305050023
:1008B8001305F0FF630C060293061000637AB60076
:1008C8006358C0001316160093961600E36AB6FE26
:1008D8001305000063E6C500B385C5403365D50040
:1008E80093D6160013561600E39606FE678000009E
:1008F80093820000EFF05FFB13850500678002001C
:100908003305A04063D80500B305B0406FF0DFF9A8
:10091800B305B04093820000EFF01FF93305A04003
:10092800678002009382000063CA0500634C0500DB
:10093800EFF09FF71385050067800200B305B0400C
:10094800E35805FE3305A040EFF01FF63305B0402D
:100958006780020067800000130101FD232E11004B
:1009680023240103232611036318050413860600B4
:1009780013870500B7660080B7650080376500807B
:1009880093078102938646A3938505B41305C5B6DC
:100998002326F100EF10C0238325C10037650080AE
:1009A800130585BEEF10C01F37650080130585CE7F
:1009B800EF100022EF10901A8320C10113010103E8
:1009C80067800000130101FC232C81021306C0027A
:1009D800130405009305000013054100232E11029E
:1009E800EF10D005B767008083A787696390070277
:1009F8001306000093054100130504002326010097
:100A08002324010023280100EF2080328320C10322
:100A1800032481031301010467800000130101FC12
:100A2800232C810213040500376500801305C5B225
:100A3800232E1102EF10C0191306C00293050000FF
:100A480013054100EF10807FB767008083A787698F
:100A5800639007021306F0FF930541001305040095
:100A6800232601002324010023280100EF20402C25
:100A78008320C1030324810313010104678000005C
:100A8800130101F723248108376400802326110805
:100A9800232291081304846923200400EF301023D3
:100AA800B7640080B7160080B7750080376500808E
:100AB80093070000138704792322010023200100F3
:100AC8009308000013080000938646A2130600202E
:100AD8009385059B1305457BEF40C01F0327040042
:100AE800B767008023A0A76A1384076A63180704FE
:100AF800930700042328A1029306F0FF13060104BC
:100B08009305410113850479232CF100EF20C027B8
:100B1800B76700803767008037660080B765008058
:100B2800938787BE130747A393063004130606B4BA
:100B3800938545A413351500EFF01FE20325040043
:100B4800EF4080338320C1080324810883244108AF
:100B58001301010967800000130101F6232C8108A5
:100B6800232A910837640080B7640080232E110877
:100B78002328210923263109232441092322510945
:100B880013048469930600001306010493054101C8
:100B9800930A00041385047923200400232C5101AF
:100BA80023280102EF20401EB7690080376A0080C1
:100BB80037690080B765008093078ABE138749A309
:100BC80093066004130609B4938585AB3335A000FA
:100BD800EFF09FD8B7160080B775008037650080A2
:100BE80093070000138704792322010023200100C2
:100BF80093080000130800009386C69C1306002083
:100C08009385059B1305457BEF40C00C0327040023
:100C1800B767008023AEA7681384C7696310070409
:100C280093062000130601049305410113850479F6
:100C3800232C510123280102EF200015B7650080FD
:100C480093078ABE138749A393069004130609B431
:100C5800938545AF13351500EFF01FD00325040029
:100C6800EF4080218320C10903248109832441099D
:100C7800032901098329C108032A8108832A410815
:100C88001301010A6780000037650080130101FF26
:100C98001305057923261100EF20C007376500806A
:100CA800930500001305457A13061000EF30D002B3
:100CB8008320C100B7650080376500809385C558DB
:100CC8001305C5AA130101016F10406C130101FF40
:100CD8002326110023248100930760006304F50292
:100CE800EF30105263040502EF309051631605048B
:100CF800B7650080938545E437650080130585E571
:100D0800EF00106DEF00D0736FF0DFFFEF30505041
:100D1800E31C05FC37740080130444988325840081
:100D280037650080130585E7EF00906A0325840086
:100D3800EF4080146FF01FFDB7650080938505E4D0
:100D48006FF09FFB130101FB2324810423229104EC
:100D580023261104930760009304050013840500FB
:100D680063E0A70E3767008093172500130747B97C
:100D7800B387E70083A7070067800700376500800F
:100D8800130545CCEF00D064EF304074832744044A
:100D9800832804010328C4002328F10283270404BC
:100DA80003274400832604002326F1028327C40373
:100DB80003268404930505002324F1028327840372
:100DC80037650080130585D42322F1028327440365
:100DD8002320F10283270403232EF1008327C40272
:100DE800232CF10083278402232AF100832744025D
:100DF8002328F100832704022326F1008327C40156
:100E08002324F100832784012322F100832744014E
:100E18002320F10083278400EF00905B93050400F2
:100E280013850400EFF09FEA376500801305C5CEEF
:100E38006FF05FF537650080130585D06FF09FF47C
:100E48003765008093850400130545D2EF0050589C
:100E58006FF09FF3130101FF232481002326110063
:100E680013040500732620341316160013561600B3
:100E78009307500063E8C70237670080931726007E
:100E8800130707BBB307F70083A507003765008082
:100E9800130505BDEF00D0539305040013050000AA
:100EA800EFF05FEAB7650080938585BC6FF01FFEA1
:100EB800130101FF23261100F32520343765008034
:100EC8009395150093D51500130505EAEF005050CA
:100ED800B76500809385C5BE13054000EFF09FE617
:100EE800B76700809387476A03A70700630C07006A
:100EF80003A3070023A00700B767008003A5876A3C
:100F08006700030067800000130101FF232611001A
:100F1800EF101003EF00D054EF10500917610000D4
:100F28001301C148B71200009382028033015100B7
:100F3800EFF09FFD6F000063130101FD2324810280
:100F48002322910223202103232E3101232C410146
:100F5800232A51012328610123267101138B0700DD
:100F680023261102232481019307F000930405002E
:100F78001384050093090600138A0600930B0700E3
:100F8800930A080013890800639AF808B7270080B5
:100F980093870771639AF60883260103930509006E
:100FA8001385040013064000EF30D032938509FB07
:100FB800B305B400B727000023AE040423A0040639
:100FC80093F505FF9387078823A6F504B7170080D4
:100FD8008320C102032481029387C7F323A4450316
:100FE80023A6750323A8650323AA550323A4F504A0
:100FF80023A4B40203290102832441028329C101E5
:10100800032A8101832A4101032B0101832BC1009B
:10101800032C8100130101036780000093860801F7
:101028009307E001E3FAD7F6376C0080B7650080D4
:101038003765008013068CEC93068001938585EE56
:10104800130545F7EF00D038376500809305090090
:10105800930600FF1306E000130545F9EF0050372B
:101068009305800113058CECEF00503A6FF0DFF226
:1010780093971500B387B700139727008327C500F8
:10108800B387E7000307B5006354B70083A70700D9
:101098001357F6411377F7013307C7001357574023
:1010A80013172700B387E70023A0F6001375F6018E
:1010B80067800000130101FE9306C100232E110072
:1010C800EFF01FFB0327C100930710003395A7001B
:1010D800832707008320C101B3E7A7002320F70077
:1010E8001301010267800000130101FE9306C1008D
:1010F800232E1100EFF0DFF70327C100930710003C
:101108003395A700832707008320C1011345F5FF06
:1011180033F5A7002320A700130101026780000010
:10112800130101FE232A910083244500232C81000A
:101138001304050003558500938504002328210125
:101148002326310123244101232251012320610157
:10115800232E1100EFF08FF283290400834AA400A4
:101168009307F0FF130A0500B389A900A305F4004B
:1011780013090000130BF001634C5903930400009A
:101188008357840063CCF4088320C10103248101C0
:1011980083244101032901018329C100032A810015
:1011A800832A4100032B010013010102678000001C
:1011B8009385040013050A00EFF00FEF13171900C9
:1011C80033072701931727000327C4003307F700C5
:1011D800930747002322F7002324F700634EAB0050
:1011E800A305240193D424009384340093F4C4FF0A
:1011F800130919006FF05FF81305F5019357F541CE
:1012080093F7F701B387A70093D757409397270021
:1012180023203701B389F9006FF0DFFC83254400F0
:1012280013850400EFF08FE583270400138604007C
:10123800930500003385A7008327C4009384140016
:10124800138747002320E50003A787002322E50032
:1012580003A787002320A70023A4A70013050400E1
:10126800EFF05FE56FF0DFF1130101FA232C810441
:1012780023244105232A9103232E1104232A9104B0
:101288002328210523263105232251052320610522
:10129800232E7103232C81032328A1032326B103C2
:1012A800130401060347A500930C05001317270034
:1012B8001307F7001377077F3301E1400327450041
:1012C800130A010093060A00130737001377C7FFB4
:1012D8002320EA00130510009386460063F0A50C4E
:1012E80003C70C011389050093090600137717003B
:1012F800930400006308070093048000F3B40430EB
:1013080093F48400376B00806358090AB76400803F
:10131800B765008037650080138684FC9306000C4F
:1013280093850503130545F7EF00900A376500809C
:101338001305C5FFEF00D009138584FC9305000C45
:10134800EF00D00C9304F0FF83C70C0193F717004C
:101358006386070093F48400F3A40430130104FAAD
:101368008320C10503248105832441050329010540
:101378008329C104032A8104832A4104032B01041D
:10138800832BC103032C8103832C4103032D010309
:10139800832DC102130101066780000003A7C6FF61
:1013A8001305150013572700130737001377C7FFD6
:1013B80023A0E6006FF05FF2131729003307EA0055
:1013C800832A070003AC0C001385090093850A00E3
:1013D800EFF0CFCA938BFAFF330D7501330CAC00D5
:1013E80083A54C0003D58C00EFF04FC9636CAD02A8
:1013F800B76700809385C7FDB7670080138547F7F7
:101408009306400A13068BFCEF00807CB7670080C8
:10141800138587FFEF00C07B9305400A13058BFCFB
:10142800EF00C07E138609009305090013850C00A0
:10143800EFF05FC813171900330727019316270029
:1014480003A7CC003307D700930647002320DC000E
:10145800832687002322DC008326870023A08601B9
:101468002324870103C70C0113771700631C070C9B
:1014780093040000E30A09EC9306C4FB13860900F1
:101488009305090013850C00EFF09FBE8326C4FB6B
:101498001357F541137737003307A70003A5060054
:1014A8001377C7FF9307F0003357E5001377F7006A
:1014B800E31CF7E8130D000093FDC9FF3386AD0167
:1014C8001305060093850A002324C4FAEFF00FBB26
:1014D80033077501130C050083A54C0003D58C0058
:1014E8002326E4FAEFF08FB90327C4FA032684FA17
:1014F8006378A7029305090013850C00EFF0DFBE9F
:1015080003A70C00330C870103264C0003270C00AB
:101518002320E6002322C70023200C0023220C00EE
:10152800130D1D0093074000E31AFDF813D6F94187
:1015380013763600B30936011309F9FF93D9294008
:101548006FF09FDCF3A4043003C70C011377170076
:10155800E30007F293078000F3B4073093F48400A4
:101568006FF05FF1130101FF930705001385050074
:10157800930506001386060023261100E78007005E
:10158800EF20D074EF30500F130500006780000083
:10159800130101FF232481001304050013055004DF
:1015A800232611002322910093840500E7000400FC
:1015B8009385040013052005E700040013030400C5
:1015C800032481008320C100938504008324410003
:1015D80013052005130101016700030083A7050017
:1015E8009387170023A0F500B767008003A3875CE3
:1015F80067000300130101FC232C81022326310319
:1016080023244103232061032328A101232E11024F
:10161800232A91022328210323225103232E710117
:10162800232C8101232A91012326B1019309050066
:10163800138A0500130D0600138B0600130410000F
:101648006354E0001304070093071000930C000292
:101658006314FB00930C0003B7D49A3B13091000E2
:10166800930AA000130C00009384F49F930D2000AC
:10167800938B140063140C0063F2A40B93850B0086
:1016880013050D00EFF04FA293050A00130505039B
:10169800E780090013091900130C100093850B004B
:1016A80013050D00EFF0CFA4130D05009305A0005E
:1016B80013850400EFF04F9F938AFAFF93071000F9
:1016C80093040500E396FAFA93050A0013050D033F
:1016D800E780090093073000330424416306FB06C2
:1016E8008320C103032481038324410303290103C5
:1016F8008329C102032A8102832A4102032B0102A2
:10170800832BC101032C8101832C4101032D01018D
:10171800832DC1001301010467800000E34054F9E0
:10172800E3EE6DF793050A0013850C00E7800900C6
:10173800130919006FF09FF693050A0013050002BC
:10174800E78009001304F4FFE34880FE6FF05FF9B7
:10175800B767008023A4A75C67800000130101FB22
:10176800232481042322910423202105232E3103DD
:10177800232C4103232A5103232291032320A1036D
:10178800232EB10123261104232861032326710384
:10179800232481031304050093840500930A06009B
:1017A800138D0600130A00001309F0FF93090000C7
:1017B800930C0000B70D008003C50A0063100504F0
:1017C8008320C104032481048324410403290104E0
:1017D8008329C103032A8103832A4103032B0103BD
:1017E800832BC102032C8102832C4102032D0102A9
:1017F800832DC1011301010567800000639E0C0061
:1018080093065002630CD53693850400E700040064
:10181800938A1A006FF05FFA930640066300D512A8
:1018280063E2A6069306900363EAA60293061003F2
:101838006374D50E9306D002630CD5349307000366
:101848006300F50C130750026312E5029385040048
:1018580013055002E70004006F0000169306800588
:101868006300D51C130730066300E5309385040038
:1018780013055002E70004009385040003C50A001D
:101888006FF05FFD93060007630CD51663E0A602B0
:10189800930690066304D50A9306C006630CD50820
:1018A80093068006E306D5F66FF05FFC93065007B3
:1018B8006308D51063EEA60213073007E318E5FAAC
:1018C800032C0D00130B4D00930B0C0003C50B00EC
:1018D800631A0526930730006398F900B38B8B4190
:1018E800B30B794163487027130D0B006F00C00CD0
:1018F800930680076306D5129306A0076FF09FFA38
:10190800635E0900638A0928130905FDE39209F05B
:10191800930920006FF0DFEFE34809FE93162900D2
:101928003389260113191900130909FD3309250103
:101938006FF0DFFD130A1A006FF09FED63120A04BF
:1019480003260D00130D4D00635006029385040015
:101958001305D0022320C100E7000400032601007C
:101968001309F9FF3306C0401307090093860900DD
:101978009385040013050400EFF0DFC76F00C00370
:1019880013071000E30EEAFA93077D0013F787FFA9
:101998000326070083264700130D87003307B60187
:1019A8003337C7003307D700E30007FA93850400ED
:1019B80013050400EFF0DFBD930C00006FF05FE546
:1019C80063180A0003260D00130D4D006FF0DFF9B0
:1019D80013071000E308EAFE93077D0013F787FF5B
:1019E800130D87000326070003274700E31007FCB1
:1019F800B707008093C7F7FFE3F8C7F66FF01FFB40
:101A08009385040013050003E70004009385040090
:101A180013058007E70004001309800093091000EC
:101A28009306100063C2460B83270D002324010090
:101A3800130D4D002322F100130C0001930B00003D
:101A4800232001009308000103254100832581001C
:101A5800138BF8FF13162B0023261101EFE05F818B
:101A68001375F50063180508832701009306000322
:101A7800639807008328C100930710006396F8084D
:101A88003385A600131585019385040013558541F8
:101A9800E7000400938B1B0063180B0493063000C7
:101AA800930C0000E396D9D613171900B30B7741AE
:101AB800E35470F19385040013050002E700040065
:101AC800938BFBFF6FF0DFFE93077D0093F687FF94
:101AD80083A70600138D86002322F10083A7460002
:101AE8002324F1006FF05FF52320910193080B0088
:101AF8006FF09FF59307900093067005E3E2A7F84F
:101B0800930600036FF0DFF79307FCFF2326F1002D
:101B1800634C890193071000639CF90093850400C6
:101B280013050003E7000400032CC1006FF01FFC3D
:101B380093072000E39AF9FE938504001305000239
:101B48006FF05FFE93850400938B1B00E700040091
:101B58006FF0DFD79385040013050002E700040047
:101B6800938BFBFF6FF01FD803250D0093850400AE
:101B7800130B4D00E70004006FF01FD7130A000095
:101B88001309F0FF93090000930C10006FF05FC871
:101B9800930930006FF0DFC7930910006FF05FC73B
:101BA800130101FE13060500371500809386050012
:101BB8001305455E9305C100232E1100232601005D
:101BC800EFF0DFB98320C101130101026780000033
:101BD800130101FC2322B10293054102232E1100B7
:101BE8002324C1022326D1022328E102232AF10259
:101BF800232C0103232E11032326B100EFF05FFAF3
:101C08008320C1011301010467800000B7650080CB
:101C180037650080130101FF9385C5001305050290
:101C28001306E00123261100EFF09FFAB765008044
:101C38009385C5BE13056000EFF0CF906780000064
:101C480093078000F3A707307300501067800000E7
:101C5800930710003395A70073254530678000006F
:101C680093078000F3B70730735040307350403407
:101C780067800000130101FF2324810023229100C3
:101C880037640080232611009307A0009304050001
:101C98001304C46A631CF500032504009305D000EF
:101CA8008327450083A74700E78007000325040032
:101CB80093F5F40F8327450083A74700E7800700C3
:101CC8008320C1000324810013850400832441007C
:101CD8001301010167800000130101FF2324810023
:101CE800372400801305C4C723261100EF00805D48
:101CF8001305C4C7032481008320C1001301010117
:101D08006FF01FA537650080130101FF1305C50299
:101D180023261100EF009015B767008023A6A76A55
:101D2800EFF09FFB8320C1001305000013010101A0
:101D380067800000B70710F003A747F403A507F46E
:101D480083A547F4E39AE5FE67800000130101FECE
:101D5800232C8100232E1100232A910023282101FE
:101D68002326310123244101232251011304800039
:101D780073340430376900801305096B13748400C9
:101D8800EF201057631E0502B7640080B765008016
:101D980037650080938585059306E004138604045F
:101DA800130545F7EFF0DFE23765008013050507F7
:101DB800EFF01FE29305E00413850404EFF01FE53C
:101DC8001305096BB7640080EF201058938484686A
:101DD800EFF05FF683A9040083AA44009307050087
:101DE80033053541B3B7A700B385554137D6010050
:101DF8001306064C93060000B385F540EFE0CFCA02
:101E0800130A0500B7D501009385054C13050A0090
:101E1800EFE0DFA6B309350133B5A9003305550155
:101E280023A2A4001305096B23A03401EF20D04E90
:101E3800631E0502B7640080B765008037650080BF
:101E4800938585089306100613860404130545F741
:101E5800EFF01FD8376500801305050AEFF05FD74C
:101E68009305100613850404EFF05FDA7324043039
:101E7800032481018320C101832441010329010135
:101E88008329C100832A410013050A00032A81001F
:101E9800130101026F30806A130101FF232611002C
:101EA800EFF05FE9B7D701009387074C370710F0C9
:101EB800B307F5009306F0FF2326D7F433B5A70040
:101EC8003305B5002324F7F42326A7F4130570007F
:101ED800EFF01FD88320C100130500001301010192
:101EE800678000006392051A130101FE232E11007A
:101EF800232C8100232A9100232821012326310144
:101F08002324410123225101232061019307F0FF7B
:101F18006316F500379500001305E5BCB797000078
:101F28001304F5FF9387E7BC63DA8714138407006B
:101F38001309800073390930B76A008013850A6B6A
:101F480013798900EF20D03A631E0502B764008038
:101F5800B765008037650080938585059306E004A2
:101F680013860404130545F7EFF09FC63765008014
:101F780013050507EFF0DFC59305E0041385040496
:101F8800EFF0DFC813850A6BEF20103CEFF09FDA03
:101F9800B767008093878768B7D4010083A90700D3
:101FA800130A05009385044C1305040003AB47008E
:101FB800EFE0DF8C9387F44BB38737413305F500A7
:101FC8009385044C3305AA00EFE01F8E9385044CDB
:101FD800EFE0DF8A338A4941330AAA009307703E4B
:101FE80063C647019384044C33059500B70710F086
:101FF800B30935011307F0FF23A6E7F433B5A900A9
:102008003305650123A437F523A6A7F413850A6BC6
:10201800EF209030631E050237640080B7650080AA
:102028003765008093858508930610061306040417
:10203800130545F7EFF0DFB9376500801305050A8A
:10204800EFF01FB99305100613050404EFF01FBC49
:10205800732909308320C1010324810183244101AC
:10206800032901018329C100032A8100832A410031
:10207800032B01001301010267800000E35A04EA00
:10208800130400006FF0DFEA67800000130101FF0E
:1020980023248100232611002322910023202101DB
:1020A8001304800073340430B76400801385046B14
:1020B80013748400EF20D023631E05023769008063
:1020C800B765008037650080938585059306E00431
:1020D80013060904130545F7EFF09FAF3765008035
:1020E80013050507EFF0DFAE9305E00413050904B7
:1020F800EFF0DFB11385046BEF201025EFF09FC3DD
:10210800B767008083A78768B7D501009385054C1A
:102118003305F540EFE04FF9130905001385046B0B
:10212800EF20901F631E0502B7640080B76500802A
:102138003765008093858508930610061386040486
:10214800130545F7EFF0DFA8376500801305050A8A
:10215800EFF01FA89305100613850404EFF01FABDA
:10216800732404308320C10003248100130509006F
:102178008324410003290100130101016780000045
:102188008347050003C705006394E70063960700CB
:102198003385E74067800000130515009385150017
:1021A8006FF01FFEB347B50093F73700638C070441
:1021B80093070500130700006316E6066780000012
:1021C800E30E06FE9385150003C7F5FF93871700F6
:1021D8001306F6FFA38FE7FE13F73700E31207FE97
:1021E800930630003308E64063E2060313572600DF
:1021F800931627003306D640B387D700B385D5009A
:102208006FF05FFB930705006FF01FFDB388E500D3
:1022180083A808003388E700130747002320180124
:102228006FF05FFC3388E50003480800B386E700D9
:1022380013071700238006016FF01FF893F6F50FB8
:102248009307050013F737006314070493F5F50F98
:1022580013978500B365B70013970501B365B700F9
:102268003383C7001387070013083000B308E3401F
:10227800636A18031357260093152700B387B7001E
:102288003306B6403386C7006394C70267800000F0
:10229800E30E06FE93871700A38FD7FE1306F6FFFB
:1022A8006FF05FFA13074700232EB7FE6FF01FFC8D
:1022B80093871700A38FD7FE6FF01FFD1305F0FF5C
:1022C80067800000B767008023A6A75C67800000CE
:1022D800130101FE232C81008327850037640080C9
:1022E800232A91001304045DB7640080232E110093
:1022F80023282101232631019384446B930910007C
:10230800232004001309050023A03401E7800700F7
:102318008327490023203401E78007009307200022
:102328002320F4008327C900E780070093073000C3
:102338002320F4000324810123A004008320C10189
:1023480083244101032901018329C10037750080D5
:1023580013054582130101026F2080243775008020
:10236800130101FFB76700801307F0FF13054582CB
:102378002326110023AAE76AEF208022EF20001508
:102388008320C100130101016F20102F130101FAEE
:10239800232A9104B764008083A7846B232E110439
:1023A800232C8104232821052326310523244105D4
:1023B8002322510523206105232E7103232C810339
:1023C800232A91032328A1032326B10363C4070802
:1023D800377400801306100093090500138C05005C
:1023E8001305448293050000EF20000F3765008035
:1023F800938509001305C50FEFF08FFD376900803D
:1024080013054911B76A0080EFF08FFC9384846B41
:10241800130A0000232E8100B77C0080377B0080E0
:10242800372D0080B76D0080B76B0080938A4A0B08
:1024380083274C00639E07049385090063060A10EE
:102448003765008013054518EFF08FF893071000E3
:1024580023A0F4008320C1050324810583244105BA
:10246800032901058329C104032A8104832A41041D
:10247800032B0104832BC103032C8103832C410309
:10248800032D0103832DC10213010106678000009B
:1024980083250C00B76700801385C715EFF04FF34D
:1024A8002322010083270C0113070C0013060040A8
:1024B80093E787009308F0FF1308000093068D2D1B
:1024C8002320F10093850CBB9307000013054B8371
:1024D800EF2050008327C1019305F0FF1385478241
:1024E800EF20401A93874D6B13054B8303A4070015
:1024F800EF209018B76700809387476B03A7070002
:10250800130414009307E0FF1334140003260C008F
:102518006314F702B76500809385051713858B1739
:10252800EFF00FEB13054911EFF08FEA330A8A0039
:10253800130C4C016FF0DFEF93172400B387FA00F8
:1025480083A507006FF09FFD376500801305C51947
:10255800EFF00FE883A70400B337F0006FF05FEFE8
:10256800B767008083A7876B130101FF23248100CD
:102578003765008023261100376400801305451154
:1025880063820702EFF0CFE4B76500809385050CFE
:102598001305840C032481008320C1001301010169
:1025A8006FF00FE3EFF0CFE2B76500809385050E7B
:1025B8006FF01FFE130101FF23261100EFE0CFEC9F
:1025C8008320C100130101016FF09FF9130101FF7E
:1025D800232601008327C100938717002326F100D3
:1025E800B70701F023A0B7001301010167800000BD
:1025F8001305F0FF678000001305000067800000E6
:1026080013172500B7670080130515009387C71CAB
:1026180013152500130101FF3387E700B387A700CF
:1026280023248100232291000324070083A40700A8
:1026380023261100636C94008320C10003248100C9
:1026480083244100130101016780000083270400EF
:102658001305040083A74700E7800700630405000B
:10266800232204001304C4006FF0DFFC130101FFF0
:10267800B767008023229100B7640080232481007B
:10268800232611001384475E232021019387475E88
:1026980093840462631C94001309050013840700E3
:1026A80063149402130400006F00400403274400DD
:1026B8006308070003270400032707006308A7022D
:1026C8001304C4006FF01FFD8327440063960700BE
:1026D8001304C4006FF0DFFC83270400130509000E
:1026E80083A50700EFF0DFA9E31405FE1305040036
:1026F8008320C100032481008324410003290100B1
:102708001301010167800000130101FF23248100E8
:102718002322910023261100130480009304200033
:10272800F3370430EF20904363C4A400130510006E
:1027380093051000EF205050EFF08FD06FF05FFE40
:1027480037650080B7770080130685689387079BF5
:102758003386C74093050000130585686FF01FAEE8
:10276800130101FF1305200023261100EFF05FE994
:10277800376500801305051EEFF08FC5130530007F
:10278800EFF01FE8EF204064EFF0DFE2B77700805A
:102798009387479103C7C7001377E7FF2386E700AE
:1027A8008320C1001301010167800000130101F6B5
:1027B800232C8108B78700803774008023263109CD
:1027C800938707BB9309449823A2F9009307010153
:1027D800130600079305000013850700232E110830
:1027E800232A910823282109EFF05FA51307100079
:1027F80023A4A90013050000A30EE100EFF05FE099
:1028080013051000EFF0DFDF93071010231EF1000F
:10281800EF10D049B7670080938747223779008047
:102828002322F100B726008093071000B7750080B7
:10283800930449912320F100130700009307000037
:10284800930800001308000093868676130600207C
:10285800938505FB1305499123A09902EF20801C5D
:1028680083C7D4001304449813F7B7FFA386E40082
:1028780093F7B701639A070083A78401639607005B
:1028880013054991EF10801AB76700809387C72214
:102898002322F1003775008093071000B7260080C7
:1028A800B77500809304458A2320F1009308F0004F
:1028B80013080000930700001307000093860671B1
:1028C800130600209385051B1305458AEF20801504
:1028D80083C7D400232694001305800093F7B7FF1D
:1028E800A386F400B77700809387C799232CF40058
:1028F800232EF4007335053013758500EFD05F92F1
:1029080003270502930705006308070083A605024D
:102918001305F0FF6318D70683A6C50103A7C701EF
:10292800638606001305F0FF639EE60423AEE50008
:1029380003A7050283A6870023A0E70203A7850053
:1029480023A4D50083A6450023A4E70003A74700D6
:102958006374D70023A2E50003A7470183A6C70035
:1029680023AAE50003A6870123A6D50023ACC5004A
:10297800638C060023AA050083A7470213050000FD
:1029880023A2F50267800000E30807FE23A6E500FE
:102998006FF09FFE130101FF23248100378400801C
:1029A800130484BD23229100232021012326110032
:1029B80093048434376900801305040093060000EB
:1029C8001306100093050000EF20C01093050400C3
:1029D8001305C96613044405EF105067E31E94FC01
:1029E8008320C100032481008324410003290100BE
:1029F800130500001301010167800000B77700800C
:102A0800130101FD83A7C798232A510183AA450210
:102A18002322910223202103232E3101232861013F
:102A2800232671012326110223248102232C41012C
:102A380023AEF50093090500138B0500930B0600E0
:102A480023AABA001309050193048000F3B40430E3
:102A58001305090093F48400EF208009631E050222
:102A680037640080B76500803765008093858505E9
:102A78009306E00413060404130545F7EFF04F9599
:102A88003765008013050507EFF08F949305E00480
:102A980013050404EFF08F9713050900EF20C00A0F
:102AA80003A48900938789006310F40A63920B12C8
:102AB80013050900EF204006631E050237640080F5
:102AC800B7650080376500809385850893061006F2
:102AD80013060404130545F7EFF08F8F3765008060
:102AE8001305050AEFF0CF8E9305100613050404AD
:102AF800EFF0CF91F3A40430130A00FB6F00400AF3
:102B08009306F0FF13060000032481028320C1020C
:102B18008329C101032A8101832A4101032B010171
:102B2800832BC10093850400130509008324410207
:102B380003290102130101036F10C06C83A7C900A8
:102B4800E306F4F603240400E30204F683254401B3
:102B580013050B00EFF0DFDA130A0500E31005FE9A
:102B680013050400EF00D0368347D400232604065B
:102B780093F7F701639A0700832784016396070098
:102B880013050400EF00906A83C7DA0093F7170073
:102B9800E38807F69385040013050900EF00500445
:102BA8008320C1020324810213050A008324410201
:102BB800032901028329C101032A8101832A4101D2
:102BC800032B0101832BC10013010103678000005F
:102BD80083C7DA0093F717006382070613850A0094
:102BE8001306F0FF93850900EF10C058130509007C
:102BF800EF109072631E050237640080B76500808D
:102C0800376500809385850893061006130604042B
:102C1800130545F7EFE0DFFB376500801305050A6C
:102C2800EFE01FFB9305100613050404EFE01FFEF9
:102C3800F3A40430130A00006FF09FF693860B008C
:102C4800138609006FF05FEC832745026382070C47
:102C580083274501130101FF232481002326110046
:102C6800130405006388070013054501EF00C04AF7
:102C7800232A0400832544028327440023220402D4
:102C880003A745012322F70083C7D50093F7170050
:102C98006386070203248702376500801305C5662B
:102CA800EF10D03A630E04041305040003248100D6
:102CB8008320C100130101016F10900E83C7D50056
:102CC80023A6050613F7D7FFA386E50093F7D701D8
:102CD800639A070083A7850163960700138505009B
:102CE800EF00D054130580007335053003248100AC
:102CF8008320C10013758500130101016F00807BDB
:102D08008320C100032481001301010167800000B2
:102D180067800000930785002320A5002322A500D3
:102D28002324F5002326F5002328050067800000EA
:102D3800B777008083A7C79823A2F5026FF01FCC4E
:102D4800130101FF23248100232611001304050029
:102D5800639C050023220500032481008320C10011
:102D6800130101016FF05FEE138505008325C40090
:102D7800638805000326440063040600EFF08FC251
:102D8800130504006FF05FFD130101FD23286101A5
:102D9800377B008093074B9883A787002324810201
:102DA80023202103232E3101232C4101232A510101
:102DB800232671012326110223229102130A0500FA
:102DC80013890500930A0600938B060023A0F502D9
:102DD8009309050113048000733404301385090036
:102DE800EF10105113748400130B4B98631E0502E7
:102DF800B7640080B76500803765008093858505D6
:102E08009306E00413860404130545F7EFE05FDC3E
:102E18003765008013050507EFE09FDB9305E004A5
:102E280013850404EFE09FDE13850900EF10D051ED
:102E380083240A00631C9A06639C0B1013850900FF
:102E4800EF10904D631E0502B7640080B7650080DF
:102E58003765008093858508930610061386040459
:102E6800130545F7EFE0DFD6376500801305050A3F
:102E7800EFE01FD69305100613850404EFE01FD971
:102E880073240430130500FB6F00C0098327490031
:102E98006398070813050900EFF01FDB6F0040086F
:102EA80083274A00E38AF4F883A40400E38604F83D
:102EB80003A5440193050900EFF09FA4E31205FE62
:102EC80013850400EF00D00013850900EF10D044EB
:102ED800631E0502B7640080B7650080376500800F
:102EE800938585089306100613860404130545F791
:102EF800EFE01FCE376500801305050AEFE05FCDD0
:102F08009305100613850404EFE05FD073240430A2
:102F1800E38E0AF693850A0013050900EFF05FE2D5
:102F2800130500008320C102032481028324410287
:102F3800032901028329C101032A8101832A41014E
:102F4800032B0101832BC1001301010367800000DB
:102F580083278B0093860B0013068A0023AA270178
:102F68009305040013850900EF10C029E31C05FA36
:102F78006FF01FFA130101FF23248100232291001F
:102F880037640080B76400802326110013040462AC
:102F980093848465636E94008320C10003248100B8
:102FA800832441001305000013010101678000001C
:102FB8009307440113050400232AF400232CF4008A
:102FC800EFE00F961304C4016FF0DFFC83470500A0
:102FD800130101FE03260500232C810013943700FA
:102FE800232821013304F440376900801314240096
:102FF80093558600130509621356C60093F5F5002C
:1030080033058500232E1100232A91002326310140
:1030180023244101EFE04FA593058000F3B5053067
:10302800B76400801385C46B93F98500EF10502CAA
:1030380013090962631E0502376A0080B7650080BC
:1030480037650080938585059306E00413060A0416
:10305800130545F7EFE0DFB737650080130505076F
:10306800EFE01FB79305E00413050A04EFE01FBA69
:103078001385C46BEF10502D130544013305A900C7
:10308800EF10403C63060502032481018320C1013F
:1030980003290101032A8100938509001385C46B64
:1030A8008329C10083244101130101026F004033C9
:1030B8001385C46BEF105026631E05023764008029
:1030C800B7650080376500809385850893061006EC
:1030D80013060404130545F7EFE09FAF376500803A
:1030E8001305050AEFE0DFAE930510061305040487
:1030F800EFE0DFB1F3A509308320C101032481018A
:1031080083244101032901018329C100032A810085
:103118001301010267800000130545006FF01FEBE3
:103128008347D50093F7F7016398070003258501C6
:103138001335150067800000130500006780000044
:10314800130101FF23261100EFE05FF4B767008049
:1031580083A7876C8320C100377700803385A70059
:10316800232AA7989305000013850700130101017E
:103178006F20802C83270500130101FF2324810081
:1031880023261100232291001304050063980702E7
:10319800B7640080B7650080376500809385C530C7
:1031A800130545F7930630181386842FEFE05FA2C6
:1031B800930530181385842FEFE05FA503250400DD
:1031C8008320C100032481008324410013010101ED
:1031D80067800000130101FE232C810023263101A2
:1031E80023244101232E1100232A910023282101A1
:1031F800130A050093890500130480007334043012
:10320800B76400801385046C13748400EF10500EAB
:10321800631E050237690080B76500803765008046
:10322800938585059306E00413060904130545F7FD
:10323800EFE01F9A3765008013050507EFE05F99F7
:103248009305E00413050904EFE05F9C1385046C03
:10325800EF10900FB77700809305A00013059A0030
:1032680023AA0798EFD0CFE3B767008037690080BB
:103278002324A96C23A2376DEFF09FEC1385046C0F
:10328800EF109009631E0502B7640080B7650080DF
:103298003765008093858508930610061386040415
:1032A800130545F7EFE0DF92376500801305050A3F
:1032B800EFE01F929305100613850404EFE01F95B5
:1032C800732404308320C101032481018324410134
:1032D800032901018329C100032A81001301010286
:1032E80067800000130101FE232C8100232821019F
:1032F800232E1100232A91002326310113090500EA
:103308001304800073340430B76400801385046CA0
:1033180013748400EF10C07D631E0502B769008036
:10332800B765008037650080938585059306E004BE
:1033380013860904130545F7EFE09F893765008078
:1033480013050507EFE0DF889305E00413850904FA
:10335800EFE0DF8B1385046CEF10007F1305890005
:10336800EFF05FE193050900EF00002F8347D900D4
:103378001385046C93F7D7FFA306F900EF10C07903
:10338800631E0502B7640080B7650080376500805A
:10339800938585089306100613860404130545F7DC
:1033A800EFE01F83376500801305050AEFE05F82B1
:1033B8009305100613850404EFE05F857324043039
:1033C8008320C101032481012324090083244101AE
:1033D800032901018329C10013010102678000004C
:1033E800B777008083A74798130101FF2324810042
:1033F800232611002322910013840500639E0704ED
:10340800EF108071631E0502B7640080B765008005
:103418003765008093858508930680071386040422
:10342800130545F7EFE0CFFA376500801305050A65
:10343800EFE00FFA9305800713850404EFE00FFD12
:1034480013050400032481008320C1008324410064
:10345800130101016FC0DFDCEF10006C631E050271
:10346800B7640080B765008037650080938585085C
:103478009306100613860404130545F7EFE04FF58D
:10348800376500801305050AEFE08FF493051006F1
:1034980013850404EFE08FF7137484007324043059
:1034A8008320C1000324810083244100130101010A
:1034B8006780000037770080032747986314070068
:1034C8006FC01FD693778500F3A707306780000089
:1034D8001305800073350530137585006FF09FFD67
:1034E800130101FE232C8100232E1100232A9100B1
:1034F800232821012326310113048000733404306A
:10350800B76400801385046C13748400EF10405E68
:10351800631E050237690080B76500803765008043
:10352800938585059306E00413060904130545F7FA
:10353800EFE00FEA3765008013050507EFE04FE974
:103548009305E00413050904EFE04FEC1385046CC0
:1035580037790080EF10405F83274998130949980D
:10356800638E0702B7690080B76500803765008001
:10357800938505299306001013864927130545F7F7
:10358800EFE00FE537650080130585FFEFE04FE4B6
:103598009305001013854927EFE04FE7832789003B
:1035A80003C7F70093071000631EF702B76900808E
:1035B800B7650080376500809385852A93061010CB
:1035C80013864927130545F7EFE08FE0376500803C
:1035D800130585FFEFE0CFDF93051010138549270A
:1035E800EFE0CFE2032789008347F7009387F7FFCF
:1035F800A307F7001385046CEF100052631E050241
:10360800B7640080B76500803765008093858508BA
:103618009306100613860404130545F7EFE04FDB05
:10362800376500801305050AEFE08FDA9305100669
:1036380013850404EFE08FDD732404308320C10177
:103648000324810183244101032901018329C10045
:103658001301010267800000B767008083A7075E37
:10366800130101FF23248100232611002322910046
:10367800138405006398F502B7640080B76500807D
:10368800376500809385C537130545F79306C0282D
:103698001386842FEFE0CFD39305C0281385842F9A
:1036A800EFE0CFD603274400832704008320C1001E
:1036B800832441002320F70023A2E70023200400ED
:1036C8002322040003248100130101016780000004
:1036D800130101FE232C8100232A9100232E1100BF
:1036E80023282101232631011304050093048000B7
:1036F800F3B40430376900801305096C93F484002F
:10370800EF10003F631E0502B7690080B7650080AF
:1037180037650080938585059306E00413860904C0
:10372800130545F7EFE0CFCA376500801305050795
:10373800EFE00FCA9305E00413850904EFE00FCD0D
:103748001305096CEF10404013058400EFF09FA2A9
:1037580093050400EFF05FF08347D4001305096C6C
:1037680093F7D7FFA306F400EF10003B631E050292
:1037780037690080B76500803765008093858508C4
:103788009306100613060904130545F7EFE04FC426
:10379800376500801305050AEFE08FC3930510060F
:1037A80013050904EFE08FC6F3A4043023240400B2
:1037B80013058401032481018320C101832441016D
:1037C800032901018329C100130101026F10902907
:1037D800832705006314F50093070000138507008D
:1037E80067800000130101FF2324810037740080E3
:1037F80023202101130905001305449813054502E8
:103808002322910023261100EFF09FFC1304449813
:1038180093040500631405008324C400631E09068D
:1038280083278400639E070237690080B76500809C
:1038380037650080938545329306F0071306892F74
:10384800130545F7EFE0CFB837650080130585FF0E
:10385800EFE00FB89305F0071305892FEFE00FBBD2
:103868008327840003C7D7001377F701631607027D
:1038780083D6E7001307F0076370D7022320F4020A
:103888008320C1000324810083244100032901000F
:103898001301010167800000832784006384970077
:1038A800EFF01F8A232094026FF09FFD130101FEA1
:1038B80023282101377900809307499883A7870037
:1038C800232E1100232C810083C7F700232A91009F
:1038D8002326310113094998639E07023764008043
:1038E800B7650080376500809385052D9306102203
:1038F8001306842F130545F7EFE08FAD3765008079
:10390800130585FFEFE0CFAC930510221305842F34
:10391800EFE0CFAF83270900638E0702376400808A
:10392800B7650080376500809385052993062022B6
:103938001306842F130545F7EFE08FA9376500803C
:10394800130585FFEFE0CFA8930520221305842FE8
:10395800EFE0CFAB1304800073340430B764008009
:103968001385046C13748400EF108018631E05021D
:10397800B7690080B7650080376500809385850545
:103988009306E00413860904130545F7EFE04FA4F6
:103998003765008013050507EFE08FA39305E00462
:1039A80013850904EFE08FA61385046CEF10C01986
:1039B80003278900130510008347F7009387170032
:1039C800A307F700EFF01FE21385046CEF10C01493
:1039D800631E0502B7640080B76500803765008004
:1039E800938585089306100613860404130545F786
:1039F800EFE00F9E376500801305050AEFE04F9D45
:103A08009305100613850404EFE04FA073240430D7
:103A1800032481018320C101832441010329010179
:103A28008329C100130101026FF09FAA130101FE4F
:103A3800232C8100232A9100232E11002328210101
:103A4800232631011304050093048000F3B40430E5
:103A5800376900801305096C93F48400EF1040095E
:103A6800631E0502B7690080B7650080376500806E
:103A7800938585059306E00413860904130545F725
:103A8800EFE00F953765008013050507EFE04F94C9
:103A98009305E00413850904EFE04F971305096CBB
:103AA800EF10800AB767008083A7075E6318F402E7
:103AB800B7690080B7650080376500809385C53792
:103AC800130545F7930660271386892FEFE04F907B
:103AD800930560271385892FEFE04F933777008090
:103AE8009306479883A7460203A68602B776008006
:103AF8009386869A130747986386D70A6384070ACA
:103B08008305E4000385E70063D8A50803A74700F9
:103B18002320F4002322E4002320870023A2870027
:103B28008347D4001305000093E70704A306F400B5
:103B3800EFF05FCB1305096CEF00107E631E0502E2
:103B480037640080B76500803765008093858508F5
:103B58009306100613060404130545F7EFE04F8794
:103B6800376500801305050AEFE08F869305100678
:103B780013050404EFE08F89F3A404308320C10106
:103B88000324810183244101032901018329C10000
:103B980013010102678000006306F60083A707008F
:103BA800E39207F62322C400832787022320D40048
:103BB80023A08700232487026FF09FF6832705FF41
:103BC800130101FE232C810023263101232E11002D
:103BD800232A9100232821012324410113040500ED
:103BE800930985FE6384070C93048000F3B40430C2
:103BF800376900801305096C93F48400EF00506F57
:103C0800631E0502376A0080B7650080376500804B
:103C1800938585059306E00413060A04130545F702
:103C2800EFD01FFB3765008013050507EFD05FFA5B
:103C38009305E00413050A04EFD05FFD1305096C32
:103C4800EF009070130504FFEFF0CFD293850900C1
:103C5800EFF09FA0834754FF1305096C93F7D7FF34
:103C6800A30AF4FEEF00506B631E0502376900805B
:103C7800B765008037650080938585089306100630
:103C880013060904130545F7EFD09FF43765008044
:103C98001305050AEFD0DFF3930510061305090491
:103CA800EFD0DFF6F3A40430232804FE834754FF43
:103CB8001385090093F7B7FEA30AF4FEEFF04FC689
:103CC80063040502032481018320C1018324410187
:103CD80003290101032A8100138509008329C100F2
:103CE800130101026FF09FD48320C10103248101D5
:103CF80083244101032901018329C100032A81008A
:103D08001301010267800000130101FE232C8100CA
:103D180023282101232E1100232A91002326310173
:103D280023244101232251011304050013098000B3
:103D380073390930B76900801385096C13798900D4
:103D4800EF00105B631E0502B7640080B765008052
:103D580037650080938585059306E004138604047F
:103D6800130545F7EFD0DFE6376500801305050733
:103D7800EFD01FE69305E00413850404EFD01FE994
:103D88001385096CEF00505CB77400801385449864
:103D98009305040013054502EFF01F8CB7670080F8
:103DA80083A7075E377A008093844498130A8A9A17
:103DB8006318F402B76A0080B76500803765008031
:103DC8009385C537130545F79306602713868A2F11
:103DD800EFD01FE09305602713858A2FEFD01FE3EC
:103DE80083A7440203A78402638E470B638C070AE8
:103DF8008306E4000386E70063D0C60A03A74700EA
:103E08002320F4002322E4002320870023A2870034
:103E18008347D40003A5840093E70704330585404E
:103E280013351500A306F400EFF0DF9B1385096C2A
:103E3800EF00904E631E050237640080B76500806E
:103E480037650080938585089306100613060404D9
:103E5800130545F7EFD0DFD7376500801305050A4E
:103E6800EFD01FD79305100613050404EFD01FDA0F
:103E7800732909308320C10103248101832441016E
:103E8800032901018329C100032A8100832A4100F3
:103E980013010102678000006386E70083A707001B
:103EA800E39A07F42322E40083A784022320440131
:103EB80023A0870023A484026FF09FF5B7670080D2
:103EC80083A7876C63860706B77700809387479830
:103ED80003A787009306F0070356E70063EAC604C2
:103EE800B76600800306E70083A6466C6342D604E3
:103EF800B766008083A6065E630CD7028326870117
:103F08006398060283A607016340D502130101FFE7
:103F18001305070023261100EFF01FDF8320C100DF
:103F2800130101016FF0CFA1B386A64023A8D700E3
:103F380067800000130101FE232C81002326310134
:103F4800232E1100232A910023282101930905001B
:103F58001304800073340430B76400801385046C44
:103F680013748400EF00D038631E0502376900809F
:103F7800B765008037650080938585059306E00462
:103F880013060904130545F7EFD09FC43765008071
:103F980013050507EFD0DFC39305E00413050904F3
:103FA800EFD0DFC61385046CEF00103A83C7D90041
:103FB800377900801309499893F70704638E07003F
:103FC8009385090013054902EFF00FE983C7D9006B
:103FD80093F7F7FBA386F9000325890033053541DC
:103FE80013351500EFF01F801385046CEF00D032F5
:103FF800631E0502B7640080B765008037650080DE
:10400800938585089306100613860404130545F75F
:10401800EFD01FBC376500801305050AEFD05FBBE2
:104028009305100613850404EFD05FBE7324043093
:104038008320C10103248101832441010329010153
:104048008329C1001301010267800000130101FEEA
:10405800232C8100232A9100130405002328210121
:10406800232E11002326310193840500130906002D
:10407800EFF05FEC8347D40093E72700A306F40032
:1040880063860406B767008083A7075E232494002D
:104098006318F402B7690080B7650080376500804F
:1040A8009385C537130545F7930660271386892F2F
:1040B800EFD01FB2930560271385892FEFD01FB566
:1040C80083A70400638CF406638A07060307E400E9
:1040D8008386E700635CD70403A747002320F40026
:1040E8002322E4002320870023A287009307F0FF00
:1040F8006304F9069305A00013059900EFC04FFA71
:104108001306150013058401032481018320C101CE
:1041180083244101032901018329C100B745008097
:10412800938545BC130101026F00107183A64400FA
:104138006386D70083A70700E39C07F883A744009A
:10414800232094002322F40083A7440023A087009F
:1041580023A284006FF09FF98320C1010324810109
:1041680083244101032901018329C10013010102AC
:1041780067800000B777008083A7C798130101FE06
:10418800232C81002328210123263101232E11000D
:10419800232A9100130405001389050093090600DA
:1041A800638EA7028347D50093F717006398070229
:1041B800B7640080B7650080376500809385453413
:1041C800130545F79306D0171386842FEFD05FA009
:1041D8009305D0171385842FEFD05FA31305040030
:1041E800032481018320C10183244101138609002E
:1041F800930509008329C100032901011301010264
:104208006FF0DFE4130101FFB777008023248100FA
:104218001304050003A5C798232291009384050081
:10422800930506001386060023261100EFF01FE20F
:1042380013050400EF00500E631E0502376400806A
:10424800B7650080376500809385850893068007E9
:1042580013060404130545F7EFD09F9737650080D0
:104268001305050AEFD0DF969305800713050404AC
:10427800EFD0DF99032481008320C1001385040057
:1042880083244100130101016FB09FF9130101FE5E
:104298002328210123263101232E1100232C8100FC
:1042A800232A910093090500130980007339093006
:1042B800B76400801385046C13798900EF005003FC
:1042C800631E050237640080B7650080376500808B
:1042D800938585059306E00413060404130545F742
:1042E800EFD01F8F3765008013050507EFD05F8E6D
:1042F8009305E00413050404EFD05F911385046C63
:10430800EF00900413850900EFF08FCC130405002B
:104318001385046CEF005000631E0502B769008026
:10432800B765008037650080938585089306100679
:1043380013860904130545F7EFD09F893765008078
:104348001305050AEFD0DF889305100613850904C5
:10435800EFD0DF8B732909306306040C1309800042
:10436800733909301385046C13798900EF0040789C
:10437800631E0502B7690080B76500803765008055
:10438800938585059306E00413860904130545F70C
:10439800EFD01F843765008013050507EFD05F83D2
:1043A8009305E00413850904EFD05F861385046C38
:1043B800EF00807913058400EFE0DFDB930504004C
:1043C800EFF08FA98347D4001385046C93F7D7FFC8
:1043D800A306F400EF004074631E0502B764008072
:1043E800B7650080376500809385850893061006B9
:1043F80013860404130545F7EFD08FFD3765008059
:104408001305050AEFD0CFFC9305100613850404A5
:10441800EFD0CFFF7329093023240400130584014A
:10442800EF005064130504008320C10103248101B7
:1044380083244101032901018329C10013010102D9
:1044480067800000130101FF23229100232021012E
:10445800232611002324810013090500930400007A
:104468000324090063048900631004028320C10047
:1044780003248100138504000329010083244100DB
:10448800130101016780000013050400EFF04FA439
:1044980013050400EFE0DFC893041000E30205FCF5
:1044A80013050400EFF08FD86FF09FFBB7770080FB
:1044B800938747981387470223A2E70223A4E702BA
:1044C80093050000130500006FE0DFD0B777008088
:1044D80003A5C79867800000130101FE232C810003
:1044E800232A910023282101232E1100232631019C
:1044F800130405001389050093040600631E0602D1
:10450800B7690080B7650080376500809385053AF4
:104518009306600413860939130545F7EFD04FEB6E
:10452800376500801305C53AEFD08FEA930560041C
:1045380013850939EFD08FED63FE2403B769008036
:10454800B7650080376500809385453C9306700405
:1045580013860939130545F7EFD08FE737650080D3
:104568001305C53DEFD0CFE69305700413850939CF
:10457800EFD0CFE9232424012326940023208400AC
:10458800232284008320C101032481018324410163
:10459800032901018329C10013010102678000007A
:1045A800130101FE232A910023263101232E110035
:1045B800232C8100232821019309050093048000FE
:1045C800F3B40430376400801305C46C93F484009A
:1045D800EF000052631E050237690080B76500804E
:1045E80037650080938585059306E0041306090462
:1045F800130545F7EFD0CFDD3765008013050507B4
:10460800EFD00FDD9305E00413050904EFD00FE0A8
:104618001305C46CEF00405313850900EFF01FC762
:1046280013090500630205048347D50093F7F701D2
:10463800639807008327850163940700EFF00FBF95
:10464800232609061305C46C032481018320C101B4
:10465800032901018329C1009385040083244101B2
:10466800130101026FE0DFD703A7890083A7C90000
:10467800B387E740B337F000B387E70023A4F90016
:104688006FF05FFCB777008083A74798130101FE9E
:104698002328210123263101232E1100232C8100F8
:1046A800232A910023244101130905009389050059
:1046B80063800704638E050237640080B765008055
:1046C80037650080938545409306C0081306043972
:1046D800130545F7EFD0CFCF37650080130585FF69
:1046E800EFD00FCF9305C00813050439EFD00FD2D0
:1046F8001304800073340430B76400801385C46CDD
:1047080013748400EF00C03E631E0502376A008000
:10471800B765008037650080938585059306E004BA
:1047280013060A04130545F7EFD08FCA37650080D2
:1047380013050507EFD0CFC99305E00413050A0454
:10474800EFD0CFCC1385C46CEF00004083278900DD
:10475800638C07069387F7FF2324F9001385C46C3D
:10476800EF00803B631E0502B7640080B7650080D8
:104778003765008093858508930610061386040420
:10478800130545F7EFD0CFC4376500801305050A38
:10479800EFD00FC49305100613850404EFD00FC79C
:1047A80073240430130500008320C1010324810110
:1047B80083244101032901018329C100032A8100BF
:1047C8001301010267800000639A09041385C46C11
:1047D800EF008034631E0502B7640080B76500806F
:1047E80037650080938585089306100613860404B0
:1047F800130545F7EFD0CFBD376500801305050ACF
:10480800EFD00FBD9305100613850404EFD00FC039
:1048180073240430130500FF6FF01FF9930504009B
:10482800032481018320C101032A810093860900A2
:10483800130609008329C100032901011385C46CEB
:1048480083244101130101026FF0DF9B0327050157
:1048580083274501130101FE232A910023244101E6
:10486800232E1100232C8100232821012326310126
:1048780093040500138A0500631EF702376400805D
:10488800B765008037650080938585479306800665
:1048980013068443130545F7EFD08FB337650080BF
:1048A80013054549EFD0CFB293058006130584431D
:1048B800EFD0CFB59389840013048000733404309B
:1048C8001385090013748400EF008022631E05021B
:1048D80037690080B7650080376500809385850556
:1048E8009306E00413060904130545F7EFD04FAE0D
:1048F8003765008013050507EFD08FAD9305E004F9
:1049080013050904EFD08FB013850900EF00C02309
:1049180013850400EFF09F9713090500630605044B
:104928008347D50093F7F70163980700832785012C
:1049380063940700EFF08F8F93050400032481012F
:10494800232A4901232609068320C1018324410122
:1049580003290101032A8100138509008329C10065
:10496800130101026FE0DFA783A704011385090083
:1049780023A047019387470023A8F400EF00C0193C
:10498800631E0502B7640080B76500803765008044
:10499800938585089306100613860404130545F7C6
:1049A800EFD00FA3376500801305050AEFD04FA29B
:1049B8009305100613850404EFD04FA57324043023
:1049C8008320C101032481018324410103290101BA
:1049D8008329C100032A81001301010267800000B6
:1049E8008347D50093F7F7016398070003258501EE
:1049F800133515006780000013050000678000006C
:104A0800B777008003A547983335A000678000007A
:104A1800B777008083A7C79803C5C700137515002B
:104A280067800000130101FE03230102232C81008B
:104A3800232E11002320610013040500EFC0CFCFFF
:104A4800B777008083A7C7988320C10183A787060B
:104A58002324F40603248101130101026780000066
:104A680083270506130101FF232481002326110053
:104A78001304050063840700E7800700130504009A
:104A8800EFF01FF66304050213050400EFF08FCA68
:104A98008347D4008320C10093E78700A306F4006E
:104AA8000324810013010101678000008347D400BB
:104AB80093F727006386070013050400EFE09F8241
:104AC80083278401E38607FC13058401EF008079BE
:104AD8006FF01FFC2306D500A306C5002307B50009
:104AE800A3070500232C0500232E0500678000007E
:104AF80003250500630E0500B777008083C78799F3
:104B0800137535003305F5403335A0006780000084
:104B18001305100067800000B777008093874798D7
:104B280003C7470183A78700B3E7E700032705000A
:104B38006318F700232005001305100067800000A4
:104B48001305000067800000B777008093874798B7
:104B580003C7470183A78700B3E7E7002320F500D1
:104B680067800000130101FE232C81002328210106
:104B7800232E1100232A9100232631011309050051
:104B88001304800073340430B76400801385046D07
:104B980013748400EFF0DFF5631E0502B769008027
:104BA800B765008037650080938585059306E00426
:104BB80013860904130545F7EFD08F813765008008
:104BC80013050507EFD0CF809305E004138509048A
:104BD800EFD0CF831385046DEFF01FF78347D9001B
:104BE80013F74700631407061385046DEFF0DFF22F
:104BF800631E0502B7640080B765008037650080D2
:104C0800938585089306100613860404130545F753
:104C1800EFC01FFC376500801305050AEFC05FFB76
:104C28009305100613850404EFC05FFE7324043057
:104C38008320C10103248101832441010329010147
:104C48008329C100130101026780000093F7B7FFB1
:104C5800A306F90013050900EFF09FD863060500C5
:104C680013050900EFE09FDC93050400032481018C
:104C78008320C101032901018329C1001385046D23
:104C880083244101130101026FE08FF5639405004D
:104C98006FF05FED130101FF232481001304050069
:104CA80013850500130595009305A0002326110020
:104CB800EFB01FBF130615001305840103248100FC
:104CC8008320C100B7450080938545BC13010101CD
:104CD8006F008036130101FC23225103938A0600DA
:104CE800B776008083A64698232C8102232A910256
:104CF8002326310323244103232E110223282103D1
:104D08001304050093890500130A0600832441044F
:104D1800638E060437690080B765008037650080B8
:104D28009306201B1306494A93850529130545F761
:104D3800232E1101232C0101232AF1002328E1004D
:104D4800EFC01FE9376500801305854BEFC05FE8AA
:104D58009305201B1305494AEFC05FEB8328C10167
:104D680003288101832741010327010183260104C8
:104D78002322010013060A002320D100938509008D
:104D880093860A0013050400EFF0DFC99307F0FFCC
:104D98006388F4009385040013050400EFF01FEF07
:104DA800130504008320C1030324810383244103E2
:104DB800032901038329C102032A8102832A4102AC
:104DC8001301010467800000130101FEB76700802A
:104DD8002328210137690080232C8100232A910090
:104DE800232E110013840762938407621309096252
:104DF8006366240313840400EFE08FEE9304F0FF4E
:104E080063602407032481018320C10183244101B5
:104E180003290101130101026FE05FA98327C4027E
:104E28002322F100832704022320F1008327440171
:104E38008328C40103288401032704018326C400AE
:104E4800032684008325440003250400EFF09FBD5A
:104E58008327040023AE8704130404036FF05FF96B
:104E6800832544026386950003250400EFF01FE2C2
:104E7800130404036FF0DFF8130101FE232C8100F3
:104E8800232A9100232E11002328210193040500D1
:104E98002326010013048000733404301305C10075
:104EA80013748400EFF0DFC4631E050237690080C5
:104EB800B765008037650080938585059306E00413
:104EC80013060904130545F7EFC09FD03765008026
:104ED80013050507EFC0DFCF9305E00413050904A8
:104EE800EFC0DFD21305C100EFF01FC683C7C400AF
:104EF80093F71700638E070237690080B765008053
:104F0800376500809385854F930690021306094EF6
:104F1800130545F7EFC0DFCB376500801305C55291
:104F2800EFC01FCB930590021305094EEFC01FCEAB
:104F380013850400EFF0DFB2930504001305C100E8
:104F4800EFE00FCA8320C1010324810183244101BA
:104F5800032901011301010267800000B76700807F
:104F680083A7476D639407006FD04F921305000025
:104F78006780000083270500630205023767008009
:104F88000327875D630CE500638A070003A7870092
:104F9800832685003307D70023A4E70003274500AD
:104FA8002320F70023A2E700232005002322050081
:104FB80067800000B767008083C7C76D130101FFD2
:104FC8002326110023248100232291001305F0FFDA
:104FD80063960700370500801345F5FFB767008023
:104FE8009387475D03A407006304F4026302040285
:104FF80083248400EFF09FF6B384A44013050000D7
:1050080063C8040003248400EFF05FF53305A4406F
:10501800B777008083A747996386070063D4A70002
:10502800138507008320C1000324810083244100E5
:10503800130101016780000083270500130101FDAA
:105048002324810223229102232E310123261102D7
:1050580023202103232C4101232A51012328610104
:105068002326710123248101130405009389050077
:1050780093040600638E070237690080B7650080D5
:10508800376500809385C5559306D0041306895467
:10509800130545F7EFC0DFB337650080130585FFBB
:1050A800EFC01FB39305D00413058954EFC01FB692
:1050B8002326340163449000930410009309800070
:1050C800F3B90930376A008013058A6D93F98900AE
:1050D800EFF01FA2631E050237690080B7650080E4
:1050E80037650080938585059306E0041306090457
:1050F800130545F7EFC0DFAD3765008013050507D9
:10510800EFC01FAD9305E00413050904EFC01FB0FD
:1051180013058A6DEFF05FA3EFF05FE433059500A8
:10512800B764008003A9445D2324A4009384445DEC
:10513800630C9900B76A0080376B0080B76B0080FA
:10514800376C00806310090283A744002320940071
:105158002322F40083A7440023A0870023A284000D
:105168006F00C0058327890063D607029305CB57D4
:105178009306600513868A5413854BF7EFC05FA525
:1051880013058CFFEFC0DFA49305600513858A54CF
:10519800EFC0DFA7032789008327840063D8E70AC5
:1051A800B307F7402324F90083274900232024016B
:1051B8002322F40023A087002322890083A7040068
:1051C800638A97006318F400EFF0DFDE93050000B0
:1051D800EFC05FD113058A6DEFF01F94631E0502BF
:1051E80037640080B765008037650080938585083F
:1051F8009306100613060404130545F7EFC05F9DD8
:10520800376500801305050AEFC09F9C93051006BB
:1052180013050404EFC09F9FF3A909308320C1023E
:105228000324810283244102032901028329C10145
:10523800032A8101832A4101032B0101832BC10029
:10524800032C81001301010367800000B387E74046
:105258002324F40083A74400E38827EF03290900E7
:105268006FF05FEE130101FE232C8100232631012C
:10527800232E1100232A91002328210193090500D8
:105288001304800073340430B76400801385846D80
:1052980013748400EFF0DF85631E05023769008010
:1052A800B765008037650080938585059306E0041F
:1052B80013060904130545F7EFC09F913765008071
:1052C80013050507EFC0DF909305E00413050904F3
:1052D800EFC0DF931385846DEFF01F8783A7090064
:1052E8001309A0FE6388070013850900EFF09FC823
:1052F800130900001385846DEFF01F82631E0502F9
:10530800B7640080B765008037650080938585089D
:105318009306100613860404130545F7EFC05F8B48
:10532800376500801305050AEFC09F8A93051006AC
:1053380013850404EFC09F8D732404308320C101BA
:105348000324810113050900832441010329010174
:105358008329C1001301010267800000130101FFC6
:1053680023248100232611002322910023202101D8
:105378001304800073340430B76400801385846D8F
:1053880013748400EFF0CFF6631E050237690080BE
:10539800B765008037650080938585059306E0042E
:1053A80013060904130545F7EFC09F82376500808F
:1053B80013050507EFC0DF819305E0041305090411
:1053C800EFC0DF841385846DEFF00FF8EFF09FBE18
:1053D800130905001385846DEFF00FF4631E0502B1
:1053E800B7640080B76500803765008093858508BD
:1053F8009306100613860404130545F7EFC04FFD06
:10540800376500801305050AEFC08FFC9305100669
:1054180013850404EFC08FFF732404308320C10078
:105428000324810013050900832441000329010096
:105438001301010167800000130101FE232C810084
:105448002328210123244101232E1100232A91001E
:105458002326310113090500138A0500130480006F
:1054680073340430B76400801385846D137484002A
:10547800EFF00FE8631E0502B7690080B76500808A
:1054880037650080938585059306E0041386090433
:10549800130545F7EFC0CFF33765008013050507FF
:1054A800EFC00FF39305E00413850904EFC00FF66E
:1054B8001385846DEFF04FE9EFF0DFAF635CA9006F
:1054C8009307100063D8A70093050A001305090085
:1054D800EFC05FA11385846DEFF00FE4631E050232
:1054E800B7640080B76500803765008093858508BC
:1054F8009306100613860404130545F7EFC04FED15
:10550800376500801305050AEFC08FEC9305100678
:1055180013850404EFC08FEF732404308320C10186
:105528000324810183244101032901018329C10046
:10553800032A81001301010267800000130101FDA5
:1055480023248102232C41012326110223229102C4
:1055580023202103232E3101232A5101232861010D
:105568002326710123248101232291012320A101F3
:10557800130A050013048000EFE05F9473340430CD
:10558800376900801305896D13748400EFF04FD6D6
:10559800631E0502B7640080B76500803765008028
:1055A800938585059306E00413860404130545F7DF
:1055B800EFC00FE23765008013050507EFC04FE124
:1055C8009305E00413850404EFC04FE4B769008035
:1055D8001305896DEFF04FD7B764008023AA496D92
:1055E800376A00809389496D130A4A5D9384046978
:1055F800B76A0080B76B0080376B0080376C00801B
:10560800B76C0080032D0A0083A7090083A6040055
:1056180003A54400630C4D01630A0D0003278D00A8
:1056280063DCE70A3307F7402324ED00B386D7008D
:1056380013D7F7413307A700B3B7F600B387E700DE
:1056480023A0D40023A2F40023A00900EFF09F9622
:1056580093050000EFC01F891305896DEFF0CFCBCC
:10566800631E0502B7640080B76500803765008057
:10567800938585089306100613860404130545F7D9
:10568800EFC00FD5376500801305050AEFC04FD46A
:105698009305100613850404EFC04FD77324043014
:1056A8008320C102032481028324410203290102C9
:1056B8008329C101032A8101832A4101032B0101A6
:1056C800832BC100032C8100832C4100032D010092
:1056D8001301010367800000B306D7009355F74113
:1056E800B385A50033B6E6003306B600B387E740B6
:1056F80013050D0023240D0023A0D40023A2C40009
:1057080023A0F900EFF01F871305896DEFF0CFC0D4
:105718006316050293858B089306100613860A0400
:1057280013054BF7EFC0CFCA13050C0AEFC04FCAD9
:105738009305100613850A04EFC04FCD7324043077
:105748008327CD0013050D0013048000E7800700B0
:10575800733404301305896D13748400EFF04FB966
:105768006318050293858C059306E00413860A04E2
:1057780013054BF7EFC0CFC5376500801305050744
:10578800EFC00FC59305E00413850A04EFC00FC8E6
:105798001305896DEFF04FBB6FF0DFE667800000FF
:1057A80000000000B80E008000000000B80E008065
:1057B80000000000B80E008000000000B80E008055
:1057C80000000000B80E008000000000B80E008045
:1057D80000000000B80E008000000000541D00808A
:1057E80000000000B80E008000000000B80E008025
:1057F80000000000B80E008000000000B80E008015
:1058080000000000B80E008000000000B80E008004
:1058180000000000B80E008000000000B80E0080F4
:1058280000000000B80E008000000000B80E0080E4
:1058380000000000B80E008000000000B80E0080D4
:1058480000000000B80E008000000000B80E0080C4
:1058580000000000B80E008000000000B80E0080B4
:1058680000000000B80E008000000000B80E0080A4
:1058780000000000B80E008000000000B80E008094
:1058880000000000B80E008000000000B80E008084
:1058980000000000B80E008000000000B80E008074
:1058A80000000000B80E008000000000B80E008064
:1058B80000000000B80E008000000000B80E008054
:1058C80000000000B80E008000000000B80E008044
:1058D80000000000B80E008000000000B80E008034
:1058E80000000000B80E008000000000B80E008024
:1058F800E85B00800C1D0080000000003460008020
:10590800A01E0080000000002C600080002600809F
:1059180000000000E85B00809C2900800000000077
:0C592800E85B00807C2F00800000000085
:105934000001020203030303040404040404040432
:105944000505050505050505050505050505050503
:1059540006060606060606060606060606060606E3
:1059640006060606060606060606060606060606D3
:1059740007070707070707070707070707070707B3
:1059840007070707070707070707070707070707A3
:105994000707070707070707070707070707070793
:1059A4000707070707070707070707070707070783
:1059B4000808080808080808080808080808080863
:1059C4000808080808080808080808080808080853
:1059D4000808080808080808080808080808080843
:1059E4000808080808080808080808080808080833
:1059F4000808080808080808080808080808080823
:105A04000808080808080808080808080808080812
:105A14000808080808080808080808080808080802
:105A240008080808080808080808080808080808F2
:105A34006D73675F72656365697665720000000067
:105A44006B5F6D626F785F67657428706D626F78E5
:105A54002C20266D6D73672C207278646174612C20
:105A6400204B5F464F524556455229203D3D20303C
:105A74002069732066616C7365000000746573743B
:105A84005F6D73675F7265636569766572000000B8
:105A94006D73675F72656365697665725F756E6C59
:105AA400696D697465640000746573745F6D626F19
:105AB400780000006B5F6D626F785F6765742870B3
:105AC4006D626F782C20266D6D73672C207278645C
