:0200000480007A
:100000009702000093820201739052306F10C00774
:10001000130101FB2320110023223100232441007E
:100020002326510023286100232A7100232CC101BB
:10003000232ED1012320E1032322F1032324A10253
:100040002326B1022328C102232AD102232CE10254
:10005000232EF1022320010523221105F32210345F
:1000600023245104F322003023265104EF00001F03
:1000700013030000631E0502F3222034B70300803F
:100080009383F3FFB3F272001303B000638A62003C
:100090001305010097000000938040136F00507219
:1000A0008322810493824200232451046F000009BB
:1000B00093020100977300009383030803A1430098
:1000C000130101FF2320510003AE0300130E1E0095
:1000D00023A0C30163080300970000009380C003BE
:1000E0006F00D07673252034B70200809382F2FF30
:1000F00033755500EF00801597620000938202EE81
:1001000013153500B382A20003A5020003A3420029
:10011000E7000300177300001303030283230300A7
:100120009383F3FF232073008322010013810200D5
:1001300083238300032E030263087E089772000066
:10014000938282FF03A38200232683022328930243
:10015000232A2303232C3303232E43032320530575
:10016000232263052324730523268305232893056F
:10017000232AA305232CB30523242302977300000D
:100180009383C3C103AE03002326C30703A3020264
:1001900023A46200032183020324C30283240303F4
:1001A0000329430383298303032AC303832A030404
:1001B000032B4304832B8304032CC304832C0305E8
:1001C000032D4305832D830583228104739012340C
:1001D0008322C104739002308320010083214100F7
:1001E000032281008322C1000323010183234101F3
:1001F000032E8101832EC101032F0102832F4102AF
:10020000032581028325C1020326010383264103BE
:10021000032781038327C1030328010483284104A2
:100220001301010573002030730000009772000075
:10023000938282F003A382008323C3061375850093
:10024000F3220530138503006780000013031000BC
:10025000B312A30073B3423467800000F32220344A
:1002600037030080B3F262001305000063840200CC
:08027000130515006780000072
:100278006300060293070002B387C740634CF0008F
:10028800130506FE1307000033D5A50093050700E4
:100298006780000033D7C5003355C500B395F50016
:1002A8003365B5006FF09FFE130101FD2322910213
:1002B80023286101232611022324810223202103FC
:1002C800232E3101232C4101232A510123267101B8
:1002D8002324810123229101130B05009384050037
:1002E800639C06381304060093090500176900008B
:1002F800130949E663F8C512B7070100938A050098
:100308006378F6109306F00FB3B6C60093963600DE
:10031800B357D6003309F90003470900B306D700DD
:10032800130700023307D740630C0700B394E400B7
:10033800B356DB003314E600B3EA9600B319EB00BA
:10034800135B040193050B0013850A00EF0040635B
:100358001309050093050B00931B040113850A007C
:10036800EF00805D93DB0B01930405009305050006
:1003780013850B00EF0080501319090113D70901E9
:100388003367E900138A0400637EA70033078700F8
:10039800138AF4FF636887006376A700138AE4FF73
:1003A80033078700B304A74093050B0013850400A7
:1003B800EF00005D1309050093050B001385040089
:1003C800EF008057939909019304050093050500F0
:1003D8001319090113850B0093D90901EF00004A8D
:1003E800B36939011386040063FCA900B309340119
:1003F8001386F4FF63E6890063F4A9001386E4FF1B
:1004080093170A01B3E7C700130A00006F0000132F
:10041800B707000193060001E36CF6EE930680012E
:100428006FF01FEF138A0600631A06009305000099
:1004380013051000EF00405013040500B707010032
:10044800637CF4129307F00F63F48700130A8000AB
:10045800B35744013309F900834609001306000223
:10046800B38646013306D64063120612B38484402D
:10047800130A1000135B040193050B001385040095
:10048800EF0000501309050093050B0013850400C5
:10049800931B0401EF00404A93DB0B019304050012
:1004A8009305050013850B00EF00403D1319090162
:1004B80013D709013367E900938A0400637EA70014
:1004C80033078700938AF4FF636887006376A70081
:1004D800938AE4FF33078700B304A74093050B0012
:1004E80013850400EF00C0491309050093050B00AC
:1004F80013850400EF004044939909019304050013
:10050800930505001319090113850B0093D90901F7
:10051800EF00C036B36939011386040063FCA900F3
:10052800B30934011386F4FF63E6890063F4A90074
:100538001386E4FF93970A01B3E7C7001385070002
:1005480093050A008320C102032481028324410207
:10055800032901028329C101032A8101832A410158
:10056800032B0101832BC100032C8100832C410044
:100578001301010367800000B7070001130A000197
:10058800E368F4EC130A80016FF09FEC3314C400A5
:1005980033DAD400B319CB00B356DB00135B040184
:1005A800B394C40093050B0013050A00B3EA960040
:1005B800EF00003D1309050093050B0013050A0021
:1005C800931B0401EF00403793DB0B0193040500F4
:1005D8009305050013850B00EF00402A1319090144
:1005E80013D70A013367E900138A0400637EA70062
:1005F80033078700138AF4FF636887006376A700D0
:10060800138AE4FF33078700B304A74093050B0060
:1006180013850400EF00C0361309050093050B008D
:1006280013850400EF00403193040500930505008D
:1006380013850B00EF00802493960A011319090112
:1006480093D60601B367D9001387040063FEA70099
:10065800B38787001387F4FF63E8870063F6A70072
:100668001387E4FFB3878700131A0A01B384A740EE
:10067800336AEA006FF01FE063ECD51EB70701008C
:1006880063F4F6049305F00F33B5D5001315350060
:1006980033D7A600976700009387C7ABB387E700F7
:1006A80083C50700130A0002B385A500330ABA40C0
:1006B80063160A0293071000E3E296E83336CB008C
:1006C800934716006FF09FE7B70700011305000175
:1006D800E3E0F6FC130580016FF09FFBB35AB60008
:1006E800B3964601B3EADA0033D9B400B3974401AC
:1006F800B355BB0093DB0A01B3E4F5001305090009
:1007080093850B00B3194601EF00802713040500F9
:1007180093850B0013050900139C0A01EF00C02103
:10072800135C0C01130905009305050013050C0063
:10073800EF00C0141314040113D704013367E40055
:10074800930C0900637EA70033075701930CF9FF48
:10075800636857016376A700930CE9FF33075701D5
:100768003309A74093850B0013050900EF004021CA
:100778001304050093850B0013050900EF00C01B47
:10078800130905009305050013050C00EF00000F81
:10079800939704011314040193D707013367F400F6
:1007A80013060900637EA700330757011306F9FFF4
:1007B800636857016376A7001306E9FF33075701FB
:1007C80093970C01370E0100B3E7C7001308FEFF2B
:1007D80033F3070133F809013307A74093DE070114
:1007E80093D909011305030093050800EF000009D8
:1007F800930805009385090013050300EF0000081E
:10080800130305009305080013850E00EF00000789
:10081800130805009385090013850E00EF000006F4
:1008280093D6080133030301B386660063F4060117
:100838003305C50113D606013305A6006366A70272
:10084800E314A7BC370701001307F7FFB3F6E60068
:1008580093960601B3F8E80033164B01B3861601E8
:10086800130A0000E37CD6CC9387F7FF6FF0DFB95B
:10087800130A0000930700006FF05FCC1306050011
:100888001305000093F61500638406003305C500C0
:1008980093D5150013161600E39605FE6780000031
:1008A800130101FF1383060023261100130E050010
:1008B800930805009306060013070000930700003D
:1008C8001308000013F51600931E1700630C0500AB
:1008D8003385080133380501B387E700B307F8000B
:1008E8001308050013D7F80193D6160033E7EE0076
:1008F80093981800E39806FC638805001305060022
:10090800EFF0DFF7B387A700630A030013050E00B3
:1009180093050300EFF09FF6B307F5008320C100AD
:100928001305080093850700130101016780000083
:100938006340050663C60506138605009305050092
:100948001305F0FF630C060293061000637AB600E5
:100958006358C0001316160093961600E36AB6FE95
:100968001305000063E6C500B385C5403365D500AF
:1009780093D6160013561600E39606FE678000000D
:1009880093820000EFF05FFB13850500678002008B
:100998003305A04063D80500B305B0406FF0DFF918
:1009A800B305B04093820000EFF01FF93305A04073
:1009B800678002009382000063CA0500634C05004B
:1009C800EFF09FF71385050067800200B305B0407C
:1009D800E35805FE3305A040EFF01FF63305B0409D
:1009E8006780020067800000B77700809387C7E2BE
:1009F80003A70700130101FF2326E1000327C10015
:100A08001307170023A0E700130101016780000006
:100A1800130101FD232E1100232C8100232401033F
:100A28002326110363160504138606003765008024
:100A38009306070013870500B76500801384070035
:100A48009385053B930781021305453D2326F10055
:100A5800EF1080618325C10013050400EF10C05D0D
:100A68003765008013050555EF100060EF109058AA
:100A78008320C10103248101130101036780000061
:100A8800B7770080B775008037750080130101FEC5
:100A980023A607E29306F0FFB7770080130600400D
:100AA80093850516130505E7232E110023A407E2F5
:100AB800EF40C054B7160080B775008037750080C6
:100AC80023220100232001009308C000130800001E
:100AD8009307000013070000938606C21306004020
:100AE80093850556130545EFEF40C028B7160080DB
:100AF800B785008037750080930700001307000052
:100B0800938686C913060040232201002320010092
:100B18009308C0001308000093850596130545F651
:100B2800EF404025B7A5000037750080938505C4C0
:100B3800130505DFEF3010588320C101B767008027
:100B48003767008037660080B765008093878734F1
:100B58001307C7269306C00D1306063B93858536F3
:100B680013351500130101026FF09FEA130101FD0F
:100B780023229102B7140000232481022320210399
:100B8800232E3101232C41012326110213090500CC
:100B980093848438EF40D061B304950033B4A40043
:100BA800B71900803304B4009389099F377A00800D
:100BB800EF40106063C885026314B4006364950253
:100BC8008320C10203248102130509008324410202
:100BD800032901028329C101032A810113010103A9
:100BE80067800000930510001305C100232201004F
:100BF8002324310123260100EF40905E1375150070
:100C0800631805009305410013050AE7EF204040EB
:100C1800130919006FF0DFF9130101FF23202101E7
:100C280037790080232481009305F0FF130509DD3F
:100C3800377400802326110023229100130484E2D4
:100C4800EF30504703250400B7740080EFF01FF21F
:100C58002320A400138504DEEF3090379305F0FFBE
:100C6800130509DDEF30104503250400EFF01FF0F0
:100C78002320A400032481008320C100032901004C
:100C8800138504DE83244100130101016F305034C1
:100C9800130101FC2326B101B77D008013850DDD0A
:100CA800232E1102232C8102232A910223282103B7
:100CB80023263103232441032322510323206103E4
:100CC800232E7101232C8101232A91012328A101BC
:100CD800EF30103013050000EFF05FE9B77C0080BB
:100CE800375D00001304050093050DE213850CDE43
:100CF800EF30503C37690080B7640080376C008063
:100D0800B76B00809307CC27130789251386043B0C
:100D180093850B2A9306300A13351500377A00801D
:100D2800EFF01FCF130A8AE2B779008003250A0083
:100D38009389C9E283A709003305A400376B0080B3
:100D4800B76A00803305F5401307892593078B2D73
:100D58001386043B9306600A9385CA2F1335150042
:100D6800EFF01FCB9305A0001305A000EF20005063
:100D780013850DDDEF30D02513050400EFF01FDFDC
:100D880093050DE21304050013850CDEEF30903255
:100D98009307CC27130789251386043B93850B2AD1
:100DA8009306000B13351500EFF09FC603250A00C4
:100DB80093078B2D130789253304A40003A5090085
:100DC8001386043B9385CA2F3305A44013351500B9
:100DD8009306300BEFF0DFC3032481038320C103A4
:100DE80083244103032901038329C102032A8102C1
:100DF800832A4102032B0102832BC101032C8101A9
:100E0800832C4101032D0101832DC100377500801A
:100E1800130505DF130101046F30901BB7750080BF
:100E2800376500809385C5D51305053A6F10901F67
:100E3800130101FF2326110023248100930760007A
:100E48006304F502EF30904563040502EF30104566
:100E580063160504B76500809385C56A3765008009
:100E68001305056CEF104020EF1000276FF0DFFF2F
:100E7800EF30D043E31C05FC37740080130444139F
:100E880083258400376500801305056EEF10C01DAB
:100E980003258400EF4040086FF01FFDB765008010
:100EA8009385856A6FF09FFB130101FB232481045E
:100EB800232291042326110493076000930405005C
:100EC8001384050063E0A70E376700809317250099
:100ED8001307C73FB387E70083A7070067800700AA
:100EE800376500801305C552EF100018EF30100168
:100EF80083274404832804010328C4002328F1021B
:100F08008327040403274400832604002326F102D0
:100F18008327C40303268404930505002324F102D0
:100F280083278403376500801305055B2322F102BC
:100F3800832744032320F10283270403232EF1008F
:100F48008327C402232CF10083278402232AF1007B
:100F5800832744022328F100832704022326F10073
:100F68008327C4012324F100832784012322F1006D
:100F7800832744012320F10083278400EF10C00E4B
:100F88009305040013850400EFF09FEA376500809D
:100F9800130545556FF05FF5376500801305055754
:100FA8006FF09FF437650080938504001305C558DA
:100FB800EF10800B6FF09FF3130101FF23248100D2
:100FC8002326110013040500732620341316160077
:100FD800135616009307500063E8C702376700806E
:100FE8009317260013078741B307F70083A5070067
:100FF8003765008013058543EF100007930504004B
:1010080013050000EFF05FEAB7650080938505439C
:101018006FF01FFE130101FF23261100F325203472
:10102800376500809395150093D5150013058570D5
:10103800EF108003B7650080938545451305400090
:10104800EFF09FE6B7770080938707E303A70700D1
:10105800630C070003A3070023A00700B7770080ED
:1010680003A547E36700030067800000130101FF41
:1010780023261100EF105036EF100008EF10903CB7
:10108800177100001301814DB7120000938202808E
:1010980033015100EFF09FFD6F001011130101FDA6
:1010A800232481022322910223202103232E3101AC
:1010B800232C4101232A5101232861012326710190
:1010C800138B070023261102232481019307F000C4
:1010D800930405001384050093090600138A06008B
:1010E800930B0700930A080013890800639AF8080D
:1010F800B7370080938787BA639AF6088326010377
:10110800930509001385040013064000EF3090266C
:10111800938509FBB305B400B727000023AE040488
:1011280023A0040693F505FF9387078823A6F504F3
:10113800B71700808320C102032481029387070A1E
:1011480023A4450323A6750323A8650323AA5503EF
:1011580023A4F50423A4B402032901028324410231
:101168008329C101032A8101832A4101032B01013B
:10117800832BC100032C8100130101036780000049
:10118800938608019307E001E3FAD7F6376C0080ED
:10119800B76500803765008013060C7393068001DD
:1011A800938505751305C57DEF00106C37650080C4
:1011B80093050900930600FF1306E0001305C57F99
:1011C800EF00906A9305800113050C73EF00906D92
:1011D8006FF0DFF293971500B387B70013972700D6
:1011E8008327C500B387E7000307B5006354B7003A
:1011F80083A707001357F6411377F7013307C70092
:101208001357574013172700B387E70023A0F600AA
:101218001375F60167800000130101FE9306C100F3
:10122800232E1100EFF01FFB0327C10093071000C6
:101238003395A700832707008320C101B3E7A700E0
:101248002320F7001301010267800000130101FE4B
:101258009306C100232E1100EFF0DFF70327C1002A
:10126800930710003395A700832707008320C10147
:101278001345F5FF33F5A7002320A700130101024A
:1012880067800000130101FE232A91008324450092
:10129800232C810013040500035585009385040061
:1012A800232821012326310123244101232251012E
:1012B80023206101232E1100EFF04FDC8329040065
:1012C800834AA4009307F0FF130A0500B389A90015
:1012D800A305F40013090000130BF001634C590334
:1012E800930400008357840063CCF4088320C10171
:1012F8000324810183244101032901018329C100B9
:10130800032A8100832A4100032B010013010102F3
:10131800678000009385040013050A00EFF0CFE111
:101328001317190033072701931727000327C40051
:101338003307F700930747002322F7002324F70019
:10134800634EAB00A305240193D424009384340096
:1013580093F4C4FF130919006FF05FF81305F50142
:101368009357F54193F7F701B387A70093D75740F1
:101378009397270023203701B389F9006FF0DFFC2A
:101388008325440013850400EFF04FCF8327040022
:1013980013860400930500003385A7008327C40043
:1013A80093841400138747002320E50003A78700D0
:1013B8002322E50003A787002320A70023A4A70072
:1013C80013050400EFF05FE56FF0DFF1130101FA98
:1013D800232C810423225105232E1104232A91044E
:1013E80023282105232631052324410523206105CF
:1013F800232E7103232C8103232A91032328A1037D
:101408002326B10313040106034EA5009308000028
:1014180093172E009387F70093F7077F3301F14066
:1014280083274500930A010013830A009387370036
:1014380093F7C7FF23A0FA00138BF8FF63D4C80300
:10144800638C08000328C3FF1358280013083800CA
:101458001378C8FF23200301130343000328C3FFA5
:10146800637AB8049305F0FF631ABB0423200700CE
:10147800130540FF130104FA8320C10503248105E5
:1014880083244105032901058329C104032A810412
:10149800832A4104032B0104832BC103032C8103FA
:1014A800832C4103032D0103832DC102130101067F
:1014B80067800000938818006FF01FF883450501C6
:1014C8001309000093F515006388050013098000CF
:1014D8007339093013798900232AE4FA13171B009A
:1014E800232CD4FA330767018326C5001317270076
:1014F800130747003387E600232EC4FA9304050038
:10150800130A0B009306F0FF8329070063063719B7
:1015180013172A0083A64900B38CEA0003A7090021
:1015280083A50C00130D800023A0E6002322D7001A
:1015380023A0090023A2090003A504003385A940BC
:10154800EFF00FBF1306050093050A00138504008A
:10155800EFF0DFCF130A1A009306FAFF63CA660595
:1015680003C70401137717006304070073290930C0
:10157800832744FB130540FF23A03701E38C09EEC2
:101588008327C4FB03A5040023A0670193172B003E
:10159800B38AFA0083A50A003385A940EFF04FB952
:1015A800832784FB23A0A700130500006FF09FEC9E
:1015B80003A5040083A50C00930B10003385A940F4
:1015C800EFF00FB793181A00B3884801931D250050
:1015D8009398280083A64C0093850B00232614FBC0
:1015E800138506002328D4FAEFF04FA9338CA900FD
:1015F8003386BB0193050A0013850400EFF0DFC1B1
:10160800832604FB03A6040083A544009386F6FF03
:1016180003D58400B306DC00B386C6402328D4FA79
:10162800EFF0CFA5832604FB8328C4FA63F4A6024F
:1016380083A6C400B3861601138646002320CC0077
:1016480003A686002322CC0003A686002320860159
:1016580023A48601938B1B0093074000E39CFBF6B1
:1016680083C6040193F61600639A06001309000066
:10167800130A1A00938C4C006FF01FEE732909307F
:1016880083C6040193F61600E38206FE73390D3013
:10169800137989006FF0DFFD130AFAFF138749FFFA
:1016A800E314DAE6930900006FF09FEB130101FAE7
:1016B800232C810423244105232A9103232E11047A
:1016C800232A9104232821052326310523225105A5
:1016D80023206105232E7103232C81032328A103D2
:1016E8002326B103130401060347A500930C050044
:1016F800131727001307F7001377077F3301E1401B
:1017080003274500130A010093060A001307370050
:101718001377C7FF2320EA001305100093864600BD
:1017280063F0A50C03C70C01138905009309060093
:1017380013771700930400006308070093048000E0
:10174800F3B4043093F48400377B00806358090AAB
:10175800B7740080B77500803765008013860483EE
:101768009306000C938585891305C57DEF00D00F7E
:101778003775008013054586EF00100F1385048325
:101788009305000CEF0010129304F0FF83C70C01BF
:1017980093F717006386070093F48400F3A40430DA
:1017A800130104FA8320C10503248105832441051C
:1017B800032901058329C104032A8104832A4104DA
:1017C800032B0104832BC103032C8103832C4103C6
:1017D800032D0103832DC102130101066780000058
:1017E80003A7C6FF13051500135727001307370073
:1017F8001377C7FF23A0E6006FF05FF213172900E5
:101808003307EA00832A070003AC0C00138509009C
:1018180093850A00EFF08F86938BFAFF330D7501DD
:10182800330CAC0083A54C0003D58C00EFF00F857A
:10183800636CAD02B777008093854784B7670080F3
:101848001385C77D9306400A13060B83EF00D0016A
:10185800B777008013850786EF0010019305400ACB
:1018680013050B83EF001004138609009305090084
:1018780013850C00EFF05F9A13171900330727013F
:101888009316270003A7CC003307D7009306470019
:101898002320DC00832687002322DC0083268700A0
:1018A80023A086012324870103C70C01137717009F
:1018B800631C070C93040000E30A09EC9306C4FBBD
:1018C800138609009305090013850C00EFF09F901B
:1018D8008326C4FB1357F541137737003307A70056
:1018E80003A506001377C7FF9307F0003357E500F9
:1018F8001377F700E31CF7E8130D000093FDC9FF09
:101908003386AD011305060093850A002324C4FA23
:10191800EFE0DFF633077501130C050083A54C00D3
:1019280003D58C002326E4FAEFE05FF50327C4FA19
:10193800032684FA6378A7029305090013850C002F
:10194800EFF0DF9003A70C00330C870103264C004F
:1019580003270C002320E6002322C70023200C00C5
:1019680023220C00130D1D0093074000E31AFDF815
:1019780013D6F94113763600B30936011309F9FF76
:1019880093D929406FF09FDCF3A4043003C70C01FE
:1019980013771700E30007F293078000F3B40730CA
:1019A80093F484006FF05FF1130101FF93070500C2
:1019B80013850500930506001386060023261100EB
:1019C800E7800700EF209053EF300055130101FF27
:1019D80023229100232611002324810023202101A2
:1019E800930405009305F0FF13850400EF1040638E
:1019F80013040500E30805FE032945009305E0FFED
:101A080013058500EF40400D1375150063060500AA
:101A180013050400E7000900EF20D02E6FF09FFCAB
:101A28001305000067800000130101FF23248100D3
:101A380013040500130550042326110023229100E6
:101A480093840500E700040093850400130520052E
:101A5800E700040013030400032481008320C1006D
:101A68009385040083244100130520051301010117
:101A78006700030083A705009387170023A0F500DC
:101A8800B777008003A347D867000300130101FC60
:101A9800232C8102232631032324410323206103BD
:101AA8002328A101232E1102232A9102232821038E
:101AB80023225103232E7101232C8101232A910112
:101AC8002326B10193090500138A0500130D0600AA
:101AD800138B0600130410006354E000130407007E
:101AE80093071000930C00026314FB00930C00038F
:101AF800B7D49A3B13091000930AA000130C0000F6
:101B08009384F49F930D2000938B140063140C00AE
:101B180063F2A40B93850B0013050D00EFE0DFE1E2
:101B280093050A0013050503E78009001309190046
:101B3800130C100093850B0013050D00EFE05FE414
:101B4800130D05009305A00013850400EFE0DFDE08
:101B5800938AFAFF9307100093040500E396FAFAB4
:101B680093050A0013050D03E78009009307300069
:101B7800330424416306FB068320C1030324810345
:101B880083244103032901038329C102032A810213
:101B9800832A4102032B0102832BC101032C8101FB
:101BA800832C4101032D0101832DC1001301010480
:101BB80067800000E34054F9E3EE6DF793050A00EF
:101BC80013850C00E7800900130919006FF09FF6D0
:101BD80093050A0013050002E78009001304F4FFC7
:101BE800E34880FE6FF05FF9B777008023A2A7D89B
:101BF80067800000130101FB232481042322910440
:101C080023202105232E3103232C4103232A5103AA
:101C1800232291032320A103232EB101232611049B
:101C28002328610323267103232481031304050059
:101C380093840500930A0600138D0600130A00001A
:101C48001309F0FF93090000930C0000B70D008002
:101C580003C50A00631005048320C104032481041A
:101C680083244104032901048329C103032A81032E
:101C7800832A4103032B0103832BC102032C810216
:101C8800832C4102032D0102832DC101130101059B
:101C980067800000639E0C0093065002630CD536E3
:101CA80093850400E7000400938A1A006FF05FFA36
:101CB800930640066300D51263E2A60693069003D6
:101CC80063EAA602930610036374D50E9306D00246
:101CD800630CD534930700036300F50C1307500217
:101CE8006312E5029385040013055002E70004001F
:101CF8006F000016930680056300D51C1307300695
:101D08006300E5309385040013055002E7000400E2
:101D18009385040003C50A006FF05FFD9306000772
:101D2800630CD51663E0A602930690066304D50AF1
:101D38009306C006630CD50893068006E306D5F61D
:101D48006FF05FFC930650076308D51063EEA60298
:101D580013073007E318E5FA032C0D00130B4D00A9
:101D6800930B0C0003C50B00631A0526930730007C
:101D78006398F900B38B8B41B30B794163487027A3
:101D8800130D0B006F00C00C930680076306D51275
:101D98009306A0076FF09FFA635E0900638A09281B
:101DA800130905FDE39209F0930920006FF0DFEFB6
:101DB800E34809FE931629003389260113191900EF
:101DC800130909FD330925016FF0DFFD130A1A0015
:101DD8006FF09FED63120A0403260D00130D4D00EA
:101DE80063500602938504001305D0022320C10026
:101DF800E7000400032601001309F9FF3306C04079
:101E0800130709009386090093850400130504004D
:101E1800EFF0DFC76F00C00313071000E30EEAFA04
:101E280093077D0013F787FF0326070083264700E3
:101E3800130D87003307B6013337C7003307D700C0
:101E4800E30007FA9385040013050400EFF0DFBDF3
:101E5800930C00006FF05FE563180A0003260D007D
:101E6800130D4D006FF0DFF913071000E308EAFEC9
:101E780093077D0013F787FF130D870003260700DC
:101E880003274700E31007FCB707008093C7F7FF55
:101E9800E3F8C7F66FF01FFB9385040013050003F2
:101EA800E70004009385040013058007E700040099
:101EB80013098000930910009306100063C2460BB3
:101EC80083270D0023240100130D4D002322F10068
:101ED800130C0001930B000023200100930800015C
:101EE8000325410083258100138BF8FF13162B006F
:101EF80023261101EFE0CFB71375F5006318050825
:101F08008327010093060003639807008328C10014
:101F1800930710006396F8083385A600131585010A
:101F28009385040013558541E7000400938B1B003B
:101F380063180B0493063000930C0000E396D9D67F
:101F480013171900B30B7741E35470F1938504001C
:101F580013050002E7000400938BFBFF6FF0DFFE20
:101F680093077D0093F687FF83A70600138D8600ED
:101F78002322F10083A746002324F1006FF05FF5C8
:101F88002320910193080B006FF09FF593079000B1
:101F980093067005E3E2A7F8930600036FF0DFF7F6
:101FA8009307FCFF2326F100634C89019307100077
:101FB800639CF9009385040013050003E7000400FF
:101FC800032CC1006FF01FFC93072000E39AF9FE71
:101FD80093850400130500026FF05FFE93850400EB
:101FE800938B1B00E70004006FF0DFD79385040094
:101FF80013050002E7000400938BFBFF6FF01FD866
:1020080003250D0093850400130B4D00E700040021
:102018006FF01FD7130A00001309F0FF930900009F
:10202800930C10006FF05FC8930930006FF0DFC7A2
:10203800930910006FF05FC7130101FE1306050036
:1020480037250080938605001305C5A79305C100B1
:10205800232E110023260100EFF0DFB98320C101F0
:102068001301010267800000130101FC2322B10261
:1020780093054102232E11002324C1022326D102F5
:102088002328E102232AF102232C0103232E110322
:102098002326B100EFF05FFA8320C1011301010488
:1020A80067800000B775008037750080130101FF55
:1020B80093854587130585881306E00123261100BB
:1020C800EFF09FFAB76500809385454513056000DA
:1020D800EFE09FDD6780000093078000F3A70730DB
:1020E8007300501067800000930710003395A70015
:1020F800732545306780000093078000F3B70730E9
:10210800735040307350403467800000130101FF62
:102118002324810023229100377400802326110094
:102128009307A00093040500130484E3631CF500DF
:10213800032504009305D0008327450083A74700A3
:10214800E78007000325040093F5F40F8327450073
:1021580083A74700E78007008320C100032481008C
:1021680013850400832441001301010167800000E6
:10217800130101FF23248100372400801305441133
:1021880023261100EF00805D13054411032481000C
:102198008320C100130101016FF01FA5377500806E
:1021A800130101FF1305458923261100EF0090153F
:1021B800B777008023ACA7E2EFF09FFB8320C10034
:1021C800130500001301010167800000B70710F034
:1021D80003A747F403A507F483A547F4E39AE5FEAC
:1021E80067800000130101FE232C8100232E1100BB
:1021F800232A910023282101232631012324410188
:10220800232251011304800073340430377900808D
:102218001305C9E313748400EF209017631E0502A9
:10222800B7740080B7750080376500809385058C8A
:102238009306E0041386848A1305C57DEFF0DFE278
:10224800377500801305858DEFF01FE29305E004D4
:102258001385848AEFF01FE51305C9E3B77400807E
:10226800EF209018938484E1EFF05FF683A90400CF
:1022780083AA44009307050033053541B3B7A70087
:10228800B385554137D601001306064C9306000066
:10229800B385F540EFE04F81130A0500B7D501007B
:1022A8009385054C13050A00EFE04FDDB3093501AE
:1022B80033B5A9003305550123A2A4001305C9E3CA
:1022C80023A03401EF20500F631E0502B77400806D
:1022D800B7750080376500809385058F93061006D3
:1022E8001386848A1305C57DEFF01FD837750080E3
:1022F80013058590EFF05FD7930510061385848A40
:10230800EFF05FDA73240430032481018320C101D4
:1023180083244101032901018329C100832A410043
:1023280013050A00032A8100130101026F304032AD
:10233800130101FF23261100EFF05FE9B7D7010071
:102348009387074C370710F0B307F5009306F0FFA3
:102358002326D7F433B5A7003305B5002324F7F4B3
:102368002326A7F413057000EFF01FD88320C100BF
:102378001305000013010101678000006392051A2C
:10238800130101FE232E1100232C8100232A910022
:10239800232821012326310123244101232251012D
:1023A800232061019307F0FF6316F50037950000BD
:1023B8001305E5BCB79700001304F5FF9387E7BC46
:1023C80063DA87141384070013098000733909300E
:1023D800B77A00801385CAE313798900EF20407B20
:1023E800631E0502B7740080B775008037650080EA
:1023F8009385058C9306E0041386848A1305C57DAE
:10240800EFF09FC6377500801305858DEFF0DFC5A7
:102418009305E0041385848AEFF0DFC81385CAE3C7
:10242800EF20807CEFF09FDAB7770080938787E111
:10243800B7D4010083A90700130A05009385044C4B
:102448001305040003AB4700EFE04FC39387F44B39
:10245800B38737413305F5009385044C3305AA004B
:10246800EFE08FCD9385044CEFE04FC1338A4941AB
:10247800330AAA009307703E63C647019384044C4D
:1024880033059500B70710F0B30935011307F0FFBE
:1024980023A6E7F433B5A9003305650123A437F56E
:1024A80023A6A7F41385CAE3EF200071631E050273
:1024B80037740080B7750080376500809385058F75
:1024C800930610061306848A1305C57DEFF0DFB95D
:1024D8003775008013058590EFF01FB99305100636
:1024E8001305848AEFF01FBC732909308320C101CA
:1024F8000324810183244101032901018329C100A7
:10250800032A8100832A4100032B010013010102E1
:1025180067800000E35A04EA130400006FF0DFEA62
:1025280067800000130101FF232481002326110086
:1025380023229100232021011304800073340430E6
:10254800B77400801385C4E313748400EF204064DB
:10255800631E050237790080B775008037650080F3
:102568009385058C9306E0041306898A1305C57DB7
:10257800EFF09FAF377500801305858DEFF0DFAE64
:102588009305E0041305898AEFF0DFB11385C4E3EE
:10259800EF208065EFF09FC3B777008083A787E1BE
:1025A800B7D501009385054C3305F540EFE0CFB86A
:1025B800130905001385C4E3EF200060631E0502BC
:1025C800B7740080B7750080376500809385058FE4
:1025D800930610061386848A1305C57DEFF0DFA8DD
:1025E8003775008013058590EFF01FA89305100636
:1025F8001385848AEFF01FAB732404308320C10055
:1026080003248100130509008324410003290100E4
:1026180013010101678000008347050003C7050017
:102628006394E700639607003385E74067800000FE
:1026380013051500938515006FF01FFEB347B5000D
:1026480093F73700638C070493070500130700000E
:102658006316E60667800000E30E06FE9385150004
:1026680003C7F5FF938717001306F6FFA38FE7FE4E
:1026780013F73700E31207FE930630003308E640ED
:1026880063E2060313572600931627003306D64045
:10269800B387D700B385D5006FF05FFB93070500BC
:1026A8006FF01FFDB388E50083A808003388E700B2
:1026B80013074700232018016FF05FFC3388E500FB
:1026C80003480800B386E7001307170023800601B4
:1026D8006FF01FF893F6F50F9307050013F737000F
:1026E8006314070493F5F50F13978500B365B700D6
:1026F80013970501B365B7003383C7001387070035
:1027080013083000B308E340636A18031357260020
:1027180093152700B387B7003306B6403386C70042
:102728006394C70267800000E30E06FE93871700D4
:10273800A38FD7FE1306F6FF6FF05FFA1307470063
:10274800232EB7FE6FF01FFC93871700A38FD7FEC9
:102758006FF01FFD1305F0FF67800000B77700805A
:1027680023A4A7D867800000130101FE232C810051
:102778008327850037740080232A91001304C4D866
:10278800B7740080232E110023282101232631014C
:10279800938404E49309100023200400130905001E
:1027A80023A03401E7800700832749002320340150
:1027B800E7800700930720002320F4008327C9003F
:1027C800E7800700930730002320F40003248101E9
:1027D80023A004008320C1018324410103290101AE
:1027E8008329C10037750080130545FD13010102D7
:1027F8006F10107E37750080130101FFB7770080D6
:102808001307F0FF130545FD2326110023A0E7E475
:10281800EF10107CEF10906E8320C10013010101AE
:102828006F20806F130101FA232A9104B774008086
:1028380083A744E4232E1104232C81042328210593
:102848002326310523244105232251052320610530
:10285800232E7103232C8103232A91032328A10308
:102868002326B10363C407083774008013061000D9
:1028780093090500138C0500130544FD930500001A
:10288800EF10906837750080938509001305459609
:10289800EFF08FFD377900801305C997B77A00806C
:1028A800EFF08FFC938444E4130A0000232E810088
:1028B800B78C0080377B0080372D0080B77D008083
:1028C800B77B0080938ACA9183274C00639E0704D4
:1028D8009385090063060A10377500801305C59EA5
:1028E800EFF08FF89307100023A0F4008320C105B0
:1028F8000324810583244105032901058329C10493
:10290800032A8104832A4104032B0104832BC10376
:10291800032C8103832C4103032D0103832DC10262
:10292800130101066780000083250C00B77700803B
:102938001385479CEFF04FF32322010083270C01F6
:1029480013070C001306004093E787009308F0FF75
:102958001308000093060D772320F10093850CD609
:102968009307000013054BFEEF20C0408327C101E9
:102978009305F0FF138547FDEF10D07393870DE49F
:1029880013054BFE03A40700EF200059B77700801A
:10299800938707E403A70700130414009307E0FFD5
:1029A8001334140003260C006314F702B775008073
:1029B8009385859D13850B9EEFF00FEB1305C99743
:1029C800EFF08FEA330A8A00130C4C016FF0DFEF47
:1029D80093172400B387FA0083A507006FF09FFDC3
:1029E80037750080130545A0EFF00FE883A70400B2
:1029F800B337F0006FF05FEFB777008083A747E445
:102A0800130101FF2324810037750080232611005C
:102A1800377400801305C59763820702EFF0CFE48F
:102A2800B77500809385859213050493032481006C
:102A38008320C100130101016FF00FE3EFF0CFE233
:102A4800B7750080938585946FF01FFE130101FF11
:102A580023261100EFE08FBC8320C1001301010180
:102A68006FF09FF9130101FF232601008327C1009E
:102A7800938717002326F100B70701F023A0B700BA
:102A880013010101678000001305F0FF6780000053
:102A9800130500006780000013172500B777008032
:102AA80013051500938747A313152500130101FF8C
:102AB8003387E700B387A7002324810023229100EE
:102AC8000324070083A4070023261100636C9400E5
:102AD8008320C100032481008324410013010101E4
:102AE80067800000832704001305040083A74700BC
:102AF800E780070063040500232204001304C400D0
:102B08006FF0DFFC130101FFB777008023229100EB
:102B1800B77400802324810023261100138407DA68
:102B280023202101938707DA938404DD631C940032
:102B380013090500138407006314940213040000AA
:102B48006F004004032744006308070003270400BC
:102B5800032707006308A7021304C4006FF01FFDD2
:102B680083274400639607001304C4006FF0DFFC5A
:102B7800832704001305090083A50700EFF0DFA9E8
:102B8800E31405FE130504008320C100032481001B
:102B9800832441000329010013010101678000001B
:102BA800130101FF23248100232291002326110011
:102BB8001304800093042000F3370430EF20500BF7
:102BC80063C4A4001305100093051000EF2010182B
:102BD800EFF08FD06FF05FFE37750080B777008019
:102BE800130685E1938707163386C74093050000CF
:102BF800130585E16FF01FAE130101FF13052000D7
:102C080023261100EFF05FE937750080130585A4CE
:102C1800EFF08FC513053000EFF01FE8EF20C02458
:102C2800EFF0DFE2B77700809387470C03C7C70050
:102C38001377E7FF2386E7008320C1001301010112
:102C480067800000130101F6232C8108B7970080E4
:102C58003774008023263109938707D693094413D4
:102C680023A2F9009307010113060007930500004A
:102C780013850700232E1108232A910823282109E8
:102C8800EFF05FA51307100023A4A90013050000A7
:102C9800A30EE100EFF05FE013051000EFF0DFDFB7
:102CA80093071010231EF100EF10D003B7770080B0
:102CB8009387C7A8377900802322F100B7360080B0
:102CC80093071000B78500809304490C2320F10076
:102CD8001307000093070000930800001308000082
:102CE800938606C013060020938505161305490C24
:102CF80023A09902EF10105D83C7D4001304441376
:102D080013F7B7FFA386E40093F7B701639A0700A8
:102D180083A78401639607001305490CEF00905AB6
:102D2800B7770080938747A92322F1003775008081
:102D380093071000B7360080B785008093044505D7
:102D48002320F1009308F000130800009307000007
:102D580013070000938686BA13060020938505366C
:102D680013054505EF10105683C7D4002326940099
:102D78001305800093F7B7FFA386F400B7770080A8
:102D88009387C714232CF400232EF40073350530E1
:102D980013758500EFD0CFC88347D500130101FE16
:102DA800232C8100232E110093F7F701130405004B
:102DB800639C070083278501639807002326B100D9
:102DC800EF0050508325C10023260406232AB400AF
:102DD8008320C101032481011301010267800000DF
:102DE800130101FE232C8100232A910023282101AD
:102DF800232631012324410123206101232E1100C0
:102E0800232251011304050093890500130A0600C3
:102E1800138B06001309850093048000F3B4043073
:102E28001305090093F48400EF109056631E050201
:102E3800B77A0080B7750080376500809385058C68
:102E48009306E00413868A8A1305C57DEFF0CFA1A7
:102E5800377500801305858DEFF00FA19305E00409
:102E680013858A8AEFF00FA413050900EF10D057D5
:102E78001305C400EF1000456300050293050A001E
:102E8800EFF09FF11305090093850400EF00C05E81
:102E9800130500006F000006630E0B0A130580007F
:102EA800EF30C010631C050613050900EF10D05061
:102EB800631E050237740080B7750080376500808F
:102EC8009385058F930610061306848A1305C57D1E
:102ED800EFF08F993775008013058590EFF0CF9844
:102EE800930510061305848AEFF0CF9BF3A40430F2
:102EF800130540FF8320C10103248101832441017C
:102F0800032901018329C100032A8100832A410082
:102F1800032B0100130101026780000093071000D2
:102F2800232245012320F5008327050093F7370066
:102F38006398090203270400B367F7002320F5000C
:102F4800832744002320A400E39E07F22322A40041
:102F58006FF05FF323200A0013050A006FF0DFFC0F
:102F680003A709001377C7FF631807020327440064
:102F78002320F500631807002322A4002320A400BF
:102F88006FF05FF08327070093F73700B367F5000A
:102F98002320F7006FF09FFBB3E7E7002320F5003D
:102FA80083A7090093F737003365F50023A0A9002C
:102FB8006FF05FED130101FF232481002326110028
:102FC80013040500630E05008327050093F73700F7
:102FD800638807000324450063840500EF20107C04
:102FE800130504008320C10003248100130101019B
:102FF800678000009307C5002320050023220500F1
:10300800232405002326F5002328F5006780000007
:103018001386050083254500930600006FF05FDCEA
:10302800130101FE232C8100232A9100232821016A
:1030380023263101232E1100232441019304050086
:103048009389050013098500130480007334043044
:103058001305090013748400EF109033631E0502F2
:10306800377A0080B7750080376500809385058CB6
:103078009306E00413068A8A1305C57DEFE0DFFE98
:10308800377500801305858DEFE01FFE9305E0047A
:1030980013058A8AEFF00F8113050900EF10D03469
:1030A80003A50400630A05088327050003A7440055
:1030B80093F7C7FF23A0F4006314E50023A2F400EC
:1030C80093051000EFF01FEF9304050013050900A6
:1030D800EF10902E631E050237790080B7750080C7
:1030E800376500809385058F930610061306898A35
:1030F8001305C57DEFE05FF73775008013058590F0
:10310800EFE09FF6930510061305898AEFE09FF913
:10311800732404308320C101032481011385040032
:1031280003290101832441018329C100032A810065
:103138001301010267800000639A0904130509005E
:10314800EF109027631E0502B7740080B7750080E2
:10315800376500809385058F930610061386848A49
:103168001305C57DEFE05FF0377500801305859086
:10317800EFE09FEF930510061385848AEFE09FF236
:1031880073240430930400006FF0DFF81386C40042
:10319800938609009305040013050900EF10000A3F
:1031A80093040000E31805F6B777008083A7C713D8
:1031B80083A447016FF01FF68347D50093F7F70103
:1031C8006398070003258501133515006780000003
:1031D8001305000067800000130101FF232611007A
:1031E800EFF04FB4B777008083A707E58320C100CD
:1031F800377700803385A7002322A71493050000A2
:1032080013850700130101016F204034832705004F
:10321800130101FF2324810023261100232291009A
:103228001304050063980702B7740080B77500801F
:1032380037650080938545B31305C57D930630181F
:10324800138604B2EFE05FE293053018138504B2E9
:10325800EFE05FE5032504008320C100032481001B
:10326800832441001301010167800000130101FE5E
:10327800232C81002326310123244101232E110010
:10328800232A910023282101130A050093890500A8
:103298001304800073340430B7740080138584E409
:1032A80013748400EF10D00E631E05023779008076
:1032B800B7750080376500809385058C9306E00418
:1032C8001306898A1305C57DEFE01FDA377500807C
:1032D8001305858DEFE05FD99305E0041305898A0E
:1032E800EFE05FDC138584E4EF101010B7770080FF
:1032F8009305A00013059A0023A20714EFD04FE30B
:10330800B7770080377900802328A9E423A637E51A
:10331800EFF09FEC138584E4EF10100A631E05029A
:10332800B7740080B7750080376500809385058F76
:10333800930610061386848A1305C57DEFE0DFD255
:103348003775008013058590EFE01FD293051006AE
:103358001385848AEFE01FD5732404308320C101CC
:103368000324810183244101032901018329C10028
:10337800032A81001301010267800000130101FE86
:10338800232C810023282101232E1100232A9100B8
:103398002326310113090500130480007334043017
:1033A800B7740080138584E413748400EF10407EA2
:1033B800631E0502B7790080B77500803765008005
:1033C8009385058C9306E0041386898A1305C57DC9
:1033D800EFE09FC9377500801305858DEFE0DFC8E2
:1033E8009305E0041385898AEFE0DFCB138584E435
:1033F800EF10807F13058900EFF05FE19305090066
:10340800EF00002F8347D900138584E493F7D7FF93
:10341800A306F900EF10407A631E0502B774008016
:10342800B7750080376500809385058F9306100671
:103438001386848A1305C57DEFE01FC337750080A6
:1034480013058590EFE05FC2930510061385848A03
:10345800EFE05FC5732404308320C1010324810198
:103468002324090083244101032901018329C10080
:103478001301010267800000B777008083A7471314
:10348800130101FF23248100232611002322910028
:1034980013840500639E0704EF100072631E050283
:1034A800B7740080B7750080376500809385058FF5
:1034B800930680071386848A1305C57DEFE0DFBA7B
:1034C8003775008013058590EFE01FBA93058007D4
:1034D8001385848AEFE01FBD1305040003248100CF
:1034E8008320C10083244100130101016FC05FD311
:1034F800EF10806C631E0502B7740080B7750080FA
:10350800376500809385058F930610061386848A95
:103518001305C57DEFE05FB537750080130585900D
:10352800EFE09FB4930510061385848AEFE09FB7F8
:1035380013748400732404308320C10003248100A1
:103548008324410013010101678000003777008060
:1035580003274713631407006FC09FCC9377850038
:10356800F3A7073067800000130580007335053026
:10357800137585006FF09FFD130101FE232C810058
:10358800232E1100232A910023282101232631010B
:103598001304800073340430B7740080138584E406
:1035A80013748400EF10C05E631E05023779008033
:1035B800B7750080376500809385058C9306E00415
:1035C8001306898A1305C57DEFE01FAA37750080A9
:1035D8001305858DEFE05FA99305E0041305898A3B
:1035E800EFE05FAC138584E437790080EF10C05FAB
:1035F8008327491313094913638E0702B77900809B
:10360800B775008037650080938585AB93060010F9
:103618001386C9A91305C57DEFE01FA5377500807E
:1036280013050586EFE05FA4930500101385C9A96B
:10363800EFE05FA78327890003C7F700930710000F
:10364800631EF702B7790080B77500803765008080
:10365800938505AD930610101386C9A91305C57D7A
:10366800EFE09FA03775008013050586EFE0DF9F28
:10367800930510101385C9A9EFE0DFA2032789007D
:103688008347F7009387F7FFA307F700138584E4C0
:10369800EF108052631E0502B7740080B775008072
:1036A800376500809385058F930610061386848AF4
:1036B8001305C57DEFE05F9B377500801305859086
:1036C800EFE09F9A930510061385848AEFE09F9D8B
:1036D800732404308320C101032481018324410120
:1036E800032901018329C100130101026780000039
:1036F800B777008083A7C7D9130101FF232481006E
:103708002326110023229100138405006398F502F3
:10371800B7740080B7750080376500809385C5B69B
:103728001305C57D9306C028138604B2EFE0DF9326
:103738009305C028138504B2EFE0DF960327440001
:10374800832704008320C100832441002320F7003D
:1037580023A2E7002320040023220400032481007D
:103768001301010167800000130101FE232C810071
:10377800232A9100232E1100232821012326310119
:103788001304050093048000F3B4043037790080F3
:10379800130589E493F48400EF10803F631E05024B
:1037A800B7790080B7750080376500809385058CF0
:1037B8009306E0041386898A1305C57DEFE0DF8A46
:1037C800377500801305858DEFE01F8A9305E004A7
:1037D8001385898AEFE01F8D130589E4EF10C04037
:1037E80013058400EFF09FA293050400EFF05FF04B
:1037F8008347D400130589E493F7D7FFA306F400A1
:10380800EF10803B631E050237790080B775008092
:10381800376500809385058F930610061306898AFD
:103828001305C57DEFE05F8437750080130585902B
:10383800EFE09F83930510061305898AEFE09F86C2
:10384800F3A4043023240400130584010324810114
:103858008320C10183244101032901018329C10077
:10386800130101026F105031832705006314F5001E
:10387800930700001385070067800000130101FF0C
:1038880023248100377400802320210113090500B7
:103898001305441313054502232291002326110022
:1038A800EFF09FFC13044413930405006314050010
:1038B8008324C400631E090683278400639E0702CD
:1038C80037790080B7750080376500809385C5B467
:1038D8009306F007130609B21305C57DEFE0CFF88C
:1038E8003775008013050586EFE00FF89305F0079C
:1038F800130509B2EFE00FFB8327840003C7D70045
:103908001377F7016316070283D6E7001307F0075A
:103918006370D7022320F4028320C10003248100AE
:10392800832441000329010013010101678000007D
:103938008327840063849700EFF01F8A2320940272
:103948006FF09FFD130101FE2328210137790080C4
:103958009307491383A78700232E1100232C810086
:1039680083C7F700232A910023263101130949133D
:10397800639E070237740080B77500803765008042
:10398800938585AF93061022130604B21305C57DEF
:10399800EFE08FED3775008013050586EFE0CFEC7B
:1039A80093051022130504B2EFE0CFEF8327090037
:1039B800638E070237740080B77500803765008012
:1039C800938585AB93062022130604B21305C57DA3
:1039D800EFE08FE93775008013050586EFE0CFE843
:1039E80093052022130504B2EFE0CFEB1304800007
:1039F80073340430B7740080138584E4137484002E
:103A0800EF100019631E0502B7790080B7750080B2
:103A1800376500809385058C9306E0041386898AB0
:103A28001305C57DEFE04FE4377500801305858DDC
:103A3800EFE08FE39305E0041385898AEFE08FE6D2
:103A4800138584E4EF10401A03278900130510003A
:103A58008347F70093871700A307F700EFF01FE2EB
:103A6800138584E4EF104015631E0502B7740080C7
:103A7800B7750080376500809385058F930610061B
:103A88001386848A1305C57DEFE00FDE3775008045
:103A980013058590EFE04FDD930510061385848AA2
:103AA800EFE04FE073240430032481018320C10137
:103AB80083244101032901018329C1001301010263
:103AC8006FF09FAA130101FE232C8100232A910085
:103AD800232E110023282101232631011304050078
:103AE80093048000F3B4043037790080130589E427
:103AF80093F48400EF10C009631E0502B7790080B3
:103B0800B7750080376500809385058C9306E004BF
:103B18001386898A1305C57DEFE00FD537750080B8
:103B28001305858DEFE04FD49305E0041385898A4A
:103B3800EFE04FD7130589E4EF10000BB77700804B
:103B480083A7C7D96318F402B7790080B7750080D6
:103B5800376500809385C5B61305C57D9306602734
:103B6800138609B2EFE04FD093056027138509B299
:103B7800EFE04FD3377700809306471383A74602B9
:103B880003A68602B7760080938686151307471327
:103B98006386D70A6384070A8305E4000385E70080
:103BA80063D8A50803A747002320F4002322E400D4
:103BB8002320870023A287008347D4001305000031
:103BC80093E70704A306F400EFF05FCB130589E43D
:103BD800EF00907E631E050237740080B775008081
:103BE800376500809385058F930610061306848A2F
:103BF8001305C57DEFE04FC7377500801305859025
:103C0800EFE08FC6930510061305848AEFE08FC98D
:103C1800F3A404308320C1010324810183244101DA
:103C2800032901018329C1001301010267800000F3
:103C38006306F60083A70700E39207F62322C40071
:103C4800832787022320D40023A087002324870208
:103C58006FF09FF6832705FF130101FE232C8100D7
:103C680023263101232E1100232A91002328210124
:103C78002324410113040500930985FE6384070C7E
:103C880093048000F3B4043037790080130589E485
:103C980093F48400EF00D06F631E0502377A00802A
:103CA800B7750080376500809385058C9306E0041E
:103CB80013068A8A1305C57DEFE00FBB37750080B0
:103CC8001305858DEFE04FBA9305E00413058A8A42
:103CD800EFE04FBD130589E4EF001071130504FFF1
:103CE800EFF0CFD293850900EFF09FA0834754FFF0
:103CF800130589E493F7D7FFA30AF4FEEF00D06B0E
:103D0800631E050237790080B7750080376500802B
:103D18009385058F930610061306898A1305C57DBA
:103D2800EFE08FB43775008013058590EFE0CFB3CF
:103D3800930510061305898AEFE0CFB6F3A4043083
:103D4800232804FE834754FF1385090093F7B7FE21
:103D5800A30AF4FEEFF04FC66304050203248101B1
:103D68008320C1018324410103290101032A810021
:103D7800138509008329C100130101026FF09FD444
:103D88008320C10103248101832441010329010106
:103D98008329C100032A8100130101026780000002
:103DA800130101FE232C810023282101232E110059
:103DB800232A910023263101232441012322510182
:103DC800130405001309800073390930B77900809E
:103DD800138589E413798900EF00905B631E05025F
:103DE800B7740080B7750080376500809385058CAF
:103DF8009306E0041386848A1305C57DEFE0CFA6F9
:103E0800377500801305858DEFE00FA69305E00454
:103E18001385848AEFE00FA9138589E4EF00D05C4D
:103E2800B7740080138544139305040013054502F5
:103E3800EFF01F8CB777008083A7C7D9377A008047
:103E480093844413130A8A156318F402B77A00801E
:103E5800B7750080376500809385C5B61305C57DA5
:103E68009306602713860AB2EFE00FA09305602738
:103E780013850AB2EFE00FA383A7440203A78402C5
:103E8800638E470B638C070A8306E4000386E7000A
:103E980063D0C60A03A747002320F4002322E400C6
:103EA8002320870023A287008347D40003A584002A
:103EB80093E707043305854013351500A306F4007E
:103EC800EFF0DF9B138589E4EF00104F631E0502B6
:103ED80037740080B7750080376500809385058F3B
:103EE800930610061306848A1305C57DEFE0CF9765
:103EF8003775008013058590EFE00F97930510063E
:103F08001305848AEFE00F9A732909308320C101D1
:103F18000324810183244101032901018329C1006C
:103F2800032A8100832A41001301010267800000EF
:103F38006386E70083A70700E39A07F42322E400D7
:103F480083A784022320440123A0870023A484029A
:103F58006FF09FF5B777008083A707E563860706AC
:103F6800B77700809387471303A787009306F00766
:103F78000356E70063EAC604B77600800306E70045
:103F880083A6C6E46342D604B776008083A6C6D962
:103F9800630CD702832687016398060283A607016C
:103FA8006340D502130101FF130507002326110002
:103FB800EFF01FDF8320C100130101016FF0CFA1D3
:103FC800B386A64023A8D70067800000130101FE2E
:103FD800232C810023263101232E1100232A91004E
:103FE8002328210193090500130480007334043049
:103FF800B7740080138584E413748400EF0050398B
:10400800631E050237790080B77500803765008028
:104018009385058C9306E0041306898A1305C57DEC
:10402800EFE08F84377500801305858DEFE0CF832F
:104038009305E0041305898AEFE0CF86138584E4AD
:10404800EF00903A83C7D9003779008013094913E4
:1040580093F70704638E0700938509001305490247
:10406800EFF00FE983C7D90093F7F7FBA386F900B0
:10407800032589003305354113351500EFF01F80FE
:10408800138584E4EF005033631E0502B774008083
:10409800B7750080376500809385058F93061006F5
:1040A8001386848A1305C57DEFD01FFC3775008001
:1040B80013058590EFD05FFB930510061385848A5E
:1040C800EFD05FFE732404308320C10103248101F3
:1040D80083244101032901018329C100130101023D
:1040E80067800000130101FE232C8100232A910020
:1040F8001304050023282101232E11002326310152
:104108009384050013090600EFF05FEC8347D400A1
:1041180093E72700A306F40063860406B7770080B8
:1041280083A7C7D9232494006318F402B7790080C1
:10413800B7750080376500809385C5B61305C57DC2
:1041480093066027138609B2EFD01FF29305602704
:10415800138509B2EFD01FF583A70400638CF4061A
:10416800638A07060307E4008386E700635CD704D5
:1041780003A747002320F4002322E400232087001C
:1041880023A287009307F0FF6304F9069305A000B4
:1041980013059900EFC0CFF9130615001305840124
:1041A800032481018320C1018324410103290101E2
:1041B8008329C100B74500809385C5C51301010255
:1041C8006F00D07883A644006386D70083A70700D2
:1041D800E39C07F883A74400232094002322F400DB
:1041E80083A7440023A0870023A284006FF09FF9CF
:1041F8008320C10103248101832441010329010192
:104208008329C1001301010267800000130101FF27
:10421800B7770080232481001304050003A5C71382
:1042280023261100EFF01FEC13050400032481007E
:104238008320C100130101016FB09FFE130101FF2C
:10424800B7770080232481001304050003A5C71352
:104258002322910093840500930506001386060027
:1042680023261100EFF01FE813050400EF00D01417
:10427800631E050237740080B775008037650080BB
:104288009385058F930680071306848A1305C57DD9
:10429800EFD09FDD3775008013058590EFD0DFDC08
:1042A800930580071305848AEFD0DFDF032481009C
:1042B8008320C100138504008324410013010101F8
:1042C8006FB01FF6130101FE2328210123263101B7
:1042D800232E1100232C8100232A91009309050025
:1042E8001309800073390930B7740080138584E49A
:1042F80013798900EF00D009631E05023774008026
:10430800B7750080376500809385058C9306E004B7
:104318001306848A1305C57DEFD01FD53775008035
:104328001305858DEFD05FD49305E0041305848AC7
:10433800EFD05FD7138584E4EF00100B13850900D5
:10434800EFF08FD213040500138584E4EF00D00644
:10435800631E0502B7790080B77500803765008055
:104368009385058F930610061386898A1305C57DE4
:10437800EFD09FCF3775008013058590EFD0DFCE43
:10438800930510061385898AEFD0DFD17329093088
:104398006306040C1309800073390930138584E41B
:1043A80013798900EF00C07E631E0502B77900808B
:1043B800B7750080376500809385058C9306E00407
:1043C8001386898A1305C57DEFD01FCA377500800B
:1043D8001305858DEFD05FC99305E0041385898A9D
:1043E800EFD05FCC138584E4EF0010001305840040
:1043F800EFE0DFE193050400EFF08FAF8347D400CF
:10440800138584E493F7D7FFA306F400EF00C07A7E
:10441800631E0502B7740080B77500803765008099
:104428009385058F930610061386848A1305C57D28
:10443800EFD09FC33775008013058590EFD0DFC29A
:10444800930510061385848AEFD0DFC573290930D8
:104458002324040013058401EF00107213050400DF
:104468008320C1010324810183244101032901011F
:104478008329C1001301010267800000130101FFB5
:1044880023229100232021012326110023248100C7
:10449800130905009304000003240900630489003C
:1044A800631004028320C1000324810013850400E3
:1044B80003290100832441001301010167800000E2
:1044C80013050400EFF04FAA13050400EFE0DFCE58
:1044D80093041000E30205FC13050400EFF08FDEDF
:1044E8006FF09FFBB77700809387471313874702C6
:1044F80023A2E70223A4E7029305000013050000A6
:104508006FE0DFD6130101FE232C81003774008091
:1045180083274413232E1100232A910023282101E5
:10452800232631012324410123225101130444137A
:10453800638E0702B7740080B77500803765008006
:10454800938585AB9306E037138604B21305C57DC2
:10455800EFD09FB13775008013050586EFD0DFB027
:104568009305E037138504B2EFD0DFB3B777008047
:104578008326840003A7C7D9138A07006386E61237
:104588001309800073390930B7790080138589E4ED
:1045980013798900EF00C05F631E0502B7740080BD
:1045A800B7750080376500809385058C9306E00415
:1045B8001386848A1305C57DEFD01FAB377500803D
:1045C8001305858DEFD05FAA9305E0041385848ACF
:1045D800EFD05FAD138589E4EF0000618325840087
:1045E80013054402EFF0CF908327CAD983248400AF
:1045F800377A0080130A8A156398F402B77A008024
:10460800B7750080376500809385C5B61305C57DED
:104618009306602713860AB2EFD01FA5930560277B
:1046280013850AB2EFD01FA8832744020327840208
:10463800638A470B6388070A8386E4000386E700DA
:1046480063DCC60803A7470023A0F40023A2E40004
:104658002320970023A2970013051000EFF00FA264
:10466800138589E4EF004055631E05023774008006
:10467800B7750080376500809385058F930610060F
:104688001306848A1305C57DEFD01F9E37750080F9
:1046980013058590EFD05F9D930510061305848A56
:1046A800EFD05FA0732909301305800073350530FA
:1046B800032481018320C1018324410103290101CD
:1046C8008329C100032A8100832A410013758500CC
:1046D800130101026FB0DFB46386E70083A7070008
:1046E800E39E07F423A2E4008327840223A0440165
:1046F80023A09700232494026FF01FF6B777008059
:1047080003A5C71367800000130101FE232C810055
:10471800232A910023282101232E11002326310169
:10472800130405001389050093040600631E06029E
:10473800B7790080B775008037650080938505B923
:1047480093066004138609B81305C57DEFD0DF9181
:10475800377500801305C5B9EFD01F919305600424
:10476800138509B8EFD01F9463FE2403B77900803E
:10477800B775008037650080938545BB9306700444
:10478800138609B81305C57DEFD01F8E37750080D5
:104798001305C5BCEFD05F8D93057004138509B868
:1047A800EFD05F9023242401232694002320840043
:1047B800232284008320C101032481018324410131
:1047C800032901018329C100130101026780000048
:1047D800130101FE232A910023263101232E110003
:1047E800232C8100232821019309050093048000CC
:1047F800F3B4043037740080130544E593F484005F
:10480800EF000039631E050237790080B775008014
:10481800376500809385058C9306E0041306898A22
:104828001305C57DEFD05F84377500801305858D2E
:10483800EFD09F839305E0041305898AEFD09F8604
:10484800130544E5EF00403A13850900EFF09FA7F0
:1048580013090500630205048347D50093F7F701A0
:10486800639807008327850163940700EFF08FA5FD
:1048780023260906130544E5032481018320C10189
:10488800032901018329C100938504008324410180
:10489800130101026FE05FBE03A7890083A7C90067
:1048A800B387E740B337F000B387E70023A4F900E4
:1048B8006FF05FFCB777008083A74713130101FEF1
:1048C8002328210123263101232E1100232C8100C6
:1048D800232A910023244101130905009389050027
:1048E80063800704638E050237740080B775008003
:1048F80037650080938545BF9306C008130604B842
:104908001305C57DEFD04FF6377500801305058672
:10491800EFD08FF59305C008130504B8EFD08FF8D2
:104928001304800073340430B7740080138544E5A1
:1049380013748400EF00C025631E0502377A0080D7
:10494800B7750080376500809385058C9306E00471
:1049580013068A8A1305C57DEFD00FF137750080DD
:104968001305858DEFD04FF09305E00413058A8A6F
:10497800EFD04FF3138544E5EF0000278327890024
:10498800638C07069387F7FF2324F900138544E512
:10499800EF008022631E0502B7740080B77500809F
:1049A800376500809385058F930610061386848AE1
:1049B8001305C57DEFD04FEB377500801305859043
:1049C800EFD08FEA930510061385848AEFD08FED18
:1049D80073240430130500008320C10103248101DE
:1049E80083244101032901018329C100032A81008D
:1049F8001301010267800000639A0904138544E5E6
:104A0800EF00801B631E0502B7740080B775008035
:104A1800376500809385058F930610061386848A70
:104A28001305C57DEFD04FE43775008013058590D9
:104A3800EFD08FE3930510061385848AEFD08FE6B5
:104A480073240430130500FF6FF01FF99305040069
:104A5800032481018320C101032A81009386090070
:104A6800130609008329C10003290101138544E5C0
:104A780083244101130101026FF04FFC8347D500E5
:104A880093F7F7016398070003258501133515008F
:104A9800678000001305000067800000B77700807A
:104AA80003A547133335A00067800000B77700805F
:104AB80083A7C71303C5C7001375150067800000D7
:104AC80067800000130101FE03230102232C8100EB
:104AD800232E11002320610013040500EFC00FDC12
:104AE800B777008083A7C7138320C10183A78706F0
:104AF8002324F406032481011301010267800000C6
:104B080083270506130101FF2324810023261100B2
:104B18001304050063840700E780070013050400F9
:104B2800EFF0DFF56304050213050400EFF00FCA88
:104B38008347D4008320C10093E78700A306F400CD
:104B48000324810013010101678000008347D4001A
:104B580093F727006386070013050400EFE01F8220
:104B680083278401E38607FC13058401EF00D00046
:104B78006FF01FFC2306D500A306C5002307B50068
:104B8800A3070500232C0500232E050067800000DD
:104B980003250500630E0500B777008083C78714D7
:104BA800137535003305F5403335A00067800000E4
:104BB8001305100067800000B777008093874713BC
:104BC80003C7470183A78700B3E7E700032705006A
:104BD8006318F70023200500130510006780000004
:104BE8001305000067800000B7770080938747139C
:104BF80003C7470183A78700B3E7E7002320F50031
:104C080067800000130101FE232C81002328210165
:104C1800232E1100232A91002326310113090500B0
:104C28001304800073340430B7740080138584E55E
:104C380013748400EFF0DFF5631E0502B779008076
:104C4800B7750080376500809385058C9306E0046E
:104C58001386898A1305C57DEFD00FC1377500808B
:104C68001305858DEFD04FC09305E0041385898A1D
:104C7800EFD04FC3138584E5EFF01FF78347D900C2
:104C880013F7470063140706138584E5EFF0DFF296
:104C9800631E0502B7740080B77500803765008011
:104CA8009385058F930610061386848A1305C57DA0
:104CB800EFD08FBB3775008013058590EFD0CFBA42
:104CC800930510061385848AEFD0CFBD7324043072
:104CD8008320C101032481018324410103290101A7
:104CE8008329C100130101026780000093F7B7FF11
:104CF800A306F90013050900EFF05FD86306050065
:104D080013050900EFE01FDC93050400032481016B
:104D18008320C101032901018329C100138584E58A
:104D280083244101130101026FE00FF5639405002C
:104D38006FF05FED130101FF2324810013040500C8
:104D480013850500130595009305A000232611007F
:104D5800EFB01FBE1306150013058401032481005C
:104D68008320C100B74500809385C5C513010101A3
:104D78006F00C03D130101FC23225103938A0600F2
:104D8800B776008083A64613232C8102232A91023A
:104D98002326310323244103232E11022328210330
:104DA8001304050093890500130A060083244104AF
:104DB800638E060437790080B775008037650080F8
:104DC8009306201B130689C2938585AB1305C57D01
:104DD800232E1101232C0101232AF1002328E100AD
:104DE800EFD08FA8377500801305C5C3EFD0CFA7C4
:104DF8009305201B130589C2EFD0CFAA8328C101D0
:104E08000328810183274101032701018326010427
:104E18002322010013060A002320D10093850900EC
:104E280093860A0013050400EFF0DFC99307F0FF2B
:104E38006388F4009385040013050400EFF01FEF66
:104E4800130504008320C103032481038324410341
:104E5800032901038329C102032A8102832A41020B
:104E68001301010467800000130101FEB777008079
:104E78002328210137790080232C8100232A9100DF
:104E8800232E1100138407DD938407DD130909DD40
:104E98006366240313840400EFE00FEE9304F0FF2D
:104EA80063602407032481018320C1018324410115
:104EB80003290101130101026FE0DFA88327C4025F
:104EC8002322F100832704022320F10083274401D1
:104ED8008328C40103288401032704018326C4000E
:104EE800032684008325440003250400EFF09FBDBA
:104EF8008327040023AE8704130404036FF05FF9CB
:104F0800832544026386950003250400EFF01FE221
:104F1800130404036FF0DFF8130101FE232C810052
:104F2800232A9100232E1100232821019304050030
:104F38002326010013048000733404301305C100D4
:104F480013748400EFF0DFC4631E05023779008014
:104F5800B7750080376500809385058C9306E0045B
:104F68001306898A1305C57DEFD00F903775008029
:104F78001305858DEFD04F8F9305E0041305898ABB
:104F8800EFD04F921305C100EFF01FC683C7C400CE
:104F980093F71700638E070237790080B775008092
:104FA800376500809385C5C793069002130649C6E6
:104FB8001305C57DEFD04F8B37750080130505CBE2
:104FC800EFD08F8A93059002130549C6EFD08F8DD5
:104FD80013850400EFF0DFB2930504001305C10048
:104FE800EFE08FC98320C10103248101832441019B
:104FF800032901011301010267800000130101FD6B
:105008002326110223248102232EA100232CB10080
:10501800232AC1002328D100EFD0DFFD8326010118
:105028000327C10183258101032641011304470198
:1050380093880600B7260080232201002320010060
:105048001305040013080000930700009386469D8B
:10505800EFF05FD213050400032481028320C1020C
:10506800B77500809385C5CC130101036FF05FA568
:10507800B777008083A7C7E5639407006FD08FCA0E
:1050880013050000678000008327050063020502FE
:1050980037770080032747D9630CE500638A070048
:1050A80003A78700832685003307D70023A4E700DA
:1050B800032745002320F70023A2E700232005004B
:1050C8002322050067800000B777008083C7C7E602
:1050D800130101FF232611002324810023229100BC
:1050E8001305F0FF63960700370500801345F5FFA9
:1050F800B7770080938707D903A407006304F402F5
:105108006302040283248400EFF09FF6B384A44072
:105118001305000063C8040003248400EFF05FF562
:105128003305A440B777008083A747146386070038
:1051380063D4A700138507008320C10003248100DE
:1051480083244100130101016780000083270500C3
:10515800130101FD2324810223229102232E310110
:105168002326110223202103232C4101232A510144
:1051780023286101232671012324810113040500DA
:105188009389050093040600638E0702377900802F
:10519800B7750080376500809385C5CE9306D00427
:1051A800130689CD1305C57DEFC01FEC3775008048
:1051B80013050586EFC05FEB9305D004130589CD71
:1051C800EFC05FEE2326340163449000930410007F
:1051D80093098000F3B90930377A008013050AE68D
:1051E80093F98900EFF0DF9A631E05023779008092
:1051F800B7750080376500809385058C9306E004B9
:105208001306898A1305C57DEFC01FE63775008030
:105218001305858DEFC05FE59305E0041305898AC2
:10522800EFC05FE813050AE6EFF01F9CEFF05FE4BC
:1052380033059500B774008003A904D92324A4007A
:10524800938404D9630C9900B77A0080377B008077
:10525800B76B0080377C00806310090283A7440085
:10526800232094002322F40083A7440023A087006E
:1052780023A284006F00C0058327890063D6070234
:105288009305CBD09306600513868ACD1385CB7D15
:10529800EFC09FDD13050C86EFC01FDD9305600589
:1052A80013858ACDEFC01FE0032789008327840078
:1052B80063D8E70AB307F7402324F9008327490096
:1052C800232024012322F40023A08700232289001D
:1052D80083A70400638A97006318F400EFF0DFDE09
:1052E80093050000EFD08F8913050AE6EFF0DF8CF5
:1052F800631E050237740080B7750080376500802B
:105308009385058F930610061306848A1305C57DB9
:10531800EFC09FD53775008013058590EFC0DFD4A7
:10532800930510061305848AEFC0DFD7F3A9093067
:105338008320C1020324810283244102032901023C
:105348008329C101032A8101832A4101032B010119
:10535800832BC100032C8100130101036780000027
:10536800B387E7402324F40083A74400E38827EFAA
:10537800032909006FF05FEE130101FE232C810061
:1053880023263101232E1100232A910023282101ED
:10539800930905001304800073340430B774008047
:1053A800138504E613748400EFF08FFE631E050274
:1053B80037790080B7750080376500809385058C44
:1053C8009306E0041306898A1305C57DEFC0DFC97B
:1053D800377500801305858DEFC01FC99305E0045C
:1053E8001305898AEFC01FCC138504E6EFF0CFFFC1
:1053F80083A709001309A0FE638807001385090025
:10540800EFF09FC813090000138504E6EFF0CFFA08
:10541800631E0502B7740080B77500803765008089
:105428009385058F930610061386848A1305C57D18
:10543800EFC09FC33775008013058590EFC0DFC2AA
:10544800930510061385848AEFC0DFC573240430E2
:105458008320C1010324810113050900832441012C
:10546800032901018329C10013010102678000009B
:10547800130101FF23248100232611002322910018
:10548800232021011304800073340430B774008092
:10549800138504E613748400EFF08FEF631E050292
:1054A80037790080B7750080376500809385058C53
:1054B8009306E0041306898A1305C57DEFC0DFBA99
:1054C800377500801305858DEFC01FBA9305E0047A
:1054D8001305898AEFC01FBD138504E6EFF0CFF0EE
:1054E800EFF09FBE13090500138504E6EFF0CFEC3B
:1054F800631E0502B7740080B775008037650080A9
:105508009385058F930610061386848A1305C57D37
:10551800EFC09FB53775008013058590EFC0DFB4E5
:10552800930510061385848AEFC0DFB7732404300F
:105538008320C1000324810013050900832441004E
:10554800032901001301010167800000130101FE16
:10555800232C81002328210123244101232E11001B
:10556800232A91002326310113090500138A050017
:105578001304800073340430B7740080138504E684
:1055880013748400EFF0CFE0631E0502B779008042
:10559800B7750080376500809385058C9306E00415
:1055A8001386898A1305C57DEFC01FAC3775008047
:1055B8001305858DEFC05FAB9305E0041385898AD9
:1055C800EFC05FAE138504E6EFF00FE2EFF0DFAF58
:1055D800635CA9009307100063D8A70093050A002D
:1055E80013050900EFC09FD9138504E6EFF0CFDC5F
:1055F800631E0502B7740080B775008037650080A8
:105608009385058F930610061386848A1305C57D36
:10561800EFC09FA53775008013058590EFC0DFA404
:10562800930510061385848AEFC0DFA7732404301E
:105638008320C1010324810183244101032901013D
:105648008329C100032A8100130101026780000039
:10565800130101FD23248102232C41012326110279
:105668002322910223202103232E3101232A5101D1
:10567800232861012326710123248101232291011A
:105688002320A101130A050013048000EFE09F8C7A
:105698007334043037790080130509E613748400E5
:1056A800EFF00FCF631E0502B7740080B775008056
:1056B800376500809385058C9306E0041386848AF9
:1056C8001305C57DEFC05F9A377500801305858D7A
:1056D800EFC09F999305E0041385848AEFC09F9CCF
:1056E800B7790080130509E6EFF00FD0B774008092
:1056F80023AE49E5377A00809389C9E5130A0AD9A8
:10570800938404E2B77A0080B77B0080376B00800F
:10571800377C0080B77C0080032D0A0083A709002E
:1057280083A6040003A54400630C4D01630A0D0021
:1057380003278D0063DCE70A3307F7402324ED00D5
:10574800B386D70013D7F7413307A700B3B7F600DE
:10575800B387E70023A0D40023A2F40023A0090004
:10576800EFF09F9693050000EFC05FC1130509E6AF
:10577800EFF08FC4631E0502B7740080B775008010
:10578800376500809385058F930610061386848AF3
:105798001305C57DEFC05F8D3775008013058590B3
:1057A800EFC09F8C930510061385848AEFC09F8FE6
:1057B800732404308320C10203248102832441021C
:1057C800032901028329C101032A8101832A410196
:1057D800032B0101832BC100032C8100832C410082
:1057E800032D01001301010367800000B306D700F1
:1057F8009355F741B385A50033B6E6003306B600E6
:10580800B387E74013050D0023240D0023A0D4001F
:1058180023A2C40023A0F900EFF01F87130509E6AF
:10582800EFF08FB96316050293850B8F9306100668
:1058380013868A8A1305CB7DEFC01F8313058C90CE
:10584800EFC09F829305100613858A8AEFC09F8553
:10585800732404308327CD0013050D001304800042
:10586800E780070073340430130509E613748400D5
:10587800EFF00FB26318050293850C8C9306E004D1
:1058880013868A8A1305CB7DEFC00FFE377500801B
:105898001305858DEFC04FFD9305E00413858A8AB3
:1058A800EFC05F80130509E6EFF00FB46FF0DFE695
:1058B800130101FE232A9100232E1100232C8100BD
:1058C800232821012326310193048000F3B40430F6
:1058D80037790080130509E693F48400EFF04FABA5
:1058E800631E050237740080B77500803765008035
:1058F8009385058C9306E0041306848A1305C57DF9
:10590800EFC08FF6377500801305858DEFC0CFF592
:105918009305E0041305848AEFC0CFF8130509E660
:10592800EFF08FACEFC01FC0B7770080938707E216
:1059380083A9070003A44700B309350133B5A900BB
:1059480033048500130509E6EFF00FA7631E05026F
:1059580037790080B7750080376500809385058F9B
:10596800930610061306898A1305C57DEFC0CFEF8D
:105978003775008013058590EFC00FEF930510066B
:105988001305898AEFC00FF2F3A4043093050400CD
:105998008320C10103248101138509008324410167
:1059A800032901018329C100130101026780000056
:1059B800130101FF23261100EFF09FEF1306803E2D
:1059C80093060000EFA0DFED1306400693060000E3
:1059D800EFA09F8D8320C1001301010167800000A3
:1059E800130101FE232C81002328210123244101D6
:1059F800232E1100232A910023263101130A0500C2
:105A0800138905001304800073340430B7740080D0
:105A1800138544E613748400EFF08F97631E050224
:105A2800B7790080B7750080376500809385058C4D
:105A38009306E0041386898A1305C57DEFC0CFE27B
:105A4800377500801305858DEFC00FE29305E004DC
:105A58001385898AEFC00FE5138544E6EFF0CF98E8
:105A680083290A00138544E633E9290123202A0102
:105A7800EFF08F94631E0502B7740080B77500803D
:105A8800376500809385058F930610061386848AF0
:105A98001305C57DEFC04FDD377500801305859070
:105AA800EFC08FDC930510061385848AEFC08FDF63
:105AB800732404308320C101032481011385090064
:105AC80083244101032901018329C100032A81009C
