:0200000480007A
:100000009702000093824201739052306F00901863
:020010000000EE
:02001200FFFFEE
:100014005D7106C00EC212C416C61AC81ECA72CCBE
:1000240076CE7AD07ED22AD42ED632D836DA3ADCBC
:100034003EDEC2C0C6C2F322103496C4F32200309E
:1000440096C6EF00E01B1303000021E1F3222034E5
:10005400B70300809383F3FFB3F272002D43638AE6
:10006400620013050100970000009380E0126F0006
:100074009061A642910296C4975200009382821026
:1000840003A302006313030041A0930201009753EA
:1000940000009383A33903A14300411116C003AEAA
:1000A4000300050E23A0C3016308030097000000AA
:1000B400938080036F00506373252034B70200805F
:1000C4009382F2FF33755500EF00801297420000CF
:1000D400938242100E05AA9203A5020003A34200D4
:1000E400E700030017530000130343348323030082
:1000F400FD132320730082421381020083238300B3
:10010400032E030263087E08975200009382023292
:1001140003A382002326830223289302232A230392
:10012400232C3303232E4303232053052322630567
:10013400232473052326830523289305232AA30553
:10014400232CB3052324230297530000938383FDB8
:1001540003AE03002326C30703A3020223A4620001
:10016400032183020324C3028324030303294303D7
:1001740083298303032AC303832A0304032B43042D
:10018400832B8304032CC304832C0305032D430511
:10019400832D8305A64273901234B64273900230C5
:1001A400824092412242B2424243D243624EF24ED4
:1001B400025F925F2255B2554256D2566257F257A9
:1001C4000648964861617300203000007300000007
:1001D400975200009382822503A382008323C306DF
:1001E4002189F32205301385030067800000000095
:1001F4000543B312A30073B34234678000000000C8
:10020400F322203437030080B3F2620013050000A8
:0A0214006383020005056780000007
:02021E00FFFFE0
:100220006300060293070002B387C740634CF000E7
:10023000130506FE1307000033D5A500930507003C
:100240006780000033D7C5003355C500B395F5006E
:100250003365B5006FF09FFE130101FD232291026B
:100260002328610123261102232481022320210354
:10027000232E3101232C4101232A51012326710110
:100280002324810123229101130B0500938405008F
:10029000639C063813040600930905001749000003
:1002A0001309890B63F8C512B7070100938A05008B
:1002B0006378F6109306F00FB3B6C6009396360037
:1002C000B357D6003309F90003470900B306D70036
:1002D000130700023307D740630C0700B394E40010
:1002E000B356DB003314E600B3EA9600B319EB0013
:1002F000135B040193050B0013850A00EF004063B4
:100300001309050093050B00931B040113850A00D4
:10031000EF00805D93DB0B0193040500930505005E
:1003200013850B00EF0080501319090113D7090141
:100330003367E900138A0400637EA7003307870050
:10034000138AF4FF636887006376A700138AE4FFCB
:1003500033078700B304A74093050B0013850400FF
:10036000EF00005D1309050093050B0013850400E1
:10037000EF00805793990901930405009305050048
:100380001319090113850B0093D90901EF00004AE5
:10039000B36939011386040063FCA900B309340171
:1003A0001386F4FF63E6890063F4A9001386E4FF73
:1003B00093170A01B3E7C700130A00006F00001388
:1003C000B707000193060001E36CF6EE9306800187
:1003D0006FF01FEF138A0600631A060093050000F2
:1003E00013051000EF00405013040500B70701008B
:1003F000637CF4129307F00F63F48700130A800004
:10040000B35744013309F90083460900130600027B
:10041000B38646013306D64063120612B384844085
:10042000130A1000135B040193050B0013850400ED
:10043000EF0000501309050093050B00138504001D
:10044000931B0401EF00404A93DB0B01930405006A
:100450009305050013850B00EF00403D13190901BA
:1004600013D709013367E900938A0400637EA7006C
:1004700033078700938AF4FF636887006376A700D9
:10048000938AE4FF33078700B304A74093050B006A
:1004900013850400EF00C0491309050093050B0004
:1004A00013850400EF00404493990901930405006B
:1004B000930505001319090113850B0093D9090150
:1004C000EF00C036B36939011386040063FCA9004C
:1004D000B30934011386F4FF63E6890063F4A900CD
:1004E0001386E4FF93970A01B3E7C700138507005B
:1004F00093050A008320C102032481028324410260
:10050000032901028329C101032A8101832A4101B0
:10051000032B0101832BC100032C8100832C41009C
:100520001301010367800000B7070001130A0001EF
:10053000E368F4EC130A80016FF09FEC3314C400FD
:1005400033DAD400B319CB00B356DB00135B0401DC
:10055000B394C40093050B0013050A00B3EA960098
:10056000EF00003D1309050093050B0013050A0079
:10057000931B0401EF00403793DB0B01930405004C
:100580009305050013850B00EF00402A131909019C
:1005900013D70A013367E900138A0400637EA700BA
:1005A00033078700138AF4FF636887006376A70028
:1005B000138AE4FF33078700B304A74093050B00B9
:1005C00013850400EF00C0361309050093050B00E6
:1005D00013850400EF0040319304050093050500E6
:1005E00013850B00EF00802493960A01131909016B
:1005F00093D60601B367D9001387040063FEA700F2
:10060000B38787001387F4FF63E8870063F6A700CA
:100610001387E4FFB3878700131A0A01B384A74046
:10062000336AEA006FF01FE063ECD51EB7070100E4
:1006300063F4F6049305F00F33B5D50013153500B8
:1006400033D7A60097470000938707D1B387E70009
:1006500083C50700130A0002B385A500330ABA4018
:1006600063160A0293071000E3E296E83336CB00E4
:10067000934716006FF09FE7B707000113050001CD
:10068000E3E0F6FC130580016FF09FFBB35AB60060
:10069000B3964601B3EADA0033D9B400B397440104
:1006A000B355BB0093DB0A01B3E4F5001305090061
:1006B00093850B00B3194601EF0080271304050052
:1006C00093850B0013050900139C0A01EF00C0215C
:1006D000135C0C01130905009305050013050C00BC
:1006E000EF00C0141314040113D704013367E400AE
:1006F000930C0900637EA70033075701930CF9FFA1
:10070000636857016376A700930CE9FF330757012D
:100710003309A74093850B0013050900EF00402122
:100720001304050093850B0013050900EF00C01B9F
:10073000130905009305050013050C00EF00000FD9
:10074000939704011314040193D707013367F4004E
:1007500013060900637EA700330757011306F9FF4C
:10076000636857016376A7001306E9FF3307570153
:1007700093970C01370E0100B3E7C7001308FEFF83
:1007800033F3070133F809013307A74093DE07016C
:1007900093D909011305030093050800EF00000930
:1007A000930805009385090013050300EF00000876
:1007B000130305009305080013850E00EF000007E2
:1007C000130805009385090013850E00EF0000064D
:1007D00093D6080133030301B386660063F4060170
:1007E0003305C50113D606013305A6006366A702CB
:1007F000E314A7BC370701001307F7FFB3F6E600C1
:1008000093960601B3F8E80033164B01B386160140
:10081000130A0000E37CD6CC9387F7FF6FF0DFB9B3
:10082000130A0000930700006FF05FCC1306050069
:100830001305000093F61500638406003305C50018
:1008400093D5150013161600E39605FE6780000089
:10085000130101FF1383060023261100130E050068
:100860009308050093060600130700009307000095
:100870001308000013F51600931E1700630C050003
:100880003385080133380501B387E700B307F80063
:100890001308050013D7F80193D6160033E7EE00CE
:1008A00093981800E39806FC63880500130506007A
:1008B000EFF0DFF7B387A700630A030013050E000C
:1008C00093050300EFF09FF6B307F5008320C10006
:1008D00013050800938507001301010167800000DC
:1008E0006340050663C605061386050093050500EB
:1008F0001305F0FF630C060293061000637AB6003E
:100900006358C0001316160093961600E36AB6FEED
:100910001305000063E6C500B385C5403365D50007
:1009200093D6160013561600E39606FE6780000065
:1009300093820000EFF05FFB1385050067800200E3
:100940003305A04063D80500B305B0406FF0DFF970
:10095000B305B04093820000EFF01FF93305A040CB
:10096000678002009382000063CA0500634C0500A3
:10097000EFF09FF71385050067800200B305B040D4
:10098000E35805FE3305A040EFF01FF63305B040F5
:1009900067800200175100001301C15CB71200000C
:1009A00093820280169161236F006077000082803D
:1009B0006F20B012411122C406C6EF30807B2A841A
:1009C000EF30207BE30EA4FEB2402244410182803E
:1009D000797106CE22CC42D446D621E136862E87C6
:1009E000B7460080B74500803745008093860646AD
:1009F0003E84938545703C10130545723EC6EF005A
:100A0000D036B2452285EF0090343745008013057B
:100A1000C551EF009035EF100007F2406244456188
:100A20008280411126C2B754008022C4FD5513852F
:100A3000C4223754008006C613040418EF20302463
:100A40000840EF209009FD551385C422EF20302384
:100A50000C402244B2409244371500801305059B98
:100A600041016DA1011106CE22CC26CA4AC8EF2051
:100A7000D00B8145EF204043375900801305C92B27
:100A80007D568145EF20100B375500807D568145FE
:100A90001305C522EF20100AB75400807D5681450A
:100AA0001385C423EF20100937450080130505483E
:100AB000EF00B02BB7160080B75500803755008087
:100AC000F158014881470147938646BD1306001837
:100AD00002C202C0938505461305C5243754008021
:100AE000EF20705313040418AA8508C0374500800E
:100AF0001305C549EF007027B7160080B755008071
:100B000037550080D958014881470147938626A26E
:100B10001306001802C202C09385055E1305C51BAB
:100B2000EF20704FAA85374500801305C54BEF00B5
:100B3000D0231305C92BEF20F009FD551385C423DD
:100B4000EF20F013084037490080B7440080EF20C1
:100B5000C078B757008003C50712B7450080B74774
:100B6000008013070946138644709387C74D930688
:100B7000E00D9385C54E13451500993D374500801E
:100B800013054550EF00701E3535EF30805E2A8426
:100B90001305803EEF200056EF30A05D33088540FE
:100BA0006244F24013070946138644704249D24416
:100BB0001305E8C0B7470080B74500809308203F81
:100BC000938707529306700E93858554133525003D
:100BD0000561FDBB375500804111FD551305C52B3F
:100BE00006C622C426C24AC0EF20700937450080DD
:100BF00013050559EF007017753BEF3080572A84B5
:100C00001305803EEF20004FEF30A056330485409F
:100C10009307E4C0854463E8F40637450080130574
:100C2000855BEF009014375900801305C922EF202F
:100C3000607A4933EF30E0532A841305803EEF2079
:100C4000604BEF3000533304854063FC8406930609
:100C5000D00737460080B745008037450080938530
:100C6000055F1305855F13064645EF0010103745F5
:100C70000080A285130545632244B2409244024994
:100C800041016F00900E37460080B7450080374520
:100C90000080130646459385055F1305855F93061F
:100CA000E006EF00900CA2852244B2409244024933
:100CB000374500801306203F1305856041016F0012
:100CC000D00A3745008013050566EF00100A1305AA
:100CD000C922EF202070F939EF30A0492A8413058A
:100CE000803EEF202041EF30C0483304854063F55B
:100CF00084009306B008B1BF3745008013058569AD
:100D0000EF00B006375500801305C523EF20806C37
:100D10005531EF3000462A841305803EEF20803D98
:100D2000EF3020453304854063F884023746008065
:100D3000B7450080374500809385055F1305855FC3
:100D40009306900913064645EF00300237450080B0
:100D5000A2851305056D0DB7B2402244B757008038
:100D6000238007129244024941018280B7550080D6
:100D7000374500809385450E130585476F00105356
:100D8000411106C622C499476302F502EF2090077D
:100D90000DC1EF20300721E1B75500809385C59F35
:100DA00037550080130505A1EF00207CEF005000AF
:100DB000F5BFEF20100671FD375400801304C442C4
:100DC0000C4437550080130505A3EF00007A084452
:100DD000EF20F035E1BFB75500809385859FC9B7F7
:100DE0005D71A2C4A6C286C69947AA842E8463E711
:100DF000A70837470080931725001307C774BA97D1
:100E00009C438287375500801305C587B92FEF2093
:100E1000C0517C40832804010328C4003ED83C40D4
:100E2000584014403ED65C5C3044AA853ED41C5CDD
:100E300037550080130505903ED25C583ED01C58B3
:100E40003ECE5C543ECC1C543ECA5C503EC81C5046
:100E50003EC65C4C3EC41C4C3EC25C483EC01C447A
:100E60002927A2852685293F375500801305458A05
:100E700071BF375500801305058C49BF3755008079
:100E8000A6851305C58DD52559B7411122C406C6BF
:100E90002A847326203406060582954763E2C7023A
:100EA000374700809317260013078776BA978C433D
:100EB00037450080130585784D2DA28501450D37F6
:100EC000B745008093850578E5B7411106C6F3253F
:100ED00020343755008086058581130585A5712549
:100EE000B74500809385457A1145DD3DB7570080B1
:100EF00093874718984311CB03A3070023A007004B
:100F0000B757008003A5871802838280A147F3B7F3
:100F10000730375700802322A71837570080232433
:100F2000B71873000000A18BF3A70730828041112E
:100F300006C6EF009060492DEF005065797122D40C
:100F400026D24AD04ECE52CC56CA5AC85EC63E8B26
:100F500006D662C4BD47AA842E84B289368ABA8B6B
:100F6000C28A46896394F806B7270080938747D1E1
:100F70006393F606C256CA8526851146EF20407156
:100F8000938509FBA295896723AE040423A0040678
:100F9000C19993870788FCC5B7170080B2502254C7
:100FA0009387879A23A4450323A6750323A8650383
:100FB00023AA5503BCC58CD402599254F249624A03
:100FC000D24A424BB24B224C456182809386080143
:100FD000F947E3F1D7FA375C0080B7550080375501
:100FE000008013060CA8E146938505AA1305C5B237
:100FF000AD2B37550080CA85C15639461305C5B497
:10100000AD23E14513050CA84123ADB79397150017
:10101000AE97139727005C45BA970307B500635353
:10102000B7009C431357F6417D8B329715870A070B
:10103000BA979CC21375F60182800111740006CE26
:10104000F137324785473395A7001C43F240C98FDB
:101050001CC305618280011126CA444122CC2A8426
:1010600003558500A6854AC84EC652C456C25AC00A
:1010700006CEEFF0AFFB83290400834AA400FD579E
:101080002A8AAA99A305F40001497D4B63415903BB
:1010900081448357840063CFF404F2406244D24415
:1010A0004249B249224A924A024B05618280A68592
:1010B0005285EFF07F83131719004A979317270083
:1010C00058443E97930747005CC31CC76349AB0075
:1010D000A305240189808D04F198050945BF7D058C
:1010E0009357F541FD8BAA9795878A0723203701EF
:1010F000BE99CDB74C402685EFF04FF31C402686B5
:1011000081453E955C4485041387470018C1984784
:1011100058C1984708C388C7228505379DBF41112C
:10112000AA872E85B285368606C68297EF20E01FF5
:10113000EF20E07F01458280411122C42A841305FB
:10114000500406C626C2AE840294A6851305200567
:10115000029422832244B240A685924413052005BE
:10116000410102839C4185079CC1B757008003A3BE
:10117000C7100283397122DC4ED652D45AD06AC8C5
:1011800006DE26DA4AD856D25ECE62CC66CA6EC673
:10119000AA892E8A328D368B05446353E0003A8447
:1011A0008547930C00026314FB00930C0003B7D433
:1011B0009A3B0549A94A014C9384F49F894D938B2E
:1011C000140063140C0063F2A407DE856A85EFF057
:1011D000AFF1D2851305050382990509054CDE851B
:1011E0006A85EFF0EFF42A8DA9452685EFF0CFEF61
:1011F000FD1A8547AA84E394FAFCD28513050D03F2
:1012000082998D4733042441630FFB02F2506254EC
:10121000D2544259B259225A925A025BF24B624C52
:10122000D24C424DB24D21618280E34A54FBE3E847
:101230006DFBD28566858299050955B7D285130560
:10124000000282997D14E34B80FEC9B7B757008036
:1012500023A6A71082805D71A2C4A6C2CAC04EDEBA
:1012600052DC56DA66D26AD06ECE86C65AD85ED6C0
:1012700062D42A84AE84B28A368D014A7D5981496E
:10128000814CB70D008003C50A0005E1B640264435
:1012900096440649F259625AD25A425BB25B225CCA
:1012A000925C025DF24D61618280639A0C0093064C
:1012B00050026305D528A6850294850AE9B79306EE
:1012C0004006630BD50E63EBA6049306900363E719
:1012D000A602930610036375D50C9306D00263042F
:1012E000D526930700036303F50A13075002631F13
:1012F000E500A68513055002029409AA930680050D
:10130000630BD514130730066303E522A685130586
:1013100050020294A68503C50A00F9BF9306000790
:101320006301D51263EFA600930690066306D50805
:101330009306C0066300D50893068006E30FD5F632
:10134000F1B7930650076305D50C63EAA6021307AD
:101350003007E31DE5FA032C0D00130B4D00E28B63
:1013600003C50B00631B051A8D476398F900B38B07
:101370008B41B30B79416346701B5A8D41A893068C
:101380008007630AD50C9306A0074DBF635C090074
:10139000638D091A130905FDE39109F2894931BFEB
:1013A000E34A09FE9316290036990609130909FD37
:1013B0002A99DDB7050A11B763160A0203260D0044
:1013C000110D635B0600A6851305D00232C002949E
:1013D00002467D193306C0404A87CE86A6852285FF
:1013E000513B2DA00547E30BEAFC93077D0013F763
:1013F00087FF10435443130D87003307B60133377B
:10140000C70036975DDFA68522853D33814C75B5D3
:1014100063160A0003260D00110D7DBF0547E30B7F
:10142000EAFE93077D0013F787FF130D8700104333
:10143000584371FBB707008093C7F7FFE3FEC7F877
:10144000D9B7A685130500030294A6851305800766
:10145000029421498549854663C6460783270D00C6
:1014600002C4110D3EC2414C814B02C0C14812451D
:10147000A245138BF8FF13162B0046C6EFE05FDA88
:101480003D8939ED82479306000389E7B2488547D5
:101490006390F80636956205A68561850294850BF2
:1014A000631D0B028D46814CE399D9E01317190097
:1014B000B30B7741E35C70F5A68513050002029437
:1014C000FD1BCDBF93077D0093F687FF9C42138DD4
:1014D00086003EC2DC423EC479B766C0DA8841BFAE
:1014E000A54793067005E3E7A7FA930600035DB7E7
:1014F0009307FCFF3EC66349890185476398F9005D
:10150000A685130500030294324CC9BF8947E39DA9
:10151000F9FEA68513050002FDB7A685850B02948A
:1015200081B5A685130500020294FD1BA9B503250C
:101530000D00A685130B4D00029481B5014A7D591B
:101540008149854C9DBB8D498DBB8549BDB301113A
:101550002A8637150080AE86130545166C0006CE28
:1015600002C6D539F2400561828039712ED24C1005
:1015700006CE32D436D63AD83EDA42DC46DE2EC625
:10158000F937F24021618280B755008037550080DD
:101590004111938505B8130545B9794606C6F1375B
:1015A000B74500809385457A1945EFF07F838280A7
:1015B000A147F3A707307300501082808547339509
:1015C000A700732545308280A147F3B707307350D9
:1015D0004030735040348280411122C426C23754B7
:1015E000008006C6A947AA841304C4186317F5002F
:1015F0000840B5455C41DC438297084093F5F40F01
:101600005C41DC438297B2402244268592444101EA
:101610008280411122C4371400801305845D06C600
:10162000F52E1305845D2244B240410105B13755C2
:1016300000804111130505BA06C6B52DB7570080C5
:1016400023A6A718F937B240014541018280B707A8
:1016500010F003A747F403A507F483A547F4E39A22
:10166000E5FE8280011122CC06CE26CA4AC84EC6AB
:1016700052C456C2214473340430375900801305D4
:1016800009192188EF20600215E9B7540080B75589
:101690000080375500809385C5BC9306E00413860F
:1016A00044BB1305C5B2D13537550080130545BE7F
:1016B0006D3D9305E004138544BBF9351305091905
:1016C000B7540080EF20200293840417493783A980
:1016D000040083AA4400AA8733053541B3B7A700A5
:1016E000B385554175661306064C81469D8DEFE026
:1016F000BFB62A8AF5659385054C5285EFF00F93A6
:10170000AA9933B5A9005695C8C01305091923A095
:101710003401EF10307B15E9B7540080B7550080D5
:10172000375500809385C5BF93061006138644BBCA
:101730001305C5B21D3D37550080130545C135352C
:1017400093051006138544BB81357324043062442D
:10175000F240D2444249B249924A5285224A056136
:101760006F20E073411106C6DD35F5679387074C9E
:10177000370710F0AA97FD562326D7F433B5A700F4
:101780002E952324F7F42326A7F41D45053DB240EA
:1017900001454101828063950514011106CE22CCDA
:1017A00026CA4AC84EC652C456C25AC0FD5763150F
:1017B000F50025651305E5BCA5671304F5FF9387C0
:1017C000E7BC63DB87103E84214973390930B75A7F
:1017D000008013850A1913798900EF10106D15E93F
:1017E000B7540080B7550080375500809385C5BC3D
:1017F0009306E004138644BB1305C5B2BD333755C9
:101800000080130545BE95339305E004138544BB62
:10181000A53B13850A19EF10106D153DB7570080D1
:1018200093870717F56483A907002A8A9385044CD8
:10183000228503AB4700EFE07FFF9387F44BB3872C
:1018400037413E959385044C5295EFF0EF8993858F
:10185000044CEFE0BFFD338A49412A9A9307703E5A
:1018600063C547019384044C2695B70710F0AA99E5
:101870007D5723A6E7F433B5A9005A9523A437F57D
:1018800023A6A7F413850A19EF10D06315E937547E
:101890000080B7550080375500809385C5BF9306FB
:1018A0001006130644BB1305C5B2C131375500807D
:1018B000130545C15D3993051006130544BBE93195
:1018C00073290930F2406244D2444249B249224A63
:1018D000924A024B05618280E35804EE0144EDB563
:1018E0008280411122C406C626C24AC021447334F4
:1018F0000430B7540080138504192188EF10F05A82
:1019000015E937590080B755008037550080938519
:10191000C5BC9306E004130649BB1305C5B2B1313B
:1019200037550080130545BE89319305E004130542
:1019300049BB993913850419EF10F05A093BB75781
:10194000008083A70717F5659385054C1D8DEFE093
:10195000BFF92A8913850419EF10D05615E9B75439
:101960000080B7550080375500809385C5BF93062A
:101970001006138644BB1305C5B2C53E375500801B
:10198000130545C1DD3693051006138544BBED3EB6
:1019900073240430B24022444A85924402494101F2
:1019A00082808347050003C705006393E70081E752
:1019B0003385E740828005058505E5B793F6F50F89
:1019C000AA8713F737001DEB93F5F50F13978500E2
:1019D000D98D13970501D98D3383C7003E870D48F4
:1019E000B308E340636218031357260093152700DA
:1019F000AE970D8E3E96639DC70082807DDE850783
:101A0000A38FD7FE7D1675BF1107232EB7FEC9BF62
:101A10008507A38FD7FEC5B77D558280B757008055
:101A200023A8A7108280011122CC1C4537540080C6
:101A300026CA13044411B754008006CE4AC84EC6C5
:101A4000938444198549232004002A8923A0340162
:101A500082978327490023203401829789471CC03D
:101A60008327C90082978D471CC0624423A00400CD
:101A7000F240D2444249B249375500801305C52C83
:101A800005616F103015375500804111B757008040
:101A90007D571305C52C06C623AAE718EF1090132F
:101AA000EF10B008B24041016F1070681D71A6CAF6
:101AB000B754008083A7841986CEA2CCCAC8CEC6EC
:101AC000D2C4D6C2DAC05EDE62DC66DA6AD86ED60E
:101AD00063C90706375400800546AA892E8C130572
:101AE000C42C8145EF10100537550080CE851305B5
:101AF00085C6EFF09FA737590080130509C8B75A6C
:101B00000080EFF09FA693848419014A22CEB75C2F
:101B10000080375B0080372D0080B75D0080B75BA9
:101B20000080938A8AC283274C009DEBCE85630395
:101B30000A0C37550080130505CFEFF01FA385472A
:101B40009CC0F6406644D6444649B649264A964A61
:101B5000064BF25B625CD25C425DB25D25618280C5
:101B600083250C00B7570080138587CCEFF0FF9FCB
:101B700002C283270C0162871306004093E78700A7
:101B8000FD58014893066DA23EC093850C768147AF
:101B90001305CB2DEF103048F247FD551385C72CA8
:101BA000EF10F00D93874D191305CB2D8043EF10E7
:101BB0001058B75700809387471998430504F95781
:101BC0001334140003260C006311F702B75500808C
:101BD0009385C5CD13854BCEEFF03F99130509C80A
:101BE000EFF0BF98229A510C3DBF93172400D6976F
:101BF0008C43CDB737550080130585D0EFF0FF96A5
:101C00009C40B337F0002DBFB757008083A78719DA
:101C1000411122C43755008006C637540080130591
:101C200005C891CFEFF07F94B7550080938545C3E9
:101C30001305C4C32244B24041016FF01F93EFF07B
:101C4000DF92B7550080938545C5DDB7411106C6C3
:101C5000EFF0CF91B240410145BF411102C6B247FA
:101C600085073EC6B70701F08CC3410182807D55D0
:101C700082800145828013172500B7570080050533
:101C8000938787D30A0541113E97AA9722C426C29B
:101C90000043844306C663679400B24022449244E2
:101CA000410182801C402285DC43829719C1232296
:101CB00004003104CDB74111B757008026C2B75494
:101CC000008022C406C61384C7124AC09387C71275
:101CD0009384C415631894002A893E84631C94007D
:101CE000014415A0584009C718401843630DA700C8
:101CF0003104CDB75C4099E33104CDB71C404A852F
:101D00008C43453175F92285B24022449244024900
:101D100041018280411122C426C206C62144894461
:101D2000F3370430EF10D07E63C3A400054585452A
:101D3000EF20A009EFF0DF87E5B737550080B757F0
:101D4000008013060517938787453386C740814572
:101D500013050517A5B14111094506C6293F375599
:101D600000801305C5D4EFF05F800D452937EF10D3
:101D70009034E93DB75700809387C73B03C7C7003E
:101D8000799B2386E700B24041018280357122CDE4
:101D9000B7670080375400804EC793870776930952
:101DA000C44223A2F9001C081306000781453E85A2
:101DB00006CF26CB4AC91931054723A4A9000145FE
:101DC000A30EE1004D3D05457D3593071010231E00
:101DD000F100EF10E00BB7570080938707D9375910
:101DE00000803EC2B72600808547B7650080930417
:101DF000C93B3EC00147814781480148938666D56B
:101E000013060020938505B61305C93B23A099024C
:101E1000EF10300183C7D4001304C44213F7B7FF97
:101E2000A386E400ED8B99E79C4C89E71305C93B39
:101E3000EF006070B7570080938787D93EC237554F
:101E400000808547B7260080B76500809304C534BD
:101E50003EC0BD48014881470147938646D11306DD
:101E60000020938505D61305C534EF10807B83C70A
:101E7000D40044C42145ED9BA386F400B7570080ED
:101E8000938747441CCC5CCC733505302189EFE047
:101E90002FB48347D500FD8B89E7084D1335150016
:101EA000828001458280411106C6EFF09FA3B7579B
:101EB000008083A7471AB240375700803E95232EF3
:101EC000A74281453E8541016F1030701C41411190
:101ED00022C406C626C22A849DE7B7540080B7559F
:101EE0000080375500809385C5E31305C5B293067E
:101EF0003018138684E2EFF04FE79305301813850E
:101F000084E2EFF06FE80840B2402244924441017D
:101F10008280011122CC4EC652C406CE26CA4AC8BF
:101F20002A8AAE89214473340430B7540080138563
:101F3000C4192188EF1060770DED37590080B7552F
:101F40000080375500809385C5BC9306E0041306D6
:101F500049BB1305C5B2EFF04FE1375500801305BB
:101F600045BEEFF08FE09305E004130549BBEFF0A9
:101F7000AFE11385C419EF100077B7570080A9456A
:101F800013059A0023AE0742EFE09F95B7570080F4
:101F9000375900802322A91A23A0371B293713851C
:101FA000C419EF1020720DEDB7540080B7550080B2
:101FB000375500809385C5BF93061006138644BB32
:101FC0001305C5B2EFF06FDA37550080130545C130
:101FD000EFF0AFD993051006138544BBEFF0CFDACD
:101FE00073240430F2406244D2444249B249224A46
:101FF00005618280011122CC4AC806CE26CA4EC68F
:102000002A89214473340430B75400801385C419DD
:102010002188EF1080690DEDB7590080B755008019
:10202000375500809385C5BC9306E004138649BBF1
:102030001305C5B2EFF06FD337550080130545BEC9
:10204000EFF0AFD29305E004138549BBEFF0CFD397
:102050001385C419EF10206913058900853DCA85D1
:1020600051248347D9001385C419F59BA306F900B1
:10207000EF1040650DEDB7540080B755008037551F
:1020800000809385C5BF93061006138644BB1305D5
:10209000C5B2EFF08FCD37550080130545C1EFF085
:1020A000CFCC93051006138544BBEFF0EFCD73241E
:1020B0000430F240624423240900D2444249B24928
:1020C00005618280B757008083A7C742411122C4AF
:1020D00006C626C22E84B9E7EF10C05E0DEDB754D8
:1020E0000080B7550080375500809385C5BF9306A3
:1020F0008007138644BB1305C5B2EFF00FC73755F1
:102100000080130545C1EFF04FC693058007138586
:1021100044BBEFF06FC722852244B2409244410194
:102120006FE00F8BEF10005A0DEDB7540080B755DC
:102130000080375500809385C5BF9306100613862F
:1021400044BB1305C5B2EFF04FC2375500801305ED
:1021500045C1EFF08FC193051006138544BBEFF026
:10216000AFC2218873240430B2402244924441011A
:102170008280375700800327C74219E36FE04F85FD
:1021800093778500F3A707308280214573350530AA
:102190002189C5B7011122CC06CE26CA4AC84EC62F
:1021A000214473340430B75400801385C419218846
:1021B000EF10A04F0DED37590080B755008037550F
:1021C00000809385C5BC9306E004130649BB130544
:1021D000C5B2EFF08FB937550080130545BEEFF05B
:1021E000CFB89305E004130549BBEFF0EFB91385B1
:1021F000C41937590080EF10004F8327C9421309D3
:10220000C9428DCFB7590080B7550080375500803F
:102210009385C5DB93060010138609DA1305C5B252
:10222000EFF0AFB437550080130545DDEFF0EFB3A5
:1022300093050010138509DAEFF00FB583278900A5
:1022400003C7F7008547631EF702B7590080B755EB
:10225000008037550080938585DD93061010138626
:1022600009DA1305C5B2EFF04FB0375500801305FA
:1022700045DDEFF08FAF93051010138509DAEFF00D
:10228000AFB0032789008347F700FD17A307F700C6
:102290001385C419EF1000430DEDB7540080B755F6
:1022A0000080375500809385C5BF930610061386BE
:1022B00044BB1305C5B2EFF04FAB37550080130593
:1022C00045C1EFF08FAA93051006138544BBEFF0CC
:1022D000AFAB73240430F2406244D2444249B24965
:1022E00005618280B757008083A78712411122C4FD
:1022F00006C626C22E846398F502B7540080B755EF
:10230000008037550080938505F41305C5B2930608
:10231000C028138684E2EFF04FA59305C0281385EB
:1023200084E2EFF06FA658401C40B24092441CC3B8
:10233000D8C32320040023220400224441018280C8
:102340001C416313F50081473E858280411122C400
:10235000375400804AC02A891305C4421305450238
:1023600026C206C6F13F1304C442AA8411E14444C4
:10237000631209061C448DEF37590080B755008061
:1023800037550080938545E59306F007130689E2EB
:102390001305C5B2EFF06F9D37550080130545DD7D
:1023A000EFF0AF9C9305F007130589E2EFF0CF9DA6
:1023B0001C4403C7D7007D8B11EF83D6E7001307BA
:1023C000F0076379D7001CD0B240224492440249FE
:1023D000410182801C4463849700EFF0DFAC04D09D
:1023E000E5B701114AC8375900809307C9429C4795
:1023F00006CE22CC83C7F70026CA4EC61309C942AF
:102400008DEF37540080B755008037550080938595
:1024100005E093061022130684E21305C5B2EFF01F
:10242000CF9437550080130545DDEFF00F949305E9
:102430001022130584E2EFF02F95832709008DCF3A
:1024400037540080B7550080375500809385C5DB31
:1024500093062022130684E21305C5B2EFF0EF9035
:1024600037550080130545DDEFF02F9093052022AE
:10247000130584E2EFF04F91214473340430B754D4
:1024800000801385C4192188EF1020220DEDB75963
:102490000080B7550080375500809385C5BC9306F2
:1024A000E004138649BB1305C5B2EFF00F8C375516
:1024B0000080130545BEEFF04F8B9305E0041385B4
:1024C00049BBEFF06F8C1385C419EF10C0210327AF
:1024D000890005458347F7008507A307F700BD3549
:1024E0001385C419EF10001E0DEDB7540080B755C9
:1024F0000080375500809385C5BF9306100613866C
:1025000044BB1305C5B2EFF04F8637550080130565
:1025100045C1EFF08F8593051006138544BBEFF09E
:10252000AF86732404306244F240D2444249B24937
:1025300005616FF09FC5011122CC26CA06CE4AC89C
:102540004EC62A84A144F3B40430375900801305E1
:10255000C919A188EF1060150DEDB7590080B75566
:102560000080375500809385C5BC9306E004138630
:1025700049BB1305C5B2EFE05FFF37550080130577
:1025800045BEEFE09FFE9305E004138549BBEFE0F5
:10259000BFFF1305C919EF100015B757008083A7B7
:1025A00087126318F402B7590080B7550080375579
:1025B0000080938505F41305C5B293066027138642
:1025C00089E2EFE09FFA93056027138589E2EFE047
:1025D000BFFB375700809306C742DC529056B75670
:1025E0000080938606451307C7426384D708D1C38A
:1025F0008305E4000385E70063D9A506D8431CC022
:1026000058C000C3C0C38347D400014593E7070403
:10261000A306F400253B1305C919EF10A00A0DED20
:1026200037540080B7550080375500809385C5BF6B
:1026300093061006130644BB1305C5B2EFE0FFF284
:1026400037550080130545C1EFE03FF293051006B2
:10265000130544BBEFE05FF3F3A40430F24062449F
:10266000D2444249B249056182806304F6009C432A
:10267000D1F350C01C5714C080C300D769B783275B
:1026800005FF011122CC4EC606CE26CA4AC852C446
:102690002A84930985FECDCFA144F3B40430375981
:1026A00000801305C919A188EF1020000DED375ADD
:1026B0000080B7550080375500809385C5BC9306D0
:1026C000E00413064ABB1305C5B2EFE01FEA375515
:1026D0000080130545BEEFE05FE99305E0041305B4
:1026E0004ABBEFE07FEA1305C919EF00D07F13055D
:1026F00004FFEFF0AFFDCE85EFF0DFBE834754FF60
:102700001305C919F59BA30AF4FEEF00B07B0DED8C
:1027100037590080B7550080375500809385C5BF75
:1027200093061006130649BB1305C5B2EFE0FFE39D
:1027300037550080130545C1EFE03FE393051006D0
:10274000130549BBEFE05FE4F3A40430232804FE43
:10275000834754FF4E85AD9BA30AF4FEEFF06FF361
:1027600011C96244F240D2444249224A4E85B249DC
:102770000561D1B3F2406244D2444249B249224A8F
:1027800005618280011122CC4AC806CE26CA4EC6F7
:1027900052C456C22A84214973390930B75900807E
:1027A0001385C91913798900EF0030700DEDB75406
:1027B0000080B7550080375500809385C5BC9306CF
:1027C000E004138644BB1305C5B2EFE01FDA3755AA
:1027D0000080130545BEEFE05FD99305E004138543
:1027E00044BBEFE07FDA1385C919EF00D06FB7540F
:1027F00000801385C442A28513054502EFF09FAE09
:10280000B757008083A78712375A00809384C44249
:10281000130A0A456318F402B75A0080B7550080BE
:1028200037550080938505F41305C5B293066027DC
:1028300013868AE2EFE07FD39305602713858AE24F
:10284000EFE09FD4DC509854638A4709C1CB8306DC
:10285000E4000386E70063DFC606D8431CC058C007
:1028600000C3C0C38347D400884493E70704018DA5
:1028700013351500A306F400EFF05FAD1385C919F9
:10288000EF0050640DED37540080B7550080375588
:1028900000809385C5BF93061006130644BB13053D
:1028A000C5B2EFE09FCC37550080130545C1EFE07E
:1028B000DFCB93051006130544BBEFE0FFCC732973
:1028C0000930F2406244D2444249B249224A924A13
:1028D000056182806384E7009C43A5FF58C09C5437
:1028E0002320440180C380D4B5BFB757008083A79D
:1028F000471AA9CBB75700809387C74298479306DA
:10290000F0070356E70063EFC602B75600800306E0
:10291000E70083A6061A6347D602B756008083A64F
:1029200086126301D702144F91EE944B634AD5008F
:1029300041113A8506C6B935B24041016FF0AFD6B4
:10294000898E94CB8280011122CC4EC606CE26CA37
:102950004AC8AA89214473340430B75400801385CF
:10296000C4192188EF0070540DED37590080B75518
:102970000080375500809385C5BC9306E00413069C
:1029800049BB1305C5B2EFE05FBE375500801305A4
:1029900045BEEFE09FBD9305E004130549BBEFE0A2
:1029A000BFBE1385C419EF00105483C7D90037592F
:1029B00000801309C94293F7070481CFCE85130520
:1029C0004902EFF03F9283C7D90093F7F7FBA38644
:1029D000F900032589003305354113351500EFF063
:1029E000FF961385C419EF00F04D0DEDB75400802C
:1029F000B7550080375500809385C5BF93061006F4
:102A0000138644BB1305C5B2EFE03FB637550080CF
:102A1000130545C1EFE07FB593051006138544BB50
:102A2000EFE09FB673240430F2406244D24442493E
:102A3000B24905618280011122CC26CA2A844AC883
:102A400006CE4EC6AE843289FD3D8347D40093E75F
:102A50002700A306F400A9CCB757008083A78712EC
:102A600004C46318F402B7590080B7550080375585
:102A70000080938505F41305C5B29306602713867D
:102A800089E2EFE09FAE93056027138589E2EFE0CE
:102A9000BFAF9C40638BF404A9CB0307E40083869B
:102AA000E700635FD702D8431CC058C000C3C0C34F
:102AB000FD576303F904A94513059900EFD05FE2C0
:102AC00013061500130584016244F240D2444249C2
:102AD000B249B72500809385E56705616F00307ABC
:102AE000D4406384D7009C43DDFBDC4004C05CC061
:102AF000DC4080C3C0C06DBFF2406244D244424952
:102B0000B249056182804111B757008022C42A84EE
:102B100003A5474326C2AE84B285368606C6213F4A
:102B20002285EF00303A0DED37540080B755008014
:102B3000375500809385C5BF93068007130644BBB5
:102B40001305C5B2EFE07FA237550080130545C1DC
:102B5000EFE0BFA193058007130544BBEFE0DFA2C0
:102B60002244B2402685924441016FD06FE60111A4
:102B700022CC4AC852C406CE26CA4EC656C25AC035
:102B80002A842E8A214973390930B7590080138568
:102B9000C91913798900EF0050310DEDB754008049
:102BA000B7550080375500809385C5BC9306E00477
:102BB000138644BB1305C5B2EFE03F9B3755008039
:102BC000130545BEEFE07F9A9305E004138544BBEF
:102BD000EFE09F9B1385C919EF00F0302285EFF0DD
:102BE0004FAB620AAA8A135A8A4163040510B7548C
:102BF00000801385C442A28513054502EFF08FEED5
:102C0000B757008083A7871223074401375A0080F3
:102C10009384C442130A0A456318F402375B0080A8
:102C2000B755008037550080938505F41305C5B26C
:102C30009306602713068BE2EFE03F93930560272E
:102C400013058BE2EFE05F94DC509854638C4709E6
:102C5000D1CB8306E4000386E70063D1C608D843DE
:102C60001CC058C000C3C0C30545EFF02FEE13854C
:102C7000C919EF0030250DED37540080B75500809D
:102C8000375500809385C5BF93061006130644BBD5
:102C90001305C5B2EFE07F8D37550080130545C1A0
:102CA000EFE0BF8C93051006130544BBEFE0DF8D0A
:102CB0007329093063820A04B757008083A747430A
:102CC00083C7F70095EB6244F240D2444249B249CF
:102CD000224A924A024B05616FF02FCB6384E700D2
:102CE0009C43B5FB58C09C542320440180C380D42E
:102CF000A5BF23074401A5BFF2406244D244424924
:102D0000B249224A924A024B0561828001114AC8A7
:102D10004EC606CE22CC26CAAA892149733909306B
:102D2000B75400801385C41913798900EF00F01798
:102D30000DED37540080B7550080375500809385DE
:102D4000C5BC9306E004130644BB1305C5B2EFE00F
:102D5000DF8137550080130545BEEFE01F819305E5
:102D6000E004130544BBEFE03F821385C419EF0074
:102D700090174E85EFF0CFDC2A841385C419EF003D
:102D800070140DEDB7590080B7550080375500809D
:102D90009385C5BF93061006138649BB1305C5B2BC
:102DA000EFE0AFFC37550080130545C1EFE0EFFBC6
:102DB00093051006138549BBEFE00FFD7329093019
:102DC00061C02149733909301385C4191379890009
:102DD000EF00B00D0DEDB7590080B75500803755A5
:102DE00000809385C5BC9306E004138649BB130598
:102DF000C5B2EFE08FF737550080130545BEEFE011
:102E0000CFF69305E004138549BBEFE0EFF7138598
:102E1000C419EF00500D13058400EFF02F8BA2852D
:102E2000EFF04FCC8347D4001385C419F59BA3065C
:102E3000F400EF0030090DEDB7540080B755008065
:102E4000375500809385C5BF93061006138644BB93
:102E50001305C5B2EFE06FF137550080130545C18A
:102E6000EFE0AFF093051006138544BBEFE0CFF120
:102E7000732909302324040013058401EF00B05C9A
:102E80002285F2406244D2444249B24905618280BF
:102E9000B75700809387C74213874702D8D398D784
:102EA000814501456FF0EF86411122C44AC006C634
:102EB00026C213870501F9472A892E8463F1E704A6
:102EC000B7540080B75500803755008093065034C2
:102ED000138684E2938505EC1305C5B2EFE0EFE8B5
:102EE00037550080A2851305C5B4C1563946EFE0B9
:102EF000CFE793055034138584E2EFE0EFE8B7574E
:102F0000008083A7C7428DCFB7540080B75500809B
:102F1000375500809385C5DB93066034138684E2C1
:102F20001305C5B2EFE06FE437550080130545DDAA
:102F3000EFE0AFE393056034138584E2EFE0CFE484
:102F4000A2852244B24092444A85024941016FF071
:102F50001FC2011122CC375400808327C44206CE01
:102F600026CA4AC84EC652C456C21304C4428DCFA4
:102F7000B7540080B7550080375500809385C5DB76
:102F80009306E037138684E21305C5B2EFE0EFDD68
:102F900037550080130545DDEFE02FDD9305E03761
:102FA000138584E2EFE04FDEB7570080144403A797
:102FB00087123E8A6387E610214973390930B75971
:102FC00000801385C91913798900EF00006E0DED9B
:102FD000B7540080B7550080375500809385C5BC35
:102FE0009306E004138644BB1305C5B2EFE0EFD7A8
:102FF00037550080130545BEEFE02FD79305E00459
:10300000138544BBEFE04FD81385C919EF00A06DBD
:103010000C4413054402EFF0EFAC83278A120444FA
:10302000375A0080130A0A456398F402B75A0080A1
:10303000B755008037550080938505F41305C5B258
:103040009306602713868AE2EFE02FD2930560276C
:1030500013858AE2EFE04FD35C501854638547092B
:10306000D9C38386E4000386E70063DAC606D84343
:103070009CC0D8C004C3C4C30545EFF02FAD138571
:10308000C91989250DED37540080B7550080375593
:1030900000809385C5BF93061006130644BB130535
:1030A000C5B2EFE08FCC37550080130545C1EFE086
:1030B000CFCB93051006130544BBEFE0EFCC73298B
:1030C00009302145733505306244F240D24442490B
:1030D000B249224A924A218905616FD06F8F638479
:1030E000E7009C43C9F3D8C01C5423A0440184C307
:1030F00004D459B7797122D4375400808327C4424D
:1031000026D206D64AD04ECE52CCAA841304C4424C
:103110008DCF37590080B755008037550080938593
:10312000C5DB93069039130689E21305C5B2EFE0BB
:10313000CFC337550080130545DDEFE00FC393057E
:103140009039130589E2EFE02FC4FD57639AF41616
:1031500037590080B755008037550080938545E783
:103160009306A039130689E21305C5B2EFE0EFBF5D
:1031700037550080130545DDEFE02FBF9305A039DB
:10318000130589E2EFE04FC0A94513859400EFD005
:103190002FF593091500EF00F07C3389A90002C6D2
:1031A000A144F3B404306800A18801230DED375A1F
:1031B0000080B7550080375500809385C5BC9306C5
:1031C000E00413064ABB1305C5B2EFE00FBA37554A
:1031D0000080130545BEEFE04FB99305E0041305E9
:1031E0004ABBEFE06FBA6800FD290844EFF0AFF585
:1031F0000844B72500804E8661059385E567EF009A
:103200001008184468008347D70093E70701A30616
:10321000F7004D290DEDB7590080B755008037559F
:1032200000809385C5BF93068007138649BB1305AD
:10323000C5B2EFE08FB337550080130545C1EFE00D
:10324000CFB293058007138549BBEFE0EFB3268526
:10325000EFC01FF81C4483C7D700C18B8DCF3754F4
:103260000080B755008037550080938585E8930628
:10327000703B130684E21305C5B2EFE00FAF37557C
:103280000080130545DDEFE04FAE9305703B13055D
:1032900084E2EFE06FAFEF00F06C3305A9408144AA
:1032A0006354A0021306803E81469355F541EFD04A
:1032B0002FDA130640068146EFC01FFAAA8429A020
:1032C000E39404ECEFF0FFC8B25022542685025973
:1032D0009254F249624A456182808347D500898BC6
:1032E000A1E7411122C42A84610506C6EF00B0158A
:1032F000634805028347D4002285BD9BA306F400E2
:10330000EFE03FB901C52285EFF0EFA2B75700808B
:1033100083A7C74291E72244B24041016FE0FFE634
:10332000B2402244410182808280B757008003A5C9
:1033300047438280011122CC26CA4AC806CE4EC617
:103340002A842E89B2840DEEB7590080B7550080CB
:1033500037550080938545F693066004138649F53A
:103360001305C5B2EFE06FA037550080130505F7D0
:10337000EFE0AF9F93056004138549F5EFE0CFA020
:1033800063FE2403B7590080B7550080375500808D
:10339000938585F893067004138649F51305C5B225
:1033A000EFE0AF9C37550080130505FAEFE0EF9B87
:1033B00093057004138549F5EFE00F9D2324240144
:1033C00044C400C040C0F2406244D2444249B249C1
:1033D00005618280011126CA4EC606CE22CC4AC89B
:1033E000AA89A144F3B40430375400801305841A29
:1033F000A188652C0DED37590080B75500803755F1
:1034000000809385C5BC9306E004130649BB1305F1
:10341000C5B2EFE08F9537550080130545BEEFE04C
:10342000CF949305E004130549BBEFE0EF95130536
:10343000841A552C4E85EFF07F8D2A8915C5834758
:10344000D500FD8B89E71C4D99E3EFF0CF8E232645
:1034500009061305841A6244F2404249B249A6851E
:10346000D24405616FE01FC603A7890083A7C90086
:10347000998FB337F000BA9723A4F900D9BFB75793
:10348000008083A7C74201114AC84EC606CE22CC8F
:1034900026CA52C42A89AE8995CF8DCD3754008073
:1034A000B755008037550080938585FC9306C0088A
:1034B000130644F51305C5B2EFE02F8B3755008096
:1034C000130545DDEFE06F8A9305C008130544F549
:1034D000EFE08F8B214473340430B75400801385A0
:1034E000841A2188D9220DED375A0080B755008003
:1034F000375500809385C5BC9306E00413064ABB8C
:103500001305C5B2EFE06F8637550080130545BE41
:10351000EFE0AF859305E00413054ABBEFE0CF86EB
:103520001385841AC92283278900B9CFFD17232464
:10353000F9001385841A79220DEDB7540080B75530
:103540000080375500809385C5BF9306100613860B
:1035500044BB1305C5B2EFE04F813755008013051A
:1035600045C1EFE08F8093051006138544BBEFE063
:10357000AF81732404300145F2406244D244424991
:10358000B249224A05618280639609041385841A30
:10359000152A0DEDB7540080B755008037550080CF
:1035A0009385C5BF93061006138644BB1305C5B2A9
:1035B000EFD0BFFB37550080130545C1EFD0FFFAB0
:1035C00093051006138544BBEFD01FFC7324043011
:1035D00041555DB7A2856244F240224ACE864A86B2
:1035E000B24942491385841AD24405616FF0AFD1C4
:1035F0008347D500FD8B89E7084D13351500828080
:1036000001458280B757008003A5C7423335A0002B
:103610008280B757008083A7474303C5C700058949
:1036200082800111025322CC06CE1AC02A84EFD028
:10363000FF90B757008083A74743F240BC573CD464
:103640006244056182803C51411122C406C62A842D
:1036500091C382972285EFF0BFF911CD2285EFF05B
:103660008FAE8347D400B24093E78700A306F400EF
:103670002244410182808347D400898B81C72285FF
:10368000EFE05F971C4CF1DF130584016D2BD1BF78
:103690002306D500A306C5002307B500A307050030
:1036A000232C0500232E05008280084111C9B7573D
:1036B000008083C707440D891D8D3335A0008280AB
:1036C00005458280B75700809387C74203C74701EB
:1036D0009C47D98F18416316F70023200500054544
:1036E000828001458280B75700809387C74203C715
:1036F00047019C47D98F1CC18280011122CC4AC846
:1037000006CE26CA4EC62A89214473340430B754E3
:1037100000801385C41A2188EFF03FF90DEDB759E9
:103720000080B7550080375500809385C5BC93064F
:10373000E004138649BB1305C5B2EFD01FE337552C
:103740000080130545BEEFD05FE29305E0041385CA
:1037500049BBEFD07FE31385C41AEFF0DFF883474E
:10376000D90013F7470039EB1385C41AEFF09FF522
:103770000DEDB7540080B755008037550080938514
:10378000C5BF93061006138644BB1305C5B2EFD020
:10379000DFDD37550080130545C1EFD01FDD9305F0
:1037A0001006138544BBEFD03FDE73240430F24093
:1037B0006244D2444249B24905618280ED9BA3062E
:1037C000F9004A85EFF0DFE201C54A85EFE0BFD698
:1037D000A2856244F2404249B2491385C41AD244D8
:1037E00005616FE03F8E99E16FF03FF1411122C416
:1037F0002A842E852505A94506C6EFD06F8E1306AF
:103800001500130584012244B240B725008093853A
:10381000E5674101ADA4397156D2B68AB75600802A
:1038200083A6C64222DC26DA4ED652D406DE4AD819
:103830002A84AE89328A9644A9C637590080B75582
:103840000080375500809306201B1306C9FF93851F
:10385000C5DB1305C5B246CE42CC3ECA3AC8EFD04E
:10386000DFD03755008013050501EFD01FD0930539
:10387000201B1305C9FFEFD03FD1F2486248D24761
:103880004247864602C2528636C0CE85D6862285FB
:10389000EFF03FD9FD576386F400A6852285EFF04F
:1038A0009FF42285F2506254D2544259B259225A9E
:1038B000925A216182800111B75700804AC8375956
:1038C000008022CC26CA06CE1384C7159384C71560
:1038D0001309C915636F24012684EFE0BF8BFD54E3
:1038E000636E24036244F240D244424905616FE0B2
:1038F0005FAF5C543EC21C503EC05C488328C4018C
:10390000032884011848544410444C400840EFF008
:103910005FD11C40E0CF130404036DBF4C5063859E
:1039200095000840EFF03FEC1304040355BF01116C
:1039300022CC26CA06CE4AC8AA8402C621447334C1
:10394000043068002188EFF05FD60DED3759008014
:10395000B7550080375500809385C5BC9306E004B9
:10396000130649BB1305C5B2EFD03FC037550080E1
:10397000130545BEEFD07FBF9305E004130549BB97
:10398000EFD09FC06800EFF01FD683C7C400858BBF
:103990008DCF37590080B75500803755008093850B
:1039A000050593069002130689031305C5B2EFD0EF
:1039B000DFBB3755008013054508EFD01FBB9305CB
:1039C000900213058903EFD03FBC2685EFF0BFC7F7
:1039D000A2856800EFE00FEFF2406244D244424912
:1039E00005618280B757008083A7071B99E36FD0DA
:1039F0005FEF014582801C4101CD375700800327CE
:103A0000C7116307E50089C798471445369798C7DB
:103A100058411CC3D8C323200500232205008280FF
:103A2000B757008083C7871B411106C622C426C230
:103A30007D5589E7370500801345F5FFB7570080AE
:103A4000938787118043630FF40009CC0444EFF09F
:103A50007FF9898C014563C704000044EFF09FF8AB
:103A60003305A440B757008083A7C74381C763D3FA
:103A7000A7003E85B24022449244410182801C410D
:103A8000797122D426D24ECE06D64AD052CC56CA0E
:103A90005AC85EC662C42A84AE89B2848DCF3759B3
:103AA0000080B7550080375500809385450B9306FD
:103AB000D0041306090A1305C5B2EFD01FAB375562
:103AC0000080130545DDEFD05FAA9305D0041305F0
:103AD000090AEFD07FAB232634016343900085446D
:103AE000A149F3B90930375A008013054A1B93F9ED
:103AF0008900EFF09FBB0DED37590080B75500806E
:103B0000375500809385C5BC9306E004130649BB76
:103B10001305C5B2EFD07FA537550080130545BE0C
:103B2000EFD0BFA49305E004130549BBEFD0DFA598
:103B300013054A1BEFF03FBBEFF0DFEA2695B754C1
:103B4000008003A9841108C493848411630C990034
:103B5000B75A0080375B0080B75B0080375C00801D
:103B600063190900DC4004C05CC0DC4080C3C0C0F5
:103B700091A88327890063D6070293054B0D93060E
:103B8000600513860A0A1385CBB2EFD01F9E13057A
:103B90004CDDEFD09F9D9305600513850A0AEFD099
:103BA000BF9E032789001C4463D7E708B307F7408B
:103BB0002324F90083274900232024015CC080C30B
:103BC000232289009C40638997006317F400EFF07B
:103BD0003FE58145EFD03FBC13054A1BEFF09FAE98
:103BE0000DED37540080B755008037550080938520
:103BF000C5BF93061006130644BB1305C5B2EFD02C
:103C0000DF9637550080130545C1EFD01F96930509
:103C10001006130544BBEFD03F97F3A90930B2500B
:103C2000225492540259F249624AD24A424BB24B50
:103C3000224C45618280998F1CC4DC40E38427F3C9
:103C40000329090031BF011122CC4EC606CE26CA77
:103C50004AC8AA89214473340430B75400801385BC
:103C6000441B2188EFF07FA40DED37590080B75534
:103C70000080375500809385C5BC9306E004130689
:103C800049BB1305C5B2EFD05F8E375500801305D1
:103C900045BEEFD09F8D9305E004130549BBEFD0DF
:103CA000BF8E1385441BEFF01FA483A70900295979
:103CB00089C74E85EFF03FD401491385441BEFF0CF
:103CC0007FA00DEDB7540080B755008037550080B8
:103CD0009385C5BF93061006138644BB1305C5B272
:103CE000EFD0BF8837550080130545C1EFD0FF875F
:103CF00093051006138544BBEFD01F89732404304D
:103D0000F24062444A85D2444249B2490561828008
:103D1000411122C406C626C24AC02144733404306D
:103D2000B75400801385441B2188EFF01F980DEDD8
:103D300037590080B7550080375500809385C5BC42
:103D40009306E004130649BB1305C5B2EFD0FF810B
:103D500037550080130545BEEFD03F819305E00441
:103D6000130549BBEFD05F821385441BEFF0BF976B
:103D7000EFF01FCB2A891385441BEFF0BF940DEDA4
:103D8000B7540080B7550080375500809385C5BF74
:103D900093061006138644BB1305C5B2EFD0EFFCA3
:103DA00037550080130545C1EFD02FFC9305100651
:103DB000138544BBEFD04FFD73240430B24022443E
:103DC0004A859244024941018280011122CC4AC8AD
:103DD00052C406CE26CA4EC62A892E8A214473347E
:103DE0000430B75400801385441B2188EFF0FF8B0B
:103DF0000DEDB7590080B755008037550080938589
:103E0000C5BC9306E004138649BB1305C5B2EFD0C9
:103E1000CFF537550080130545BEEFD00FF593055C
:103E2000E004138549BBEFD02FF61385441BEFF058
:103E30009F8BEFF0FFBE6359A900854763D6A700AB
:103E4000D2854A85EFD03F951385441BEFF09F87BD
:103E50000DEDB7540080B75500803755008093852D
:103E6000C5BF93061006138644BB1305C5B2EFD039
:103E7000CFEF37550080130545C1EFD00FEF930505
:103E80001006138544BBEFD02FF073240430F240AA
:103E90006244D2444249B249224A05618280797122
:103EA00022D452CC06D626D24AD04ECE56CA5AC8B2
:103EB0005EC662C466C26AC02A8A2144EFE0FFA2DD
:103EC00073340430375900801305491B2188EFF003
:103ED000CFFD0DEDB7540080B755008037550080F9
:103EE0009385C5BC9306E004138644BB1305C5B295
:103EF000EFD0AFE737550080130545BEEFD0EFE6B2
:103F00009305E004138544BBEFD00FE8B759008058
:103F10001305491BEFF02FFDB754008023A8491B60
:103F2000375A00809389091B130A8A1193848417D6
:103F3000B75A0080B75B0080375B0080375C008039
:103F4000B75C0080032D0A0083A709009440C84095
:103F5000630B4D0163090D0003278D0063D6E7084D
:103F60001D8F2324ED00BE9613D7F7412A97B3B7D0
:103F7000F600BA9794C0DCC023A00900EFF05FAA56
:103F80008145EFD05F811305491BEFF0AFF30DEDD5
:103F9000B7540080B7550080375500809385C5BF62
:103FA00093061006138644BB1305C5B2EFD0EFDBB2
:103FB00037550080130545C1EFD02FDB9305100660
:103FC000138544BBEFD04FDC73240430B25022542D
:103FD00092540259F249624AD24A424BB24B224CA5
:103FE000924C024D45618280BA969355F741AA954D
:103FF00033B6E6002E96998F6A8523240D0094C06F
:10400000D0C023A0F900EFF01F9F1305491BEFF06C
:104010006FEB0DE59385CBBF9306100613864ABB65
:104020001305CBB2EFD06FD413054CC1EFD0EFD353
:104030009305100613854ABBEFD00FD573240430C7
:104040008327CD006A852144829773340430130599
:10405000491B2188EFF06FE51DE59385CCBC9306E5
:10406000E00413864ABB1305CBB2EFD00FD037550F
:104070000080130545BEEFD04FCF9305E0041385B4
:104080004ABBEFD06FD01305491BEFF0CFE55DBD04
:10409000011126CA06CE22CC4AC84EC6A144F3B4AA
:1040A0000430375900801305491BA188EFF0EFDF7A
:1040B0000DED37540080B75500803755008093854B
:1040C000C5BC9306E004130644BB1305C5B2EFD08C
:1040D000CFC937550080130545BEEFD00FC99305F2
:1040E000E004130544BBEFD02FCA1305491BEFF0C2
:1040F0008FDFEFD00FFFB75700809387871783A913
:104100000700C043AA9933B5A9002A941305491B97
:10411000EFF04FDB0DED37590080B7550080375574
:1041200000809385C5BF93061006130649BB13058F
:10413000C5B2EFD08FC337550080130545C1EFD00E
:10414000CFC293051006130549BBEFD0EFC3F3A40C
:104150000430A285F24062444E85D2444249B249BD
:1041600005618280411106C6EFF09FF2B240410125
:104170008280411106C6EFF0FFFE1306803E8146A5
:104180008145EFC0EFEC130640068146EFC0CF8CAF
:10419000B24041018280411122C426C237540080BE
:1041A000B754008006C61304C4159384C41563680D
:1041B0009400B24022449244014541018280930719
:1041C000440122855CC81CCCEFC0FFE87104C5B770
:0241D0008280EB
:0241D200FFFFED
:1041D40000000000CA0E008000000000CA0E00802B
:1041E40000000000CA0E008000000000CA0E00801B
:1041F40000000000CA0E008000000000CA0E00800B
:1042040000000000CA0E0080000000006416008058
:1042140000000000CA0E008000000000CA0E0080EA
:1042240000000000CA0E008000000000CA0E0080DA
:1042340000000000CA0E008000000000CA0E0080CA
:1042440000000000CA0E008000000000CA0E0080BA
:1042540000000000CA0E008000000000CA0E0080AA
:1042640000000000CA0E008000000000CA0E00809A
:1042740000000000CA0E008000000000CA0E00808A
:1042840000000000CA0E008000000000CA0E00807A
:1042940000000000CA0E008000000000CA0E00806A
:1042A40000000000CA0E008000000000CA0E00805A
:1042B40000000000CA0E008000000000CA0E00804A
:1042C40000000000CA0E008000000000CA0E00803A
:1042D40000000000CA0E008000000000CA0E00802A
:1042E40000000000CA0E008000000000CA0E00801A
:1042F40000000000CA0E008000000000CA0E00800A
:1043040000000000CA0E008000000000CA0E0080F9
:1043140000000000CA0E008000000000CA0E0080E9
:10432400A04700802E16008000000000A84B0080EB
:104334006417008000000000A04B0080721C008005
:1043440000000000A04700809641008000000000AB
:104354000001020203030303040404040404040428
:1043640005050505050505050505050505050505F9
:1043740006060606060606060606060606060606D9
:1043840006060606060606060606060606060606C9
:1043940007070707070707070707070707070707A9
:1043A4000707070707070707070707070707070799
:1043B4000707070707070707070707070707070789
:1043C4000707070707070707070707070707070779
:1043D4000808080808080808080808080808080859
:1043E4000808080808080808080808080808080849
:1043F4000808080808080808080808080808080839
:104404000808080808080808080808080808080828
:104414000808080808080808080808080808080818
:104424000808080808080808080808080808080808
:1044340008080808080808080808080808080808F8
:1044440008080808080808080808080808080808E8
:10445400746573745F746872656164007465737401
:104464005F736C6565700000746573745F736C656D
:1044740065700000736C6565700000004B65726EBA
:10448400656C206F626A6563747320696E69746910
:10449400616C697A65640A00546573742074687287
:1044A40065616420737461727465643A2069642080
:1044B4003D2025700A00000048656C706572207408
:1044C400687265616420737461727465643A20690A
:1044D40064203D2025700A00746573742066616948
:1044E4006C7572650000000028746573745F666102
:1044F400696C757265206973207472756529000092
:1045040054657374696E67206B65726E656C206B9D
:104514005F736C65657028290A0000006B5F736C1B
:10452400656570282920736C65707420666F72202D
:104534002564207469636B732C206E6F742025646A
:104544000A00000028736C6565705F74696D655FAF
:1045540076616C69642873746172745F7469636BE7
:104564002C20656E645F7469636B2C204F4E455F2D
:104574005345434F4E445F414C49474E45442920DF
:1045840069732066616C7365290000005465737457
:10459400696E67206E6F726D616C206578706972E8
:1045A4006174696F6E206F66206B5F736C656570F4
:1045B40028290A0054657374696E673A2074657318
:1045C400742074687265616420736C656570202B57
:1045D4002068656C70657220746872656164207708
:1045E400616B65757020746573740A004641494CAB
:1045F400000000002573202D2025734025642E2003
:1046040000000000202A2A2A206B5F736C65657005
:10461400282920736C65707420666F7220256420CD
:104624007469636B73206E6F742025642E00000020
:10463400202A2A2A206B5F77616B657570282920F0
:10464400746F6F6B20746F6F206C6F6E67202825FA
:1046540064207469636B73290A00000054657374E1
:10466400696E673A20746573742074687265616456
:1046740020736C656570202B20697372206F6666E9
:104684006C6F61642077616B6575702074657374F9
:104694000A00000054657374696E673A2074657388
:1046A400742074687265616420736C656570202B76
:1046B400206D61696E2077616B6575702074657318
:1046C40074207468726561640A000000202A2A2A32
:1046D400206B5F77616B657570282920746F6F6B31
:1046E40020746F6F206C6F6E6720282564207469B6
:1046F400636B7329206174204C4153540A000000F9
:104704002E2F74657374732F6B65726E656C2F73C3
:104714006C6565702F7372632F6D61696E2E630013
:104724000A20202020417373657274696F6E2066BD
:1047340061696C65642061742025733A25643A20AC
:1047440025733A2025730A000E0E00807C0E00802B
:104754007C0E0080040E00800E0E0080680E008027
:10476400720E0080F44700801448008030480080B6
:10477400444800805048008068480080756E6B6E25
:104784006F776E00457863657074696F6E2063613E
:1047940075736520257320282564290A000000000C
:1047A400ADBAADDEADBAADDEADBAADDEADBAADDE3D
:1047B400ADBAADDEADBAADDEADBAADDEADBAADDE2D
:1047C400ADBAADDEADBAADDEADBAADDEADBAADDE1D
:1047D400ADBAADDEADBAADDEADBAADDEADBAADDE0D
:1047E400ADBAADDEADBAADDEADBAADDEADBAADDEFD
:1047F400496E737472756374696F6E206164647258
:10480400657373206D6973616C69676E656400001C
:10481400496E737472756374696F6E204163636566
:104824007373206661756C7400000000496C6C65DC
:1048340067616C20696E737472756374696F6E005E
:10484400427265616B706F696E7400004C6F6164D5
:104854002061646472657373206D6973616C696748
:104864006E6564004C6F61642061636365737320DB
:104874006661756C740000002A2A2A2A204B65722E
:104884006E656C20416C6C6F636174696F6E204659
:1048940061696C75726521202A2A2A2A0A0000009F
:1048A4002A2A2A2A2A204B65726E656C204F4F50A3
:1048B4005321202A2A2A2A2A0A0000002A2A2A2ADC
:1048C4002A204B65726E656C2050616E69632120ED
:1048D4002A2A2A2A2A0A00002A2A2A2A20556E6B02
:1048E4006E6F776E20466174616C204572726F72D0
:1048F40020256421202A2A2A2A0A0000437572727C
:10490400656E7420746872656164204944203D209A
:1049140025700A4661756C74696E6720696E7374DC
:1049240072756374696F6E20616464726573732059
:104934003D20307825780A202072613A203078258D
:1049440078202067703A2030782578202074703AD7
:104954002030782578202074303A20307825780A61
:10496400202074313A2030782578202074323A207F
:1049740030782578202074333A2030782578202028
:1049840074343A20307825780A202074353A20305F
:10499400782578202074363A2030782578202061D4
:1049A400303A2030782578202061313A203078253B
:1049B400780A202061323A2030782578202061332B
:1049C4003A2030782578202061343A2030782578D0
:1049D400202061353A20307825780A202061363A43
:1049E4002030782578202061373A20307825780ADD
:1049F4000000000049535200657373656E74696169
:104A04006C20746872656164000000004661746122
:104A14006C206661756C7420696E202573212053A7
:104A240070696E6E696E672E2E2E0A00466174617F
:104A34006C206661756C7420696E2074687265619F
:104A440064202570212041626F7274696E672E0A9A
:104A54000000000053707572696F757320696E747D
:104A6400657272757074206465746563746564211D
:104A7400204952513A2025640A0000002E2F617209
:104A840063682F726973637633322F636F72652F95
:104A94007468726561642E63000000002828282869
:104AA4007072696F726974792929203D3D2031350E
:104AB400202626207A5F69735F69646C655F746879
:104AC4007265616428287468726561645F66756ED6
:104AD40063292929207C7C202828283135202D2071
:104AE4003129203E3D2028282D3136292929202608
:104AF400262028287072696F726974792929203EEA
:104B04003D2028282D3136292920262620282870C2
:104B140072696F726974792929203C3D20283135E6
:104B2400202D203129292900415353455254494FFE
:104B34004E204641494C205B25735D20402025735F
:104B44003A25640A0000000009696E76616C6964A4
:104B5400207072696F7269747920282564293B205A
:104B6400616C6C6F7765642072616E67653A2025AD
:104B74006420746F2025640A000000002E2F6C69E5
:104B8400622F6F732F6173736572742E630000005C
:104B9400402025733A25643A0A0000007561727456
:104BA400300000007379735F636C6F636B00000007
:104BB4002E2F696E636C7564652F7370696E6C6FEC
:104BC400636B2E68000000007A5F7370696E5F6C1F
:104BD4006F636B5F76616C6964286C290000000068
:104BE40009526563757273697665207370696E6CBA
:104BF4006F636B0A000000007A5F7370696E5F7503
:104C04006E6C6F636B5F76616C6964286C2900005D
:104C1400094E6F74206D79207370696E6C6F636BCD
:104C2400210A0000604C0080F0450080DC4C0080CC
:104C34004641494C4544000050524F4A4543542094
:104C4400455845435554494F4E2025730A000000EA
:104C54005355434345535346554C00005041535319
:104C64000000000052756E6E696E6720746573747F
:104C74002073756974652025730A00003D3D3D3D30
:104C84003D3D3D3D3D3D3D3D3D3D3D3D3D3D3D3D50
:104C94003D3D3D3D3D3D3D3D3D3D3D3D3D3D3D3D40
:104CA4003D3D3D3D3D3D3D3D3D3D3D3D3D3D3D3D30
:104CB4003D3D3D3D3D3D3D3D3D3D3D3D3D3D3D0A53
:104CC400000000007374617274696E672074657308
:104CD40074202D2025730A00534B49500000000016
:104CE4002573202D2025730A000000005465737479
:104CF400207375697465202573206661696C656429
:104D04002E0A000054657374207375697465202538
:104D140073207375636365656465640A000000004D
:104D24006E1C00805A1C008000000000000000007F
:104D3400000000002C510080505100805C51008024
:104D44005C5100805C5100802A2A2A2A2A20426F62
:104D54006F74696E67205A6570687972204F5320AA
:104D64007A65706879722D76312E31332E302D3379
:104D74003032312D676133613064336661306534BC
:104D840037202A2A2A2A2A0A000000006D61696E47
:104D94000000000069646C65000000002E2F6B6544
:104DA400726E656C2F696E636C7564652F6B7363CB
:104DB4006865642E6800000021285F6B65726E656B
:104DC4006C2E6E657374656420213D203055290076
:104DD400090A00005F6B65726E656C2E63757272F2
:104DE400656E742D3E626173652E73636865645FDE
:104DF4006C6F636B656420213D2031005F6B6572CD
:104E04006E656C2E63757272656E742D3E6261738D
:104E1400652E73636865645F6C6F636B65642021E2
:104E24003D2030002E2F6B65726E656C2F736368A6
:104E340065642E63000000007468726561642D3E31
:104E4400626173652E70656E6465645F6F6E0000E9
:104E54005F6B65726E656C2E63757272656E74201D
:104E6400213D202828766F6964202A2930290000F2
:104E74006475726174696F6E20213D20282D31297B
:104E840000000000217A5F69735F74687265616471
:104E94005F73746174655F736574285F6B65726EAC
:104EA400656C2E63757272656E742C2028283155DA
:104EB4004C203C3C2028342929292900282828284A
:104EC4007072696F2929203D3D2031352026262026
:104ED4007A5F69735F69646C655F74687265616445
:104EE40028282828766F6964202A29302929292925
:104EF400207C7C202828283135202D203129203E73
:104F04003D2028282D313629292920262620282805
:104F14007072696F2929203E3D2028282D313629B9
:104F2400292026262028287072696F2929203C3DD3
:104F340020283135202D2031292929002169735F4A
:104F440069646C65287468726561642900000000F6
:104F54002E2F6B65726E656C2F73656D2E6300006A
:104F64006C696D697420213D20305500096C696DB0
:104F740069742063616E6E6F74206265207A657255
:104F84006F0A0000696E697469616C5F636F756EA6
:104F940074203C3D206C696D6974000009636F7571
:104FA4006E742063616E6E6F742062652067726533
:104FB40061746572207468616E206C696D69740A2D
:104FC400000000002828285F6B65726E656C2E6EE9
:104FD400657374656420213D20305529203D3D20B2
:104FE4003029207C7C202874696D656F7574203DA0
:104FF4003D203029290000002E2F6B65726E656CF0
:105004002F7468726561642E63000000095468722D
:1050140065616473206D6179206E6F742062652010
:105024006372656174656420696E20495352730A22
:10503400000000002E2F6B65726E656C2F74687211
:105044006561645F61626F72742E630028746872B4
:105054006561642D3E626173652E757365725F6F61
:105064007074696F6E73202620282831554C203CBB
:105074003C20283029292929203D3D203055000095
:1050840009657373656E7469616C20746872656117
:10509400642061626F727465640A00002E2F6B6570
:1050A400726E656C2F74696D656F75742E63000084
:1050B400217379735F646E6F64655F69735F6C6994
:1050C4006E6B65642826746F2D3E6E6F64652900CF
:1050D400742D3E647469636B73203E3D2030000080
:1050E4006C440080640A0080AE090080AE09008030
:1050F40000000000000000000000000000000000AC
:10510400000000000000000034110080181A008024
:1051140003000000185100801851008001000000B5
:08512400F5FFFFFF4C53008072
:10512C004843008000000000000000003C43008069
:10513C00244D00800000000024430080000000008B
:10514C000000000030430080000000000000000060
:10515C005C5100805C5100800000000000000000E9
:04516C000F00000030
:040000058000000077
:00000001FF
