:0200000480007A
:100000009702000093820201739052306F10C0116A
:10001000130101FB2320110023223100232441007E
:100020002326510023286100232A7100232CC101BB
:10003000232ED1012320E1032322F1032324A10253
:100040002326B1022328C102232AD102232CE10254
:10005000232EF1022320010523221105F32210345F
:1000600023245104F322003023265104EF00002002
:100070001303000063160504F3222034B703008045
:100080009383F3FFB3F272001303B000638A62003C
:100090001305010097000000938040146F00D07991
:1000A000832281049382420023245104976200003A
:1000B0009382822603A30200631403006F000009E9
:1000C00093020100976300009383834F03A14300D1
:1000D000130101FF2320510003AE0300130E1E0085
:1000E00023A0C30163080300970000009380C003AE
:1000F0006F00507D73252034B70200809382F2FF99
:1001000033755500EF008015975200009382C22589
:1001100013153500B382A20003A5020003A3420019
:10012000E7000300176300001303834983230300E0
:100130009383F3FF232073008322010013810200C5
:1001400083238300032E030263087E089762000066
:100150009382024703A3820023268302232893026B
:10016000232A2303232C3303232E43032320530565
:10017000232263052324730523268305232893055F
:10018000232AA305232CB30523242302976300000D
:100190009383831203AE03002326C30703A3020243
:1001A00023A46200032183020324C30283240303E4
:1001B0000329430383298303032AC303832A0304F4
:1001C000032B4304832B8304032CC304832C0305D8
:1001D000032D4305832D83058322810473901234FC
:1001E0008322C104739002308320010083214100E7
:1001F000032281008322C1000323010183234101E3
:10020000032E8101832EC101032F0102832F41029E
:10021000032581028325C1020326010383264103AE
:10022000032781038327C103032801048328410492
:100230001301010573002030730000009762000075
:100240009382023803A382008323C30613758500BB
:10025000F3220530138503006780000013031000AC
:10026000B312A30073B3423467800000F32220343A
:1002700037030080B3F262001305000063840200BC
:08028000130515006780000062
:100288006300060293070002B387C740634CF0007F
:10029800130506FE1307000033D5A50093050700D4
:1002A8006780000033D7C5003355C500B395F50006
:1002B8003365B5006FF09FFE130101FD2322910203
:1002C80023286101232611022324810223202103EC
:1002D800232E3101232C4101232A510123267101A8
:1002E8002324810123229101130B05009384050027
:1002F800639C06381304060093090500175900008B
:100308001309091E63F8C512B7070100938A05008F
:100318006378F6109306F00FB3B6C60093963600CE
:10032800B357D6003309F90003470900B306D700CD
:10033800130700023307D740630C0700B394E400A7
:10034800B356DB003314E600B3EA9600B319EB00AA
:10035800135B040193050B0013850A00EF0040634B
:100368001309050093050B00931B040113850A006C
:10037800EF00805D93DB0B019304050093050500F6
:1003880013850B00EF0080501319090113D70901D9
:100398003367E900138A0400637EA70033078700E8
:1003A800138AF4FF636887006376A700138AE4FF63
:1003B80033078700B304A74093050B001385040097
:1003C800EF00005D1309050093050B001385040079
:1003D800EF008057939909019304050093050500E0
:1003E8001319090113850B0093D90901EF00004A7D
:1003F800B36939011386040063FCA900B309340109
:100408001386F4FF63E6890063F4A9001386E4FF0A
:1004180093170A01B3E7C700130A00006F0000131F
:10042800B707000193060001E36CF6EE930680011E
:100438006FF01FEF138A0600631A06009305000089
:1004480013051000EF00405013040500B707010022
:10045800637CF4129307F00F63F48700130A80009B
:10046800B35744013309F900834609001306000213
:10047800B38646013306D64063120612B38484401D
:10048800130A1000135B040193050B001385040085
:10049800EF0000501309050093050B0013850400B5
:1004A800931B0401EF00404A93DB0B019304050002
:1004B8009305050013850B00EF00403D1319090152
:1004C80013D709013367E900938A0400637EA70004
:1004D80033078700938AF4FF636887006376A70071
:1004E800938AE4FF33078700B304A74093050B0002
:1004F80013850400EF00C0491309050093050B009C
:1005080013850400EF004044939909019304050002
:10051800930505001319090113850B0093D90901E7
:10052800EF00C036B36939011386040063FCA900E3
:10053800B30934011386F4FF63E6890063F4A90064
:100548001386E4FF93970A01B3E7C70013850700F2
:1005580093050A008320C1020324810283244102F7
:10056800032901028329C101032A8101832A410148
:10057800032B0101832BC100032C8100832C410034
:100588001301010367800000B7070001130A000187
:10059800E368F4EC130A80016FF09FEC3314C40095
:1005A80033DAD400B319CB00B356DB00135B040174
:1005B800B394C40093050B0013050A00B3EA960030
:1005C800EF00003D1309050093050B0013050A0011
:1005D800931B0401EF00403793DB0B0193040500E4
:1005E8009305050013850B00EF00402A1319090134
:1005F80013D70A013367E900138A0400637EA70052
:1006080033078700138AF4FF636887006376A700BF
:10061800138AE4FF33078700B304A74093050B0050
:1006280013850400EF00C0361309050093050B007D
:1006380013850400EF00403193040500930505007D
:1006480013850B00EF00802493960A011319090102
:1006580093D60601B367D9001387040063FEA70089
:10066800B38787001387F4FF63E8870063F6A70062
:100678001387E4FFB3878700131A0A01B384A740DE
:10068800336AEA006FF01FE063ECD51EB70701007C
:1006980063F4F6049305F00F33B5D5001315350050
:1006A80033D7A60097570000938787E3B387E700FF
:1006B80083C50700130A0002B385A500330ABA40B0
:1006C80063160A0293071000E3E296E83336CB007C
:1006D800934716006FF09FE7B70700011305000165
:1006E800E3E0F6FC130580016FF09FFBB35AB600F8
:1006F800B3964601B3EADA0033D9B400B39744019C
:10070800B355BB0093DB0A01B3E4F50013050900F8
:1007180093850B00B3194601EF00802713040500E9
:1007280093850B0013050900139C0A01EF00C021F3
:10073800135C0C01130905009305050013050C0053
:10074800EF00C0141314040113D704013367E40045
:10075800930C0900637EA70033075701930CF9FF38
:10076800636857016376A700930CE9FF33075701C5
:100778003309A74093850B0013050900EF004021BA
:100788001304050093850B0013050900EF00C01B37
:10079800130905009305050013050C00EF00000F71
:1007A800939704011314040193D707013367F400E6
:1007B80013060900637EA700330757011306F9FFE4
:1007C800636857016376A7001306E9FF33075701EB
:1007D80093970C01370E0100B3E7C7001308FEFF1B
:1007E80033F3070133F809013307A74093DE070104
:1007F80093D909011305030093050800EF000009C8
:10080800930805009385090013050300EF0000080D
:10081800130305009305080013850E00EF00000779
:10082800130805009385090013850E00EF000006E4
:1008380093D6080133030301B386660063F4060107
:100848003305C50113D606013305A6006366A70262
:10085800E314A7BC370701001307F7FFB3F6E60058
:1008680093960601B3F8E80033164B01B3861601D8
:10087800130A0000E37CD6CC9387F7FF6FF0DFB94B
:10088800130A0000930700006FF05FCC1306050001
:100898001305000093F61500638406003305C500B0
:1008A80093D5150013161600E39605FE6780000021
:1008B800130101FF1383060023261100130E050000
:1008C800930805009306060013070000930700002D
:1008D8001308000013F51600931E1700630C05009B
:1008E8003385080133380501B387E700B307F800FB
:1008F8001308050013D7F80193D6160033E7EE0066
:1009080093981800E39806FC638805001305060011
:10091800EFF0DFF7B387A700630A030013050E00A3
:1009280093050300EFF09FF6B307F5008320C1009D
:100938001305080093850700130101016780000073
:100948006340050663C60506138605009305050082
:100958001305F0FF630C060293061000637AB600D5
:100968006358C0001316160093961600E36AB6FE85
:100978001305000063E6C500B385C5403365D5009F
:1009880093D6160013561600E39606FE67800000FD
:1009980093820000EFF05FFB13850500678002007B
:1009A8003305A04063D80500B305B0406FF0DFF908
:1009B800B305B04093820000EFF01FF93305A04063
:1009C800678002009382000063CA0500634C05003B
:1009D800EFF09FF71385050067800200B305B0406C
:1009E800E35805FE3305A040EFF01FF63305B0408D
:1009F80067800200678000006F308060130101FF8C
:100A08002324810023261100EF40500C1304050015
:100A1800EF40D00BE30EA4FE8320C1000324810025
:100A28001301010167800000130101FD232E11004D
:100A3800232C8100232401032326110363180504B2
:100A48001386060013870500B7560080B765008037
:100A5800376500809386065F138407009385458970
:100A6800930781021305458B2326F100EF104003FD
:100A78008325C10013050400EF00907F37550080DF
:100A88001305C56AEF10C001EF10C0708320C101C3
:100A9800032481011301010367800000130101FF92
:100AA80023229100B7640080232481009305F0FF7E
:100AB8001385C43B376400802326110013040431D6
:100AC800EF30007703250400EF3080539305F0FFE3
:100AD8001385C43BEF30C0758325040003248100CF
:100AE8008320C1008324410037150080130505A029
:100AF800130101016F00005F130101FE232E110095
:100B0800232C8100232A910023282101EF30C0568D
:100B180093050000EF20507E376900801305C94413
:100B28001306F0FF93050000EF30C05537650080CD
:100B38001306F0FF930500001305C53BEF30805402
:100B4800B76400801306F0FF930500001385C43CCA
:100B5800EF3040533755008013050561EF0050749E
:100B6800B7160080B7650080376500809308C0FF1E
:100B78001308000093070000130700009386C6CBF4
:100B88001306001823220100232001009385055F26
:100B98001305C53D37640080EF3050351304043128
:100BA800930505002320A400375500801305C5626E
:100BB800EF00106FB7160080B765008037650080BA
:100BC800930860FF13080000930700001307000054
:100BD800938646AA13060018232201002320010049
:100BE800938505771305C534EF305030930505001C
:100BF800375500801305C564EF00906A1305C94492
:100C0800EF30C0549305F0FF1385C43CEF304062C9
:100C18000325040037590080B7640080EF30403E58
:100C2800B767008003C5072BB7550080B75700800A
:100C38001307095F138644899387C7669306E00DF7
:100C48009385C56713451500EFF01FDE3755008003
:100C580013054569EF00D064EFF05FDAEF400067F5
:100C6800130405001305803EEF308015EF40006641
:100C780033088540032481018320C1011307095FDC
:100C88001386448903290101832441011305E8C01F
:100C9800B7570080B75500809308203F9387076BAC
:100CA8009306700E9385856D133525001301010297
:100CB8006FF09FD737650080130101FF9305F0FFA0
:100CC8001305C54423261100232481002322910003
:100CD80023202101EF30C0553755008013050572D8
:100CE800EF00105CEFF09FD1EF40405E1304050069
:100CF8001305803EEF30C00CEF40405D3304854063
:100D08009307E4C09304100063E0F40837550080AB
:100D180013058574EF00D058376900801305C93B67
:100D2800EF30C042EFF09FCDEF40405A130405006A
:100D38001305803EEF30C008EF404059330485402A
:100D480063F884089306D00737560080B7550080AB
:100D58003755008093850578130585781306465E18
:100D6800EF00105437550080930504001305457CA7
:100D7800032481008320C10083244100032901004A
:100D8800130101016F00D05137560080B75500801C
:100D9800375500801306465E9385057813058578D8
:100DA8009306E006EF00D04F93050400032481006A
:100DB8008320C100832441000329010037550080A6
:100DC8001306203F13058579130101016F00504D6B
:100DD800375500801305057FEF00904C1305C93B7C
:100DE800EF30C036EFF09FC1EF40404E13040500CE
:100DF8001305803EEF20D07CEF40404D3304854002
:100E080063F684009306B0086FF01FF4376500801E
:100E180013058582EF00D048376500801305C53C6F
:100E2800EF30C032EFF09FBDEF40404A1304050099
:100E38001305803EEF20D078EF40404933048540C9
:100E480063FA840237560080B75500803755008012
:100E58009385057813058578930690091306465EF1
:100E6800EF001044376500809305040013050586DC
:100E78006FF01FF08320C10003248100B767008052
:100E88002388072A83244100032901001301010153
:100E980067800000B7650080375500809385452737
:100EA800130585606F100032130101FF232611001E
:100EB80023248100930760006304F502EF30C055D6
:100EC80063040502EF30405563160504B7650080DA
:100ED8009385C5B837650080130505BAEF00503C07
:100EE800EF0010436FF0DFFFEF300054E31C05FC08
:100EF800376400801304C45B832584003765008051
:100F0800130505BCEF00D03903258400EF305018D5
:100F18006FF01FFDB7650080938585B86FF09FFB64
:100F2800130101FB232481042322910423261104A5
:100F380093076000930405001384050063E0A70E7F
:100F480037670080931725001307C78DB387E7001D
:100F580083A7070067800700376500801305C5A0D1
:100F6800EF001034EF304011832744048328040134
:100F78000328C4002328F10283270404032744001C
:100F8800832604002326F1028327C403032684044E
:100F9800930505002324F102832784033765008025
:100FA800130505A92322F102832744032320F10214
:100FB80083270403232EF1008327C402232CF10086
:100FC80083278402232AF100832744022328F1007F
:100FD800832704022326F1008327C4012324F10078
:100FE800832784012322F100832744012320F10071
:100FF80083278400EF00D02A93050400138504009A
:10100800EFF09FEA37650080130545A36FF05FF5A1
:1010180037650080130505A56FF09FF437650080DC
:10102800938504001305C5A6EF0090276FF09FF382
:10103800130101FF23248100232611001304050056
:101048007326203413161600135616009307500003
:1010580063E8C70237670080931726001307878F56
:10106800B307F70083A5070037650080130585914E
:10107800EF0010239305040013050000EFF05FEA6A
:10108800B7650080938505916FF01FFE130101FF7E
:1010980023261100F3252034376500809395150029
:1010A80093D51500130585BEEF00901FB765008026
:1010B8009385459313054000EFF09FE6B7670080DE
:1010C8009387473103A70700630C070003A30700B2
:1010D80023A00700B767008003A5873167000300D6
:1010E8006780000093078000F3B7073037670080F8
:1010F800232AA73037670080232CB73073000000FD
:1011080093F78700F3A7073067800000130101FFFA
:1011180023261100EF104046EF009021EF10804C7D
:1011280017610000130181FCB7120000938202804E
:1011380033015100EFF09FFD6F00C02F130101FD37
:10114800232481022322910223202103232E31010B
:10115800232C4101232A51012328610123267101EF
:10116800138B070023261102232481019307F00023
:10117800930405001384050093090600138A0600EA
:10118800930B0700930A080013890800639AF8086C
:10119800B727008093878754639AF608832601034C
:1011A800930509001385040013064000EF3000344E
:1011B800938509FBB305B400B727000023AE0404E8
:1011C80023A0040693F505FF9387078823A6F50453
:1011D800B71700808320C102032481029387071474
:1011E80023A4450323A6750323A8650323AA55034F
:1011F80023A4F50423A4B402032901028324410291
:101208008329C101032A8101832A4101032B01019A
:10121800832BC100032C81001301010367800000A8
:10122800938608019307E001E3FAD7F6376C00804C
:10123800B76500803765008013060CC193068001EE
:10124800938505C31305C5CBEF009005376500806E
:1012580093050900930600FF1306E0001305C5CDAA
:10126800EF0010049305800113050CC1EF0010076F
:101278006FF0DFF293971500B387B7001397270035
:101288008327C500B387E7000307B5006354B70099
:1012980083A707001357F6411377F7013307C700F1
:1012A8001357574013172700B387E70023A0F6000A
:1012B8001375F60167800000130101FE9306C10053
:1012C800232E1100EFF01FFB0327C1009307100026
:1012D8003395A700832707008320C101B3E7A70040
:1012E8002320F7001301010267800000130101FEAB
:1012F800232A910083244500232C81001304050030
:1013080003558500938504002328210123263101F4
:10131800232441012322510123206101232E11009E
:10132800EFF0CFD683290400834AA4009307F0FF87
:10133800130A0500B389A900A305F40013090000E6
:10134800130BF001634C5903930400008357840086
:1013580063CCF4088320C101032481018324410163
:10136800032901018329C100032A8100832A41003E
:10137800032B01001301010267800000938504001C
:1013880013050A00EFF04FDC131719003307270184
:10139800931727000327C4003307F7009307470074
:1013A8002322F7002324F700634EAB00A305240192
:1013B80093D424009384340093F4C4FF13091900D0
:1013C8006FF05FF81305F5019357F54193F7F701AF
:1013D800B387A70093D75740939727002320370157
:1013E800B389F9006FF0DFFC8325440013850400FE
:1013F800EFF0CFC98327040013860400930500008B
:101408003385A7008327C4009384140013874700FB
:101418002320E50003A787002322E50003A7870010
:101428002320A70023A4A70013050400EFF0DFE89A
:101438006FF0DFF1130101FF930705001385050025
:10144800930506001386060023261100E78007008F
:10145800EF209042EF30C043130500006780000082
:10146800130101FF23248100130405001305500410
:10147800232611002322910093840500E70004002D
:101488009385040013052005E700040013030400F6
:10149800032481008320C100938504008324410034
:1014A80013052005130101016700030083A7050048
:1014B8009387170023A0F500B767008003A3C72907
:1014C80067000300130101FC232C8102232631034A
:1014D80023244103232061032328A101232E110281
:1014E800232A91022328210323225103232E710149
:1014F800232C8101232A91012326B1019309050098
:10150800138A0500130D0600138B06001304100040
:101518006354E0001304070093071000930C0002C3
:101528006314FB00930C0003B7D49A3B1309100013
:10153800930AA000130C00009384F49F930D2000DD
:10154800938B140063140C0063F2A40B93850B00B7
:1015580013050D00EFF04FBF93050A0013050503AF
:10156800E780090013091900130C100093850B007C
:1015780013050D00EFF0CFC1130D05009305A00072
:1015880013850400EFF04FBC938AFAFF930710000D
:1015980093040500E396FAFA93050A0013050D0370
:1015A800E780090093073000330424416306FB06F3
:1015B8008320C103032481038324410303290103F6
:1015C8008329C102032A8102832A4102032B0102D3
:1015D800832BC101032C8101832C4101032D0101BF
:1015E800832DC1001301010467800000E34054F912
:1015F800E3EE6DF793050A0013850C00E7800900F8
:10160800130919006FF09FF693050A0013050002ED
:10161800E78009001304F4FFE34880FE6FF05FF9E8
:10162800B767008023AEA72867800000130101FB7D
:10163800232481042322910423202105232E31030E
:10164800232C4103232A5103232291032320A1039E
:10165800232EB101232611042328610323267103B5
:10166800232481031304050093840500930A0600CC
:10167800138D0600130A00001309F0FF93090000F8
:10168800930C0000B70D008003C50A006310050421
:101698008320C10403248104832441040329010411
:1016A8008329C103032A8103832A4103032B0103EE
:1016B800832BC102032C8102832C4102032D0102DA
:1016C800832DC1011301010567800000639E0C0092
:1016D80093065002630CD53693850400E700040096
:1016E800938A1A006FF05FFA930640066300D512DA
:1016F80063E2A6069306900363EAA6029306100324
:101708006374D50E9306D002630CD5349307000397
:101718006300F50C130750026312E5029385040079
:1017280013055002E70004006F00001693068005B9
:101738006300D51C130730066300E5309385040069
:1017480013055002E70004009385040003C50A004E
:101758006FF05FFD93060007630CD51663E0A602E1
:10176800930690066304D50A9306C006630CD50851
:1017780093068006E306D5F66FF05FFC93065007E4
:101788006308D51063EEA60213073007E318E5FADD
:10179800032C0D00130B4D00930B0C0003C50B001D
:1017A800631A0526930730006398F900B38B8B41C1
:1017B800B30B794163487027130D0B006F00C00C01
:1017C800930680076306D5129306A0076FF09FFA69
:1017D800635E0900638A0928130905FDE39209F08D
:1017E800930920006FF0DFEFE34809FE9316290004
:1017F8003389260113191900130909FD3309250135
:101808006FF0DFFD130A1A006FF09FED63120A04F0
:1018180003260D00130D4D00635006029385040046
:101828001305D0022320C100E700040003260100AD
:101838001309F9FF3306C04013070900938609000E
:101848009385040013050400EFF0DFC76F00C003A1
:1018580013071000E30EEAFA93077D0013F787FFDA
:101868000326070083264700130D87003307B601B8
:101878003337C7003307D700E30007FA938504001E
:1018880013050400EFF0DFBD930C00006FF05FE577
:1018980063180A0003260D00130D4D006FF0DFF9E1
:1018A80013071000E308EAFE93077D0013F787FF8C
:1018B800130D87000326070003274700E31007FCE2
:1018C800B707008093C7F7FFE3F8C7F66FF01FFB71
:1018D8009385040013050003E700040093850400C2
:1018E80013058007E700040013098000930910001E
:1018F8009306100063C2460B83270D0023240100C2
:10190800130D4D002322F100130C0001930B00006E
:10191800232001009308000103254100832581004D
:10192800138BF8FF13162B0023261101EFE05F95A8
:101938001375F50063180508832701009306000353
:10194800639807008328C100930710006396F8087E
:101958003385A60013158501938504001355854129
:10196800E7000400938B1B0063180B0493063000F8
:10197800930C0000E396D9D613171900B30B7741DF
:10198800E35470F19385040013050002E700040096
:10199800938BFBFF6FF0DFFE93077D0093F687FFC5
:1019A80083A70600138D86002322F10083A7460033
:1019B8002324F1006FF05FF52320910193080B00B9
:1019C8006FF09FF59307900093067005E3E2A7F880
:1019D800930600036FF0DFF79307FCFF2326F1005F
:1019E800634C890193071000639CF90093850400F8
:1019F80013050003E7000400032CC1006FF01FFC6F
:101A080093072000E39AF9FE93850400130500026A
:101A18006FF05FFE93850400938B1B00E7000400C2
:101A28006FF0DFD79385040013050002E700040078
:101A3800938BFBFF6FF01FD803250D0093850400DF
:101A4800130B4D00E70004006FF01FD7130A0000C6
:101A58001309F0FF93090000930C10006FF05FC8A2
:101A6800930930006FF0DFC7930910006FF05FC76C
:101A7800130101FE13060500371500809386050043
:101A88001305454B9305C100232E110023260100A1
:101A9800EFF0DFB98320C101130101026780000064
:101AA800130101FC2322B10293054102232E1100E8
:101AB8002324C1022326D1022328E102232AF1028A
:101AC800232C0103232E11032326B100EFF05FFA24
:101AD8008320C1011301010467800000B7650080FD
:101AE80037650080130101FF938505D1130545D2A1
:101AF8001306E00123261100EFF09FFAB765008076
:101B08009385459313056000EFF08FC1678000004F
:101B180093078000F3A70730730050106780000018
:101B2800930710003395A7007325453067800000A0
:101B380093078000F3B70730735040307350403438
:101B480067800000130101FF2324810023229100F4
:101B580037640080232611009307A0009304050032
:101B68001304C431631CF500032504009305D00059
:101B78008327450083A74700E78007000325040063
:101B880093F5F40F8327450083A74700E7800700F4
:101B98008320C100032481001385040083244100AD
:101BA8001301010167800000130101FF2324810054
:101BB800372400801305C4B423261100EF00005415
:101BC8001305C4B4032481008320C100130101015B
:101BD8006FF01FA537650080130101FF130505D3BA
:101BE80023261100EF00100CB767008023AEA73042
:101BF800EFF09FFB8320C1001305000013010101D2
:101C080067800000B70710F003A747F403A507F49F
:101C180083A547F4E39AE5FE67800000130101FEFF
:101C2800232C8100232E1100232A9100232821012F
:101C3800232631012324410123225101130480006A
:101C48007334043037690080130509321374840033
:101C5800EF20900B631E0502B7640080B765008013
:101C6800376500809385C5D59306E004138644D470
:101C78001305C5CBEFF0DFE237650080130545D7C4
:101C8800EFF01FE29305E004138544D4EFF01FE55D
:101C980013050932B7640080EF20900C9384043058
:101CA800EFF05FF683A9040083AA440093070500B8
:101CB80033053541B3B7A700B385554137D6010081
:101CC8001306064C93060000B385F540EFE0CFDE1F
:101CD800130A0500B7D501009385054C13050A00C2
:101CE800EFE0DFBAB309350133B5A9003305550173
:101CF80023A2A4001305093223A03401EF205003C6
:101D0800631E0502B7640080B765008037650080F0
:101D18009385C5D893061006138644D41305C5CBFE
:101D2800EFF01FD837650080130545DAEFF05FD76D
:101D380093051006138544D4EFF05FDA732404305A
:101D4800032481018320C101832441010329010166
:101D58008329C100832A410013050A00032A810050
:101D6800130101026F30001F130101FF2326110028
:101D7800EFF05FE9B7D701009387074C370710F0FA
:101D8800B307F5009306F0FF2326D7F433B5A70071
:101D98003305B5002324F7F42326A7F413057000B0
:101DA800EFF01FD88320C1001305000013010101C3
:101DB800678000006392051A130101FE232E1100AB
:101DC800232C8100232A9100232821012326310175
:101DD8002324410123225101232061019307F0FFAD
:101DE8006316F500379500001305E5BCB7970000AA
:101DF8001304F5FF9387E7BC63DA8714138407009D
:101E08001309800073390930B76A008013850A32D4
:101E180013798900EF20406F631E0502B7640080C4
:101E2800B7650080376500809385C5D59306E004C3
:101E3800138644D41305C5CBEFF09FC637650080E1
:101E4800130545D7EFF0DFC59305E004138544D4A7
:101E5800EFF0DFC813850A32EF208070EFF09FDAC9
:101E6800B767008093870730B7D4010083A90700BC
:101E7800130A05009385044C1305040003AB4700BF
:101E8800EFE0DFA09387F44BB38737413305F500C4
:101E98009385044C3305AA00EFE01FAB9385044CEF
:101EA800EFE0DF9E338A4941330AAA009307703E68
:101EB80063C647019384044C33059500B70710F0B7
:101EC800B30935011307F0FF23A6E7F433B5A900DA
:101ED8003305650123A437F523A6A7F413850A3231
:101EE800EF200065631E050237640080B765008037
:101EF800376500809385C5D893061006130644D429
:101F08001305C5CBEFF0DFB937650080130545DA57
:101F1800EFF01FB993051006130544D4EFF01FBC6A
:101F2800732909308320C1010324810183244101DD
:101F3800032901018329C100032A8100832A410062
:101F4800032B01001301010267800000E35A04EA31
:101F5800130400006FF0DFEA67800000130101FF3F
:101F6800232481002326110023229100232021010C
:101F78001304800073340430B7640080138504327E
:101F880013748400EF204058631E050237690080EF
:101F9800B7650080376500809385C5D59306E00452
:101FA800130649D41305C5CBEFF09FAF3765008002
:101FB800130545D7EFF0DFAE9305E004130549D4C8
:101FC800EFF0DFB113850432EF208059EFF09FC3A3
:101FD800B767008083A70730B7D501009385054C04
:101FE8003305F540EFE05F961309050013850432C9
:101FF800EF200054631E0502B7640080B7650080B7
:10200800376500809385C5D893061006138644D497
:102018001305C5CBEFF0DFA837650080130545DA57
:10202800EFF01FA893051006138544D4EFF01FABFB
:10203800732404308320C1000324810013050900A0
:102048008324410003290100130101016780000076
:102058008347050003C705006394E70063960700FC
:102068003385E74067800000130515009385150048
:102078006FF01FFE93F6F50F9307050013F737006F
:102088006314070493F5F50F13978500B365B7003C
:1020980013970501B365B7003383C700138707009B
:1020A80013083000B308E340636A18031357260087
:1020B80093152700B387B7003306B6403386C700A9
:1020C8006394C70267800000E30E06FE938717003B
:1020D800A38FD7FE1306F6FF6FF05FFA13074700CA
:1020E800232EB7FE6FF01FFC93871700A38FD7FE30
:1020F8006FF01FFD1305F0FF67800000B7670080D1
:1021080023A0A72A67800000130101FE232C810069
:102118008327850037640080232A91001304442A0A
:10212800B7640080232E11002328210123263101C2
:1021380093844432930910002320040013090500F6
:1021480023A03401E78007008327490023203401B6
:10215800E7800700930720002320F4008327C900A5
:10216800E7800700930730002320F400032481014F
:1021780023A004008320C101832441010329010114
:102188008329C100376500801305C5451301010285
:102198006F10D07B37650080130101FFB76700809F
:1021A8001307F0FF1305C5452326110023A2E732C4
:1021B800EF10D079EF10506C8320C100130101019A
:1021C8006F20006D130101FA232A9104B76400807F
:1021D80083A78432232E1104232C8104232821056C
:1021E8002326310523244105232251052320610597
:1021F800232E7103232C8103232A91032328A1036F
:102208002326B10363C4070837640080130610004F
:1022180093090500138C05001305C44593050000B8
:10222800EF1050663765008093850900130585DF38
:10223800EFF01F8737690080130509E1B76A00804E
:10224800EFF01F8693848432130A0000232E810046
:10225800B77C0080376B0080372D0080B76D008019
:10226800B76B0080938A8ADB83274C00639E070440
:102278009385090063060A1037650080130505E891
:10228800EFF01F829307100023A0F4008320C105FC
:102298000324810583244105032901058329C104F9
:1022A800032A8104832A4104032B0104832BC103DD
:1022B800032C8103832C4103032D0103832DC102C9
:1022C800130101066780000083250C00B7670080B2
:1022D800138587E5EFF0CFFC2322010083270C014B
:1022E80013070C001306004093E787009308F0FFDC
:1022F8001308000093060D112320F10093850C8F1D
:10230800930700001305CB46EF20403E8327C10109
:102318009305F0FF1385C745EF10907193874D32F1
:102328001305CB4603A40700EF208056B76700804B
:102338009387473203A70700130414009307E0FFAD
:102348001334140003260C006314F702B7650080E9
:102358009385C5E613854BE7EFF08FF4130509E184
:10236800EFF00FF4330A8A00130C4C016FF0DFEF23
:1023780093172400B387FA0083A507006FF09FFD29
:1023880037650080130585E9EFF08FF183A7040016
:10239800B337F0006FF05FEFB767008083A787322D
:1023A800130101FF232481003765008023261100D3
:1023B80037640080130505E163820702EFF04FEEF2
:1023C800B7650080938545DC1305C4DC03248100D0
:1023D8008320C100130101016FF08FECEFF04FEC87
:1023E800B7650080938545DE6FF01FFE130101FF7E
:1023F80023261100EFE01FAA8320C1001301010169
:102408006FF09FF9130101FF232601008327C10004
:10241800938717002326F100B70701F023A0B70020
:1024280013010101678000001305F0FF67800000B9
:10243800130500006780000013172500B7670080A8
:1024480013051500938787EC13152500130101FF69
:102458003387E700B387A700232481002322910054
:102468000324070083A4070023261100636C94004B
:102478008320C1000324810083244100130101014A
:1024880067800000832704001305040083A7470022
:10249800E780070063040500232204001304C40036
:1024A8006FF0DFFC130101FFB76700802322910062
:1024B800B764008023248100232611001384C72BCE
:1024C800232021019387C72B9384C42E631C940077
:1024D8001309050013840700631494021304000011
:1024E8006F00400403274400630807000327040023
:1024F800032707006308A7021304C4006FF01FFD39
:1025080083274400639607001304C4006FF0DFFCC0
:10251800832704001305090083A50700EFF05FB3C4
:10252800E31405FE130504008320C1000324810081
:102538008324410003290100130101016780000081
:10254800130101FF23248100232291002326110077
:102558001304800093042000F3370430EF20900127
:1025680063C4A4001305100093051000EF20500E5B
:10257800EFF00FDA6FF05FFE37650080B767008015
:10258800130605309387875E3386C740930500009E
:10259800130505306FF01FAE130101FF130520006E
:1025A80023261100EFF05FE9376500801305C5EDBC
:1025B800EFF00FCF13053000EFF01FE8EF204022B7
:1025C800EFF0DFE2B76700809387C75403C7C700FF
:1025D8001377E7FF2386E7008320C1001301010179
:1025E80067800000130101F6232C8108B78700805B
:1025F80037640080232631099387078F9309C45BCA
:1026080023A2F900930701011306000793050000B0
:1026180013850700232E1108232A9108232821094E
:10262800EFF05FA51307100023A4A900130500000D
:10263800A30EE100EFF05FE013051000EFF0DFDF1D
:1026480093071010231EF100EF100049B7670080B0
:10265800938707F2376900802322F100B7260080AC
:1026680093071000B77500809304C9542320F10024
:1026780013070000930700009308000013080000E8
:102688009386065A13060020938505CF1305C9546F
:1026980023A09902EF10905A83C7D4001304C45B97
:1026A80013F7B7FFA386E40093F7B701639A07000F
:1026B80083A78401639607001305C954EF009008A7
:1026C800B7670080938787F22322F100376500807F
:1026D80093071000B7260080B77500809304C54D96
:1026E8002320F1009308F00013080000930700006E
:1026F800130700009386865413060020938505EF80
:102708001305C54DEF10905383C7D40023269400BA
:102718001305800093F7B7FFA386F400B76700801E
:102728009387475D232CF400232EF400733505307E
:1027380013758500EFD0DFAF8347D50093F7F70116
:10274800639807000325850113351500678000008D
:102758001305000067800000130101FF2326110004
:10276800EFF0CFFFB767008083A747338320C1000E
:10277800376700803385A7002326A75C93050000F0
:1027880013850700130101016F20806C8327050062
:10279800130101FF23248100232611002322910025
:1027A8001304050063980702B7640080B7650080CA
:1027B800376500809385C5FC1305C5CB9306301893
:1027C800138684FBEFF0CFAD93053018138584FB97
:1027D800EFF0CFB0032504008320C100032481005B
:1027E800832441001301010167800000130101FEE9
:1027F800232C81002326310123244101232E11009B
:10280800232A910023282101130A05009389050032
:102818001304800073340430B76400801385C43215
:1028280013748400EF10504E631E05023769008050
:10283800B7650080376500809385C5D59306E004A9
:10284800130649D41305C5CBEFF08FA53765008073
:10285800130545D7EFF0CFA49305E004130549D439
:10286800EFF0CFA71385C432EF10904FB767008001
:102878009305A00013059A0023A6075CEFE04F8C90
:10288800B767008037690080232AA93223A8373325
:10289800EFF09FEC1385C432EF109049631E0502D8
:1028A800B7640080B7650080376500809385C5D818
:1028B80093061006138644D41305C5CBEFF04F9E3C
:1028C80037650080130545DAEFF08F9D93051006F4
:1028D800138544D4EFF08FA0732404308320C10102
:1028E8000324810183244101032901018329C100B3
:1028F800032A81001301010267800000130101FE11
:10290800232C810023282101232E1100232A910042
:1029180023263101130905001304800073340430A1
:10292800B76400801385C43213748400EF10D03D5F
:10293800631E0502B7690080B765008037650080AF
:102948009385C5D59306E004138649D41305C5CBF2
:10295800EFF00F9537650080130545D7EFF04F94DA
:102968009305E004138549D4EFF04F971385C432DB
:10297800EF10103F13058900EFF05FE193050900A0
:10298800EF00002F8347D9001385C43293F7D7FF90
:10299800A306F900EF10D039631E0502B764008062
:1029A800B7650080376500809385C5D89306100603
:1029B800138644D41305C5CBEFF08F8E376500809E
:1029C800130545DAEFF0CF8D93051006138544D42F
:1029D800EFF0CF90732404308320C10103248101D8
:1029E8002324090083244101032901018329C1000B
:1029F8001301010267800000B767008083A7C75BE7
:102A0800130101FF232481002326110023229100B2
:102A180013840500639E0704EF109031631E0502BE
:102A2800B7640080B7650080376500809385C5D896
:102A380093068007138644D41305C5CBEFF04F8661
:102A480037650080130545DAEFF08F859305800719
:102A5800138544D4EFF08F88130504000324810004
:102A68008320C10083244100130101016FD04FFC72
:102A7800EF10102C631E0502B7640080B765008054
:102A8800376500809385C5D893061006138644D40D
:102A98001305C5CBEFF0CF8037650080130545DA05
:102AA800EFF00F8093051006138544D4EFF00F83E1
:102AB80013748400732404308320C100032481002C
:102AC80083244100130101016780000037670080FB
:102AD8000327C75B631407006FD08FF593778500D2
:102AE800F3A70730678000001305800073350530B1
:102AF800137585006FF09FFD130101FE232C8100E3
:102B0800232E1100232A9100232821012326310195
:102B18001304800073340430B76400801385C43212
:102B280013748400EF10501E631E0502376900807D
:102B3800B7650080376500809385C5D59306E004A6
:102B4800130649D41305C5CBEFE09FF53765008020
:102B5800130545D7EFE0DFF49305E004130549D4E6
:102B6800EFE0DFF71385C43237690080EF10501F9C
:102B78008327C95B1309C95B638E0702B7690080A5
:102B8800B7650080376500809385C5F4930600100B
:102B9800138609F31305C5CBEFE09FF03765008076
:102BA800130545F6EFE0DFEF93050010138509F3F1
:102BB800EFE0DFF28327890003C7F70093071000CF
:102BC800631EF702B7690080B7650080376500802B
:102BD800938585F693061010138609F31305C5CB64
:102BE800EFE01FEC37650080130545F6EFE05FEB7B
:102BF80093051010138509F3EFE05FEE03278900B2
:102C08008347F7009387F7FFA307F7001385C432BC
:102C1800EF101012631E0502B7640080B7650080CC
:102C2800376500809385C5D893061006138644D46B
:102C38001305C5CBEFE0DFE637650080130545DAFD
:102C4800EFE01FE693051006138544D4EFE01FE973
:102C5800732404308320C1010324810183244101AA
:102C6800032901018329C1001301010267800000C3
:102C7800B767008083A7872B130101FF23248100F6
:102C88002326110023229100138405006398F5027E
:102C9800B7640080B7650080376500809385050DAF
:102CA8001305C5CB9306C028138684FBEFE05FDFCE
:102CB8009305C028138584FBEFE05FE203274400F7
:102CC800832704008320C100832441002320F700C8
:102CD80023A2E70023200400232204000324810008
:102CE8001301010167800000832705006314F500C4
:102CF800930700001385070067800000130101FF98
:102D08002324810037640080232021011309050052
:102D18001305C45B130545022322910023261100E5
:102D2800EFF09FFC1304C45B9304050063140500D3
:102D38008324C400631E090683278400639E070258
:102D480037690080B765008037650080938545FE48
:102D58009306F007130689FB1305C5CBEFE05FD494
:102D680037650080130545F6EFE09FD39305F0071C
:102D7800130589FBEFE09FD68327840003C7D7009C
:102D88001377F7016316070283D6E7001307F007E6
:102D98006370D7022320F4028320C100032481003A
:102DA8008324410003290100130101016780000009
:102DB8008327840063849700EFF01F9A23209402EE
:102DC8006FF09FFD130101FE232821013769008060
:102DD8009307C95B83A78700232E1100232C81004A
:102DE80083C7F700232A9100232631011309C95B01
:102DF800639E070237640080B765008037650080EE
:102E0800938505F993061022130684FB1305C5CB99
:102E1800EFE01FC937650080130545F6EFE05FC88E
:102E280093051022130584FBEFE05FCB832709008D
:102E3800638E070237640080B765008037650080BD
:102E48009385C5F493062022130684FB1305C5CB8E
:102E5800EFE01FC537650080130545F6EFE05FC456
:102E680093052022130584FBEFE05FC7130480005D
:102E780073340430B76400801385C432137484003B
:102E8800EF108068631E0502B7690080B76500808F
:102E9800376500809385C5D59306E004138649D429
:102EA8001305C5CBEFE0DFBF37650080130545D7B5
:102EB800EFE01FBF9305E004138549D4EFE01FC27C
:102EC8001385C432EF10C069032789001305100069
:102ED8008347F70093871700A307F700EFF01FE277
:102EE8001385C432EF10C064631E0502B764008006
:102EF800B7650080376500809385C5D893061006AE
:102F0800138644D41305C5CBEFE09FB9376500801D
:102F1800130545DAEFE0DFB893051006138544D4AE
:102F2800EFE0DFBB73240430032481018320C10157
:102F380083244101032901018329C10013010102EE
:102F48006FF09FBA130101FE232C8100232A910000
:102F5800232E110023282101232631011304050003
:102F680093048000F3B40430376900801305C93234
:102F780093F48400EF104059631E0502B76900807E
:102F8800B7650080376500809385C5D59306E00452
:102F9800138649D41305C5CBEFE09FB03765008091
:102FA800130545D7EFE0DFAF9305E004138549D457
:102FB800EFE0DFB21305C932EF10805AB76700801F
:102FC80083A7872B6318F402B7690080B765008070
:102FD800376500809385050D1305C5CB93066027DB
:102FE800138689FBEFE0DFAB93056027138589FB28
:102FF800EFE0DFAE376700809306C75B83A7460222
:1030080003A68602B76600809386065E1307C75B31
:103018006386D70A6384070A8305E4000385E7000B
:1030280063D8A50803A747002320F4002322E4005F
:103038002320870023A287008347D40013050000BC
:1030480093E70704A306F400EFF05FCB1305C9323A
:10305800EF10004E631E050237640080B7650080DC
:10306800376500809385C5D893061006130644D4A7
:103078001305C5CBEFE0DFA237650080130545DAFD
:10308800EFE01FA293051006130544D4EFE01FA537
:10309800F3A404308320C101032481018324410166
:1030A800032901018329C10013010102678000007F
:1030B8006306F60083A70700E39207F62322C400FD
:1030C800832787022320D40023A087002324870294
:1030D8006FF09FF6832705FF130101FE232C810063
:1030E80023263101232E1100232A910023282101B0
:1030F8002324410113040500930985FE6384070C0A
:1031080093048000F3B40430376900801305C93292
:1031180093F48400EF10403F631E0502376A008075
:10312800B7650080376500809385C5D59306E004B0
:1031380013064AD41305C5CBEFE09F963765008088
:10314800130545D7EFE0DF959305E00413054AD44E
:10315800EFE0DF981305C932EF108040130504FF34
:10316800EFF0CFE293850900EFF09FB0834754FF5B
:103178001305C93293F7D7FFA30AF4FEEF10403BBB
:10318800631E050237690080B765008037650080D7
:103198009385C5D893061006130649D41305C5CBE5
:1031A800EFE01F9037650080130545DAEFE05F8F89
:1031B80093051006130549D4EFE05F92F3A4043099
:1031C800232804FE834754FF1385090093F7B7FEAD
:1031D800A30AF4FEEFF04FD663040502032481012D
:1031E8008320C1018324410103290101032A8100AD
:1031F800138509008329C100130101026FF09FD4D0
:103208008320C10103248101832441010329010191
:103218008329C100032A810013010102678000008D
:10322800130101FE232C810023282101232E1100E4
:10323800232A91002326310123244101232251010D
:10324800130405001309800073390930B769008039
:103258001385C93213798900EF10002B631E05020C
:10326800B7640080B7650080376500809385C5D551
:103278009306E004138644D41305C5CBEFE05F82C0
:1032880037650080130545D7EFE09F819305E0047B
:10329800138544D4EFE09F841385C932EF10402C86
:1032A800B76400801385C45B9305040013054502C9
:1032B800EFF01F9CB767008083A7872B376A0080D1
:1032C8009384C45B130A0A5E6318F402B76A008029
:1032D800B7650080376500809385050D1305C5CB5C
:1032E8009306602713868AFBEFE08FFB9305602720
:1032F80013858AFBEFE08FFE83A7440203A78402AD
:10330800638E470B638C070A8306E4000386E70095
:1033180063D0C60A03A747002320F4002322E40051
:103328002320870023A287008347D40003A58400B5
:1033380093E707043305854013351500A306F40009
:10334800EFF0DF9B1385C932EF10801E631E050264
:1033580037640080B7650080376500809385C5D8DD
:1033680093061006130644D41305C5CBEFE04FF3BC
:1033780037650080130545DAEFE08FF293051006F4
:10338800130544D4EFE08FF5732909308320C10178
:103398000324810183244101032901018329C100F8
:1033A800032A8100832A410013010102678000007B
:1033B8006386E70083A70700E39A07F42322E40063
:1033C80083A784022320440123A0870023A4840226
:1033D8006FF09FF5B767008083A7473363860706BA
:1033E800B76700809387C75B03A787009306F0073A
:1033F8000356E70063EAC604B76600800306E700E1
:1034080083A606336342D604B766008083A6862B5C
:10341800630CD702832687016398060283A60701F7
:103428006340D502130101FF13050700232611008D
:10343800EFF01FDF8320C100130101016FF0CFB14E
:10344800B386A64023A8D70067800000130101FEB9
:10345800232C810023263101232E1100232A9100D9
:1034680023282101930905001304800073340430D4
:10347800B76400801385C43213748400EF10C00849
:10348800631E050237690080B765008037650080D4
:103498009385C5D59306E004130649D41305C5CB17
:1034A800EFE00FE037650080130545D7EFE04FDF09
:1034B8009305E004130549D4EFE04FE21385C432C5
:1034C800EF10000A83C7D900376900801309C95B68
:1034D80093F70704638E07009385090013054902D3
:1034E800EFF00FF983C7D90093F7F7FBA386F9002C
:1034F800032589003305354113351500EFF01F808A
:103508001385C432EF10C002631E0502B764008041
:10351800B7650080376500809385C5D89306100687
:10352800138644D41305C5CBEFE08FD737650080E9
:10353800130545DAEFE0CFD693051006138544D47A
:10354800EFE0CFD9732404308320C1010324810123
:1035580083244101032901018329C10013010102C8
:1035680067800000130101FE232C8100232A9100AB
:103578001304050023282101232E110023263101DD
:103588009384050013090600EFF05FEC8347D4002D
:1035980093E72700A306F40063860406B767008054
:1035A80083A7872B232494006318F402B76900804B
:1035B800B7650080376500809385050D1305C5CB79
:1035C80093066027138689FBEFE08FCD930560276C
:1035D800138589FBEFE08FD083A70400638CF40682
:1035E800638A07060307E4008386E700635CD70461
:1035F80003A747002320F4002322E40023208700A8
:1036080023A287009307F0FF6304F9069305A0003F
:1036180013059900EFD0CFB21306150013058401E6
:10362800032481018320C10183244101032901016D
:103638008329C100B73500809385C50D13010102A8
:103648006F10004183A644006386D70083A7070054
:10365800E39C07F883A74400232094002322F40066
:1036680083A7440023A0870023A284006FF09FF95A
:103678008320C1010324810183244101032901011D
:103688008329C1001301010267800000130101FFB3
:10369800B7670080232481001304050003A5475C55
:1036A80023229100938405009305060013860600E3
:1036B80023261100EFF01FEB13050400EF005067FD
:1036C800631E050237640080B76500803765008097
:1036D8009385C5D893068007130644D41305C5CB34
:1036E800EFE00FBC37650080130545DAEFE04FBB0C
:1036F80093058007130544D4EFE04FBE03248100EF
:103708008320C100138504008324410013010101B3
:103718006FC01FB2130101FE232C81002328210151
:1037280023244101232E1100232A9100232631014D
:10373800232251012320610113040500138A050087
:103748001309800073390930B76900801385C932BD
:1037580013798900EF00505B631E0502B76400808F
:10376800B7650080376500809385C5D59306E0046A
:10377800138644D41305C5CBEFE08FB237650080BC
:10378800130545D7EFE0CFB19305E004138544D482
:10379800EFE0CFB41385C932EF00905C1305040045
:1037A800EFE09FF9131A8A01930A0500135A8A4118
:1037B80063000514B76400801385C45B9305040097
:1037C80013054502EFF0CFCAB767008083A7872BA0
:1037D80023074401376A00809384C45B130A0A5E96
:1037E8006318F402376B0080B76500803765008086
:1037F8009385050D1305C5CB9306602713068BFB30
:10380800EFE00FAA9305602713058BFBEFE00FADE0
:1038180083A7440203A784026380470D638E070AC7
:103828008306E4000386E70063D2C60A03A74700BD
:103838002320F4002322E4002320870023A287000A
:1038480013051000EFF08FCB1385C932EF00504EEF
:10385800631E050237640080B76500803765008005
:103868009385C5D893061006130644D41305C5CB13
:10387800EFE00FA337650080130545DAEFE04FA2AC
:1038880093051006130544D4EFE04FA573290930BA
:1038980063840A06B767008083A7475C83C7F7007D
:1038A800639C0704032481018320C101832441010F
:1038B800032901018329C100032A8100832A4100C9
:1038C800032B0100130101026FF00FA26386E700CA
:1038D80083A70700E39807F42322E40083A7840260
:1038E8002320440123A0870023A484026FF05FF5FE
:1038F800230744016FF05FF58320C1010324810190
:1039080083244101032901018329C100032A81007D
:10391800832A4100032B0100130101026780000084
:10392800130101FE2328210123263101232E110032
:10393800232C8100232A9100930905001309800094
:1039480073390930B76400801385C432137989004C
:10395800EF00903B631E050237640080B765008066
:10396800376500809385C5D59306E004130644D4D3
:103978001305C5CBEFE0CF9237650080130545D717
:10398800EFE00F929305E004130544D4EFE00F95A0
:103998001385C432EF00D03C13850900EFF0CFB493
:1039A800130405001385C432EF009038631E050226
:1039B800B7690080B7650080376500809385C5D8F2
:1039C80093061006138649D41305C5CBEFE04F8D37
:1039D80037650080130545DAEFE08F8C93051006F4
:1039E800138549D4EFE08F8F732909306306040CDF
:1039F80013098000733909301385C432137989009B
:103A0800EF009030631E0502B7690080B76500803B
:103A1800376500809385C5D59306E004138649D49D
:103A28001305C5CBEFE0CF8737650080130545D771
:103A3800EFE00F879305E004138549D4EFE00F8A80
:103A48001385C432EF00D03113058400EFE01FD492
:103A580093050400EFF0CFA18347D4001385C43247
:103A680093F7D7FFA306F400EF00902C631E05021E
:103A7800B7640080B7650080376500809385C5D836
:103A880093061006138644D41305C5CBEFE04F8187
:103A980037650080130545DAEFE08F80930510063F
:103AA800138544D4EFE08F8373290930232404005D
:103AB80013058401EF10801C130504008320C10145
:103AC8000324810183244101032901018329C100C1
:103AD8001301010267800000B76700809387C75B06
:103AE8001387470223A2E70223A4E70293050000F5
:103AF800130500006FE09FCF130101FF232481000D
:103B08002320210123261100232291001387050178
:103B18009307E001130905001384050063F4E70423
:103B2800B7640080B765008037650080930650341D
:103B3800138684FB938505051305C5CBEFD05FF687
:103B480037650080930504001305C5CD930600FF73
:103B58001306E000EFD0DFF493055034138584FB9F
:103B6800EFD0DFF7B767008083A7C75B638E0702D4
:103B7800B7640080B7650080376500809385C5F419
:103B880093066034138684FB1305C5CBEFD05FF131
:103B980037650080130545F6EFD09FF09305603434
:103BA800138584FBEFD09FF3930504000324810061
:103BB8008320C10083244100130509000329010063
:103BC800130101016FF01FB5130101FE232C8100C1
:103BD800376400808327C45B232E1100232A9100B9
:103BE80023282101232631012324410123225101C5
:103BF8001304C45B638E0702B7640080B765008056
:103C0800376500809385C5F49306E037138684FBF7
:103C18001305C5CBEFD0DFE837650080130545F6FF
:103C2800EFD01FE89305E037138584FBEFD01FEB37
:103C3800B76700808326840003A7872B138A0700B1
:103C48006386E6121309800073390930B76900806A
:103C58001385C93213798900EF00100B631E050222
:103C6800B7640080B7650080376500809385C5D547
:103C78009306E004138644D41305C5CBEFD05FE266
:103C880037650080130545D7EFD09FE19305E00421
:103C9800138544D4EFD09FE41385C932EF00500C4C
:103CA8008325840013054402EFE09FFC83278A2BB9
:103CB80083248400376A0080130A0A5E6398F4023A
:103CC800B76A0080B7650080376500809385050D69
:103CD8001305C5CB9306602713868AFBEFD05FDCFC
:103CE8009305602713858AFBEFD05FDF83274402A3
:103CF80003278402638A470B6388070A8386E400E4
:103D08000386E70063DCC60803A7470023A0F40086
:103D180023A2E4002320970023A297001305100094
:103D2800EFE0DFFD1385C932EF009000631E050246
:103D380037640080B7650080376500809385C5D8F3
:103D480093061006130644D41305C5CBEFD05FD5F0
:103D580037650080130545DAEFD09FD49305100628
:103D6800130544D4EFD09FD7732909301305800079
:103D780073350530032481018320C1018324410167
:103D8800032901018329C100032A8100832A4100F4
:103D980013758500130101026FC08FC96386E700A0
:103DA80083A70700E39E07F423A2E4008327840285
:103DB80023A0440123A09700232494026FF01FF648
:103DC800130101FD23248102376400808327C45B2B
:103DD800232291022326110223202103232E3101BD
:103DE800232C4101930405001304C45B638E07026E
:103DF80037690080B7650080376500809385C5F412
:103E080093069039130689FB1305C5CBEFD05FC91C
:103E180037650080130545F6EFD09FC893059039A4
:103E2800130589FBEFD09FCB9307F0FF6394F41A37
:103E380037690080B7650080376500809385450045
:103E48009306A039130689FB1305C5CBEFD05FC5D0
:103E580037650080130545F6EFD09FC49305A03958
:103E6800130589FBEFD09FC79305A0001385940025
:103E7800EFC01FAD93091500EF10C0433389A900A7
:103E88002326010093048000F3B404301305C10015
:103E980093F48400EF004067631E0502376A0080D0
:103EA800B7650080376500809385C5D59306E00423
:103EB80013064AD41305C5CBEFD09FBE37650080E3
:103EC800130545D7EFD0DFBD9305E00413054AD4A9
:103ED800EFD0DFC01305C100EF0080680325840020
:103EE800EFF0CFD603258400B7350080138609008C
:103EF800130585019385C50DEF00903503278400D0
:103F08001305C1008347D70093E70701A306F7000D
:103F1800EF000062631E0502B7690080B765008084
:103F2800376500809385C5D893068007138649D4E2
:103F38001305C5CBEFD0DFB637650080130545DA2A
:103F4800EFD01FB693058007138549D4EFD01FB96A
:103F580013850400EFC0CFAD8327840083C7D70043
:103F680093F70701638E070237640080B765008006
:103F780037650080938585019306703B130684FBA3
:103F88001305C5CBEFD0DFB137650080130545F6C3
:103F9800EFD01FB19305703B130584FBEFD01FB41E
:103FA800EF1040313305A940930400006358A00284
:103FB8001306803E930600009355F541EFC05F8FCE
:103FC8001306400693060000EFC00FAF93040500E8
:103FD8006F00C000E39A04E8EFF01FBF8320C1021E
:103FE800032481021385040003290102832441026A
:103FF8008329C101032A810113010103678000009D
:104008008347D50093F7270063960706130101FF3E
:1040180023248100130405001305850123261100BC
:10402800EF00D045634005048347D400130504001E
:1040380093F7F7FEA306F400EFE00FF06306050020
:1040480013050400EFE01FF0B767008083A7C75B84
:10405800639A0700032481008320C1001301010132
:104068006FE09FA88320C100032481001301010190
:104078006780000067800000B767008003A5475C81
:1040880067800000130101FE232C8100232A910080
:1040980023282101232E11002326310113040500B2
:1040A8001389050093040600631E0602B7690080A1
:1040B800B7650080376500809385450F93066004D7
:1040C8001386490E1305C5CBEFD09F9D3765008039
:1040D80013050510EFD0DF9C930560041385490E86
:1040E800EFD0DF9F63FE2403B7690080B7650080C7
:1040F8003765008093858511930670041386490EF1
:104108001305C5CBEFD0DF9937650080130505137C
:10411800EFD01F99930570041385490EEFD01F9CAB
:1041280023242401232694002320840023228400AE
:104138008320C10103248101832441010329010152
:104148008329C1001301010267800000130101FEE9
:10415800232A910023263101232E1100232C8100CC
:10416800232821019309050093048000F3B4043047
:10417800376400801305843393F48400EF00C0385B
:10418800631E050237690080B765008037650080C7
:104198009385C5D59306E004130649D41305C5CB0A
:1041A800EFD01F9037650080130545D7EFD05F8F9C
:1041B8009305E004130549D4EFD05F9213058433C7
:1041C800EF00003A13850900EFF08FF51309050099
:1041D800630205048347D50093F7F7016398070046
:1041E8008327850163940700EFE0DFD523260906BE
:1041F80013058433032481018320C10103290101AC
:104208008329C1009385040083244101130101021D
:104218006FE08FFE03A7890083A7C900B387E74033
:10422800B337F000B387E70023A4F9006FF05FFC11
:10423800B767008083A7C75B130101FE232821010C
:1042480023263101232E1100232C8100232A9100DB
:10425800232441011309050093890500638007049D
:10426800638E050237640080B7650080376500807B
:10427800938585159306C0081306440E1305C5CB10
:10428800EFD01F8237650080130545F6EFD05F81B8
:104298009305C0081305440EEFD05F841304800013
:1042A80073340430B7640080138584331374840036
:1042B800EF008025631E0502376A0080B76500801D
:1042C800376500809385C5D59306E00413064AD464
:1042D8001305C5CBEFD0CFFC37650080130545D754
:1042E800EFD00FFC9305E00413054AD4EFD00FFF7D
:1042F80013858433EF00C02683278900638C070663
:104308009387F7FF2324F90013858433EF004022B5
:10431800631E0502B7640080B765008037650080BA
:104328009385C5D893061006138644D41305C5CBC8
:10433800EFD00FF737650080130545DAEFD04FF659
:1043480093051006138544D4EFD04FF97324043035
:10435800130500008320C101032481018324410146
:10436800032901018329C100032A810013010102E5
:1043780067800000639A090413858433EF00401BAB
:10438800631E0502B7640080B7650080376500804A
:104398009385C5D893061006138644D41305C5CB58
:1043A800EFD00FF037650080130545DAEFD04FEFF7
:1043B80093051006138544D4EFD04FF273240430CC
:1043C800130500FF6FF01FF9930504000324810112
:1043D8008320C101032A810093860900130609007E
:1043E8008329C100032901011385843383244101F2
:1043F800130101026FF08FA98347D50093F7F701E6
:1044080063980700032585011335150067800000B0
:104418001305000067800000B767008003A5C75B2D
:104428003335A00067800000B767008083A7475C2A
:1044380003C5C7001375150067800000130101FE4E
:1044480003230102232C8100232E11002320610065
:1044580013040500EFC09FCEB767008083A7475CB1
:104468008320C10183A787062324F406032481013E
:10447800130101026780000083270506130101FF6D
:1044880023248100232611001304050063840700F8
:10449800E780070013050400EFF01FF66304050228
:1044A80013050400EFE09FFA8347D4008320C1007E
:1044B80093E78700A306F400032481001301010198
:1044C800678000008347D40093F7270063860700BE
:1044D80013050400EFE08FC283278401E38607FCFD
:1044E80013058401EF0080796FF01FFC2306D500C7
:1044F800A306C5002307B500A3070500232C050064
:10450800232E05006780000003250500630E0500C3
:10451800B767008083C7075D137535003305F5401D
:104528003335A00067800000130510006780000085
:10453800B76700809387C75B03C7470183A78700D6
:10454800B3E7E700032705006318F70023200500F9
:104558001305100067800000130500006780000045
:10456800B76700809387C75B03C7470183A78700A6
:10457800B3E7E7002320F50067800000130101FE80
:10458800232C810023282101232E1100232A9100A6
:104598002326310113090500130480007334043005
:1045A800B76400801385C43313748400EFF0DFF51B
:1045B800631E0502B7690080B76500803765008013
:1045C8009385C5D59306E004138649D41305C5CB56
:1045D800EFD00FCD37650080130545D7EFD04FCC0E
:1045E8009305E004138549D4EFD04FCF1385C43326
:1045F800EFF01FF78347D90013F747006314070646
:104608001385C433EFF0DFF2631E0502B764008040
:10461800B7650080376500809385C5D89306100676
:10462800138644D41305C5CBEFD08FC737650080F8
:10463800130545DAEFD0CFC693051006138544D489
:10464800EFD0CFC9732404308320C1010324810132
:1046580083244101032901018329C10013010102B7
:104668006780000093F7B7FFA306F9001305090058
:10467800EFF09FD86306050013050900EFE09F8C53
:1046880093050400032481018320C101032901014A
:104698008329C1001385C433832441011301010216
:1046A8006FE08FB5639405006FF05FED130101FFB4
:1046B80023248100130405001385050013059500C4
:1046C8009305A00023261100EFC08FA7130615003D
:1046D80013058401032481008320C100B7350080BD
:1046E8009385C50D130101016F008036130101FC8C
:1046F80023225103938A0600B766008083A6C65B0F
:10470800232C8102232A91022326310323244103E7
:10471800232E110223282103130405009389050081
:10472800130A060083244104638E06043769008057
:10473800B7650080376500809306201B1306C918EB
:104748009385C5F41305C5CB232E1101232C010134
:10475800232AF1002328E100EFD08FB437650080C9
:104768001305051AEFD0CFB39305201B1305C918FD
:10477800EFD0CFB68328C1010328810183274101E7
:1047880003270101832601042322010013060A00DE
:104798002320D1009385090093860A00130504009D
:1047A800EFF0DFC99307F0FF6388F40093850400F6
:1047B80013050400EFF01FEF130504008320C10365
:1047C8000324810383244103032901038329C102AC
:1047D800032A8102832A4102130101046780000031
:1047E800130101FEB7670080232821013769008083
:1047F800232C8100232A9100232E11001384C72E15
:104808009384C72E1309C92E6366240313840400F6
:10481800EFE08FAE9304F0FF636024070324810167
:104828008320C101832441010329010113010102ED
:104838006FE04FD98327C4022322F10083270402A3
:104848002320F100832744018328C401032884011D
:10485800032704018326C40003268400832544001B
:1048680003250400EFF09FBD8327040023AE8704CF
:10487800130404036FF05FF98325440263869500EF
:1048880003250400EFF01FE2130404036FF0DFF8C0
:10489800130101FE232C8100232A9100232E1100ED
:1048A8002328210193040500232601001304800016
:1048B800733404301305C10013748400EFF0DFC4AF
:1048C800631E050237690080B76500803765008080
:1048D8009385C5D59306E004130649D41305C5CBC3
:1048E800EFD00F9C37650080130545D7EFD04F9B5D
:1048F8009305E004130549D4EFD04F9E1305C1007A
:10490800EFF01FC683C7C40093F71700638E070232
:1049180037690080B7650080376500809385051E7C
:10492800930690021306891C1305C5CBEFD04F9749
:104938003765008013054521EFD08F9693059002C7
:104948001305891CEFD08F9913850400EFF0DFB2AF
:10495800930504001305C100EFE00F8A8320C1010D
:104968000324810183244101032901011301010268
:1049780067800000B767008083A707346394070047
:104988006FD0CFDD13050000678000008327050086
:1049980063020502376700800327C72A630CE50016
:1049A800638A070003A78700832685003307D7009B
:1049B80023A4E700032745002320F70023A2E700EC
:1049C800232005002322050067800000B7670080C8
:1049D80083C78734130101FF232611002324810094
:1049E800232291001305F0FF639607003705008026
:1049F8001345F5FFB76700809387872A03A407004C
:104A08006304F4026302040283248400EFF09FF637
:104A1800B384A4401305000063C804000324840081
:104A2800EFF05FF53305A440B767008083A7C75C44
:104A38006386070063D4A700138507008320C1009D
:104A480003248100832441001301010167800000D1
:104A580083270500130101FD2324810223229102EB
:104A6800232E31012326110223202103232C410167
:104A7800232A51012328610123267101232481015E
:104A8800130405009389050093040600638E07024A
:104A980037690080B76500803765008093854524B5
:104AA8009306D004130609231305C5CBEFC05FFF97
:104AB80037650080130545F6EFC09FFE9305D004C7
:104AC80013050923EFD08F81232634016344900016
:104AD8009304100093098000F3B90930376A008005
:104AE80013054A3493F98900EFF01FA2631E0502EB
:104AF80037690080B7650080376500809385C5D524
:104B08009306E004130649D41305C5CBEFC05FF93B
:104B180037650080130545D7EFC09FF89305E0047B
:104B2800130549D4EFC09FFB13054A34EFF05FA388
:104B3800EFF05FE433059500B764008003A9842A89
:104B48002324A4009384842A630C9900B76A008004
:104B5800376B0080B76B0080376C008063100902E8
:104B680083A74400232094002322F40083A7440051
:104B780023A0870023A284006F00C0058327890033
:104B880063D6070293054B269306600513860A230E
:104B98001385CBCBEFC0DFF013054CF6EFC05FF009
:104BA8009305600513850A23EFC05FF30327890087
:104BB8008327840063D8E70AB307F7402324F90062
:104BC80083274900232024012322F40023A08700FF
:104BD8002322890083A70400638A97006318F400DE
:104BE800EFF0DFDE93050000EFD0CF9C13054A34C9
:104BF800EFF01F94631E050237640080B7650080DC
:104C0800376500809385C5D893061006130644D4EB
:104C18001305C5CBEFC0DFE837650080130545DA1B
:104C2800EFC01FE893051006130544D4EFC01FEB2F
:104C3800F3A909308320C10203248102832441029D
:104C4800032901028329C101032A8101832A410121
:104C5800032B0101832BC100032C810013010103E5
:104C680067800000B387E7402324F40083A744004B
:104C7800E38827EF032909006FF05FEE130101FEB7
:104C8800232C810023263101232E1100232A910091
:104C9800232821019309050013048000733404308C
:104CA800B76400801385443413748400EFF0DF8503
:104CB800631E050237690080B7650080376500808C
:104CC8009385C5D59306E004130649D41305C5CBCF
:104CD800EFC01FDD37650080130545D7EFC05FDCE7
:104CE8009305E004130549D4EFC05FDF138544340E
:104CF800EFF01F8783A709001309A0FE6388070048
:104D080013850900EFF09FC8130900001385443488
:104D1800EFF01F82631E0502B7640080B76500804C
:104D2800376500809385C5D893061006138644D44A
:104D38001305C5CBEFC0DFD637650080130545DA0C
:104D4800EFC01FD693051006138544D4EFC01FD9B2
:104D5800732404308320C101032481011305090051
:104D680083244101032901018329C10013010102A0
:104D780067800000130101FF23248100232611000E
:104D8800232291002320210113048000733404306E
:104D9800B76400801385443413748400EFF0CFF6B1
:104DA800631E050237690080B7650080376500809B
:104DB8009385C5D59306E004130649D41305C5CBDE
:104DC800EFC01FCE37650080130545D7EFC05FCD14
:104DD8009305E004130549D4EFC05FD0138544342C
:104DE800EFF00FF8EFF09FBE130905001385443468
:104DF800EFF00FF4631E0502B7640080B76500800A
:104E0800376500809385C5D893061006138644D469
:104E18001305C5CBEFC0DFC837650080130545DA39
:104E2800EFC01FC893051006138544D4EFC01FCBED
:104E3800732404308320C100032481001305090072
:104E48008324410003290100130101016780000048
:104E5800130101FE232C8100232821012324410171
:104E6800232E1100232A910023263101130905005E
:104E7800138A05001304800073340430B76400807B
:104E88001385443413748400EFF00FE8631E0502A1
:104E9800B7690080B7650080376500809385C5D500
:104EA8009306E004138649D41305C5CBEFC05FBF52
:104EB80037650080130545D7EFC09FBE9305E00412
:104EC800138549D4EFC09FC113854434EFF04FE9EF
:104ED800EFF0DFAF635CA9009307100063D8A70069
:104EE80093050A0013050900EFC0DFEC138544346D
:104EF800EFF00FE4631E0502B7640080B765008019
:104F0800376500809385C5D893061006138644D468
:104F18001305C5CBEFC0DFB837650080130545DA48
:104F2800EFC01FB893051006138544D4EFC01FBB0C
:104F3800732404308320C1010324810183244101A7
:104F4800032901018329C100032A810013010102F9
:104F580067800000130101FD23248102232C4101F5
:104F6800232611022322910223202103232E31011B
:104F7800232A510123286101232671012324810159
:104F8800232291012320A101130A050013048000A4
:104F9800EFE04FC473340430376900801305493497
:104FA80013748400EFF04FD6631E0502B7640080C7
:104FB800B7650080376500809385C5D59306E00402
:104FC800138644D41305C5CBEFC09FAD3765008069
:104FD800130545D7EFC0DFAC9305E004138544D42F
:104FE800EFC0DFAFB769008013054934EFF04FD742
:104FF800B764008023A04935376A00809389093453
:10500800130A8A2A93848430B76A0080B76B0080B9
:10501800376B0080376C0080B76C0080032D0A0066
:1050280083A7090083A6040003A54400630C4D016F
:10503800630A0D0003278D0063DCE70A3307F74096
:105048002324ED00B386D70013D7F7413307A70011
:10505800B3B7F600B387E70023A0D40023A2F40077
:1050680023A00900EFF09F9693050000EFC09FD49E
:1050780013054934EFF0CFCB631E0502B7640080F7
:10508800B7650080376500809385C5D893061006FC
:10509800138644D41305C5CBEFC09FA037650080A5
:1050A800130545DAEFC0DF9F93051006138544D436
:1050B800EFC0DFA2732404308320C10203248102DD
:1050C80083244102032901028329C101032A8101A2
:1050D800832A4101032B0101832BC100032C81008A
:1050E800832C4100032D0100130101036780000098
:1050F800B306D7009355F741B385A50033B6E6004C
:105108003306B600B387E74013050D0023240D00CE
:1051180023A0D40023A2C40023A0F900EFF01F8726
:1051280013054934EFF0CFC0631605029385CBD839
:105138009306100613864AD41305CBCBEFC05F96AF
:1051480013054CDAEFC0DF959305100613854AD492
:10515800EFC0DF98732404308327CD0013050D00BA
:1051680013048000E78007007334043013054934C2
:1051780013748400EFF04FB9631805029385CCD5FA
:105188009306E00413864AD41305CBCBEFC05F9196
:1051980037650080130545D7EFC09F909305E0045D
:1051A80013854AD4EFC09F9313054934EFF04FBBE2
:1051B8006FF0DFE6130101FE232A9100232E110070
:1051C800232C810023282101232631019304800008
:1051D800F3B40430376900801305493493F484002C
:1051E800EFF08FB2631E050237640080B765008058
:1051F800376500809385C5D59306E004130644D42B
:105208001305C5CBEFC0DF8937650080130545D787
:10521800EFC01F899305E004130544D4EFC01F8C29
:1052280013054934EFF0CFB3EFC05FD3B767008001
:105238009387873083A9070003A44700B309350182
:1052480033B5A9003304850013054934EFF04FAE98
:10525800631E050237690080B765008037650080E6
:105268009385C5D893061006130649D41305C5CBF4
:10527800EFC01F8337650080130545DAEFC05F82F2
:1052880093051006130549D4EFC05F85F3A40430D5
:10529800930504008320C1010324810113850900BB
:1052A80083244101032901018329C100130101025B
:1052B80067800000130101FF23261100EFF09FEF24
:1052C8008320C1001301010167800000130101FF61
:1052D80023261100EFF01FFE1306803E9306000000
:1052E80093050000EFB0CFDC1306400693060000DC
:1052F800EFA09FFC8320C10013010101678000001B
:10530800130101FF232481002322910037640080C8
:10531800B7640080232611001304C42E9384C42E7E
:10532800636E94008320C10003248100832441001C
:105338001305000013010101678000009307440171
:1053480013050400232AF400232CF400EFB01FFAFD
:0C5358001304C4016FF0DFFC678000004C
:1053640000000000941000800000000094100080F1
:1053740000000000941000800000000094100080E1
:1053840000000000941000800000000094100080D1
:10539400000000009410008000000000241C008025
:1053A40000000000941000800000000094100080B1
:1053B40000000000941000800000000094100080A1
:1053C4000000000094100080000000009410008091
:1053D4000000000094100080000000009410008081
:1053E4000000000094100080000000009410008071
:1053F4000000000094100080000000009410008061
:105404000000000094100080000000009410008050
:105414000000000094100080000000009410008040
:105424000000000094100080000000009410008030
:105434000000000094100080000000009410008020
:105444000000000094100080000000009410008010
:105454000000000094100080000000009410008000
:1054640000000000941000800000000094100080F0
:1054740000000000941000800000000094100080E0
:1054840000000000941000800000000094100080D0
:1054940000000000941000800000000094100080C0
:1054A40000000000941000800000000094100080B0
:1054B40030590080DC1B008000000000385D008053
:1054C400701D008000000000305D008038240080E2
:1054D40000000000305900800853008000000000E4
:1054E4000001020203030303040404040404040487
:1054F4000505050505050505050505050505050558
:105504000606060606060606060606060606060637
:105514000606060606060606060606060606060627
:105524000707070707070707070707070707070707
:1055340007070707070707070707070707070707F7
:1055440007070707070707070707070707070707E7
:1055540007070707070707070707070707070707D7
:1055640008080808080808080808080808080808B7
:1055740008080808080808080808080808080808A7
:105584000808080808080808080808080808080897
:105594000808080808080808080808080808080887
:1055A4000808080808080808080808080808080877
:1055B4000808080808080808080808080808080867
:1055C4000808080808080808080808080808080857
:1055D4000808080808080808080808080808080847
:1055E400746573745F746872656164007465737460
:1055F4005F736C6565700000746573745F736C65CC
:1056040065700000736C6565700000004B65726E18
:10561400656C206F626A6563747320696E6974696E
:10562400616C697A65640A005465737420746872E5
:1056340065616420737461727465643A20696420DE
:105644003D2025700A00000048656C706572207466
:10565400687265616420737461727465643A206968
:1056640064203D2025700A007465737420666169A6
:105674006C7572650000000028746573745F666160
:10568400696C7572652069732074727565290000F0
:1056940054657374696E67206B65726E656C206BFC
:1056A4005F736C65657028290A0000006B5F736C7A
:1056B400656570282920736C65707420666F72208C
:1056C4002564207469636B732C206E6F74202564C9
:1056D4000A00000028736C6565705F74696D655F0E
:1056E40076616C69642873746172745F7469636B46
:1056F4002C20656E645F7469636B2C204F4E455F8C
:105704005345434F4E445F414C49474E454429203D
:1057140069732066616C73652900000054657374B5
:10572400696E67206E6F726D616C20657870697246
:105734006174696F6E206F66206B5F736C65657052
:1057440028290A0054657374696E673A2074657376
:10575400742074687265616420736C656570202BB5
:105764002068656C70657220746872656164207766
:10577400616B65757020746573740A004641494C09
:10578400000000002573202D2025734025642E2061
:1057940000000000202A2A2A206B5F736C65657064
:1057A400282920736C65707420666F72202564202C
:1057B4007469636B73206E6F742025642E0000007F
:1057C400202A2A2A206B5F77616B6575702829204F
:1057D400746F6F6B20746F6F206C6F6E6720282559
:1057E40064207469636B73290A0000005465737440
:1057F400696E673A207465737420746872656164B5
:1058040020736C656570202B20697372206F666647
:105814006C6F61642077616B657570207465737457
:105824000A00000054657374696E673A20746573E6
:10583400742074687265616420736C656570202BD4
:10584400206D61696E2077616B6575702074657376
:1058540074207468726561640A000000202A2A2A90
:10586400206B5F77616B657570282920746F6F6B8F
:1058740020746F6F206C6F6E672028256420746914
:10588400636B7329206174204C4153540A00000057
:105894002E2F74657374732F6B65726E656C2F7322
:1058A4006C6565702F7372632F6D61696E2E630072
:1058B4000A20202020417373657274696F6E20661C
:1058C40061696C65642061742025733A25643A200B
:1058D40025733A2025730A006C0F00802410008081
:1058E40024100080600F00806C0F00800C1000807A
:1058F4001810008084590080A4590080C059008089
:10590400D4590080E0590080F8590080756E6B6EA0
:105914006F776E00457863657074696F6E2063619C
:1059240075736520257320282564290A000000006A
:10593400ADBAADDEADBAADDEADBAADDEADBAADDE9B
:10594400ADBAADDEADBAADDEADBAADDEADBAADDE8B
:10595400ADBAADDEADBAADDEADBAADDEADBAADDE7B
:10596400ADBAADDEADBAADDEADBAADDEADBAADDE6B
:10597400ADBAADDEADBAADDEADBAADDEADBAADDE5B
:10598400496E737472756374696F6E2061646472B6
:10599400657373206D6973616C69676E656400007B
:1059A400496E737472756374696F6E2041636365C5
:1059B4007373206661756C7400000000496C6C653B
:1059C40067616C20696E737472756374696F6E00BD
:1059D400427265616B706F696E7400004C6F616434
:1059E4002061646472657373206D6973616C6967A7
:1059F4006E6564004C6F616420616363657373203A
:105A04006661756C740000002A2A2A2A204B65728C
:105A14006E656C20416C6C6F636174696F6E2046B7
:105A240061696C75726521202A2A2A2A0A000000FD
:105A34002A2A2A2A2A204B65726E656C204F4F5001
:105A44005321202A2A2A2A2A0A0000002A2A2A2A3A
:105A54002A204B65726E656C2050616E696321204B
:105A64002A2A2A2A2A0A00002A2A2A2A20556E6B60
:105A74006E6F776E20466174616C204572726F722E
:105A840020256421202A2A2A2A0A000043757272DA
:105A9400656E7420746872656164204944203D20F9
:105AA40025700A4661756C74696E6720696E73743B
:105AB40072756374696F6E206164647265737320B8
:105AC4003D20307825780A202072613A20307825EC
