:0200000480007A
:100000009702000093820201739052306F0050619A
:10001000130101FB2320110023223100232441007E
:100020002326510023286100232A7100232CC101BB
:10003000232ED1012320E1032322F1032324A10253
:100040002326B1022328C102232AD102232CE10254
:10005000232EF1022320010523221105F32210345F
:1000600023245104F322003023265104EF00002002
:100070001303000063160504F3222034B703008045
:100080009383F3FFB3F272001303B000638A62003C
:100090001305010097000000938040146F00504941
:1000A000832281049382420023245104976200003A
:1000B000938202EA03A30200631403006F000009A5
:1000C00093020100976300009383031303A143008D
:1000D000130101FF2320510003AE0300130E1E0085
:1000E00023A0C30163080300970000009380C003AE
:1000F0006F00D04C73252034B70200809382F2FF4A
:1001000033755500EF00801597520000938242E945
:1001100013153500B382A20003A5020003A3420019
:10012000E7000300176300001303030D832303009C
:100130009383F3FF232073008322010013810200C5
:1001400083238300032E030263087E089762000066
:100150009382820A03A38200232683022328930228
:10016000232A2303232C3303232E43032320530565
:10017000232263052324730523268305232893055F
:10018000232AA305232CB30523242302976300000D
:10019000938303D603AE03002326C30703A30202FF
:1001A00023A46200032183020324C30283240303E4
:1001B0000329430383298303032AC303832A0304F4
:1001C000032B4304832B8304032CC304832C0305D8
:1001D000032D4305832D83058322810473901234FC
:1001E0008322C104739002308320010083214100E7
:1001F000032281008322C1000323010183234101E3
:10020000032E8101832EC101032F0102832F41029E
:10021000032581028325C1020326010383264103AE
:10022000032781038327C103032801048328410492
:100230001301010573002030730000009762000075
:10024000938282FB03A382008323C3061375850078
:10025000F3220530138503006780000013031000AC
:10026000B312A30073B3423467800000F32220343A
:1002700037030080B3F262001305000063840200BC
:08028000130515006780000062
:100288006300060293070002B387C740634CF0007F
:10029800130506FE1307000033D5A50093050700D4
:1002A8006780000033D7C5003355C500B395F50006
:1002B8003365B5006FF09FFE9387050013080600AD
:1002C8001387060013030500639606289758000055
:1002D800938888E463F6C50E370701006378E60C57
:1002E8001307F00F3337C70013173700B356E6006C
:1002F800B388D80083C608003387E6009306000257
:10030800B386E640638C0600B397D7003357E50001
:100318003318D600B365F7003313D5001355080119
:1003280033F7A50213160801135606019356030165
:10033800B3D5A50213170701B366D700B307B602F2
:100348001387050063FEF600B38606011387F5FFE1
:1003580063E8060163F6F6001387E5FFB386060136
:10036800B386F640B3F7A602131303011353030130
:10037800B3D6A6029397070133E36700B305D60205
:1003880013850600637CB300330368001385F6FF0A
:10039800636603016374B3001385E6FF131707014F
:1003A8003367A700930500006F00400EB7060001F1
:1003B80013070001E36CD6F2130780016FF01FF3F7
:1003C800631606009306100033D8C602B70601006C
:1003D8006372D80C9306F00F63F4060113078000CC
:1003E800B356E800B388D80083C60800B386E60091
:1003F800130700023307D7406318070AB38707417A
:1004080093051000135608019318080193D80801A2
:100418009356030133F7C702B3D7C702131707016F
:10042800B366D7003385F8021387070063FEA6007A
:10043800B38606011387F7FF63E8060163F6A60093
:100448001387E7FFB3860601B386A640B3F7C60253
:100458001313030113530301B3D6C602939707017D
:1004680033E36700B388D80213850600637C130161
:10047800330368001385F6FF636603016374130191
:100488001385E6FF131707013367A7001305070055
:1004980067800000B706000113070001E362D8F483
:1004A800130780016FF0DFF33318E800B3D5D700E6
:1004B8003313E500B356D50013550801B397E70089
:1004C80033F7A502B3E8F6009317080193D707019D
:1004D80013D60801B3D5A502131707013367C70060
:1004E800B386B70213860500637ED700330707017A
:1004F8001386F5FF636807016376D7001386E5FF67
:1005080033070701B306D74033F7A60293980801CB
:1005180093D80801B3D6A60213170701B385D702EB
:10052800B36717011387060063FEB700B387070197
:100538001387F6FF63E8070163F6B7001387E6FF42
:10054800B3870701B387B74093150601B3E5E50004
:100558006FF05FEB63E6D5183707010063F4E60434
:100568001308F00F3337D8001317370033D8E600D5
:1005780097550000938545BAB385050103C8050062
:10058800930500023308E800B38505416396050228
:1005980013071000E3ECF6EE3335C50013471500DA
:1005A8006FF0DFEEB705000113070001E3E0B6FCCA
:1005B800130780016FF09FFB33570601B396B6000F
:1005C800B366D70093DE060133D70701B378D703A4
:1005D800B397B700335805013363F80093970601C2
:1005E80093D70701135803013316B6003357D703BF
:1005F8009398080133E80801338FE702130E0700C8
:10060800637EE8013308D800130EF7FF6368D8004B
:100618006376E801130EE7FF3308D8003308E84192
:10062800B378D8033358D80393980801B38E0703D7
:100638009317030193D70701B3E7F80013070800DE
:1006480063FED701B387D7001307F8FF63E8D70025
:1006580063F6D7011307E8FFB387D700131E0E010F
:10066800B387D741B70E01003367EE001388FEFF4A
:1006780033730701935807013378060113560601AF
:10068800330E03033388080393560E013303C30262
:1006980033030301B3866600B388C80263F4060116
:1006A800B388D80113D60601B308160163E6170309
:1006B800E39A17CFB70701009387F7FFB3F6F60061
:1006C80093960601337EFE003315B500B386C60146
:1006D80093050000E37CD5DA1307F7FF6FF09FCC92
:1006E80093050000130700006FF05FDA67800000D1
:1006F8006F30C056130101FF232481002326110007
:10070800EF40900013040500EF401000E30EA4FE34
:100718008320C100032481001301010167800000C8
:10072800130101FD232E1100232C81002324010332
:100738002326110363180504138606001387050092
:10074800B7560080B75500803755008093868622BB
:10075800138407009385C54C930781021305C54E82
:100768002326F100EF00907C8325C10013050400C7
:10077800EF00D078375500801305452EEF00107B29
:10078800EF1040678320C101032481011301010395
:1007980067800000130101FF23229100B7640080E5
:1007A800232481009305F0FF138544FF37640080FC
:1007B80023261100130484F4EF30406D0325040050
:1007C800EF30C0499305F0FF138544FFEF30006C0C
:1007D80083250400032481008320C1008324410071
:1007E800370500801305856F130101016F00005F55
:1007F800130101FE232E1100232C8100232A9100CE
:1008080023282101EF30004D93050000EF20D0741C
:1008180037690080130549081306F0FF93050000A7
:10082800EF30004C376500801306F0FF9305000099
:10083800130545FFEF30C04AB76400801306F0FF88
:100848009305000013854400EF3080493755008038
:1008580013058524EF00906DB7160080B7650080FA
:10086800376500809308C0FF130800009307000055
:10087800130700009386469B1306001823220100E5
:100888002320010093850522130545013764008064
:10089800EF309029130484F4930505002320A40065
:1008A8003755008013054526EF005068B7060080CD
:1008B800B765008037650080930860FF1308000063
:1008C80093070000130700009386C67913060018E3
:1008D80023220100232001009385053A130545F8DA
:1008E800EF309024930505003755008013054528FF
:1008F800EF00D06313054908EF30004B9305F0FF74
:1009080013854400EF3080580325040037590080D0
:10091800B7540080EF308034B767008003C587EE96
:10092800B7550080B7570080130789221386C44C37
:100938009387472A9306E00D9385452B13451500A9
:10094800EFF01FDE375500801305C52CEF00105E51
:10095800EFF05FDAEF40405B130405001305803EBB
:10096800EF30000CEF40405A3308854003248101E2
:100978008320C101130789221386C44C032901016E
:10098800832441011305E8C0B7570080B75500809C
:100998009308203F9387872E9306700E9385053121
:1009A80013352500130101026FF09FD737650080CA
:1009B800130101FF9305F0FF1305450823261100D5
:1009C800232481002322910023202101EF30004CB1
:1009D8003755008013058535EF005055EFF09FD14E
:1009E800EF408052130405001305803EEF304003AA
:1009F800EF408051330485409307E4C0930410000E
:100A080063E0F4083755008013050538EF001052ED
:100A180037690080130549FFEF300039EFF09FCDAB
:100A2800EF40804E130405001305803EEF20507FF1
:100A3800EF40804D3304854063F884089306D0075F
:100A480037560080B7550080375500809385853B21
:100A58001305053C1306C621EF00504D375500809D
:100A6800930504001305C53F032481008320C100BA
:100A78008324410003290100130101016F00104B79
:100A880037560080B7550080375500801306C621B9
:100A98009385853B1305053C9306E006EF00104956
:100AA80093050400032481008320C10083244100AE
:100AB80003290100375500801306203F1305053D23
:100AC800130101016F0090463755008013058542D8
:100AD800EF00D045130549FFEF30002DEFF09FC11F
:100AE800EF408042130405001305803EEF20507349
:100AF800EF4080413304854063F684009306B008D4
:100B08006FF01FF43755008013050546EF001042BB
:100B18003765008013054500EF300029EFF09FBDD1
:100B2800EF40803E130405001305803EEF20506F10
:100B3800EF40803D3304854063FA840237560080D5
:100B4800B7550080375500809385853B1305053CD4
:100B5800930690091306C621EF00503D37550080D3
:100B680093050400130585496FF01FF08320C10029
:100B780003248100B7670080238407EE83244100A3
:100B8800032901001301010167800000B765008097
:100B9800375500809385C5EA130505246F10802812
:100BA800130101FF2326110023248100930760000D
:100BB8006304F502EF30004C63040502EF30804B0C
:100BC80063160504B75500809385457C375500802A
:100BD8001305857DEF009035EF00503C6FF0DFFF87
:100BE800EF30404AE31C05FC376400801304441FBF
:100BF80083258400375500801305857FEF00103367
:100C080003258400EF30900C6FF01FFDB75500806E
:100C18009385057C6FF09FFB130101FB232481045E
:100C280023229104232611049307600093040500EE
:100C38001384050063E0A70E37570080931725003B
:100C480013074751B387E70083A7070067800700AA
:100C58003755008013054564EF00502DEF308007AD
:100C680083274404832804010328C4002328F102AD
:100C78008327040403274400832604002326F10263
:100C88008327C40303268404930505002324F10263
:100C980083278403375500801305856C2322F102CE
:100CA800832744032320F10283270403232EF10022
:100CB8008327C402232CF10083278402232AF1000E
:100CC800832744022328F100832704022326F10006
:100CD8008327C4012324F100832784012322F10000
:100CE800832744012320F10083278400EF00102488
:100CF8009305040013850400EFF09FEA3755008040
:100D08001305C5666FF05FF53755008013058568D4
:100D18006FF09FF437550080938504001305456AEA
:100D2800EF00D0206FF09FF3130101FF232481000F
:100D38002326110013040500732620341316160009
:100D4800135616009307500063E8C7023757008010
:100D58009317260013070753B307F70083A5070067
:100D68003755008013050555EF00501C9305040006
:100D780013050000EFF05FEAB755008093858554AE
:100D88006FF01FFE130101FF23261100F325203405
:100D9800376500809395150093D5150013050582D6
:100DA800EF00D018B75500809385C556130540004D
:100DB800EFF09FE6B76700809387C7F403A70700A3
:100DC800630C070003A3070023A00700B767008090
:100DD80003A507F5670003006780000093078000FC
:100DE800F3B70730376700802326A7F437670080FA
:100DF8002328B7F47300000093F78700F3A70730A0
:100E080067800000130101FF23261100EF10C03C8A
:100E1800EF00D01AEF10004317610000130101F032
:100E2800B71200009382028033015100EFF09FFD5A
:100E38006F00802A130101FD2324810223229102DD
:100E480023202103232E3101232C4101232A510180
:100E58002328610123267101138B07002326110221
:100E6800232481019307F0009304050013840500EF
:100E780093090600138A0600930B0700930A0800DB
:100E880013890800639AF808B72700809387871AA0
:100E9800639AF60883260103930509001385040065
:100EA80013064000EF30402A938509FBB305B400D0
:100EB800B727000023AE040423A0040693F505FF1A
:100EC8009387078823A6F504B71700808320C102FB
:100ED80003248102938787E323A4450323A675038C
:100EE80023A8650323AA550323A4F50423A4B40265
:100EF80003290102832441028329C101032A8101B4
:100F0800832A4101032B0101832BC100032C81009B
:100F18001301010367800000938608019307E0012D
:100F2800E3FAD7F6376C0080B76500803765008034
:100F380013068C8493068001938585861305458F57
:100F4800EF00C07E3765008093050900930600FF17
:100F58001306E00013054591EF00407D93058001DD
:100F680013058C84EF0050006FF0DFF29307C00088
:100F78003387F5028327C500B387E7000307B50069
:100F88006354B70083A70700130700023347E6023C
:100F98001375F60113172700B387E70023A0F6009F
:100FA80067800000130101FE9306C100232E110083
:100FB800EFF0DFFB0327C100930710003395A7006C
:100FC800832707008320C101B3E7A7002320F70088
:100FD800130101026780000083274500035885003C
:100FE800130101FF232481003308F80213040500CC
:100FF800032505008348A4001307F0FF23261100EA
:1010080023229100A305E400930500001303C00008
:1010180033050501130EF001930E000263C2150398
:10102800930400008357840063C4F4068320C1003E
:10103800032481008324410013010101678000001B
:101048003357F8020326C400B3866502B306D600F8
:101058001386460023A2C60023A4C600634EEE00F2
:10106800A305B40093D727009387370093F7C7FFEA
:10107800938515006FF09FFA1307F7013347D703DD
:1010880023A0A600131727003305E5006FF09FFD86
:101098008327440013860400930500003387F40275
:1010A800832704001305040093841400B387E70022
:1010B8000327C4009306470023A0D7008326870090
:1010C80023A2D7008326870023A0F6002324F70055
:1010D800EFF05FED6FF01FF5130101FF93070500B7
:1010E80013850500930506001386060023261100C4
:1010F800E7800700EF20103EEF30403D1305000069
:1011080067800000130101FF2324810013040500F8
:10111800130550042326110023229100938405000F
:10112800E70004009385040013052005E700040088
:1011380013030400032481008320C1009385040065
:1011480083244100130520051301010167000300F2
:1011580083A705009387170023A0F500B7670080D1
:1011680003A347ED67000300130101FB2324810457
:10117800232E3103232C4103232A510323286103FF
:1011880023261104232291042320210523267103F9
:1011980023248103232291032320A103232EB101B9
:1011A800130A0500938A050093090600138B0600AD
:1011B800130410006354E0001304070093071000A1
:1011C800130C00026314FB00130C0003B7D49A3B02
:1011D80013091000930CA000130700009384F49FD8
:1011E800930D2000130DA000938B140063140700C7
:1011F80063F2340933D5790393850A00130919007A
:1012080013050503E7000A0013071000938CFCFF81
:1012180093071000B3F97903B3D4A403E396FCFC55
:1012280093850A0013850903E7000A009307300035
:1012380033042441630AFB068320C1040324810488
:1012480083244104032901048329C103032A810358
:10125800832A4103032B0103832BC102032C810240
:10126800832C4102032D0102832DC10113010105C5
:1012780067800000E34C94F9E3EA6DF993850A006E
:1012880013050C002326E100E7000A0013091900E2
:101298000327C1006FF09FF793850A00130500022A
:1012A800E7000A001304F4FFE34880FE6FF0DFF85C
:1012B800B767008023AAA7EC67800000130101FB31
:1012C800232481042322910423202105232E310382
:1012D800232C4103232A5103232291032320A10312
:1012E800232EB10123261104232861032326710329
:1012F800232481031304050093840500930A060040
:10130800138D0600130A00001309F0FF930900006B
:10131800930C0000B70D008003C50A006310050494
:101328008320C10403248104832441040329010484
:101338008329C103032A8103832A4103032B010361
:10134800832BC102032C8102832C4102032D01024D
:10135800832DC1011301010567800000639E0C0005
:1013680093065002630AD53693850400E70004000B
:10137800938A1A006FF05FFA93064006630ED51041
:1013880063E2A6069306900363EAA6029306100397
:101398006374D50E9306D002630AD534930700030D
:1013A8006300F50C130750026312E50293850400ED
:1013B80013055002E70004006F00C015930680056E
:1013C800630ED51A13073006630EE52E93850400C5
:1013D80013055002E70004009385040003C50A00C2
:1013E8006FF05FFD93060007630AD51663E0A60257
:1013F800930690066302D50A9306C006630AD508C9
:1014080093068006E306D5F66FF05FFC9306500757
:101418006306D51063EEA60213073007E318E5FA52
:10142800032C0D00130B4D00930B0C0003C50B0090
:1014380063180526930730006398F900B38B8B4136
:10144800B30B794163467027130D0B006F00800CB6
:10145800930680076304D5129306A0076FF09FFADE
:10146800635E090063880928130905FDE39209F002
:10147800930920006FF0DFEFE34809FE9306A00010
:101488003309D902130909FD330925016FF01FFE3D
:10149800130A1A006FF0DFED63120A0403260D0029
:1014A800130D4D0063500602938504001305D00206
:1014B8002320C100E7000400032601001309F9FFF7
:1014C8003306C0401307090093860900938504007A
:1014D80013050400EFF05FC96F00C0031307100085
:1014E800E30EEAFA93077D0013F787FF0326070048
:1014F80083264700130D87003307B6013337C7002B
:101508003307D700E30007FA9385040013050400A6
:10151800EFF05FBF930C00006FF09FE563180A00BF
:1015280003260D00130D4D006FF0DFF913071000AF
:10153800E308EAFE93077D0013F787FF130D870082
:101548000326070003274700E31007FCB7070080BE
:1015580093C7F7FFE3F8C7F66FF01FFB9385040006
:1015680013050003E70004009385040013058007B2
:10157800E700040013098000930910009306100087
:1015880063C2460B83270D0023240100130D4D0071
:101598002322F100130C0001930B0000232001000B
:1015A800930800010325410083258100138BF8FF70
:1015B80013162B0023261101EFE09FCC1375F500BD
:1015C8006318050883270100930600036398070042
:1015D8008328C100930710006396F8083385A60096
:1015E800131585019385040013558541E700040010
:1015F800938B1B0063180B0493063000930C0000B8
:10160800E398D9D613171900B30B7741E35470F157
:101618009385040013050002E7000400938BFBFF89
:101628006FF0DFFE93077D0093F687FF83A7060020
:10163800138D86002322F10083A746002324F1009E
:101648006FF05FF52320910193080B006FF09FF571
:101658009307900093067005E3E2A7F8930600034A
:101668006FF0DFF79307FCFF2326F100634C890135
:1016780093071000639CF900938504001305000389
:10168800E7000400032CC1006FF01FFC9307200043
:10169800E39AF9FE93850400130500026FF05FFEDC
:1016A80093850400938B1B00E70004006FF01FD89C
:1016B8009385040013050002E7000400938BFBFFE9
:1016C8006FF05FD803250D0093850400130B4D00C0
:1016D800E70004006FF05FD7130A00001309F0FF5A
:1016E80093090000930C10006FF09FC89309300015
:1016F8006FF01FC8930910006FF09FC7130101FE18
:101708001306050037150080938605001305851517
:101718009305C100232E110023260100EFF01FBA04
:101728008320C1011301010267800000130101FC3D
:101738002322B10293054102232E11002324C10262
:101748002326D1022328E102232AF102232C0103B4
:10175800232E11032326B100EFF05FFA8320C10185
:101768001301010467800000B765008037650080B9
:10177800130101FF938585941305C5951306E001B0
:1017880023261100EFF09FFAB75500809385C556C0
:1017980013056000EFF04FC86780000093078000D2
:1017A800F3A70730730050106780000093071000FC
:1017B8003395A700732545306780000093078000A4
:1017C800F3B70730735040307350403467800000DF
:1017D800130101FF23248100232291003764008034
:1017E800232611009307A00093040500130444F571
:1017F800631CF500032504009305D00083274500EA
:1018080083A74700E78007000325040093F5F40F3A
:101818008327450083A74700E78007008320C1008E
:10182800032481001385040083244100130101016E
:1018380067800000130101FF232481003714008012
:101848001305847D23261100EF0040511305847D84
:10185800032481008320C100130101016FF05FA5FB
:1018680037650080130101FF1305859623261100B3
:10187800EF005009B767008023AAA7F4EFF09FFB99
:101888008320C100130500001301010167800000D7
:10189800B70710F003A747F403A507F483A547F497
:1018A800E39AE5FE67800000130101FE232C810006
:1018B800232E1100232A91002328210123263101F8
:1018C800232441012322510113048000733404307E
:1018D80037690080130589F513748400EF20900898
:1018E800631E0502B7640080B76500803765008015
:1018F800938545999306E0041386C4971305458F8D
:10190800EFF0DFE2376500801305C59AEFF01FE2BC
:101918009305E0041385C497EFF01FE5130589F5D7
:10192800B7640080EF209009938484F3EFF05FF6AA
:1019380083A9040083AA4400130705003305354131
:101948003337A700B385554137D601001306064C37
:1019580093060000B385E540EFE01F96B7D7010076
:101968009387074CB387A702130A0500130589F567
:10197800B3893701B3B7F900B387570123A03401FE
:1019880023A2F400EF209000631E0502B7640080D4
:10199800B7650080376500809385459C93061006DF
:1019A8001386C4971305458FEFF05FD8376500801D
:1019B8001305C59DEFF09FD7930510061385C497AF
:1019C800EFF09FDA73240430032481018320C101DE
:1019D80083244101032901018329C100832A41008D
:1019E80013050A00032A8100130101026F30401A0F
:1019F800130101FF23261100EFF09FE9B7D701007B
:101A08009387074C370710F0B307F5009306F0FFEC
:101A18002326D7F433B5A7003305B5002324F7F4FC
:101A28002326A7F413057000EFF05FD88320C100C8
:101A3800130500001301010167800000639C05166F
:101A4800130101FE232E1100232C8100232A91006B
:101A580023282101232631019307F0FF6316F5009F
:101A6800379500001305E5BCB79700001304F5FF90
:101A78009387E7BC63DA8712138407009304800016
:101A8800F3B4043037690080130589F593F48400B2
:101A9800EF20406D631E0502B7690080B7650080BE
:101AA80037650080938545999306E0041386C997A6
:101AB8001305458FEFF09FC7376500801305C59A5A
:101AC800EFF0DFC69305E0041385C997EFF0DFC98F
:101AD800130589F5EF20806EEFF09FDBB7D6010084
:101AE800B76700801386064C938787F303A7070020
:101AF80083A54700B307C4029386F64B3384E640B8
:101B08009306703EB3878700B307F500B3D7C702C3
:101B18003305A740B387C7023305F50063C4A600A1
:101B2800B387C700B70610F03387E7001306F0FF46
:101B380023A6C6F4B337F700B387B70023A4E6F4A7
:101B480023A6F6F4130589F5EF204064631E050209
:101B580037640080B7650080376500809385459CB1
:101B6800930610061306C4971305458FEFF01FBCA4
:101B7800376500801305C59DEFF05FBB9305100620
:101B88001305C497EFF05FBEF3A404308320C101AE
:101B98000324810183244101032901018329C10010
:101BA8001301010267800000E35A04EC13040000EB
:101BB8006FF0DFEC67800000130101FF2324810030
:101BC80023261100232291002320210113048000E1
:101BD8007334043037690080130589F51374840061
:101BE800EF204058631E0502B7640080B765008087
:101BF80037650080938545999306E0041386C4975A
:101C08001305458FEFF09FB2376500801305C59A1D
:101C1800EFF0DFB19305E0041385C497EFF0DFB46C
:101C2800130589F5EF208059EFF09FC6B76700804C
:101C380083A487F3B304954037D501001305054CF9
:101C4800B3D4A402130589F5EF204054631E05029E
:101C580037690080B7650080376500809385459CAB
:101C6800930610061306C9971305458FEFF01FACAE
:101C7800376500801305C59DEFF05FAB930510062F
:101C88001305C997EFF05FAE732404308320C100B9
:101C980003248100138504000329010083244100E3
:101CA80013010101678000008347050003C7050091
:101CB8006394E700639607003385E7406780000078
:101CC80013051500938515006FF01FFE93F6F50FA9
:101CD8009307050013F737006318070493F5F50F0A
:101CE80013978500B365B70013970501B365B7006F
:101CF8003383C7001387070013083000B308E34095
:101D0800636E18031357260093152700B387B7008F
:101D18009305C0FF3307B7023307C7003387E700CF
:101D28006394E70267800000E30E06FE93871700BE
:101D3800A38FD7FE1306F6FF6FF0DFF913074700EE
:101D4800232EB7FE6FF09FFB93871700A38FD7FE54
:101D58006FF01FFD1305F0FF67800000B767008074
:101D680023ACA7EC67800000130101FE232C81003F
:101D78008327850037640080232A91001304C4ED6B
:101D8800B7640080232E1100232821012326310166
:101D98009384C4F593091000232004001309050057
:101DA80023A03401E780070083274900232034015A
:101DB800E7800700930720002320F4008327C90049
:101DC800E7800700930730002320F40003248101F3
:101DD80023A004008320C1018324410103290101B8
:101DE8008329C100376500801305450913010102E5
:101DF8006F10907B37650080130101FFB767008083
:101E08001307F0FF130545092326110023AEE7F455
:101E1800EF109079EF10106C8320C10013010101BD
:101E28006F20C06A130101FA232A9104B764008065
:101E380083A704F6232E1104232C810423282105CB
:101E4800232631052324410523225105232061053A
:101E5800232E7103232C8103232A91032328A10312
:101E68002326B10363C407083764008013061000F3
:101E780093090500138C0500130544099305000018
:101E8800EF1010663765008093850900130505A3D8
:101E9800EFF0DF8937690080130589A4B76A0080ED
:101EA800EFF0DF88938404F6130A0000232E8100E4
:101EB800B76C0080376B0080372D0080B76D0080CD
:101EC800B76B0080938A0A9F83274C00639E0704A0
:101ED8009385090063060A1037650080130585ABF2
:101EE800EFF0DF849307100023A0F4008320C105DE
:101EF8000324810583244105032901058329C1049D
:101F0800032A8104832A4104032B0104832BC10380
:101F1800032C8103832C4103032D0103832DC1026C
:101F2800130101066780000083250C00B767008055
:101F3800138507A9EFF08FFF2322010083270C01E7
:101F480013070C001306004093E787009308F0FF7F
:101F58001308000093060DD72320F10093850C5237
:101F68009307000013054B0AEF20003C8327C101AB
:101F78009305F0FF13854709EF1050719387CDF54E
:101F880013054B0A03A40700EF204054B7670080ED
:101F98009387C7F503A70700130414009307E0FF0E
:101FA8001334140003260C006314F702B76500808D
:101FB800938545AA1385CBAAEFF04FF7130589A49B
:101FC800EFF0CFF6330A8A00130C4C016FF0DFEF05
:101FD80093172400B387FA0083A507006FF09FFDCD
:101FE80037650080130505ADEFF04FF483A70400B3
:101FF800B337F0006FF05FEFB767008083A707F68D
:10200800130101FF23248100376500802326110076
:1020180037640080130585A463820702EFF00FF18F
:10202800B76500809385C59F130544A003248100EC
:102038008320C100130101016FF04FEFEFF00FEFA4
:10204800B76500809385C5A16FF01FFE130101FFDE
:1020580023261100EFE09FB38320C1001301010183
:102068006FF09FF9130101FF232601008327C100A8
:10207800938717002326F100B70701F023A0B700C4
:1020880013010101678000001305F0FF678000005D
:10209800130500006780000013172500B76700804C
:1020A80013051500938707B013152500130101FFC9
:1020B8003387E700B387A7002324810023229100F8
:1020C8000324070083A4070023261100636C9400EF
:1020D8008320C100032481008324410013010101EE
:1020E80067800000832704001305040083A74700C6
:1020F800E780070063040500232204001304C400DA
:102108006FF0DFFC130101FFB76700802322910005
:10211800B76400802324810023261100138447EF2D
:1021280023202101938747EF938444F2631C940092
:1021380013090500138407006314940213040000B4
:102148006F004004032744006308070003270400C6
:10215800032707006308A7021304C4006FF01FFDDC
:1021680083274400639607001304C4006FF0DFFC64
:10217800832704001305090083A50700EFF0DFB2E9
:10218800E31405FE130504008320C1000324810025
:102198008324410003290100130101016780000025
:1021A800130101FF2324810023229100232611001B
:1021B8001304800093042000F3370430EF20407F9D
:1021C80063C4A4001305100093051000EF20100C41
:1021D800EFF0CFDC6FF05FFE37650080B7670080F7
:1021E800130685F3938707223386C74093050000BB
:1021F800130585F36FF09FAD130101FF1305200050
:1022080023261100EFF05FE937650080130545B11B
:10221800EFF0CFD113053000EFF01FE8EF200020DA
:10222800EFF0DFE2B76700809387471803C7C7005E
:102238001377E7FF2386E7008320C100130101011C
:1022480067800000130101F6232C8108B77700800E
:102258003764008023263109938707529309441F66
:1022680023A2F90093070101130600079305000054
:1022780013850700232E1108232A910823282109F2
:10228800EFF0DFA41307100023A4A9001305000032
:10229800A30EE100EFF05FE013051000EFF0DFDFC1
:1022A80093071010231EF100EF100049B767008054
:1022B800938787B5376900802322F100B72600800D
:1022C80093071000B7750080930449182320F10084
:1022D800130700009307000093080000130800008C
:1022E8009386062013060020938505921305491846
:1022F80023A09902EF10505A83C7D4001304441F37
:1023080013F7B7FFA386E40093F7B701639A0700B2
:1023180083A784016396070013054918EF00900806
:10232800B7670080938707B62322F10037650080DE
:1023380093071000B7260080B775008093044511F5
:102348002320F1009308F000130800009307000011
:10235800130700009386861A13060020938505B29A
:1023680013054511EF10505383C7D400232694005A
:102378001305800093F7B7FFA386F400B7670080C2
:102388009387C720232CF400232EF40073350530DF
:1023980013758500EFD0DFE98347D50093F7F70180
:1023A8006398070003258501133515006780000031
:1023B8001305000067800000130101FF23261100A8
:1023C800EFF08FFFB767008083A7C7F68320C100AF
:1023D800376700803385A7002322A72093050000D4
:1023E80013850700130101016F20406A8327050048
:1023F800130101FF232481002326110023229100C9
:102408001304050063980702B7640080B76500806D
:1024180037650080938545C01305458F93063018AE
:10242800138604BFEFF08FB093053018138504BFEF
:10243800EFF08FB3032504008320C100032481003B
:10244800832441001301010167800000130101FE8C
:10245800232C81002328210123244101232E11004C
:10246800232A91002326310113090500138A050048
:102478001304800073340430B7640080138544F675
:1024880013748400EF10104E631E0502B7690080B4
:10249800B765008037650080938545999306E00409
:1024A8001386C9971305458FEFF04FA8376500804D
:1024B8001305C59AEFF08FA79305E0041385C99714
:1024C800EFF08FAA138544F6EF10504FB7670080DE
:1024D80023A20720130999009307A0003349F902A2
:1024E800B767008023A627F7B767008023A447F7BC
:1024F800EFF09FEC138544F6EF105049631E050278
:10250800B7640080B7650080376500809385459C77
:10251800930610061386C4971305458FEFF00FA195
:10252800376500801305C59DEFF04FA09305100691
:102538001385C497EFF04FA3732404308320C1019F
:102548000324810183244101032901018329C10056
:10255800032A81001301010267800000130101FEB4
:10256800232C810023282101232E1100232A9100E6
:102578002326310113090500130480007334043045
:10258800B7640080138544F613748400EF10903DFF
:10259800631E0502B7690080B76500803765008053
:1025A800938545999306E0041386C9971305458FCB
:1025B800EFF0CF97376500801305C59AEFF00F97B6
:1025C8009305E0041385C997EFF00F9A138544F635
:1025D800EF10D03E13058900EFF05FE19305090085
:1025E800EF00002F8347D900138544F693F7D7FFF0
:1025F800A306F900EF109039631E0502B764008046
:10260800B7650080376500809385459C9306100662
:102618001386C4971305458FEFF04F9137650080F7
:102628001305C59DEFF08F90930510061385C49789
:10263800EFF08F93732404308320C10103248101B8
:102648002324090083244101032901018329C100AE
:102658001301010267800000B767008083A7471F46
:10266800130101FF23248100232611002322910056
:1026780013840500639E0704EF105031631E0502A2
:10268800B7640080B7650080376500809385459CF6
:10269800930680071386C4971305458FEFF00F89BB
:1026A800376500801305C59DEFF04F8893058007B7
:1026B8001385C497EFF04F8B1305040003248100A2
:1026C8008320C10083244100130101016FD05FB64C
:1026D800EF10D02B631E0502B7640080B765008039
:1026E800376500809385459C930610061386C4972A
:1026F8001305458FEFF08F83376500801305C59D5F
:10270800EFF0CF82930510061385C497EFF0CF85BD
:1027180013748400732404308320C10003248100CF
:10272800832441001301010167800000376700809E
:102738000327471F631407006FD09FAF9377850067
:10274800F3A7073067800000130580007335053054
:10275800137585006FF09FFD130101FE232C810086
:10276800232E1100232A9100232821012326310139
:102778001304800073340430B7640080138544F672
:1027880013748400EF10101E631E05023769008061
:10279800B765008037650080938545999306E00406
:1027A8001306C9971305458FEFE05FF8376500807A
:1027B8001305C59AEFE09FF79305E0041305C99741
:1027C800EFE09FFA138544F637690080EF10101F79
:1027D8008327491F1309491F638E0702B7690080C1
:1027E800B765008037650080938545B8930600106B
:1027F800138689B61305458FEFE05FF337650080D0
:102808001305C5B9EFE09FF293050010138589B64B
:10281800EFE09FF58327890003C7F70093071000AF
:10282800631EF702B7690080B765008037650080CE
:10283800938505BA93061010138689B61305458F3C
:10284800EFE0DFEE376500801305C5B9EFE01FEE56
:1028580093051010138589B6EFE01FF1032789004F
:102868008347F7009387F7FFA307F700138544F61C
:10287800EF10D011631E0502B7640080B7650080B1
:10288800376500809385459C930610061386C49788
:102898001305458FEFE09FE9376500801305C59D57
:1028A800EFE0DFE8930510061385C497EFE0DFEB50
:1028B800732404308320C10103248101832441014E
:1028C800032901018329C100130101026780000067
:1028D800B767008083A707EF130101FF2324810056
:1028E8002326110023229100138405006398F50222
:1028F800B7640080B765008037650080938585D010
:102908001305458F9306C028138604BFEFE01FE226
:102918009305C028138504BFEFE01FE50327440093
:10292800832704008320C100832441002320F7006B
:1029380023A2E700232004002322040003248100AB
:102948001301010167800000832705006314F50067
:10295800930700001385070067800000130101FF3B
:1029680023248100376400802320210113090500F6
:102978001305441F13054502232291002326110045
:10298800EFF09FFC1304441F930405006314050033
:102998008324C400631E090683278400639E0702FC
:1029A80037690080B7650080376500809385C5C1A9
:1029B8009306F007130609BF1305458FEFE01FD7ED
:1029C800376500801305C5B9EFE05FD69305F007BA
:1029D800130509BFEFE05FD98327840003C7D70039
:1029E8001377F7016316070283D6E7001307F0078A
:1029F8006370D7022320F4028320C10003248100DE
:102A080083244100032901001301010167800000AC
:102A18008327840063849700EFF01F9A2320940291
:102A28006FF09FFD130101FE232821013769008003
:102A38009307491F83A78700232E1100232C8100A9
:102A480083C7F700232A9100232631011309491F60
:102A5800639E070237640080B76500803765008091
:102A6800938585BC93061022130604BF1305458F72
:102A7800EFE0DFCB376500801305C5B9EFE01FCB6A
:102A880093051022130504BFEFE01FCE832709002A
:102A9800638E070237640080B76500803765008061
:102AA800938545B893062022130604BF1305458F66
:102AB800EFE0DFC7376500801305C5B9EFE01FC732
:102AC80093052022130504BFEFE01FCA13048000FA
:102AD80073340430B7640080138544F6137484009B
:102AE800EF104068631E0502B7690080B765008073
:102AF80037650080938545999306E0041386C99746
:102B08001305458FEFE09FC2376500801305C59A0E
:102B1800EFE0DFC19305E0041385C997EFE0DFC458
:102B2800138544F6EF108069032789001305100008
:102B38008347F70093871700A307F700EFF01FE21A
:102B4800138544F6EF108064631E0502B7640080A5
:102B5800B7650080376500809385459C930610060D
:102B68001386C4971305458FEFE05FBC3765008077
:102B78001305C59DEFE09FBB930510061385C49709
:102B8800EFE09FBE73240430032481018320C10138
:102B980083244101032901018329C1001301010292
:102BA8006FF09FBA130101FE232C8100232A9100A4
:102BB800232E1100232821012326310113040500A7
:102BC80093048000F3B4043037690080130549F694
:102BD80093F48400EF100059631E0502B769008062
:102BE800B765008037650080938545999306E004B2
:102BF8001386C9971305458FEFE05FB337650080EB
:102C08001305C59AEFE09FB29305E0041385C997B1
:102C1800EFE09FB5130549F6EF10405AB7670080FB
:102C280083A707EF6318F402B7690080B7650080CF
:102C380037650080938585D01305458F93066027F7
:102C4800138609BFEFE09FAE93056027138509BF80
:102C5800EFE09FB1376700809306471F83A74602BE
:102C680003A68602B7660080938686211307471F4E
:102C78006386D70A6384070A8305E4000385E700AF
:102C880063D8A50803A747002320F4002322E40003
:102C98002320870023A287008347D4001305000060
:102CA80093E70704A306F400EFF05FCB130549F69A
:102CB800EF10C04D631E050237640080B7650080C1
:102CC800376500809385459C930610061306C497C4
:102CD8001305458FEFE09FA5376500801305C59D57
:102CE800EFE0DFA4930510061305C497EFE0DFA714
:102CF800F3A404308320C10103248101832441010A
:102D0800032901018329C100130101026780000022
:102D18006306F60083A70700E39207F62322C400A0
:102D2800832787022320D40023A087002324870237
:102D38006FF09FF6832705FF130101FE232C810006
:102D480023263101232E1100232A91002328210153
:102D58002324410113040500930985FE6384070CAD
:102D680093048000F3B4043037690080130549F6F2
:102D780093F48400EF10003F631E0502376A008059
:102D8800B765008037650080938545999306E00410
:102D98001306CA971305458FEFE05F9937650080E2
:102DA8001305C59AEFE09F989305E0041305CA97A9
:102DB800EFE09F9B130549F6EF104040130504FF11
:102DC800EFF0CFE293850900EFF09FB0834754FFFF
:102DD800130549F693F7D7FFA30AF4FEEF10003B5B
:102DE800631E050237690080B7650080376500807B
:102DF8009385459C930610061306C9971305458FBE
:102E0800EFE0DF92376500801305C59DEFE01F9264
:102E1800930510061305C997EFE01F95F3A4043036
:102E2800232804FE834754FF1385090093F7B7FE50
:102E3800A30AF4FEEFF04FD66304050203248101D0
:102E48008320C1018324410103290101032A810050
:102E5800138509008329C100130101026FF09FD473
:102E68008320C10103248101832441010329010135
:102E78008329C100032A8100130101026780000031
:102E8800130101FE232C810023282101232E110088
:102E9800232A9100232631012324410123225101B1
:102EA800130405001309800073390930B7690080DD
:102EB800138549F613798900EF10C02A631E0502AD
:102EC800B7640080B76500803765008093854599B1
:102ED8009306E0041386C4971305458FEFE01F851A
:102EE800376500801305C59AEFE05F849305E00419
:102EF8001385C497EFE05F87138549F6EF10002C20
:102F0800B76400801385441F930504001305450228
:102F1800EFF01F9CB767008083A707EF376A008030
:102F28009384441F130A8A216318F402B76A008045
:102F3800B765008037650080938585D01305458F78
:102F48009306602713860ABFEFE04FFE93056027BC
:102F580013850ABFEFE05F8183A7440203A78402B9
:102F6800638E470B638C070A8306E4000386E70039
:102F780063D0C60A03A747002320F4002322E400F5
:102F88002320870023A287008347D40003A5840059
:102F980093E707043305854013351500A306F400AD
:102FA800EFF0DF9B138549F6EF10401E631E050204
:102FB80037640080B7650080376500809385459C3D
:102FC800930610061306C4971305458FEFE00FF616
:102FD800376500801305C59DEFE04FF59305100692
:102FE8001305C497EFE04FF8732909308320C10116
:102FF8000324810183244101032901018329C1009C
:10300800032A8100832A410013010102678000001E
:103018006386E70083A70700E39A07F42322E40006
:1030280083A784022320440123A0870023A48402C9
:103038006FF09FF5B767008083A7C7F6638607061A
:10304800B76700809387471F03A787009306F00799
:103058000356E70063EAC604B76600800306E70084
:1030680083A686F66342D604B766008083A606EF79
:10307800630CD702832687016398060283A607019B
:103088006340D502130101FF130507002326110031
:10309800EFF01FDF8320C100130101016FF0CFB1F2
:1030A800B386A64023A8D70067800000130101FE5D
:1030B800232C810023263101232E1100232A91007D
:1030C8002328210193090500130480007334043078
:1030D800B7640080138544F613748400EF108008E9
:1030E800631E050237690080B76500803765008078
:1030F800938545999306E0041306C9971305458FF0
:10310800EFE0CFE2376500801305C59AEFE00FE2E4
:103118009305E0041305C997EFE00FE5138544F61E
:10312800EF10C00983C7D900376900801309491F08
:1031380093F70704638E0700938509001305490276
:10314800EFF00FF983C7D90093F7F7FBA386F900CF
:10315800032589003305354113351500EFF01F802D
:10316800138544F6EF108002631E0502B7640080E1
:10317800B7650080376500809385459C93061006E7
:103188001386C4971305458FEFE04FDA3765008043
:103198001305C59DEFE08FD9930510061385C497D5
:1031A800EFE08FDC732404308320C1010324810104
:1031B80083244101032901018329C100130101026C
:1031C80067800000130101FE232C8100232A91004F
:1031D8001304050023282101232E11002326310181
:1031E8009384050013090600EFF05FEC8347D400D1
:1031F80093E72700A306F40063860406B7670080F8
:1032080083A707EF232494006318F402B7690080AA
:10321800B765008037650080938585D01305458F95
:1032280093066027138609BFEFE04FD09305602708
:10323800138509BFEFE04FD383A70400638CF4061E
:10324800638A07060307E4008386E700635CD70404
:1032580003A747002320F4002322E400232087004B
:1032680023A287009307F0FF6304F9061309990066
:103278001306A0003346C902130584010324810103
:103288008320C10183244101032901018329C1004D
:10329800B73500809385C5D31301010213061600C4
:1032A8006F10C03E83A644006386D70083A707003B
:1032B800E39C07F883A74400232094002322F4000A
:1032C80083A7440023A0870023A284006FF09FF9FE
:1032D8008320C101032481018324410103290101C1
:1032E8008329C1001301010267800000130101FF57
:1032F800B7670080232481001304050003A5C71FB6
:103308002322910093840500930506001386060086
:1033180023261100EFF01FEB13050400EF001067E0
:10332800631E050237640080B7650080376500803A
:103338009385459C930680071306C4971305458F0C
:10334800EFE0CFBE376500801305C59DEFE00FBEE7
:10335800930580071305C497EFE00FC1032481008C
:103368008320C10013850400832441001301010157
:103378006FC01FEC130101FE232C810023282101BB
:1033880023244101232E1100232A910023263101F1
:10339800232251012320610113040500138A05002B
:1033A8001309800073390930B7690080138549F61D
:1033B80013798900EF00105B631E0502B764008073
:1033C800B765008037650080938545999306E004CA
:1033D8001386C4971305458FEFE04FB53765008016
:1033E8001305C59AEFE08FB49305E0041385C497DD
:1033F800EFE08FB7138549F6EF00505C1305040022
:10340800EFE09FF9131A8A01930A0500135A8A41BB
:1034180063000514B76400801385441F93050400F6
:1034280013054502EFF0CFCAB767008083A707EFFF
:1034380023074401376A00809384441F130A8A21B2
:103448006318F402376B0080B76500803765008029
:10345800938585D01305458F9306602713060BBF08
:10346800EFE0CFAC9305602713050BBFEFE0CFAFBC
:1034780083A7440203A784026380470D638E070A6B
:103488008306E4000386E70063D2C60A03A7470061
:103498002320F4002322E4002320870023A28700AE
:1034A80013051000EFF08FCB138549F6EF00104E8F
:1034B800631E050237640080B765008037650080A9
:1034C8009385459C930610061306C4971305458FEC
:1034D800EFE0CFA5376500801305C59DEFE00FA588
:1034E800930510061305C497EFE00FA87329093058
:1034F80063840A06B767008083A7C71F83C7F700DE
:10350800639C0704032481018320C10183244101B2
:10351800032901018329C100032A8100832A41006C
:10352800032B0100130101026FF00FA26386E7006D
:1035380083A70700E39807F42322E40083A7840203
:103548002320440123A0870023A484026FF05FF5A1
:10355800230744016FF05FF58320C1010324810133
:1035680083244101032901018329C100032A810021
:10357800832A4100032B0100130101026780000028
:10358800130101FE2328210123263101232E1100D6
:10359800232C8100232A9100930905001309800038
:1035A80073390930B7640080138544F613798900AC
:1035B800EF00503B631E050237640080B76500804A
:1035C80037650080938545999306E0041306C497F0
:1035D8001305458FEFE08F95376500801305C59A71
:1035E800EFE0CF949305E0041305C497EFE0CF977D
:1035F800138544F6EF00903C13850900EFF0CFB433
:1036080013040500138544F6EF005038631E0502C5
:10361800B7690080B7650080376500809385459C51
:10362800930610061386C9971305458FEFE00F9090
:10363800376500801305C59DEFE04F8F9305100691
:103648001385C997EFE04F92732909306306040C7C
:103658001309800073390930138544F613798900FA
:10366800EF005030631E0502B7690080B76500801F
:1036780037650080938545999306E0041386C997BA
:103688001305458FEFE08F8A376500801305C59ACB
:10369800EFE0CF899305E0041385C997EFE0CF8C5D
:1036A800138544F6EF00903113058400EFE01FD432
:1036B80093050400EFF0CFA18347D400138544F6A7
:1036C80093F7D7FFA306F400EF00502C631E050202
:1036D800B7640080B7650080376500809385459C96
:1036E800930610061386C4971305458FEFE00F84E1
:1036F800376500801305C59DEFE04F8393051006DD
:103708001385C497EFE04F867329093023240400FA
:1037180013058401EF10401A130504008320C1012A
:103728000324810183244101032901018329C10064
:103738001301010267800000B76700809387471F65
:103748001387470223A2E70223A4E7029305000098
:10375800130500006FE09FCF130101FF23248100B0
:10376800232021012326110023229100138705011C
:103778009307E001130905001384050063F4E704C7
:10378800B7640080B76500803765008093065034C1
:10379800138604BF938585C81305458FEFD01FF99D
:1037A800376500809305040013054591930600FFD3
:1037B8001306E000EFD09FF793055034138504BF3C
:1037C800EFD09FFAB767008083A7471F638E070271
:1037D800B7640080B765008037650080938545B879
:1037E80093066034138604BF1305458FEFD01FF48A
:1037F800376500801305C5B9EFD05FF393056034D2
:10380800138504BFEFD05FF69305040003248100FD
:103818008320C10083244100130509000329010006
:10382800130101016FF01FB5130101FE232C810064
:10383800376400808327441F232E1100232A910018
:103848002328210123263101232441012322510168
:103858001304441F638E0702B7640080B7650080B5
:1038680037650080938545B89306E037138604BF13
:103878001305458FEFD09FEB376500801305C5B959
:10388800EFD0DFEA9305E037138504BFEFD0DFED13
:10389800B76700808326840003A707EF138A070011
:1038A8006386E6121309800073390930B76900800E
:1038B800138549F613798900EF00D00A631E0502C3
:1038C800B7640080B76500803765008093854599A7
:1038D8009306E0041386C4971305458FEFD01FE5C0
:1038E800376500801305C59AEFD05FE49305E004BF
:1038F8001385C497EFD05FE7138549F6EF00100CE6
:103908008325840013054402EFE09FFC83270AEF18
:1039180083248400376A0080130A8A216398F4029A
:10392800B76A0080B765008037650080938585D0C9
:103938001305458F9306602713860ABFEFD01FDF54
:103948009305602713850ABFEFD01FE2832744023F
:1039580003278402638A470B6388070A8386E40087
:103968000386E70063DCC60803A7470023A0F4002A
:1039780023A2E4002320970023A297001305100038
:10398800EFE0DFFD138549F6EF005000631E0502E6
:1039980037640080B7650080376500809385459C53
:1039A800930610061306C4971305458FEFD01FD84A
:1039B800376500801305C59DEFD05FD793051006C6
:1039C8001305C497EFD05FDA732909301305800017
:1039D80073350530032481018320C101832441010B
:1039E800032901018329C100032A8100832A410098
:1039F80013758500130101026FC09F836386E7007A
:103A080083A70700E39E07F423A2E4008327840228
:103A180023A0440123A09700232494026FF01FF6EB
:103A2800130101FD23229102B764008083A7441F7C
:103A3800232481022326110223202103232E31016E
:103A4800232C4101130405009384441F638E07024D
:103A580037690080B765008037650080938545B871
:103A680093069039130609BF1305458FEFD01FCC75
:103A7800376500801305C5B9EFD05FCB9305903942
:103A8800130509BFEFD05FCE9307F0FF6312F41A56
:103A980037690080B7650080376500809385C5C3A6
:103AA8009306A039130609BF1305458FEFD01FC829
:103AB800376500801305C5B9EFD05FC79305A039F6
:103AC800130509BFEFD05FCA9307A0001304940041
:103AD8003344F402EF10C04193098000232601000B
:103AE800130414003309A400F3B909301305C10005
:103AF80093F98900EF000067631E0502376A0080AA
:103B0800B765008037650080938545999306E00482
:103B18001306CA971305458FEFD05FC1376500803C
:103B28001305C59AEFD09FC09305E0041305CA9703
:103B3800EFD09FC31305C100EF00406803A58400C0
:103B4800EFF0CFD603A58400B73500801306040034
:103B5800130585019385C5D3EF00503303A784006F
:103B68001305C1008347D70093E70701A306F700B1
:103B7800EF00C061631E050237640080B7650080EE
:103B8800376500809385459C930680071306C49784
:103B98001305458FEFD09FB9376500801305C59D84
:103BA800EFD0DFB8930580071305C497EFD0DFBBCC
:103BB80013850900EFC0CFE783A7840083C7D70028
:103BC80093F70701638E070237640080B7650080AA
:103BD80037650080938505C59306703B130604BFBF
:103BE8001305458FEFD09FB4376500801305C5B91D
:103BF800EFD0DFB39305703B130504BFEFD0DFB6FA
:103C0800EF10002F3305A940130400006356A002EB
:103C18009307803EB315F50213064006930600008D
:103C28003305F502EFC04FE9130405006F00C0002B
:103C3800E31C04E8EFF05FBF130504008320C10212
:103C48000324810283244102032901028329C1013B
:103C5800032A810113010103678000008347D5000F
:103C680093F7270063960706130101FF23248100B9
:103C7800130405001305850123261100EF00D04326
:103C8800634005048347D4001305040093F7F7FE47
:103C9800A306F400EFE04FF06306050013050400E7
:103CA800EFE05FF0B767008083A7471F639A0700BC
:103CB800032481008320C100130101016FE0DFA804
:103CC8008320C100032481001301010167800000E3
:103CD80067800000B767008003A5C71F67800000E2
:103CE800130101FE232C8100232A9100232821019E
:103CF800232E110023263101130405001389050022
:103D080093040600631E0602B7690080B765008049
:103D1800376500809385C5D2930660041386C9D1A0
:103D28001305458FEFD09FA037650080130585D315
:103D3800EFD0DF9F930560041385C9D1EFD0DFA2D0
:103D480063FE2403B7690080B7650080376500808B
:103D5800938505D5930670041386C9D11305458F3D
:103D6800EFD0DF9C37650080130585D6EFD01F9C08
:103D7800930570041385C9D1EFD01F9F2324240114
:103D88002326940023208400232284008320C10159
:103D98000324810183244101032901018329C100EE
:103DA8001301010267800000130101FE232A91001C
:103DB80023263101232E1100232C810023282101E1
:103DC8009309050093048000F3B40430376400803D
:103DD800130504F793F48400EF00C038631E05024E
:103DE80037690080B76500803765008093854599FD
:103DF8009306E0041306C9971305458FEFD01F9368
:103E0800376500801305C59AEFD05F929305E004EB
:103E18001305C997EFD05F95130504F7EF00003A33
:103E280013850900EFF0CFF51309050063020504B7
:103E38008347D50093F7F701639807008327850127
:103E480063940700EFE01FD623260906130504F73D
:103E5800032481018320C101032901018329C100B1
:103E68009385040083244101130101026FE0CFFE12
:103E780003A7890083A7C900B387E740B337F000D9
:103E8800B387E70023A4F9006FF05FFCB7670080F1
:103E980083A7471F130101FE23282101232631018F
:103EA800232E1100232C8100232A91002324410171
:103EB800130905009389050063800704638E0502D2
:103EC80037640080B765008037650080938505D921
:103ED8009306C0081306C4D11305458FEFD01F857C
:103EE800376500801305C5B9EFD05F849305C00816
:103EF8001305C4D1EFD05F871304800073340430F6
:103F0800B7640080138504F713748400EF008025DC
:103F1800631E0502376A0080B76500803765008038
:103F2800938545999306E0041306CA971305458FB0
:103F3800EFD0CFFF376500801305C59AEFD00FFF8C
:103F48009305E0041305CA97EFD01F82138504F781
:103F5800EF00C02683278900638C07069387F7FF45
:103F68002324F900138504F7EF004022631E05029D
:103F7800B7640080B7650080376500809385459CED
:103F8800930610061386C4971305458FEFD00FFAD2
:103F9800376500801305C59DEFD04FF993051006CE
:103FA8001385C497EFD04FFC732404301305000029
:103FB8008320C101032481018324410103290101D4
:103FC8008329C100032A81001301010267800000D0
:103FD800639A0904138504F7EF00401B631E05026A
:103FE800B7640080B7650080376500809385459C7D
:103FF800930610061386C4971305458FEFD00FF369
:10400800376500801305C59DEFD04FF29305100664
:104018001385C497EFD04FF573240430130500FFC0
:104028006FF01FF993050400032481018320C10167
:10403800032A810093860900130609008329C10019
:1040480003290101138504F78324410113010102A7
:104058006FF0CFA98347D50093F7F701639807005E
:10406800032585011335150067800000130500003E
:1040780067800000B767008003A5471F3335A0009D
:1040880067800000B767008083A7C71F03C5C70004
:104098001375150067800000130101FE0323010258
:1040A800232C8100232E1100232061001304050016
:1040B800EFC05FD8B767008083A7C71F8320C101FF
:1040C80083A787062324F406032481011301010230
:1040D8006780000083270506130101FF2324810060
:1040E800232611001304050063840700E7800700F6
:1040F80013050400EFF01FF663040502130504001E
:10410800EFE0DFFA8347D4008320C10093E78700FC
:10411800A306F40003248100130101016780000055
:104128008347D40093F7270063860700130504002C
:10413800EFE0CFC283278401E38607FC13058401DF
:10414800EF0080776FF01FFC2306D500A306C5009B
:104158002307B500A3070500232C0500232E05001F
:104168006780000003250500630E0500B76700801F
:1041780083C78720137535003305F5403335A00014
:10418800678000001305100067800000B767008093
:104198009387471F03C7470183A78700B3E7E70053
:1041A800032705006318F7002320050013051000F6
:1041B800678000001305000067800000B767008073
:1041C8009387471F03C7470183A78700B3E7E70023
:1041D8002320F50067800000130101FE232C8100D5
:1041E80023282101232E1100232A9100232631019F
:1041F800130905001304800073340430B764008089
:10420800138544F713748400EFF0DFF5631E05028D
:10421800B7690080B7650080376500809385459948
:104228009306E0041386C9971305458FEFD00FD086
:10423800376500801305C59AEFD04FCF9305E0048A
:104248001385C997EFD04FD2138544F7EFF01FF7C6
:104258008347D90013F7470063140706138544F70B
:10426800EFF0DFF2631E0502B7640080B7650080D7
:10427800376500809385459C930610061386C4977E
:104288001305458FEFD08FCA376500801305C59D8C
:10429800EFD0CFC9930510061385C497EFD0CFCCC4
:1042A800732404308320C101032481018324410144
:1042B800032901018329C10013010102678000005D
:1042C80093F7B7FFA306F90013050900EFF09FD88D
:1042D8006306050013050900EFE0DF8C9305040071
:1042E800032481018320C101032901018329C1001D
:1042F800138544F783244101130101026FE0CFB510
:10430800639405006FF05FED938595001306A00098
:1043180033C6C502B73500809385C5D3130585011B
:10432800130616006F008036130101FC2322510387
:10433800938A0600B766008083A6461F232C810255
:10434800232A91022326310323244103232E110219
:10435800232821031304050093890500130A060086
:1043680083244104638E060437690080B7650080A2
:10437800376500809306201B130649DC938545B8F2
:104388001305458F232E1101232C0101232AF10047
:104398002328E100EFD08FB937650080130585DD4C
:1043A800EFD0CFB89305201B130549DCEFD0CFBB66
:1043B8008328C101032881018327410103270101C3
:1043C800832601042322010013060A002320D100BA
:1043D8009385090093860A0013050400EFF0DFCBEC
:1043E8009307F0FF6388F400938504001305040025
:1043F800EFF01FF1130504008320C1030324810398
:1044080083244103032901038329C102032A81026A
:10441800832A41021301010467800000130101FE91
:10442800B76700802328210137690080232C810089
:10443800232A9100232E1100138447F2938447F214
:10444800130949F26366240313840400EFE0CFB034
:104458009304F0FF63602407032481018320C101D2
:104468008324410103290101130101026FE08FDB5D
:104478008327C4022322F100832704022320F100AA
:10448800832744018328C4010328840103270401E6
:104498008326C400032684008325440003250400E2
:1044A800EFF09FBF8327040023AE8704130404039F
:1044B8006FF05FF9832544026386950003250400A5
:1044C800EFF01FE4130404036FF0DFF8130101FE9B
:1044D800232C8100232A9100232E11002328210157
:1044E800930405002326010013048000733404306C
:1044F8001305C10013748400EFF0DFC6631E0502C4
:1045080037690080B76500803765008093854599D5
:104518009306E0041306C9971305458FEFD00FA142
:10452800376500801305C59AEFD04FA09305E004C6
:104538001305C997EFD04FA31305C100EFF01FC8AB
:1045480083C7C40093F71700638E0702376900809A
:10455800B765008037650080938585E193069002F2
:10456800130609E01305458FEFD04F9C376500808F
:104578001305C5E4EFD08F9B93059002130509E05E
:10458800EFD08F9E13850400EFF0DFB4930504008D
:104598001305C100EFE04F8C8320C1010324810182
:1045A80083244101032901011301010267800000EE
:1045B800B767008083A787F7639407006FD0CFDFC2
:1045C80013050000678000008327050063020502C9
:1045D80037670080032747EE630CE500638A07000E
:1045E80003A78700832685003307D70023A4E700A5
:1045F800032745002320F70023A2E7002320050016
:104608002322050067800000B767008083C707F88A
:10461800130101FF23261100232481002322910086
:104628001305F0FF63960700370500801345F5FF73
:10463800B7670080938707EE03A407006304F402BA
:104648006302040283248400EFF09FF6B384A4403D
:104658001305000063C8040003248400EFF05FF52D
:104668003305A440B767008083A747206386070007
:1046780063D4A700138507008320C10003248100A9
:10468800832441001301010167800000832705008E
:10469800130101FD2324810223229102232E3101DB
:1046A8002326110223202103232C4101232A51010F
:1046B80023286101232671012324810113040500A5
:1046C8009389050093040600638E0702376900800A
:1046D800B7650080376500809385C5E79306D004E9
:1046E800130689E61305458FEFD04F8437650080A0
:1046F8001305C5B9EFD08F839305D004130589E658
:10470800EFD08F8623263401634490009304100071
:1047180093098000F3B90930376A00801305CAF796
:1047280093F98900EFF01FA4631E05023769008022
:10473800B765008037650080938545999306E00446
:104748001306C9971305458FEFC05FFE37650080D4
:104758001305C59AEFC09FFD9305E0041305C9979B
:10476800EFD08F801305CAF7EFF05FA5EFF05FE495
:1047780033059500B764008003A904EE2324A40040
:10478800938404EE630C9900B76A0080376B00804D
:10479800B76B0080376C00806310090283A7440060
:1047A800232094002322F40083A7440023A0870039
:1047B80023A284006F00C0058327890063D60702FF
:1047C8009305CBE99306600513868AE613854B8F1C
:1047D800EFC0DFF51305CCB9EFC05FF593056005B1
:1047E80013858AE6EFC05FF80327890083278400D2
:1047F80063D8E70AB307F7402324F9008327490061
:10480800232024012322F40023A0870023228900E7
:1048180083A70400638A97006318F400EFF0DFDED3
:1048280093050000EFD08FA11305CAF7EFF01F968C
:10483800631E050237640080B76500803765008015
:104848009385459C930610061306C4971305458F58
:10485800EFC0DFED376500801305C59DEFC01FED84
:10486800930510061305C497EFC01FF0F3A909308C
:104878008320C10203248102832441020329010207
:104888008329C101032A8101832A4101032B0101E4
:10489800832BC100032C81001301010367800000F2
:1048A800B387E7402324F40083A74400E38827EF75
:1048B800032909006FF05FEE130101FE232C81002C
:1048C80023263101232E1100232A910023282101B8
:1048D800930905001304800073340430B764008022
:1048E8001385C4F713748400EFF0DF87631E050295
:1048F80037690080B76500803765008093854599E2
:104908009306E0041306C9971305458FEFC01FE20D
:10491800376500801305C59AEFC05FE19305E00491
:104928001305C997EFC05FE41385C4F7EFF01F893B
:1049380083A709001309A0FE6388070013850900EF
:10494800EFF09FC8130900001385C4F7EFF01F8428
:10495800631E0502B7640080B76500803765008074
:104968009385459C930610061386C4971305458FB7
:10497800EFC0DFDB376500801305C59DEFC01FDB87
:10498800930510061385C497EFC01FDE7324043007
:104998008320C101032481011305090083244101F7
:1049A800032901018329C100130101026780000066
:1049B800130101FF232481002326110023229100E3
:1049C800232021011304800073340430B76400806D
:1049D8001385C4F713748400EFF0CFF8631E050243
:1049E80037690080B76500803765008093854599F1
:1049F8009306E0041306C9971305458FEFC01FD32C
:104A0800376500801305C59AEFC05FD29305E004AF
:104A18001305C997EFC05FD51385C4F7EFF00FFAF8
:104A2800EFF09FBE130905001385C4F7EFF00FF6EA
:104A3800631E0502B7640080B76500803765008093
:104A48009385459C930610061386C4971305458FD6
:104A5800EFC0DFCD376500801305C59DEFC01FCDC2
:104A6800930510061385C497EFC01FD07324043034
:104A78008320C10003248100130509008324410019
:104A8800032901001301010167800000130101FEE1
:104A9800232C81002328210123244101232E1100E6
:104AA800232A91002326310113090500138A0500E2
:104AB8001304800073340430B76400801385C4F78E
:104AC80013748400EFF00FEA631E0502B7690080D3
:104AD800B765008037650080938545999306E004A3
:104AE8001386C9971305458FEFC05FC437650080EB
:104AF8001305C59AEFC09FC39305E0041385C997B2
:104B0800EFC09FC61385C4F7EFF04FEBEFF0DFAFB0
:104B1800635CA9009307100063D8A70093050A00F7
:104B280013050900EFC09FF11385C4F7EFF00FE6F6
:104B3800631E0502B7640080B76500803765008092
:104B48009385459C930610061386C4971305458FD5
:104B5800EFC0DFBD376500801305C59DEFC01FBDE1
:104B6800930510061385C497EFC01FC07324043043
:104B78008320C10103248101832441010329010108
:104B88008329C100032A8100130101026780000004
:104B9800130101FD23248102232C41012326110244
:104BA8002322910223202103232E3101232A51019C
:104BB80023286101232671012324810123229101E5
:104BC8002320A101130A050013048000EFE08FC61B
:104BD80073340430376900801305C9F713748400EF
:104BE800EFF04FD8631E0502B7640080B7650080F8
:104BF80037650080938545999306E0041386C4972A
:104C08001305458FEFC09FB2376500801305C59A1D
:104C1800EFC0DFB19305E0041385C497EFC0DFB49C
:104C2800B76900801305C9F7EFF04FD9B764008062
:104C380023AC49F7376A0080938989F7130A0AEE8B
:104C4800938404F4B76A0080B76B0080376B0080E8
:104C5800376C0080B76C0080032D0A0083A7090019
:104C680083A6040003A54400630C4D01630A0D00EC
:104C780003278D0063DCE70A3307F7402324ED00A0
:104C8800B386D70013D7F7413307A700B3B7F600A9
:104C9800B387E70023A0D40023A2F40023A00900CF
:104CA800EFF09F9693050000EFC05FD91305C9F791
:104CB800EFF0CFCD631E0502B7640080B7650080B2
:104CC800376500809385459C930610061386C49724
:104CD8001305458FEFC09FA5376500801305C59D57
:104CE800EFC0DFA4930510061385C497EFC0DFA7B4
:104CF800732404308320C1020324810283244102E7
:104D0800032901028329C101032A8101832A410160
:104D1800032B0101832BC100032C8100832C41004C
:104D2800032D01001301010367800000B306D700BB
:104D38009355F741B385A50033B6E6003306B600B0
:104D4800B387E74013050D0023240D0023A0D400EA
:104D580023A2C40023A0F900EFF01F871305C9F7A9
:104D6800EFF0CFC26316050293854B9C930610069D
:104D78001386CA9713054B8FEFC05F9B1305CC9D15
:104D8800EFC0DF9A930510061385CA97EFC0DF9D21
:104D9800732404308327CD0013050D00130480000D
:104DA800E7800700733404301305C9F713748400CF
:104DB800EFF04FBB6318050293854C999306E00406
:104DC8001386CA9713054B8FEFC05F96376500802F
:104DD8001305C59AEFC09F959305E0041385CA97FC
:104DE800EFC09F981305C9F7EFF04FBD6FF0DFE6EE
:104DF800130101FE232A9100232E1100232C810088
:104E0800232821012326310193048000F3B40430C0
:104E1800376900801305C9F793F48400EFF08FB465
:104E2800631E050237640080B7650080376500801F
:104E3800938545999306E0041306C4971305458F97
:104E4800EFC0DF8E376500801305C59AEFC01F8E4F
:104E58009305E0041305C497EFC01F911305C9F724
:104E6800EFF0CFB5EFC05FD5B7670080938707F441
:104E780083A9070003A44700B309350133B5A90086
:104E8800330485001305C9F7EFF04FB0631E050220
:104E980037690080B7650080376500809385459C39
:104EA800930610061306C9971305458FEFC01F8890
:104EB800376500801305C59DEFC05F879305100611
:104EC8001305C997EFC05F8AF3A404309305040063
:104ED8008320C10103248101138509008324410132
:104EE800032901018329C100130101026780000021
:104EF800130101FF23261100EFF09FEF8320C1006B
:104F08001301010167800000130101FF232611002E
:104F1800EFF01FFE9307803EB335F50213064006F7
:104F2800930600003305F502EFB00FB98320C100E6
:104F38001301010167800000130101FF2324810090
:104F48002322910037640080B76400802326110073
:104F5800130444F2938444F2636E94008320C100E6
:104F6800032481008324410013050000130101017B
:104F7800678000009307440113050400232AF40006
:104F8800232CF400EFC04F851304C4016FF0DFFC3D
:044F9800678000002E
:104F9C00000000008C0D0080000000008C0D0080D3
:104FAC00000000008C0D0080000000008C0D0080C3
:104FBC00000000008C0D0080000000008C0D0080B3
:104FCC00000000008C0D008000000000B018008074
:104FDC00000000008C0D0080000000008C0D008093
:104FEC00000000008C0D0080000000008C0D008083
:104FFC00000000008C0D0080000000008C0D008073
:10500C00000000008C0D0080000000008C0D008062
:10501C00000000008C0D0080000000008C0D008052
:10502C00000000008C0D0080000000008C0D008042
:10503C00000000008C0D0080000000008C0D008032
:10504C00000000008C0D0080000000008C0D008022
:10505C00000000008C0D0080000000008C0D008012
:10506C00000000008C0D0080000000008C0D008002
:10507C00000000008C0D0080000000008C0D0080F2
:10508C00000000008C0D0080000000008C0D0080E2
:10509C00000000008C0D0080000000008C0D0080D2
:1050AC00000000008C0D0080000000008C0D0080C2
:1050BC00000000008C0D0080000000008C0D0080B2
:1050CC00000000008C0D0080000000008C0D0080A2
:1050DC00000000008C0D0080000000008C0D008092
:1050EC00685500806818008000000000705900802E
:1050FC00F81900800000000068590080982000809A
:10510C000000000068550080404F00800000000047
:10511C000001020203030303040404040404040452
:10512C000505050505050505050505050505050523
:10513C000606060606060606060606060606060603
:10514C0006060606060606060606060606060606F3
:10515C0007070707070707070707070707070707D3
:10516C0007070707070707070707070707070707C3
:10517C0007070707070707070707070707070707B3
:10518C0007070707070707070707070707070707A3
:10519C000808080808080808080808080808080883
:1051AC000808080808080808080808080808080873
:1051BC000808080808080808080808080808080863
:1051CC000808080808080808080808080808080853
:1051DC000808080808080808080808080808080843
:1051EC000808080808080808080808080808080833
:1051FC000808080808080808080808080808080823
:10520C000808080808080808080808080808080812
:10521C00746573745F74687265616400746573742B
:10522C005F736C6565700000746573745F736C6597
:10523C0065700000736C6565700000004B65726EE4
:10524C00656C206F626A6563747320696E6974693A
:10525C00616C697A65640A005465737420746872B1
:10526C0065616420737461727465643A20696420AA
:10527C003D2025700A00000048656C706572207432
:10528C00687265616420737461727465643A206934
:10529C0064203D2025700A00746573742066616972
:1052AC006C7572650000000028746573745F66612C
:1052BC00696C7572652069732074727565290000BC
:1052CC0054657374696E67206B65726E656C206BC8
:1052DC005F736C65657028290A0000006B5F736C46
:1052EC00656570282920736C65707420666F722058
:1052FC002564207469636B732C206E6F7420256495
:10530C000A00000028736C6565705F74696D655FD9
:10531C0076616C69642873746172745F7469636B11
:10532C002C20656E645F7469636B2C204F4E455F57
:10533C005345434F4E445F414C49474E4544292009
:10534C0069732066616C7365290000005465737481
:10535C00696E67206E6F726D616C20657870697212
:10536C006174696F6E206F66206B5F736C6565701E
:10537C0028290A0054657374696E673A2074657342
:10538C00742074687265616420736C656570202B81
:10539C002068656C70657220746872656164207732
:1053AC00616B65757020746573740A004641494CD5
:1053BC00000000002573202D2025734025642E202D
:1053CC0000000000202A2A2A206B5F736C65657030
:1053DC00282920736C65707420666F7220256420F8
:1053EC007469636B73206E6F742025642E0000004B
:1053FC00202A2A2A206B5F77616B6575702829201B
:10540C00746F6F6B20746F6F206C6F6E6720282524
:10541C0064207469636B73290A000000546573740B
:10542C00696E673A20746573742074687265616480
:10543C0020736C656570202B20697372206F666613
:10544C006C6F61642077616B657570207465737423
:10545C000A00000054657374696E673A20746573B2
:10546C00742074687265616420736C656570202BA0
:10547C00206D61696E2077616B6575702074657342
:10548C0074207468726561640A000000202A2A2A5C
:10549C00206B5F77616B657570282920746F6F6B5B
:1054AC0020746F6F206C6F6E6720282564207469E0
:1054BC00636B7329206174204C4153540A00000023
:1054CC002E2F74657374732F6B65726E656C2F73EE
:1054DC006C6565702F7372632F6D61696E2E63003E
:1054EC000A20202020417373657274696F6E2066E8
:1054FC0061696C65642061742025733A25643A20D7
:10550C0025733A2025730A00640C00801C0D008062
:10551C001C0D0080580C0080640C0080040D008071
:10552C00100D0080BC550080DC550080F8550080C3
:10553C000C5600801856008030560080756E6B6ECD
:10554C006F776E00457863657074696F6E20636168
:10555C0075736520257320282564290A0000000036
:10556C00ADBAADDEADBAADDEADBAADDEADBAADDE67
:10557C00ADBAADDEADBAADDEADBAADDEADBAADDE57
:10558C00ADBAADDEADBAADDEADBAADDEADBAADDE47
:10559C00ADBAADDEADBAADDEADBAADDEADBAADDE37
:1055AC00ADBAADDEADBAADDEADBAADDEADBAADDE27
:1055BC00496E737472756374696F6E206164647282
:1055CC00657373206D6973616C69676E6564000047
:1055DC00496E737472756374696F6E204163636591
:1055EC007373206661756C7400000000496C6C6507
:1055FC0067616C20696E737472756374696F6E0089
:10560C00427265616B706F696E7400004C6F6164FF
:10561C002061646472657373206D6973616C696772
:10562C006E6564004C6F6164206163636573732005
:10563C006661756C740000002A2A2A2A204B657258
:10564C006E656C20416C6C6F636174696F6E204683
:10565C0061696C75726521202A2A2A2A0A000000C9
:10566C002A2A2A2A2A204B65726E656C204F4F50CD
:10567C005321202A2A2A2A2A0A0000002A2A2A2A06
:10568C002A204B65726E656C2050616E6963212017
:10569C002A2A2A2A2A0A00002A2A2A2A20556E6B2C
:1056AC006E6F776E20466174616C204572726F72FA
:1056BC0020256421202A2A2A2A0A000043757272A6
:1056CC00656E7420746872656164204944203D20C5
:1056DC0025700A4661756C74696E6720696E737407
:1056EC0072756374696F6E20616464726573732084
:1056FC003D20307825780A202072613A20307825B8
:10570C0078202067703A2030782578202074703A01
:10571C002030782578202074303A20307825780A8B
:10572C00202074313A2030782578202074323A20A9
:10573C0030782578202074333A2030782578202052
:10574C0074343A20307825780A202074353A203089
:10575C00782578202074363A2030782578202061FE
:10576C00303A2030782578202061313A2030782565
:10577C00780A202061323A20307825782020613355
:10578C003A2030782578202061343A2030782578FA
:10579C00202061353A20307825780A202061363A6D
:1057AC002030782578202061373A20307825780A07
:1057BC000000000049535200657373656E74696193
:1057CC006C2074687265616400000000466174614D
:1057DC006C206661756C7420696E202573212053D2
:1057EC0070696E6E696E672E2E2E0A0046617461AA
:1057FC006C206661756C7420696E207468726561CA
:10580C0064202570212041626F7274696E672E0AC4
:10581C000000000053707572696F757320696E74A7
:10582C006572727570742064657465637465642147
:10583C00204952513A2025640A0000002E2F617233
:10584C0063682F726973637633322F636F72652FBF
:10585C007468726561642E63000000002828282893
:10586C007072696F726974792929203D3D20313538
:10587C00202626207A5F69735F69646C655F7468A3
:10588C007265616428287468726561645F66756E00
:10589C0063292929207C7C202828283135202D209B
:1058AC003129203E3D2028282D3136292929202632
:1058BC00262028287072696F726974792929203E14
:1058CC003D2028282D3136292920262620282870ED
:1058DC0072696F726974792929203C3D2028313511
:1058EC00202D203129292900415353455254494F29
:1058FC004E204641494C205B25735D20402025738A
:10590C003A25640A0000000009696E76616C6964CE
:10591C00207072696F7269747920282564293B2084
:10592C00616C6C6F7765642072616E67653A2025D7
:10593C006420746F2025640A000000002E2F6C690F
:10594C00622F6F732F6173736572742E6300000086
:10595C00402025733A25643A0A0000007561727480
:10596C00300000007379735F636C6F636B00000031
:10597C002E2F696E636C7564652F7370696E6C6F16
:10598C00636B2E68000000007A5F7370696E5F6C49
:10599C006F636B5F76616C6964286C290000000092
:1059AC0009526563757273697665207370696E6CE4
:1059BC006F636B0A000000007A5F7370696E5F752D
:1059CC006E6C6F636B5F76616C6964286C29000088
:1059DC00094E6F74206D79207370696E6C6F636BF8
:1059EC00210A0000285A0080B8530080A45A008075
:1059FC004641494C4544000050524F4A45435420BF
:105A0C00455845435554494F4E2025730A00000014
:105A1C005355434345535346554C00005041535343
:105A2C000000000052756E6E696E672074657374A9
:105A3C002073756974652025730A00003D3D3D3D5A
:105A4C003D3D3D3D3D3D3D3D3D3D3D3D3D3D3D3D7A
:105A5C003D3D3D3D3D3D3D3D3D3D3D3D3D3D3D3D6A
:105A6C003D3D3D3D3D3D3D3D3D3D3D3D3D3D3D3D5A
:105A7C003D3D3D3D3D3D3D3D3D3D3D3D3D3D3D0A7D
:105A8C00000000007374617274696E672074657332
:105A9C0074202D2025730A00534B49500000000040
:105AAC002573202D2025730A0000000054657374A3
:105ABC00207375697465202573206661696C656453
:105ACC002E0A000054657374207375697465202563
