:0200000480007A
:100000009702000093820201739052306F1010012A
:10001000130101FB2320110023223100232441007E
:100020002326510023286100232A7100232CC101BB
:10003000232ED1012320E1032322F1032324A10253
:100040002326B1022328C102232AD102232CE10254
:10005000232EF1022320010523221105F32210345F
:1000600023245104F322003023265104EF00002002
:100070001303000063160504F3222034B703008045
:100080009383F3FFB3F272001303B000638A62003C
:100090001305010097000000938040146F10006961
:1000A000832281049382420023245104978200001A
:1000B0009382822203A30200631403006F000009ED
:1000C00093020100979300009383838703A1430069
:1000D000130101FF2320510003AE0300130E1E0085
:1000E00023A0C30163080300970000009380C003AE
:1000F0006F10806C73252034B70200809382F2FF6A
:1001000033755500EF008015977200009382028DC1
:1001100013153500B382A20003A5020003A3420019
:10012000E700030017930000130383818323030078
:100130009383F3FF232073008322010013810200C5
:1001400083238300032E030263087E089782000046
:100150009382027F03A38200232683022328930233
:10016000232A2303232C3303232E43032320530565
:10017000232263052324730523268305232893055F
:10018000232AA305232CB3052324230297830000ED
:100190009383830E03AE03002326C30703A3020247
:1001A00023A46200032183020324C30283240303E4
:1001B0000329430383298303032AC303832A0304F4
:1001C000032B4304832B8304032CC304832C0305D8
:1001D000032D4305832D83058322810473901234FC
:1001E0008322C104739002308320010083214100E7
:1001F000032281008322C1000323010183234101E3
:10020000032E8101832EC101032F0102832F41029E
:10021000032581028325C1020326010383264103AE
:10022000032781038327C103032801048328410492
:100230001301010573002030730000009782000055
:100240009382027003A382008323C3061375850083
:10025000F3220530138503006780000013031000AC
:10026000B312A30073B3423467800000F32220343A
:1002700037030080B3F262001305000063840200BC
:08028000130515006780000062
:100288006300060293070002B387C740634CF0007F
:10029800130506FE1307000033D5A50093050700D4
:1002A8006780000033D7C5003355C500B395F50006
:1002B8003365B5006FF09FFE9387050013080600AD
:1002C8001387060013030500639606289778000035
:1002D8009388488963F6C50E370701006378E60CF2
:1002E8001307F00F3337C70013173700B356E6006C
:1002F800B388D80083C608003387E6009306000257
:10030800B386E640638C0600B397D7003357E50001
:100318003318D600B365F7003313D5001355080119
:1003280033F7A50213160801135606019356030165
:10033800B3D5A50213170701B366D700B307B602F2
:100348001387050063FEF600B38606011387F5FFE1
:1003580063E8060163F6F6001387E5FFB386060136
:10036800B386F640B3F7A602131303011353030130
:10037800B3D6A6029397070133E36700B305D60205
:1003880013850600637CB300330368001385F6FF0A
:10039800636603016374B3001385E6FF131707014F
:1003A8003367A700930500006F00400EB7060001F1
:1003B80013070001E36CD6F2130780016FF01FF3F7
:1003C800631606009306100033D8C602B70601006C
:1003D8006372D80C9306F00F63F4060113078000CC
:1003E800B356E800B388D80083C60800B386E60091
:1003F800130700023307D7406318070AB38707417A
:1004080093051000135608019318080193D80801A2
:100418009356030133F7C702B3D7C702131707016F
:10042800B366D7003385F8021387070063FEA6007A
:10043800B38606011387F7FF63E8060163F6A60093
:100448001387E7FFB3860601B386A640B3F7C60253
:100458001313030113530301B3D6C602939707017D
:1004680033E36700B388D80213850600637C130161
:10047800330368001385F6FF636603016374130191
:100488001385E6FF131707013367A7001305070055
:1004980067800000B706000113070001E362D8F483
:1004A800130780016FF0DFF33318E800B3D5D700E6
:1004B8003313E500B356D50013550801B397E70089
:1004C80033F7A502B3E8F6009317080193D707019D
:1004D80013D60801B3D5A502131707013367C70060
:1004E800B386B70213860500637ED700330707017A
:1004F8001386F5FF636807016376D7001386E5FF67
:1005080033070701B306D74033F7A60293980801CB
:1005180093D80801B3D6A60213170701B385D702EB
:10052800B36717011387060063FEB700B387070197
:100538001387F6FF63E8070163F6B7001387E6FF42
:10054800B3870701B387B74093150601B3E5E50004
:100558006FF05FEB63E6D5183707010063F4E60434
:100568001308F00F3337D8001317370033D8E600D5
:10057800976500009385055FB385050103C80500ED
:10058800930500023308E800B38505416396050228
:1005980013071000E3ECF6EE3335C50013471500DA
:1005A8006FF0DFEEB705000113070001E3E0B6FCCA
:1005B800130780016FF09FFB33570601B396B6000F
:1005C800B366D70093DE060133D70701B378D703A4
:1005D800B397B700335805013363F80093970601C2
:1005E80093D70701135803013316B6003357D703BF
:1005F8009398080133E80801338FE702130E0700C8
:10060800637EE8013308D800130EF7FF6368D8004B
:100618006376E801130EE7FF3308D8003308E84192
:10062800B378D8033358D80393980801B38E0703D7
:100638009317030193D70701B3E7F80013070800DE
:1006480063FED701B387D7001307F8FF63E8D70025
:1006580063F6D7011307E8FFB387D700131E0E010F
:10066800B387D741B70E01003367EE001388FEFF4A
:1006780033730701935807013378060113560601AF
:10068800330E03033388080393560E013303C30262
:1006980033030301B3866600B388C80263F4060116
:1006A800B388D80113D60601B308160163E6170309
:1006B800E39A17CFB70701009387F7FFB3F6F60061
:1006C80093960601337EFE003315B500B386C60146
:1006D80093050000E37CD5DA1307F7FF6FF09FCC92
:1006E80093050000130700006FF05FDA67800000D1
:1006F800130101FF23248100378400801304042D93
:100708008327040023261100938717002320F40071
:10071800EF40903D8305E50093851500EF40806C20
:10072800EF404079832704008320C1009387170096
:100738002320F400032481001301010167800000D5
:1007480037150080930500001305C58E6F10C0088B
:100758006F208077130101FF2324810037840080F4
:10076800131545001304041F3304A4008325C40093
:100778000326440037750080130505D4232611008D
:10078800EF10907893050400032481008320C100B2
:10079800378500801305C548130101016F20907447
:1007A800130101FE93050500232C810013040500A5
:1007B8003775008013050565232E1100232A910043
:1007C8002328210123263101EF101074EF50D05A4D
:1007D800930905001305040013890500EF40100D67
:1007E800EF509059B309354133353501B38525416B
:1007F800B384A5403775008013058567EF10D07066
:100808009357F44163C2F4026394970063EE89003E
:1008180013074401333487003304F40063669400FB
:10082800639884046376370537760080B77500804F
:1008380037750080938545691305C5699306E02BD4
:100848001306C6CBEF10506C032481018320C1012D
:100858008324410103290101938509008329C100EB
:10086800377500801305C56A130101026F10D0693E
:10087800032481018320C10183244101032901014B
:100888008329C100378500801305C5311301010292
:100898006F40D032130101FF232481001304803EEE
:1008A80033048502377500801305C5CF2326110050
:1008B80093050400EF10506513050400EF40105F26
:1008C80037750080130505D2EF10106403248100EA
:1008D8008320C100378500801305C531130101014C
:1008E8006F40D02D130101FF23248100378400803D
:1008F80013040431232291008324040023261100C9
:10090800638C0400930710006386F4029307F0FFDA
:100918002322F4006F00C000EF40101D2324A40020
:100928008320C100032481008324410013010101B5
:1009380067800000EF40505563060500232404003B
:100948006FF01FFEB797008083A747948387E7005F
:1009580063D60700232494006FF09FFC93072000C0
:100968002324F4006FF0DFFB130101FD232E110097
:10097800232C810023240103232611036316050475
:100988001386060037750080930607001387050055
:10099800B7750080138407009385C56C930781029F
:1009A8001305056F2326F100EF1010568325C100AB
:1009B80013050400EF105052378500801305C586D3
:1009C800EF109054EF20404D8320C1010324810192
:1009D8001301010367800000130101FE232E11009B
:1009E800232C8100232A9100232821012326310169
:1009F8002324410123225101EF40100F93050000E9
:100A0800EF40403E3775008013054543EF10D04F47
:100A180037840080EF40500D13040431930A050019
:100A28002320040023220400EFF09FD10325440073
:100A380037790080B7740080377A0080B7790080F2
:100A480093074A46130709C81386C46C9385C94798
:100A58009306401C13351500EFF01FF103258400A1
:100A6800B7770080B775008033055541130709C86B
:100A78001386C46C9306701C9385054B938787492E
:100A880013351500EFF05FEE377500801305454EFE
:100A9800EF109047930710002320F400232204004E
:100AA800EFF01FCA0325440093074A46130709C8F5
:100AB8001386C46C9385C9479306E01C133515004B
:100AC800EFF09FEA03258400B7770080B7750080B0
:100AD800130709C81386C46C938787509306101DA3
:100AE8009385855213351500EFF01FE837750080A0
:100AF8001305C554EF105041EF4010391345150048
:100B0800B7770080B7750080130709C81386C46CCF
:100B1800938707589306401D9385055A1375F50F5B
:100B2800EFF09FE4B797008083A7479403248101DF
:100B38008320C1010388E7008329C100032A8100BB
:100B4800832A4100130709C81386C46C03290101CD
:100B5800832441011345F8FFB7770080B7750080FB
:100B68009387875B9306801D9385C55E1355F501B2
:100B7800130101026FF05FDF67800000130101FEBF
:100B880023282101232E1100232C8100232A9100E0
:100B98002326310123244101EF50901C130905003D
:100BA800EF50101CE30EA9FE13091900930400006E
:100BB80013040000EF50D01A6300250B93D7C4012B
:100BC800130570001314440033E48700EF10D03C81
:100BD800EF50101993944400130A050013090000FC
:100BE800930900006394240963123409EF505017E5
:100BF80013057000EF10503913040000930400002F
:100C08006312890863909908EF50901503248101B5
:100C18003305AA408320C10183244101032901012E
:100C28008329C100032A8100B777008037770080C5
:100C380037760080B775008093870761130787C6EA
:100C48009306C0171306C66C938505633335A00059
:100C5800130101026FF05FD19387140033B7970037
:100C680033048700938407006FF0DFF4EF50500FD0
:100C78009307190033B72701B30937011389070010
:100C88006FF05FF6EF50D00D9307140033B787006D
:100C9800B3049700138407006FF09FF66F20C022FB
:100CA800130101FEB7160080B795008037850080D4
:100CB8002322010023200100930840FF13080000AD
:100CC8009307000013070000938646CF1306002001
:100CD800938505D71305C541232E1100EF40D04B4E
:100CE8008320C1011301010267800000B7870080DB
:100CF8009387072D03A70700130101FE232C81000A
:100D08001304050037850080232E110013071700F0
:100D1800232A91002328210123263101232441017C
:100D28009305F0FF1305C53223A0E700EF40407795
:100D3800EF40805B93090500377A00803305A440B3
:100D4800B777008037840080B7740080B77500805B
:100D580013090431938747EA3335A00013078AC97A
:100D68009306A01E1386C46C938545ECEFF0DFBF95
:100D78002320090023220900EFF09F9C83274900C4
:100D88001304043113050000639807000325840049
:100D98003305354113351500B7770080B7750080E6
:100DA80013078AC91386C46C9306401F938505F2FE
:100DB800938707EFEFF05FBB930710002320F40041
:100DC80023220400EFF0DF978327840003254400E3
:100DD800B775008013078AC93365F500B7770080B7
:100DE8001386C46C938787F69306A01F938585F9AD
:100DF80013351500EFF05FB7EF40100913451500E4
:100E0800B7770080B775008013078AC91386C46C4A
:100E1800938707FD9306C01F9385055A1375F50F31
:100E2800EFF09FB4B797008083A74794032481010C
:100E38008320C1010385E700032901018329C1003B
:100E480013078AC91386C46C032A810083244101CD
:100E5800B7770080B7750080938707009306F01F67
:100E6800938545021355F501130101026FF0DFAFB9
:100E7800130101FEB7160080B79500803785008002
:100E880093070000130740019386C68913060018CC
:100E98002322010023200100930840FF13080000CB
:100EA800938505F71305054A232E1100EF40D02E30
:100EB80037850080930580021305C531EF40405EF9
:100EC8008320C101B77700803777008037760080AC
:100ED800B7750080938747111307C7CC9306802EF8
:100EE8001306C66C938545141335150013010102CA
:100EF8006FF09FA7130101FE232A9100B784008099
:100F08009384042D232E1100232C810023A0040098
:100F1800EF40803D93050000EF30D06C37840080AF
:100F28001305C4321306F0FF93050000EF40803C20
:100F3800B7160080B795008037850080930840FF7A
:100F4800232201002320010013080000930700005A
:100F5800130700009386C63D130600209385059766
:100F68001305C533EF40502303A80400B77700806A
:100F7800377700801305F8FF37760080B775008053
:100F88009387873E1307C7CE9306C0371306C66CF0
:100F98009385054113351500EFF01F9D1305C432E5
:100FA800EF40C0411305C432EF4040411305C4323D
:100FB800032481018320C10183244101130101021B
:100FC8006F40C03F130101F7232E3107232C41073F
:100FD800B7990080378A0080B7060080930840FFE1
:100FE8001308000093070000130720039386867AEE
:100FF80013060018938509F713050A4A23220100EE
:101008002320010023261108232481082322910884
:1010180023202109232A5107232861072326710742
:1010280023248107232291072320A107232EB1051A
:10103800EF40901637850080930540061305C531AB
:10104800EF40004637740080B7770080B77400809F
:10105800B7750080938747151307C4CD93063030C2
:101068001386C46C9385C51813351500EFF0DF8F10
:1010780037750080B78A00801305051A370D008080
:10108800138B0A1F930B0A4A138909F7EF10C067DD
:10109800938909F7130A0A4A938A0A1F130C000056
:1010A800930D7000930C0D0083A74A0013070C00E2
:1010B800938509002322F10013050A00232001006B
:1010C800930850FF13080000930700009306CD759E
:1010D80013060018130C1C00EF40100C938A0A0129
:1010E800130A0A0793890918E310BCFD37830080A7
:1010F800930D0000377D0080B77A0080377A008032
:10110800130C03001305C3489305E02EEF20805EFF
:101118009309050093070D1D1307C4CD93063031BD
:101128001386C46C93850A203335A000EFF0DF8363
:1011380003A88900377E008093058E243305B841C3
:1011480093880D0093070A211307C4CD93067031C5
:101158001386C46C13351500EFF01F8103A64900F0
:1011680083A5C9003775008013050527EF10C059FE
:10117800377E0080938D1D0093077000232CC101DA
:1011880037830080E390FDF81305C3489305E02EEC
:10119800EF204056377A0080B77A008093070A2AF2
:1011A8001307C4CD930600321386C46C9385CA2CEA
:1011B80013351500EFF04FFB377500801305C52D6B
:1011C800EF108054B775008013060001938585B52C
:1011D80013054102EF10D02F930D410313030B00A9
:1011E800130D0000930970008327430013070D00B7
:1011F800930509002322F10013850B002320010029
:10120800930850FF13080000930700009386CC75DD
:1012180013060018232E6100EF4000780323C10154
:1012280023A0AD00130D1D0013030301938B0B07BF
:1012380013090918938D4D00E3183DFBB71B0000F7
:1012480013090B0093090000130D0000930C7000A4
:10125800938BEBAB9397290013070105B307F700AE
:1012680083A747FD638EA71193850B001305CC4810
:10127800EF204048B7770080B7750080930D0500D0
:101288009387071D1307C4CD9306E0341386C46CF7
:10129800938505203335A000EFF00FED03A88D00EE
:1012A80083258101B777008033050D419387072196
:1012B800930620351386C46C938585241335150051
:1012C80093080D001307C4CDEFF00FEA83A68D0035
:1012D80003A64D0083A5CD00B77700801385C730DE
:1012E800EF108042130D1D0013090901E3149DF747
:1012F8001385C9FFB7770080B77500801307C4CD81
:101308001386C46C93880900938787379306B03592
:10131800130840009385453B13351500EFF0CFE4E3
:101328009305E02E1305CC48EF20C03C1307C4CD2D
:10133800032481088320C108032901088329C107E0
:10134800032B0107832BC106032C8106832C41063E
:10135800032D0106832DC10593070A2A1386C46C41
:10136800032A8107832441089385CA2C832A4107CD
:101378009306F03513351500130101096FF0CFDE20
:10138800032649008325C900B777008013854734B1
:1013980093060D00EF10403713070B00930700006A
:1013A80083268700638AA60193871700130707011E
:1013B800E39897FF6FF05FEB1307010593972700FA
:1013C800B307F70003A547FE93891900EF4000779C
:1013D8006FF05FF1130101FD23248102378400803F
:1013E8001304042D83270400232E3101B7890080BC
:1013F800938717009305F0FF1385C932232611023E
:101408002322910223202103232C41012320F400CD
:10141800EF400009EF30506D130A0500B706008051
:10142800B795008037850080930830FF13080000C7
:101438002322010023200100930700001307000066
:101448009386866F13060020938505B71305C53A62
:1014580023200400EF40405403250400377900801E
:10146800B7740080B7770080B77500801307C9CAC2
:101478001386C46C9387C7D693068024938505DAB0
:1014880013351500EFF04FCEEF30D02203280400BB
:10149800B7770080B77500801307C9CA1386C46C74
:1014A80033350001938747DC930620259385C5DFF4
:1014B800EFF08FCB03280400B7770080B775008062
:1014C8001307C9CA1386C46C132528009387C7E17C
:1014D80093066025938545E5EFF00FC98305EA007B
:1014E80013050A009385F5FFEF30D00FEF30901CFD
:1014F80003250400B7770080B77500801305F5FF52
:101508001307C9CA1386C46C9385054113351500A2
:10151800938747E793060026EFF00FC5032481025F
:101528008320C1028324410203290102032A810185
:101538001385C9328329C1019305F0FF1301010303
:101548006F30107637850080130101FF1306F0FF16
:10155800930500001305C53123261100EF3090597B
:101568003785008093050000130600001305057BEE
:10157800EF500004378500801305C548EF20C014DC
:101588008320C100B7850080377500809385851258
:1015980013058564130101016F101016130101FF73
:1015A8002326110023248100930760006304F502B9
:1015B800EF40800D63040502EF40000D631605043B
:1015C800B78500809385859C378500801305C59D68
:1015D800EF108013EF10401A6FF0DFFFEF40C00BE1
:1015E800E31C05FC379400801304C493832584000E
:1015F800378500801305C59FEF100011032584006F
:10160800EF40C0536FF01FFDB78500809385459C60
:101618006FF09FFB130101FB232481042322910413
:101628002326110493076000930405001384050022
:1016380063E0A70E3777008093172500130787719B
:10164800B387E70083A70700678007003785008016
:1016580013058584EF10400BEF30104983274404AD
:10166800832804010328C4002328F10283270404E3
:1016780003274400832604002326F1028327C4039A
:1016880003268404930505002324F1028327840399
:10169800378500801305C58C2322F1028327440374
:1016A8002320F10283270403232EF1008327C40299
:1016B800232CF10083278402232AF1008327440284
:1016C8002328F100832704022326F1008327C4017D
:1016D8002324F100832784012322F1008327440176
:1016E8002320F10083278400EF10000293050400F3
:1016F80013850400EFF09FEA3785008013050587FE
:101708006FF05FF5378500801305C5886FF09FF48B
:1017180037850080938504001305858AEF00D07E05
:101728006FF09FF3130101FF23248100232611008A
:1017380013040500732620341316160013561600DA
:101748009307500063E8C702377700809317260095
:1017580013074773B307F70083A5070037750080A1
:1017680013054575EF00507A930504001305000032
:10177800EFF05FEAB77500809385C5746FF01FFEC0
:10178800130101FF23261100F3252034378500803B
:101798009395150093D51500130545A2EF00D07653
:1017A800B77500809385057713054000EFF09FE635
:1017B800B78700809387472D03A70700630C0700AE
:1017C80003A3070023A00700B787008003A5872D80
:1017D800670003006780000093078000F3B70730B5
:1017E80037870080232AA72C37870080232CB72C23
:1017F8007300000093F78700F3A7073067800000A5
:10180800130101FF23261100EF10502AEF00D079B1
:10181800EF109030179100001301419DB71200009E
:101828009382028033015100EFF09FFD6F00900812
:10183800130101FD23248102232291022320210385
:10184800232E3101232C4101232A51012328610130
:1018580023267101138B07002326110223248101FB
:101868009307F0009304050013840500930906000C
:10187800138A0600930B0700930A080013890800CF
:10188800639AF808B73700809387C727639AF608E2
:1018980083260103930509001385040013064000FD
:1018A800EF309071938509FBB305B400B7270000AA
:1018B80023AE040423A0040693F505FF9387078845
:1018C80023A6F504B72700808320C10203248102E0
:1018D8009387478323A4450323A6750323A8650399
:1018E80023AA550323A4F50423A4B402032901025F
:1018F800832441028329C101032A8101832A4101EA
:10190800032B0101832BC100032C81001301010368
:1019180067800000938608019307E001E3FAD7F691
:10192800378C0080B7850080378500801306CCA4EB
:10193800930680019385C5A6130585AFEF00D05C9B
:101948003785008093050900930600FF1306E00021
:10195800130585B1EF00505B930580011305CCA4F6
:10196800EF00505E6FF0DFF29307C0003387F50297
:101978008327C500B387E7000307B5006354B700A2
:1019880083A70700130700023347E6021375F60121
:1019980013172700B387E70023A0F600678000002D
:1019A800130101FE9306C100232E1100EFF0DFFBA7
:1019B8000327C100930710003395A700832707006A
:1019C8008320C101B3E7A7002320F7001301010218
:1019D80067800000130101FE9306C100232E110049
:1019E800EFF09FF80327C100930710003395A70075
:1019F800832707008320C1011345F5FF33F5A700AE
:101A08002320A700130101026780000083274500F7
:101A180003588500130101FF232481003308F802CD
:101A280013040500032505008348A4001307F0FFED
:101A38002326110023229100A305E400930500004A
:101A48001303C00033050501130EF001930E0002C5
:101A580063C21503930400008357840063C4F4062B
:101A68008320C10003248100832441001301010164
:101A7800678000003357F8020326C400B386650266
:101A8800B306D6001386460023A2C60023A4C600C8
:101A9800634EEE00A305B40093D727009387370061
:101AA80093F7C7FF938515006FF09FFA1307F701A7
:101AB8003347D70323A0A600131727003305E500F3
:101AC8006FF09FFD832744001386040093050000F0
:101AD8003387F40283270400130504009384140059
:101AE800B387E7000327C4009306470023A0D70065
:101AF8008326870023A2D7008326870023A0F60029
:101B08002324F700EFF0DFE96FF01FF5130101FB65
:101B180023248104232671032326110423229104FC
:101B280023202105232E3103232C4103232A51038B
:101B38002328610323248103232291032320A10363
:101B4800232EB10113040105034EA50093080000DC
:101B580093172E009387F70093F7077F3301F1401F
:101B680083274500930B010013830B0093873700ED
:101B780093F7C7FF23A0FB00138CF8FF63D4C803B7
:101B8800638C08008327C3FF93D727009387370008
:101B980093F7C7FF2320F300130343008327C3FFF2
:101BA80063FAB7049307F0FF631AFC0423200700C5
:101BB800130540FF130104FB8320C104032481049F
:101BC80083244104032901048329C103032A8103CF
:101BD800832A4103032B0103832BC102032C8102B7
:101BE800832C4102032D0102832DC101130101053C
:101BF80067800000938818006FF01FF8834705017D
:101C08001309000093F71700638807001309800081
:101C180073390930137989009307C000B307FC02B0
:101C2800232EE4FA138D0600930C06009304050096
:101C3800130A0C00138747008327C500B387E70002
:101C48001307F0FF83A90700638C371783A70900E0
:101C580003A74900931A2A00B38A5B012320F700DF
:101C680023A2E70023A0090023A2090083A70400F8
:101C780003A60A0093050A00B387F94033C6C702D2
:101C880013850400130A1A00EFF0DFD49306C0008E
:101C98009307FAFF63C6870583C7040193F7170004
:101CA80063840700732909308327C4FB130540FFA9
:101CB80023A03701E38009F083A7040013182C0040
:101CC800B38B0B01B389F94083A70B0023A08C01C8
:101CD80013050000B3C9F90223203D016FF09FED01
:101CE80083AD040083A70A00B30EDA02B38DB941AD
:101CF80013071000B3CDFD02939D2D0003AB4A00DE
:101D08003306B70193050A00330EEB02138504006E
:101D18002328D4FB232CE4FA130BFBFF338EC901D1
:101D2800232AC4FBEFF0DFC7032E44FB83A704007C
:101D380003A64400330B6E01330BFB4083D78400AA
:101D4800032784FB832E04FBB387C7029306C000D6
:101D580093084000130380006374FB0283A7C40048
:101D6800B387D701138647002320CE0003A6870038
:101D78002322CE0003A687002320C60123A4C7017F
:101D880013071700E31C17F783C7040193F717001D
:101D9800639A070013090000130A1A00938A4A007D
:101DA8006FF01FEF7329093083C7040193F71700F9
:101DB800E38207FE73390330137989006FF0DFFD82
:101DC800130AFAFF938749FFE31EEAE69309000026
:101DD8006FF09FEC130101FA232C810423263105AF
:101DE800232E7103232E1104232A9104232821056D
:101DF800232441052322510523206105232C810337
:101E0800232A91032328A1032326B10313040106DF
:101E18008346A500930B050013081000939626002F
:101E28009386F60093F6067F3301D140832645005A
:101E380093090100138509009386360093F6C6FFBF
:101E480023A0D9001305450063F4050D83C60B01D3
:101E5800138C05001309060093F61600930400007E
:101E68006388060093048000F3B4043093F484007C
:101E7800B78A0080130DC000930D800063580C0AC8
:101E8800B7840080B7850080378500801386C4B486
:101E98009306000C938545BB130585AFEF00D0066C
:101EA80037850080130505B8EF0010061385C4B404
:101EB8009305000CEF0010099304F0FF83C70B0192
:101EC80093F717006386070093F48400F3A40430A3
:101ED800130104FA8320C1050324810583244105E5
:101EE800032901058329C104032A8104832A4104A3
:101EF800032B0104832BC103032C8103832C41038F
:101F0800032D0103832DC102130101066780000020
:101F18008326C5FF1308180093D62600938636003B
:101F280093F6C6FF2320D5006FF0DFF193162C003F
:101F3800B386D90003AA060003D68B0083A54B00FD
:101F4800B306490303A80B00130BFAFF3306B602C6
:101F5800B30CD800B306DB0063ECC602B787008079
:101F6800938507B6B7870080138587AF9306400A25
:101F78001386CAB4EF004079B78700801385C7B7C6
:101F8800EF0080789305400A1385CAB4EF00807B80
:101F98001306090093050C0013850B00EFF05FA0F2
:101FA800B306AC0303A6CB00B306D60013864600DF
:101FB80023A0CC0003A6860023A2CC0003A686009B
:101FC8002320960123A4960183C60B0193F61600DD
:101FD8006394060C93040000E3020CEE9306C4FB22
:101FE8001306090093050C0013850B00EFF0DF972B
:101FF80093064000B346D5020326C4FB032506001A
:10200800939626003355D5001375F5009306F00016
:10201800E316D5EA13080000137EC9FF1303400036
:1020280083D58B0003A54B0033060E01B308460386
:10203800B385A502B386680163F6B60493050C0060
:1020480013850B002322C4FB232404FB232614FB43
:10205800EFF05F9883A60B008328C4FA032E44FA96
:10206800032884FAB386160183A5460003A6060052
:102078001303400023A0C5002322B60023A00600B6
:1020880023A2060013081800E31C68F8130CFCFFD1
:10209800334909036FF09FDEF3A4043083C60B01B4
:1020A80093F61600E38806F2F3B40D3093F4840037
:1020B8006FF09FF2130101FF9307050013850500D8
:1020C800930506001386060023261100E780070003
:1020D800EF308021EF309026130500006780000064
:1020E800130101FF23248100130405001305500484
:1020F800232611002322910093840500E7000400A1
:102108009385040013052005E70004001303040069
:10211800032481008320C1009385040083244100A7
:1021280013052005130101016700030083A70500BB
:102138009387170023A0F500B787008003A307261D
:1021480067000300130101FB23248104232E3103BC
:10215800232C4103232A5103232861032326110436
:10216800232291042320210523267103232481039C
:10217800232291032320A103232EB101130A050072
:10218800938A050093090600138B060013041000B8
:102198006354E0001304070093071000130C0002B7
:1021A8006314FB00130C0003B7D49A3B1309100007
:1021B800930CA000130700009384F49F930D200054
:1021C800130DA000938B14006314070063F2340905
:1021D80033D5790393850A001309190013050503FC
:1021E800E7000A0013071000938CFCFF9307100008
:1021F800B3F97903B3D4A403E396FCFC93850A00EE
:1022080013850903E7000A009307300033042441CB
:10221800630AFB068320C104032481048324410448
:10222800032901048329C103032A8103832A410363
:10223800032B0103832BC102032C8102832C41024F
:10224800032D0102832DC1011301010567800000E0
:10225800E34C94F9E3EA6DF993850A0013050C0041
:102268002326E100E7000A00130919000327C1002B
:102278006FF09FF793850A0013050002E7000A0034
:102288001304F4FFE34880FE6FF0DFF8B78700809F
:1022980023A0A72667800000130101FB23248104E3
:1022A8002322910423202105232E3103232C4103CB
:1022B800232A5103232291032320A103232EB101B2
:1022C8002326110423286103232671032324810371
:1022D8001304050093840500930A0600138D060075
:1022E800130A00001309F0FF93090000930C000083
:1022F800B70D008003C50A00631005048320C104DC
:102308000324810483244104032901048329C1038C
:10231800032A8103832A4103032B0103832BC10270
:10232800032C8102832C4102032D0102832DC1015C
:102338001301010567800000639E0C00930650029C
:10234800630AD53693850400E7000400938A1A00CF
:102358006FF05FFA93064006630ED51063E2A60697
:102368009306900363EAA602930610036374D50EDE
:102378009306D002630AD534930700036300F50C73
:10238800130750026312E5029385040013055002F7
:10239800E70004006F00C01593068005630ED51A88
:1023A80013073006630EE52E9385040013055002CB
:1023B800E70004009385040003C50A006FF05FFD81
:1023C80093060007630AD51663E0A60293069006F3
:1023D8006302D50A9306C006630AD50893068006E9
:1023E800E306D5F66FF05FFC930650076306D51039
:1023F80063EEA60213073007E318E5FA032C0D0075
:10240800130B4D00930B0C0003C50B006318052636
:10241800930730006398F900B38B8B41B30B794174
:1024280063467027130D0B006F00800C930680071E
:102438006304D5129306A0076FF09FFA635E090044
:1024480063880928130905FDE39209F09309200020
:102458006FF0DFEFE34809FE9306A0003309D902C5
:10246800130909FD330925016FF01FFE130A1A002D
:102478006FF0DFED63120A0403260D00130D4D0003
:1024880063500602938504001305D0022320C1007F
:10249800E7000400032601001309F9FF3306C040D2
:1024A80013070900938609009385040013050400A7
:1024B800EFF05FC96F00C00313071000E30EEAFADC
:1024C80093077D0013F787FF03260700832647003D
:1024D800130D87003307B6013337C7003307D7001A
:1024E800E30007FA9385040013050400EFF05FBFCB
:1024F800930C00006FF09FE563180A0003260D0097
:10250800130D4D006FF0DFF913071000E308EAFE22
:1025180093077D0013F787FF130D87000326070035
:1025280003274700E31007FCB707008093C7F7FFAE
:10253800E3F8C7F66FF01FFB93850400130500034B
:10254800E70004009385040013058007E7000400F2
:1025580013098000930910009306100063C2460B0C
:1025680083270D0023240100130D4D002322F100C1
:10257800130C0001930B00002320010093080001B5
:102588000325410083258100138BF8FF13162B00C8
:1025980023261101EFD0DFCE1375F5006318050867
:1025A8008327010093060003639807008328C1006E
:1025B800930710006396F8083385A6001315850164
:1025C8009385040013558541E7000400938B1B0095
:1025D80063180B0493063000930C0000E398D9D6D7
:1025E80013171900B30B7741E35470F19385040076
:1025F80013050002E7000400938BFBFF6FF0DFFE7A
:1026080093077D0093F687FF83A70600138D860046
:102618002322F10083A746002324F1006FF05FF521
:102628002320910193080B006FF09FF5930790000A
:1026380093067005E3E2A7F8930600036FF0DFF74F
:102648009307FCFF2326F100634C890193071000D0
:10265800639CF9009385040013050003E700040058
:10266800032CC1006FF01FFC93072000E39AF9FECA
:1026780093850400130500026FF05FFE9385040044
:10268800938B1B00E70004006FF01FD893850400AC
:1026980013050002E7000400938BFBFF6FF05FD87F
:1026A80003250D0093850400130B4D00E70004007B
:1026B8006FF05FD7130A00001309F0FF93090000B9
:1026C800930C10006FF09FC8930930006FF01FC87B
:1026D800930910006FF09FC7130101FE1306050050
:1026E8003725008093860500130545139305C1001F
:1026F800232E110023260100EFF01FBA8320C10109
:102708001301010267800000130101FC2322B102BA
:1027180093054102232E11002324C1022326D1024E
:102728002328E102232AF102232C0103232E11037B
:102738002326B100EFF05FFA8320C10113010104E1
:1027480067800000B785008037850080130101FF8E
:10275800938505B9130545BA1306E0012326110030
:10276800EFF09FFAB7750080938505771305600031
:10277800EFE05FEA6780000093078000F3A7073067
:102788007300501067800000930710003395A7006E
:102798007325453067800000930710003395A70024
:1027A800733545306780000093078000F3B7073022
:1027B800735040307350403467800000130101FFAC
:1027C80023248100232291003784008023261100CE
:1027D8009307A000930405001304C42D631CF5009F
:1027E800032504009305D0008327450083A74700ED
:1027F800E78007000325040093F5F40F83274500BD
:1028080083A74700E78007008320C10003248100D5
:10281800138504008324410013010101678000002F
:10282800130101FF23248100372400801305447C11
:1028380023261100EF00C05C1305447C03248100AB
:102848008320C100130101016FF05FA43785008068
:10285800130101FF130505BB23261100EF00D01754
:10286800B787008023AEA72CEFF09FFB8320C10021
:10287800130500001301010167800000B70710F07D
:1028880003A747F403A507F483A547F4E39AE5FEF5
:1028980067800000130101FE232C8100232E110004
:1028A800232A9100232821012326310123244101D1
:1028B80023225101130480007334043037890080C7
:1028C8001305092E13748400EF20D070631E0502CF
:1028D800B7840080B7850080378500809385C5BDA3
:1028E8009306E004138644BC130585AFEFF0DFE1DF
:1028F80037850080130545BFEFF01FE19305E0041D
:10290800138544BCEFF01FE41305092EB78400803B
:10291800EF20D0719384042CEFF05FF683A90400B4
:1029280083AA440013070500330535413337A70050
:10293800B385554137D601001306064C93060000AF
:10294800B385E540EFD05F97B7D701009387074C71
:10295800B387A702130A05001305092EB3893701A7
:10296800B3B7F900B387570123A0340123A2F400B9
:10297800EF20D068631E0502B7840080B785008009
:10298800378500809385C5C093061006138644BC1E
:10299800130585AFEFF05FD737850080130545C273
:1029A800EFF09FD693051006138544BCEFF09FD92E
:1029B80073240430032481018320C101832441014D
:1029C800032901018329C100832A410013050A0054
:1029D800032A8100130101026F309002130101FFE5
:1029E80023261100EFF09FE9B7D701009387074C22
:1029F800370710F0B307F5009306F0FF2326D7F446
:102A080033B5A7003305B5002324F7F42326A7F42C
:102A180013057000EFF05FD78320C1001305000095
:102A28001301010167800000639C0516130101FE74
:102A3800232E1100232C8100232A91002328210111
:102A4800232631019307F0FF6316F5003795000040
:102A58001305E5BCB79700001304F5FF9387E7BC9F
:102A680063DA87121384070093048000F3B40430F8
:102A7800378900801305092E93F48400EF209055C0
:102A8800631E0502B7890080B785008037850080FE
:102A98009385C5BD9306E004138649BC130585AF2D
:102AA800EFF09FC637850080130545BFEFF0DFC5FF
:102AB8009305E004138549BCEFF0DFC81305092E20
:102AC800EF20D056EFF09FDBB7D60100B787008024
:102AD8001386064C9387072C03A7070083A5470096
:102AE800B307C4029386F64B3384E6409306703EE0
:102AF800B3878700B307F500B3D7C7023305A740EC
:102B0800B387C7023305F50063C4A600B387C700BF
:102B1800B70610F03387E7001306F0FF23A6C6F4C4
:102B2800B337F700B387B70023A4E6F423A6F6F477
:102B38001305092EEF20904C631E05023784008090
:102B4800B7850080378500809385C5C09306100639
:102B5800130644BC130585AFEFF01FBB3785008013
:102B6800130545C2EFF05FBA93051006130544BC80
:102B7800EFF05FBDF3A404308320C1010324810179
:102B880083244101032901018329C10013010102A2
:102B980067800000E35A04EC130400006FF0DFECD8
:102BA80067800000130101FF232481002326110000
:102BB8002322910023202101130480007334043060
:102BC800378900801305092E13748400EF20904084
:102BD800631E0502B7840080B785008037850080B2
:102BE8009385C5BD9306E004138644BC130585AFE1
:102BF800EFF09FB137850080130545BFEFF0DFB0D8
:102C08009305E004138544BCEFF0DFB31305092EE8
:102C1800EF20D041EFF09FC6B787008083A4072C30
:102C2800B304954037D501001305054CB3D4A4026D
:102C38001305092EEF20903C631E0502378900809A
:102C4800B7850080378500809385C5C09306100638
:102C5800130649BC130585AFEFF01FAB378500801D
:102C6800130545C2EFF05FAA93051006130549BC8A
:102C7800EFF05FAD732404308320C100032481008A
:102C88001385040003290100832441001301010175
:102C980067800000130101FF23261100EFF01FBE1B
:102CA8008320C100130101016780000083470500EC
:102CB80003C705006394E700639607003385E74080
:102CC8006780000013051500938515006FF01FFE3F
:102CD800B347B50093F737006380070693070500ED
:102CE80013070000631AE60667800000E30E06FE7D
:102CF8009385150003C7F5FF938717001306F6FFA2
:102D0800A38FE7FE13F73700E31207FE93063000A0
:102D18003308E64063E60603135726009306C0FF10
:102D2800B306D70213172700B387E700B385E5007A
:102D38003306D6006FF0DFFA930705006FF09FFCAB
:102D4800B388E50083A808003388E7001307470025
:102D5800232018016FF0DFFB3388E50003480800E3
:102D6800B386E70013071700238006016FF09FF76B
:102D780093F6F50F9307050013F737006318070458
:102D880093F5F50F13978500B365B7001397050101
:102D9800B365B7003383C7001387070013083000F3
:102DA800B308E340636E18031357260093152700F2
:102DB800B387B7009305C0FF3307B7023307C700CF
:102DC8003387E7006394E70267800000E30E06FE9E
:102DD80093871700A38FD7FE1306F6FF6FF0DFF96E
:102DE80013074700232EB7FE6FF09FFB938717004A
:102DF800A38FD7FE6FF01FFD1305F0FF678000005B
:102E0800B787008023A2A72667800000130101FE70
:102E1800232C81008327850037840080232A910092
:102E280013048426B7840080232E1100232821014F
:102E3800232631019384442E930910002320040093
:102E48001309050023A03401E78007008327490000
:102E580023203401E7800700930720002320F40093
:102E68008327C900E7800700930730002320F40078
:102E78000324810123A004008320C101832441018C
:102E8800032901018329C100378500801305C57D09
:102E9800130101026F20805237850080130101FF62
:102EA800B78700801307F0FF1305C57D232611009F
:102EB80023A2E72EEF208050EF2000438320C1009B
:102EC800130101016F20904737850080130101FF2E
:102ED800B78700801307E0FF1305C57D232611007F
:102EE80023A2E72EEF20804DEF2000408320C10071
:102EF800130101016F209044130101FA232A910460
:102F0800B784008083A7842E232E1104232C8104E8
:102F18002328210523263105232441052322510591
:102F280023206105232E7103232C8103232A910377
:102F38002328A1032326B10363C40708378400802C
:102F48001306100093090500138C05001305C47DB2
:102F580093050000EF20003A37850080938509002B
:102F6800130585C7EFF04FFA37890080130509C9A3
:102F7800B78A0080EFF04FF99384842E130A00007B
:102F8800232E8100B7AC0080378B0080373D00804E
:102F9800B78D0080B78B0080938A8AC383274C0043
:102FA800639E07049385090063060A10378500802D
:102FB800130505D0EFF04FF59307100023A0F40098
:102FC8008320C105032481058324410503290105C4
:102FD8008329C104032A8104832A4104032B0104A1
:102FE800832BC103032C8103832C4103032D01038D
:102FF800832DC102130101066780000083250C00A0
:10300800B7870080138587CDEFF00FF023220100EA
:1030180083270C0113070C001306004093E7870071
:103028009308F0FF1308000093064DE12320F100F8
:1030380093850C9F930700001305CB7EEF20D015D6
:103048008327C1019305F0FF1385C77DEF20404515
:1030580093874D2E1305CB7E03A40700EF20102E77
:10306800B78700809387472E03A70700130414002F
:103078009307E0FF1334140003260C006314F702CF
:10308800B78500809385C5CE13854BCFEFF0CFE78A
:10309800130509C9EFF04FE7330A8A00130C4C01F6
:1030A8006FF0DFEF93172400B387FA0083A50700BA
:1030B8006FF09FFD37850080130585D1EFF0CFE4D1
:1030C80083A70400B337F0006FF05FEFB787008085
:1030D80083A7872E130101FF2324810037850080F1
:1030E8002326110037840080130505C9638207026F
:1030F800EFF08FE1B7850080938545C41305C4C4FC
:10310800032481008320C100130101016FF0CFDF88
:10311800EFF08FDFB7850080938545C66FF01FFEFF
:10312800130101FF23261100EFE0CFC18320C10066
:10313800130101016FF09FF9130101FF232601001C
:103148008327C100938717002326F100B70701F0F2
:1031580023A0B70013010101678000001305F0FFE9
:103168006780000013050000678000001317250022
:10317800B787008013051500938787D4131525009A
:10318800130101FF3387E700B387A70023248100D9
:10319800232291000324070083A40700232611009B
:1031A800636C94008320C1000324810083244100C0
:1031B8001301010167800000832704001305040040
:1031C80083A74700E7800700630405002322040063
:1031D8001304C4006FF0DFFC130101FFB787008000
:1031E80023229100B7840080232481002326110024
:1031F8001384C727232021019387C7279384C42AD0
:10320800631C9400130905001384070063149402D7
:10321800130400006F0040040327440063080700FC
:1032280003270400032707006308A7021304C40048
:103238006FF01FFD83274400639607001304C40042
:103248006FF0DFFC832704001305090083A507003E
:10325800EFF0DFA5E31405FE130504008320C10089
:103268000324810083244100032901001301010183
:1032780067800000130101FF2324810023229100AD
:10328800232611001304800093042000F337043030
:10329800EF20105963C4A400130510009305100013
:1032A800EF20D065EFF04FCD6FF05FFE37850080DF
:1032B800B79700801306052C938787963386C740F7
:1032C800930500001305052C6FF09FAA130101FF59
:1032D8001305200023261100EFF05FE937850080F1
:1032E8001305C5D5EFF04FC213053000EFF01FE806
:1032F800EF20C079EFF0DFE2B79700809387C78CA3
:1033080003C7C7001377E7FF2386E7008320C100C0
:103318001301010167800000130101F6232C8108C5
:10332800B7B7008037940080232631099387079F19
:103338009309C49323A2F900930701011306000718
:103348009305000013850700232E1108232A9108EE
:1033580023282109EFF0DFA11307100023A4A900F7
:1033680013050000A30EE100EFF05FE01305100065
:10337800EFF0DFDF93071010231EF100EF10902409
:10338800B7870080938707DA379900802322F100F6
:10339800B736008093071000B7A500809304C98C46
:1033A8002320F10013070000930700009308000092
:1033B800130800009386462D13060020938505DF29
:1033C8001305C98C23A09902EF20003483C7D400C9
:1033D8001304C49313F7B7FFA386E40093F7B70168
:1033E800639A070083A78401639607001305C98CB5
:1033F800EF00905AB77700809387870E2322F10059
:103408003795008093071000B7360080B7A5008075
:103418009304C5852320F1009308F00013080000E9
:1034280093070000130700009386C62713060020A1
:10343800938505FF1305C585EF20002D83C7D400AC
:10344800232694001305800093F7B7FFA386F400A2
:10345800B797008093874795232CF400232EF40018
:103468007335053013758500EFC09FDC8347D500A1
:10347800130101FE232C8100232E110093F7F7017D
:1034880013040500639C07008327850163980700E0
:103498002326B100EF0050508325C10023260406DF
:1034A800232AB4008320C1010324810113010102EE
:1034B80067800000130101FE232C8100232A91005C
:1034C80023282101232631012324410123206101DE
:1034D800232E1100232251011304050093890500AE
:1034E800130A0600138B0600130985009304800055
:1034F800F3B404301305090093F48400EF20802D01
:10350800631E0502B78A0080B78500803785008072
:103518009385C5BD9306E00413864ABC130585AFA1
:10352800EFF08F9E37850080130545BFEFF0CF9DE4
:103538009305E00413854ABCEFF0CFA013050900FA
:10354800EF20C02E1305C400EF10C065630005020C
:1035580093050A00EFF09FF1130509009385040015
:10356800EF00C05E130500006F000006630E0B0A33
:1035780013058000EF308043631C0506130509001E
:10358800EF20C027631E050237840080B7850080BE
:10359800378500809385C5C093061006130644BC82
:1035A800130585AFEFF04F9637850080130545C2A8
:1035B800EFF08F9593051006130544BCEFF08F9834
:1035C800F3A40430130540FF8320C10103248101C3
:1035D80083244101032901018329C100032A8100B1
:1035E800832A4100032B01001301010267800000B8
:1035F80093071000232245012320F50083270500A7
:1036080093F737006398090203270400B367F700AC
:103618002320F500832744002320A400E39E07F21B
:103628002322A4006FF05FF323200A0013050A0089
:103638006FF0DFFC03A709001377C7FF63180702C1
:10364800032744002320F500631807002322A40061
:103658002320A4006FF05FF08327070093F737005B
:10366800B367F5002320F7006FF09FFBB3E7E7008F
:103678002320F50083A7090093F737003365F50089
:1036880023A0A9006FF05FED130101FF232481003F
:103698002326110013040500630E05008327050087
:1036A80093F7370063880700032445006384050007
:1036B800EF30C02E130504008320C10003248100CD
:1036C80013010101678000009307C500232005004E
:1036D80023220500232405002326F5002328F500CE
:1036E80067800000138605008325450093060000C7
:1036F8006FF05FDC130101FE232C8100232A910067
:103708002328210123263101232E110023244101DE
:1037180093040500938905001309850013048000AC
:10372800733404301305090013748400EF20800AF1
:10373800631E0502378A0080B785008037850080C0
:103748009385C5BD9306E00413064ABC130585AFEF
:10375800EFE09FFB37850080130545BFEFE0DFFAF8
:103768009305E00413054ABCEFE0DFFD13050900EB
:10377800EF20C00B03A50400630A05088327050092
:1037880003A7440093F7C7FF23A0F4006314E500E0
:1037980023A2F40093051000EFF01FEF9304050037
:1037A80013050900EF208005631E05023789008094
:1037B800B7850080378500809385C5C093061006BD
:1037C800130649BC130585AFEFE01FF43785008069
:1037D800130545C2EFE05FF393051006130549BCD6
:1037E800EFE05FF6732404308320C10103248101D4
:1037F8001385040003290101832441018329C100A1
:10380800032A81001301010267800000639A0904FA
:1038180013050900EF10907E631E0502B78400802F
:10382800B7850080378500809385C5C0930610064C
:10383800138644BC130585AFEFE01FED3785008084
:10384800130545C2EFE05FEC93051006138544BCF1
:10385800EFE05FEF73240430930400006FF0DFF8AB
:103868001386C40093860900930504001305090014
:10387800EF10000A93040000E31805F6B7970080DC
:1038880083A7479483A447016FF01FF68347D500A9
:1038980093F7F70163980700032585011335150091
:1038A800678000001305000067800000130101FF16
:1038B80023261100EFF00FAFB787008083A7472FAB
:1038C8008320C100379700803385A7002326A7945B
:1038D8009305000013850700130101016F201002F2
:1038E80083270500130101FF2324810023261100EB
:1038F800232291001304050063980702B78400800F
:10390800B785008037850080938505E4130585AF6A
:10391800930630181386C4E2EFE01FDF93053018D2
:103928001385C4E2EFE01FE2032504008320C100F1
:1039380003248100832441001301010167800000F2
:10394800130101FE232C8100232821012324410196
:10395800232E1100232A9100232631011309050083
:10396800138A05001304800073340430B784008080
:103978001385C42E13748400EF10D065631E0502EE
:10398800B7890080B7850080378500809385C5BDDD
:103998009306E004138649BC130585AFEFE0DFD634
:1039A80037850080130545BFEFE01FD69305E00477
:1039B800138549BCEFE01FD91385C42EEF1010679B
:1039C800B797008023A60794130999009307A000CE
:1039D8003349F902B787008023AA272FB7870080C9
:1039E80023A8472FEFF09FEC1385C42EEF1010612A
:1039F800631E0502B7840080B78500803785008084
:103A08009385C5C093061006138644BC130585AF7D
:103A1800EFE09FCF37850080130545C2EFE0DFCE8A
:103A280093051006138544BCEFE0DFD173240430FE
:103A38008320C10103248101832441010329010159
:103A48008329C100032A8100130101026780000055
:103A5800130101FE232C810023282101232E1100AC
:103A6800232A91002326310113090500130480003D
:103A780073340430B78400801385C42E1374840013
:103A8800EF105055631E0502B7890080B785008086
:103A9800378500809385C5BD9306E004138649BC2D
:103AA800130585AFEFE05FC637850080130545BF76
:103AB800EFE09FC59305E004138549BCEFE09FC87C
:103AC8001385C42EEF10905613058900EFF05FE1BF
:103AD80093050900EF00002F8347D9001385C42EF2
:103AE80093F7D7FFA306F900EF105051631E0502A4
:103AF800B7840080B7850080378500809385C5C06E
:103B080093061006138644BC130585AFEFE0DFBFAC
:103B180037850080130545C2EFE01FBF93051006E7
:103B2800138544BCEFE01FC2732404308320C10115
:103B3800032481012324090083244101032901016D
:103B48008329C1001301010267800000B797008034
:103B580083A7C793130101FF2324810023261100A3
:103B68002322910013840500639E0704EF10104977
:103B7800631E0502B7840080B78500803785008002
:103B88009385C5C093068007138644BC130585AF8B
:103B9800EFE09FB737850080130545C2EFE0DFB639
:103BA80093058007138544BCEFE0DFB913050400D3
:103BB800032481008320C1008324410013010101F3
:103BC8006FC00FE7EF109043631E0502B7840080B3
:103BD800B7850080378500809385C5C09306100699
:103BE800138644BC130585AFEFE01FB2378500800C
:103BF800130545C2EFE05FB193051006138544BC79
:103C0800EFE05FB413748400732404308320C10090
:103C1800032481008324410013010101678000000F
:103C2800379700800327C793631407006FC04FE0DE
:103C380093778500F3A7073067800000130580009D
:103C480073350530137585006FF09FFD130101FE74
:103C5800232C8100232E1100232A910023282101DF
:103C6800232631011304800073340430B7840080A4
:103C78001385C42E13748400EF10D035631E05021B
:103C880037890080B7850080378500809385C5BD5A
:103C98009306E004130649BC130585AFEFE0DFA6E1
:103CA80037850080130545BFEFE01FA69305E004A4
:103CB800130549BCEFE01FA91385C42E379900806E
:103CC800EF10D0368327C9931309C993638E07026F
:103CD800B7890080B785008037850080938545DCEB
:103CE80093060010138689DA130585AFEFE0DFA18C
:103CF800378500801305C5B7EFE01FA193050010B5
:103D0800138589DAEFE01FA48327890003C7F7002A
:103D180093071000631EF702B7890080B7850080FB
:103D2800378500809385C5DD93061010138689DAE0
:103D3800130585AFEFE05F9D378500801305C5B794
:103D4800EFE09F9C93051010138589DAEFE09F9FA1
:103D5800032789008347F7009387F7FFA307F70036
:103D68001385C42EEF109029631E0502B7840080C6
:103D7800B7850080378500809385C5C093061006F7
:103D8800138644BC130585AFEFE01F983785008084
:103D9800130545C2EFE05F9793051006138544BCF1
:103DA800EFE05F9A732404308320C101032481016A
:103DB80083244101032901018329C1001301010260
:103DC80067800000B787008083A78727130101FF5A
:103DD8002324810023261100232291001384050047
:103DE8006398F502B7840080B78500803785008026
:103DF800938545F4130585AF9306C0281386C4E25E
:103E0800EFE09F909305C0281385C4E2EFE09F93ED
:103E180003274400832704008320C1008324410032
:103E28002320F70023A2E700232004002322040014
:103E3800032481001301010167800000130101FEC2
:103E4800232C8100232A9100232E110023282101ED
:103E5800232631011304050093048000F3B40430D1
:103E6800378900801305C92E93F48400EF1090164B
:103E7800631E0502B7890080B785008037850080FA
:103E88009385C5BD9306E004138649BC130585AF29
:103E9800EFE09F8737850080130545BFEFE0DF8699
:103EA8009305E004138549BCEFE0DF891305C92EAB
:103EB800EF10D01713058400EFF09FA293050400BC
:103EC800EFF05FF08347D4001305C92E93F7D7FFAF
:103ED800A306F400EF109012631E050237890080D4
:103EE800B7850080378500809385C5C09306100686
:103EF800130649BC130585AFEFE01F8137850080A5
:103F0800130545C2EFE05F8093051006130549BC11
:103F1800EFE05F83F3A40430232404001305840135
:103F2800032481018320C101832441010329010164
:103F38008329C100130101026F10107F8327050038
:103F48006314F500930700001385070067800000DD
:103F5800130101FF232481003794008023202101CD
:103F6800130905001305C493130545022322910084
:103F780023261100EFF09FFC1304C493930405005B
:103F8800631405008324C400631E09068327840084
:103F9800639E070237890080B785008037850080D7
:103FA800938585E59306F0071306C9E2130585AFE7
:103FB800EFE08FF5378500801305C5B7EFE0CFF444
:103FC8009305F0071305C9E2EFE0CFF783278400D4
:103FD80003C7D7001377F7016316070283D6E700F4
:103FE8001307F0076370D7022320F4028320C1006F
:103FF80003248100832441000329010013010101E6
:10400800678000008327840063849700EFF01F8A8D
:10401800232094026FF09FFD130101FE2328210144
:10402800379900809307C99383A78700232E11002F
:10403800232C810083C7F700232A9100232631010E
:104048001309C993639E070237840080B7850080EF
:1040580037850080938545E0930610221306C4E255
:10406800130585AFEFE04FEA378500801305C5B724
:10407800EFE08FE9930510221305C4E2EFE08FEC1F
:1040880083270900638E070237840080B785008084
:1040980037850080938545DC930620221306C4E209
:1040A800130585AFEFE04FE6378500801305C5B7E8
:1040B800EFE08FE5930520221305C4E2EFE08FE8D7
:1040C8001304800073340430B78400801385C42E31
:1040D80013748400EF100070631E0502B789008016
:1040E800B7850080378500809385C5BD9306E004B9
:1040F800138649BC130585AFEFE00FE137850080D3
:10410800130545BFEFE04FE09305E004138549BC74
:10411800EFE04FE31385C42EEF10407103278900A9
:10412800130510008347F70093871700A307F700CC
:10413800EFF01FE21385C42EEF10406C631E0502DA
:10414800B7840080B7850080378500809385C5C017
:1041580093061006138644BC130585AFEFE0CFDA4B
:1041680037850080130545C2EFE00FDA9305100686
:10417800138544BCEFE00FDD732404300324810170
:104188008320C10183244101032901018329C1003E
:10419800130101026FF09FAA130101FE232C810075
:1041A800232A9100232E11002328210123263101DF
:1041B8001304050093048000F3B4043037890080A9
:1041C8001305C92E93F48400EF10C060631E050226
:1041D800B7890080B7850080378500809385C5BD85
:1041E8009306E004138649BC130585AFEFE0CFD1F1
:1041F80037850080130545BFEFE00FD19305E00434
:10420800138549BCEFE00FD41305C92EEF100062E7
:10421800B787008083A787276318F402B7890080CF
:10422800B785008037850080938545F4130585AFF1
:10423800930660271386C9E2EFE00FCD9305602748
:104248001385C9E2EFE00FD0379700809306C79334
:1042580083A7460203A68602B79600809386069631
:104268001307C7936386D70A6384070A8305E400A4
:104278000385E70063D8A50803A747002320F400B7
:104288002322E4002320870023A287008347D40049
:104298001305000093E70704A306F400EFF05FCBD3
:1042A8001305C92EEF108055631E05023784008060
:1042B800B7850080378500809385C5C093061006B2
:1042C800130644BC130585AFEFE00FC437850080A3
:1042D800130545C2EFE04FC393051006130544BC10
:1042E800EFE04FC6F3A404308320C1010324810109
:1042F80083244101032901018329C100130101021B
:10430800678000006306F60083A70700E39207F6BC
:104318002322C400832787022320D40023A08700F8
:10432800232487026FF09FF6832705FF130101FE00
:10433800232C810023263101232E1100232A9100EA
:10434800232821012324410113040500930985FE34
:104358006384070C93048000F3B404303789008029
:104368001305C92E93F48400EF10C046631E05029E
:10437800378A0080B7850080378500809385C5BD62
:104388009306E00413064ABC130585AFEFE0CFB7E8
:1043980037850080130545BFEFE00FB79305E004AC
:1043A80013054ABCEFE00FBA1305C92EEF100048F9
:1043B800130504FFEFF0CFD293850900EFF09FA01B
:1043C800834754FF1305C92E93F7D7FFA30AF4FEBA
:1043D800EF10C042631E050237890080B785008050
:1043E800378500809385C5C093061006130649BC1F
:1043F800130585AFEFE04FB137850080130545C23F
:10440800EFE08FB093051006130549BCEFE08FB3BA
:10441800F3A40430232804FE834754FF13850900BE
:1044280093F7B7FEA30AF4FEEFF04FC66304050244
:10443800032481018320C10183244101032901014F
:10444800032A8100138509008329C1001301010291
:104458006FF09FD48320C10103248101832441018B
:10446800032901018329C100032A810013010102E4
:1044780067800000130101FE232C810023282101FD
:10448800232E1100232A91002326310123244101E0
:1044980023225101130405001309800073390930E0
:1044A800B78900801385C92E13798900EF108032EF
:1044B800631E0502B7840080B785008037850080B9
:1044C8009385C5BD9306E004138644BC130585AFE8
:1044D800EFE08FA337850080130545BFEFE0CFA23B
:1044E8009305E004138544BCEFE0CFA51385C92EDE
:1044F800EF10C033B79400801385C493930504006C
:1045080013054502EFF01F8CB787008083A7872724
:10451800379A00809384C493130A0A966318F402A6
:10452800B78A0080B785008037850080938545F479
:10453800130585AF930660271386CAE2EFE0CF9C88
:10454800930560271385CAE2EFE0CF9F83A7440253
:1045580003A78402638E470B638C070A8306E40073
:104568000386E70063D0C60A03A747002320F400A8
:104578002322E4002320870023A287008347D40056
:1045880003A5840093E70704330585401335150018
:10459800A306F400EFF0DF9B1385C92EEF10002669
:1045A800631E050237840080B78500803785008048
:1045B8009385C5C093061006130644BC130585AF42
:1045C800EFE08F9437850080130545C2EFE0CF9365
:1045D80093051006130544BCEFE0CF967329093004
:1045E8008320C1010324810183244101032901019E
:1045F8008329C100032A8100832A41001301010293
:10460800678000006386E70083A70700E39A07F442
:104618002322E40083A784022320440123A08700E7
:1046280023A484026FF09FF5B787008083A7472FE4
:1046380063860706B79700809387C79303A7870009
:104648009306F0070356E70063EAC604B7860080BE
:104658000306E70083A6062F6342D604B7860080C8
:1046680083A68627630CD7028326870163980602F0
:1046780083A607016340D502130101FF1305070054
:1046880023261100EFF01FDF8320C1001301010171
:104698006FF0CFA1B386A64023A8D700678000009B
:1046A800130101FE232C810023263101232E110042
:1046B800232A91002328210193090500130480006F
:1046C80073340430B78400801385C42E13748400B7
:1046D800EF104010631E050237890080B7850080FF
:1046E800378500809385C5BD9306E004130649BC51
:1046F800130585AFEFE04F8137850080130545BF6F
:10470800EFE08F809305E004130549BCEFE08F8349
:104718001385C42EEF10801183C7D9003799008004
:104728001309C99393F70704638E0700938509005B
:1047380013054902EFF00FE983C7D90093F7F7FB98
:10474800A386F90003258900330535411335150083
:10475800EFF01F801385C42EEF10400A631E050278
:10476800B7840080B7850080378500809385C5C0F1
:1047780093061006138644BC130585AFEFD0DFF807
:1047880037850080130545C2EFD01FF89305100642
:10479800138544BCEFD01FFB732404308320C10170
:1047A8000324810183244101032901018329C100D4
:1047B8001301010267800000130101FE232C810010
:1047C800232A91001304050023282101232E110018
:1047D800232631019384050013090600EFF05FECEE
:1047E8008347D40093E72700A306F40063860406F2
:1047F800B787008083A78727232494006318F402CF
:10480800B7890080B785008037850080938545F497
:10481800130585AF930660271386C9E2EFD0DFEE54
:10482800930560271385C9E2EFD0DFF183A7040061
:10483800638CF406638A07060307E4008386E700AF
:10484800635CD70403A747002320F4002322E40075
:104858002320870023A287009307F0FF6304F9064B
:10486800130999001306A0003346C90213058401F1
:10487800032481018320C10183244101032901010B
:104888008329C100B74500809385053313010102D0
:10489800130616006F10804683A644006386D7006F
:1048A80083A70700E39C07F883A74400232094000C
:1048B8002322F40083A7440023A0870023A28400B6
:1048C8006FF09FF98320C1010324810183244101F2
:1048D800032901018329C100130101026780000037
:1048E800130101FFB79700802324810013040500FA
:1048F80003A5479423261100EFF01FEC13050400CD
:10490800032481008320C100130101016FB05F926D
:10491800130101FFB79700802324810013040500C9
:1049280003A547942322910093840500930506006C
:104938001386060023261100EFF01FE81305040074
:10494800EF00D06B631E050237840080B7850080B6
:10495800378500809385C5C093068007130644BC3D
:10496800130585AFEFD05FDA37850080130545C2A0
:10497800EFD09FD993058007130544BCEFD09FDC87
:10498800032481008320C10013850400832441008F
:10499800130101016FB0DF89130101FE232C81008F
:1049A8002328210123244101232E1100232A9100C9
:1049B800232631012322510123206101130405001C
:1049C800138A05001309800073390930B7890080FC
:1049D8001385C92E13798900EF00D05F631E050285
:1049E800B7840080B7850080378500809385C5BD72
:1049F8009306E004138644BC130585AFEFD0DFD0DF
:104A080037850080130545BFEFD01FD09305E0041C
:104A1800138544BCEFD01FD31385C92EEF00106156
:104A280013050400EFE09FE6131A8A01930A0500B4
:104A3800135A8A4163000514B79400801385C49300
:104A48009305040013054502EFF0CFB7B787008040
:104A580083A7872723074401379A00809384C49348
:104A6800130A0A966318F402378B0080B785008012
:104A780037850080938545F4130585AF9306602735
:104A88001306CBE2EFD05FC8930560271305CBE28E
:104A9800EFD05FCB83A7440203A784026380470D4E
:104AA800638E070A8306E4000386E70063D2C60A1A
:104AB80003A747002320F4002322E40023208700D3
:104AC80023A2870013051000EFF08FC81385C92EA5
:104AD800EF00D052631E050237840080B78500803E
:104AE800378500809385C5C093061006130644BC1D
:104AF800130585AFEFD05FC137850080130545C228
:104B0800EFD09FC093051006130544BCEFD09FC398
:104B18007329093063840A06B797008083A74794EE
:104B280083C7F700639C0704032481018320C10124
:104B380083244101032901018329C100032A81003B
:104B4800832A4100032B0100130101026FF00F8F2C
:104B58006386E70083A70700E39807F42322E400AD
:104B680083A784022320440123A0870023A484026E
:104B78006FF05FF5230744016FF05FF58320C101F3
:104B88000324810183244101032901018329C100F0
:104B9800032A8100832A4100032B0100130101022B
:104BA80067800000130101FE23282101232631011B
:104BB800232E1100232C8100232A9100930905003C
:104BC8001309800073390930B78400801385C42E17
:104BD80013798900EF001040631E050237840080B6
:104BE800B7850080378500809385C5BD9306E004AE
:104BF800130644BC130585AFEFD01FB1378500807D
:104C0800130545BFEFD05FB09305E004130544BC1E
:104C1800EFD05FB31385C42EEF0050411385090010
:104C2800EFF0CFB1130405001385C42EEF00103D3B
:104C3800631E0502B7890080B7850080378500802C
:104C48009385C5C093061006138649BC130585AF26
:104C5800EFD09FAB37850080130545C2EFD0DFAAA0
:104C680093051006138549BCEFD0DFAD73290930D1
:104C78006306040C13098000733909301385C42EA8
:104C880013798900EF001035631E0502B78900808B
:104C9800B7850080378500809385C5BD9306E004FD
:104CA800138649BC130585AFEFD01FA63785008052
:104CB800130545BFEFD05FA59305E004138549BCF4
:104CC800EFD05FA81385C42EEF005036130584007B
:104CD800EFE01FC193050400EFF0CF8E8347D400A7
:104CE8001385C42E93F7D7FFA306F400EF00103105
:104CF800631E0502B7840080B78500803785008071
:104D08009385C5C093061006138644BC130585AF6A
:104D1800EFD09F9F37850080130545C2EFD0DF9EF7
:104D280093051006138544BCEFD0DFA17329093021
:104D38002324040013058401EF10001F1305040049
:104D48008320C10103248101832441010329010136
:104D58008329C1001301010267800000130101FFCC
:104D680023229100232021012326110023248100DE
:104D78001309050093040000032409006304890053
:104D8800631004028320C1000324810013850400FA
:104D980003290100832441001301010167800000F9
:104DA80013050400EFF08F8913050400EFE01FAE30
:104DB80093041000E30205FC13050400EFF0CFBDD7
:104DC8006FF09FFBB79700809387C79313874702BD
:104DD80023A2E70223A4E7029305000013050000BD
:104DE8006FE01FB6130101FF232481002320210156
:104DF8002326110023229100138705019307E00160
:104E0800130905001384050063F4E704B7840080E0
:104E1800B785008037850080930650341386C4E236
:104E2800938545EC130585AFEFD01F8E378500803D
:104E380093050400130585B1930600FF1306E000EF
:104E4800EFD09F8C930550341385C4E2EFD09F8F29
:104E5800B797008083A7C793638E0702B784008043
:104E6800B785008037850080938545DC93066034DC
:104E78001386C4E2130585AFEFD01F8937850080FC
:104E88001305C5B7EFD05F88930560341385C4E276
:104E9800EFD05F8B93050400032481008320C100B9
:104EA80083244100130509000329010013010101AE
:104EB8006FF09FAE130101FE232C81003794008010
:104EC8008327C493232E1100232A9100232821012C
:104ED8002326310123244101232251011304C493C1
:104EE800638E0702B7840080B7850080378500800D
:104EF800938545DC9306E0371386C4E2130585AF36
:104F0800EFD09F80378500801305C5B7EFD0CFFF5E
:104F18009305E0371385C4E2EFD0DF82B7870080BE
:104F28008326840003A78727138A07006386E6126F
:104F38001309800073390930B78900801385C92E99
:104F480013798900EF001009631E0502B7840080F9
:104F5800B7850080378500809385C5BD9306E0043A
:104F6800138644BC130585AFEFD00FFA3785008050
:104F7800130545BFEFD04FF99305E004138544BCF2
:104F8800EFD04FFC1385C92EEF00500A832584000B
:104F980013054402EFE01FE383278A278324840054
:104FA800379A0080130A0A966398F402B78A008039
:104FB800B785008037850080938545F4130585AF54
:104FC800930660271386CAE2EFD00FF49305602793
:104FD8001385CAE2EFD00FF7832744020327840220
:104FE800638A470B6388070A8386E4000386E70021
:104FF80063DCC60803A7470023A0F40023A2E4004B
:105008002320970023A2970013051000EFE05FF418
:105018001385C92EEF00807E631E05023784008049
:10502800B7850080378500809385C5C09306100634
:10503800130644BC130585AFEFD00FED378500800C
:10504800130545C2EFD04FEC93051006130544BC79
:10505800EFD04FEF73290930130580007335053001
:10506800032481018320C101832441010329010113
:105078008329C100032A8100832A41001375850012
:10508800130101026FB0CF9A6386E70083A7070078
:10509800E39E07F423A2E4008327840223A04401AB
:1050A80023A09700232494026FF01FF6130101FD3B
:1050B80023229102B794008083A7C49323248102FA
:1050C8002326110223202103232E3101232C410101
:1050D800130405009384C493638E07023789008004
:1050E800B785008037850080938545DC9306903925
:1050F8001306C9E2130585AFEFD00FE137850080AD
:105108001305C5B7EFD04FE0930590391305C9E2F1
:10511800EFD04FE39307F0FF6312F41A378900804A
:10512800B785008037850080938585E79306A03989
:105138001306C9E2130585AFEFD00FDD3785008070
:105148001305C5B7EFD04FDC9305A0391305C9E2A5
:10515800EFD04FDF9307A000130494003344F40208
:10516800EF10004093098000232601001304140067
:105178003309A400F3B909301305C10093F9890074
:10518800EF004065631E0502378A0080B7850080FE
:10519800378500809385C5BD9306E00413064ABC95
:1051A800130585AFEFD04FD637850080130545BF6F
:1051B800EFD08FD59305E00413054ABCEFD08FD804
:1051C8001305C100EF00806603A58400EFF04FCD02
:1051D80003A58400B7450080130604001305850164
:1051E80093850533EF00903103A784001305C100B0
:1051F8008347D70093E70701A306F700EF00006095
:10520800631E050237840080B785008037850080DB
:105218009385C5C093068007130644BC130585AF64
:10522800EFD08FCE37850080130545C2EFD0CFCDA4
:1052380093058007130544BCEFD0CFD01385090030
:10524800EFA01FFF83A7840083C7D70093F7070148
:10525800638E070237840080B78500803785008019
:105268009385C5E89306703B1306C4E2130585AF22
:10527800EFD08FC9378500801305C5B7EFD0CFC8E9
:105288009305703B1305C4E2EFD0CFCBEF10402D50
:105298003305A940130400006356A0029307803E1B
:1052A800B315F50213064006930600003305F50210
:1052B800EFB08F80130405006F00C000E31C04E802
:1052C800EFF05FBF130504008320C10203248102AD
:1052D80083244102032901028329C101032A810190
:1052E8001301010367800000B797008003A5479466
:1052F80067800000130101FE232C8100232A9100FE
:1053080023282101232E110023263101130405002F
:105318001389050093040600631E0602B7890080FE
:10532800B785008037850080938585F693066004ED
:10533800138689F5130585AFEFD00FBD378500803B
:10534800130545F7EFD04FBC93056004138589F525
:10535800EFD04FBF63FE2403B7890080B785008074
:10536800378500809385C5F893067004138689F500
:10537800130585AFEFD04FB937850080130545FA7F
:10538800EFD08FB893057004138589F5EFD08FBBE4
:10539800232424012326940023208400232284002C
:1053A8008320C101032481018324410103290101D0
:1053B8008329C1001301010267800000130101FE67
:1053C800232A910023263101232E1100232C81004A
:1053D800232821019309050093048000F3B40430C5
:1053E800378400801305842F93F48400EF00803EF7
:1053F800631E050237890080B785008037850080E5
:105408009385C5BD9306E004130649BC130585AF13
:10541800EFD08FAF37850080130545BFEFD0CFAEF3
:105428009305E004130549BCEFD0CFB11305842FD1
:10543800EF00C03F13850900EFF0CFF61309050010
:10544800630205048347D50093F7F70163980700C3
:105458008327850163940700EFE01FD423260906FC
:105468001305842F032481018320C101032901012D
:105478008329C1009385040083244101130101029B
:105488006FE0CFEC03A7890083A7C900B387E74083
:10549800B337F000B387E70023A4F9006FF05FFC8F
:1054A800B797008083A7C793130101FE2328210122
:1054B80023263101232E1100232C8100232A910059
:1054C800232441011309050093890500638007041B
:1054D800638E050237840080B78500803785008099
:1054E8009385C5FC9306C008130684F5130585AF9C
:1054F800EFD08FA1378500801305C5B7EFD0CFA0B7
:105508009305C008130584F5EFD0CFA313048000DA
:1055180073340430B78400801385842F1374840097
:10552800EF00402B631E0502378A0080B785008094
:10553800378500809385C5BD9306E00413064ABCF1
:10554800130585AFEFD04F9C37850080130545BF05
:10555800EFD08F9B9305E00413054ABCEFD08F9ED4
:105568001385842FEF00802C83278900638C07061E
:105578009387F7FF2324F9001385842FEF00002871
:10558800631E0502B7840080B785008037850080D8
:105598009385C5C093061006138644BC130585AFD2
:1055A800EFD08F9637850080130545C2EFD0CF9591
:1055B80093051006138544BCEFD0CF9873240430AC
:1055C800130500008320C1010324810183244101C4
:1055D800032901018329C100032A81001301010263
:1055E80067800000639A09041385842FEF00002167
:1055F800631E0502B7840080B78500803785008068
:105608009385C5C093061006138644BC130585AF61
:10561800EFD08F8F37850080130545C2EFD0CF8E2E
:1056280093051006138544BCEFD0CF917324043042
:10563800130500FF6FF01FF993050400032481018F
:105648008320C101032A81009386090013060900FB
:105658008329C100032901011385842F8324410173
:10566800130101026FF0CFAA8347D50093F7F70122
:10567800639807000325850113351500678000002E
:105688001305000067800000B797008003A5C79343
:105698003335A00067800000B797008083A7479440
:1056A80003C5C7001375150067800000B727B7004A
:1056B800938707B0B335F50237460F00130101FF92
:1056C80013060624930600002326110023248100D4
:1056D800232291003305F502EFA01FBE1304050035
:1056E800EFD04FDB93040500EFD0CFDA33059540B8
:1056F800E36C85FE8320C1000324810083244100DC
:105708001301010167800000130101FE0323010258
:10571800232C8100232E110023206100130405008F
:10572800EFC00F91B797008083A747948320C101EA
:1057380083A787062324F4060324810113010102A9
:105748006780000083270506130101FF23248100D9
:10575800232611001304050063840700E78007006F
:1057680013050400EFF05FF063040502130504005D
:10577800EFE01FF38347D4008320C10093E787003D
:10578800A306F400032481001301010167800000CF
:105798008347D40093F727006386070013050400A6
:1057A800EFE00FAB83278401E38607FC1305840130
:1057B800EF0080776FF01FFC2306D500A306C50015
:1057C8002307B500A3070500232C0500232E050099
:1057D8006780000003250500630E0500B797008069
:1057E80083C70795137535003305F5403335A00099
:1057F800678000001305100067800000B7970080DD
:105808009387C79303C7470183A78700B3E7E700D8
:10581800032705006318F70023200500130510006F
:10582800678000001305000067800000B7970080BC
:105838009387C79303C7470183A78700B3E7E700A8
:105848002320F50067800000130101FE232C81004E
:1058580023282101232E1100232A91002326310118
:10586800130905001304800073340430B7840080E2
:105878001385C42F13748400EFF0DFF5631E05024F
:10588800B7890080B7850080378500809385C5BDBE
:105898009306E004138649BC130585AFEFC0DFE625
:1058A80037850080130545BFEFC01FE69305E00468
:1058B800138549BCEFC01FE91385C42FEFF01FF70C
:1058C8008347D90013F74700631407061385C42FCD
:1058D800EFF0DFF2631E0502B7840080B785008011
:1058E800378500809385C5C093061006138644BC8F
:1058F800130585AFEFC05FE137850080130545C20A
:10590800EFC09FE093051006138544BCEFC09FE3EA
:10591800732404308320C1010324810183244101BD
:10592800032901018329C1001301010267800000D6
:1059380093F7B7FFA306F90013050900EFF0DFD2CC
:105948006306050013050900EFE01F8593050400B1
:10595800032481018320C101032901018329C10096
:105968001385C42F83244101130101026FE00F9EA8
:10597800639405006FF05FED938595001306A00012
:1059880033C6C502B74500809385053313058501E5
:10599800130616006F008036130101FC2322510301
:1059A800938A0600B796008083A6C693232C8102AB
:1059B800232A91022326310323244103232E110293
:1059C800232821031304050093890500130A060000
:1059D80083244104638E060437890080B7850080DC
:1059E800378500809306201B13060900938545DC44
:1059F800130585AF232E1101232C0101232AF10061
:105A08002328E100EFC05FD03785008013054501EA
:105A1800EFC09FCF9305201B13050900EFC09FD24D
:105A28008328C1010328810183274101032701013C
:105A3800832601042322010013060A002320D10033
:105A48009385090093860A0013050400EFF0DFCB65
:105A58009307F0FF6388F40093850400130504009E
:105A6800EFF01FF1130504008320C1030324810311
:105A780083244103032901038329C102032A8102E4
:105A8800832A41021301010467800000130101FE0B
:105A9800B78700802328210137890080232C8100C3
:105AA800232A9100232E11001384C72A9384C72A1E
:105AB8001309C92A6366240313840400EFE00F99CD
:105AC8009304F0FF63602407032481018320C1014C
