:0200000480007A
:100000009702000093820201739052306F00104AF1
:10001000130101FB2320110023223100232441007E
:100020002326510023286100232A7100232CC101BB
:10003000232ED1012320E1032322F1032324A10253
:100040002326B1022328C102232AD102232CE10254
:10005000232EF1022320010523221105F32210345F
:1000600023245104F322003023265104EF00001F03
:1000700013030000631E0502F3222034B70300803F
:100080009383F3FFB3F272001303B000638A62003C
:100090001305010097000000938040136F00903417
:1000A0008322810493824200232451046F000009BB
:1000B00093020100976300009383835803A14300D8
:1000C000130101FF2320510003AE0300130E1E0095
:1000D00023A0C30163080300970000009380C003BE
:1000E0006F00103973252034B70200809382F2FF2D
:1000F00033755500EF0080159752000093828236C9
:1001000013153500B382A20003A5020003A3420029
:10011000E7000300176300001303835283230300E7
:100120009383F3FF232073008322010013810200D5
:1001300083238300032E030263087E089762000076
:100140009382025003A38200232683022328930272
:10015000232A2303232C3303232E43032320530575
:10016000232263052324730523268305232893056F
:10017000232AA305232CB30523242302976300001D
:100180009383831103AE03002326C30703A3020254
:1001900023A46200032183020324C30283240303F4
:1001A0000329430383298303032AC303832A030404
:1001B000032B4304832B8304032CC304832C0305E8
:1001C000032D4305832D830583228104739012340C
:1001D0008322C104739002308320010083214100F7
:1001E000032281008322C1000323010183234101F3
:1001F000032E8101832EC101032F0102832F4102AF
:10020000032581028325C1020326010383264103BE
:10021000032781038327C1030328010483284104A2
:100220001301010573002030730000009762000085
:100230009382024103A382008323C30613758500C2
:10024000F3220530138503006780000013031000BC
:10025000B312A30073B3423467800000F32220344A
:1002600037030080B3F262001305000063840200CC
:08027000130515006780000072
:100278006300060293070002B387C740634CF0008F
:10028800130506FE1307000033D5A50093050700E4
:100298006780000033D7C5003355C500B395F50016
:1002A8003365B5006FF09FFE9387050013080600BD
:1002B8001387060013030500639606289758000065
:1002C8009388883263F6C50E370701006378E60C19
:1002D8001307F00F3337C70013173700B356E6007C
:1002E800B388D80083C608003387E6009306000267
:1002F800B386E640638C0600B397D7003357E50012
:100308003318D600B365F7003313D5001355080129
:1003180033F7A50213160801135606019356030175
:10032800B3D5A50213170701B366D700B307B60202
:100338001387050063FEF600B38606011387F5FFF1
:1003480063E8060163F6F6001387E5FFB386060146
:10035800B386F640B3F7A602131303011353030140
:10036800B3D6A6029397070133E36700B305D60215
:1003780013850600637CB300330368001385F6FF1A
:10038800636603016374B3001385E6FF131707015F
:100398003367A700930500006F00400EB706000101
:1003A80013070001E36CD6F2130780016FF01FF307
:1003B800631606009306100033D8C602B70601007C
:1003C8006372D80C9306F00F63F4060113078000DC
:1003D800B356E800B388D80083C60800B386E600A1
:1003E800130700023307D7406318070AB38707418A
:1003F80093051000135608019318080193D80801B3
:100408009356030133F7C702B3D7C702131707017F
:10041800B366D7003385F8021387070063FEA6008A
:10042800B38606011387F7FF63E8060163F6A600A3
:100438001387E7FFB3860601B386A640B3F7C60263
:100448001313030113530301B3D6C602939707018D
:1004580033E36700B388D80213850600637C130171
:10046800330368001385F6FF6366030163741301A1
:100478001385E6FF131707013367A7001305070065
:1004880067800000B706000113070001E362D8F493
:10049800130780016FF0DFF33318E800B3D5D700F6
:1004A8003313E500B356D50013550801B397E70099
:1004B80033F7A502B3E8F6009317080193D70701AD
:1004C80013D60801B3D5A502131707013367C70070
:1004D800B386B70213860500637ED700330707018A
:1004E8001386F5FF636807016376D7001386E5FF77
:1004F80033070701B306D74033F7A60293980801DC
:1005080093D80801B3D6A60213170701B385D702FB
:10051800B36717011387060063FEB700B3870701A7
:100528001387F6FF63E8070163F6B7001387E6FF52
:10053800B3870701B387B74093150601B3E5E50014
:100548006FF05FEB63E6D5183707010063F4E60444
:100558001308F00F3337D8001317370033D8E600E5
:100568009755000093854508B385050103C8050024
:10057800930500023308E800B38505416396050238
:1005880013071000E3ECF6EE3335C50013471500EA
:100598006FF0DFEEB705000113070001E3E0B6FCDA
:1005A800130780016FF09FFB33570601B396B6001F
:1005B800B366D70093DE060133D70701B378D703B4
:1005C800B397B700335805013363F80093970601D2
:1005D80093D70701135803013316B6003357D703CF
:1005E8009398080133E80801338FE702130E0700D8
:1005F800637EE8013308D800130EF7FF6368D8005C
:100608006376E801130EE7FF3308D8003308E841A2
:10061800B378D8033358D80393980801B38E0703E7
:100628009317030193D70701B3E7F80013070800EE
:1006380063FED701B387D7001307F8FF63E8D70035
:1006480063F6D7011307E8FFB387D700131E0E011F
:10065800B387D741B70E01003367EE001388FEFF5A
:1006680033730701935807013378060113560601BF
:10067800330E03033388080393560E013303C30272
:1006880033030301B3866600B388C80263F4060126
:10069800B388D80113D60601B308160163E6170319
:1006A800E39A17CFB70701009387F7FFB3F6F60071
:1006B80093960601337EFE003315B500B386C60156
:1006C80093050000E37CD5DA1307F7FF6FF09FCCA2
:1006D80093050000130700006FF05FDA67800000E1
:1006E800130101FD232E11002324010323261103E6
:1006F800631805041386060013870500B7560080A3
:10070800B755008037650080930781029386C66ECF
:100718009385857F130545822326F100EF10401B42
:100728008325C100376500801305058AEF1040173F
:10073800376500801305059AEF108019EF10D00F68
:100748008320C1011301010367800000130101FC2C
:10075800232C81021306C002130405009305000030
:1007680013054100232E1102EF10807AB76700802D
:1007780083A707356390070213060000930541001D
:100788001305040023260100232401002328010067
:10079800EF20C0278320C103032481031301010430
:1007A80067800000130101FC232C8102130405005B
:1007B800375500801305457E232E1102EF10401196
:1007C8001306C0029305000013054100EF104074A2
:1007D800B767008083A70735639007021306F0FF09
:1007E800930541001305040023260100232401007A
:1007F80023280100EF2080218320C10303248103E3
:100808001301010467800000130101F72324810804
:100818003764008023261108232291081304043525
:1008280023200400EF301018B7640080B70600805A
:10083800B7650080376500809307000013878444FC
:100848002322010023200100930800001308000060
:100858009386C67A13060020938505671305C54657
:10086800EF40C01203270400B767008023ACA73409
:100878001384873563180704930700042328A1020B
:100888009306F0FF13060104930541011385844480
:10089800232CF100EF20001DB76700803757008038
:1008A80037560080B75500809387078A1307C76EAD
:1008B800930630041306867F9385C56F133515009C
:1008C800EFF01FE203250400EF4080268320C108D3
:1008D800032481088324410813010109678000006B
:1008E800130101F6232C8108232A9108376400801C
:1008F800B7640080232E11082328210923263109F3
:1009080023244109232251091304043593060000C6
:100918001306010493054101930A000413858444D6
:1009280023200400232C510123280102EF208013E7
:10093800B7590080376A008037590080B755008062
:1009480093070A8A1387C96E930660041306897F82
:10095800938505773335A000EFF09FD8B706008060
:10096800B7650080376500809307000013878444CB
:10097800232201002320010093080000130800002F
:100988009386467513060020938505671305C546AB
:10099800EF30D07F03270400B767008023AAA7346D
:1009A80013844735631007049306200013060104D7
:1009B8009305410113858444232C51012328010206
:1009C800EF20400AB755008093070A8A1387C96E3B
:1009D800930690041306897F9385C57A133515000D
:1009E800EFF01FD003250400EF4080148320C109D5
:1009F8000324810983244109032901098329C108A2
:100A0800032A8108832A41081301010A678000002C
:100A180037650080130101FF130585442326110063
:100A2800EF10107D37650080930500001305C5455C
:100A380013061000EF30C0778320C100B76500802F
:100A48003755008093854524130545761301010128
:100A58006F108061130101FF2326110023248100F8
:100A6800930760006304F502EF3010476304050242
:100A7800EF30904663160504B76500809385C5AFCF
:100A880037650080130505B1EF009064EF00506BE7
:100A98006FF0DFFFEF305045E31C05FC3764008042
:100AA8001304C4638325840037650080130505B3E8
:100AB800EF00106203258400EF4080076FF01FFDF0
:100AC800B7650080938585AF6FF09FFB130101FB2D
:100AD8002324810423229104232611049307600010
:100AE800930405001384050063E0A70E37670080B0
:100AF800931725001307C784B387E70083A7070068
:100B080067800700376500801305C597EF00505CC4
:100B1800EF30406983274404832804010328C40074
:100B28002328F102832704040327440083260400B2
:100B38002326F1028327C4030326840493050500B2
:100B48002324F1028327840337650080130505A059
:100B58002322F102832744032320F102832704037D
:100B6800232EF1008327C402232CF100832784025B
:100B7800232AF100832744022328F1008327040253
:100B88002326F1008327C4012324F100832784014D
:100B98002322F100832744012320F10083278400C6
:100BA800EF0010539305040013850400EFF09FEA4B
:100BB800376500801305459A6FF05FF5376500804B
:100BC8001305059C6FF09FF437650080938504003A
:100BD8001305C59DEF00D04F6FF09FF3130101FF80
:100BE80023248100232611001304050073262034D2
:100BF80013161600135616009307500063E8C70231
:100C0800376700809317260013078786B307F70016
:100C180083A507003765008013058588EF00504BD2
:100C28009305040013050000EFF05FEAB765008044
:100C3800938505886FF01FFE130101FF232611001D
:100C4800F3252034376500809395150093D515005A
:100C5800130585B5EF00D047B76500809385458AB1
:100C680013054000EFF09FE6B76700809387C7350C
:100C780003A70700630C070003A3070023A00700CE
:100C8800B767008003A50736670003006780000088
:100C9800130101FF23261100EF104078EF00504C9C
:100CA800EF10807E176100001301413CB71200006D
:100CB8009382028033015100EFF09FFD6F00005CCA
:100CC800130101FD23248102232291022320210301
:100CD800232E3101232C4101232A510123286101AC
:100CE80023267101138B0700232611022324810177
:100CF8009307F00093040500138405009309060088
:100D0800138A0600930B0700930A0800138908004A
:100D1800639AF808B72700809387C73E639AF60856
:100D28008326010393050900138504001306400078
:100D3800EF30D027938509FBB305B400B72700002F
:100D480023AE040423A0040693F505FF93870788C0
:100D580023A6F504B71700808320C102032481026B
:100D6800938747CC23A4450323A6750323A86503CB
:100D780023AA550323A4F50423A4B40203290102DA
:100D8800832441028329C101032A8101832A410165
:100D9800032B0101832BC100032C810013010103E4
:100DA80067800000938608019307E001E3FAD7F60D
:100DB800376C0080B76500803765008013060CB873
:100DC80093068001938505BA1305C5C2EF0050301C
:100DD8003765008093050900930600FF1306E000BD
:100DE8001305C5C4EF00D02E9305800113050CB878
:100DF800EF00D0316FF0DFF29307C0003387F502C0
:100E08008327C500B387E7000307B5006354B7001D
:100E180083A70700130700023347E6021375F6019C
:100E280013172700B387E70023A0F60067800000A8
:100E3800130101FE9306C100232E1100EFF0DFFB22
:100E48000327C100930710003395A70083270700E5
:100E58008320C101B3E7A7002320F7001301010293
:100E680067800000130101FE9306C100232E1100C4
:100E7800EFF09FF80327C100930710003395A700F0
:100E8800832707008320C1011345F5FF33F5A70029
:100E98002320A70013010102678000008327450073
:100EA80003588500130101FF232481003308F80249
:100EB80013040500032505008348A4001307F0FF69
:100EC8002326110023229100A305E40093050000C6
:100ED8001303C00033050501130EF001930E000241
:100EE80063C21503930400008357840063C4F406A7
:100EF8008320C100032481008324410013010101E0
:100F0800678000003357F8020326C400B3866502E1
:100F1800B306D6001386460023A2C60023A4C60043
:100F2800634EEE00A305B40093D7270093873700DC
:100F380093F7C7FF938515006FF09FFA1307F70122
:100F48003347D70323A0A600131727003305E5006E
:100F58006FF09FFD8327440013860400930500006B
:100F68003387F402832704001305040093841400D4
:100F7800B387E7000327C4009306470023A0D700E0
:100F88008326870023A2D7008326870023A0F600A4
:100F98002324F700EFF0DFE96FF01FF5130101FAE2
:100FA800232C810423263105232E7103232E1104BB
:100FB800232A9104232821052324410523225105AE
:100FC80023206105232C8103232A91032328A103CD
:100FD8002326B103130401068346A500930B0500DD
:100FE80013081000939626009386F60093F6067F62
:100FF8003301D14083264500930901001385090078
:101008009386360093F6C6FF23A0D9001305450042
:1010180063F4050D83C60B01138C05001309060044
:1010280093F616009304000063880600930480007A
:10103800F3B4043093F48400B76A0080130DC00041
:10104800930D800063580C0AB7640080B765008070
:1010580037650080138604C89306000C938585CEF7
:101068001305C5C2EF00D00637650080130545CBD0
:10107800EF001006138504C89305000CEF00100953
:101088009304F0FF83C70B0193F7170063860700EB
:1010980093F48400F3A40430130104FA8320C105F7
:1010A8000324810583244105032901058329C104FB
:1010B800032A8104832A4104032B0104832BC103DF
:1010C800032C8103832C4103032D0103832DC102CB
:1010D80013010106678000008326C5FF1308180066
:1010E80093D626009386360093F6C6FF2320D500B4
:1010F8006FF0DFF193162C00B386D90003AA06001F
:1011080003D68B0083A54B00B306490303A80B0045
:10111800130BFAFF3306B602B30CD800B306DB0094
:1011280063ECC602B7670080938547C9B76700803C
:101138001385C7C29306400A13860AC8EF00407990
:10114800B7670080138507CBEF0080789305400AC6
:1011580013850AC8EF00807B1306090093050C006D
:1011680013850B00EFF0DFCCB306AC0303A6CB006E
:10117800B306D6001386460023A0CC0003A686003B
:1011880023A2CC0003A686002320960123A496015F
:1011980083C60B0193F616006394060C93040000B3
:1011A800E3020CEE9306C4FB1306090093050C003A
:1011B80013850B00EFF05FC493064000B346D502D9
:1011C8000326C4FB03250600939626003355D50055
:1011D8001375F5009306F000E316D5EA130800002E
:1011E800137EC9FF1303400083D58B0003A54B0072
:1011F80033060E01B3084603B385A502B38668011A
:1012080063F6B60493050C0013850B002322C4FB78
:10121800232404FB232614FBEFF0DFC483A60B0072
:101228008328C4FA032E44FA032884FAB3861601E5
:1012380083A5460003A606001303400023A0C500AB
:101248002322B60023A0060023A2060013081800D4
:10125800E31C68F8130CFCFF334909036FF09FDEA9
:10126800F3A4043083C60B0193F61600E38806F254
:10127800F3B40D3093F484006FF09FF2130101FF73
:1012880093070500138505009305060013860600DD
:1012980023261100E7800700EF20D070EF305009B7
:1012A8001305000067800000130101FF232481005B
:1012B800130405001305500423261100232291006E
:1012C80093840500E70004009385040013052005B6
:1012D800E700040013030400032481008320C100F5
:1012E800938504008324410013052005130101019F
:1012F8006700030083A705009387170023A0F50064
:10130800B767008003A3072867000300130101FBE8
:1013180023248104232E3103232C4103232A510340
:101328002328610323261104232291042320210565
:101338002326710323248103232291032320A1035D
:10134800232EB101130A0500938A050093090600AC
:10135800138B0600130410006354E0001304070005
:1013680093071000130C00026314FB00130C000316
:10137800B7D49A3B13091000930CA0001307000080
:101388009384F49F930D2000130DA000938B1400F9
:101398006314070063F2340933D5790393850A008F
:1013A8001309190013050503E7000A0013071000C5
:1013B800938CFCFF93071000B3F97903B3D4A4030B
:1013C800E396FCFC93850A0013850903E7000A00ED
:1013D8009307300033042441630AFB068320C104C9
:1013E8000324810483244104032901048329C103BC
:1013F800032A8103832A4103032B0103832BC102A0
:10140800032C8102832C4102032D0102832DC1018B
:101418001301010567800000E34C94F9E3EA6DF9D4
:1014280093850A0013050C002326E100E7000A0053
:10143800130919000327C1006FF09FF793850A006D
:1014480013050002E7000A001304F4FFE34880FED6
:101458006FF0DFF8B767008023A0A7286780000037
:10146800130101FB23248104232291042320210555
:10147800232E3103232C4103232A510323229103D2
:101488002320A103232EB10123261104232861035D
:101498002326710323248103130405009384050084
:1014A800930A0600138D0600130A00001309F0FFC3
:1014B80093090000930C0000B70D008003C50A00D3
:1014C800631005048320C104032481048324410498
:1014D800032901048329C103032A8103832A4103C1
:1014E800032B0103832BC102032C8102832C4102AD
:1014F800032D0102832DC10113010105678000003E
:10150800639E0C0093065002630AD5369385040047
:10151800E7000400938A1A006FF05FFA930640060A
:10152800630ED51063E2A6069306900363EAA6024B
:10153800930610036374D50E9306D002630AD5345C
:10154800930700036300F50C130750026312E502CA
:101558009385040013055002E70004006F00C015CE
:1015680093068005630ED51A13073006630EE52E21
:101578009385040013055002E700040093850400D6
:1015880003C50A006FF05FFD93060007630AD516CE
:1015980063E0A602930690066302D50A9306C00686
:1015A800630AD50893068006E306D5F66FF05FFC5C
:1015B800930650076306D51063EEA602130730079B
:1015C800E318E5FA032C0D00130B4D00930B0C00E8
:1015D80003C50B0063180526930730006398F900CC
:1015E800B38B8B41B30B794163467027130D0B0006
:1015F8006F00800C930680076304D5129306A0073A
:101608006FF09FFA635E090063880928130905FDD6
:10161800E39209F0930920006FF0DFEFE34809FE39
:101628009306A0003309D902130909FD33092501DE
:101638006FF01FFE130A1A006FF0DFED63120A0441
:1016480003260D00130D4D00635006029385040018
:101658001305D0022320C100E7000400032601007F
:101668001309F9FF3306C0401307090093860900E0
:101678009385040013050400EFF05FC96F00C003F1
:1016880013071000E30EEAFA93077D0013F787FFAC
:101698000326070083264700130D87003307B6018A
:1016A8003337C7003307D700E30007FA93850400F0
:1016B80013050400EFF05FBF930C00006FF09FE587
:1016C80063180A0003260D00130D4D006FF0DFF9B3
:1016D80013071000E308EAFE93077D0013F787FF5E
:1016E800130D87000326070003274700E31007FCB4
:1016F800B707008093C7F7FFE3F8C7F66FF01FFB43
:101708009385040013050003E70004009385040093
:1017180013058007E70004001309800093091000EF
:101728009306100063C2460B83270D002324010093
:10173800130D4D002322F100130C0001930B000040
:10174800232001009308000103254100832581001F
:10175800138BF8FF13162B0023261101EFE05FB15E
:101768001375F50063180508832701009306000325
:10177800639807008328C100930710006396F80850
:101788003385A600131585019385040013558541FB
:10179800E7000400938B1B0063180B0493063000CA
:1017A800930C0000E398D9D613171900B30B7741AF
:1017B800E35470F19385040013050002E700040068
:1017C800938BFBFF6FF0DFFE93077D0093F687FF97
:1017D80083A70600138D86002322F10083A7460005
:1017E8002324F1006FF05FF52320910193080B008B
:1017F8006FF09FF59307900093067005E3E2A7F852
:10180800930600036FF0DFF79307FCFF2326F10030
:10181800634C890193071000639CF90093850400C9
:1018280013050003E7000400032CC1006FF01FFC40
:1018380093072000E39AF9FE93850400130500023C
:101848006FF05FFE93850400938B1B00E700040094
:101858006FF01FD89385040013050002E700040009
:10186800938BFBFF6FF05FD803250D009385040071
:10187800130B4D00E70004006FF05FD7130A000058
:101888001309F0FF93090000930C10006FF09FC834
:10189800930930006FF01FC8930910006FF09FC7BD
:1018A800130101FE13060500371500809386050015
:1018B8001305C52F9305C100232E1100232601000F
:1018C800EFF01FBA8320C1011301010267800000F5
:1018D800130101FC2322B10293054102232E1100BA
:1018E8002324C1022326D1022328E102232AF1025C
:1018F800232C0103232E11032326B100EFF05FFAF6
:101908008320C1011301010467800000B7650080CE
:1019180037650080130101FF938545CC130585CDFC
:101928001306E00123261100EFF09FFAB765008047
:101938009385458A13056000EFF04F996780000092
:1019480093078000F3A707307300501067800000EA
:10195800930710003395A700732545306780000072
:1019680093078000F3B7073073504030735040340A
:1019780067800000130101FF2324810023229100C6
:1019880037640080232611009307A0009304050004
:1019980013044436631CF500032504009305D000A6
:1019A8008327450083A74700E78007000325040035
:1019B80093F5F40F8327450083A74700E7800700C6
:1019C8008320C1000324810013850400832441007F
:1019D8001301010167800000130101FF2324810026
:1019E800372400801305C49723261100EF00405BBD
:1019F8001305C497032481008320C100130101014A
:101A08006FF05FA537650080130101FF130545CE10
:101A180023261100EF005013B767008023A2A736D2
:101A2800EFF09FFB8320C1001305000013010101A3
:101A380067800000B70710F003A747F403A507F471
:101A480083A547F4E39AE5FE67800000130101FED1
:101A5800232C8100232E1100232A91002328210101
:101A6800232631012324410123225101130480003C
:101A78007334043037690080130589361374840081
:101A8800EF209054631E0502B7640080B76500809C
:101A980037650080938505D19306E004138684CFCB
:101AA8001305C5C2EFF0DFE237650080130585D264
:101AB800EFF01FE29305E004138584CFEFF01FE5F4
:101AC80013058936B7640080EF2090559384043459
:101AD800EFF05FF683A9040083AA4400130705000A
:101AE800330535413337A700B385554137D6010053
:101AF8001306064C93060000B385E540EFE0CFFAE5
:101B0800B7D701009387074CB387A702130A0500CC
:101B180013058936B3893701B3B7F900B38757017D
:101B280023A0340123A2F400EF20904C631E050289
:101B3800B7640080B765008037650080938505D459
:101B480093061006138684CF1305C5C2EFF05FD83D
:101B580037650080130585D5EFF09FD793051006EC
:101B6800138584CFEFF09FDA7324043003248101B6
:101B78008320C10183244101032901018329C10074
:101B8800832A410013050A00032A81001301010278
:101B98006F304066130101FF23261100EFF09FE923
:101BA800B7D701009387074C370710F0B307F50044
:101BB8009306F0FF2326D7F433B5A7003305B50005
:101BC8002324F7F42326A7F413057000EFF05FD859
:101BD8008320C10013050000130101016780000084
:101BE800639C0516130101FE232E1100232C81008E
:101BF800232A910023282101232631019307F0FF8E
:101C08006316F500379500001305E5BCB79700008B
:101C18001304F5FF9387E7BC63DA87121384070080
:101C280093048000F3B404303769008013058936C3
:101C380093F48400EF205039631E0502B7690080D1
:101C4800B765008037650080938505D19306E00469
:101C5800138689CF1305C5C2EFF09FC7376500808B
:101C6800130585D2EFF0DFC69305E004138589CF0D
:101C7800EFF0DFC913058936EF20903AEFF09FDBCC
:101C8800B7D60100B76700801386064C93870734E0
:101C980003A7070083A54700B307C4029386F64B42
:101CA8003384E6409306703EB3878700B307F50098
:101CB800B3D7C7023305A740B387C7023305F5007A
:101CC80063C4A600B387C700B70610F03387E700E0
:101CD8001306F0FF23A6C6F4B337F700B387B7009F
:101CE80023A4E6F423A6F6F413058936EF20503032
:101CF800631E050237640080B76500803765008081
:101D0800938505D493061006130684CF1305C5C220
:101D1800EFF01FBC37650080130585D5EFF05FBB7A
:101D280093051006130584CFEFF05FBEF3A40430CB
:101D38008320C10103248101832441010329010176
:101D48008329C1001301010267800000E35A04ECF3
:101D5800130400006FF0DFEC67800000130101FF3F
:101D6800232481002326110023229100232021010E
:101D780013048000733404303769008013058936F2
:101D880013748400EF205024631E0502B76400809A
:101D9800B765008037650080938505D19306E00418
:101DA800138684CF1305C5C2EFF09FB23765008054
:101DB800130585D2EFF0DFB19305E004138584CFD6
:101DC800EFF0DFB413058936EF209025EFF09FC6BA
:101DD800B767008083A40734B304954037D5010062
:101DE8001305054CB3D4A40213058936EF205020FF
:101DF800631E050237690080B7650080376500807B
:101E0800938505D493061006130689CF1305C5C21A
:101E1800EFF01FAC37650080130585D5EFF05FAB99
:101E280093051006130589CFEFF05FAE73240430D5
:101E38008320C100032481001385040003290100C5
:101E480083244100130101016780000083470500D6
:101E580003C705006394E700639607003385E740EE
:101E68006780000013051500938515006FF01FFEAD
:101E7800B347B50093F7370063800706930705005B
:101E880013070000631AE60667800000E30E06FEEB
:101E98009385150003C7F5FF938717001306F6FF10
:101EA800A38FE7FE13F73700E31207FE930630000F
:101EB8003308E64063E60603135726009306C0FF7F
:101EC800B306D70213172700B387E700B385E500E9
:101ED8003306D6006FF0DFFA930705006FF09FFC1A
:101EE800B388E50083A808003388E7001307470094
:101EF800232018016FF0DFFB3388E5000348080052
:101F0800B386E70013071700238006016FF09FF7D9
:101F180093F6F50F9307050013F7370063180704C6
:101F280093F5F50F13978500B365B700139705016F
:101F3800B365B7003383C700138707001308300061
:101F4800B308E340636E1803135726009315270060
:101F5800B387B7009305C0FF3307B7023307C7003D
:101F68003387E7006394E70267800000E30E06FE0C
:101F780093871700A38FD7FE1306F6FF6FF0DFF9DC
:101F880013074700232EB7FE6FF09FFB93871700B8
:101F9800A38FD7FE6FF01FFD1305F0FF67800000C9
:101FA800B767008023A2A72867800000130101FEFD
:101FB800232C81008327850037640080232A910021
:101FC80013048428B7640080232E110023282101DC
:101FD800232631019384C43693091000232004007A
:101FE8001309050023A03401E7800700832749006F
:101FF80023203401E7800700930720002320F40002
:102008008327C900E7800700930730002320F400E6
:102018000324810123A004008320C10183244101FA
:10202800032901018329C100376500801305C54DC7
:10203800130101026F20402437650080130101FF5E
:10204800B76700801307F0FF1305C54D232611005D
:1020580023A6E736EF204022EF20C0148320C100DA
:10206800130101016F20D02C130101FA232A9104D6
:10207800B764008083A70437232E1104232C81041E
:102088002328210523263105232441052322510530
:1020980023206105232E7103232C8103232A910316
:1020A8002328A1032326B10363C4070837640080EB
:1020B8001306100093090500138C05001305C44D81
:1020C80093050000EF20C00E376500809385090056
:1020D800130545DBEFF0CFFF376900801305C9DC36
:1020E800B76A0080EFF0CFFE93840437130A00002C
:1020F800232E8100B77C0080376B0080372D00804D
:10210800B76D0080B76B0080938ACAD683274C00CE
:10211800639E07049385090063060A1037650080EB
:102128001305C5E3EFF0CFFA9307100023A0F400DE
:102138008320C10503248105832441050329010562
:102148008329C104032A8104832A4104032B01043F
:10215800832BC103032C8103832C4103032D01032B
:10216800832DC102130101066780000083250C003E
:10217800B7670080138547E1EFF08FF52322010050
:1021880083270C0113070C001306004093E7870010
:102198009308F0FF1308000093064DFB2320F1007D
:1021A80093850C87930700001305CB4EEF20007E24
:1021B8008327C1019305F0FF1385C74DEF20001A4F
:1021C8009387CD361305CB4E03A40700EF20501696
:1021D800B76700809387C73603A707001304140066
:1021E8009307E0FF1334140003260C006314F7026E
:1021F800B7650080938585E213850BE3EFF04FED1B
:102208001305C9DCEFF0CFEC330A8A00130C4C013C
:102218006FF0DFEF93172400B387FA0083A5070058
:102228006FF09FFD37650080130545E5EFF04FEA35
:1022380083A70400B337F0006FF05FEFB767008043
:1022480083A70737130101FF232481003765008026
:1022580023261100376400801305C5DC638207025A
:10226800EFF00FE7B7650080938585D7130504D88D
:10227800032481008320C100130101016FF04FE5A1
:10228800EFF00FE5B7650080938585D96FF01FFEE5
:10229800130101FF23261100EFE08FF78320C1000F
:1022A800130101016FF09FF9130101FF23260100BB
:1022B8008327C100938717002326F100B70701F091
:1022C80023A0B70013010101678000001305F0FF88
:1022D80067800000130500006780000013172500C1
:1022E800B767008013051500938747E81315250085
:1022F800130101FF3387E700B387A7002324810078
:10230800232291000324070083A407002326110039
:10231800636C94008320C10003248100832441005E
:1023280013010101678000008327040013050400DE
:1023380083A74700E7800700630405002322040001
:102348001304C4006FF0DFFC130101FFB7670080BE
:1023580023229100B76400802324810023261100E2
:102368001384C729232021019387C7299384842DA7
:10237800631C940013090500138407006314940276
:10238800130400006F00400403274400630807009B
:1023980003270400032707006308A7021304C400E7
:1023A8006FF01FFD83274400639607001304C400E1
:1023B8006FF0DFFC832704001305090083A50700DD
:1023C800EFF0DFA8E31405FE130504008320C10025
:1023D8000324810083244100032901001301010122
:1023E80067800000130101FF23248100232291004C
:1023F800232611001304800093042000F3370430CF
:10240800EF20504163C4A400130510009305100089
:10241800EF20104EEFF0CFD26FF05FFE37650080EF
:10242800B767008013060534938787663386C740ED
:1024380093050000130505346FF09FAD130101FFEC
:102448001305200023261100EFF05FE937650080AF
:10245800130585E9EFF0CFC713053000EFF01FE84B
:10246800EF200062EFF0DFE2B76700809387C75C78
:1024780003C7C7001377E7FF2386E7008320C1005F
:102488001301010167800000130101F6232C810864
:10249800B787008037640080232631099387078730
:1024A8009309C46323A2F9009307010113060007E7
:1024B8009305000013850700232E1108232A91088D
:1024C80023282109EFF0DFA41307100023A4A90093
:1024D80013050000A30EE100EFF05FE01305100004
:1024E800EFF0DFDF93071010231EF100EF10904983
:1024F800B76700809387C7ED376900802322F10012
:10250800B726008093071000B77500809304C95C54
:102518002320F10013070000930700009308000030
:10252800130800009386464413060020938505C7C8
:102538001305C95C23A09902EF20401C83C7D4006F
:102548001304C46313F7B7FFA386E40093F7B70136
:10255800639A070083A78401639607001305C95C83
:10256800EF10401AB7670080938747EE2322F100E7
:102578003765008093071000B7260080B775008084
:102588009304C5552320F1009308F00013080000B8
:1025980093070000130700009386C63E1306002029
:1025A800938505E71305C555EF20401583C7D4006B
:1025B800232694001305800093F7B7FFA386F40041
:1025C800B767008093874765232CF400232EF40017
:1025D8007335053013758500EFD09FC403270502B6
:1025E800930705006308070083A605021305F0FF9B
:1025F8006318D70683A6C50103A7C701638606002B
:102608001305F0FF639EE60423AEE50003A7050269
:1026180083A6870023A0E70203A7850023A4D5008B
:1026280083A6450023A4E70003A747006374D700E7
:1026380023A2E50003A7470183A6C70023AAE50054
:1026480003A6870123A6D50023ACC500638C06002A
:1026580023AA050083A747021305000023A2F50259
:1026680067800000E30807FE23A6E5006FF09FFEE1
:10267800130101FF23248100378400801304848917
:10268800232291002320210123261100930484345E
:102698003769008013050400930600001306100034
:1026A80093050000EF2080109305040013054932BC
:1026B80013044405EF101067E31E94FC8320C10047
:1026C800032481008324410003290100130500002D
:1026D8001301010167800000B7670080130101FD45
:1026E80083A74764232A510183AA45022322910222
:1026F80023202103232E3101232861012326710180
:102708002326110223248102232C410123AEF50044
:1027180093090500138B0500930B060023AABA0042
:102728001309050193048000F3B40430130509006C
:1027380093F48400EF204009631E0502376400808B
:10274800B765008037650080938505D19306E0045E
:10275800130684CF1305C5C2EFF08F973765008045
:10276800130585D2EFF0CF969305E004130584CFC7
:10277800EFF0CF9913050900EF20800A03A4890020
:10278800938789006310F40A63920B1213050900FA
:10279800EF200006631E050237640080B7650080DD
:1027A80037650080938505D493061006130684CFF9
:1027B8001305C5C2EFF0CF9137650080130585D5A5
:1027C800EFF00F9193051006130584CFEFF00F94E7
:1027D800F3A40430130A00FB6F00400A9306F0FFCD
:1027E80013060000032481028320C1028329C1014A
:1027F800032A8101832A4101032B0101832BC10094
:10280800938504001305090083244102032901026A
:10281800130101036F10806C83A7C900E306F4F667
:1028280003240400E30204F68325440113050B0086
:10283800EFF0DFDA130A0500E31005FE13050400C4
:10284800EF0090368347D4002326040693F7F70158
:10285800639A070083278401639607001305040021
:10286800EF00506A83C7DA0093F71700E38807F68A
:102878009385040013050900EF0010048320C102AA
:102888000324810213050A0083244102032901025B
:102898008329C101032A8101832A4101032B0101F4
:1028A800832BC100130101036780000083C7DA008E
:1028B80093F717006382070613850A001306F0FFD3
:1028C80093850900EF10805813050900EF10507226
:1028D800631E050237640080B76500803765008095
:1028E800938505D493061006130684CF1305C5C235
:1028F800EFE01FFE37650080130585D5EFE05FFD2B
:1029080093051006130584CFEFF04F80F3A404302D
:10291800130A00006FF09FF693860B0013860900D8
:102928006FF05FEC832745026382070C832745011C
:10293800130101FF2324810023261100130405003D
:102948006388070013054501EF00804A232A040025
:1029580083254402832744002322040203A7450158
:102968002322F70083C7D50093F717006386070271
:10297800032487023765008013054532EF10903A2B
:10298800630E040413050400032481008320C1009E
:10299800130101016F10500E83C7D50023A6050649
:1029A80013F7D7FFA386E50093F7D701639A0700CB
:1029B80083A785016396070013850500EF009054EF
:1029C8001305800073350530032481008320C1007E
:1029D80013758500130101016F00407B8320C1003E
:1029E8000324810013010101678000006780000053
:1029F800930785002320A5002322A5002324F500A2
:102A08002326F5002328050067800000B7670080AB
:102A180083A7476423A2F5026FF01FCC130101FFBF
:102A2800232481002326110013040500639C05005C
:102A380023220500032481008320C1001301010122
:102A48006FF05FEE138505008325C40063880500D9
:102A58000326440063040600EFF08FC11305040049
:102A68006FF05FFD130101FD23286101376B0080C2
:102A78009307CB6383A787002324810223202103A4
:102A8800232E3101232C4101232A510123267101D0
:102A98002326110223229102130A05001389050037
:102AA800930A0600938B060023A0F50293090501FB
:102AB800130480007334043013850900EF10D050DC
:102AC80013748400130BCB63631E0502B764008084
:102AD800B765008037650080938505D19306E004CB
:102AE800138684CF1305C5C2EFE09FDE37650080EB
:102AF800130585D2EFE0DFDD9305E004138584CF6D
:102B0800EFE0DFE013850900EF10905183240A00FD
:102B1800631C9A06639C0B1013850900EF10504D37
:102B2800631E0502B7640080B765008037650080C2
:102B3800938505D493061006138684CF1305C5C262
:102B4800EFE01FD937650080130585D5EFE05FD822
:102B580093051006138584CFEFE05FDB7324043000
:102B6800130500FB6F00C009832749006398070815
:102B780013050900EFF01FDB6F00400883274A00A8
:102B8800E38AF4F883A40400E38604F803A5440167
:102B980093050900EFF09FA4E31205FE13850400D6
:102BA800EF00900013850900EF109044631E0502A2
:102BB800B7640080B765008037650080938505D4C9
:102BC80093061006138684CF1305C5C2EFE05FD0C5
:102BD80037650080130585D5EFE09FCF9305100674
:102BE800138584CFEFE09FD273240430E38E0AF676
:102BF80093850A0013050900EFF05FE21305000052
:102C08008320C10203248102832441020329010293
:102C18008329C101032A8101832A4101032B010170
:102C2800832BC100130101036780000083278B00F9
:102C380093860B0013068A0023AA27019305040034
:102C480013850900EF108029E31C05FA6FF01FFABD
:102C5800130101FF2324810023229100376400809F
:102C6800B7640080232611001304842D9384043153
:102C7800636E94008320C1000324810083244100F3
:102C88001305000013010101678000009307440148
:102C980013050400232AF400232CF400EFE00FA00E
:102CA8001304C4016FF0DFFC130101FE2328210186
:102CB800034905009307C001032605003309F902FB
:102CC80023263101B7690080935586001385892D25
:102CD8001356C60093F5F500232C8100232E11000E
:102CE800232A910033052501232441011304800080
:102CF800EFE0CFAA73340430B764008013854437FB
:102D0800EF10902C137484009389892D631E05029B
:102D1800376A0080B765008037650080938505D1E4
:102D28009306E00413068ACF1305C5C2EFE05FBA25
:102D380037650080130585D2EFE09FB99305E0045D
:102D480013058ACFEFE09FBC13854437EF10502D51
:102D5800130549013385A900EF10403C63060502BD
:102D680093050400032481018320C1010329010183
:102D78008329C100032A8100138544378324410134
:102D8800130101026F00403313854437EF105026BA
:102D9800631E0502B7640080B76500803765008050
:102DA800938505D493061006138684CF1305C5C2F0
:102DB800EFE01FB237650080130585D5EFE05FB1FE
:102DC80093051006138584CFEFE05FB473240430B5
:102DD8008320C101032481018324410103290101C6
:102DE8008329C100032A81001301010267800000C2
:102DF800130545006FF05FEB8347D50093F7F701A4
:102E080063980700032585011335150067800000C6
:102E18001305000067800000130101FF232611003D
:102E2800EFE0DFF3B767008083A707388320C1008E
:102E3800376700803385A7002326A7649305000021
:102E480013850700130101016F20802A83270500DD
:102E5800130101FF2324810023261100232291005E
:102E68001304050063980702B7640080B765008003
:102E780037650080938545FC1305C5C29306301855
:102E8800138604FBEFE0DFA493053018138504FBD9
:102E9800EFE0DFA7032504008320C100032481009D
:102EA800832441001301010167800000130101FE22
:102EB800232C81002328210123244101232E1100E2
:102EC800232A91002326310113090500138A0500DE
:102ED8001304800073340430B7640080138584378A
:102EE80013748400EF10500E631E0502B76900804A
:102EF800B765008037650080938505D19306E004A7
:102F0800138689CF1305C5C2EFE09F9C3765008003
:102F1800130585D2EFE0DF9B9305E004138589CF85
:102F2800EFE0DF9E13858437EF10900FB7670080BE
:102F380023A60764130999009307A0003349F902EF
:102F4800B767008023A02739B767008023AE4737CB
:102F5800EFF09FEC13858437EF109009631E05028C
:102F6800B7640080B765008037650080938505D415
:102F780093061006138684CF1305C5C2EFE05F954C
:102F880037650080130585D5EFE09F9493051006FB
:102F9800138584CFEFE09F97732404308320C10109
:102FA8000324810183244101032901018329C100EC
:102FB800032A81001301010267800000130101FE4A
:102FC800232C810023282101232E1100232A91007C
:102FD80023263101130905001304800073340430DB
:102FE800B76400801385843713748400EF10C07DA4
:102FF800631E0502B7690080B765008037650080E9
:10300800938505D19306E004138689CF1305C5C2BD
:10301800EFE01F8C37650080130585D2EFE05F8BEA
:103028009305E004138589CFEFE05F8E138584371D
:10303800EF10007F13058900EFF05FE193050900A9
:10304800EF00002F8347D9001385843793F7D7FF04
:10305800A306F900EF10C079631E0502B76400806B
:10306800B765008037650080938505D49306100600
:10307800138684CF1305C5C2EFE09F8537650080AE
:10308800130585D5EFE0DF8493051006138584CFFB
:10309800EFE0DF87732404308320C101032481011A
:1030A8002324090083244101032901018329C10044
:1030B8001301010267800000B767008083A7C76318
:1030C800130101FF232481002326110023229100EC
:1030D80013840500639E0704EF108071631E0502C8
:1030E800B7640080B765008037650080938505D494
:1030F80093068007138684CF1305C5C2EFE04FFD02
:1031080037650080130585D5EFE08FFC93058007B0
:10311800138584CFEFE08FFF13050400032481009B
:103128008320C10083244100130101016FD04F8F18
:10313800EF10006C631E0502B7640080B76500805D
:1031480037650080938505D493061006138684CFCF
:103158001305C5C2EFE0CFF737650080130585D5A5
:10316800EFE00FF793051006138584CFEFE00FFA11
:1031780013748400732404308320C1000324810065
:103188008324410013010101678000003767008034
:103198000327C763631407006FD08F889377850070
:1031A800F3A70730678000001305800073350530EA
:1031B800137585006FF09FFD130101FE232C81001C
:1031C800232E1100232A91002328210123263101CF
:1031D8001304800073340430B76400801385843787
:1031E80013748400EF10405E631E05023769008087
:1031F800B765008037650080938505D19306E004A4
:10320800130689CF1305C5C2EFE08FEC3765008040
:10321800130585D2EFE0CFEB9305E004130589CFC2
:10322800EFE0CFEE1385843737690080EF10405FF9
:103238008327C9631309C963638E0702B7690080CE
:10324800B765008037650080938585F49306001084
:103258001386C9F21305C5C2EFE08FE73765008012
:10326800130505CBEFE0CFE6930500101385C9F2EF
:10327800EFE0CFE98327890003C7F7009307100021
:10328800631EF702B7690080B76500803765008064
:10329800938505F6930610101386C9F21305C5C267
:1032A800EFE00FE337650080130505CBEFE04FE251
:1032B800930510101385C9F2EFE04FE50327890045
:1032C8008347F7009387F7FFA307F7001385843731
:1032D800EF100052631E0502B7640080B7650080D6
:1032E80037650080938505D493061006138684CF2E
:1032F8001305C5C2EFE0CFDD37650080130585D51E
:10330800EFE00FDD93051006138584CFEFE00FE0A3
:10331800732404308320C1010324810183244101E3
:10332800032901018329C1001301010267800000FC
:10333800B767008083A78729130101FF2324810031
:103348002326110023229100138405006398F502B7
:10335800B7640080B76500803765008093854503B2
:103368001305C5C29306C028138604FBEFE04FD6A9
:103378009305C028138504FBEFE04FD903274400C9
:10338800832704008320C100832441002320F70001
:1033980023A2E70023200400232204000324810041
:1033A8001301010167800000130101FE232C810035
:1033B800232A9100232E11002328210123263101DD
:1033C8001304050093048000F3B4043037690080C7
:1033D8001305893793F48400EF10003F631E05023C
:1033E800B7690080B765008037650080938505D18F
:1033F8009306E004138689CF1305C5C2EFE04FCDCD
:1034080037650080130585D2EFE08FCC9305E00483
:10341800138589CFEFE08FCF13058937EF10404030
:1034280013058400EFF09FA293050400EFF05FF00E
:103438008347D4001305893793F7D7FFA306F40011
:10344800EF10003B631E050237690080B7650080F6
:1034580037650080938505D493061006130689CF37
:103468001305C5C2EFE0CFC637650080130585D5C3
:10347800EFE00FC693051006130589CFEFE00FC9DB
:10348800F3A40430232404001305840103248101D8
:103498008320C10183244101032901018329C1003B
:1034A800130101026F109027832705006314F500AC
:1034B800930700001385070067800000130101FFD0
:1034C800232481003764008023202101130905008B
:1034D8001305C46313054502232291002326110016
:1034E800EFF09FFC1304C463930405006314050004
:1034F8008324C400631E090683278400639E070291
:1035080037690080B7650080376500809385C5FD01
:103518009306F007130609FB1305C5C2EFE04FBB7E
:1035280037650080130505CBEFE08FBA9305F007E8
:10353800130509FBEFE08FBD8327840003C7D7007D
:103548001377F7016316070283D6E7001307F0071E
:103558006370D7022320F4028320C1000324810072
:103568008324410003290100130101016780000041
:103578008327840063849700EFF01F8A2320940236
:103588006FF09FFD130101FE232821013769008098
:103598009307C96383A78700232E1100232C81007A
:1035A80083C7F700232A9100232631011309C96331
:1035B800639E070237640080B76500803765008026
:1035C800938585F893061022130604FB1305C5C2DC
:1035D800EFE00FB037650080130505CBEFE04FAF84
:1035E80093051022130504FBEFE04FB2832709006F
:1035F800638E070237640080B765008037650080F6
:10360800938585F493062022130604FB1305C5C28F
:10361800EFE00FAC37650080130505CBEFE04FAB4B
:1036280093052022130504FBEFE04FAE130480003E
:1036380073340430B76400801385843713748400AE
:10364800EF108018631E0502B7690080B765008017
:1036580037650080938505D19306E004138689CFEA
:103668001305C5C2EFE0CFA637650080130585D2E4
:10367800EFE00FA69305E004138589CFEFE00FA9CB
:1036880013858437EF10C01903278900130510002C
:103698008347F70093871700A307F700EFF01FE2AF
:1036A80013858437EF10C014631E0502B7640080C9
:1036B800B765008037650080938505D493061006AA
:1036C800138684CF1305C5C2EFE08FA0376500804D
:1036D800130585D5EFE0CF9F93051006138584CF9A
:1036E800EFE0CFA273240430032481018320C101B9
:1036F80083244101032901018329C1001301010227
:103708006FF09FAA130101FE232C8100232A910048
:10371800232E11002328210123263101130405003B
:1037280093048000F3B404303769008013058937A7
:1037380093F48400EF104009631E0502B769008006
:10374800B765008037650080938505D19306E0044E
:10375800138689CF1305C5C2EFE08F9737650080C0
:10376800130585D2EFE0CF969305E004138589CF42
:10377800EFE0CF9913058937EF10800AB76700800B
:1037880083A787296318F402B7690080B7650080AA
:1037980037650080938545031305C5C293066027E6
:1037A800138609FBEFE0CF9293056027138509FB89
:1037B800EFE0CF95376700809306C76383A746027B
:1037C80003A68602B7660080938606661307C7635A
:1037D8006386D70A6384070A8305E4000385E70044
:1037E80063D8A50803A747002320F4002322E40098
:1037F8002320870023A287008347D40013050000F5
:1038080093E70704A306F400EFF05FCB13058937AD
:10381800EF00107E631E050237640080B7650080E4
:1038280037650080938505D493061006130684CF68
:103838001305C5C2EFE0CF8937650080130585D52C
:10384800EFE00F8993051006130584CFEFE00F8C86
:10385800F3A404308320C10103248101832441019E
:10386800032901018329C1001301010267800000B7
:103878006306F60083A70700E39207F62322C40035
:10388800832787022320D40023A0870023248702CC
:103898006FF09FF6832705FF130101FE232C81009B
:1038A80023263101232E1100232A910023282101E8
:1038B8002324410113040500930985FE6384070C42
:1038C80093048000F3B40430376900801305893706
:1038D80093F48400EF00506F631E0502376A00807E
:1038E800B765008037650080938505D19306E004AD
:1038F80013068ACF1305C5C2EFD09FFD3765008038
:10390800130585D2EFD0DFFC9305E00413058ACFB9
:10391800EFD0DFFF13058937EF009070130504FF20
:10392800EFF0CFD293850900EFF09FA0834754FFB3
:103938001305893793F7D7FFA30AF4FEEF00506BFE
:10394800631E050237690080B7650080376500800F
:10395800938505D493061006130689CF1305C5C2AF
:10396800EFD01FF737650080130585D5EFD05FF6D8
:1039780093051006130589CFEFD05FF9F3A404303F
:10398800232804FE834754FF1385090093F7B7FEE5
:10399800A30AF4FEEFF04FC6630405020324810175
:1039A8008320C1018324410103290101032A8100E5
:1039B800138509008329C100130101026FF09FD408
:1039C8008320C101032481018324410103290101CA
:1039D8008329C100032A81001301010267800000C6
:1039E800130101FE232C810023282101232E11001D
:1039F800232A910023263101232441012322510146
:103A0800130405001309800073390930B769008071
:103A18001385893713798900EF00105B631E05024F
:103A2800B7640080B765008037650080938505D14D
:103A38009306E004138684CF1305C5C2EFD05FE96F
:103A480037650080130585D2EFD09FE89305E00421
:103A5800138584CFEFD09FEB13858937EF00505C37
:103A6800B76400801385C4639305040013054502F9
:103A7800EFF01F8CB767008083A78729376A00801B
:103A88009384C463130A0A666318F402B76A008051
:103A9800B765008037650080938545031305C5C267
:103AA8009306602713860AFBEFD09FE293056027F1
:103AB80013850AFBEFD09FE583A7440203A784027E
:103AC800638E470B638C070A8306E4000386E700CE
:103AD80063D0C60A03A747002320F4002322E4008A
:103AE8002320870023A287008347D40003A58400EE
:103AF80093E707043305854013351500A306F40042
:103B0800EFF0DF9B13858937EF00904E631E0502A7
:103B180037640080B765008037650080938505D4D9
:103B280093061006130684CF1305C5C2EFD05FDADB
:103B380037650080130585D5EFD09FD9930510060A
:103B4800130584CFEFD09FDC732909308320C1018E
:103B58000324810183244101032901018329C10030
:103B6800032A8100832A41001301010267800000B3
:103B78006386E70083A70700E39A07F42322E4009B
:103B880083A784022320440123A0870023A484025E
:103B98006FF09FF5B767008083A70738638607062D
:103BA800B76700809387C76303A787009306F0076A
:103BB8000356E70063EAC604B76600800306E70019
:103BC80083A6C6376342D604B766008083A68629D3
:103BD800630CD702832687016398060283A6070130
:103BE8006340D502130101FF1305070023261100C6
:103BF800EFF01FDF8320C100130101016FF0CFA197
:103C0800B386A64023A8D70067800000130101FEF1
:103C1800232C810023263101232E1100232A910011
:103C2800232821019309050013048000733404300C
:103C3800B76400801385843713748400EF00D0388C
:103C4800631E050237690080B7650080376500800C
:103C5800938505D19306E004130689CF1305C5C2E1
:103C6800EFD01FC737650080130585D2EFD05FC638
:103C78009305E004130589CFEFD05FC91385843716
:103C8800EF00103A83C7D900376900801309C96368
:103C980093F70704638E070093850900130549020B
:103CA800EFF00FE983C7D90093F7F7FBA386F90074
:103CB800032589003305354113351500EFF01F80C2
:103CC80013858437EF00D032631E0502B764008085
:103CD800B765008037650080938505D49306100684
:103CE800138684CF1305C5C2EFD09FBE3765008009
:103CF800130585D5EFD0DFBD93051006138584CF56
:103D0800EFD0DFC0732404308320C1010324810174
:103D180083244101032901018329C1001301010200
:103D280067800000130101FE232C8100232A9100E3
:103D38001304050023282101232E11002326310115
:103D48009384050013090600EFF05FEC8347D40065
:103D580093E72700A306F40063860406B76700808C
:103D680083A78729232494006318F402B769008085
:103D7800B765008037650080938545031305C5C284
:103D880093066027138609FBEFD09FB4930560273D
:103D9800138509FBEFD09FB783A70400638CF40653
:103DA800638A07060307E4008386E700635CD70499
:103DB80003A747002320F4002322E40023208700E0
:103DC80023A287009307F0FF6304F90613099900FB
:103DD8001306A0003346C902130584010324810198
:103DE8008320C10183244101032901018329C100E2
:103DF800B74500809385C589130101021306160093
:103E08006F00106F83A644006386D70083A707005E
:103E1800E39C07F883A74400232094002322F4009E
:103E280083A7440023A0870023A284006FF09FF992
:103E38008320C10103248101832441010329010155
:103E48008329C1001301010267800000B767008061
:103E580083A74764130101FE232C81002328210135
:103E680023263101232E1100232A91001304050073
:103E78001389050093090600638EA7028347D500BE
:103E880093F7170063980702B7640080B76500804E
:103E9800376500809385C5FF1305C5C29306D01703
:103EA800138604FBEFD0DFA29305D017138504FB1C
:103EB800EFD0DFA513050400032481018320C1018D
:103EC8008324410113860900930509008329C10051
:103ED80003290101130101026FF0DFE4130101FF5F
:103EE800B7670080232481001304050003A54764F5
:103EF800232291009384050093050600138606008B
:103F080023261100EFF01FE213050400EF00500E06
:103F1800631E050237640080B7650080376500803E
:103F2800938505D493068007130684CF1305C5C26D
:103F3800EFD01F9A37650080130585D5EFD05F99BC
:103F480093058007130584CFEFD05F9C032481007D
:103F58008320C1001385040083244100130101015B
:103F68006FC00FAC130101FE232821012326310164
:103F7800232E1100232C8100232A91009309050088
:103F88001309800073390930B764008013858437BA
:103F980013798900EF005003631E0502376400801F
:103FA800B765008037650080938505D19306E004E6
:103FB800130684CF1305C5C2EFD09F9137650080E3
:103FC800130585D2EFD0DF909305E004130584CF65
:103FD800EFD0DF9313858437EF0090041385090031
:103FE800EFF08FCC1304050013858437EF005000E1
:103FF800631E0502B7690080B765008037650080D9
:10400800938505D493061006138689CF1305C5C278
:10401800EFD01F8C37650080130585D5EFD05F8BF7
:1040280093051006138589CFEFD05F8E7329093069
:104038006306040C1309800073390930138584372B
:1040480013798900EF004078631E0502B769008084
:10405800B765008037650080938505D19306E00435
:10406800138689CF1305C5C2EFD09F8637650080B8
:10407800130585D2EFD0DF859305E004138589CF3A
:10408800EFD0DF8813858437EF008079130584002B
:10409800EFE0DFDB93050400EFF08FA98347D4003E
:1040A8001385843793F7D7FFA306F400EF00407415
:1040B800631E0502B7640080B7650080376500801D
:1040C800938505D493061006138684CF1305C5C2BD
:1040D800EFD01F8037650080130585D5EFD04FFFDF
:1040E80093051006138584CFEFD05F8273290930BA
:1040F8002324040013058401EF0050621305040013
:104108008320C10103248101832441010329010182
:104118008329C1001301010267800000130101FF18
:10412800232291002320210123261100232481002A
:10413800130905009304000003240900630489009F
:10414800631004028320C100032481001385040046
:104158000329010083244100130101016780000045
:1041680013050400EFF04FA413050400EFE0DFC8C7
:1041780093041000E30205FC13050400EFF08FD848
:104188006FF09FFBB76700809387C7631387470269
:1041980023A2E70223A4E702930500001305000009
:1041A8006FE0DFD0B767008003A547646780000031
:1041B800130101FE232C8100232A910023282101C9
:1041C800232E11002326310113040500138905004D
:1041D80093040600631E0602B7690080B765008075
:1041E80037650080938585059306600413868904E6
:1041F8001305C5C2EFD0CFED37650080130545061E
:10420800EFD00FED9305600413858904EFD00FF00C
:1042180063FE2403B7690080B765008037650080B6
:104228009385C50793067004138689041305C5C2D0
:10423800EFD00FEA3765008013054509EFD04FE945
:104248009305700413858904EFD04FEC23242401CF
:104258002326940023208400232284008320C10184
:104268000324810183244101032901018329C10019
:104278001301010267800000130101FE232A910047
:1042880023263101232E1100232C8100232821010C
:104298009309050093048000F3B404303764008068
:1042A8001305443893F48400EF000052631E05029E
:1042B80037690080B765008037650080938505D130
:1042C8009306E004130689CF1305C5C2EFD04FE06B
:1042D80037650080130585D2EFD08FDF9305E004A2
:1042E800130589CFEFD08FE213054438EF00405310
:1042F80013850900EFF01FC71309050063020504C1
:104308008347D50093F7F701639807008327850152
:1043180063940700EFF00FBF2326090613054438FE
:10432800032481018320C101032901018329C100DC
:104338009385040083244101130101026FE0DFD754
:1043480003A7890083A7C900B387E740B337F00004
:10435800B387E70023A4F9006FF05FFCB76700801C
:1043680083A7C763130101FE2328210123263101F6
:10437800232E1100232C8100232A9100232441019C
:10438800130905009389050063800704638E0502FD
:1043980037640080B7650080376500809385C50B5A
:1043A8009306C008130684041305C5C2EFD04FD284
:1043B80037650080130505CBEFD08FD19305C00872
:1043C80013058404EFD08FD41304800073340430B1
:1043D800B76400801385443813748400EF00C03E2E
:1043E800631E0502376A0080B76500803765008064
:1043F800938505D19306E00413068ACF1305C5C239
:10440800EFD00FCD37650080130585D2EFD04FCCA4
:104418009305E00413058ACFEFD04FCF13854438B6
:10442800EF00004083278900638C07069387F7FF16
:104438002324F90013854438EF00803B631E0502EE
:10444800B7640080B765008037650080938505D420
:1044580093061006138684CF1305C5C2EFD04FC745
:1044680037650080130585D5EFD08FC693051006F4
:10447800138584CFEFD08FC973240430130500004F
:104488008320C101032481018324410103290101FF
:104498008329C100032A81001301010267800000FB
:1044A800639A090413854438EF008034631E0502BB
:1044B800B7640080B765008037650080938505D4B0
:1044C80093061006138684CF1305C5C2EFD04FC0DC
:1044D80037650080130585D5EFD08FBF930510068B
:1044E800138584CFEFD08FC273240430130500FFE7
:1044F8006FF01FF993050400032481018320C10193
:10450800032A810093860900130609008329C10044
:104518000329010113854438832441011301010251
:104528006FF0DF9B0327050183274501130101FE77
:10453800232A910023244101232E1100232C8100DA
:10454800232821012326310193040500138A05003D
:10455800631EF70237640080B76500803765008006
:1045680093850513930680061306040F1305C5C229
:10457800EFD00FB6376500801305C514EFD04FB5DF
:10458800930580061305040FEFD04FB89389840074
:1045980013048000733404301385090013748400F5
:1045A800EF008022631E050237690080B76500802E
:1045B80037650080938505D19306E004130689CFFB
:1045C8001305C5C2EFD0CFB037650080130585D27B
:1045D800EFD00FB09305E004130589CFEFD00FB3E8
:1045E80013850900EF00C02313850400EFF09F979F
:1045F80013090500630605048347D50093F7F701FF
:10460800639807008327850163940700EFF08F8F75
:104618009305040003248101232A4901232609065E
:104628008320C1018324410103290101032A810058
:10463800138509008329C100130101026FE0DFA778
:1046480083A704011385090023A047019387470026
:1046580023A8F400EF00C019631E0502B7640080A8
:10466800B765008037650080938505D493061006EA
:10467800138684CF1305C5C2EFD08FA53765008098
:10468800130585D5EFD0CFA493051006138584CFE5
:10469800EFD0CFA7732404308320C1010324810104
:1046A80083244101032901018329C100032A8100D0
:1046B80013010102678000008347D50093F7F701D3
:1046C80063980700032585011335150067800000EE
:1046D8001305000067800000B767008003A5C76363
:1046E8003335A00067800000B767008083A7476460
:1046F80003C5C7001375150067800000130101FE8C
:1047080003230102232C8100232E110023206100A2
:1047180013040500EFC0CFDAB767008083A74764AA
:104728008320C10183A787062324F406032481017B
:10473800130101026780000083270506130101FFAA
:104748002324810023261100130405006384070035
:10475800E780070013050400EFF01FF66304050265
:1047680013050400EFF08FCA8347D4008320C100EB
:1047780093E78700A306F4000324810013010101D5
:10478800678000008347D40093F7270063860700FB
:1047980013050400EFE09F8283278401E38607FC6A
:1047A80013058401EF0080776FF01FFC2306D50006
:1047B800A306C5002307B500A3070500232C0500A1
:1047C800232E05006780000003250500630E050001
:1047D800B767008083C70765137535003305F54053
:1047E8003335A000678000001305100067800000C3
:1047F800B76700809387C76303C7470183A787000C
:10480800B3E7E700032705006318F7002320050036
:104818001305100067800000130500006780000082
:10482800B76700809387C76303C7470183A78700DB
:10483800B3E7E7002320F50067800000130101FEBD
:10484800232C810023282101232E1100232A9100E3
:104858002326310113090500130480007334043042
:10486800B76400801385843813748400EFF0DFF593
:10487800631E0502B7690080B76500803765008050
:10488800938505D19306E004138689CF1305C5C225
:10489800EFD00F8437650080130585D2EFD04F83A2
:1048A8009305E004138589CFEFD04F8613858438AC
:1048B800EFF01FF78347D90013F747006314070683
:1048C80013858438EFF0DFF2631E0502B7640080B9
:1048D800B765008037650080938505D49306100678
:1048E800138684CF1305C5C2EFC09FFE37650080CD
:1048F800130585D5EFC0DFFD93051006138584CF1A
:10490800EFD0CF80732404308320C10103248101B8
:1049180083244101032901018329C10013010102F4
:104928006780000093F7B7FFA306F9001305090095
:10493800EFF09FD86306050013050900EFE09FDC40
:1049480093050400032481018320C1010329010187
:104958008329C1001385843883244101130101028E
:104968006FE08FF5639405006FF05FED9385950018
:104978001306A00033C6C502B74500809385C589D4
:1049880013058501130616006F008036130101FC1C
:1049980023225103938A0600B766008083A6C66364
:1049A800232C8102232A9102232631032324410345
:1049B800232E1102232821031304050093890500DF
:1049C800130A060083244104638E060437690080B5
:1049D800B7650080376500809306201B1306C9154C
:1049E800938585F41305C5C2232E1101232C0101DB
:1049F800232AF1002328E100EFC09FED37650080EE
:104A080013050517EFC0DFEC9305201B1305C91527
:104A1800EFC0DFEF8328C10103288101832741010B
:104A280003270101832601042322010013060A003B
:104A38002320D1009385090093860A0013050400FA
:104A4800EFF0DFCB9307F0FF6388F4009385040051
:104A580013050400EFF01FF1130504008320C103C0
:104A68000324810383244103032901038329C10209
:104A7800032A8102832A410213010104678000008E
:104A8800130101FEB76700802328210137690080E0
:104A9800232C8100232A9100232E11001384872DB3
:104AA8009384872D1309892D6366240313840400D6
:104AB800EFE08FF09304F0FF636024070324810183
:104AC8008320C1018324410103290101130101024B
:104AD8006FE05FAB8327C4022322F100832704021F
:104AE8002320F100832744018328C401032884017B
:104AF800032704018326C400032684008325440079
:104B080003250400EFF09FBF8327040023AE87042A
:104B1800130404036FF05FF983254402638695004C
:104B280003250400EFF01FE4130404036FF0DFF81B
:104B3800130101FE232C8100232A9100232E11004A
:104B48002328210193040500232601001304800073
:104B5800733404301305C10013748400EFF0DFC60A
:104B6800631E050237690080B765008037650080DD
:104B7800938505D19306E004130689CF1305C5C2B2
:104B8800EFC01FD537650080130585D2EFC05FD40D
:104B98009305E004130589CFEFC05FD71305C10063
:104BA800EFF01FC883C7C40093F71700638E07028E
:104BB80037690080B7650080376500809385051BDD
:104BC80093069002130689191305C5C2EFC05FD07A
:104BD800376500801305451EEFC09FCF93059002EF
:104BE80013058919EFC09FD213850400EFF0DFB4D5
:104BF800930504001305C100EFE00FCC8320C10129
:104C080003248101832441010329010113010102C5
:104C180067800000B767008083A7C73863940700E0
:104C28006FD0CF931305000067800000832705002D
:104C3800630205023767008003270729630CE50034
:104C4800638A070003A78700832685003307D700F8
:104C580023A4E700032745002320F70023A2E70049
:104C6800232005002322050067800000B767008025
:104C780083C74739130101FF23261100232481002C
:104C8800232291001305F0FF639607003705008083
:104C98001345F5FFB76700809387C72803A407006B
:104CA8006304F4026302040283248400EFF09FF695
:104CB800B384A4401305000063C8040003248400DF
:104CC800EFF05FF53305A440B767008083A7C7649A
:104CD8006386070063D4A700138507008320C100FB
:104CE800032481008324410013010101678000002F
:104CF80083270500130101FD232481022322910249
:104D0800232E31012326110223202103232C4101C4
:104D1800232A5101232861012326710123248101BB
:104D2800130405009389050093040600638E0702A7
:104D380037690080B7650080376500809385452115
:104D48009306D004130609201305C5C2EFC05FB847
:104D580037650080130505CBEFC09FB79305D004D6
:104D680013050920EFC09FBA23263401634490003D
:104D78009304100093098000F3B90930376A008062
:104D880013050A3993F98900EFF01FA4631E050281
:104D980037690080B765008037650080938505D145
:104DA8009306E004130689CF1305C5C2EFC05FB2AE
:104DB80037650080130585D2EFC09FB19305E004E5
:104DC800130589CFEFC09FB413050A39EFF05FA52B
:104DD800EFF05FE433059500B764008003A9C428A9
:104DE8002324A4009384C428630C9900B76A008024
:104DF800376B0080B76B0080376C00806310090246
:104E080083A74400232094002322F40083A74400AE
:104E180023A0870023A284006F00C0058327890090
:104E280063D6070293054B239306600513860A2071
:104E38001385CBC2EFC0DFA913050CCBEFC05FA968
:104E48009305600513850A20EFC05FAC032789002E
:104E58008327840063D8E70AB307F7402324F900BF
:104E680083274900232024012322F40023A087005C
:104E78002322890083A70400638A97006318F4003B
:104E8800EFF0DFDE93050000EFC09FD513050A3968
:104E9800EFF01F96631E050237640080B765008037
:104EA80037650080938505D493061006130684CFD2
:104EB8001305C5C2EFC0DFA137650080130585D58E
:104EC800EFC01FA193051006130584CFEFC01FA4E0
:104ED800F3A909308320C1020324810283244102FB
:104EE800032901028329C101032A8101832A41017F
:104EF800032B0101832BC100032C81001301010343
:104F080067800000B387E7402324F40083A74400A8
:104F1800E38827EF032909006FF05FEE130101FE14
:104F2800232C810023263101232E1100232A9100EE
:104F380023282101930905001304800073340430E9
:104F4800B76400801385043913748400EFF0DF8799
:104F5800631E050237690080B765008037650080E9
:104F6800938505D19306E004130689CF1305C5C2BE
:104F7800EFC01F9637650080130585D2EFC05F9597
:104F88009305E004130589CFEFC05F9813850439B2
:104F9800EFF01F8983A709001309A0FE63880700A3
:104FA80013850900EFF09FC8130900001385043921
:104FB800EFF01F84631E0502B7640080B7650080A8
:104FC80037650080938505D493061006138684CF31
:104FD8001305C5C2EFC0DF8F37650080130585D57F
:104FE800EFC01F8F93051006138584CFEFC01F9263
:104FF800732404308320C1010324810113050900AF
:1050080083244101032901018329C10013010102FD
:1050180067800000130101FF23248100232611006B
:1050280023229100232021011304800073340430CB
:10503800B76400801385043913748400EFF0CFF847
:10504800631E050237690080B765008037650080F8
:10505800938505D19306E004130689CF1305C5C2CD
:10506800EFC01F8737650080130585D2EFC05F86C4
:105078009305E004130589CFEFC05F8913850439D0
:10508800EFF00FFAEFF09FBE1309050013850439FE
:10509800EFF00FF6631E0502B7640080B765008065
:1050A80037650080938505D493061006138684CF50
:1050B8001305C5C2EFC0DF8137650080130585D5AC
:1050C800EFC01F8193051006138584CFEFC01F849E
:1050D800732404308320C1000324810013050900D0
:1050E80083244100032901001301010167800000A6
:1050F800130101FE232C81002328210123244101CF
:10510800232E1100232A91002326310113090500BB
:10511800138A05001304800073340430B7640080D8
:105128001385043913748400EFF00FEA631E050237
:10513800B7690080B765008037650080938505D121
:105148009306E004138689CF1305C5C2EFC04FF854
:1051580037650080130585D2EFC08FF79305E0040B
:10516800138589CFEFC08FFA13850439EFF04FEB21
:10517800EFF0DFAF635CA9009307100063D8A700C6
:1051880093050A0013050900EFC09FA5138504398C
:10519800EFF00FE6631E0502B7640080B765008074
:1051A80037650080938505D493061006138684CF4F
:1051B8001305C5C2EFC0CFF137650080130585D54B
:1051C800EFC00FF193051006138584CFEFC00FF4DD
:1051D800732404308320C101032481018324410105
:1051E800032901018329C100032A81001301010257
:1051F80067800000130101FD23248102232C410153
:10520800232611022322910223202103232E310178
:10521800232A5101232861012326710123248101B6
:10522800232291012320A101130A05001304800001
:10523800EFE05F967334043037690080130509394D
:1052480013748400EFF04FD8631E0502B764008022
:10525800B765008037650080938505D19306E00423
:10526800138684CF1305C5C2EFC08FE6376500806B
:10527800130585D2EFC0CFE59305E004138584CFED
:10528800EFC0CFE8B769008013050939EFF04FD9AF
:10529800B764008023A64939376A00809389C938E2
:1052A800130ACA2893848434B76A0080B76B0080D5
:1052B800376B0080376C0080B76C0080032D0A00C4
:1052C80083A7090083A6040003A54400630C4D01CD
:1052D800630A0D0003278D0063DCE70A3307F740F4
:1052E8002324ED00B386D70013D7F7413307A7006F
:1052F800B3B7F600B387E70023A0D40023A2F400D5
:1053080023A00900EFF09F9693050000EFC05F8D82
:1053180013050939EFF0CFCD631E0502B76400808D
:10532800B765008037650080938505D4930610061D
:10533800138684CF1305C5C2EFC08FD937650080A7
:10534800130585D5EFC0CFD893051006138584CFF4
:10535800EFC0CFDB732404308320C1020324810211
:1053680083244102032901028329C101032A8101FF
:10537800832A4101032B0101832BC100032C8100E7
:10538800832C4100032D01001301010367800000F5
:10539800B306D7009355F741B385A50033B6E600A9
:1053A8003306B600B387E74013050D0023240D002C
:1053B80023A0D40023A2C40023A0F900EFF01F8784
:1053C80013050939EFF0CFC26316050293850BD494
:1053D8009306100613868ACF1305CBC2EFC04FCFB2
:1053E80013058CD5EFC0CFCE9305100613858ACF51
:1053F800EFC0CFD1732404308327CD0013050D00EF
:1054080013048000E780070073340430130509395A
:1054180013748400EFF04FBB6318050293850CD119
:105428009306E00413868ACF1305CBC2EFC04FCA98
:1054380037650080130585D2EFC08FC99305E00456
:1054480013858ACFEFC08FCC13050939EFF04FBD14
:085458006FF0DFE66780000041
:1054600000000000400C008000000000400C0080A4
:1054700000000000400C008000000000400C008094
:1054800000000000400C008000000000400C008084
:1054900000000000400C008000000000541A008052
:1054A00000000000400C008000000000400C008064
:1054B00000000000400C008000000000400C008054
:1054C00000000000400C008000000000400C008044
:1054D00000000000400C008000000000400C008034
:1054E00000000000400C008000000000400C008024
:1054F00000000000400C008000000000400C008014
:1055000000000000400C008000000000400C008003
:1055100000000000400C008000000000400C0080F3
:1055200000000000400C008000000000400C0080E3
:1055300000000000400C008000000000400C0080D3
:1055400000000000400C008000000000400C0080C3
:1055500000000000400C008000000000400C0080B3
:1055600000000000400C008000000000400C0080A3
:1055700000000000400C008000000000400C008093
:1055800000000000400C008000000000400C008083
:1055900000000000400C008000000000400C008073
:1055A00000000000400C008000000000400C008063
:1055B000A05800800C1A008000000000EC5C008005
:1055C0009C1B008000000000E45C0080DC22008066
:1055D00000000000A0580080782600800000000035
:0C55E000A0580080582C00800000000043
:1055EC00000102020303030304040404040404047E
:1055FC00050505050505050505050505050505054F
:10560C00060606060606060606060606060606062E
:10561C00060606060606060606060606060606061E
:10562C0007070707070707070707070707070707FE
:10563C0007070707070707070707070707070707EE
:10564C0007070707070707070707070707070707DE
:10565C0007070707070707070707070707070707CE
:10566C0008080808080808080808080808080808AE
:10567C00080808080808080808080808080808089E
:10568C00080808080808080808080808080808088E
:10569C00080808080808080808080808080808087E
:1056AC00080808080808080808080808080808086E
:1056BC00080808080808080808080808080808085E
:1056CC00080808080808080808080808080808084E
:1056DC00080808080808080808080808080808083E
:1056EC006D73675F726563656976657200000000B3
:1056FC006B5F6D626F785F67657428706D626F7831
:10570C002C20266D6D73672C207278646174612C6B
:10571C00204B5F464F524556455229203D3D203087
:10572C002069732066616C73650000007465737486
:10573C005F6D73675F726563656976657200000003
:10574C006D73675F72656365697665725F756E6CA4
:10575C00696D697465640000746573745F6D626F64
:10576C00780000006B5F6D626F785F6765742870FE
:10577C006D626F782C20266D6D73672C20727864A7
:10578C006174612C204B5F4E4F5F57414954292067
:10579C003D3D203020697320747275650000000057
:1057AC006B5F6D626F785F67657428706D626F7880
:1057BC002C20266D6D73672C207278646174612CBB
:1057CC002074696D656F757429203D3D203020690A
:1057DC00732066616C73650053656E646572205549
:1057EC004E4C494D495445440A0000002E2F746517
:1057FC007374732F6B65726E656C2F6D626F782F7F
:10580C006D626F785F75736167652F7372632F6D4F
:10581C0061696E2E630000000A2020202041737302
:10582C00657274696F6E206661696C656420617461
:10583C002025733A25643A2025733A2025730A00F3
:10584C00180B0080D00B0080D00B00800C0B00805C
:10585C00180B0080B80B0080C40B0080F45800803B
:10586C0014590080305900804459008050590080F0
:10587C0068590080756E6B6E6F776E004578636546
:10588C007074696F6E2063617573652025732028B1
:10589C002564290A00000000ADBAADDEADBAADDE5C
:1058AC00ADBAADDEADBAADDEADBAADDEADBAADDE24
:1058BC00ADBAADDEADBAADDEADBAADDEADBAADDE14
:1058CC00ADBAADDEADBAADDEADBAADDEADBAADDE04
:1058DC00ADBAADDEADBAADDEADBAADDEADBAADDEF4
:1058EC00ADBAADDEADBAADDE496E7374727563746C
:1058FC00696F6E2061646472657373206D69736186
:10590C006C69676E65640000496E737472756374BC
:10591C00696F6E20416363657373206661756C7487
:10592C0000000000496C6C6567616C20696E7374D3
:10593C0072756374696F6E00427265616B706F692A
:10594C006E7400004C6F61642061646472657373E3
:10595C00206D6973616C69676E6564004C6F61647E
:10596C0020616363657373206661756C740000005D
:10597C002A2A2A2A204B65726E656C20416C6C6F4A
:10598C00636174696F6E204661696C757265212064
:10599C002A2A2A2A0A0000002A2A2A2A2A204B65A7
:1059AC00726E656C204F4F505321202A2A2A2A2AC6
:1059BC000A0000002A2A2A2A2A204B65726E656C7E
:1059CC002050616E696321202A2A2A2A2A0A0000A3
:1059DC002A2A2A2A20556E6B6E6F776E20466174C8
:1059EC00616C204572726F7220256421202A2A2A4C
:1059FC002A0A000043757272656E742074687265B1
:105A0C006164204944203D2025700A4661756C7400
:105A1C00696E6720696E737472756374696F6E203A
:105A2C0061646472657373203D20307825780A2098
:105A3C002072613A2030782578202067703A203027
:105A4C00782578202074703A2030782578202074BE
:105A5C00303A20307825780A202074313A2030787A
:105A6C002578202074323A20307825782020743321
:105A7C003A2030782578202074343A2030782578F4
:105A8C000A202074353A2030782578202074363A54
:105A9C002030782578202061303A20307825782005
:105AAC002061313A20307825780A202061323A2062
:105ABC0030782578202061333A20307825782020E2
:105ACC0061343A2030782578202061353A203078BE
