:0200000480007A
:100000009702000093824201739052306F00901764
:020010000000EE
:02001200FFFFEE
:100014005D7106C00EC212C416C61AC81ECA72CCBE
:1000240076CE7AD07ED22AD42ED632D836DA3ADCBC
:100034003EDEC2C0C6C2F322103496C4F32200309E
:1000440096C6EF00E01A1303000005E9F3222034FA
:10005400B70300809383F3FFB3F272002D43638AE6
:10006400620013050100970000009380E0116F0007
:100074005057A642910296C441A09302010097638F
:100084000000938323AF03A14300411116C003AEC4
:100094000300050E23A0C3016308030097000000BA
:1000A400938080036F00505A73252034B702008078
:1000B4009382F2FF33755500EF00801297520000CF
:1000C400938282950E05AA9203A5020003A342001F
:1000D400E7000300176300001303C3A9832303008D
:1000E400FD132320730082421381020083238300C3
:1000F400032E030263087E0897620000938282A79E
:1001040003A382002326830223289302232A2303A2
:10011400232C3303232E4303232053052322630577
:10012400232473052326830523289305232AA30563
:10013400232CB30523242302975300009383C3691C
:1001440003AE03002326C30703A3020223A4620011
:10015400032183020324C3028324030303294303E7
:1001640083298303032AC303832A0304032B43043D
:10017400832B8304032CC304832C0305032D430521
:10018400832D8305A64273901234B64273900230D5
:10019400824092412242B2424243D243624EF24EE4
:1001A400025F925F2255B2554256D2566257F257B9
:1001B4000648964861617300203000007300000017
:1001C400976200009382029B03A382008323C306E9
:1001D4002189F322053013850300678000000000A5
:1001E4000543B312A30073B34234678000000000D8
:1001F400F322203437030080B3F2620013050000B9
:0A0204006383020005056780000017
:02020E00FFFFF0
:100210006300060293070002B387C740634CF000F7
:10022000130506FE1307000033D5A500930507004C
:100230006780000033D7C5003355C500B395F5007E
:100240003365B5006FF09FFE130101FD232291027B
:100250002328610123261102232481022320210364
:10026000232E3101232C4101232A51012326710120
:100270002324810123229101130B0500938405009F
:10028000639C063813040600930905001759000003
:100290001309C99063F8C512B7070100938A0500D6
:1002A0006378F6109306F00FB3B6C6009396360047
:1002B000B357D6003309F90003470900B306D70046
:1002C000130700023307D740630C0700B394E40020
:1002D000B356DB003314E600B3EA9600B319EB0023
:1002E000135B040193050B0013850A00EF004063C4
:1002F0001309050093050B00931B040113850A00E5
:10030000EF00805D93DB0B0193040500930505006E
:1003100013850B00EF0080501319090113D7090151
:100320003367E900138A0400637EA7003307870060
:10033000138AF4FF636887006376A700138AE4FFDB
:1003400033078700B304A74093050B00138504000F
:10035000EF00005D1309050093050B0013850400F1
:10036000EF00805793990901930405009305050058
:100370001319090113850B0093D90901EF00004AF5
:10038000B36939011386040063FCA900B309340181
:100390001386F4FF63E6890063F4A9001386E4FF83
:1003A00093170A01B3E7C700130A00006F00001398
:1003B000B707000193060001E36CF6EE9306800197
:1003C0006FF01FEF138A0600631A06009305000002
:1003D00013051000EF00405013040500B70701009B
:1003E000637CF4129307F00F63F48700130A800014
:1003F000B35744013309F90083460900130600028C
:10040000B38646013306D64063120612B384844095
:10041000130A1000135B040193050B0013850400FD
:10042000EF0000501309050093050B00138504002D
:10043000931B0401EF00404A93DB0B01930405007A
:100440009305050013850B00EF00403D13190901CA
:1004500013D709013367E900938A0400637EA7007C
:1004600033078700938AF4FF636887006376A700E9
:10047000938AE4FF33078700B304A74093050B007A
:1004800013850400EF00C0491309050093050B0014
:1004900013850400EF00404493990901930405007B
:1004A000930505001319090113850B0093D9090160
:1004B000EF00C036B36939011386040063FCA9005C
:1004C000B30934011386F4FF63E6890063F4A900DD
:1004D0001386E4FF93970A01B3E7C700138507006B
:1004E00093050A008320C102032481028324410270
:1004F000032901028329C101032A8101832A4101C1
:10050000032B0101832BC100032C8100832C4100AC
:100510001301010367800000B7070001130A0001FF
:10052000E368F4EC130A80016FF09FEC3314C4000D
:1005300033DAD400B319CB00B356DB00135B0401EC
:10054000B394C40093050B0013050A00B3EA9600A8
:10055000EF00003D1309050093050B0013050A0089
:10056000931B0401EF00403793DB0B01930405005C
:100570009305050013850B00EF00402A13190901AC
:1005800013D70A013367E900138A0400637EA700CA
:1005900033078700138AF4FF636887006376A70038
:1005A000138AE4FF33078700B304A74093050B00C9
:1005B00013850400EF00C0361309050093050B00F6
:1005C00013850400EF0040319304050093050500F6
:1005D00013850B00EF00802493960A01131909017B
:1005E00093D60601B367D9001387040063FEA70002
:1005F000B38787001387F4FF63E8870063F6A700DB
:100600001387E4FFB3878700131A0A01B384A74056
:10061000336AEA006FF01FE063ECD51EB7070100F4
:1006200063F4F6049305F00F33B5D50013153500C8
:1006300033D7A6009747000093874756B387E70054
:1006400083C50700130A0002B385A500330ABA4028
:1006500063160A0293071000E3E296E83336CB00F4
:10066000934716006FF09FE7B707000113050001DD
:10067000E3E0F6FC130580016FF09FFBB35AB60070
:10068000B3964601B3EADA0033D9B400B397440114
:10069000B355BB0093DB0A01B3E4F5001305090071
:1006A00093850B00B3194601EF0080271304050062
:1006B00093850B0013050900139C0A01EF00C0216C
:1006C000135C0C01130905009305050013050C00CC
:1006D000EF00C0141314040113D704013367E400BE
:1006E000930C0900637EA70033075701930CF9FFB1
:1006F000636857016376A700930CE9FF330757013E
:100700003309A74093850B0013050900EF00402132
:100710001304050093850B0013050900EF00C01BAF
:10072000130905009305050013050C00EF00000FE9
:10073000939704011314040193D707013367F4005E
:1007400013060900637EA700330757011306F9FF5C
:10075000636857016376A7001306E9FF3307570163
:1007600093970C01370E0100B3E7C7001308FEFF93
:1007700033F3070133F809013307A74093DE07017C
:1007800093D909011305030093050800EF00000940
:10079000930805009385090013050300EF00000886
:1007A000130305009305080013850E00EF000007F2
:1007B000130805009385090013850E00EF0000065D
:1007C00093D6080133030301B386660063F4060180
:1007D0003305C50113D606013305A6006366A702DB
:1007E000E314A7BC370701001307F7FFB3F6E600D1
:1007F00093960601B3F8E80033164B01B386160151
:10080000130A0000E37CD6CC9387F7FF6FF0DFB9C3
:10081000130A0000930700006FF05FCC1306050079
:100820001305000093F61500638406003305C50028
:1008300093D5150013161600E39605FE6780000099
:10084000130101FF1383060023261100130E050078
:1008500093080500930606001307000093070000A5
:100860001308000013F51600931E1700630C050013
:100870003385080133380501B387E700B307F80073
:100880001308050013D7F80193D6160033E7EE00DE
:1008900093981800E39806FC63880500130506008A
:1008A000EFF0DFF7B387A700630A030013050E001C
:1008B00093050300EFF09FF6B307F5008320C10016
:1008C00013050800938507001301010167800000EC
:1008D0006340050663C605061386050093050500FB
:1008E0001305F0FF630C060293061000637AB6004E
:1008F0006358C0001316160093961600E36AB6FEFE
:100900001305000063E6C500B385C5403365D50017
:1009100093D6160013561600E39606FE6780000075
:1009200093820000EFF05FFB1385050067800200F3
:100930003305A04063D80500B305B0406FF0DFF980
:10094000B305B04093820000EFF01FF93305A040DB
:10095000678002009382000063CA0500634C0500B3
:10096000EFF09FF71385050067800200B305B040E4
:10097000E35805FE3305A040EFF01FF63305B04005
:1009800067800200176100001301C161B712000007
:10099000938202801691D9296F00F0310000828085
:1009A000B76700809387C786984341113AC632479C
:1009B000050798C341018280797106CE22CC42D4CA
:1009C00046D60DED368637550080BA862E87B75548
:1009D00000803E84938505DF3C10130545E13EC64B
:1009E000EF005075B2452285EF0010733755008037
:1009F000130505F9EF001074EF10804CF2406244CB
:100A000045618280B7670080B765008037650080E8
:100A1000011123A60786FD56B76700801306004024
:100A2000938505BA1305058B06CE23A40786EF3000
:100A3000A038B7160080B76500803765008002C215
:100A400002C0B1480148814701479386A6B3130607
:100A50000040938505FA13054593EF300019B7164A
:100A60000080B76500803765008081470147938625
:100A7000E6B81306004002C202C0B148014893859F
:100A8000053A1305459AEF304016A9653765008091
:100A9000938505C413050583EF20905BF240B7579B
:100AA00000803757008037560080B7550080938705
:100AB00087D81307C7CA9306C00D130606DF9385B0
:100AC00085DA133515000561C5BD797126D28564B7
:100AD00022D44AD04ECE52CC06D62A89938484386A
:100AE000EF30302AAA9433B4A400B71900802E94B2
:100AF0009389099A376A0080EF30B02863CF850068
:100B00006314B400636B9500B25022544A8592542A
:100B10000259F249624A456182808545680002C2F5
:100B20004EC402C6EF301028058911E54C001305AC
:100B30000A8BEF10F0130509C1B741114AC037699C
:100B4000008022C4FD55130509813764008006C664
:100B500026C213048486EF20B04F0840B76400809B
:100B6000AD3708C013850482EF20F043FD5513050F
:100B70000981EF20F04D0840893F08C02244B2406F
:100B8000024913850482924441016F20D04139719A
:100B90006EC6B76D008013850D8106DE22DC26DA75
:100BA0004AD84ED652D456D25AD05ECE62CC66CAFD
:100BB0006AC8EF20503F0145093FB76C0080156DB2
:100BC0002A8493050DE213850C82EF207048375973
:100BD0000080B7540080375C0080B75B00809307CB
:100BE000CCCB130789C9138604DF93850BCE9306FC
:100BF000300A13351500376A00807D3B130A8A8658
:100C0000B769008003250A009389C98683A7090074
:100C10002295375B0080B75A00801D8D130789C964
:100C200093078BD1138604DF9306600A9385CAD39A
:100C3000133515005133A9452945EF10B01F138511
:100C40000D81EF2050362285493593050DE22A8427
:100C500013850C82EF20D03F9307CCCB130789C9B3
:100C6000138604DF93850BCE9306000B1335150016
:100C7000A13303250A0093078BD1130789C92A944E
:100C800003A50900138604DF9385CAD33305A44066
:100C9000133515009306300B05336254F250D254CD
:100CA0004259B259225A925A025BF24B624CD24CD0
:100CB000424DB24D376500801305058321616F20D9
:100CC000902EB7550080375500809385C579130560
:100CD00005DE6F104021411106C622C49947630208
:100CE000F502EF20504F0DC1EF20F04E21E1B75536
:100CF00000809385C50E3755008013050510EF0061
:100D00007043EF009047F5BFEF20D04D71FD376481
:100D10000080130444B70C443755008013050512B6
:100D2000EF0050410844EF20D07DE1BFB75500806F
:100D30009385850EC9B75D71A2C4A6C286C69947C0
:100D4000AA842E8463E9A7083757008093172500EB
:100D50001307C7E3BA979C43828737550080130572
:100D6000C5F6EF00303DEF2070197C408328040168
:100D70000328C4003ED83C40584014403ED65C5C3A
:100D80003044AA853ED41C5C37550080130505FF0E
:100D90003ED25C583ED01C583ECE5C543ECC1C54D7
:100DA0003ECA5C503EC81C503EC65C4C3EC41C4C07
:100DB0003EC25C483EC01C44EF00D037A285268569
:100DC000193F37550080130545F961BF375500803D
:100DD000130505FB79B737550080A6851305C5FCBB
:100DE000EF00503549B7411122C406C62A84732644
:100DF000203406060582954763E3C7023757008013
:100E000093172600130787E5BA978C433755008060
:100E1000130585E7EF001032A2850145293FB7553C
:100E20000080938505E7DDB7411106C6F325203420
:100E3000375500808605858113058514EF00902FB6
:100E4000B7550080938545E91145F535B7670080B2
:100E500093870787984311CB03A3070023A00700BC
:100E6000B767008003A5478702838280411106C6C9
:100E7000EF104030EF00F031EF10E034797122D400
:100E800026D24AD04ECE52CC56CA5AC85EC63E8BE7
:100E900006D662C4BD47AA842E84B289368ABA8B2C
:100EA000C28A46896394F806B72700809387E714BF
:100EB0006393F606C256CA8526851146EF20903AFE
:100EC000938509FBA295896723AE040423A0040639
:100ED000C19993870788FCC5B7170080B250225488
:100EE0009387879923A4450323A6750323A8650345
:100EF00023AA5503BCC58CD402599254F249624AC4
:100F0000D24A424BB24B224C456182809386080103
:100F1000F947E3F1D7FA375C0080B75500803755C1
:100F2000008013060C17E146938505191305C521AA
:100F3000EF00502037550080CA85C1563946130549
:100F4000C523EF00301FE14513050C17EF0070209B
:100F500095B793971500AE97139727005C45BA97FE
:100F60000307B5006353B7009C431357F6417D8BCD
:100F7000329715870A07BA979CC21375F6018280CB
:100F80000111740006CEF137324785473395A7002B
:100F90001C43F240C98F1CC305618280011174009B
:100FA00006CE453F324785473395A7001C43F240A4
:100FB0001345F5FF7D8D08C305618280011126CAA6
:100FC000444122CC2A8403558500A6854AC84EC6D2
:100FD00052C456C25AC006CEEFF05F848329040083
:100FE000834AA400FD572A8AAA99A305F40001495F
:100FF0007D4B6341590381448357840063CFF404DC
:10100000F2406244D2444249B249224A924A024BD7
:1010100005618280A6855285EFF01F8C1317190099
:101020004A979317270058443E97930747005CC39D
:101030001CC76349AB00A305240189808D04F19886
:10104000050945BF7D059357F541FD8BAA97958707
:101050008A0723203701BE99CDB74C402685EFF093
:10106000EFFB1C40268681453E955C448504138732
:10107000470018C1984758C1984708C388C72285B8
:1010800001379DBF1D71A2CCD6C286CEA6CACAC8E2
:10109000CEC6D2C4DAC05EDE62DC66DA6AD86ED64C
:1010A0008010034EA500814893172E00BD0793F7CB
:1010B000077F3301F1405C418A8A56838D07F19B9B
:1010C00023A0FA00138BF8FF63D2C803638B0800D8
:1010D0000328C3FF135828000D081378C8FF2320E6
:1010E000030111030328C3FF6379B802FD55631898
:1010F000BB02232007005155130104FAF640664451
:10110000D6444649B649264A964A064BF25B625C8B
:10111000D25C425DB25D25618280850865B78345FA
:1011200005010149858991C5214973390930137930
:101130008900232AE4FA13171B00232CD4FA5A97A8
:1011400054450A0711073697232EC4FAAA845A8AEF
:10115000FD56832907006308371313172A0083A657
:101160004900B38CEA0003A7090083A50C00214DB8
:1011700098C254C323A0090023A2090088403385E4
:10118000A940EFF0EFF42A86D2852685013D050AB5
:101190009306FAFF63C2660503C70401058B19C3F2
:1011A00073290930832744FB515523A03701E38578
:1011B00009F48327C4FB884023A0670193172B0001
:1011C000BE9A83A50A003385A940EFF06FF083270C
:1011D00084FB88C301450DB7884083A50C00854B6F
:1011E0003385A940EFF0CFEE93181A00D298931DE3
:1011F00025008A0883A64C00DE85232614FB36854D
:101200002328D4FAEFF08FE1338CA9003386BB0199
:10121000D2852685B533832604FB9040CC40FD164D
:1012200003D58400E296918E2328D4FAEFF00FDFE5
:10123000832604FB8328C4FA63F0A602D444C6962E
:10124000138646002320CC0090462322CC009046F3
:101250002320860123A48601850B9147E39CFBF89C
:1012600083C60401858A89E60149050A910C0DB7F8
:101270007329093083C60401858AFDD673390D3080
:1012800013798900DDB77D1A138749FFE313DAEC80
:10129000814919B71D71A2CCD2C466DA86CEA6CA1E
:1012A000CAC8CEC6D6C2DAC05EDE62DC6AD86ED6E6
:1012B00080100347A500AA8C0A073D071377077F14
:1012C0003301E14058410A8AD2860D07719B2320E1
:1012D000EA000545910663F3A50803C70C012E89B2
:1012E000B289058B814409C7A144F3B40430A188B5
:1012F000375B0080635C0906B7540080B7550080F7
:1013000037550080138604279306000C9385852D9E
:101310001305C5210525375500801305452A192DCC
:10132000138504279305000C2D25FD5483C70C015C
:10133000858B81C7A188F3A40430130104FAF64019
:101340006644D6444649B649264A964A064BF25B5D
:10135000625CD25C425DB25D2561828003A7C6FFFC
:10136000050509830D07719B98C2ADB713172900B6
:101370005297832A070003AC0C004E85D685EFF008
:10138000EFC9938BFAFF330D75012A9C83A54C009E
:1013900003D58C00EFF08FC86369AD02B7570080AA
:1013A00093854728B75700801385C7219306400AC5
:1013B00013060B274123B75700801385072A9D2B5F
:1013C0009305400A13050B2769234E86CA85668557
:1013D000453E131719004A979316270003A7CC0020
:1013E0003697930647002320DC0014472322DC00B5
:1013F000144723A086012324870103C70C01058B12
:1014000045E38144E30409F29306C4FB4E86CA8592
:10141000668581368326C4FB1357F5410D8B2A97C9
:101420008842719BBD473357E5003D8BE310F7F0D1
:10143000014D93FDC9FF3386AD013285D685232446
:10144000C4FAEFF0AFBD330775012A8C83A54C00B9
:1014500003D58C002326E4FAEFF04FBC0327C4FA2F
:10146000032684FA6372A702CA856685053E03A730
:101470000C003A9C03264C0003270C0018C250C3F2
:1014800023200C0023220C00050D9147E315FDFAE3
:1014900013D6F9410D8AB2997D1993D9294099BD86
:1014A000F3A4043003C70C01058B21DFA147F3B47B
:1014B0000730A18881BF4111AA872E85B285368663
:1014C00006C68297EF208023EF20B003411126C289
:1014D00006C622C44AC0AA84FD552685EF00D079ED
:1014E0002A847DD903294500F9552105EF3040189C
:1014F000058919C122850299EF206006F1BF0145D7
:101500008280411122C42A841305500406C626C2D3
:10151000AE840294A68513052005029422832244FA
:10152000B240A685924413052005410102839C41E7
:1015300085079CC1B757008003A3477C028339719C
:1015400022DC4ED652D45AD06AC806DE26DA4AD8F1
:1015500056D25ECE62CC66CA6EC6AA892E8A328DFB
:10156000368B05446353E0003A848547930C0002B0
:101570006314FB00930C0003B7D49A3B0549A94AB6
:10158000014C9384F49F894D938B140063140C00D9
:1015900063F2A407DE856A85EFF00FB4D2851305E8
:1015A000050382990509054CDE856A85EFF04FB782
:1015B0002A8DA9452685EFF02FB2FD1A8547AA840A
:1015C000E394FAFCD28513050D0382998D47330409
:1015D0002441630FFB02F2506254D2544259B25973
:1015E000225A925A025BF24B624CD24C424DB24D9F
:1015F00021618280E34A54FBE3E86DFBD285668576
:101600008299050955B7D2851305000282997D1488
:10161000E34B80FEC9B7B757008023A2A77C828026
:101620005D71A2C4A6C2CAC04EDE52DC56DA66D2D2
:101630006AD06ECE86C65AD85ED662D42A84AE846C
:10164000B28A368D014A7D598149814CB70D00809F
:1016500003C50A0005E1B640264496440649F259FE
:10166000625AD25A425BB25B225C925C025DF24DDE
:1016700061618280639A0C00930650026305D5284D
:10168000A6850294850AE9B793064006630BD50E3A
:1016900063EBA6049306900363E7A6029306100388
:1016A0006375D50C9306D0026304D5269307000317
:1016B0006303F50A13075002631FE500A6851305AF
:1016C0005002029409AA93068005630BD5141307F0
:1016D00030066303E522A685130550020294A68511
:1016E00003C50A00F9BF930600076301D51263EF33
:1016F000A600930690066306D5089306C00663000D
:10170000D50893068006E30FD5F6F1B79306500788
:101710006305D50C63EAA60213073007E31DE5FA5B
:10172000032C0D00130B4D00E28B03C50B00631B54
:10173000051A8D476398F900B38B8B41B30B794140
:101740006346701B5A8D41A893068007630AD50C27
:101750009306A0074DBF635C0900638D091A130946
:1017600005FDE39109F2894931BFE34A09FE931669
:10177000290036990609130909FD2A99DDB7050ADA
:1017800011B763160A0203260D00110D635B0600F4
:10179000A6851305D00232C0029402467D19330695
:1017A000C0404A87CE86A6852285513B2DA005479D
:1017B000E30BEAFC93077D0013F787FF10435443C4
:1017C000130D87003307B6013337C70036975DDF47
:1017D000A68522853D33814C75B563160A00032624
:1017E0000D00110D7DBF0547E30BEAFE93077D0059
:1017F00013F787FF130D87001043584371FBB7079A
:10180000008093C7F7FFE3FEC7F8D9B7A685130595
:1018100000030294A6851305800702942149854997
:10182000854663C6460783270D0002C4110D3EC2DC
:10183000414C814B02C0C1481245A245138BF8FFB1
:1018400013162B0046C6EFE0BF9C3D8939ED824759
:101850009306000389E7B24885476390F8063695FA
:101860006205A68561850294850B631D0B028D467A
:10187000814CE399D9E013171900B30B7741E35C6E
:1018800070F5A685130500020294FD1BCDBF9307DA
:101890007D0093F687FF9C42138D86003EC2DC429A
:1018A0003EC479B766C0DA8841BFA5479306700584
:1018B000E3E7A7FA930600035DB79307FCFF3EC674
:1018C0006349890185476398F900A68513050003DC
:1018D0000294324CC9BF8947E39DF9FEA6851305E2
:1018E0000002FDB7A685850B029481B5A685130578
:1018F00000020294FD1BA9B503250D00A685130B5C
:101900004D00029481B5014A7D598149854C9DBBAA
:101910008D498DBB8549BDB301112A8637150080DD
:10192000AE861305E5526C0006CE02C6D539F240EC
:101930000561828039712ED24C1006CE32D436D653
:101940003AD83EDA42DC46DE2EC6F937F240216153
:101950008280B75500803755008041119385452B13
:101960001305852C794606C6F137B7550080938557
:1019700045E91945EFF02FBC8280A147F3A7073056
:1019800073005010828085473395A700732545303A
:101990008280A147F3B70730735040307350403412
:1019A0008280411122C426C23764008006C6A9473E
:1019B000AA84130484876317F5000840B5455C4189
:1019C000DC438297084093F5F40F5C41DC43829737
:1019D000B24022442685924441018280411122C4B2
:1019E000372400801305249A06C6B5211305249ACE
:1019F0002244B240410105B1375500804111130521
:101A0000452D06C6EF00C06EB767008023ACA786E1
:101A1000F137B240014541018280B70710F003A7BA
:101A200047F403A507F483A547F4E39AE5FE828013
:101A3000011122CC06CE26CA4AC84EC652C456C28E
:101A4000214473340430376900801305C987218825
:101A5000EF20E00215E9B7540080B75500803755F4
:101A60000080938505309306E0041386842E1305C9
:101A7000C521C9353755008013058531653D93056E
:101A8000E0041385842EF1351305C987B7640080FF
:101A9000EF20A00293848485493783A9040083AA98
:101AA0004400AA8733053541B3B7A700B385554134
:101AB00075661306064C81469D8DEFE0EFF82A8A85
:101AC000F5659385054C5285EFE05FD5AA9933B54E
:101AD000A9005695C8C01305C98723A03401EF108B
:101AE000B07B15E9B7540080B755008037550080AA
:101AF00093850533930610061386842E1305C5219E
:101B0000153D37550080130585342D359305100696
:101B10001385842E3D3D732404306244F240D24448
:101B20004249B249924A5285224A05616F200079A2
:101B3000411106C6DD35F5679387074C370710F06E
:101B4000AA97FD562326D7F433B5A7002E95232454
:101B5000F7F42326A7F41D453D35B2400145410168
:101B6000828063950514011106CE22CC26CA4AC88C
:101B70004EC652C456C25AC0FD576315F5002565BE
:101B80001305E5BCA5671304F5FF9387E7BC63DB8A
:101B900087103E84214973390930B76A0080138564
:101BA000CA8713798900EF10906D15E9B75400804A
:101BB000B755008037550080938505309306E004C3
:101BC0001386842E1305C521B533375500801305C0
:101BD00085318D339305E0041385842E9D3B138559
:101BE000CA87EF10906D153DB76700809387878592
:101BF000F56483A907002A8A9385044C228503ABE8
:101C00004700EFE0BFC19387F44BB38737413E9560
:101C10009385044C5295EFE03FCC9385044CEFE064
:101C2000FFBF338A49412A9A9307703E63C5470133
:101C30009384044C2695B70710F0AA997D5723A6E4
:101C4000E7F433B5A9005A9523A437F523A6A7F4E2
:101C50001385CA87EF10506415E937540080B755D3
:101C600000803755008093850533930610061306D0
:101C7000842E1305C5217D39375500801305853421
:101C80005539930510061305842EE1317329093067
:101C9000F2406244D2444249B249224A924A024B3B
:101CA00005618280E35804EE0144EDB58280411164
:101CB00022C406C626C24AC0214473340430B76425
:101CC00000801385C4872188EF10705B15E93759B0
:101CD0000080B75500803755008093850530930606
:101CE000E0041306892E1305C521A931375500805C
:101CF0001305853181319305E0041305892E91394F
:101D00001385C487EF10705B093BB767008083A71A
:101D10008785F5659385054C1D8DEFE0FFBB2A890E
:101D20001385C487EF10505715E9B7540080B75595
:101D3000008037550080938505339306100613867F
:101D4000842E1305C521FD363755008013058534D3
:101D5000D536930510061385842EE53E7324043092
:101D6000B24022444A85924402494101828083471D
:101D7000050003C705006393E70081E73385E7406B
:101D8000828005058505E5B7B347B5008D8B95CFF6
:101D9000AA8701476317E60482807DDE850503C7B5
:101DA000F5FF85077D16A38FE7FE13F7370075F75C
:101DB0008D463308E64063EC060113572600931660
:101DC0002700158EB697B695E9B7AA87F9BFB388ED
:101DD000E50083A808003388E700110723201801D5
:101DE000C9BF3388E50003480800B386E70005074C
:101DF0002380060145B793F6F50FAA8713F737003E
:101E00001DEB93F5F50F13978500D98D13970501F9
:101E1000D98D3383C7003E870D48B308E340636222
:101E200018031357260093152700AE970D8E3E9684
:101E3000639DC70082807DDE8507A38FD7FE7D1658
:101E400075BF1107232EB7FEC9BF8507A38FD7FE25
:101E5000C5B77D558280B757008023A4A77C8280B8
:101E6000011122CC1C453754008026CA1304C47CBF
:101E7000B764008006CE4AC84EC69384048885495C
:101E8000232004002A8923A0340182978327490054
:101E900023203401829789471CC08327C900829779
:101EA0008D471CC0624423A00400F240D244424942
:101EB000B24937650080130545A105616F10B00E6A
:101EC000376500804111B76700807D57130545A134
:101ED00006C623A0E788EF10100DEF103002B240C5
:101EE00041016F1010621D71A6CAB764008083A7FC
:101EF000448886CEA2CCCAC8CEC6D2C4D6C2DAC066
:101F00005EDE62DC66DA6AD86ED663C907063764BD
:101F100000800546AA892E8C130544A18145EF1047
:101F2000807E37550080CE851305453AEFF09FA09F
:101F3000375900801305C93BB75A0080EFF09F9FC7
:101F400093844488014A22CEB76C0080376B0080AE
:101F5000372D0080B76D0080B75B0080938ACA354B
:101F600083274C009DEBCE8563030A0C3755008018
:101F70001305C542EFF01F9C85479CC0F6406644A0
:101F8000D6444649B649264A964A064BF25B625CFD
:101F9000D25C425DB25D2561828083250C00B7571B
:101FA000008013854740EFF0FF9802C283270C01A1
:101FB00062871306004093E78700FD5801489306A7
:101FC0000DE63EC093850C7A814713054BA2EF10B6
:101FD000D041F247FD55138547A1EF107007938755
:101FE0000D8813054BA28043EF10B051B7670080F6
:101FF0009387078898430504F95713341400032680
:102000000C006311F702B755008093858541138555
:102010000B42EFF03F921305C93BEFF0BF91229ABC
:10202000510C3DBF93172400D6978C43CDB737553D
:10203000008013054544EFF0FF8F9C40B337F0005C
:102040002DBFB767008083A74788411122C4375549
:10205000008006C6375400801305C53B91CFEFF0D2
:102060007F8DB7550080938585361305043722444C
:10207000B24041016FF01F8CEFF0DF8BB75500804D
:1020800093858538DDB7411106C6EFE09FC3B240A6
:10209000410145BF411102C6B24785073EC6B70799
:1020A00001F08CC3410182807D5582800145828090
:1020B00013172500B75700800505938747470A0582
:1020C00041113E97AA9722C426C20043844306C604
:1020D00063679400B24022449244410182801C40D4
:1020E0002285DC43829719C1232204003104CDB735
:1020F0004111B757008026C2B764008022C406C6CB
:102100001384077E4AC09387077E938404816318F3
:1021100094002A893E84631C9400014415A0584011
:1021200009C718401843630DA7003104CDB75C40C0
:1021300099E33104CDB71C404A858C430D3975F9BC
:102140002285B240224492440249410182804111D9
:1021500022C426C206C621448944F3370430EF1056
:10216000107D63C3A40005458545EF20E007EFF02F
:10217000DF80E5B737650080B76700801306858587
:10218000938707BA3386C740814513058585A5B176
:102190004111094506C6293F37550080130585487A
:1021A000EFF04FF90D452937EF10302EE93DB767B5
:1021B0000080938747B003C7C700799B2386E70059
:1021C000B24041018280357122CDB77700803764FB
:1021D00000804EC79387077A930944B723A2F9007A
:1021E0001C081306000781453E8506CF26CB4AC949
:1021F0001931054723A4A9000145A30EE1004D3D77
:1022000005457D3593071010231EF100EF10A03314
:10221000B75700809387C74C376900803EC2B72606
:1022200000808547B7750080930449B03EC00147E0
:10223000814781480148938606191306002093853B
:1022400005BA130549B023A09902EF10C07A83C7DD
:10225000D400130444B713F7B7FFA386E400ED8B53
:1022600099E79C4C89E7130549B0EF00702CB757EC
:1022700000809387474D3EC2376500808547B7266B
:102280000080B7750080930445A93EC0BD48014851
:10229000814701479386E61413060020938505DAEB
:1022A000130545A9EF10207583C7D40044C4214508
:1022B000ED9BA386F400B76700809387C7B81CCC5A
:1022C0005CCC733505302189EFD09FEF8347D50073
:1022D000011122CC06CEFD8B2A8499E71C4D89E79B
:1022E0002EC6EF00F024B245232604064CC8F24067
:1022F000624405618280011122CC26CA4AC84EC6BA
:1023000052C45AC006CE56C22A84AE89328A368B4F
:1023100013098500A144F3B404304A85A188EF1065
:1023200000760DEDB75A0080B75500803755008014
:10233000938505309306E00413868A2E1305C52184
:10234000EFF04FDF3755008013058531EFF08FDE5A
:102350009305E00413858A2EEFF0AFDF4A85EF1076
:10236000C0751305C400EF10600201C9D285B93FE2
:102370004A85A6858D29014591A863030B0821454F
:10238000EF20E06731ED4A85EF1000710DED375415
:102390000080B7550080375500809385053393063C
:1023A00010061306842E1305C521EFF0AFD837555C
:1023B000008013058534EFF0EFD793051006130561
:1023C000842EEFF00FD9F3A404305155F24062444B
:1023D000D2444249B249224A924A024B0561828064
:1023E0008547232245011CC11C418D8B639E09003A
:1023F0001840D98F1CC15C4008C0BDFB48C08DBFD0
:1024000023200A005285CDB703A70900719B01EF75
:1024100058401CC101E748C008C099BF1C438D8BC0
:10242000C98F1CC3E1BFD98F1CC183A709008D8B45
:102430005D8D23A0A9002DBF411122C406C62A84A8
:1024400001C91C418D8B89C7404199C1EF20805A39
:102450002285B2402244410182809307C500232097
:10246000050023220500232405005CC51CC98280C9
:102470002E864C41814641B5011122CC26CA4AC85C
:102480004EC606CE52C4AA84AE89130985002144E3
:10249000733404304A852188EF10605E0DED375AA1
:1024A0000080B7550080375500809385053093062E
:1024B000E00413068A2E1305C521EFF0AFC7375588
:1024C000008013058531EFF0EFC69305E004130596
:1024D0008A2EEFF00FC84A85EF10205E884035C580
:1024E0001C41D840F19B9CC06313E500DCC08545CE
:1024F000A137AA844A85EF10205A0DED3759008084
:10250000B755008037550080938505339306100634
:102510001306892E1305C521EFF0CFC13755008072
:1025200013058534EFF00FC1930510061305892EAE
:10253000EFF02FC273240430F240624426854249F2
:10254000D244B249224A05618280639609044A85D1
:10255000EF1080540DEDB7540080B755008037550B
:10256000008093850533930610061386842E130589
:10257000C521EFF02FBC3755008013058534EFF0EF
:102580006FBB930510061385842EEFF08FBC732468
:102590000430814455B71386C400CE86A2854A858F
:1025A000EF005058814449F9B767008083A7C7B747
:1025B000C44B59B78347D500FD8B89E7084D1335C8
:1025C0001500828001458280411106C6EFF02FEE92
:1025D000B767008083A70789B240376700803E95C0
:1025E0002322A7B881453E8541016F10F03F1C4171
:1025F000411122C406C626C22A849DE7B754008032
:10260000B755008037550080938545571305C52180
:102610009306301813860456EFF0CFB193053018A7
:1026200013850456EFF0EFB20840B24022449244C2
:1026300041018280011122CC4EC652C406CE26CA68
:102640004AC82A8AAE89214473340430B7640080B2
:10265000138584882188EF1080420DED3759008062
:10266000B755008037550080938505309306E00408
:102670001306892E1305C521EFF0CFAB3755008027
:1026800013058531EFF00FAB9305E0041305892E98
:10269000EFF02FAC13858488EF102042B7670080DD
:1026A000A94513059A0023A207B8EFE06FA2B76708
:1026B0000080376900802328A98823A63789293715
:1026C00013858488EF10403D0DEDB7540080B75559
:1026D00000803755008093850533930610061386D6
:1026E000842E1305C521EFF0EFA4375500801305A4
:1026F0008534EFF02FA4930510061385842EEFF098
:102700004FA573240430F2406244D2444249B24996
:10271000224A05618280011122CC4AC806CE26CA0F
:102720004EC62A89214473340430B764008013856F
:1027300084882188EF10A0340DEDB7590080B7557B
:10274000008037550080938505309306E00413869A
:10275000892E1305C521EFF0EF9D37550080130535
:102760008531EFF02F9D9305E0041385892EEFF05E
:102770004F9E13858488EF10403413058900853DF2
:10278000CA8551248347D90013858488F59BA30605
:10279000F900EF1060300DEDB7540080B7550080A0
:1027A0003755008093850533930610061386842ED3
:1027B0001305C521EFF00F983755008013058534B8
:1027C000EFF04F97930510061385842EEFF06F9866
:1027D00073240430F240624423240900D244424965
:1027E000B24905618280B767008083A747B741116E
:1027F00022C406C626C22E84B9E7EF10E0290DEDEB
:10280000B7540080B7550080375500809385053355
:10281000930680071386842E1305C521EFF08F9150
:102820003755008013058534EFF0CF90930580076E
:102830001385842EEFF0EF9122852244B24092441A
:1028400041016FD0FF97EF1020250DEDB7540080A8
:10285000B7550080375500809385053393061006E1
:102860001386842E1305C521EFF0CF8C37550080D9
:1028700013058534EFF00F8C930510061385842E15
:10288000EFF02F8D218873240430B240224492440B
:102890004101828037670080032747B719E36FD073
:1028A0003F9293778500F3A70730828021457335E7
:1028B00005302189C5B7011122CC06CE26CA4AC8E7
:1028C0004EC6214473340430B76400801385848875
:1028D0002188EF10C01A0DED37590080B7550080E0
:1028E00037550080938505309306E0041306892E42
:1028F0001305C521EFF00F8437550080130585318E
:10290000EFF04F839305E0041305892EEFF06F84F9
:102910001385848837690080EF10201A832749B710
:10292000130949B78DCFB7590080B7550080375587
:1029300000809385854F930600101386C94D1305BB
:10294000C521EFE03FFF375500801305052AEFE072
:102950007FFE930500101385C94DEFE09FFF83278D
:10296000890003C7F7008547631EF702B759008047
:10297000B755008037550080938505519306101098
:102980001386C94D1305C521EFE0DFFA37550080E6
:102990001305052AEFE01FFA930510101385C94DA2
:1029A000EFE03FFB032789008347F700FD17A307EC
:1029B000F70013858488EF10200E0DEDB7540080CA
:1029C000B755008037550080938505339306100670
:1029D0001386842E1305C521EFE0DFF537550080FF
:1029E00013058534EFE01FF5930510061385842E3B
:1029F000EFE03FF673240430F2406244D24442498F
:102A0000B24905618280B757008083A7C77D411115
:102A100022C406C626C22E846398F502B7540080ED
:102A2000B7550080375500809385C55A1305C521D9
:102A30009306C02813860456EFE0DFEF9305C02805
:102A400013850456EFE0FFF058401C40B24092441A
:102A50001CC3D8C3232004002322040022444101C4
:102A60008280011122CC26CA06CE4AC84EC62A84CC
:102A7000A144F3B404303769008013058988A18824
:102A8000EF00F07F0DEDB7590080B7550080375546
:102A90000080938505309306E0041386892E130584
:102AA000C521EFE03FE93755008013058531EFE0A0
:102AB0007FE89305E0041385892EEFE09FE9130575
:102AC0008988EF00907F13058400EFF05FB2A28544
:102AD0001D3F8347D40013058988F59BA306F400A6
:102AE000EF00907B0DED37590080B75500803755CA
:102AF000008093850533930610061306892E13056F
:102B0000C521EFE03FE33755008013058534EFE042
:102B10007FE2930510061305892EEFE09FE3F3A4EF
:102B2000043023240400130584016244F240D2449B
:102B30004249B24905616F10E0521C416313F50030
:102B400081473E858280411122C4376400804AC09B
:102B50002A89130544B71305450226C206C6F13F6C
:102B6000130444B7AA8411E14444631209061C44C7
:102B70008DEF37590080B755008037550080938519
:102B8000C5589306F007130609561305C521EFE053
:102B90007FDA375500801305052AEFE0BFD993058A
:102BA000F00713050956EFE0DFDA1C4403C7D7002E
:102BB0007D8B11EF83D6E7001307F0076379D70009
:102BC0001CD0B240224492440249410182801C44FC
:102BD00063849700EFF05F9F04D0E5B701114AC806
:102BE00037690080930749B79C4706CE22CC83C73C
:102BF000F70026CA4EC6130949B78DEF3754008037
:102C0000B755008037550080938585539306102271
:102C1000130604561305C521EFE0DFD137550080B8
:102C20001305052AEFE01FD1930510221305045662
:102C3000EFE03FD2832709008DCF37540080B7558E
:102C40000080375500809385854F93062022130618
:102C500004561305C521EFE0FFCD3755008013055D
:102C6000052AEFE03FCD9305202213050456EFE03F
:102C70005FCE214473340430B764008013858488A8
:102C80002188EF00D05F0DEDB7590080B755008067
:102C900037550080938505309306E0041386892E0E
:102CA0001305C521EFE01FC9375500801305853195
:102CB000EFE05FC89305E0041385892EEFE07FC93C
:102CC00013858488EF00705F0327890005458347DB
:102CD000F7008507A307F700BD3513858488EF004B
:102CE000B05B0DEDB7540080B755008037550080BC
:102CF00093850533930610061386842E1305C5218C
:102D0000EFE05FC33755008013058534EFE09FC2C5
:102D1000930510061385842EEFE0BFC3732404309F
:102D20006244F240D2444249B24905616FF01FB893
:102D3000011122CC26CA06CE4AC84EC62A84A14416
:102D4000F3B404303769008013058988A188EF0047
:102D500010530DEDB7590080B755008037550080EE
:102D6000938505309306E0041386892E1305C5214B
:102D7000EFE05FBC3755008013058531EFE09FBB66
:102D80009305E0041385892EEFE0BFBC1305898805
:102D9000EF00B052B757008083A7C77D6318F402D5
:102DA000B7590080B7550080375500809385C55AC4
:102DB0001305C5219306602713860956EFE09FB7D8
:102DC0009305602713850956EFE0BFB83767008089
:102DD000930647B7DC529056B7660080938686B953
:102DE000130747B76385D708D9C38305E400038574
:102DF000E70063DAA506D8431CC058C000C3C0C3AF
:102E00008347D400014593E70704A306F400EFF0DD
:102E10009FD313058988EF0030480DED37540080AB
:102E2000B75500803755008093850533930610060B
:102E30001306842E1305C521EFE0DFAF3755008060
:102E400013058534EFE01FAF930510061305842E9C
:102E5000EFE03FB0F3A40430F2406244D244424970
:102E6000B249056182806304F6009C43C9F350C0F7
:102E70001C5714C080C300D761B7832705FF011119
:102E800022CC4EC606CE26CA4AC852C42A8493090A
:102E900085FECDCFA144F3B404303769008013051B
:102EA0008988A188EF00B03D0DED375A0080B755F5
:102EB000008037550080938505309306E0041306A3
:102EC0008A2E1305C521EFE0FFA6375500801305B4
:102ED0008531EFE03FA69305E00413058A2EEFE06D
:102EE0005FA713058988EF00503D130504FFEFF03D
:102EF0000FF0CE85EFF03FB1834754FF130589886B
:102F0000F59BA30AF4FEEF0030390DED3759008030
:102F1000B75500803755008093850533930610061A
:102F20001306892E1305C521EFE0DFA03755008079
:102F300013058534EFE01FA0930510061305892EB5
:102F4000EFE03FA1F3A40430232804FE834754FF9D
:102F50004E85AD9BA30AF4FEEFF0CFE519C962449C
:102F6000F240D2444249224A4E85B24905616FF08F
:102F70003FDCF2406244D2444249B249224A0561F0
:102F80008280011122CC4AC806CE26CA4EC652C43F
:102F900056C22A84214973390930B76900801385E4
:102FA000898813798900EF00902D0DEDB7540080CA
:102FB000B755008037550080938505309306E004AF
:102FC0001386842E1305C521EFE0DF963755008068
:102FD00013058531EFE01F969305E0041385842ED9
:102FE000EFE03F9713858988EF00302DB7640080AC
:102FF000138544B7A28513054502EFF0DFA0B7574C
:10300000008083A7C77D376A0080938444B7130A82
:103010008AB96318F402B75A0080B7550080375553
:1030200000809385C55A1305C52193066027138632
:103030000A56EFE03F909305602713850A56EFE0AC
:103040005F91DC509854638A4709C1CB8306E40042
:103050000386E70063DFC606D8431CC058C000C320
:10306000C0C38347D400884493E70704018D133518
:103070001500A306F400EFF01FAD13858988EF005B
:10308000B0210DED37540080B755008037550080D2
:1030900093850533930610061306842E1305C52168
:1030A000EFE05F893755008013058534EFE09F8896
:1030B000930510061305842EEFE0BF8973290930AC
:1030C000F2406244D2444249B249224A924A0561DE
:1030D00082806384E7009C43A5FF58C09C54232052
:1030E000440180C380D4B5BFB767008083A7078938
:1030F000B1CBB7670080938747B798479306F0072F
:103100000356E70063E0C604B76600800306E700E5
:1031100083A6C6886348D602B756008083A6C67DBC
:103120006302D702144F99EE944B634BD5004111C3
:103130003A8506C6EFF0FFE4B24041016FF0CFC818
:10314000898E94CB8280011122CC4EC606CE26CA2F
:103150004AC8AA89214473340430B76400801385B7
:1031600084882188EF00B0110DED37590080B755E4
:10317000008037550080938505309306E0041306E0
:10318000892E1305C521EFE0EFFA375500801305AE
:103190008531EFE02FFA9305E0041305892EEFE067
:1031A0004FFB13858488EF00501183C7D90037691E
:1031B0000080130949B793F7070481CFCE85130523
:1031C0004902EFF05F8483C7D90093F7F7FBA3862A
:1031D000F900032589003305354113351500EFF05B
:1031E0009F9613858488EF00300B0DEDB754008057
:1031F000B755008037550080938505339306100638
:103200001386842E1305C521EFE0CFF237550080D9
:1032100013058534EFE00FF2930510061385842E15
:10322000EFE02FF373240430F2406244D244424969
:10323000B24905618280011122CC26CA2A844AC87B
:1032400006CE4EC6AE843289FD3D8347D40093E757
:103250002700A306F400A9CCB757008083A7C77D39
:1032600004C46318F402B7590080B755008037557D
:1032700000809385C55A1305C521930660271386E0
:103280000956EFE02FEB9305602713850956EFE011
:103290004FEC9C40638BF404A9CB0307E4008386C6
:1032A000E700635FD702D8431CC058C000C3C0C347
:1032B000FD576303F904A94513059900EFD04FE1C9
:1032C00013061500130584016244F240D2444249BA
:1032D000B249B73500809385A5E705616F00103CC2
:1032E000D4406384D7009C43DDFBDC4004C05CC059
:1032F000DC4080C3C0C06DBFF2406244D24442494A
:10330000B249056182804111B767008022C42A84D6
:1033100003A5C7B706C6053722852244B24041013E
:103320006FC01FEA4111B767008022C42A8403A539
:10333000C7B726C2AE84B285368606C6ED3D228565
:10334000EF0080750DED37540080B755008037557C
:10335000008093850533930680071306842E13059A
:10336000C521EFE02FDD3755008013058534EFE0F0
:103370006FDC930580071305842EEFE08FDD224478
:10338000B2402685924441016FC09FE301114AC8B3
:103390004EC606CE22CC26CAAA89214973390930E5
:1033A000B76400801385848813798900EF00206D4D
:1033B0000DED37540080B755008037550080938558
:1033C00005309306E0041306842E1305C521EFE0B3
:1033D0006FD63755008013058531EFE0AFD59305E3
:1033E000E0041305842EEFE0CFD613858488EF0028
:1033F000C06C4E85EFF06FF42A8413858488692DA4
:103400000DEDB7590080B755008037550080938582
:103410000533930610061386892E1305C521EFE0A8
:103420006FD13755008013058534EFE0AFD0930599
:1034300010061385892EEFE0CFD1732909304DCCCA
:103440002149733909301385848813798900052D42
:103450000DEDB7590080B755008037550080938532
:1034600005309306E0041386892E1305C521EFE08D
:103470006FCC3755008013058531EFE0AFCB930556
:10348000E0041385892EEFE0CFCC138584883525A1
:1034900013058400EFF0AF95A285EFF0CFD68347F8
:1034A000D40013858488F59BA306F400F5230DED65
:1034B000B7540080B7550080375500809385053399
:1034C000930610061386842E1305C521EFE08FC6E0
:1034D0003755008013058534EFE0CFC593051006FE
:1034E0001385842EEFE0EFC67329093023240400EE
:1034F00013058401EF0010372285F2406244D24464
:103500004249B24905618280411126C24AC006C6BD
:1035100022C42A898144032409006303890001E845
:10352000B24022442685024992444101828022858C
:10353000EFF02FD32285EFF0EF87854469DD2285F8
:10354000EFF00FFFC9BFB7670080938747B71387B6
:103550004702D8D398D7814501456FF0AF8D01114F
:1035600022CC37640080832744B706CE26CA4AC8D7
:103570004EC652C456C2130444B78DCFB754008010
:10358000B7550080375500809385854F9306E03707
:10359000138604561305C521EFE0CFB937550080D7
:1035A0001305052AEFE00FB99305E037138504569C
:1035B000EFE02FBAB7570080144403A7C77D3E8AB7
:1035C0006385E610214973390930B7690080138596
:1035D00089881379890065210DEDB7540080B755AE
:1035E000008037550080938505309306E0041386EC
:1035F000842E1305C521EFE0EFB337550080130586
:103600008531EFE02FB39305E0041385842EEFE0BE
:103610004FB41385898855210C4413054402EFF0FB
:103620008FBE8327CA7D0444376A0080130A8AB993
:103630006398F402B75A0080B75500803755008070
:103640009385C55A1305C5219306602713860A562C
:10365000EFE04FAE9305602713850A56EFE06FAF9A
:103660005C50185463854709D9C38386E4000386F8
:10367000E70063DAC606D8439CC0D8C004C3C4C3FD
:103680000545EFF04FCC1385898839210DED37546E
:103690000080B75500803755008093850533930629
:1036A00010061306842E1305C521EFE0AFA8375589
:1036B000008013058534EFE0EFA79305100613058E
:1036C000842EEFE00FA973290930214573350530A9
:1036D0006244F240D2444249B249224A924A218984
:1036E00005616FC0FFAD6384E7009C43C9F3D8C098
:1036F0001C5423A0440184C304D459B7B767008085
:1037000003A5C7B78280011122CC26CA4AC806CEBB
:103710004EC62A842E89B2840DEEB7590080B75563
:103720000080375500809385055D930660041386FD
:10373000095C1305C521EFE0EF9F375500801305A5
:10374000C55DEFE02F9F930560041385095CEFE0F2
:103750004FA063FE2403B7590080B755008037554A
:1037600000809385455F930670041386095C1305FA
:10377000C521EFE02F9C375500801305C560EFE0B1
:103780006F9B930570041385095CEFE08F9C2324E5
:10379000240144C400C040C0F2406244D2444249C3
:1037A000B24905618280011126CA4EC606CE22CCDE
:1037B0004AC8AA89A144F3B40430376400801305D1
:1037C0004489A1886D2C0DED37590080B7550080D4
:1037D00037550080938505309306E0041306892E43
:1037E0001305C521EFE00F9537550080130585318E
:1037F000EFE04F949305E0041305892EEFE06F95F9
:10380000130544895D2C4E85EFF05FB82A8915C5F4
:103810008347D500FD8B89E71C4D99E3EFF04FD12D
:1038200023260906130544896244F2404249B249FD
:10383000A685D24405616FE01FFB03A7890083A71B
:10384000C900998FB337F000BA9723A4F900D9BF04
:10385000B767008083A747B701114AC84EC606CE96
:1038600022CC26CA52C42A89AE8995CF8DCD375431
:103870000080B755008037550080938545639306D7
:10388000C0081306045C1305C521EFE0AF8A375565
:1038900000801305052AEFE0EF899305C0081305A2
:1038A000045CEFE00F8B214473340430B764008074
:1038B000138544892188E1220DED375A0080B755E0
:1038C000008037550080938505309306E004130689
:1038D0008A2E1305C521EFE0EF85375500801305CB
:1038E0008531EFE02F859305E00413058A2EEFE084
:1038F0004F8613854489D12283278900B9CFFD17CC
:103900002324F90013854489412A0DEDB754008022
:10391000B755008037550080938505339306100610
:103920001386842E1305C521EFE0CF803755008024
:1039300013058534EFE00F80930510061385842E60
:10394000EFE02F81732404300145F2406244D244F9
:103950004249B249224A056182806396090413856F
:1039600044891D2A0DEDB7540080B75500803755A6
:10397000008093850533930610061386842E130565
:10398000C521EFD03FFB3755008013058534EFD0BC
:103990007FFA930510061385842EEFD09FFB7324C6
:1039A000043041555DB7A2856244F240224ACE867A
:1039B0004A86B249424913854489D24405616FF071
:1039C0007F968347D500FD8B89E7084D1335150099
:1039D000828001458280B767008003A547B73335F1
:1039E000A0008280B767008083A7C7B703C5C70060
:1039F0000589828082800111025322CC06CE1AC032
:103A00002A84EFD0AFC7B767008083A7C7B7F2405B
:103A1000BC573CD46244056182803C51411122C4B0
:103A200006C62A8491C382972285EFF09FF911CDB3
:103A30002285EFF04FF18347D400B24093E787002F
:103A4000A306F4002244410182808347D400898B7D
:103A500081C72285EFE03FCC1C4CF1DF13058401C8
:103A60001125D1BF2306D500A306C5002307B50045
:103A7000A3070500232C0500232E050082800841A2
:103A800011C9B767008083C787B80D891D8D33358D
:103A9000A000828005458280B7670080938747B782
:103AA00003C747019C47D98F18416316F7002320AD
:103AB00005000545828001458280B76700809387B5
:103AC00047B703C747019C47D98F1CC182800111AA
:103AD00022CC4AC806CE26CA4EC62A89214473344F
:103AE0000430B7640080138584892188EFF03FF9A2
:103AF0000DEDB7590080B75500803755008093858C
:103B000005309306E0041386892E1305C521EFD0F6
:103B10007FE23755008013058531EFD0BFE1930573
:103B2000E0041385892EEFD0DFE213858489EFF05E
:103B3000DFF88347D90013F7470039EB13858489F1
:103B4000EFF09FF50DEDB7540080B7550080375565
:103B5000008093850533930610061386842E130583
:103B6000C521EFD03FDD3755008013058534EFD0F8
:103B70007FDC930510061385842EEFD09FDD732420
:103B80000430F2406244D2444249B2490561828025
:103B9000ED9BA306F9004A85EFF0BFE201C54A8517
:103BA000EFF00F99A2856244F2404249B249138571
:103BB0008489D24405616FE01FC399E16FF03FF142
:103BC000411122C42A842E852505A94506C6EFC0C9
:103BD0003FD013061500130584012244B240B735C7
:103BE00000809385A5E7410155AC397156D2B68A5C
:103BF000B766008083A646B722DC26DA4ED652D4BA
:103C000006DE4AD82A84AE89328A9644A9C6375934
:103C10000080B7550080375500809306201B13069F
:103C200089669385854F1305C52146CE42CC3ECA91
:103C30003AC8EFD03FD0375500801305C567EFD0A5
:103C40007FCF9305201B13058966EFD09FD0F248E4
:103C50006248D2474247864602C2528636C0CE8567
:103C6000D6862285EFF03FD9FD576386F400A685FE
:103C70002285EFF09FF42285F2506254D2544259CB
:103C8000B259225A925A216182800111B76700808D
:103C90004AC83769008022CC26CA06CE1384078121
:103CA0009384078113090981636F24012684EFE05F
:103CB0009FC0FD54636E24036244F240D2444249E3
:103CC00005616FE0BFF15C543EC21C503EC05C48D1
:103CD0008328C401032884011848544410444C40EC
:103CE0000840EFF05FD11C40E0CF130404036DBF28
:103CF0004C50638595000840EFF03FEC130404033B
:103D000055BF011122CC26CA06CE4AC8AA8402C6D3
:103D100021447334043068002188EFF05FD60DED44
:103D200037590080B755008037550080938505309E
:103D30009306E0041306892E1305C521EFD09FBF1B
:103D40003755008013058531EFD0DFBE9305E004C1
:103D50001305892EEFD0FFBF6800EFF01FD683C791
:103D6000C400858B8DCF37590080B75500803755FB
:103D700000809385C56B930690021306496A13056C
:103D8000C521EFD03FBB375500801305056FEFD03D
:103D90007FBA930590021305496AEFD09FBB268531
:103DA000EFF0BFC7A2856800EFE0FFA3F2406244D6
:103DB000D244424905618280797106D622D42ACE46
:103DC0002ECC32CA36C8EFE04FE9C2467247E24510
:103DD000524613044701B688B716008002C202C0DB
:103DE0002285014881479386C64CEFF01FE022856B
:103DF0002254B250B75500809385C57045616FF06D
:103E00007FBFB767008083A7C78999E36FD03FEA78
:103E1000014582801C4101CD375700800327477D33
:103E20006307E50089C798471445369798C75841F6
:103E30001CC3D8C323200500232205008280B76756
:103E4000008083C7C78A411106C622C426C27D5599
:103E500089E7370500801345F5FFB7570080938742
:103E6000077D8043630FF40009CC0444EFF07FF931
:103E7000898C014563C704000044EFF09FF83305C7
:103E8000A440B767008083A747B881C763D3A70062
:103E90003E85B24022449244410182801C417971A6
:103EA00022D426D24ECE06D64AD052CC56CA5AC8B2
:103EB0005EC662C42A84AE89B2848DCF3759008031
:103EC000B7550080375500809385C5729306D0049E
:103ED000130689711305C521EFD0DFA53755008082
:103EE0001305052AEFD01FA59305D004130589718A
:103EF000EFD03FA623263401634390008544A149B7
:103F0000F3B90930376A008013050A8A93F98900EA
:103F1000EFF0FFB60DED37590080B75500803755EB
:103F20000080938505309306E0041306892E13055F
:103F3000C521EFD03FA03755008013058531EFD064
:103F40007F9F9305E0041305892EEFD09FA01305F2
:103F50000A8AEFF09FB6EFF0DFEA2695B7540080AB
:103F600003A9047D08C49384047D630C9900B75AA7
:103F70000080375B0080B75B0080375C008063198E
:103F80000900DC4004C05CC0DC4080C3C0C091A814
:103F90008327890063D607029305CB7493066005D7
:103FA00013868A711385CB21EFD0DF9813050C2A75
:103FB000EFD05F989305600513858A71EFD07F99E4
:103FC000032789001C4463D7E708B307F74023247D
:103FD000F90083274900232024015CC080C32322E9
:103FE00089009C40638997006317F400EFF03FE578
:103FF0008145EFD01FB713050A8AEFF0FFA90DED39
:1040000037540080B75500803755008093850533BD
:10401000930610061306842E1305C521EFD09F9139
:104020003755008013058534EFD0DF9093051006D7
:104030001305842EEFD0FF91F3A90930B25022541A
:1040400092540259F249624AD24A424BB24B224C34
:1040500045618280998F1CC4DC40E38427F30329E7
:10406000090031BF011122CC4EC606CE26CA4AC86D
:10407000AA89214473340430B76400801385048A0C
:104080002188EFF0DF9F0DED37590080B755008094
:1040900037550080938505309306E0041306892E7A
:1040A0001305C521EFD01F893755008013058531D1
:1040B000EFD05F889305E0041305892EEFD07F8948
:1040C0001385048AEFF07F9F83A70900295989C7C8
:1040D0004E85EFF03FD401491385048AEFF0DF9B52
:1040E0000DEDB7540080B75500803755008093859B
:1040F0000533930610061386842E1305C521EFD0D1
:104100007F833755008013058534EFD0BF82930538
:1041100010061385842EEFD0DF8373240430F24021
:1041200062444A85D2444249B249056182804111C4
:1041300022C406C626C24AC0214473340430B76480
:1041400000801385048A2188EFF07F930DED3759A5
:104150000080B75500803755008093850530930661
:10416000E0041306892E1305C521EFD0AFFC3755A7
:10417000008013058531EFD0EFFB9305E0041305B4
:10418000892EEFD00FFD1385048AEFF01F93EFF017
:104190001FCB2A891385048AEFF01F900DEDB754C9
:1041A0000080B7550080375500809385053393060E
:1041B00010061386842E1305C521EFD0AFF73755AF
:1041C000008013058534EFD0EFF6930510061385B4
:1041D000842EEFD00FF873240430B24022444A8575
:1041E0009244024941018280011122CC4AC852C442
:1041F00006CE26CA4EC62A892E8A2144733404303C
:10420000B76400801385048A2188EFF05F870DED85
:10421000B7590080B7550080375500809385053029
:104220009306E0041386892E1305C521EFD08FF085
:104230003755008013058531EFD0CFEF9305E004AB
:104240001385892EEFD0EFF01385048AEFF0FF86F7
:10425000EFF0FFBE6359A900854763D6A700D2855A
:104260004A85EFD01F901385048AEFF0FF820DED91
:10427000B7540080B75500803755008093850533CB
:10428000930610061386842E1305C521EFD08FEAFE
:104290003755008013058534EFD0CFE9930510061C
:1042A0001385842EEFD0EFEA73240430F240624489
:1042B000D2444249B249224A05618280797122D4AE
:1042C00052CC06D626D24AD04ECE56CA5AC85EC660
:1042D00062C466C26AC02A8A2144EFE0FFE07334F8
:1042E0000430376900801305098A2188EFF02FF91F
:1042F0000DEDB7540080B755008037550080938589
:1043000005309306E0041386842E1305C521EFD0F3
:104310006FE23755008013058531EFD0AFE193058B
:10432000E0041385842EEFD0CFE2B7690080130537
:10433000098AEFF08FF8B764008023AE4989375AB5
:1043400000809389C989130A0A7D93840486B75A29
:104350000080B75B0080375B0080375C0080B75C13
:104360000080032D0A0083A709009440C840630B16
:104370004D0163090D0003278D0063D6E7081D8FEB
:104380002324ED00BE9613D7F7412A97B3B7F60062
:10439000BA9794C0DCC023A00900EFF05FAA814562
:1043A000EFD02FFC1305098AEFF00FEF0DEDB75496
:1043B0000080B755008037550080938505339306FC
:1043C00010061386842E1305C521EFD0AFD63755BE
:1043D000008013058534EFD0EFD5930510061385C3
:1043E000842EEFD00FD773240430B250225492544D
:1043F0000259F249624AD24A424BB24B224C924C89
:10440000024D45618280BA969355F741AA9533B61D
:10441000E6002E96998F6A8523240D0094C0D0C0A3
:1044200023A0F900EFF01F9F1305098AEFF0CFE6F4
:104430000DE593850B339306100613868A2E13051C
:10444000CB21EFD02FCF13058C34EFD0AFCE930517
:10445000100613858A2EEFD0CFCF73240430832724
:10446000CD006A8521448297733404301305098A8C
:104470002188EFF0CFE01DE593850C309306E00432
:1044800013868A2E1305CB21EFD0CFCA3755008073
:1044900013058531EFD00FCA9305E00413858A2EEA
:1044A000EFD02FCB1305098AEFF02FE15DBD01118D
:1044B00026CA06CE22CC4AC84EC6A144F3B4043064
:1044C000376900801305098AA188EFF04FDB0DEDF5
:1044D00037540080B75500803755008093850530EC
:1044E0009306E0041306842E1305C521EFD08FC474
:1044F0003755008013058531EFD0CFC39305E00415
:104500001305842EEFD0EFC41305098AEFF0EFDA1C
:10451000EFD0EFF9B76700809387078683A907007C
:10452000C043AA9933B5A9002A941305098AEFF06C
:10453000AFD60DED37590080B75500803755008054
:1045400093850533930610061306892E1305C5219E
:10455000EFD04FBE3755008013058534EFD08FBDA7
:10456000930510061305892EEFD0AFBEF3A40430D7
:10457000A285F24062444E85D2444249B249056167
:104580008280411106C6EFF09FF21306803E8146FD
:10459000EFC00FAB130640068146EFB0FFCAB24032
:1045A00041018280011122CC4AC852C406CE26CADB
:1045B0004EC62A8A2E89214473340430B7640080A1
:1045C0001385448A2188EFF08FCB0DEDB759008019
:1045D000B755008037550080938505309306E00479
:1045E0001386892E1305C521EFD0CFB4375500802F
:1045F00013058531EFD00FB49305E0041385892EA0
:10460000EFD02FB51385448AEFF02FCB83290A0012
:104610001385448A33E9290123202A01EFF0CFC70B
:104620000DEDB7540080B755008037550080938555
:104630000533930610061386842E1305C521EFD08B
:104640006FAF3755008013058534EFD0AFAE9305BB
:1046500010061385842EEFD0CFAF73240430F240C0
:1046600062444E85D2444249B249224A0561828061
:10467000011122CC4AC852C406CE26CA4EC62A8A86
:104680002E89214473340430B76400801385448A32
:104690002188EFF0CFBE0DEDB7590080B7550080EF
:1046A00037550080938505309306E0041386892EE4
:1046B0001305C521EFD00FA83755008013058531AC
:1046C000EFD04FA79305E0041385892EEFD06FA894
:1046D0001385448AEFF06FBE83290A001385448A4C
:1046E00033F9290123202A01EFF00FBB0DEDB75458
:1046F0000080B755008037550080938505339306B9
:1047000010061386842E1305C521EFD0AFA23755AE
:10471000008013058534EFD0EFA1930510061385B3
:10472000842EEFD00FA373240430F24062444E85F0
:10473000D2444249B249224A05618280411122C4D1
:1047400026C237640080B764008006C61304048163
:104750009384048163689400B240224492440145EA
:10476000410182809307440122855CC81CCCEFC0C4
:10477000FF847104C5B7B767008083A747B75D7131
:10478000A2C4A6C24EDE5AD886C6CAC052DC56DAC9
:104790005ED662D466D26AD06ECEAA89AE84328BDF
:1047A000368463800710F1E2014937650080130504
:1047B00005813385A940B775DBB6938575DB09851F
:1047C000EFC0CF857D7A856A137CF50FD55BD15C10
:1047D000130AFA0FFD1A214D938D490126877400A3
:1047E0003000DA854E85EFC0FF89631C750126878E
:1047F00074003000DA854E85EFC0DF8863137501E1
:104800005155A24723828401BD8B13978700DC405A
:10481000B3F74701D98F3247B3F757013207D98F22
:10482000DCC00DC505C46313950373350D302286B6
:10483000EE852189EFE03FADFD57E301F4FAEFF09B
:104840001FC73304A940E35B04F85555B64026441E
:1048500096440649F259625AD25A425BB25B225CD4
:10486000925C025DF24D6161828037590080B755DC
:1048700000803755008093850577930690031306D3
:10488000C9751305C521EFD0EF8A37550080130590
:10489000052AEFD02F8A930590031305C975EFD031
:1048A0004F8BE35380F0EFF09FC02A89A945130591
:1048B0009400EFC0EF812A99CDBD83470500011117
:1048C000104122CC139437004AC81D8C37690080F0
:1048D0000A0493558600130509813182BD8922950A
:1048E00006CE26CA4EC652C4EFC0DF9AA145F3B524
:1048F0000530B76400801385848A93F98500EFF052
:104900000F98130909810DED375A0080B7550080C3
:1049100037550080938505309306E00413068A2EF0
:104920001305C521EFD00F81375500801305853160
:10493000EFD04F809305E00413058A2EEFD06F81EE
:104940001385848AEFF06F97130544014A95EFE0D1
:10495000BFBB09CD6244F2404249224ACE8513854D
:10496000848AB249D24405616FD0FFE71385848AF7
:10497000EFF08F920DED37540080B755008037551A
:10498000008093850533930610061306842E1305C5
:10499000C521EFC03FFA3755008013058534EFC0BD
:1049A0007FF9930510061305842EEFC09FFAF3A537
:1049B0000930F2406244D2444249B249224A056178
:1049C0008280138645006378B600014582800145E8
:1049D000F24005618280011181462C0006CEEFF085
:1049E0009FD975F5224511466C00EFD0EFB92245ED
:1049F0001105F9BF01C571156FF03FEC8280B767F3
:104A0000008083A7C7B7AA85A85719C16FF07FFB9D
:064A100001458280828056
:024A1600FFFFA0
:104A180000000000280E008000000000280E008022
:104A280000000000280E008000000000280E008012
:104A380000000000280E008000000000280E008002
:104A480000000000280E008000000000301A0080DE
:104A580000000000280E008000000000280E0080E2
:104A680000000000280E008000000000280E0080D2
:104A780000000000280E008000000000280E0080C2
:104A880000000000280E008000000000280E0080B2
:104A980000000000280E008000000000280E0080A2
:104AA80000000000280E008000000000280E008092
:104AB80000000000280E008000000000280E008082
:104AC80000000000280E008000000000280E008072
:104AD80000000000280E008000000000280E008062
:104AE80000000000280E008000000000280E008052
:104AF80000000000280E008000000000280E008042
:104B080000000000280E008000000000280E008031
:104B180000000000280E008000000000280E008021
:104B280000000000280E008000000000280E008011
:104B380000000000280E008000000000280E008001
:104B480000000000280E008000000000280E0080F1
:104B580000000000280E008000000000280E0080E1
:104B6800904E0080F819008000000000DC520080A0
:104B7800301B008000000000D4520080AC20008070
:104B880000000000904E00803C47008000000000BC
:104B980000010202030303030404040404040404DC
:104BA80005050505050505050505050505050505AD
:104BB800060606060606060606060606060606068D
:104BC800060606060606060606060606060606067D
:104BD800070707070707070707070707070707075D
:104BE800070707070707070707070707070707074D
:104BF800070707070707070707070707070707073D
:104C0800070707070707070707070707070707072C
:104C1800080808080808080808080808080808080C
:104C280008080808080808080808080808080808FC
:104C380008080808080808080808080808080808EC
:104C480008080808080808080808080808080808DC
:104C580008080808080808080808080808080808CC
:104C680008080808080808080808080808080808BC
:104C780008080808080808080808080808080808AC
:104C8800080808080808080808080808080808089C
:104C980072656772657373696F6E5F746872656158
:104CA80064000000746573745F637269746963619A
:104CB8006C00000054696D6564206F75742077611D
:104CC8006974696E6720666F722052454752455372
:104CD800535F53454D000000286B5F73656D5F742B
:104CE800616B652826524547524553535F53454DDE
:104CF8002C20544553545F54494D454F5554292051
:104D08003D3D20302069732066616C736529000081
:104D1800556E65787065637465642076616C756539
:104D280020666F72203C637269746963616C5F7698
:104D380061723E0028637269746963616C5F7661B1
:104D480072206E6F7420657175616C20746F206EAF
:104D580063616C6C73202B20616C745F746872657E
:104D680061645F697465726174696F6E73290000AC
:104D7800746573745F637269746963616C000000C1
:104D880054696D6564206F75742077616974696E04
:104D98006720666F7220544553545F53454D000099
:104DA800286B5F73656D5F74616B65282654455386
:104DB800545F53454D2C20544553545F54494D4539
:104DC8004F5554202A203229203D3D203020697338
:104DD8002066616C736529006B65726E656C5F6334
:104DE8007269746963616C002E2F74657374732F14
:104DF8006B65726E656C2F637269746963616C2F81
:104E08007372632F6D61696E2E6300000A20202083
:104E180020417373657274696F6E206661696C6591
:104E2800642061742025733A25643A2025733A205A
:104E380025730A00660D0080D60D0080D60D00800F
:104E48005A0D0080660D0080C20D0080CC0D0080D8
:104E5800E44E0080044F0080204F0080344F0080D3
:104E6800404F0080584F0080756E6B6E6F776E00F4
:104E7800457863657074696F6E206361757365202A
:104E8800257320282564290A00000000ADBAADDE8C
:104E9800ADBAADDEADBAADDEADBAADDEADBAADDE42
:104EA800ADBAADDEADBAADDEADBAADDEADBAADDE32
:104EB800ADBAADDEADBAADDEADBAADDEADBAADDE22
:104EC800ADBAADDEADBAADDEADBAADDEADBAADDE12
:104ED800ADBAADDEADBAADDEADBAADDE496E737456
:104EE80072756374696F6E20616464726573732090
:104EF8006D6973616C69676E65640000496E7374EF
:104F080072756374696F6E2041636365737320669D
:104F180061756C7400000000496C6C6567616C20F9
:104F2800696E737472756374696F6E00427265613D
:104F38006B706F696E7400004C6F6164206164640B
:104F480072657373206D6973616C69676E6564005F
:104F58004C6F616420616363657373206661756C6F
:104F6800740000002A2A2A2A204B65726E656C207C
:104F7800416C6C6F636174696F6E204661696C7512
:104F8800726521202A2A2A2A0A0000002A2A2A2AA7
:104F98002A204B65726E656C204F4F505321202A92
:104FA8002A2A2A2A0A0000002A2A2A2A2A204B65A5
:104FB800726E656C2050616E696321202A2A2A2A44
:104FC8002A0A00002A2A2A2A20556E6B6E6F776EED
:104FD80020466174616C204572726F7220256421CD
:104FE800202A2A2A2A0A000043757272656E7420E4
:104FF800746872656164204944203D2025700A4622
:1050080061756C74696E6720696E73747275637408
:10501800696F6E2061646472657373203D20307817
:1050280025780A202072613A203078257820206778
:10503800703A2030782578202074703A203078250E
:1050480078202074303A20307825780A202074316E
:105058003A2030782578202074323A203078257824
:10506800202074333A2030782578202074343A2070
:10507800307825780A202074353A20307825782031
:105088002074363A2030782578202061303A203054
:10509800782578202061313A20307825780A202038
:1050A80061323A2030782578202061333A203078F0
:1050B8002578202061343A20307825782020613501
:1050C8003A20307825780A202061363A2030782531
:1050D80078202061373A20307825780A00000000CF
:1050E80049535200657373656E7469616C20746806
:1050F8007265616400000000466174616C2066613D
:10510800756C7420696E20257321205370696E6E4A
:10511800696E672E2E2E0A00466174616C206661E6
:10512800756C7420696E20746872656164202570DE
:10513800212041626F7274696E672E0A00000000B8
:1051480053707572696F757320696E7465727275C4
:1051580070742064657465637465642120495251D4
:105168003A2025640A0000002E2F617263682F72AE
:105178006973637633322F636F72652F7468726553
:1051880061642E6300000000282828287072696F67
:10519800726974792929203D3D2031352026262041
:1051A8007A5F69735F69646C655F7468726561646E
:1051B80028287468726561645F66756E6329292999
:1051C800207C7C202828283135202D203129203E9C
:1051D8003D2028282D31362929292026262028282F
:1051E8007072696F726974792929203E3D202828D8
:1051F8002D313629292026262028287072696F72B9
:105208006974792929203C3D20283135202D203109
:1052180029292900415353455254494F4E204641AC
:10522800494C205B25735D20402025733A25640A8C
:105238000000000009696E76616C6964207072690B
:105248006F7269747920282564293B20616C6C6F22
:105258007765642072616E67653A20256420746FF3
:105268002025640A000000002E2F6C69622F6F73DE
:105278002F6D656D706F6F6C2E630000626C6F63CD
:105288006B5F6669747328702C20626C6F636B2C7B
:10529800206C737A29000000090A0000096F7574F0
:1052A800206F66206C6576656C730A002E2F6C691A
:1052B800622F6F732F6173736572742E6300000021
:1052C800402025733A25643A0A000000756172741B
:1052D800300000007379735F636C6F636B000000CC
:1052E8002E2F696E636C7564652F7370696E6C6FB1
:1052F800636B2E68000000007A5F7370696E5F6CE4
:105308006F636B5F76616C6964286C29000000002C
:1053180009526563757273697665207370696E6C7E
:105328006F636B0A000000007A5F7370696E5F75C7
:105338006E6C6F636B5F76616C6964286C29000022
:10534800094E6F74206D79207370696E6C6F636B92
:10535800210A0000945300809C5300801854008058
:105368004641494C4544000050524F4A4543542059
:10537800455845435554494F4E2025730A000000AF
:105388005355434345535346554C000050415353DE
:10539800000000004641494C0000000052756E6E46
:1053A800696E672074657374207375697465202548
:1053B800730A00003D3D3D3D3D3D3D3D3D3D3D3D8C
:1053C8003D3D3D3D3D3D3D3D3D3D3D3D3D3D3D3D05
:1053D8003D3D3D3D3D3D3D3D3D3D3D3D3D3D3D3DF5
:1053E8003D3D3D3D3D3D3D3D3D3D3D3D3D3D3D3DE5
:1053F8003D3D3D3D3D3D3D0A000000007374617236
:1054080074696E672074657374202D2025730A00F3
:10541800534B4950000000002573202D2025730AA6
:105428000000000054657374207375697465202545
:1054380073206661696C65642E0A00005465737494
:1054480020737569746520257320737563636565BA
:105458006465640A00000000A82000809420008091
:10546800000000000000000000000000E05700807D
:105478000458008010580080105800801058008090
:105488002A2A2A2A2A20426F6F74696E67205A6571
:1054980070687972204F53207A65706879722D761A
:1054A800312E31332E302D333032312D6761336157
:1054B800306433666130653437202A2A2A2A2A0A5A
:1054C800000000006D61696E0000000069646C6591
:1054D800000000002E2F6B65726E656C2F696E637D
:1054E8006C7564652F6B73636865642E68000000D3
:1054F80021285F6B65726E656C2E6E6573746564CA
:1055080020213D20305529005F6B65726E656C2E39
:1055180063757272656E742D3E626173652E736376
:105528006865645F6C6F636B656420213D203100A2
:105538005F6B65726E656C2E63757272656E742D25
:105548003E626173652E73636865645F6C6F636B3D
:10555800656420213D2030002E2F6B65726E656CCE
:105568002F73636865642E630000000074687265B9
:1055780061642D3E626173652E70656E6465645F5B
:105588006F6E00005F6B65726E656C2E637572726C
:10559800656E7420213D202828766F6964202A29A9
:1055A800302900002169735F69646C65287468722A
:1055B80065616429000000002E2F6B65726E656CB2
:1055C8002F73656D2E6300006C696D697420213D31
:1055D80020305500096C696D69742063616E6E6FC7
:1055E80074206265207A65726F0A0000696E6974BA
:1055F80069616C5F636F756E74203C3D206C696DEA
:105608006974000009636F756E742063616E6E6F54
:1056180074206265206772656174657220746861C0
:105628006E206C696D69740A000000002828285FE4
:105638006B65726E656C2E6E657374656420213DB2
:1056480020305529203D3D203029207C7C2028749D
:10565800696D656F7574203D3D2030292900000073
:105668002E2F6B65726E656C2F7468726561642E7F
:10567800630000000954687265616473206D617984
:10568800206E6F74206265206372656174656420A2
:10569800696E20495352730A000000002E2F6B6573
:1056A800726E656C2F7468726561645F61626F7297
:1056B800742E6300287468726561642D3E6261739C
:1056C800652E757365725F6F7074696F6E732026CF
:1056D80020282831554C203C3C20283029292929CC
:1056E800203D3D203055000009657373656E74696F
:1056F800616C207468726561642061626F727465A0
:10570800640A0000776F726B71756575650000003B
:105718002E2F6B65726E656C2F74696D656F75746D
:105728002E630000217379735F646E6F64655F692F
:10573800735F6C696E6B65642826746F2D3E6E6F9F
:1057480064652900742D3E647469636B73203E3D63
:10575800203000002E2F6B65726E656C2F6D656DA5
:10576800706F6F6C2E6300002128285F6B65726E66
:10577800656C2E6E657374656420213D2030552953
:105788002026262074696D656F757420213D2030B0
:0457980029000000E4
:10579C00784D0080040A00809E0900809E090080DC
:1057AC0000000000000000000000000000000000ED
:1057BC000000000000000000FE140080521E00805B
:1057CC0003000000D0570080D0570080F5FFFFFF8A
:0457DC00945A00805B
:1057E0008C4B00800000000000000000804B008017
:1057F0006054008000000000684B00800000000042
:1058000000000000744B0080000000000000000059
:10581000105800801058008000000000FFFFFFFFBC
:10582000205800802058008000000000FFFFFFFF8C
:10583000305800803058008000000000FFFFFFFF5C
:105840004058008040580080000000000000000028
:045850000F00000045
:040000058000000077
:00000001FF
