:0200000480007A
:100000009702000093820201739052306F10500EDD
:10001000130101FB2320110023223100232441007E
:100020002326510023286100232A7100232CC101BB
:10003000232ED1012320E1032322F1032324A10253
:100040002326B1022328C102232AD102232CE10254
:10005000232EF1022320010523221105F32210345F
:1000600023245104F322003023265104EF00002002
:100070001303000063160504F3222034B703008045
:100080009383F3FFB3F272001303B000638A62003C
:100090001305010097000000938040146F10407614
:1000A000832281049382420023245104978200001A
:1000B000938242C903A30200631403006F00000986
:1000C00093020100978300009383430103A143003F
:1000D000130101FF2320510003AE0300130E1E0085
:1000E00023A0C30163080300970000009380C003AE
:1000F0006F10C07973252034B70200809382F2FF1D
:1001000033755500EF008015977200009382C295F9
:1001100013153500B382A20003A5020003A3420019
:10012000E700030017830000130343FB832303004E
:100130009383F3FF232073008322010013810200C5
:1001400083238300032E030263087E089782000046
:100150009382C2F803A382002326830223289302FA
:10016000232A2303232C3303232E43032320530565
:10017000232263052324730523268305232893055F
:10018000232AA305232CB3052324230297830000ED
:10019000938303B303AE03002326C30703A3020222
:1001A00023A46200032183020324C30283240303E4
:1001B0000329430383298303032AC303832A0304F4
:1001C000032B4304832B8304032CC304832C0305D8
:1001D000032D4305832D83058322810473901234FC
:1001E0008322C104739002308320010083214100E7
:1001F000032281008322C1000323010183234101E3
:10020000032E8101832EC101032F0102832F41029E
:10021000032581028325C1020326010383264103AE
:10022000032781038327C103032801048328410492
:100230001301010573002030730000009782000055
:100240009382C2E903A382008323C306137585004A
:10025000F3220530138503006780000013031000AC
:10026000B312A30073B3423467800000F32220343A
:1002700037030080B3F262001305000063840200BC
:08028000130515006780000062
:100288006300060293070002B387C740634CF0007F
:10029800130506FE1307000033D5A50093050700D4
:1002A8006780000033D7C5003355C500B395F50006
:1002B8003365B5006FF09FFE130101FD2322910203
:1002C80023286101232611022324810223202103EC
:1002D800232E3101232C4101232A510123267101A8
:1002E8002324810123229101130B05009384050027
:1002F800639C06381304060093090500177900006B
:100308001309098E63F8C512B7070100938A05001F
:100318006378F6109306F00FB3B6C60093963600CE
:10032800B357D6003309F90003470900B306D700CD
:10033800130700023307D740630C0700B394E400A7
:10034800B356DB003314E600B3EA9600B319EB00AA
:10035800135B040193050B0013850A00EF0040634B
:100368001309050093050B00931B040113850A006C
:10037800EF00805D93DB0B019304050093050500F6
:1003880013850B00EF0080501319090113D70901D9
:100398003367E900138A0400637EA70033078700E8
:1003A800138AF4FF636887006376A700138AE4FF63
:1003B80033078700B304A74093050B001385040097
:1003C800EF00005D1309050093050B001385040079
:1003D800EF008057939909019304050093050500E0
:1003E8001319090113850B0093D90901EF00004A7D
:1003F800B36939011386040063FCA900B309340109
:100408001386F4FF63E6890063F4A9001386E4FF0A
:1004180093170A01B3E7C700130A00006F0000131F
:10042800B707000193060001E36CF6EE930680011E
:100438006FF01FEF138A0600631A06009305000089
:1004480013051000EF00405013040500B707010022
:10045800637CF4129307F00F63F48700130A80009B
:10046800B35744013309F900834609001306000213
:10047800B38646013306D64063120612B38484401D
:10048800130A1000135B040193050B001385040085
:10049800EF0000501309050093050B0013850400B5
:1004A800931B0401EF00404A93DB0B019304050002
:1004B8009305050013850B00EF00403D1319090152
:1004C80013D709013367E900938A0400637EA70004
:1004D80033078700938AF4FF636887006376A70071
:1004E800938AE4FF33078700B304A74093050B0002
:1004F80013850400EF00C0491309050093050B009C
:1005080013850400EF004044939909019304050002
:10051800930505001319090113850B0093D90901E7
:10052800EF00C036B36939011386040063FCA900E3
:10053800B30934011386F4FF63E6890063F4A90064
:100548001386E4FF93970A01B3E7C70013850700F2
:1005580093050A008320C1020324810283244102F7
:10056800032901028329C101032A8101832A410148
:10057800032B0101832BC100032C8100832C410034
:100588001301010367800000B7070001130A000187
:10059800E368F4EC130A80016FF09FEC3314C40095
:1005A80033DAD400B319CB00B356DB00135B040174
:1005B800B394C40093050B0013050A00B3EA960030
:1005C800EF00003D1309050093050B0013050A0011
:1005D800931B0401EF00403793DB0B0193040500E4
:1005E8009305050013850B00EF00402A1319090134
:1005F80013D70A013367E900138A0400637EA70052
:1006080033078700138AF4FF636887006376A700BF
:10061800138AE4FF33078700B304A74093050B0050
:1006280013850400EF00C0361309050093050B007D
:1006380013850400EF00403193040500930505007D
:1006480013850B00EF00802493960A011319090102
:1006580093D60601B367D9001387040063FEA70089
:10066800B38787001387F4FF63E8870063F6A70062
:100678001387E4FFB3878700131A0A01B384A740DE
:10068800336AEA006FF01FE063ECD51EB70701007C
:1006980063F4F6049305F00F33B5D5001315350050
:1006A80033D7A6009767000093878753B387E7007F
:1006B80083C50700130A0002B385A500330ABA40B0
:1006C80063160A0293071000E3E296E83336CB007C
:1006D800934716006FF09FE7B70700011305000165
:1006E800E3E0F6FC130580016FF09FFBB35AB600F8
:1006F800B3964601B3EADA0033D9B400B39744019C
:10070800B355BB0093DB0A01B3E4F50013050900F8
:1007180093850B00B3194601EF00802713040500E9
:1007280093850B0013050900139C0A01EF00C021F3
:10073800135C0C01130905009305050013050C0053
:10074800EF00C0141314040113D704013367E40045
:10075800930C0900637EA70033075701930CF9FF38
:10076800636857016376A700930CE9FF33075701C5
:100778003309A74093850B0013050900EF004021BA
:100788001304050093850B0013050900EF00C01B37
:10079800130905009305050013050C00EF00000F71
:1007A800939704011314040193D707013367F400E6
:1007B80013060900637EA700330757011306F9FFE4
:1007C800636857016376A7001306E9FF33075701EB
:1007D80093970C01370E0100B3E7C7001308FEFF1B
:1007E80033F3070133F809013307A74093DE070104
:1007F80093D909011305030093050800EF000009C8
:10080800930805009385090013050300EF0000080D
:10081800130305009305080013850E00EF00000779
:10082800130805009385090013850E00EF000006E4
:1008380093D6080133030301B386660063F4060107
:100848003305C50113D606013305A6006366A70262
:10085800E314A7BC370701001307F7FFB3F6E60058
:1008680093960601B3F8E80033164B01B3861601D8
:10087800130A0000E37CD6CC9387F7FF6FF0DFB94B
:10088800130A0000930700006FF05FCC1306050001
:100898001305000093F61500638406003305C500B0
:1008A80093D5150013161600E39605FE6780000021
:1008B800130101FF1383060023261100130E050000
:1008C800930805009306060013070000930700002D
:1008D8001308000013F51600931E1700630C05009B
:1008E8003385080133380501B387E700B307F800FB
:1008F8001308050013D7F80193D6160033E7EE0066
:1009080093981800E39806FC638805001305060011
:10091800EFF0DFF7B387A700630A030013050E00A3
:1009280093050300EFF09FF6B307F5008320C1009D
:100938001305080093850700130101016780000073
:100948006340050663C60506138605009305050082
:100958001305F0FF630C060293061000637AB600D5
:100968006358C0001316160093961600E36AB6FE85
:100978001305000063E6C500B385C5403365D5009F
:1009880093D6160013561600E39606FE67800000FD
:1009980093820000EFF05FFB13850500678002007B
:1009A8003305A04063D80500B305B0406FF0DFF908
:1009B800B305B04093820000EFF01FF93305A04063
:1009C800678002009382000063CA0500634C05003B
:1009D800EFF09FF71385050067800200B305B0406C
:1009E800E35805FE3305A040EFF01FF63305B0408D
:1009F8006780020067800000B78500803775008037
:100A0800938545BF1305C5D96F200063130101FD08
:100A1800232E1100232C81002324010323261103F4
:100A2800631805041386060013870500B77600804F
:100A3800B775008037750080938686DA13840700BF
:100A48009385C5E493078102130505E82326F10081
:100A5800EF10D0628325C10013050400EF10105F6A
:100A68003775008013054533EF105061EF20C059EA
:100A78008320C10103248101130101036780000061
:100A8800130101FD232291021307050093040500B9
:100A9800B7160080B785008037850080930800006E
:100AA8001308000093070000938606B7130600207A
:100AB800938505112322010023200100130505D980
:100AC800232611022324810223202103232E31010E
:100AD800EF40907713090500EF5010359305401F3C
:100AE8001304050013850400EF20107D9309050009
:100AF800EF5090333304854013050900EF50000F81
:100B080037790080B7740080B7770080B7750080A8
:100B1800130789DA1386C4E413B519009387C7DB72
:100B28009306B0029385C5DEEFF05FEE133504053A
:100B3800032481028320C1028329C101130789DAB2
:100B48001386C4E40329010283244102B777008095
:100B5800B7750080938707E093062003938585E3A4
:100B6800130101036FF09FEA130101FF23248100A1
:100B7800130405001305200323261100EF408061AC
:100B880013050400032481008320C100130101011F
:100B98006F205049130101FF23248100378400800E
:100BA8001305C4D723261100EF2010461305C4D718
:100BB800EFF01FED032481008320C10037850080FA
:100BC800130585D0130101016FF09FEB130101FD9F
:100BD800232E110023240103232611036316050481
:100BE80013860600377500809306070013870500F3
:100BF800B77500809307810293858503130505E87F
:100C08002326F100EF1090478325C1003775008037
:100C180013054523EF1090433775008013054533BE
:100C2800EF10D045EF20403E8320C101130101039E
:100C380067800000130101FE232C8100930500004A
:100C480037840080232E1100232A910023282101B4
:100C5800232631012324410123225101130A0500CF
:100C6800130404E0EF20506537790080B7790080DD
:100C7800B7740080B77A008033058540938749238D
:100C8800130789EA13868403930660039385CAF7DA
:100C980013351500EFF09FF39305000013050A00C4
:100CA800EF2090611304840033058540938749231E
:100CB800130789EA13868403930660039385CAF7AA
:100CC80013351500EFF09FF09305000013050A0097
:100CD80037840080EF20505E130404E1B77A008067
:100CE8003305854093874923130789EA13868403CC
:100CF8009306B00393854AFA13351500EFF01FEDFC
:100D08009305000013050A00EF20105B130484000C
:100D18003305854093874923130789EA138684039B
:100D28009306B00393854AFA13351500EFF01FEACE
:100D38009305000013050A0037840080EF20D05780
:100D4800130404E2B77A008033058540938749236A
:100D5800130789EA13868403930600049385CAFC63
:100D680013351500EFF09FE69305000013050A0000
:100D7800EF20905413048400330585400324810137
:100D88008320C101032A810093874923130789EA35
:100D98008329C10003290101138684039385CAFCB2
:100DA80083244101832A410093060004133515006A
:100DB800130101026FF09FE1130101FF2324810059
:100DC8002326110013040500EFF0DFE603250400D5
:100DD800032481008320C100B77700803777008023
:100DE80037760080B775008093874723130747EC51
:100DF8009306E00413068603938505F01335150062
:100E0800130101016FF09FDC130101FF232611007C
:100E1800EFF05FE28320C10037850080130505E30A
:100E2800130101016F404068130101FF2324810071
:100E38001304050037850080130610009305000091
:100E4800130505E323261100EF408059371500806C
:100E580093050400130545F0EF0050251305040021
:100E6800032481008320C100130101016FF09FDC7E
:100E7800130101FEB7850080232A9100938405E0C1
:100E8800938505E0232E1100232C8100130405000F
:100E9800EF2050249385840013050400EF2090234D
:100EA800B7850080938705E11386870023A0C700D4
:100EB8001305040023A40700938505E1EF20902281
:100EC800B7870080938707E213878700930581001F
:100ED8001305040023A4070023A0E7002324F1003E
:100EE8002326E100EF2090348320C10103248101EF
:100EF800832441011301010267800000130101FFEF
:100F0800232481002326110013040500EFF05FF667
:100F180003250400032481008320C100B7770080E3
:100F28003777008037760080B7750080938747232E
:100F3800130747EB9306800413068603938505F38E
:100F48003335A000130101016FF05FC8130101FEE2
:100F580023244101378A00802326310193090500A3
:100F680013050AE4232E1100232C8100232A910063
:100F780023282101EFF0DFEF03A50900B7740080F3
:100F88003779008037740080B7750080930749234C
:100F9800138744ED1306840393069007938585FF12
:100FA8003335A000EFF09FC213050AE4EFF09FC8A5
:100FB80003A5090013068403032481018320C101CA
:100FC8008329C100032A810093074923138744ED2D
:100FD8000329010183244101B77500809306D007D6
:100FE8009385850113351500130101026FF01FBEAB
:100FF800130101FE232C810037840080232A9100ED
:10100800130610009304050093050000130504E37C
:10101800232E110023282101EF40803CB7160080C1
:10102800B785008037850080138704009308000087
:101038001308000093070000938606E113060020BA
:10104800938505312322010023200100130545E57E
:10105800EF40901F1309050013850400EFF05FE1CE
:10106800130504E39305F0FFEF4040520324810188
:101078008320C101832441011305090003290101CB
:10108800130101026F409036130101FF23248100F0
:10109800130405003785008093050000130610002F
:1010A800130505E323261100EF40803313050400E0
:1010B800EFF01FDC93050400032481008320C100A6
:1010C80037150080130505DC130101016F00007E50
:1010D800130101FF2324810037840080130504E4F1
:1010E80023261100EF204072130504E4EFF05FF0AF
:1010F800032481008320C100378500801305C5D1F2
:10110800130101016FF0DFEE130101FF23248100B9
:1011180037840080130504E423261100EF20C06EF5
:10112800130504E4EFF05FD0032481008320C1009D
:10113800378500801305C5D1130101016FF0DFCE9B
:10114800130101FF2324810037840080130504E480
:1011580023261100EF20406B130504E4EFF0DFF2C3
:10116800032481008320C100378500801305C5D181
:10117800130101016FF05FF1130101FF23248100C6
:1011880037840080130504E42326110023229100EC
:10119800EF208067930404E403A50400B777008078
:1011A8003777008037760080B775008013351500D3
:1011B80093874723130747EE9306700B130686039E
:1011C8009385C5F5EFF09FA0130504E4032481007F
:1011D8008320C10083244100130101016FF01FD750
:1011E800130101FF2324810037840080130504E4E0
:1011F80023261100EF204061930504E403248100B5
:101208008320C10037150080130545F5130101013E
:101218006F00C069130101FD232E1100232401036F
:101228002326110363180504138606001387050097
:10123800B7760080B7750080377500809307810204
:10124800938606079385850D130505E82326F10087
:10125800EF10C0628325C100377500801305452350
:10126800EF10C05E3775008013054533EF1000613D
:10127800EF1090598320C10113010103678000001A
:10128800130101FD1305C100232611022324810245
:101298002322910223202103EF2000579305000009
:1012A8001305C100EF205001B77400803779008022
:1012B80037740080B77500809307492313870407A4
:1012C8001306840D9306C001938545081335150050
:1012D800EFF05FF4930540061305C100EF20C07DD1
:1012E800B775008093074923138704071306840DF5
:1012F8009306D0019385050B13351500EFF09FF188
:101308008320C102032481028324410203290102AC
:101318001301010367800000130101FFB7850080F6
:1013280023229100938445EC938545EC23261100F4
:101338002324810013040500EF20C05993858400FD
:1013480013050400EF2000599385040113050400D8
:10135800EF20405813050400032481008320C100B6
:101368009385840183244100130101016F20805675
:10137800130101FD232E1100232401032326110349
:10138800631A050437770080B7760080B775008048
:1013980037750080930781021307C7F79386C61035
:1013A800130630029385C51A130505E82326F100B4
:1013B800EF10C04C8325C100377500801305452305
:1013C800EF10C0483775008013054533EF10004B08
:1013D800EF1090438320C1011301010367800000CF
:1013E800130101FE232C810037840080130444EC90
:1013F800232A910023282101232631012324410196
:101408002322510123206101232E1100130B050013
:1014180093040402377A0080B77A0080B779008095
:10142800377900809305000013050B00EF20C06892
:101438003305854093874A231307CA109306300261
:101448001386C91A9305C9F71335150013048400C8
:10145800EFF01FF2E31894FC8320C10103248101FB
:1014680083244101032901018329C100032A810042
:10147800832A4100032B0100130101026780000049
:10148800130101FF23248100130405003775008030
:101498001305851123261100EF10403E13050400A3
:1014A800EFF01FF43775008013058512EF10003D2B
:1014B80013050400032481008320C10013010101E6
:1014C8006FF09FE5130101FF2322910093040500AB
:1014D800377500801305C5132326110023248100C6
:1014E800EF10C03913850400EFF09FEF37840080B8
:1014F800130544EEEF30507B377500801305051552
:10150800EF10C03713850400EFF01FE1130544EE18
:10151800032481008320C1008324410013010101B9
:101528006F309078130101FC232C810237840080EE
:10153800130544EF232A910223282103232441037E
:101548002322510323206103232E7101232C8101BF
:10155800232A91012328A101232E110223263103D6
:1015680093040000EF20402A377D008037890080EF
:10157800378C0080B78B0080B71C0080377B0080D9
:10158800B71A0080377A00809385040013058D16FA
:10159800EF10C02E1306100093050000130549EE46
:1015A800EF30106493070000930800001308000050
:1015B800130744EF9386CC4C1306002093050C5177
:1015C800232201002320010013858BF0EF40C04740
:1015D8009309050013058B18EF10402A130544EFF3
:1015E800EFF09FD3930544EF13858A48EF00002C52
:1015F8009305F0FF130549EEEF3050799305F0FF9E
:10160800130549EEEF3090781305CA19EF1000273B
:10161800130544EFEFF0DFDC13850900EF40005DB0
:101628003775008013054533EF1040259384140067
:1016380093070002E39AF4F48320C103032481038F
:1016480083244103032901038329C102032A810258
:10165800832A4102032B0102832BC101032C810140
:10166800832C4101032D010113010104678000004F
:10167800130101FF23261100232481009307600032
:101688006304F502EF40000F63040502EF40800E8B
:1016980063160504B7750080938505493775008082
:1016A8001305454AEF10801DEF1040246FF0DFFF4F
:1016B800EF40400DE31C05FC378400801304840DC3
:1016C80083258400377500801305454CEF10001BF7
:1016D80003258400EF4080516FF01FFDB77500802F
:1016E8009385C5486FF09FFB130101FB23248104F8
:1016F8002322910423261104930760009304050014
:101708001384050063E0A70E377700809317250040
:101718001307071EB387E70083A707006780070042
:101728003775008013050531EF104015EF30904AEA
:1017380083274404832804010328C4002328F102D2
:101748008327040403274400832604002326F10288
:101758008327C40303268404930505002324F10288
:101768008327840337750080130545392322F10246
:10177800832744032320F10283270403232EF10047
:101788008327C402232CF10083278402232AF10033
:10179800832744022328F100832704022326F1002B
:1017A8008327C4012324F100832784012322F10025
:1017B800832744012320F10083278400EF10000CC5
:1017C8009305040013850400EFF09FEA3775008045
:1017D800130585336FF05FF53775008013054535C0
:1017E8006FF09FF437750080938504001305053763
:1017F800EF10C0086FF09FF3130101FF232481004D
:10180800232611001304050073262034131616002E
:10181800135616009307500063E8C7023777008015
:10182800931726001307C71FB307F70083A5070000
:10183800377500801305C521EF1040049305040097
:1018480013050000EFF05FEAB77500809385452126
:101858006FF01FFE130101FF23261100F32520342A
:10186800377500809395150093D515001305C54E5F
:10187800EF10C000B77500809385852313054000DD
:10188800EFF09FE6B7870080938707D403A7070088
:10189800630C070003A3070023A00700B787008095
:1018A80003A547D467000300678000009307800002
:1018B800F3B70730378700802320A7D43787008005
:1018C8002322B7D47300000093F78700F3A70730EB
:1018D80067800000130101FF23261100EF1010316B
:1018E800EF10C002EF1050371771000013010162AA
:1018F800B71200009382028033015100EFF09FFD80
:101908006F001011130101FD23248102232291028B
:1019180023202103232E3101232C4101232A5101A5
:101928002328610123267101138B07002326110246
:10193800232481019307F000930405001384050014
:1019480093090600138A0600930B0700930A080000
:1019580013890800639AF808B73700809387C73B54
:10196800639AF6088326010393050900138504008A
:1019780013064000EF30506D938509FBB305B400A2
:10198800B727000023AE040423A0040693F505FF3F
:101998009387078823A6F504B72700808320C10210
:1019A800032481029387879023A4450323A6750304
:1019B80023A8650323AA550323A4F50423A4B4028A
:1019C80003290102832441028329C101032A8101D9
:1019D800832A4101032B0101832BC100032C8100C1
:1019E8001301010367800000938608019307E00153
:1019F800E3FAD7F6377C0080B7750080377500802A
:101A080013064C5193068001938545531305055CD5
:101A1800EF00D0663775008093050900930600FF34
:101A28001306E0001305055EEF005065930580017D
:101A380013054C51EF0050686FF0DFF293971500D3
:101A4800B387B700139727008327C500B387E7003C
:101A58000307B5006354B70083A707001357F6417F
:101A68001377F7013307C700135757401317270099
:101A7800B387E70023A0F6001375F601678000001E
:101A8800130101FE9306C100232E1100EFF01FFB86
:101A98000327C100930710003395A7008327070089
:101AA8008320C101B3E7A7002320F7001301010237
:101AB80067800000130101FE9306C100232E110068
:101AC800EFF0DFF70327C100930710003395A70055
:101AD800832707008320C1011345F5FF33F5A700CD
:101AE8002320A7001301010267800000130101FEF3
:101AF800232A910083244500232C81001304050028
:101B080003558500938504002328210123263101EC
:101B1800232441012322510123206101232E110096
:101B2800EFE0DFD683290400834AA4009307F0FF7F
:101B3800130A0500B389A900A305F40013090000DE
:101B4800130BF001634C590393040000835784007E
:101B580063CCF4088320C10103248101832441015B
:101B6800032901018329C100032A8100832A410036
:101B7800032B010013010102678000009385040014
:101B880013050A00EFE05FDC13171900330727017C
:101B9800931727000327C4003307F700930747006C
:101BA8002322F7002324F700634EAB00A30524018A
:101BB80093D424009384340093F4C4FF13091900C8
:101BC8006FF05FF81305F5019357F54193F7F701A7
:101BD800B387A70093D7574093972700232037014F
:101BE800B389F9006FF0DFFC8325440013850400F6
:101BF800EFE0DFC983270400138604009305000083
:101C08003385A7008327C4009384140013874700F3
:101C18002320E50003A787002322E50003A7870008
:101C28002320A70023A4A70013050400EFF05FE515
:101C38006FF0DFF1130101FA232C810423225105EF
:101C4800232E1104232A9104232821052326310554
:101C58002324410523206105232E7103232C8103AE
:101C6800232A91032328A1032326B1031304010681
:101C7800034EA5009308000093172E009387F700E2
:101C880093F7077F3301F14083274500930A01004A
:101C980013830A009387370093F7C7FF23A0FA003E
:101CA800138BF8FF63D4C803638C08000328C3FFB1
:101CB80013582800130838001378C8FF232003019D
:101CC800130343000328C3FF637AB8049305F0FFA6
:101CD800631ABB0423200700130540FF130104FA0D
:101CE8008320C105032481058324410503290105B7
:101CF8008329C104032A8104832A4104032B010494
:101D0800832BC103032C8103832C4103032D01037F
:101D1800832DC10213010106678000009388180013
:101D28006FF01FF8834505011309000093F51500AE
:101D38006388050013098000733909301379890015
:101D4800232AE4FA13171B00232CD4FA330767015C
:101D58008326C50013172700130747003387E600BB
:101D6800232EC4FA93040500130A0B009306F0FF10
:101D7800832907006306371913172A0083A6490029
:101D8800B38CEA0003A7090083A50C00130D80009B
:101D980023A0E6002322D70023A0090023A20900DC
:101DA80003A504003385A940EFE09FB91306050099
:101DB80093050A0013850400EFF0DFCF130A1A0019
:101DC8009306FAFF63CA660503C704011377170071
:101DD8006304070073290930832744FB130540FF78
:101DE80023A03701E38C09EE8327C4FB03A5040075
:101DF80023A0670193172B00B38AFA0083A50A0072
:101E08003385A940EFE0DFB3832784FB23A0A70035
:101E1800130500006FF09FEC03A5040083A50C00D8
:101E2800930B10003385A940EFE09FB193181A0077
:101E3800B3884801931D25009398280083A64C0079
:101E480093850B00232614FB138506002328D4FA58
:101E5800EFE0DFA3338CA9003386BB0193050A00AA
:101E680013850400EFF0DFC1832604FB03A60400FA
:101E780083A544009386F6FF03D58400B306DC00EF
:101E8800B386C6402328D4FAEFE05FA0832604FB7C
:101E98008328C4FA63F4A60283A6C400B386160195
:101EA800138646002320CC0003A686002322CC00FC
:101EB80003A686002320860123A48601938B1B009A
:101EC80093074000E39CFBF683C6040193F61600D3
:101ED800639A060013090000130A1A00938C4C0039
:101EE8006FF01FEE7329093083C6040193F61600BC
:101EF800E38206FE73390D30137989006FF0DFFD38
:101F0800130AFAFF138749FFE314DAE6930900007E
:101F18006FF09FEB130101FA232C81042324410560
:101F2800232A9103232E1104232A9104232821050F
:101F3800232631052322510523206105232E710311
:101F4800232C81032328A1032326B10313040106AC
:101F58000347A500930C0500131727001307F70084
:101F68001377077F3301E14003274500130A010077
:101F780093060A00130737001377C7FF2320EA00E8
:101F8800130510009386460063F0A50C03C70C01E7
:101F980013890500930906001377170093040000BE
:101FA8006308070093048000F3B4043093F48400BA
:101FB800377B00806358090AB7740080B7750080C2
:101FC80037750080138644619306000C9385C567B6
:101FD8001305055CEF00900A3775008013058564CA
:101FE800EF00D009138544619305000CEF00D00C75
:101FF8009304F0FF83C70C0193F71700638607006B
:1020080093F48400F3A40430130104FA8320C10577
:102018000324810583244105032901058329C1047B
:10202800032A8104832A4104032B0104832BC1035F
:10203800032C8103832C4103032D0103832DC1024B
:10204800130101066780000003A7C6FF13051500EA
:1020580013572700130737001377C7FF23A0E6009D
:102068006FF05FF2131729003307EA00832A07008D
:1020780003AC0C001385090093850A00EFE01F816B
:10208800938BFAFF330D7501330CAC0083A54C001C
:1020980003D58C00EFE08FFF636CAD02B77700804B
:1020A80093858762B77700801385075C9306400A9B
:1020B80013064B61EF00807CB77700801385476477
:1020C800EF00C07B9305400A13054B61EF00C07E0B
:1020D800138609009305090013850C00EFF05F9A39
:1020E80013171900330727019316270003A7CC00FD
:1020F8003307D700930647002320DC008326870098
:102108002322DC008326870023A08601232487015D
:1021180003C70C0113771700631C070C9304000016
:10212800E30A09EC9306C4FB13860900930509002A
:1021380013850C00EFF09F908326C4FB1357F541DD
:10214800137737003307A70003A506001377C7FFE7
:102158009307F0003357E5001377F700E31CF7E81F
:10216800130D000093FDC9FF3386AD01130506006A
:1021780093850A002324C4FAEFE04FF13307750171
:10218800130C050083A54C0003D58C002326E4FA24
:10219800EFE0CFEF0327C4FA032684FA6378A70297
:1021A8009305090013850C00EFF0DF9003A70C00DE
:1021B800330C870103264C0003270C002320E6007C
:1021C8002322C70023200C0023220C00130D1D001E
:1021D80093074000E31AFDF813D6F9411376360049
:1021E800B30936011309F9FF93D929406FF09FDC31
:1021F800F3A4043003C70C0113771700E30007F2B8
:1022080093078000F3B4073093F484006FF05FF114
:10221800130101FF930705001385050093050600C8
:102228001386060023261100E7800700EF30801A86
:10223800EF30D01B1305000067800000130101FF79
:1022480023248100130405001305500423261100DC
:102258002322910093840500E7000400938504007D
:1022680013052005E700040013030400032481007C
:102278008320C100938504008324410013052005B1
:10228800130101016700030083A705009387170066
:1022980023A0F500B787008003A387CA670003005F
:1022A800130101FC232C810223263103232441033B
:1022B800232061032328A101232E1102232A91023E
:1022C8002328210323225103232E7101232C81016A
:1022D800232A91012326B10193090500138A0500D9
:1022E800130D0600138B0600130410006354E0005E
:1022F8001304070093071000930C00026314FB00FB
:10230800930C0003B7D49A3B13091000930AA0005A
:10231800130C00009384F49F930D2000938B1400FA
:1023280063140C0063F2A40B93850B0013050D00D6
:10233800EFE08FE193050A0013050503E780090024
:1023480013091900130C100093850B0013050D00D9
:10235800EFE00FE4130D05009305A00013850400BA
:10236800EFE08FDE938AFAFF9307100093040500CD
:10237800E396FAFA93050A0013050D03E7800900AE
:1023880093073000330424416306FB068320C1030E
:102398000324810383244103032901038329C10200
:1023A800032A8102832A4102032B0102832BC101E4
:1023B800032C8101832C4101032D0101832DC100D0
:1023C8001301010467800000E34054F9E3EE6DF760
:1023D80093050A0013850C00E7800900130919000A
:1023E8006FF09FF693050A0013050002E7800900C5
:1023F8001304F4FFE34880FE6FF05FF9B7870080AD
:1024080023A4A7CA67800000130101FB23248104C9
:102418002322910423202105232E3103232C410359
:10242800232A5103232291032320A103232EB10140
:1024380023261104232861032326710323248103FF
:102448001304050093840500930A0600138D060003
:10245800130A00001309F0FF93090000930C000011
:10246800B70D008003C50A00631005048320C1046A
:102478000324810483244104032901048329C1031B
:10248800032A8103832A4103032B0103832BC102FF
:10249800032C8102832C4102032D0102832DC101EB
:1024A8001301010567800000639E0C00930650022B
:1024B800630CD53693850400E7000400938A1A005C
:1024C8006FF05FFA930640066300D51263E2A60632
:1024D8009306900363EAA602930610036374D50E6D
:1024E8009306D002630CD534930700036300F50C00
:1024F800130750026312E502938504001305500286
:10250800E70004006F000016930680056300D51CE1
:10251800130730066300E530938504001305500265
:10252800E70004009385040003C50A006FF05FFD0F
:1025380093060007630CD51663E0A602930690067F
:102548006304D50A9306C006630CD5089306800673
:10255800E306D5F66FF05FFC930650076308D510C5
:1025680063EEA60213073007E318E5FA032C0D0003
:10257800130B4D00930B0C0003C50B00631A0526C3
:10258800930730006398F900B38B8B41B30B794103
:1025980063487027130D0B006F00C00C930680076B
:1025A8006306D5129306A0076FF09FFA635E0900D1
:1025B800638A0928130905FDE39209F093092000AD
:1025C8006FF0DFEFE34809FE9316290033892601EF
:1025D80013191900130909FD330925016FF0DFFDEF
:1025E800130A1A006FF09FED63120A0403260D0008
:1025F800130D4D0063500602938504001305D002A5
:102608002320C100E7000400032601001309F9FF95
:102618003306C04013070900938609009385040018
:1026280013050400EFF0DFC76F00C00313071000A5
:10263800E30EEAFA93077D0013F787FF03260700E6
:1026480083264700130D87003307B6013337C700C9
:102658003307D700E30007FA938504001305040045
:10266800EFF0DFBD930C00006FF05FE563180A0020
:1026780003260D00130D4D006FF0DFF9130710004E
:10268800E308EAFE93077D0013F787FF130D870021
:102698000326070003274700E31007FCB70700805D
:1026A80093C7F7FFE3F8C7F66FF01FFB93850400A5
:1026B80013050003E7000400938504001305800751
:1026C800E700040013098000930910009306100026
:1026D80063C2460B83270D0023240100130D4D0010
:1026E8002322F100130C0001930B000023200100AA
:1026F800930800010325410083258100138BF8FF0F
:1027080013162B0023261101EFD09FB71375F50080
:1027180063180508832701009306000363980700E0
:102728008328C100930710006396F8083385A60034
:10273800131585019385040013558541E7000400AE
:10274800938B1B0063180B0493063000930C000056
:10275800E396D9D613171900B30B7741E35470F1F8
:102768009385040013050002E7000400938BFBFF28
:102778006FF0DFFE93077D0093F687FF83A70600BF
:10278800138D86002322F10083A746002324F1003D
:102798006FF05FF52320910193080B006FF09FF510
:1027A8009307900093067005E3E2A7F893060003E9
:1027B8006FF0DFF79307FCFF2326F100634C8901D4
:1027C80093071000639CF900938504001305000328
:1027D800E7000400032CC1006FF01FFC93072000E2
:1027E800E39AF9FE93850400130500026FF05FFE7B
:1027F80093850400938B1B00E70004006FF0DFD77C
:102808009385040013050002E7000400938BFBFF87
:102818006FF01FD803250D0093850400130B4D009E
:10282800E70004006FF01FD7130A00001309F0FF38
:1028380093090000930C10006FF05FC893093000F3
:102848006FF0DFC7930910006FF05FC7130101FE37
:102858001306050037250080938605001305052912
:102868009305C100232E110023260100EFF0DFB9E4
:102878008320C1011301010267800000130101FCDC
:102888002322B10293054102232E11002324C10201
:102898002326D1022328E102232AF102232C010353
:1028A800232E11032326B100EFF05FFA8320C10124
:1028B8001301010467800000B77500803775008038
:1028C800130101FF938585651305C5661306E001AD
:1028D80023261100EFF09FFAB775008093858523B2
:1028E80013056000EFE05FE0678000009307800059
:1028F800F3A707307300501067800000930710009B
:102908003395A70073254530678000009307800042
:10291800F3B707307350403073504034678000007D
:10292800130101FF232481002322910037840080B2
:10293800232611009307A00093040500130484D4F0
:10294800631CF500032504009305D0008327450088
:1029580083A74700E78007000325040093F5F40FD9
:102968008327450083A74700E78007008320C1002D
:10297800032481001385040083244100130101010D
:1029880067800000130101FF232481003734008091
:102998001305849223261100EF00805D13058492AD
:1029A800032481008320C100130101016FF01FA5DA
:1029B80037750080130101FF130585672326110071
:1029C800EF009015B787008023A4A7D4EFF09FFBF2
:1029D8008320C10013050000130101016780000076
:1029E800B70710F003A747F403A507F483A547F436
:1029F800E39AE5FE67800000130101FE232C8100A5
:102A0800232E1100232A9100232821012326310196
:102A1800232441012322510113048000733404301C
:102A2800378900801305C9D413748400EF2090639C
:102A3800631E0502B7740080B77500803775008083
:102A48009385456A9306E0041386C4681305055CFC
:102A5800EFF0DFE2377500801305C56BEFF01FE27A
:102A68009305E0041385C468EFF01FE51305C9D486
:102A7800B7840080EF209064938404D3EFF05FF66E
:102A880083A9040083AA4400930705003305354150
:102A9800B3B7A700B385554137D601001306064CD6
:102AA80093060000B385F540EFD01F81130A050097
:102AB800B7D501009385054C13050A00EFD01FDD3B
:102AC800B309350133B5A9003305550123A2A40084
:102AD8001305C9D423A03401EF20505B631E0502FF
:102AE800B7740080B7750080377500809385456D91
:102AF800930610061386C4681305055CEFF01FD80B
:102B0800377500801305C56EEFF05FD79305100683
:102B18001385C468EFF05FDA73240430032481015D
:102B28008320C10183244101032901018329C100B4
:102B3800832A410013050A00032A810013010102B8
:102B48006F300077130101FF23261100EFF05FE9D2
:102B5800B7D701009387074C370710F0B307F50084
:102B68009306F0FF2326D7F433B5A7003305B50045
:102B78002324F7F42326A7F413057000EFF01FD8D9
:102B88008320C100130500001301010167800000C4
:102B98006392051A130101FE232E1100232C8100D4
:102BA800232A9100232821012326310123244101CE
:102BB80023225101232061019307F0FF6316F500DA
:102BC800379500001305E5BCB79700001304F5FF1F
:102BD8009387E7BC63DA871413840700130980001E
:102BE80073390930B78A00801385CAD413798900EC
:102BF800EF205047631E0502B7740080B775008048
:102C0800377500809385456A9306E0041386C46887
:102C18001305055CEFF09FC6377500801305C56B7B
:102C2800EFF0DFC59305E0041385C468EFF0DFC853
:102C38001385CAD4EF209048EFF09FDAB787008059
:102C4800938707D3B7D4010083A90700130A0500A7
:102C58009385044C1305040003AB4700EFD01FC352
:102C68009387F44BB38737413305F5009385044CBC
:102C78003305AA00EFD05FCD9385044CEFD01FC178
:102C8800338A4941330AAA009307703E63C6470155
:102C98009384044C33059500B70710F0B309350148
:102CA8001307F0FF23A6E7F433B5A9003305650140
:102CB80023A437F523A6A7F41385CAD4EF20103D23
:102CC800631E050237740080B77500803775008071
:102CD8009385456D930610061306C4681305055CB5
:102CE800EFF0DFB9377500801305C56EEFF01FB937
:102CF800930510061305C468EFF01FBC732909304B
:102D08008320C10103248101832441010329010196
:102D18008329C100032A8100832A4100032B010073
:102D28001301010267800000E35A04EA130400005B
:102D38006FF0DFEA67800000130101FF23248100A0
:102D4800232611002322910023202101130480004F
:102D580073340430B78400801385C4D4137484009A
:102D6800EF205030631E050237790080B775008068
:102D7800377500809385456A9306E0041306C96891
:102D88001305055CEFF09FAF377500801305C56B21
:102D9800EFF0DFAE9305E0041305C968EFF0DFB18B
:102DA8001385C4D4EF209031EFF09FC3B78700801C
:102DB80083A707D3B7D501009385054C3305F540A4
:102DC800EFD09FB8130905001385C4D4EF20102C49
:102DD800631E0502B7740080B775008037750080E0
:102DE8009385456D930610061386C4681305055C24
:102DF800EFF0DFA8377500801305C56EEFF01FA848
:102E0800930510061385C468EFF01FAB73240430D4
:102E18008320C10003248100130509008324410095
:102E280003290100130101016780000083470500A1
:102E380003C705006394E700639607003385E740FE
:102E48006780000013051500938515006FF01FFEBD
:102E5800B347B50093F73700638C07049307050061
:102E6800130700006316E60667800000E30E06FEFF
:102E78009385150003C7F5FF938717001306F6FF20
:102E8800A38FE7FE13F73700E31207FE930630001F
:102E98003308E64063E2060313572600931627001B
:102EA8003306D640B387D700B385D5006FF05FFBF4
:102EB800930705006FF01FFDB388E50083A808009D
:102EC8003388E70013074700232018016FF05FFCE1
:102ED8003388E50003480800B386E70013071700A6
:102EE800238006016FF01FF893F6F50F930705008E
:102EF80013F737006314070493F5F50F139785004C
:102F0800B365B70013970501B365B7003383C700EE
:102F18001387070013083000B308E340636A1803F7
:102F28001357260093152700B387B7003306B6401A
:102F38003386C7006394C70267800000E30E06FE6D
:102F480093871700A38FD7FE1306F6FF6FF05FFA7B
:102F580013074700232EB7FE6FF01FFC9387170057
:102F6800A38FD7FE6FF01FFD1305F0FF67800000E9
:102F7800B787008023A6A7CA67800000130101FE57
:102F8800232C81008327850037840080232A910021
:102F9800130404CBB7840080232E110023282101B9
:102FA80023263101938404D59309100023200400BB
:102FB8001309050023A03401E7800700832749008F
:102FC80023203401E7800700930720002320F40022
:102FD8008327C900E7800700930730002320F40007
:102FE8000324810123A004008320C101832441011B
:102FF800032901018329C10037850080130585F75E
:10300800130101026F20404A37850080130101FF38
:10301800B78700801307F0FF130585F723261100F3
:1030280023A8E7D4EF204048EF20C03A8320C1000E
:10303800130101016F20903B130101FA232A910427
:10304800B784008083A744D5232E1104232C810440
:103058002328210523263105232441052322510550
:1030680023206105232E7103232C8103232A910336
:103078002328A1032326B10363C4070837840080EB
:103088001306100093090500138C0500130584F737
:1030980093050000EF20C034377500809385090040
:1030A80013058574EFF08FFD3779008013050976D5
:1030B800B77A0080EFF08FFC938444D5130A0000A0
:1030C800232E8100B78C0080378B0080373D00802D
:1030D800B78D0080B77B0080938A0A7083274C00E5
:1030E800639E07049385090063060A1037750080FC
:1030F8001305057DEFF08FF89307100023A0F40067
:103108008320C10503248105832441050329010582
:103118008329C104032A8104832A4104032B01045F
:10312800832BC103032C8103832C4103032D01034B
:10313800832DC102130101066780000083250C005E
:10314800B77700801385877AEFF04FF323220100C9
:1031580083270C0113070C001306004093E7870030
:103168009308F0FF1308000093064DF82320F100A0
:1031780093850C719307000013058BF8EF20D00C92
:103188008327C1019305F0FF138587F7EF200040DF
:1031980093870DD513058BF803A40700EF2010259E
:1031A800B7870080938707D503A707001304140087
:1031B8009307E0FF1334140003260C006314F7028E
:1031C800B77500809385C57B13854B7CEFF00FEBBB
:1031D80013050976EFF08FEA330A8A00130C4C01C5
:1031E8006FF0DFEF93172400B387FA0083A5070079
:1031F8006FF09FFD377500801305857EEFF00FE8AF
:1032080083A70400B337F0006FF05FEFB787008043
:1032180083A747D5130101FF232481003775008058
:103228002326110037740080130505766382070290
:10323800EFF0CFE4B77500809385C570130544712E
:10324800032481008320C100130101016FF00FE303
:10325800EFF0CFE2B77500809385C5726FF01FFE5F
:10326800130101FF23261100EFD00FF98320C100BD
:10327800130101016FF09FF9130101FF23260100DB
:103288008327C100938717002326F100B70701F0B1
:1032980023A0B70013010101678000001305F0FFA8
:1032A80067800000130500006780000013172500E1
:1032B800B7870080130515009387878113152500AC
:1032C800130101FF3387E700B387A7002324810098
:1032D800232291000324070083A40700232611005A
:1032E800636C94008320C10003248100832441007F
:1032F80013010101678000008327040013050400FF
:1033080083A74700E7800700630405002322040021
:103318001304C4006FF0DFFC130101FFB7870080BE
:1033280023229100B78400802324810023261100E2
:10333800138447CC23202101938747CC938444CF1F
:10334800631C940013090500138407006314940296
:10335800130400006F0040040327440063080700BB
:1033680003270400032707006308A7021304C40007
:103378006FF01FFD83274400639607001304C40001
:103388006FF0DFFC832704001305090083A50700FD
:10339800EFF0DFA9E31405FE130504008320C10044
:1033A8000324810083244100032901001301010142
:1033B80067800000130101FF23248100232291006C
:1033C800232611001304800093042000F3370430EF
:1033D800EF20105063C4A4001305100093051000DB
:1033E800EF20D05CEFF08FD06FF05FFE3785008064
:1033F800B7870080130605D3938747103386C740E5
:1034080093050000130505D36FF01FAE130101FFEC
:103418001305200023261100EFF05FE937850080AF
:103428001305C582EFF08FC513053000EFF01FE8D4
:10343800EF20C070EFF0DFE2B78700809387870640
:1034480003C7C7001377E7FF2386E7008320C1007F
:103458001301010167800000130101F6232C810884
:10346800B797008037840080232631099387077136
:103478009309840D23A2F90093070101130600079D
:103488009305000013850700232E1108232A9108AD
:1034980023282109EFF05FA51307100023A4A90032
:1034A80013050000A30EE100EFF05FE01305100024
:1034B800EFF0DFDF93071010231EF100EF10102C40
:1034C800B787008093870787378900802322F10018
:1034D800B736008093071000B795008093048906DB
:1034E8002320F10013070000930700009308000051
:1034F800130800009386464113060020938505B102
:103508001305890623A09902EF20002983C7D40058
:103518001304840D13F7B7FFA386E40093F7B701EC
:10352800639A070083A78401639607001305890639
:10353800EF10C002B7870080938787872322F100A6
:103548003785008093071000B7360080B795008054
:10355800930485FF2320F1009308F000130800006E
:1035680093070000130700009386C63B130600204C
:10357800938505D1130585FFEF20002283C7D4006A
:10358800232694001305800093F7B7FFA386F40061
:10359800B78700809387070F232CF400232EF400AD
:1035A8007335053013758500EFC09FC88347D50074
:1035B800130101FE232C8100232E110093F7F7013C
:1035C80013040500639C070083278501639807009F
:1035D8002326B100EF0090788325C1002326040636
:1035E800232AB4008320C1010324810113010102AD
:1035F80067800000130101FE232C8100232A91001B
:10360800232821012326310123244101232061019C
:10361800232E11002322510113040500938905006C
:10362800130A0600138B0600130985009304800013
:10363800F3B404301305090093F48400EF208022CA
:10364800631E0502B77A0080B77500803775008061
:103658009385456A9306E0041386CA681305055CDA
:10366800EFF0CFA1377500801305C56BEFF00FA100
:103678009305E0041385CA68EFF00FA41305090049
:10368800EF20C0231305C400EF10406D630005024E
:1036980093050A00EFF09FF11305090093850400D4
:1036A800EF001007130500006F000006630E0B0AF9
:1036B80013058000EF304038631C05061305090028
:1036C800EF20C01C631E050237740080B7750080A8
:1036D800377500809385456D930610061306C468F8
:1036E8001305055CEFF08F99377500801305C56EDB
:1036F800EFF0CF98930510061305C468EFF0CF9B41
:10370800F3A40430130540FF8320C1010324810181
:1037180083244101032901018329C100032A81006F
:10372800832A4100032B0100130101026780000076
:1037380093071000232245012320F5008327050065
:1037480093F737006398090203270400B367F7006B
:103758002320F500832744002320A400E39E07F2DA
:103768002322A4006FF05FF323200A0013050A0048
:103778006FF0DFFC03A709001377C7FF6318070280
:10378800032744002320F500631807002322A40020
:103798002320A4006FF05FF08327070093F737001A
:1037A800B367F5002320F7006FF09FFBB3E7E7004E
:1037B8002320F50083A7090093F737003365F50048
:1037C80023A0A9006FF05FED130101FF23248100FE
:1037D8002326110013040500630E05008327050046
:1037E80093F73700638807000324450063840500C6
:1037F800EF308023130504008320C10003248100D7
:1038080013010101678000009307C500232005000C
:1038180023220500232405002326F5002328F5008C
:1038280067800000130101FE232C8100232A9100E8
:1038380023282101232E1100232631011309050015
:103848009304850013048000733404301385040046
:1038580013748400EF200001631E0502B77900800D
:10386800B7750080377500809385456A9306E00434
:103878001386C9681305055CEFF04F803775008023
:103888001305C56BEFE09FFF9305E0041385C96836
:10389800EFF08F8213850400EF2040021305C90062
:1038A800EF10C04B6306050093050000EFF01FD032
:1038B80093050400032481018320C1010329010128
:1038C8008329C100138504008324410113010102E7
:1038D8006F000064138605008325450093060000E9
:1038E8006FF05FD1130101FE232C810023282101F1
:1038F80023244101232E1100232A9100232631017C
:10390800232251011309050013840500130A060038
:1039180063840500631E0602B7840080B7850080B3
:1039280037750080938545899306D00E13860488E1
:103938001305055CEFE09FF4378500801305458A81
:10394800EFE0DFF39305D00E13850488EFE0DFF690
:103958009309890093048000F3B4043013850900A7
:1039680093F48400EF101070631E0502B77A00808C
:10397800B7750080377500809385456A9306E00423
:103988001386CA681305055CEFE05FEF37750080A2
:103998001305C56BEFE09FEE9305E0041385CA6835
:1039A800EFE09FF113850900EF10507163000404E4
:1039B800930AC90013850A00EF10403A631C0500FA
:1039C80003274900631A0704232089002322490199
:1039D8006F00C00193050400EFF05FBD03240400ED
:1039E80013850A00EF108037E31A04FC03248101D1
:1039F8008320C10103290101032A8100832A410090
:103A08009385040013850900832441018329C1009B
:103A1800130101026F00C04F8327070093F7370097
:103A28003364F400232087006FF05FFA83A7050052
:103A3800130101FF232481002320210123261100E3
:103A4800232291001309050013840500639E0702D1
:103A5800B7840080B7850080377500809385C58B53
:103A68009306B010138604881305055CEFE01FE188
:103A7800378500801305858DEFE05FE09305B01072
:103A880013850488EFE05FE30326440083250400E0
:103A980013050900EFF01FE58320C100232004006F
:103AA8002322040003248100832441000329010008
:103AB8001301010167800000130101FE232C81001E
:103AC800232A91002328210123263101232E1100C6
:103AD80023244101930405009389050013098500F7
:103AE8001304800073340430130509001374840030
:103AF800EF105057631E0502377A0080B7750080B3
:103B0800377500809385456A9306E0041306CA68F2
:103B18001305055CEFE09FD6377500801305C56B6C
:103B2800EFE0DFD59305E0041305CA68EFE0DFD8BE
:103B380013050900EF10905803A50400630A05084F
:103B48008327050003A7440093F7C7FF23A0F400C9
:103B58006314E50023A2F40093051000EFF0DFC61C
:103B68009304050013050900EF105052631E050267
:103B780037790080B7750080377500809385456D6B
:103B8800930610061306C9681305055CEFE01FCFFE
:103B9800377500801305C56EEFE05FCE93051006FC
:103BA8001305C968EFE05FD1732404308320C10195
:103BB80003248101138504000329010183244101A1
:103BC8008329C100032A81001301010267800000D4
:103BD800639A090413050900EF10504B631E050290
:103BE800B7740080B7750080377500809385456D80
:103BF800930610061386C4681305055CEFE01FC81A
:103C0800377500801305C56EEFE05FC79305100692
:103C18001385C468EFE05FCA73240430930400007E
:103C28006FF0DFF81386C40093860900930504003B
:103C380013050900EF10000A93040000E31805F6C5
:103C4800B787008083A7070E83A447016FF01FF68C
:103C58008347D50093F7F70163980700032585018B
:103C68001335150067800000130500006780000009
:103C7800130101FF23261100EFF00F8CB787008096
:103C880083A707D68320C100378700803385A70024
:103C98002324A70E930500001385070013010101D3
:103CA8006F20C05083270500130101FF23248100E2
:103CB80023261100232291001304050063980702AC
:103CC800B7840080B7850080377500809385C598D4
:103CD8001305055C9306301813868497EFE01FBA26
:103CE8009305301813858497EFE01FBD0325040062
:103CF8008320C100032481008324410013010101B2
:103D080067800000130101FE232C81002326310166
:103D180023244101232E1100232A91002328210165
:103D2800130A0500938905001304800073340430D6
:103D3800B7840080138584D513748400EF10903203
:103D4800631E050237790080B775008037750080DB
:103D58009385456A9306E0041306C9681305055C54
:103D6800EFE0DFB1377500801305C56BEFE01FB1D9
:103D78009305E0041305C968EFE01FB4138584D5E3
:103D8800EF10D033B78700809305A00013059A0081
:103D980023A4070EEFC0DFBAB787008037890080F9
:103DA8002320A9D623AE37D5EFF09FEC138584D511
:103DB800EF10D02D631E0502B7740080B775008020
:103DC800377500809385456D930610061386C46881
:103DD8001305055CEFE09FAA377500801305C56ED3
:103DE800EFE0DFA9930510061385C468EFE0DFACA8
:103DF800732404308320C1010324810183244101F9
:103E0800032901018329C100032A8100130101024A
:103E180067800000130101FE232C81002328210163
:103E2800232E1100232A91002326310113090500AE
:103E38001304800073340430B7840080138584D55C
:103E480013748400EF101022631E0502B7790080F6
:103E5800B7750080377500809385456A9306E0043E
:103E68001386C9681305055CEFE05FA1377500800C
:103E78001305C56BEFE09FA09305E0041385C9689F
:103E8800EFE09FA3138584D5EF1050231305890015
:103E9800EFF05FE193050900EF00002F8347D90099
:103EA800138584D593F7D7FFA306F900EF10101EEA
:103EB800631E0502B7740080B775008037750080EF
:103EC8009385456D930610061386C4681305055C33
:103ED800EFE0DF9A377500801305C56EEFE01F9A93
:103EE800930510061385C468EFE01F9D7324043002
:103EF8008320C10103248101232409008324410173
:103F0800032901018329C100130101026780000010
:103F1800B787008083A7870D130101FF2324810041
:103F2800232611002322910013840500639E0704B1
:103F3800EF10D015631E0502B7740080B7750080B6
:103F4800377500809385456D930680071386C4688E
:103F58001305055CEFE09F92377500801305C56E69
:103F6800EFE0DF91930580071385C468EFE0DF94E5
:103F780013050400032481008320C1008324410029
:103F8800130101016FC0CFAAEF105010631E050284
:103F9800B7740080B7750080377500809385456DCC
:103FA800930610061386C4681305055CEFE01F8DA1
:103FB800377500801305C56EEFE05F8C930510061A
:103FC8001385C468EFE05F8F137484007324043092
:103FD8008320C100032481008324410013010101CF
:103FE80067800000378700800327870D6314070068
:103FF8006FC00FA493778500F3A707306780000090
:104008001305800073350530137585006FF09FFD2B
:10401800130101FE232C8100232E1100232A910075
:10402800232821012326310113048000733404302E
:10403800B7840080138584D513748400EF10900230
:10404800631E050237790080B775008037750080D8
:104058009385456A9306E0041306C9681305055C51
:10406800EFE0DF81377500801305C56BEFE01F8136
:104078009305E0041305C968EFE01F84138584D510
:1040880037890080EF1090038327890D1309890D64
:10409800638E0702B7890080B78500803775008076
:1040A80093850591930600101386498F1305055CC7
:1040B800EFE0CFFC3775008013054564EFE00FFC97
:1040C800930500101385498FEFE00FFF83278900C0
:1040D80003C7F70093071000631EF702B789008033
:1040E800B7850080377500809385859293061010F8
:1040F8001386498F1305055CEFE04FF8377500808C
:1041080013054564EFE08FF7930510101385498F69
:10411800EFE08FFA032789008347F7009387F7FFBB
:10412800A307F700138584D5EF104076631E0502B8
:10413800B7740080B7750080377500809385456D2A
:10414800930610061386C4681305055CEFE00FF3A9
:10415800377500801305C56EEFE04FF29305100622
:104168001385C468EFE04FF5732404308320C10140
:104178000324810183244101032901018329C1000A
:104188001301010267800000B787008083A707CC6E
:10419800130101FF2324810023261100232291000B
:1041A800138405006398F502B7840080B785008002
:1041B80037750080938505A11305055C9306C02813
:1041C80013868497EFE08FEB9305C02813858497B7
:1041D800EFE08FEE03274400832704008320C1000B
:1041E800832441002320F70023A2E70023200400B2
:1041F80023220400032481001301010167800000C9
:10420800130101FE232C8100232A9100232E110083
:10421800232821012326310113040500930480007B
:10422800F3B4043037890080130589D593F48400EA
:10423800EF104063631E0502B7790080B7750080F0
:10424800377500809385456A9306E0041386C9682C
:104258001305055CEFE08FE2377500801305C56B29
:10426800EFE0CFE19305E0041385C968EFE0CFE400
:10427800130589D5EF10806413058400EFF09FA221
:1042880093050400EFF05FF08347D400130589D548
:1042980093F7D7FFA306F400EF10405F631E0502F3
:1042A80037790080B7750080377500809385456D34
:1042B800930610061306C9681305055CEFE00FDCCA
:1042C800377500801305C56EEFE04FDB93051006C8
:1042D8001305C968EFE04FDEF3A40430232404007B
:1042E80013058401032481018320C1018324410132
:1042F800032901018329C100130101026F10D04D68
:10430800832705006314F500930700001385070051
:1043180067800000130101FF232481003784008097
:1043280023202101130905001305840D13054502F7
:104338002322910023261100EFF09FFC1304840D23
:1043480093040500631405008324C400631E090652
:1043580083278400639E070237890080B785008021
:10436800377500809385459A9306F0071306899759
:104378001305055CEFE08FD03775008013054564A1
:10438800EFE0CFCF9305F00713058997EFE0CFD281
:104398008327840003C7D7001377F7016316070242
:1043A80083D6E7001307F0076370D7022320F402CF
:1043B8008320C100032481008324410003290100D4
:1043C800130101016780000083278400638497003C
:1043D800EFF01F8A232094026FF09FFD130101FE66
:1043E80023282101378900809307890D83A7870037
:1043F800232E1100232C810083C7F700232A910064
:10440800232631011309890D639E07023784008032
:10441800B78500803775008093850595930610222F
:10442800130684971305055CEFE04FC537750080C8
:1044380013054564EFE08FC4930510221305849794
:10444800EFE08FC783270900638E07023784008057
:10445800B7850080377500809385059193062022E3
:10446800130684971305055CEFE04FC1377500808C
:1044780013054564EFE08FC0930520221305849748
:10448800EFE08FC31304800073340430B7840080D6
:10449800138584D513748400EF10C03C631E050295
:1044A800B7790080B7750080377500809385456AB5
:1044B8009306E0041386C9681305055CEFE00FBC9A
:1044C800377500801305C56BEFE04FBB9305E0041B
:1044D8001385C968EFE04FBE138584D5EF10003E01
:1044E80003278900130510008347F70093871700F7
:1044F800A307F700EFF01FE2138584D5EF1000390A
:10450800631E0502B7740080B77500803775008098
:104518009385456D930610061386C4681305055CDC
:10452800EFE0CFB5377500801305C56EEFE00FB526
:10453800930510061385C468EFE00FB873240430A0
:10454800032481018320C10183244101032901013E
:104558008329C100130101026FF09FAA130101FE14
:10456800232C8100232A9100232E110023282101C6
:10457800232631011304050093048000F3B40430AA
:1045880037890080130589D593F48400EF10802DB6
:10459800631E0502B7790080B77500803775008003
:1045A8009385456A9306E0041386C9681305055C7C
:1045B800EFE0CFAC377500801305C56BEFE00FACAB
:1045C8009305E0041385C968EFE00FAF130589D59B
:1045D800EF10C02EB787008083A707CC6318F402BA
:1045E800B7890080B785008037750080938505A15D
:1045F8001305055C9306602713868997EFE00FA8DB
:104608009305602713858997EFE00FAB3787008004
:104618009306870D83A7460203A68602B786008005
:104628009386C60F1307870D6386D70A6384070A24
:104638008305E4000385E70063D8A50803A74700BE
:104648002320F4002322E4002320870023A28700EC
:104658008347D4001305000093E70704A306F4007A
:10466800EFF05FCB130589D5EF104022631E0502DA
:1046780037740080B7750080377500809385456D65
:10468800930610061306C4681305055CEFE00F9F38
:10469800377500801305C56EEFE04F9E9305100631
:1046A8001305C468EFE04FA1F3A404308320C101CF
:1046B8000324810183244101032901018329C100C5
:1046C80013010102678000006306F60083A7070054
:1046D800E39207F62322C400832787022320D4000D
:1046E80023A08700232487026FF09FF6832705FF06
:1046F800130101FE232C810023263101232E1100F2
:10470800232A9100232821012324410113040500B1
:10471800930985FE6384070C93048000F3B4043086
:1047280037890080130589D593F48400EF1080132E
:10473800631E0502377A0080B775008037750080E0
:104748009385456A9306E0041306CA681305055C59
:10475800EFE0CF92377500801305C56BEFE00F923D
:104768009305E0041305CA68EFE00F95130589D592
:10477800EF10C014130504FFEFF0CFD293850900A2
:10478800EFF09FA0834754FF130589D593F7D7FF10
:10479800A30AF4FEEF10800F631E0502377900802C
:1047A800B7750080377500809385456D93061006B0
:1047B8001306C9681305055CEFE04F8C3775008058
:1047C8001305C56EEFE08F8B930510061305C968B6
:1047D800EFE08F8EF3A40430232804FE834754FFB0
:1047E8001385090093F7B7FEA30AF4FEEFF04FC64E
:1047F80063040502032481018320C101832441014C
:1048080003290101032A8100138509008329C100B6
:10481800130101026FF09FD48320C1010324810199
:1048280083244101032901018329C100032A81004E
:104838001301010267800000130101FE232C81008F
:1048480023282101232E1100232A91002326310138
:104858002324410123225101130405001309800078
:1048680073390930B7890080138589D51379890090
:10487800EF00507F631E0502B7740080B775008093
:10488800377500809385456A9306E0041386C468EB
:104898001305055CEFD09FFE377500801305C56BC7
:1048A800EFD0DFFD9305E0041385C468EFE0CF8007
:1048B800138589D5EF108000B78400801385840D97
:1048C8009305040013054502EFF01F8CB78700809D
:1048D80083A707CC378A00809384840D130ACA0FF4
:1048E8006318F402B78A0080B785008037750080A6
:1048F800938505A11305055C9306602713868A979F
:10490800EFD0DFF79305602713858A97EFD0DFFA9A
:1049180083A7440203A78402638E470B638C070AAC
:104928008306E4000386E70063D0C60A03A74700AE
:104938002320F4002322E4002320870023A28700F9
:104948008347D40003A5840093E707043305854013
:1049580013351500A306F400EFF0DF9B138589D506
:10496800EF00D072631E050237740080B7750080AF
:10497800377500809385456D930610061306C46845
:104988001305055CEFD09FEF377500801305C56EE2
:10499800EFD0DFEE930510061305C468EFD0DFF102
:1049A800732909308320C101032481018324410133
:1049B800032901018329C100032A8100832A4100B8
:1049C80013010102678000006386E70083A70700E0
:1049D800E39A07F42322E40083A7840223204401F6
:1049E80023A0870023A484026FF09FF5B787008077
:1049F80083A707D663860706B78700809387870D46
:104A080003A787009306F0070356E70063EAC60486
:104A1800B78600800306E70083A6C6D56342D6049E
:104A2800B786008083A606CC630CD702832687014D
:104A38006398060283A607016340D502130101FFAC
:104A48001305070023261100EFF01FDF8320C100A4
:104A5800130101016FF0CFA1B386A64023A8D700A8
:104A680067800000130101FE232C810023263101F9
:104A7800232E1100232A91002328210193090500E0
:104A88001304800073340430B7840080138584D500
:104A980013748400EF00105D631E050237790080EF
:104AA800B7750080377500809385456A9306E004E2
:104AB8001306C9681305055CEFD05FDC3775008005
:104AC8001305C56BEFD09FDB9305E0041305C96898
:104AD800EFD09FDE138584D5EF00505E83C7D900E1
:104AE800378900801309890D93F70704638E07003F
:104AF8009385090013054902EFF00FE983C7D90030
:104B080093F7F7FBA386F9000325890033053541A0
:104B180013351500EFF01F80138584D5EF0010576B
:104B2800631E0502B7740080B77500803775008072
:104B38009385456D930610061386C4681305055CB6
:104B4800EFD0DFD3377500801305C56EEFD01FD3C4
:104B5800930510061385C468EFD01FD6732404305C
:104B68008320C10103248101832441010329010118
:104B78008329C1001301010267800000130101FEAF
:104B8800232C8100232A91001304050023282101E6
:104B9800232E1100232631019384050013090600F2
:104BA800EFF05FEC8347D40093E72700A306F400F7
:104BB80063860406B787008083A707CC2324940064
:104BC8006318F402B7890080B785008037750080C4
:104BD800938505A11305055C9306602713868997BD
:104BE800EFD0DFC99305602713858997EFD0DFCC15
:104BF80083A70400638CF406638A07060307E400AE
:104C08008386E700635CD70403A747002320F400EA
:104C18002322E4002320870023A287009307F0FFC4
:104C28006304F9069305A00013059900EFB05FD15E
:104C38001306150013058401032481018320C10193
:104C480083244101032901018329C100B74500805C
:104C58009385456F130101026F10401583A6440028
:104C68006386D70083A70700E39C07F883A744005F
:104C7800232094002322F40083A7440023A0870064
:104C880023A284006FF09FF98320C10103248101CE
:104C980083244101032901018329C1001301010271
:104CA80067800000130101FFB7870080232481007B
:104CB8001304050003A5070E23261100EFF01FECCF
:104CC80013050400032481008320C100130101019E
:104CD8006FB00FD6130101FFB7870080232481002E
:104CE8001304050003A5070E2322910093840500F1
:104CF800930506001386060023261100EFF01FE82F
:104D080013050400EF009038631E05023774008015
:104D1800B7750080377500809385456D93068007C9
:104D28001306C4681305055CEFD05FB537750080BE
:104D38001305C56EEFD09FB4930580071305C468AB
:104D4800EFD09FB7032481008320C100138504009E
:104D580083244100130101016FB08FCD130101FEBF
:104D68002328210123263101232E1100232C810021
:104D7800232A91009309050013098000733909302B
:104D8800B7840080138584D513798900EF00902DAE
:104D9800631E050237740080B77500803775008080
:104DA8009385456A9306E0041306C4681305055CF9
:104DB800EFD0DFAC377500801305C56BEFD01FACA3
:104DC8009305E0041305C468EFD01FAF138584D59D
:104DD800EF00D02E13850900EFF08FD213040500E1
:104DE800138584D5EF00902A631E0502B7790080E9
:104DF800B7750080377500809385456D930610065A
:104E08001386C9681305055CEFD05FA73775008066
:104E18001305C56EEFD09FA6930510061385C968C4
:104E2800EFD09FA9732909306306040C1309800089
:104E380073390930138584D513798900EF009022DE
:104E4800631E0502B7790080B7750080377500804A
:104E58009385456A9306E0041386C9681305055CC3
:104E6800EFD0DFA1377500801305C56BEFD01FA108
:104E78009305E0041385C968EFD01FA4138584D572
:104E8800EF00D02313058400EFE0DFE19305040071
:104E9800EFF08FAF8347D400138584D593F7D7FFFE
:104EA800A306F400EF00901E631E0502B77400808D
:104EB800B7750080377500809385456D9306100699
:104EC8001386C4681305055CEFD05F9B37750080B7
:104ED8001305C56EEFD09F9A930510061385C46815
:104EE800EFD09F9D73290930232404001305840102
:104EF800EF10800E130504008320C10103248101F3
:104F080083244101032901018329C10013010102FE
:104F180067800000130101FF232291002320210153
:104F2800232611002324810013090500930400009F
:104F38000324090063048900631004028320C1006C
:104F48000324810013850400032901008324410000
:104F5800130101016780000013050400EFF04FAA58
:104F680013050400EFE0DFCE93041000E30205FC14
:104F780013050400EFF08FDE6FF09FFBB78700800A
:104F88009387870D1387470223A2E70223A4E7022A
:104F980093050000130500006FE0DFD6130101FE42
:104FA800232C8100378400808327840D232E110051
:104FB800232A91002328210123263101232441019A
:104FC800232251011304840D638E0702B7840080E5
:104FD800B785008037750080938505919306E03783
:104FE800138684971305055CEFD05F8937750080B9
:104FF80013054564EFD09F889305E03713858497A0
:10500800EFD09F8BB78700808326840003A707CC47
:10501800138A07006386E612130980007339093082
:10502800B7890080138589D513798900EF0090032B
:10503800631E0502B7740080B7750080377500805D
:105048009385456A9306E0041386C4681305055CD6
:10505800EFD0DF82377500801305C56BEFD01F8254
:105068009305E0041385C468EFD01F85138589D59F
:10507800EF00D0048325840013054402EFF0CF909D
:1050880083270ACC83248400378A0080130ACA0F36
:105098006398F402B78A0080B7850080377500806E
:1050A800938505A11305055C9306602713868A97E7
:1050B800EFD0CFFC9305602713858A97EFD0CFFFF9
:1050C8008327440203278402638A470B6388070AFD
:1050D8008386E4000386E70063DCC60803A747006D
:1050E80023A0F40023A2E4002320970023A2970022
:1050F80013051000EFF00FA2138589D5EF00007992
:10510800631E050237740080B7750080377500800C
:105118009385456D930610061306C4681305055C50
:10512800EFD0CFF5377500801305C56EEFD00FF5BA
:10513800930510061305C468EFD00FF873290930DA
:105148001305800073350530032481018320C101D4
:1051580083244101032901018329C100032A810015
:10516800832A410013758500130101026FB04F8C2B
:105178006386E70083A70700E39E07F423A2E40001
:105188008327840223A0440123A0970023249402A8
:105198006FF01FF6130101FD23248102378400807C
:1051A8008327840D23229102232611022320210321
:1051B800232E3101232C4101930405001304840D8F
:1051C800638E070237890080B785008037750080B5
:1051D8009385059193069039130689971305055C05
:1051E800EFD0CFE93775008013054564EFD00FE99C
:1051F8009305903913058997EFD00FEC9307F0FFCB
:105208006394F41A37890080B78500803775008069
:105218009385459C9306A039130689971305055C69
:10522800EFD0CFE53775008013054564EFD00FE563
:105238009305A03913058997EFD00FE89305A000CF
:1052480013859400EFB0CFEF93091500EF10403CA1
:105258003389A9002326010093048000F3B40430A5
:105268001305C10093F48400EF00C05F631E0502BC
:10527800377A0080B7750080377500809385456A56
:105288009306E0041306CA681305055CEFD00FDF28
:10529800377500801305C56BEFD04FDE9305E0042A
:1052A8001305CA68EFD04FE11305C100EF00006194
:1052B80003258400EFF00FFB03258400B745008029
:1052C80013860900130585019385456FEF00102E9D
:1052D800032784001305C1008347D70093E707011C
:1052E800A306F700EF00805A631E0502B779008015
:1052F800B7750080377500809385456D93068007E4
:105308001386C9681305055CEFD04FD73775008041
:105318001305C56EEFD08FD6930580071385C9682E
:10532800EFD08FD913850400EFA09FF08327840066
:1053380083C7D70093F70701638E0702378400807D
:10534800B7850080377500809385859D9306703BEF
:10535800130684971305055CEFD04FD2377500808C
:1053680013054564EFD08FD19305703B13058497DF
:10537800EFD08FD4EF10C0293305A9409304000063
:105388006358A0021306803E930600009355F5412A
:10539800EFB00FD21306400693060000EFA0DFF12E
:1053A800930405006F00C000E39A04E8EFF01FBF04
:1053B8008320C1020324810213850400032901020A
:1053C800832441028329C101032A810113010103B6
:1053D80067800000B787008003A5070E678000007C
:1053E800130101FE232C8100232A91002328210187
:1053F800232E11002326310113040500138905000B
:1054080093040600631E0602B7890080B7850080F2
:1054180037750080938545A393066004138649A2D7
:105428001305055CEFD08FC537850080130505A4EB
:10543800EFD0CFC493056004138549A2EFD0CFC73E
:1054480063FE2403B7890080B78500803775008024
:10545800938585A593067004138649A21305055CF8
:10546800EFD0CFC137850080130505A7EFD00FC156
:1054780093057004138549A2EFD00FC42324240197
:105488002326940023208400232284008320C10142
:105498000324810183244101032901018329C100D7
:1054A8001301010267800000130101FE232A910005
:1054B80023263101232E1100232C810023282101CA
:1054C8009309050093048000F3B404303784008006
:1054D800130544D693F48400EF00C038631E050218
:1054E80037790080B7750080377500809385456AE5
:1054F8009306E0041306C9681305055CEFD00FB8DE
:10550800377500801305C56BEFD04FB79305E004DE
:105518001305C968EFD04FBA130544D6EF00003A17
:1055280013850900EFF09F83130905006302050442
:105538008347D50093F7F701639807008327850110
:1055480063940700EFF08F8123260906130544D6DC
:10555800032481018320C101032901018329C1009A
:105568009385040083244101130101026FE05F9ACF
:1055780003A7890083A7C900B387E740B337F000C2
:10558800B387E70023A4F9006FF05FFCB7870080BA
:1055980083A7870D130101FE23282101232631014A
:1055A800232E1100232C8100232A9100232441015A
:1055B800130905009389050063800704638E0502BB
:1055C80037840080B785008037750080938585A96A
:1055D8009306C008130644A21305055CEFD00FAA72
:1055E8003775008013054564EFD04FA99305C008AF
:1055F800130544A2EFD04FAC130480007334043079
:10560800B7840080138544D613748400EF00802586
:10561800631E0502377A0080B775008037750080F1
:105628009385456A9306E0041306CA681305055C6A
:10563800EFD0CFA4377500801305C56BEFD00FA44A
:105648009305E0041305CA68EFD00FA7138544D665
:10565800EF00C02683278900638C07069387F7FF2E
:105668002324F900138544D6EF004022631E050267
:10567800B7740080B7750080377500809385456DD5
:10568800930610061386C4681305055CEFD00F9FB8
:10569800377500801305C56EEFD04F9E9305100631
:1056A8001385C468EFD04FA173240430130500009C
:1056B8008320C101032481018324410103290101BD
:1056C8008329C100032A81001301010267800000B9
:1056D800639A0904138544D6EF00401B631E050234
:1056E800B7740080B7750080377500809385456D65
:1056F800930610061386C4681305055CEFD00F984F
:10570800377500801305C56EEFD04F9793051006C7
:105718001385C468EFD04F9A73240430130500FF33
:105728006FF01FF993050400032481018320C10150
:10573800032A810093860900130609008329C10002
:1057480003290101138544D6832441011301010271
:105758006FF04FD88347D50093F7F7016398070098
:105768000325850113351500678000001305000027
:1057780067800000B787008003A5870D3335A00038
:1057880067800000B787008083A7070E03C5C7009E
:105798001375150067800000130101FE0323010241
:1057A800232C8100232E11002320610013040500FF
:1057B800EFC04F95B787008083A7070E8320C101EC
:1057C80083A787062324F406032481011301010219
:1057D8006780000083270506130101FF2324810049
:1057E800232611001304050063840700E7800700DF
:1057F80013050400EFF01FF6630405021305040007
:10580800EFF04FA68347D4008320C10093E78700B9
:10581800A306F4000324810013010101678000003E
:105828008347D40093F72700638607001305040015
:10583800EFE04FDE83278401E38607FC130584012C
:10584800EF0080796FF01FFC2306D500A306C50082
:105858002307B500A3070500232C0500232E050008
:105868006780000003250500630E0500B7870080E8
:1058780083C7C70E137535003305F5403335A000CF
:10588800678000001305100067800000B78700805C
:105898009387870D03C7470183A78700B3E7E7000E
:1058A800032705006318F7002320050013051000DF
:1058B800678000001305000067800000B78700803C
:1058C8009387870D03C7470183A78700B3E7E700DE
:1058D8002320F50067800000130101FE232C8100BE
:1058E80023282101232E1100232A91002326310188
:1058F800130905001304800073340430B784008052
:10590800138584D613748400EFF0DFF5631E050257
:10591800B7790080B7750080377500809385456A30
:105928009306E0041386C9681305055CEFC01FF5EC
:10593800377500801305C56BEFC05FF49305E0046D
:105948001385C968EFC05FF7138584D6EFF01FF79A
:105958008347D90013F7470063140706138584D6D5
:10596800EFF0DFF2631E0502B7740080B7750080A0
:10597800377500809385456D930610061386C468B5
:105988001305055CEFC09FEF377500801305C56EE2
:10599800EFC0DFEE930510061385C468EFC0DFF192
:1059A800732404308320C10103248101832441012D
:1059B800032901018329C100130101026780000046
:1059C80093F7B7FFA306F90013050900EFF09FD876
:1059D8006306050013050900EFE05FB893050400AE
:1059E800032481018320C101032901018329C10006
:1059F800138584D683244101130101026FE04FD13E
:105A0800639405006FF05FED130101FF232481000B
:105A18001304050013850500130595009305A000E0
:105A280023261100EFA0DFF11306150013058401EA
:105A3800032481008320C100B74500809385456F0A
:105A4800130101016F008036130101FC2322510369
:105A5800938A0600B786008083A6860D232C8102D0
:105A6800232A91022326310323244103232E1102E2
:105A7800232821031304050093890500130A06004F
:105A880083244104638E060437890080B78500802B
:105A9800377500809306201B1306C9AC93850591C2
:105AA8001305055C232E1101232C0101232AF10083
:105AB8002328E100EFC09FDC37850080130505AE81
:105AC800EFC0DFDB9305201B1305C9ACEFC0DFDE99
