:0200000480007A
:100000009702000093820201739052306F00105DDE
:10001000130101FB2320110023223100232441007E
:100020002326510023286100232A7100232CC101BB
:10003000232ED1012320E1032322F1032324A10253
:100040002326B1022328C102232AD102232CE10254
:10005000232EF1022320010523221105F32210345F
:1000600023245104F322003023265104EF00001F03
:1000700013030000631E0502F3222034B70300803F
:100080009383F3FFB3F272001303B000638A62003C
:100090001305010097000000938040136F00904704
:1000A0008322810493824200232451046F000009BB
:1000B00093020100976300009383033D03A1430073
:1000C000130101FF2320510003AE0300130E1E0095
:1000D00023A0C30163080300970000009380C003BE
:1000E0006F00104C73252034B70200809382F2FF1A
:1000F00033755500EF008015975200009382422E11
:1001000013153500B382A20003A5020003A3420029
:10011000E700030017630000130303378323030082
:100120009383F3FF232073008322010013810200D5
:1001300083238300032E030263087E089762000076
:100140009382823403A3820023268302232893020E
:10015000232A2303232C3303232E43032320530575
:10016000232263052324730523268305232893056F
:10017000232AA305232CB30523242302976300001D
:10018000938343EA03AE03002326C30703A30202BB
:1001900023A46200032183020324C30283240303F4
:1001A0000329430383298303032AC303832A030404
:1001B000032B4304832B8304032CC304832C0305E8
:1001C000032D4305832D830583228104739012340C
:1001D0008322C104739002308320010083214100F7
:1001E000032281008322C1000323010183234101F3
:1001F000032E8101832EC101032F0102832F4102AF
:10020000032581028325C1020326010383264103BE
:10021000032781038327C1030328010483284104A2
:100220001301010573002030730000009762000085
:100230009382822503A382008323C306137585005E
:10024000F3220530138503006780000013031000BC
:10025000B312A30073B3423467800000F32220344A
:1002600037030080B3F262001305000063840200CC
:08027000130515006780000072
:100278006300060293070002B387C740634CF0008F
:10028800130506FE1307000033D5A50093050700E4
:100298006780000033D7C5003355C500B395F50016
:1002A8003365B5006FF09FFE130101FD2322910213
:1002B80023286101232611022324810223202103FC
:1002C800232E3101232C4101232A510123267101B8
:1002D8002324810123229101130B05009384050037
:1002E800639C06381304060093090500175900009B
:1002F8001309892663F8C512B7070100938A050018
:100308006378F6109306F00FB3B6C60093963600DE
:10031800B357D6003309F90003470900B306D700DD
:10032800130700023307D740630C0700B394E400B7
:10033800B356DB003314E600B3EA9600B319EB00BA
:10034800135B040193050B0013850A00EF00405A64
:100358001309050093050B00931B040113850A007C
:10036800EF00805493DB0B0193040500930505000F
:1003780013850B00EF0080501319090113D70901E9
:100388003367E900138A0400637EA70033078700F8
:10039800138AF4FF636887006376A700138AE4FF73
:1003A80033078700B304A74093050B0013850400A7
:1003B800EF0000541309050093050B001385040092
:1003C800EF00804E939909019304050093050500F9
:1003D8001319090113850B0093D90901EF00004A8D
:1003E800B36939011386040063FCA900B309340119
:1003F8001386F4FF63E6890063F4A9001386E4FF1B
:1004080093170A01B3E7C700130A00006F0000132F
:10041800B707000193060001E36CF6EE930680012E
:100428006FF01FEF138A0600631A06009305000099
:1004380013051000EF00404713040500B70701003B
:10044800637CF4129307F00F63F48700130A8000AB
:10045800B35744013309F900834609001306000223
:10046800B38646013306D64063120612B38484402D
:10047800130A1000135B040193050B001385040095
:10048800EF0000471309050093050B0013850400CE
:10049800931B0401EF00404193DB0B01930405001B
:1004A8009305050013850B00EF00403D1319090162
:1004B80013D709013367E900938A0400637EA70014
:1004C80033078700938AF4FF636887006376A70081
:1004D800938AE4FF33078700B304A74093050B0012
:1004E80013850400EF00C0401309050093050B00B5
:1004F80013850400EF00403B93990901930405001C
:10050800930505001319090113850B0093D90901F7
:10051800EF00C036B36939011386040063FCA900F3
:10052800B30934011386F4FF63E6890063F4A90074
:100538001386E4FF93970A01B3E7C7001385070002
:1005480093050A008320C102032481028324410207
:10055800032901028329C101032A8101832A410158
:10056800032B0101832BC100032C8100832C410044
:100578001301010367800000B7070001130A000197
:10058800E368F4EC130A80016FF09FEC3314C400A5
:1005980033DAD400B319CB00B356DB00135B040184
:1005A800B394C40093050B0013050A00B3EA960040
:1005B800EF0000341309050093050B0013050A002A
:1005C800931B0401EF00402E93DB0B0193040500FD
:1005D8009305050013850B00EF00402A1319090144
:1005E80013D70A013367E900138A0400637EA70062
:1005F80033078700138AF4FF636887006376A700D0
:10060800138AE4FF33078700B304A74093050B0060
:1006180013850400EF00C02D1309050093050B0096
:1006280013850400EF004028930405009305050096
:1006380013850B00EF00802493960A011319090112
:1006480093D60601B367D9001387040063FEA70099
:10065800B38787001387F4FF63E8870063F6A70072
:100668001387E4FFB3878700131A0A01B384A740EE
:10067800336AEA006FF01FE063ECD51EB70701008C
:1006880063F4F6049305F00F33B5D5001315350060
:1006980033D7A60097570000938707ECB387E70086
:1006A80083C50700130A0002B385A500330ABA40C0
:1006B80063160A0293071000E3E296E83336CB008C
:1006C800934716006FF09FE7B70700011305000175
:1006D800E3E0F6FC130580016FF09FFBB35AB60008
:1006E800B3964601B3EADA0033D9B400B3974401AC
:1006F800B355BB0093DB0A01B3E4F5001305090009
:1007080093850B00B3194601EF00801E1304050002
:1007180093850B0013050900139C0A01EF00C0180C
:10072800135C0C01130905009305050013050C0063
:10073800EF00C0141314040113D704013367E40055
:10074800930C0900637EA70033075701930CF9FF48
:10075800636857016376A700930CE9FF33075701D5
:100768003309A74093850B0013050900EF004018D3
:100778001304050093850B0013050900EF00C01250
:10078800130905009305050013050C00EF00000F81
:10079800939704011314040193D707013367F400F6
:1007A80013060900637EA700330757011306F9FFF4
:1007B800636857016376A7001306E9FF33075701FB
:1007C80093970C01370E0100B3E7C7001308FEFF2B
:1007D80033F3070133F809013307A74093DE070114
:1007E80093D909011305030093050800EF000009D8
:1007F800930805009385090013050300EF0000081E
:10080800130305009305080013850E00EF00000789
:10081800130805009385090013850E00EF000006F4
:1008280093D6080133030301B386660063F4060117
:100838003305C50113D606013305A6006366A70272
:10084800E314A7BC370701001307F7FFB3F6E60068
:1008580093960601B3F8E80033164B01B3861601E8
:10086800130A0000E37CD6CC9387F7FF6FF0DFB95B
:10087800130A0000930700006FF05FCC1306050011
:100888001305000093F61500638406003305C500C0
:1008980093D5150013161600E39605FE6780000031
:1008A8006340050663C60506138605009305050023
:1008B8001305F0FF630C060293061000637AB60076
:1008C8006358C0001316160093961600E36AB6FE26
:1008D8001305000063E6C500B385C5403365D50040
:1008E80093D6160013561600E39606FE678000009E
:1008F80093820000EFF05FFB13850500678002001C
:100908003305A04063D80500B305B0406FF0DFF9A8
:10091800B305B04093820000EFF01FF93305A04003
:10092800678002009382000063CA0500634C0500DB
:10093800EFF09FF71385050067800200B305B0400C
:10094800E35805FE3305A040EFF01FF63305B0402D
:100958006780020067800000130101FC232C8102DC
:100968002326310337640080B7690080232A910267
:100978002328210313064000930500001385491519
:1009880013044416376900809304010123244103AA
:100998002322510323206103232E11021309094B3B
:1009A800EF308070930A041C138A0400371B008000
:1009B80093050900130504002322010023200100E8
:1009C80093081000130800009307000013070000A5
:1009D8009306CBA413060020EF3090532320AA00DF
:1009E8001304040713090920130A4A00E31254FDEB
:1009F800130440009305F0FF138549151304F4FF11
:100A0800EF305005E31804FE1384040103A5040025
:100A180093844400EF30106AE39A84FE8320C10374
:100A28000324810383244103032901038329C10289
:100A3800032A8102832A4102032B010213010104C4
:100A48006780000037650080130101F893051000E6
:100A58001305850B232E1106232C8106232A9106C4
:100A6800232821072326310723244107232251075E
:100A780023206107EF405006B707008093871700CF
:100A88003375F500635805001305F5FF1365E5FF99
:100A980013051500B7670080938787011315250094
:100AA8003385A700032A05001306000493050000F8
:100AB80013050102EF1090089309A000930A01049E
:100AC800130B50009304010013890400130401025E
:100AD800930504009306800C1306400013050A00D2
:100AE800EF1090742320A90013048400130949000F
:100AF800E31054FF9306800C1306000193850A0047
:100B080013050A00EF1050722328A10013040000F7
:100B180083A70400639A07001315340093070102A2
:100B28003385A700EF204022130414009384440067
:100B3800E31064FF9389F9FFE39609F837650080AD
:100B480013054515EF30C0628320C10703248107D0
:100B580083244107032901078329C106032A810643
:100B6800832A4106032B0106130101086780000050
:100B7800B7650080375500809385C5FD1305456727
:100B88006F10D00D130101FF2326110023248100CB
:100B9800930760006304F502EF30500A630405020E
:100BA800EF30D00963160504B765008093858593F7
:100BB800376500801305C594EF10001BEF10C021A6
:100BC8006FF0DFFFEF309008E31C05FC376400800E
:100BD8001304444883258400376500801305C596AF
:100BE800EF10801803258400EF30D04C6FF01FFD04
:100BF800B7650080938545936FF09FFB130101FB58
:100C080023248104232291042326110493076000DE
:100C1800930405001384050063E0A70E375700808E
:100C28009317250013078768B387E70083A7070092
:100C380067800700375500801305857BEF10C012C9
:100C4800EF30C04583274404832804010328C400E7
:100C58002328F10283270404032744008326040081
:100C68002326F1028327C403032684049305050081
:100C78002324F10283278403376500801305C58385
:100C88002322F102832744032320F102832704034C
:100C9800232EF1008327C402232CF100832784022A
:100CA800232AF100832744022328F1008327040222
:100CB8002326F1008327C4012324F100832784011C
:100CC8002322F100832744012320F1008327840095
:100CD800EF1080099305040013850400EFF09FEAE4
:100CE800375500801305057E6FF05FF53755008096
:100CF8001305C57F6FF09FF4376500809385040066
:100D080013058581EF1040066FF09FF3130101FF73
:100D180023248100232611001304050073262034A0
:100D280013161600135616009307500063E8C702FF
:100D380037570080931726001307476AB307F70051
:100D480083A50700375500801305456CEF10C001D7
:100D58009305040013050000EFF05FEAB755008023
:100D68009385C56B6FF01FFE130101FF2326110049
:100D7800F3252034376500809395150093D5150029
:100D880013054599EF00507EB75500809385056E91
:100D980013054000EFF09FE6B76700809387C70B05
:100DA80003A70700630C070003A3070023A007009D
:100DB800B767008003A5070C670003006780000081
:100DC800130101FF23261100EF109024EF10C00239
:100DD800EF10D02A176100001301416DB71200000F
:100DE8009382028033015100EFF09FFD6F001011D4
:100DF800130101FD232481022322910223202103D0
:100E0800232E3101232C4101232A5101232861017A
:100E180023267101138B0700232611022324810145
:100E28009307F00093040500138405009309060056
:100E3800138A0600930B0700930A08001389080019
:100E4800639AF808B72700809387077E639AF608A5
:100E58008326010393050900138504001306400047
:100E6800EF30006B938509FBB305B400B72700008A
:100E780023AE040423A0040693F505FF938707888F
:100E880023A6F504B71700808320C102032481023A
:100E9800938747DF23A4450323A6750323A8650387
:100EA80023AA550323A4F50423A4B40203290102A9
:100EB800832441028329C101032A8101832A410134
:100EC800032B0101832BC100032C810013010103B3
:100ED80067800000938608019307E001E3FAD7F6DC
:100EE800376C0080B7650080376500801306CC9B9F
:100EF800930680019385C59D130585A6EF00D066EE
:100F08003765008093050900930600FF1306E0008B
:100F1800130585A8EF005065930580011305CC9B48
:100F2800EF0050686FF0DFF293971500B387B700B2
:100F3800139727008327C500B387E7000307B50089
:100F48006354B70083A707001357F6411377F701D7
:100F58003307C7001357574013172700B387E70015
:100F680023A0F6001375F60167800000130101FE47
:100F78009306C100232E1100EFF01FFB0327C100C9
:100F8800930710003395A700832707008320C1012A
:100F9800B3E7A7002320F7001301010267800000D0
:100FA800130101FE9306C100232E1100EFF0DFF7B5
:100FB8000327C100930710003395A7008327070074
:100FC8008320C1011345F5FF33F5A7002320A700AF
:100FD8001301010267800000130101FE232A91001A
:100FE80083244500232C8100130405000355850044
:100FF800938504002328210123263101232441015C
:101008002322510123206101232E1100EFF01F87B5
:1010180083290400834AA4009307F0FF130A0500FC
:10102800B389A900A305F40013090000130BF0010C
:10103800634C5903930400008357840063CCF4087D
:101048008320C10103248101832441010329010173
:101058008329C100032A8100832A4100032B010050
:1010680013010102678000009385040013050A003C
:10107800EFF09F83131719003307270193172700F1
:101088000327C4003307F700930747002322F7001C
:101098002324F700634EAB00A305240193D4240056
:1010A8009384340093F4C4FF130919006FF05FF8B8
:1010B8001305F5019357F54193F7F701B387A70097
:1010C80093D757409397270023203701B389F90016
:1010D8006FF0DFFC8325440013850400EFF00FFA5E
:1010E8008327040013860400930500003385A700B6
:1010F8008327C40093841400138747002320E50046
:1011080003A787002322E50003A787002320A70061
:1011180023A4A70013050400EFF05FE56FF0DFF1EB
:10112800130101FA232C810423225105232E1104D3
:10113800232A910423282105232631052324410548
:1011480023206105232E7103232C8103232A910375
:101158002328A1032326B10313040106034EA50087
:101168009308000093172E009387F70093F7077FE3
:101178003301F14083274500930A010013830A00D5
:101188009387370093F7C7FF23A0FA00138BF8FF64
:1011980063D4C803638C08000328C3FF13582800CE
:1011A800130838001378C8FF2320030113034300F2
:1011B8000328C3FF637AB8049305F0FF631ABB04DE
:1011C80023200700130540FF130104FA8320C105FB
:1011D8000324810583244105032901058329C104CA
:1011E800032A8104832A4104032B0104832BC103AE
:1011F800032C8103832C4103032D0103832DC1029A
:101208001301010667800000938818006FF01FF82B
:10121800834505011309000093F51500638805004F
:10122800130980007339093013798900232AE4FAF5
:1012380013171B00232CD4FA330767018326C50034
:1012480013172700130747003387E600232EC4FA35
:1012580093040500130A0B009306F0FF8329070087
:101268006306371913172A0083A64900B38CEA00CE
:1012780003A7090083A50C00130D800023A0E60036
:101288002322D70023A0090023A2090003A50400F4
:101298003385A940EFF0CFE01306050093050A0057
:1012A80013850400EFF0DFCF130A1A009306FAFF44
:1012B80063CA660503C704011377170063040700B0
:1012C80073290930832744FB130540FF23A0370106
:1012D800E38C09EE8327C4FB03A5040023A0670160
:1012E80093172B00B38AFA0083A50A003385A94017
:1012F800EFF00FDB832784FB23A0A7001305000072
:101308006FF09FEC03A5040083A50C00930B10005D
:101318003385A940EFF0CFD893181A00B388480155
:10132800931D25009398280083A64C0093850B00F5
:10133800232614FB138506002328D4FAEFF00FD4D4
:10134800338CA9003386BB0193050A00138504007A
:10135800EFF0DFC1832604FB03A6040083A5440045
:101368009386F6FF03D58400B306DC00B386C64037
:101378002328D4FAEFF08FD0832604FB8328C4FAFD
:1013880063F4A60283A6C400B3861601138646003A
:101398002320CC0003A686002322CC0003A68600C7
:1013A8002320860123A48601938B1B00930740000A
:1013B800E39CFBF683C6040193F61600639A0600C5
:1013C80013090000130A1A00938C4C006FF01FEEEB
:1013D8007329093083C6040193F61600E38206FEDA
:1013E80073390D30137989006FF0DFFD130AFAFFA6
:1013F800138749FFE314DAE6930900006FF09FEBC7
:10140800130101FA232C810423244105232A910383
:10141800232E1104232A910423282105232631058C
:101428002322510523206105232E7103232C8103D8
:101438002328A1032326B103130401060347A500AB
:10144800930C0500131727001307F7001377077F7E
:101458003301E14003274500130A010093060A00FF
:10146800130737001377C7FF2320EA00130510007E
:101478009386460063F0A50C03C70C011389050089
:101488009309060013771700930400006308070008
:1014980093048000F3B4043093F48400376B008025
:1014A8006358090AB7640080B76500803765008013
:1014B8001386C4AB9306000C938545B2130585A625
:1014C800EF00900A37650080130505AFEF00D009DB
:1014D8001385C4AB9305000CEF00D00C9304F0FF08
:1014E80083C70C0193F717006386070093F4840001
:1014F800F3A40430130104FA8320C10503248105F1
:1015080083244105032901058329C104032A810491
:10151800832A4104032B0104832BC103032C810379
:10152800832C4103032D0103832DC10213010106FE
:101538006780000003A7C6FF13051500135727008F
:10154800130737001377C7FF23A0E6006FF05FF299
:10155800131729003307EA00832A070003AC0C009D
:101568001385090093850A00EFF04FB1938BFAFFBA
:10157800330D7501330CAC0083A54C0003D58C00EA
:10158800EFF0CFAF636CAD02B7670080938507AD0E
:10159800B7670080138587A69306400A1306CBAB6E
:1015A800EF00807CB76700801385C7AEEF00C07B73
:1015B8009305400A1305CBABEF00C07E13860900E4
:1015C8009305090013850C00EFF05F9A13171900B3
:1015D800330727019316270003A7CC003307D7004A
:1015E800930647002320DC00832687002322DC00A3
:1015F8008326870023A086012324870103C70C01C3
:1016080013771700631C070C93040000E30A09EC26
:101618009306C4FB138609009305090013850C0083
:10162800EFF09F908326C4FB1357F54113773700DB
:101638003307A70003A506001377C7FF9307F00039
:101648003357E5001377F700E31CF7E8130D0000A4
:1016580093FDC9FF3386AD011305060093850A0083
:101668002324C4FAEFF08FA133077501130C05008A
:1016780083A54C0003D58C002326E4FAEFF00FA0D5
:101688000327C4FA032684FA6378A702930509009E
:1016980013850C00EFF0DF9003A70C00330C8701D3
:1016A80003264C0003270C002320E6002322C70052
:1016B80023200C0023220C00130D1D00930740006B
:1016C800E31AFDF813D6F94113763600B30936014B
:1016D8001309F9FF93D929406FF09FDCF3A4043074
:1016E80003C70C0113771700E30007F29307800084
:1016F800F3B4073093F484006FF05FF1130101FF36
:101708009307050013850500930506001386060058
:1017180023261100E7800700EF205018EF308019CA
:101728001305000067800000130101FF23248100D6
:1017380013040500130550042326110023229100E9
:1017480093840500E7000400938504001305200531
:10175800E700040013030400032481008320C10070
:10176800938504008324410013052005130101011A
:101778006700030083A705009387170023A0F500DF
:10178800B767008003A3470067000300130101FC4B
:10179800232C8102232631032324410323206103C0
:1017A8002328A101232E1102232A91022328210391
:1017B80023225103232E7101232C8101232A910115
:1017C8002326B10193090500138A0500130D0600AD
:1017D800138B0600130410006354E0001304070081
:1017E80093071000930C00026314FB00930C000392
:1017F800B7D49A3B13091000930AA000130C0000F9
:101808009384F49F930D2000938B140063140C00B1
:1018180063F2A40B93850B0013050D00EFF0CF883E
:1018280093050A0013050503E78009001309190049
:10183800130C100093850B0013050D00EFF04F8B70
:10184800130D05009305A00013850400EFF0CF8564
:10185800938AFAFF9307100093040500E396FAFAB7
:1018680093050A0013050D03E7800900930730006C
:10187800330424416306FB068320C1030324810348
:1018880083244103032901038329C102032A810216
:10189800832A4102032B0102832BC101032C8101FE
:1018A800832C4101032D0101832DC1001301010483
:1018B80067800000E34054F9E3EE6DF793050A00F2
:1018C80013850C00E7800900130919006FF09FF6D3
:1018D80093050A0013050002E78009001304F4FFCA
:1018E800E34880FE6FF05FF9B767008023A2A70086
:1018F80067800000130101FB232481042322910443
:1019080023202105232E3103232C4103232A5103AD
:10191800232291032320A103232EB101232611049E
:10192800232861032326710323248103130405005C
:1019380093840500930A0600138D0600130A00001D
:101948001309F0FF93090000930C0000B70D008005
:1019580003C50A00631005048320C104032481041D
:1019680083244104032901048329C103032A810331
:10197800832A4103032B0103832BC102032C810219
:10198800832C4102032D0102832DC101130101059E
:1019980067800000639E0C0093065002630CD536E6
:1019A80093850400E7000400938A1A006FF05FFA39
:1019B800930640066300D51263E2A60693069003D9
:1019C80063EAA602930610036374D50E9306D00249
:1019D800630CD534930700036300F50C130750021A
:1019E8006312E5029385040013055002E700040022
:1019F8006F000016930680056300D51C1307300698
:101A08006300E5309385040013055002E7000400E5
:101A18009385040003C50A006FF05FFD9306000775
:101A2800630CD51663E0A602930690066304D50AF4
:101A38009306C006630CD50893068006E306D5F620
:101A48006FF05FFC930650076308D51063EEA6029B
:101A580013073007E318E5FA032C0D00130B4D00AC
:101A6800930B0C0003C50B00631A0526930730007F
:101A78006398F900B38B8B41B30B794163487027A6
:101A8800130D0B006F00C00C930680076306D51278
:101A98009306A0076FF09FFA635E0900638A09281E
:101AA800130905FDE39209F0930920006FF0DFEFB9
:101AB800E34809FE931629003389260113191900F2
:101AC800130909FD330925016FF0DFFD130A1A0018
:101AD8006FF09FED63120A0403260D00130D4D00ED
:101AE80063500602938504001305D0022320C10029
:101AF800E7000400032601001309F9FF3306C0407C
:101B08001307090093860900938504001305040050
:101B1800EFF0DFC76F00C00313071000E30EEAFA07
:101B280093077D0013F787FF0326070083264700E6
:101B3800130D87003307B6013337C7003307D700C3
:101B4800E30007FA9385040013050400EFF0DFBDF6
:101B5800930C00006FF05FE563180A0003260D0080
:101B6800130D4D006FF0DFF913071000E308EAFECC
:101B780093077D0013F787FF130D870003260700DF
:101B880003274700E31007FCB707008093C7F7FF58
:101B9800E3F8C7F66FF01FFB9385040013050003F5
:101BA800E70004009385040013058007E70004009C
:101BB80013098000930910009306100063C2460BB6
:101BC80083270D0023240100130D4D002322F1006B
:101BD800130C0001930B000023200100930800015F
:101BE8000325410083258100138BF8FF13162B0072
:101BF80023261101EFE0CFE71375F50063180508F8
:101C08008327010093060003639807008328C10017
:101C1800930710006396F8083385A600131585010D
:101C28009385040013558541E7000400938B1B003E
:101C380063180B0493063000930C0000E396D9D682
:101C480013171900B30B7741E35470F1938504001F
:101C580013050002E7000400938BFBFF6FF0DFFE23
:101C680093077D0093F687FF83A70600138D8600F0
:101C78002322F10083A746002324F1006FF05FF5CB
:101C88002320910193080B006FF09FF593079000B4
:101C980093067005E3E2A7F8930600036FF0DFF7F9
:101CA8009307FCFF2326F100634C8901930710007A
:101CB800639CF9009385040013050003E700040002
:101CC800032CC1006FF01FFC93072000E39AF9FE74
:101CD80093850400130500026FF05FFE93850400EE
:101CE800938B1B00E70004006FF0DFD79385040097
:101CF80013050002E7000400938BFBFF6FF01FD869
:101D080003250D0093850400130B4D00E700040024
:101D18006FF01FD7130A00001309F0FF93090000A2
:101D2800930C10006FF05FC8930930006FF0DFC7A5
:101D3800930910006FF05FC7130101FE1306050039
:101D480037150080938605001305C5779305C100F4
:101D5800232E110023260100EFF0DFB98320C101F3
:101D68001301010267800000130101FC2322B10264
:101D780093054102232E11002324C1022326D102F8
:101D88002328E102232AF102232C0103232E110325
:101D98002326B100EFF05FFA8320C101130101048B
:101DA80067800000B765008037650080130101FF78
:101DB800938505B0130545B11306E00123261100EC
:101DC800EFF09FFAB75500809385056E1305600004
:101DD800EFE0DFE26780000093078000F3A7073099
:101DE8007300501067800000930710003395A70018
:101DF800732545306780000093078000F3B70730EC
:101E0800735040307350403467800000130101FF65
:101E180023248100232291003764008023261100A7
:101E28009307A000930405001304440C631CF500F9
:101E3800032504009305D0008327450083A74700A6
:101E4800E78007000325040093F5F40F8327450076
:101E580083A74700E78007008320C100032481008F
:101E680013850400832441001301010167800000E9
:101E7800130101FF2324810037240080130544E166
:101E880023261100EF000054130544E103248100C8
:101E98008320C100130101016FF01FA53765008081
:101EA800130101FF130505B223261100EF001009E5
:101EB800B767008023A2A70CEFF09FFB8320C10027
:101EC800130500001301010167800000B70710F037
:101ED80003A747F403A507F483A547F4E39AE5FEAF
:101EE80067800000130101FE232C8100232E1100BE
:101EF800232A91002328210123263101232441018B
:101F080023225101130480007334043037690080A0
:101F18001305890C13748400EF204061631E0502C9
:101F2800B7640080B7650080376500809385C5B4C5
:101F38009306E004138644B3130585A6EFF0DFE2A9
:101F480037650080130545B6EFF01FE29305E004FE
:101F5800138544B3EFF01FE51305890CB7640080BF
:101F6800EF2040629384840AEFF05FF683A90400AF
:101F780083AA44009307050033053541B3B7A7008A
:101F8800B385554137D601001306064C9306000069
:101F9800B385F540EFE04FB1130A0500B7D501004E
:101FA8009385054C13050A00EFE05F8DB3093501F1
:101FB80033B5A9003305550123A2A4001305890CE4
:101FC80023A03401EF200059631E0502B764008086
:101FD800B7650080376500809385C5B793061006FE
:101FE800138644B3130585A6EFF01FD83765008024
:101FF800130545B9EFF05FD793051006138544B371
:10200800EFF05FDA73240430032481018320C101D7
:1020180083244101032901018329C100832A410046
:1020280013050A00032A8100130101026F20D074EE
:10203800130101FF23261100EFF05FE9B7D7010074
:102048009387074C370710F0B307F5009306F0FFA6
:102058002326D7F433B5A7003305B5002324F7F4B6
:102068002326A7F413057000EFF01FD88320C100C2
:102078001305000013010101678000006392051A2F
:10208800130101FE232E1100232C8100232A910025
:102098002328210123263101232441012322510130
:1020A800232061019307F0FF6316F50037950000C0
:1020B8001305E5BCB79700001304F5FF9387E7BC49
:1020C80063DA871413840700130980007339093011
:1020D800B76A008013858A0C13798900EF200045C0
:1020E800631E0502B7640080B7650080376500800D
:1020F8009385C5B49306E004138644B3130585A6F7
:10210800EFF09FC637650080130545B6EFF0DFC5D1
:102118009305E004138544B3EFF0DFC813858A0CF8
:10212800EF204046EFF09FDAB76700809387870A71
:10213800B7D4010083A90700130A05009385044C4E
:102148001305040003AB4700EFE04FF39387F44B0C
:10215800B38737413305F5009385044C3305AA004E
:10216800EFE08FF49385044CEFE04FF1338A494157
:10217800330AAA009307703E63C647019384044C50
:1021880033059500B70710F0B30935011307F0FFC1
:1021980023A6E7F433B5A9003305650123A437F571
:1021A80023A6A7F413858A0CEF20C03A631E050204
:1021B80037640080B7650080376500809385C5B7B0
:1021C80093061006130644B3130585A6EFF0DFB98E
:1021D80037650080130545B9EFF01FB99305100660
:1021E800130544B3EFF01FBC732909308320C101E4
:1021F8000324810183244101032901018329C100AA
:10220800032A8100832A4100032B010013010102E4
:1022180067800000E35A04EA130400006FF0DFEA65
:1022280067800000130101FF232481002326110089
:1022380023229100232021011304800073340430E9
:10224800B76400801385840C13748400EF20002E7B
:10225800631E050237690080B76500803765008016
:102268009385C5B49306E004130649B3130585A600
:10227800EFF09FAF37650080130545B6EFF0DFAE8E
:102288009305E004130549B3EFF0DFB11385840C1F
:10229800EF20402FEFF09FC3B767008083A7870A1E
:1022A800B7D501009385054C3305F540EFE0CFDF46
:1022B800130905001385840CEF20C029631E05024D
:1022C800B7640080B7650080376500809385C5B71F
:1022D80093061006138644B3130585A6EFF0DFA80E
:1022E80037650080130545B9EFF01FA89305100660
:1022F800138544B3EFF01FAB732404308320C1006F
:1023080003248100130509008324410003290100E7
:1023180013010101678000008347050003C705001A
:102328006394E700639607003385E7406780000001
:1023380013051500938515006FF01FFE93F6F50F32
:102348009307050013F737006314070493F5F50F97
:1023580013978500B365B70013970501B365B700F8
:102368003383C7001387070013083000B308E3401E
:10237800636A18031357260093152700B387B7001D
:102388003306B6403386C7006394C70267800000EF
:10239800E30E06FE93871700A38FD7FE1306F6FFFA
:1023A8006FF05FFA13074700232EB7FE6FF01FFC8C
:1023B80093871700A38FD7FE6FF01FFD1305F0FF5B
:1023C80067800000B767008023A4A700678000002B
:1023D800130101FE232C81008327850037640080C8
:1023E800232A91001304C400B7640080232E11002F
:1023F80023282101232631019384C40C930910005A
:10240800232004001309050023A03401E7800700F6
:102418008327490023203401E78007009307200021
:102428002320F4008327C900E780070093073000C2
:102438002320F4000324810123A004008320C10188
:1024480083244101032901018329C10037650080E4
:1024580013054532130101026F109051130101FA5F
:10246800232A9104B764008083A7040D232E110446
:10247800232C810423282105232631052324410503
:102488002322510523206105232E7103232C810368
:10249800232A91032328A1032326B10363C4070831
:1024A800376400801306100093090500138C05009B
:1024B8001305443293050000EF10103F3765008084
:1024C80093850900130505BFEFF01F8A376900805F
:1024D800130589C0B76A0080EFF01F899384040D43
:1024E800130A0000232E8100B77C0080376B008020
:1024F800372D0080B76D0080B76B0080938A8ABA49
:1025080083274C00639E07049385090063060A101D
:1025180037650080130585C7EFF01F859307100006
:1025280023A0F4008320C1050324810583244105E9
:10253800032901058329C104032A8104832A41044C
:10254800032B0104832BC103032C8103832C410338
:10255800032D0103832DC1021301010667800000CA
:1025680083250C00B7670080138507C5EFF0CFFF00
:102578002322010083270C0113070C0013060040D7
:1025880093E787009308F0FF1308000093068D3D3A
:102598002320F10093850CCB9307000013054B33E0
:1025A800EF2000178327C1019305F0FF13854732F9
:1025B800EF10504A9387CD0C13054B3303A4070043
:1025C800EF20402FB76700809387C70C03A7070049
:1025D800130414009307E0FF1334140003260C00BF
:1025E8006314F702B7650080938545C61385CBC68B
:1025F800EFF08FF7130589C0EFF00FF7330A8A0061
:10260800130C4C016FF0DFEF93172400B387FA0027
:1026180083A507006FF09FFD37650080130505C986
:10262800EFF08FF483A70400B337F0006FF05FEF8B
:10263800B767008083A7070D130101FF23248100DA
:10264800376500802326110037640080130585C094
:1026580063820702EFF04FF1B7650080938545BBB1
:102668001305C4BB032481008320C10013010101A9
:102678006FF08FEFEFF04FEFB7650080938545BDA2
:102688006FF01FFE130101FF23261100EFE04FCE6C
:102698008320C100130101016FF09FF9130101FFAD
:1026A800232601008327C100938717002326F10002
:1026B800B70701F023A0B7001301010167800000EC
:1026C8001305F0FF67800000130500006780000015
:1026D80013172500B767008013051500938707CCEB
:1026E80013152500130101FF3387E700B387A700FF
:1026F80023248100232291000324070083A40700D8
:1027080023261100636C94008320C10003248100F8
:10271800832441001301010167800000832704001E
:102728001305040083A74700E7800700630405003A
:10273800232204001304C4006FF0DFFC130101FF1F
:10274800B767008023229100B764008023248100AA
:1027580023261100138487022320210193878702EF
:1027680093848405631C94001309050013840700EF
:1027780063149402130400006F004004032744000C
:102788006308070003270400032707006308A7025C
:102798001304C4006FF01FFD8327440063960700ED
:1027A8001304C4006FF0DFFC83270400130509003D
:1027B80083A50700EFF05FB6E31405FE13050400D8
:1027C8008320C100032481008324410003290100E0
:1027D8001301010167800000130101FF2324810018
:1027E8002322910023261100130480009304200063
:1027F800F3370430EF20405A63C4A40013051000D7
:1028080093051000EF200067EFF00FDD6FF05FFE1B
:1028180037650080B76700801306850A9387074BE2
:102828003386C740930500001305850A6FF01FB172
:10283800130101FF1305200023261100EFF05FE9C3
:1028480037650080130545CDEFF00FD21305300032
:10285800EFF01FE8EF10107BEFF0DFE2B7670080C2
:102868009387474103C7C7001377E7FF2386E7002D
:102878008320C1001301010167800000130101F6E4
:10288800232C8108B787008037640080232631090C
:10289800938707CB9309444823A2F90093070101C2
:1028A800130600079305000013850700232E11085F
:1028B800232A910823282109EFF05FA813071000A5
:1028C80023A4A90013050000A30EE100EFF05FE0C8
:1028D80013051000EFF0DFDF93071010231EF1003F
:1028E800EF10C079B7670080938787D13769008078
:1028F8002322F100B736008093071000B7750080D7
:10290800930449412320F1001307000093070000B6
:10291800930800001308000093868683130600209E
:102928009385050B1305494123A09902EF105033F5
:1029380083C7D4001304444813F7B7FFA386E40001
:1029480093F7B701639A070083A78401639607008A
:1029580013054941EF009050B7670080938707D26D
:102968002322F1003765008093071000B726008006
:10297800B77500809304453A2320F1009308F000CE
:102988001308000093070000130700009386067ED3
:10299800130600209385052B1305453AEF10502C9C
:1029A80083C7D400232694001305800093F7B7FF4C
:1029B800A386F400B76700809387C749232CF400E7
:1029C800232EF4007335053013758500EFD05F852D
:1029D800130101FF23248100232291003764008022
:1029E800B764008023261100130484059384040926
:1029F800636E94008320C100032481008324410076
:102A080013050000130101016780000093074401CA
:102A180013050400232AF400232CF400EFE0CFDB95
:102A28001304C4016FF0DFFCB767008083A7474831
:102A3800130101FB2324810423229104232E310353
:102A4800232861032326110423202105232C410375
:102A5800232A51032326710323248103232291036C
:102A68002320A103232EB1019309050093840500B7
:102A7800130B06001384060063820716639406127C
:102A88001309000037650080130585053385A940C3
:102A9800B775DBB6938575DB13552540EFD01FDE80
:102AA80037FAFFFFB71A0000137CF50F930B50FF9E
:102AB800930C40FF130AFA0F938AFAFF130D800054
:102AC800938D4901138704009306C1001306810002
:102AD80093050B0013850900EFE08FE4631275037B
:102AE800138704009306C1001306810093050B00A9
:102AF80013850900EFE0CFE263147501130540FF69
:102B0800832781002382840193F7F70013978700B6
:102B180083A74400B3F74701B3E7E7000327C100E1
:102B2800B3F757011317C700B3E7E70023A2F40070
:102B3800630C0502630A04026318950373350D30AC
:102B48001306040093850D0013758500EF1080258A
:102B58009307F0FFE308F4F6EF2000683304A94078
:102B6800E35204F6130550FF8320C10403248104B3
:102B780083244104032901048329C103032A81030F
:102B8800832A4103032B0103832BC102032C8102F7
:102B9800832C4102032D0102832DC101130101057C
:102BA8006780000037690080B7650080376500805E
:102BB8009385C5D393069003130689D2130585A67A
:102BC800EFF08F9A376500801305C5AEEFF0CF9907
:102BD80093059003130589D2EFF0CF9CE35280EA66
:102BE800EF20805F130905009305A00013059400EA
:102BF800EFD01FCB330925016FF0DFE883470500CD
:102C0800130101FE03260500232C810013943700CD
:102C1800232821013304F440376900801314240069
:102C280093558600130589051356C60093F5F500DC
:102C380033058500232E1100232A91002326310114
:102C480023244101EFE0CFFB93058000F3B5053065
:102C5800B76400801385440D93F98500EF10100DBB
:102C680013098905631E0502376A0080B76500806D
:102C7800376500809385C5B49306E00413064AB30C
:102C8800130585A6EFF04F8E37650080130545B60E
:102C9800EFF08F8D9305E00413054AB3EFF08F90A2
:102CA8001385440DEF10100E130544013305A900D8
:102CB800EF10403663060502032481018320C10119
:102CC80003290101032A8100938509001385440D16
:102CD8008329C10083244101130101026F0040339D
:102CE8001385440DEF101007631E0502376400803A
:102CF800B7650080376500809385C5B793061006D1
:102D0800130644B3130585A6EFF00F8637650080D8
:102D1800130545B9EFF04F8593051006130544B325
:102D2800EFF04F88F3A509308320C1010324810106
:102D380083244101032901018329C100032A810059
:102D48001301010267800000130545006FF01FEBB7
:102D58008347D50093F7F70163980700032585019A
:102D68001335150067800000130500006780000018
:102D7800130101FF23261100EFF0CFCAB7670080C7
:102D880083A7070E8320C100376700803385A7001B
:102D9800232AA748930500001385070013010101A2
:102DA8006F20400D83270500130101FF23248100B4
:102DB80023261100232291001304050063980702BB
:102DC800B7640080B765008037650080938505E0AB
:102DD800130585A6930630181386C4DEEFE0DFF8E6
:102DE800930530181385C4DEEFE0DFFB03250400EC
:102DF8008320C100032481008324410013010101C1
:102E080067800000130101FE232C81002326310175
:102E180023244101232E1100232A91002328210174
:102E2800130A0500938905001304800073340430E5
:102E3800B76400801385840D13748400EF10006F4D
:102E4800631E050237690080B7650080376500801A
:102E58009385C5B49306E004130649B3130585A604
:102E6800EFE09FF037650080130545B6EFE0DFEF30
:102E78009305E004130549B3EFE0DFF21385840DF1
:102E8800EF104070B76700809305A00013059A0003
:102E980023AA0748EFD0DFA0B76700803769008012
:102EA8002320A90E23AE370DEFF09FEC1385840D78
:102EB800EF10406A631E0502B7640080B7650080A2
:102EC800376500809385C5B793061006138644B30B
:102ED800130585A6EFE05FE937650080130545B95E
:102EE800EFE09FE893051006138544B3EFE09FEBEE
:102EF800732404308320C101032481018324410108
:102F0800032901018329C100032A81001301010259
:102F180067800000130101FE232C81002328210172
:102F2800232E1100232A91002326310113090500BD
:102F38001304800073340430B76400801385840D53
:102F480013748400EF10805E631E0502B769008069
:102F5800B7650080376500809385C5B49306E004A3
:102F6800138649B3130585A6EFE01FE03765008097
:102F7800130545B6EFE05FDF9305E004138549B319
:102F8800EFE05FE21385840DEF10C05F1305890041
:102F9800EFF05FE193050900EF00002F8347D900A8
:102FA8001385840D93F7D7FFA306F900EF10805A15
:102FB800631E0502B7640080B7650080376500802E
:102FC8009385C5B793061006138644B3130585A6E3
:102FD800EFE09FD937650080130545B9EFE0DFD8EA
:102FE80093051006138544B3EFE0DFDB7324043048
:102FF8008320C10103248101232409008324410182
:10300800032901018329C10013010102678000001F
:10301800B767008083A74748130101FF2324810075
:10302800232611002322910013840500639E0704C0
:10303800EF104052631E0502B7640080B765008038
:10304800376500809385C5B793068007138644B318
:10305800130585A6EFE05FD137650080130545B9F4
:10306800EFE09FD093058007138544B3EFE09FD32B
:1030780013050400032481008320C1008324410038
:10308800130101016FD0CF99EF10C04C631E0502E8
:10309800B7640080B7650080376500809385C5B741
:1030A80093061006138644B3130585A6EFE0DFCB1D
:1030B80037650080130545B9EFE01FCB930510066F
:1030C800138544B3EFE01FCE1374840073240430D7
:1030D8008320C100032481008324410013010101DE
:1030E800678000003767008003274748631407009C
:1030F8006FD00F9393778500F3A7073067800000A0
:103108001305800073350530137585006FF09FFD3A
:10311800130101FE232C8100232E1100232A910084
:10312800232821012326310113048000733404303D
:10313800B76400801385840D13748400EF10003F7A
:10314800631E050237690080B76500803765008017
:103158009385C5B49306E004130649B3130585A601
:10316800EFE09FC037650080130545B6EFE0DFBF8D
:103178009305E004130549B3EFE0DFC21385840D1E
:1031880037690080EF1000408327494813094948F0
:10319800638E0702B7690080B765008037650080D5
:1031A800938545D893060010138689D6130585A6FE
:1031B800EFE09FBB376500801305C5AEEFE0DFBACF
:1031C80093050010138589D6EFE0DFBD83278900BA
:1031D80003C7F70093071000631EF702B769008062
:1031E800B7650080376500809385C5D993061010B0
:1031F800138689D6130585A6EFE01FB737650080CB
:103208001305C5AEEFE05FB693051010138589D698
:10321800EFE05FB9032789008347F7009387F7FF3B
:10322800A307F7001385840DEF10C032631E050253
:10323800B7640080B7650080376500809385C5B79F
:1032480093061006138644B3130585A6EFE0DFB195
:1032580037650080130545B9EFE01FB193051006E7
:10326800138544B3EFE01FB4732404308320C101F5
:103278000324810183244101032901018329C10019
:103288001301010267800000B767008083A7470227
:10329800130101FF2324810023261100232291001A
:1032A800138405006398F502B7640080B765008051
:1032B80037650080938585E3130585A69306C028A6
:1032C8001386C4DEEFE05FAA9305C0281385C4DE29
:1032D800EFE05FAD03274400832704008320C1008B
:1032E800832441002320F70023A2E70023200400C1
:1032F80023220400032481001301010167800000D8
:10330800130101FE232C8100232A9100232E110092
:10331800232821012326310113040500930480008A
:10332800F3B40430376900801305890D93F48400E1
:10333800EF10C01F631E0502B7690080B7650080E3
:10334800376500809385C5B49306E004138649B3B6
:10335800130585A6EFE05FA137650080130545B624
:10336800EFE09FA09305E004138549B3EFE09FA326
:103378001305890DEF10002113058400EFF09FA2BB
:1033880093050400EFF05FF08347D4001305890D1F
:1033980093F7D7FFA306F400EF10C01B631E0502C6
:1033A80037690080B7650080376500809385C5B7A9
:1033B80093061006130649B3130585A6EFE0DF9AB6
:1033C80037650080130545B9EFE01F9A930510068D
:1033D800130549B3EFE01F9DF3A404302324040030
:1033E80013058401032481018320C1018324410141
:1033F800032901018329C100130101026F10500A3A
:10340800832705006314F500930700001385070060
:1034180067800000130101FF2324810037640080C6
:10342800232021011309050013054448130545020B
:103438002322910023261100EFF09FFC1304444837
:1034480093040500631405008324C400631E090661
:1034580083278400639E070237690080B765008070
:1034680037650080938585E19306F0071306C9DE6A
:10347800130585A6EFE05F8F376500801305C5AE9D
:10348800EFE09F8E9305F0071305C9DEEFE09F91EB
:103498008327840003C7D7001377F7016316070251
:1034A80083D6E7001307F0076370D7022320F402DE
:1034B8008320C100032481008324410003290100E3
:1034C800130101016780000083278400638497004B
:1034D800EFF01F8A232094026FF09FFD130101FE75
:1034E80023282101376900809307494883A787006B
:1034F800232E1100232C810083C7F700232A910073
:103508002326310113094948639E07023764008066
:10351800B765008037650080938545DC93061022E7
:103528001306C4DE130585A6EFE01F843765008007
:103538001305C5AEEFE05F83930510221305C4DEC3
:10354800EFE05F8683270900638E070237640080F7
:10355800B765008037650080938545D8930620229B
:103568001306C4DE130585A6EFE01F8037650080CB
:103578001305C5AEEFE04FFF930520221305C4DE07
:10358800EFE05F821304800073340430B764008076
:103598001385840D13748400EF005079631E0502AF
:1035A800B7690080B7650080376500809385C5B42A
:1035B8009306E004138649B3130585A6EFE0CFFA16
:1035C80037650080130545B6EFE00FFA9305E00470
:1035D800138549B3EFE00FFD1385840DEF00907A52
:1035E80003278900130510008347F7009387170006
:1035F800A307F700EFF01FE21385840DEF00907525
:10360800631E0502B7640080B765008037650080D7
:103618009385C5B793061006138644B3130585A68C
:10362800EFE08FF437650080130545B9EFE0CFF37D
:1036380093051006138544B3EFE0CFF673240430E6
:10364800032481018320C10183244101032901014D
:103658008329C100130101026FF09FAA130101FE23
:10366800232C8100232A9100232E110023282101D5
:10367800232631011304050093048000F3B40430B9
:10368800376900801305890D93F48400EF00106AF0
:10369800631E0502B7690080B76500803765008042
:1036A8009385C5B49306E004138649B3130585A62C
:1036B800EFE08FEB37650080130545B6EFE0CFEA02
:1036C8009305E004138549B3EFE0CFED1305890DA9
:1036D800EF00506BB767008083A747026318F402B6
:1036E800B7690080B765008037650080938585E3FA
:1036F800130585A6930660271386C9DEEFE0CFE69B
:10370800930560271385C9DEEFE0CFE937670080AE
:103718009306474883A7460203A68602B766008039
:103728009386864A130747486386D70A6384070A3D
:103738008305E4000385E70063D8A50803A74700CD
:103748002320F4002322E4002320870023A28700FB
:103758008347D4001305000093E70704A306F40089
:10376800EFF05FCB1305890DEF00D05E631E0502F5
:1037780037640080B7650080376500809385C5B7DA
:1037880093061006130644B3130585A6EFE0CFDDB4
:1037980037650080130545B9EFE00FDD9305100686
:1037A800130544B3EFE00FE0F3A404308320C10114
:1037B8000324810183244101032901018329C100D4
:1037C80013010102678000006306F60083A7070063
:1037D800E39207F62322C400832787022320D4001C
:1037E80023A08700232487026FF09FF6832705FF15
:1037F800130101FE232C810023263101232E110001
:10380800232A9100232821012324410113040500C0
:10381800930985FE6384070C93048000F3B4043095
:10382800376900801305890D93F48400EF00105068
:10383800631E0502376A0080B7650080376500801F
:103848009385C5B49306E00413064AB3130585A609
:10385800EFE08FD137650080130545B6EFE0CFD094
:103868009305E00413054AB3EFE0CFD31305890DA0
:10387800EF005051130504FFEFF0CFD293850900F4
:10388800EFF09FA0834754FF1305890D93F7D7FFE7
:10389800A30AF4FEEF00104C631E0502376900808E
:1038A800B7650080376500809385C5B79306100615
:1038B800130649B3130585A6EFE00FCB37650080E3
:1038C800130545B9EFE04FCA93051006130549B330
:1038D800EFE04FCDF3A40430232804FE834754FFC0
:1038E8001385090093F7B7FEA30AF4FEEFF04FC65D
:1038F80063040502032481018320C101832441015B
:1039080003290101032A8100138509008329C100C5
:10391800130101026FF09FD48320C10103248101A8
:1039280083244101032901018329C100032A81005D
:103938001301010267800000130101FE232C81009E
:1039480023282101232E1100232A91002326310147
:103958002324410123225101130405001309800087
:1039680073390930B76900801385890D1379890087
:10397800EF00D03B631E0502B7640080B765008086
:10398800376500809385C5B49306E004138644B375
:10399800130585A6EFE04FBD37650080130545B6D2
:1039A800EFE08FBC9305E004138544B3EFE08FBFCD
:1039B8001385890DEF00103DB764008013854448D6
:1039C8009305040013054502EFF01F8CB7670080CC
:1039D80083A74702376A008093844448130A8A4AB7
:1039E8006318F402B76A0080B76500803765008005
:1039F800938585E3130585A6930660271386CADE9B
:103A0800EFE08FB6930560271385CADEEFE08FB924
:103A180083A7440203A78402638E470B638C070ABB
:103A28008306E4000386E70063D0C60A03A74700BD
:103A38002320F4002322E4002320870023A2870008
:103A48008347D40003A5840093E707043305854022
:103A580013351500A306F400EFF0DF9B1385890DDD
:103A6800EF00502F631E050237640080B7650080A1
:103A7800376500809385C5B793061006130644B3CF
:103A8800130585A6EFE04FAE37650080130545B9ED
:103A9800EFE08FAD93051006130544B3EFE08FB048
:103AA800732909308320C101032481018324410142
:103AB800032901018329C100032A8100832A4100C7
:103AC80013010102678000006386E70083A70700EF
:103AD800E39A07F42322E40083A784022320440105
:103AE80023A0870023A484026FF09FF5B7670080A6
:103AF80083A7070E63860706B76700809387474842
:103B080003A787009306F0070356E70063EAC60495
:103B1800B76600800306E70083A6C60D6342D60495
:103B2800B766008083A64602630CD7028326870106
:103B38006398060283A607016340D502130101FFBB
:103B48001305070023261100EFF01FDF8320C100B3
:103B5800130101016FF0CFA1B386A64023A8D700B7
:103B680067800000130101FE232C81002326310108
:103B7800232E1100232A91002328210193090500EF
:103B88001304800073340430B76400801385840DF7
:103B980013748400EF009019631E050237690080D2
:103BA800B7650080376500809385C5B49306E00447
:103BB800130649B3130585A6EFE00F9B3765008010
:103BC800130545B6EFE04F9A9305E004130549B392
:103BD800EFE04F9D1385840DEF00D01A83C7D900FD
:103BE800376900801309494893F70704638E070073
:103BF8009385090013054902EFF00FE983C7D9003F
:103C080093F7F7FBA386F9000325890033053541AF
:103C180013351500EFF01F801385840DEF00901306
:103C2800631E0502B7640080B765008037650080B1
:103C38009385C5B793061006138644B3130585A666
:103C4800EFE08F9237650080130545B9EFE0CF911B
:103C580093051006138544B3EFE0CF947324043022
:103C68008320C10103248101832441010329010127
:103C78008329C1001301010267800000130101FEBE
:103C8800232C8100232A91001304050023282101F5
:103C9800232E110023263101938405001309060001
:103CA800EFF05FEC8347D40093E72700A306F40006
:103CB80063860406B767008083A74702232494001D
:103CC8006318F402B7690080B76500803765008023
:103CD800938585E3130585A6930660271386C9DEB9
:103CE800EFE08F88930560271385C9DEEFE08F8B9F
:103CF80083A70400638CF406638A07060307E400BD
:103D08008386E700635CD70403A747002320F400F9
:103D18002322E4002320870023A287009307F0FFD3
:103D28006304F9069305A00013059900EFC05FB777
:103D38001306150013058401032481018320C101A2
:103D480083244101032901018329C100B73500807B
:103D58009385457F130101026F00D05183A644006B
:103D68006386D70083A70700E39C07F883A744006E
:103D7800232094002322F40083A7440023A0870073
:103D880023A284006FF09FF98320C10103248101DD
:103D980083244101032901018329C1001301010280
:103DA80067800000130101FFB767008023248100AA
:103DB8001304050003A5C74823261100EFF01FECE4
:103DC80013050400032481008320C10013010101AD
:103DD8006FC00FC5130101FFB7670080232481005E
:103DE8001304050003A5C748232291009384050006
:103DF800930506001386060023261100EFF01FE83E
:103E080013050400EF000075631E05023764008087
:103E1800B7650080376500809385C5B7930680072E
:103E2800130644B3130585A6EFD01FF43765008049
:103E3800130545B9EFD05FF393058007130544B325
:103E4800EFD05FF6032481008320C10013850400AE
:103E580083244100130101016FC08FBC130101FECF
:103E68002328210123263101232E1100232C810030
:103E7800232A91009309050013098000733909303A
:103E8800B76400801385840D13798900EF00006AF8
:103E9800631E050237640080B765008037650080BF
:103EA8009385C5B49306E004130644B3130585A6A9
:103EB800EFD09FEB37650080130545B6EFD0DFEAFA
:103EC8009305E004130544B3EFD0DFED1385840DAB
:103ED800EF00406B13850900EFF08FD21304050043
:103EE8001385840DEF000067631E0502B769008023
:103EF800B7650080376500809385C5B793061006BF
:103F0800138649B3130585A6EFD01FE637650080F1
:103F1800130545B9EFD05FE593051006138549B33E
:103F2800EFD05FE8732909306306040C1309800099
:103F3800733909301385840D13798900EF00005F08
:103F4800631E0502B7690080B76500803765008089
:103F58009385C5B49306E004138649B3130585A673
:103F6800EFD09FE037650080130545B6EFD0DFDF5F
:103F78009305E004138549B3EFD0DFE21385840D80
:103F8800EF00406013058400EFE0DFE193050400D3
:103F9800EFF08FAF8347D4001385840D93F7D7FFD5
:103FA800A306F400EF00005B631E0502B7640080FF
:103FB800B7650080376500809385C5B793061006FE
:103FC800138644B3130585A6EFD01FDA3765008042
:103FD800130545B9EFD05FD993051006138544B38F
:103FE800EFD05FDC73290930232404001305840112
:103FF800EF00104B130504008320C1010324810145
:1040080083244101032901018329C100130101020D
:1040180067800000130101FF232291002320210162
:1040280023261100232481001309050093040000AE
:104038000324090063048900631004028320C1007B
:10404800032481001385040003290100832441000F
:10405800130101016780000013050400EFF04FAA67
:1040680013050400EFE0DFCE93041000E30205FC23
:1040780013050400EFF08FDE6FF09FFBB767008039
:10408800938747481387470223A2E70223A4E7023E
:1040980093050000130510006FE0DFD6B7670080B6
:1040A80003A5C74867800000130101FE232C810087
:1040B800232A910023282101232E110023263101D0
:1040C800130405001389050093040600631E060205
:1040D800B7690080B7650080376500809385C5E5BE
:1040E800930660041386C9E4130585A6EFD0DFC7DD
:1040F80037650080130585E6EFD01FC79305600478
:104108001385C9E4EFD01FCA63FE2403B769008092
:10411800B765008037650080938505E893067004CD
:104128001386C9E4130585A6EFD01FC43765008040
:10413800130585E9EFD05FC3930570041385C9E4BF
:10414800EFD05FC623242401232694002320840073
:10415800232284008320C101032481018324410197
:10416800032901018329C1001301010267800000AE
:10417800130101FE232A910023263101232E110069
:10418800232C810023282101930905009304800032
:10419800F3B40430376400801305440E93F48400AC
:1041A800EF00C038631E050237690080B7650080DC
:1041B800376500809385C5B49306E004130649B3B8
:1041C800130585A6EFD05FBA37650080130545B69D
:1041D800EFD09FB99305E004130549B3EFD09FBC16
:1041E8001305440EEF00003A13850900EFF01FC7CE
:1041F80013090500630205048347D50093F7F70107
:10420800639807008327850163940700EFF00FC5C3
:10421800232609061305440E032481018320C101C6
:10422800032901018329C1009385040083244101E6
:10423800130101026FE0DFDD03A7890083A7C9002E
:10424800B387E740B337F000B387E70023A4F9004A
:104258006FF05FFCB767008083A74748130101FE32
:104268002328210123263101232E1100232C81002C
:10427800232A91002324410113090500938905008D
:1042880063800704638E050237640080B765008089
:1042980037650080938505EC9306C0081306C4E4CF
:1042A800130585A6EFD05FAC376500801305C5AE52
:1042B800EFD09FAB9305C0081305C4E4EFD09FAEC1
:1042C8001304800073340430B76400801385440EEF
:1042D80013748400EF008025631E0502376A00808E
:1042E800B7650080376500809385C5B49306E00400
:1042F80013064AB3130585A6EFD01FA737650080BC
:10430800130545B6EFD05FA69305E00413054AB33D
:10431800EFD05FA91385440EEF00C02683278900DC
:10432800638C07069387F7FF2324F9001385440E4F
:10433800EF004022631E0502B7640080B765008065
:10434800376500809385C5B793061006138644B376
:10435800130585A6EFD05FA137650080130545B921
:10436800EFD09FA093051006138544B3EFD09FA309
:1043780073240430130500008320C1010324810144
:1043880083244101032901018329C100032A8100F3
:104398001301010267800000639A09041385440E23
:1043A800EF00401B631E0502B7640080B7650080FC
:1043B800376500809385C5B793061006138644B306
:1043C800130585A6EFD05F9A37650080130545B9B8
:1043D800EFD09F9993051006138544B3EFD09F9CA7
:1043E80073240430130500FF6FF01FF993050400D0
:1043F800032481018320C101032A810093860900D7
:10440800130609008329C100032901011385440EFD
:1044180083244101130101026FF0DF9B8347D5001C
:1044280093F7F701639807000325850113351500F5
:10443800678000001305000067800000B7670080F0
:1044480003A547483335A00067800000B7670080A0
:1044580083A7C74803C5C700137515006780000008
:10446800130101FE03230102232C8100232E1100D6
:104478002320610013040500EFC09F97B7670080F1
:1044880083A7C7488320C10183A787062324F4068E
:1044980003248101130101026780000083270506B8
:1044A800130101FF232481002326110013040500B2
:1044B80063840700E780070013050400EFF01FF688
:1044C8006304050213050400EFF0CFE98347D40025
:1044D8008320C10093E78700A306F400032481002A
:1044E80013010101678000008347D40093F7270078
:1044F8006386070013050400EFE0DFA1832784012A
:10450800E38607FC13058401EF0080796FF01FFC38
:104518002306D500A306C5002307B500A307050099
:10452800232C0500232E05006780000003250500C5
:10453800630E0500B767008083C787491375350088
:104548003305F5403335A0006780000013051000DF
:1045580067800000B76700809387474803C7470113
:1045680083A78700B3E7E700032705006318F70070
:1045780023200500130510006780000013050000C4
:1045880067800000B76700809387474803C74701E3
:1045980083A78700B3E7E7002320F50067800000C2
:1045A800130101FE232C810023282101232E110051
:1045B800232A9100232631011309050013048000E2
:1045C80073340430B76400801385840E1374840038
:1045D800EFF0DFF5631E0502B7690080B76500805C
:1045E800376500809385C5B49306E004138649B304
:1045F800130585A6EFD04FF737650080130545B63C
:10460800EFD08FF69305E004138549B3EFD08FF907
:104618001385840EEFF01FF78347D90013F747007F
:10462800631407061385840EEFF0DFF2631E05029C
:10463800B7640080B7650080376500809385C5B78B
:1046480093061006138644B3130585A6EFD0CFF161
:1046580037650080130545B9EFD00FF193051006B3
:10466800138544B3EFD00FF4732404308320C101C1
:104678000324810183244101032901018329C10005
:10468800130101026780000093F7B7FFA306F90042
:1046980013050900EFF09FD863060500130509000C
:1046A800EFE0DFFB93050400032481018320C101AF
:1046B800032901018329C1001385840E8324410144
:1046C800130101026FE0DF94639405006FF05FED62
:1046D800130101FF2324810013040500138505003D
:1046E800130595009305A00023261100EFC04F9BEA
:1046F8001306150013058401032481008320C100DB
:10470800B73500809385457F130101016F0080361E
:10471800130101FC23225103938A0600B766008027
:1047280083A64648232C8102232A9102232631039B
:1047380023244103232E11022328210313040500F7
:1047480093890500130A060083244104638E060436
:1047580037690080B7650080376500809306201BA5
:10476800130649EF938545D8130585A6232E110115
:10477800232C0101232AF1002328E100EFD0CFDE0A
:1047880037650080130585F0EFD00FDE9305201BF9
:10479800130549EFEFD00FE18328C10103288101F8
:1047A80083274101032701018326010423220100F5
:1047B80013060A002320D1009385090093860A0076
:1047C80013050400EFF0DFC99307F0FF6388F400D6
:1047D8009385040013050400EFF01FEF1305040090
:1047E8008320C10303248103832441030329010394
:1047F8008329C102032A8102832A41021301010489
:1048080067800000130101FEB7670080232821019B
:1048180037690080232C8100232A9100232E110060
:104828001384870593848705130989056366240320
:1048380013840400EFE0DF8D9304F0FF6360240726
:10484800032481018320C10183244101032901013B
:10485800130101026FE09FC88327C4022322F100DD
:10486800832704022320F100832744018328C401FD
:1048780003288401032704018326C4000326840037
:104888008325440003250400EFF09FBD832704001F
:1048980023AE8704130404036FF05FF983254402F1
:1048A8006386950003250400EFF01FE21304040358
:1048B8006FF0DFF8130101FE232C8100232A9100F9
:1048C800232E11002328210193040500232601002B
:1048D80013048000733404301305C100137484007A
:1048E800EFF0DFC4631E050237690080B7650080FA
:1048F800376500809385C5B49306E004130649B371
:10490800130585A6EFD04FC637650080130545B659
:10491800EFD08FC59305E004130549B3EFD08FC8D6
:104928001305C100EFF01FC683C7C40093F7170033
:10493800638E070237690080B7650080376500809D
:10494800938585F493069002130609F3130585A64B
:10495800EFD08FC1376500801305C5F7EFD0CFC002
:1049680093059002130509F3EFD0CFC31385040014
:10497800EFF0DFB2930504001305C100EFE04FE943
:104988008320C101032481018324410103290101FA
:104998001301010267800000B767008083A7C70E74
:1049A800639407006FD01F8813050000678000001C
:1049B8008327050063020502376700800327470144
:1049C800630CE500638A070003A787008326850038
:1049D8003307D70023A4E700032745002320F70067
:1049E80023A2E7002320050023220500678000009A
:1049F800B767008083C7870F130101FF23261100C3
:104A080023248100232291001305F0FF63960700F9
:104A1800370500801345F5FFB767008093870701C6
:104A280003A407006304F4026302040283248400DD
:104A3800EFF09FF6B384A4401305000063C8040098
:104A480003248400EFF05FF53305A440B7670080C6
:104A580083A747496386070063D4A7001385070027
:104A68008320C10003248100832441001301010134
:104A78006780000083270500130101FD23248102BC
:104A880023229102232E3101232611022320210300
:104A9800232C4101232A5101232861012326710176
:104AA800232481011304050093890500930406005B
:104AB800638E070237690080B7650080376500801C
:104AC8009385C5FA9306D004130689F9130585A6BC
:104AD800EFD08FA9376500801305C5AEEFD0CFA8FA
:104AE8009305D004130589F9EFD0CFAB2326340101
:104AF800634490009304100093098000F3B90930CF
:104B0800376A008013050A0F93F98900EFF01FA296
:104B1800631E050237690080B7650080376500802D
:104B28009385C5B49306E004130649B3130585A617
:104B3800EFD08FA337650080130545B6EFD0CFA21D
:104B48009305E004130549B3EFD0CFA513050A0F69
:104B5800EFF05FA3EFF05FE433059500B7640080E2
:104B680003A904012324A40093840401630C99007D
:104B7800B76A0080376B0080B76B0080376C0080A5
:104B88006310090283A74400232094002322F40021
:104B980083A7440023A0870023A284006F00C005D8
:104BA8008327890063D607029305CBFC930660052B
:104BB80013868AF913858BA6EFD00F9B1305CCAE0D
:104BC800EFD08F9A9305600513858AF9EFD08F9DF2
:104BD800032789008327840063D8E70AB307F740CF
:104BE8002324F90083274900232024012322F400E9
:104BF80023A087002322890083A70400638A9700E3
:104C08006318F400EFF0DFDE93050000EFD00FC764
:104C180013050A0FEFF01F94631E05023764008026
:104C2800B7650080376500809385C5B79306100681
:104C3800130644B3130585A6EFD00F93376500809C
:104C4800130545B9EFD04F9293051006130544B3E9
:104C5800EFD04F95F3A909308320C10203248102C4
:104C680083244102032901028329C101032A810106
:104C7800832A4101032B0101832BC100032C8100EE
:104C88001301010367800000B387E7402324F40081
:104C980083A74400E38827EF032909006FF05FEE3C
:104CA800130101FE232C810023263101232E11003C
:104CB800232A910023282101930905001304800069
:104CC80073340430B76400801385040F13748400B0
:104CD800EFF0DF85631E050237690080B765008045
:104CE800376500809385C5B49306E004130649B37D
:104CF800130585A6EFD04F8737650080130545B6A5
:104D0800EFD08F869305E004130549B3EFD08F8960
:104D18001385040FEFF01F8783A709001309A0FE6E
:104D28006388070013850900EFF09FC81309000086
:104D38001385040FEFF01F82631E0502B76400801D
:104D4800B7650080376500809385C5B79306100660
:104D5800138644B3130585A6EFD00F81376500800D
:104D6800130545B9EFD04F8093051006138544B35A
:104D7800EFD04F83732404308320C10103248101C1
:104D88001305090083244101032901018329C10076
:104D98001301010267800000130101FF2324810031
:104DA80023261100232291002320210113048000CF
:104DB80073340430B76400801385040F13748400BF
:104DC800EFF0CFF6631E050237690080B7650080F3
:104DD800376500809385C5B49306E004130649B38C
:104DE800130585A6EFC05FF837650080130545B643
:104DF800EFC09FF79305E004130549B3EFC09FFA8E
:104E08001385040FEFF00FF8EFF09FBE13090500AC
:104E18001385040FEFF00FF4631E0502B7640080DA
:104E2800B7650080376500809385C5B7930610067F
:104E3800138644B3130585A6EFC01FF337650080BA
:104E4800130545B9EFC05FF293051006138544B307
:104E5800EFC05FF5732404308320C1000324810070
:104E680013050900832441000329010013010101EE
:104E780067800000130101FE232C810023282101F3
:104E880023244101232E1100232A910023263101D6
:104E980013090500138A05001304800073340430D5
:104EA800B76400801385040F13748400EFF00FE8D3
:104EB800631E0502B7690080B7650080376500800A
:104EC8009385C5B49306E004138649B3130585A6F4
:104ED800EFC09FE937650080130545B6EFC0DFE8EE
:104EE8009305E004138549B3EFC0DFEB1385040F86
:104EF800EFF04FE9EFF0DFAF635CA9009307100014
:104F080063D8A70093050A0013050900EFD00F978F
:104F18001385040FEFF00FE4631E0502B7640080E9
:104F2800B7650080376500809385C5B7930610067E
:104F3800138644B3130585A6EFC01FE337650080C9
:104F4800130545B9EFC05FE293051006138544B316
:104F5800EFC05FE5732404308320C101032481017D
:104F680083244101032901018329C100032A810007
:104F78001301010267800000130101FD232481024F
:104F8800232C4101232611022322910223202103ED
:104F9800232E3101232A510123286101232671017F
:104FA80023248101232291012320A101130A050052
:104FB80013048000EFE09FB3733404303769008036
:104FC8001305090F13748400EFF04FD6631E050212
:104FD800B7640080B7650080376500809385C5B4E5
:104FE8009306E004138644B3130585A6EFC0DFD704
:104FF80037650080130545B6EFC01FD79305E00459
:10500800138544B3EFC01FDAB76900801305090F91
:10501800EFF04FD7B764008023A6490F376A0080A6
:105028009389C90E130A0A019384040BB76A008096
:10503800B76B0080376B0080376C0080B76C0080DE
:10504800032D0A0083A7090083A6040003A54400D2
:10505800630C4D01630A0D0003278D0063DCE70A2A
:105068003307F7402324ED00B386D70013D7F74161
:105078003307A700B3B7F600B387E70023A0D4002F
:1050880023A2F40023A00900EFF09F9693050000E7
:10509800EFC0DFFE1305090FEFF0CFCB631E05024B
:1050A800B7640080B7650080376500809385C5B711
:1050B80093061006138644B3130585A6EFC0DFCA0E
:1050C80037650080130545B9EFC01FCA9305100660
:1050D800138544B3EFC01FCD732404308320C1026D
:1050E8000324810283244102032901028329C10187
:1050F800032A8101832A4101032B0101832BC1006B
:10510800032C8100832C4100032D010013010103AE
:1051180067800000B306D7009355F741B385A50013
:1051280033B6E6003306B600B387E74013050D0033
:1051380023240D0023A0D40023A2C40023A0F90037
:10514800EFF01F871305090FEFF0CFC063160502B4
:105158009385CBB79306100613864AB313058BA61F
:10516800EFC09FC013054CB9EFC01FC093051006D0
:1051780013854AB3EFC01FC3732404308327CD00BF
:1051880013050D0013048000E78007007334043012
:105198001305090F13748400EFF04FB96318050263
:1051A8009385CCB49306E00413864AB313058BA603
:1051B800EFC09FBB37650080130545B6EFC0DFBA67
:1051C8009305E00413854AB3EFC0DFBD1305090F4B
:1051D800EFF04FBB6FF0DFE6130101FE232A9100C9
:1051E800232E1100232C810023282101232631019D
:1051F80093048000F3B40430376900801305090F65
:1052080093F48400EFF08FB2631E050237640080C8
:10521800B7650080376500809385C5B49306E004C0
:10522800130644B3130585A6EFC01FB43765008085
:10523800130545B6EFC05FB39305E004130544B307
:10524800EFC05FB61305090FEFF0CFB3EFC09FFDB6
:10525800B76700809387070B83A9070003A447005B
:10526800B309350133B5A900330485001305090FC7
:10527800EFF04FAE631E050237690080B765008006
:10528800376500809385C5B793061006130649B3A2
:10529800130585A6EFC05FAD37650080130545B9D6
:1052A800EFC09FAC93051006130549B3EFC09FAF3D
:1052B800F3A40430930504008320C1010324810171
:1052C8001385090083244101032901018329C100B1
:1052D8001301010267800000130101FE232C8100E5
:1052E8002328210123244101232E1100232A910080
:1052F80023263101130A05001389050013048000D1
:1053080073340430B76400801385440F1374840029
:10531800EFF0CFA1631E0502B7690080B765008072
:10532800376500809385C5B49306E004138649B3B6
:10533800130585A6EFC05FA337650080130545B642
:10534800EFC09FA29305E004138549B3EFC09FA562
:105358001385440FEFF00FA383290A001385440F28
:105368003389290123202A01EFF0CF9E631E05020D
:10537800B7640080B7650080376500809385C5B73E
:1053880093061006138644B3130585A6EFC0DF9D68
:1053980037650080130545B9EFC01F9D93051006BA
:1053A800138544B3EFC01FA0732404308320C101C8
:1053B8000324810113850900832441010329010184
:1053C8008329C100032A81001301010267800000BC
:0453D80067800000EA
:1053DC0000000000700D008000000000700D0080C7
:1053EC0000000000700D008000000000700D0080B7
:1053FC0000000000700D008000000000700D0080A7
:10540C0000000000700D008000000000EC1E008009
:10541C0000000000700D008000000000700D008086
:10542C0000000000700D008000000000700D008076
:10543C0000000000700D008000000000700D008066
:10544C0000000000700D008000000000700D008056
:10545C0000000000700D008000000000700D008046
:10546C0000000000700D008000000000700D008036
:10547C0000000000700D008000000000700D008026
:10548C0000000000700D008000000000700D008016
:10549C0000000000700D008000000000700D008006
:1054AC0000000000700D008000000000700D0080F6
:1054BC0000000000700D008000000000700D0080E6
:1054CC0000000000700D008000000000700D0080D6
:1054DC0000000000700D008000000000700D0080C6
:1054EC0000000000700D008000000000700D0080B6
:1054FC0000000000700D008000000000700D0080A6
:10550C0000000000700D008000000000700D008095
:10551C0000000000700D008000000000700D008085
:10552C00DC560080A41E008000000000285B008078
:10553C003820008000000000205B0080D026008016
:10554C0000000000DC560080D8290080000000001C
:10555C00000102020303030304040404040404040E
:10556C0005050505050505050505050505050505DF
:10557C0006060606060606060606060606060606BF
:10558C0006060606060606060606060606060606AF
:10559C00070707070707070707070707070707078F
:1055AC00070707070707070707070707070707077F
:1055BC00070707070707070707070707070707076F
:1055CC00070707070707070707070707070707075F
:1055DC00080808080808080808080808080808083F
:1055EC00080808080808080808080808080808082F
:1055FC00080808080808080808080808080808081F
:10560C00080808080808080808080808080808080E
:10561C0008080808080808080808080808080808FE
:10562C0008080808080808080808080808080808EE
:10563C0008080808080808080808080808080808DE
:10564C0008080808080808080808080808080808CE
:10565C00746573745F6D706F6F6C5F746872656185
:10566C0064736166650000006D706F6F6C5F7468C9
:10567C00726561647361666500000000480C00800F
:10568C00000D0080000D00803C0C0080480C008058
:10569C00E80C0080F40C00803057008050570080DC
:1056AC006C570080805700808C570080A457008076
:1056BC00756E6B6E6F776E00457863657074696F8D
:1056CC006E20636175736520257320282564290A73
:1056DC0000000000ADBAADDEADBAADDEADBAADDEE8
:1056EC00ADBAADDEADBAADDEADBAADDEADBAADDEE6
:1056FC00ADBAADDEADBAADDEADBAADDEADBAADDED6
:10570C00ADBAADDEADBAADDEADBAADDEADBAADDEC5
:10571C00ADBAADDEADBAADDEADBAADDEADBAADDEB5
:10572C00ADBAADDE496E737472756374696F6E20B9
:10573C0061646472657373206D6973616C69676E03
:10574C0065640000496E737472756374696F6E20C2
:10575C00416363657373206661756C7400000000AF
:10576C00496C6C6567616C20696E737472756374D7
:10577C00696F6E00427265616B706F696E740000C8
:10578C004C6F61642061646472657373206D69731E
:10579C00616C69676E6564004C6F61642061636362
:1057AC00657373206661756C740000002A2A2A2ABE
:1057BC00204B65726E656C20416C6C6F6361746913
:1057CC006F6E204661696C75726521202A2A2A2A1F
:1057DC000A0000002A2A2A2A2A204B65726E656C60
:1057EC00204F4F505321202A2A2A2A2A0A0000002F
:1057FC002A2A2A2A2A204B65726E656C2050616E0B
:10580C00696321202A2A2A2A2A0A00002A2A2A2AFB
:10581C0020556E6B6E6F776E20466174616C2045FF
:10582C0072726F7220256421202A2A2A2A0A00000B
:10583C0043757272656E7420746872656164204978
:10584C0044203D2025700A4661756C74696E672092
:10585C00696E737472756374696F6E2061646472BF
:10586C00657373203D20307825780A202072613AC8
:10587C002030782578202067703A203078257820E1
:10588C002074703A2030782578202074303A2030FB
:10589C007825780A202074313A2030782578202019
:1058AC0074323A2030782578202074333A203078BE
:1058BC002578202074343A20307825780A202074FA
:1058CC00353A2030782578202074363A20307825E7
:1058DC0078202061303A2030782578202061313AC8
:1058EC0020307825780A202061323A2030782578CB
:1058FC00202061333A2030782578202061343A20FA
:10590C0030782578202061353A20307825780A20A7
:10591C002061363A2030782578202061373A2030C3
:10592C007825780A000000004953520065737365AE
:10593C006E7469616C2074687265616400000000AB
:10594C00466174616C206661756C7420696E2025EB
:10595C007321205370696E6E696E672E2E2E0A00AD
:10596C00466174616C206661756C7420696E20747C
:10597C006872656164202570212041626F727469C0
:10598C006E672E0A0000000053707572696F757394
:10599C0020696E74657272757074206465746563C9
:1059AC0074656421204952513A2025640A00000094
:1059BC002E2F617263682F726973637633322F6393
:1059CC006F72652F7468726561642E63000000004D
:1059DC00282828287072696F726974792929203DEA
:1059EC003D203135202626207A5F69735F69646C0F
:1059FC00655F746872656164282874687265616497
:105A0C005F66756E63292929207C7C202828283123
:105A1C0035202D203129203E3D2028282D313629B6
:105A2C0029292026262028287072696F72697479BA
:105A3C002929203E3D2028282D31362929202626AB
:105A4C002028287072696F726974792929203C3D6D
:105A5C0020283135202D2031292929004153534547
:105A6C005254494F4E204641494C205B25735D20D2
:105A7C00402025733A25640A0000000009696E76FF
:105A8C00616C6964207072696F7269747920282561
:105A9C0064293B20616C6C6F7765642072616E6762
:105AAC00653A20256420746F2025640A00000000EC
:105ABC002E2F6C69622F6F732F6D656D706F6F6C0D
:105ACC002E630000626C6F636B5F66697473287081
